{
  "_format": "hh-sol-artifact-1",
  "contractName": "BuyAndSell",
  "sourceName": "contracts/market/BuyAndSell.sol",
  "abi": [
    {
      "anonymous": false,
      "inputs": [
        {
          "indexed": false,
          "internalType": "address",
          "name": "previousAdmin",
          "type": "address"
        },
        {
          "indexed": false,
          "internalType": "address",
          "name": "newAdmin",
          "type": "address"
        }
      ],
      "name": "AdminChanged",
      "type": "event"
    },
    {
      "anonymous": false,
      "inputs": [
        {
          "indexed": true,
          "internalType": "address",
          "name": "beacon",
          "type": "address"
        }
      ],
      "name": "BeaconUpgraded",
      "type": "event"
    },
    {
      "anonymous": false,
      "inputs": [
        {
          "indexed": false,
          "internalType": "uint8",
          "name": "version",
          "type": "uint8"
        }
      ],
      "name": "Initialized",
      "type": "event"
    },
    {
      "anonymous": false,
      "inputs": [
        {
          "indexed": true,
          "internalType": "uint256",
          "name": "productId",
          "type": "uint256"
        },
        {
          "indexed": true,
          "internalType": "uint256",
          "name": "itemId",
          "type": "uint256"
        },
        {
          "indexed": true,
          "internalType": "address",
          "name": "seller",
          "type": "address"
        }
      ],
      "name": "ItemCanceled",
      "type": "event"
    },
    {
      "anonymous": false,
      "inputs": [
        {
          "indexed": true,
          "internalType": "uint256",
          "name": "productId",
          "type": "uint256"
        },
        {
          "indexed": true,
          "internalType": "uint256",
          "name": "nftId",
          "type": "uint256"
        },
        {
          "indexed": false,
          "internalType": "uint256",
          "name": "price",
          "type": "uint256"
        },
        {
          "indexed": false,
          "internalType": "address",
          "name": "seller",
          "type": "address"
        }
      ],
      "name": "ItemIsOnSale",
      "type": "event"
    },
    {
      "anonymous": false,
      "inputs": [
        {
          "indexed": true,
          "internalType": "uint256",
          "name": "productId",
          "type": "uint256"
        },
        {
          "indexed": true,
          "internalType": "uint256",
          "name": "nftId",
          "type": "uint256"
        },
        {
          "indexed": false,
          "internalType": "uint256",
          "name": "price",
          "type": "uint256"
        },
        {
          "indexed": false,
          "internalType": "address",
          "name": "buyer",
          "type": "address"
        }
      ],
      "name": "ItemsSold",
      "type": "event"
    },
    {
      "anonymous": false,
      "inputs": [
        {
          "indexed": true,
          "internalType": "address",
          "name": "previousOwner",
          "type": "address"
        },
        {
          "indexed": true,
          "internalType": "address",
          "name": "newOwner",
          "type": "address"
        }
      ],
      "name": "OwnershipTransferred",
      "type": "event"
    },
    {
      "anonymous": false,
      "inputs": [
        {
          "indexed": true,
          "internalType": "address",
          "name": "implementation",
          "type": "address"
        }
      ],
      "name": "Upgraded",
      "type": "event"
    },
    {
      "inputs": [
        {
          "internalType": "uint256",
          "name": "_productId",
          "type": "uint256"
        }
      ],
      "name": "cancelSell",
      "outputs": [],
      "stateMutability": "nonpayable",
      "type": "function"
    },
    {
      "inputs": [
        {
          "internalType": "uint256",
          "name": "_productId",
          "type": "uint256"
        }
      ],
      "name": "getProductDetail",
      "outputs": [
        {
          "components": [
            {
              "internalType": "uint256",
              "name": "id",
              "type": "uint256"
            },
            {
              "internalType": "uint256",
              "name": "itemId",
              "type": "uint256"
            },
            {
              "internalType": "uint256",
              "name": "price",
              "type": "uint256"
            },
            {
              "internalType": "bool",
              "name": "isSold",
              "type": "bool"
            },
            {
              "internalType": "address",
              "name": "seller",
              "type": "address"
            }
          ],
          "internalType": "struct BuyAndSell.PRODUCT",
          "name": "",
          "type": "tuple"
        }
      ],
      "stateMutability": "view",
      "type": "function"
    },
    {
      "inputs": [],
      "name": "getTotalProductCreated",
      "outputs": [
        {
          "internalType": "uint256",
          "name": "",
          "type": "uint256"
        }
      ],
      "stateMutability": "view",
      "type": "function"
    },
    {
      "inputs": [
        {
          "internalType": "address",
          "name": "_user",
          "type": "address"
        }
      ],
      "name": "getUserOnSellItems",
      "outputs": [
        {
          "components": [
            {
              "internalType": "uint256",
              "name": "id",
              "type": "uint256"
            },
            {
              "internalType": "uint256",
              "name": "itemId",
              "type": "uint256"
            },
            {
              "internalType": "uint256",
              "name": "price",
              "type": "uint256"
            },
            {
              "internalType": "bool",
              "name": "isSold",
              "type": "bool"
            },
            {
              "internalType": "address",
              "name": "seller",
              "type": "address"
            }
          ],
          "internalType": "struct BuyAndSell.PRODUCT[]",
          "name": "",
          "type": "tuple[]"
        }
      ],
      "stateMutability": "view",
      "type": "function"
    },
    {
      "inputs": [
        {
          "internalType": "address",
          "name": "_user",
          "type": "address"
        }
      ],
      "name": "getUserSoldProduct",
      "outputs": [
        {
          "components": [
            {
              "internalType": "uint256",
              "name": "id",
              "type": "uint256"
            },
            {
              "internalType": "uint256",
              "name": "itemId",
              "type": "uint256"
            },
            {
              "internalType": "uint256",
              "name": "price",
              "type": "uint256"
            },
            {
              "internalType": "bool",
              "name": "isSold",
              "type": "bool"
            },
            {
              "internalType": "address",
              "name": "seller",
              "type": "address"
            }
          ],
          "internalType": "struct BuyAndSell.PRODUCT[]",
          "name": "",
          "type": "tuple[]"
        }
      ],
      "stateMutability": "view",
      "type": "function"
    },
    {
      "inputs": [
        {
          "internalType": "address",
          "name": "_user",
          "type": "address"
        }
      ],
      "name": "getUserSoldProducts",
      "outputs": [
        {
          "internalType": "uint256[]",
          "name": "",
          "type": "uint256[]"
        }
      ],
      "stateMutability": "view",
      "type": "function"
    },
    {
      "inputs": [
        {
          "internalType": "address",
          "name": "_nftItemAddress",
          "type": "address"
        },
        {
          "internalType": "address",
          "name": "_payTokenAddress",
          "type": "address"
        }
      ],
      "name": "initialize",
      "outputs": [],
      "stateMutability": "nonpayable",
      "type": "function"
    },
    {
      "inputs": [
        {
          "internalType": "address",
          "name": "",
          "type": "address"
        },
        {
          "internalType": "address",
          "name": "",
          "type": "address"
        },
        {
          "internalType": "uint256",
          "name": "",
          "type": "uint256"
        },
        {
          "internalType": "uint256",
          "name": "",
          "type": "uint256"
        },
        {
          "internalType": "bytes",
          "name": "",
          "type": "bytes"
        }
      ],
      "name": "onERC1155Received",
      "outputs": [
        {
          "internalType": "bytes4",
          "name": "",
          "type": "bytes4"
        }
      ],
      "stateMutability": "nonpayable",
      "type": "function"
    },
    {
      "inputs": [],
      "name": "owner",
      "outputs": [
        {
          "internalType": "address",
          "name": "",
          "type": "address"
        }
      ],
      "stateMutability": "view",
      "type": "function"
    },
    {
      "inputs": [],
      "name": "payTokenAddress",
      "outputs": [
        {
          "internalType": "address",
          "name": "",
          "type": "address"
        }
      ],
      "stateMutability": "view",
      "type": "function"
    },
    {
      "inputs": [],
      "name": "platFormAddress",
      "outputs": [
        {
          "internalType": "address",
          "name": "",
          "type": "address"
        }
      ],
      "stateMutability": "view",
      "type": "function"
    },
    {
      "inputs": [],
      "name": "proxiableUUID",
      "outputs": [
        {
          "internalType": "bytes32",
          "name": "",
          "type": "bytes32"
        }
      ],
      "stateMutability": "view",
      "type": "function"
    },
    {
      "inputs": [
        {
          "internalType": "uint256",
          "name": "_productId",
          "type": "uint256"
        },
        {
          "internalType": "uint256",
          "name": "amount",
          "type": "uint256"
        }
      ],
      "name": "purchaseProduct",
      "outputs": [],
      "stateMutability": "nonpayable",
      "type": "function"
    },
    {
      "inputs": [
        {
          "internalType": "uint256",
          "name": "_itemId",
          "type": "uint256"
        },
        {
          "internalType": "uint256",
          "name": "_price",
          "type": "uint256"
        }
      ],
      "name": "putProductToSell",
      "outputs": [],
      "stateMutability": "nonpayable",
      "type": "function"
    },
    {
      "inputs": [],
      "name": "ravaItemsAddress",
      "outputs": [
        {
          "internalType": "address",
          "name": "",
          "type": "address"
        }
      ],
      "stateMutability": "view",
      "type": "function"
    },
    {
      "inputs": [],
      "name": "renounceOwnership",
      "outputs": [],
      "stateMutability": "nonpayable",
      "type": "function"
    },
    {
      "inputs": [
        {
          "internalType": "address",
          "name": "newOwner",
          "type": "address"
        }
      ],
      "name": "transferOwnership",
      "outputs": [],
      "stateMutability": "nonpayable",
      "type": "function"
    },
    {
      "inputs": [
        {
          "internalType": "address",
          "name": "newImplementation",
          "type": "address"
        }
      ],
      "name": "upgradeTo",
      "outputs": [],
      "stateMutability": "nonpayable",
      "type": "function"
    },
    {
      "inputs": [
        {
          "internalType": "address",
          "name": "newImplementation",
          "type": "address"
        },
        {
          "internalType": "bytes",
          "name": "data",
          "type": "bytes"
        }
      ],
      "name": "upgradeToAndCall",
      "outputs": [],
      "stateMutability": "payable",
      "type": "function"
    }
  ],
  "bytecode": "0x60a06040523060805234801561001457600080fd5b5060805161216961004c6000396000818161065701528181610697015281816107fb0152818161083b01526108b701526121696000f3fe6080604052600436106100e45760003560e01c806307c9cd45146100e9578063130517741461010b5780633659cfe614610141578063485cc955146101615780634f1ef2861461018157806352d1902d146101945780635ddc949c146101b7578063715018a6146101e457806388a7c05e146101f95780638da5cb5b14610231578063901523f914610246578063a044042614610273578063afcebcb214610293578063b2d4f36e146102b3578063c77b5146146102c8578063eb1ac748146102e8578063f23a6e6114610308578063f2fde38b1461034d578063f9d377cb1461036d575b600080fd5b3480156100f557600080fd5b50610109610104366004611ae9565b61038d565b005b34801561011757600080fd5b5061012b610126366004611b1e565b6105e0565b6040516101389190611b39565b60405180910390f35b34801561014d57600080fd5b5061010961015c366004611b1e565b61064d565b34801561016d57600080fd5b5061010961017c366004611b7d565b610715565b61010961018f366004611c52565b6107f1565b3480156101a057600080fd5b506101a96108aa565b604051908152602001610138565b3480156101c357600080fd5b506101d76101d2366004611ae9565b610958565b6040516101389190611cd7565b3480156101f057600080fd5b506101096109bb565b34801561020557600080fd5b5060fe54610219906001600160a01b031681565b6040516001600160a01b039091168152602001610138565b34801561023d57600080fd5b506102196109cf565b34801561025257600080fd5b50610266610261366004611b1e565b6109de565b6040516101389190611ce5565b34801561027f57600080fd5b5061010961028e366004611d27565b610bb2565b34801561029f57600080fd5b506102666102ae366004611b1e565b610f58565b3480156102bf57600080fd5b506101a961112a565b3480156102d457600080fd5b5060ff54610219906001600160a01b031681565b3480156102f457600080fd5b50610109610303366004611d27565b61113a565b34801561031457600080fd5b50610334610323366004611d49565b63f23a6e6160e01b95945050505050565b6040516001600160e01b03199091168152602001610138565b34801561035957600080fd5b50610109610368366004611b1e565b611366565b34801561037957600080fd5b5060fc54610219906001600160a01b031681565b60008181526101006020818152604092839020835160a0810185528154815260018201549281019290925260028101549382019390935260039092015460ff811615156060840152046001600160a01b03166080820181905233146104215760405162461bcd60e51b81526020600482015260056024820152646e6f74205360d81b60448201526064015b60405180910390fd5b60608101511561045e5760405162461bcd60e51b81526020600482015260086024820152671cdbdb19081bdd5d60c21b6044820152606401610418565b602081015160fd546040516356df3db160e01b81526001600160a01b03909116906356df3db1906104959033908590600401611dba565b600060405180830381600087803b1580156104af57600080fd5b505af11580156104c3573d6000803e3d6000fd5b505060fd5460405163b00741cb60e01b8152600481018590526001600160a01b03909116925063b00741cb9150602401600060405180830381600087803b15801561050d57600080fd5b505af1158015610521573d6000803e3d6000fd5b5050506000848152610100602052604090819020600301805460ff1916600190811790915560fc549151637921219560e11b81526001600160a01b03909216925063f242432a9161057a91309133918791600401611dd3565b600060405180830381600087803b15801561059457600080fd5b505af11580156105a8573d6000803e3d6000fd5b505060405133925083915085907f937332fa1ffb08f2ccb34906d8cf841f0d933f1fbe678bef5af2770c6379c40e90600090a4505050565b6001600160a01b0381166000908152610101602090815260409182902080548351818402810184019094528084526060939283018282801561064157602002820191906000526020600020905b81548152602001906001019080831161062d575b50505050509050919050565b6001600160a01b037f00000000000000000000000000000000000000000000000000000000000000001630036106955760405162461bcd60e51b815260040161041890611e0b565b7f00000000000000000000000000000000000000000000000000000000000000006001600160a01b03166106c76113dc565b6001600160a01b0316146106ed5760405162461bcd60e51b815260040161041890611e45565b6106f6816113f8565b6040805160008082526020820190925261071291839190611400565b50565b600054610100900460ff16158080156107355750600054600160ff909116105b8061075657506107443061156b565b158015610756575060005460ff166001145b6107725760405162461bcd60e51b815260040161041890611e7f565b6000805460ff191660011790558015610795576000805461ff0019166101001790555b61079d61157a565b6107a56115a1565b6107ad6115d0565b6107b783836115ff565b80156107ec576000805461ff0019169055604051600181526000805160206120ed833981519152906020015b60405180910390a15b505050565b6001600160a01b037f00000000000000000000000000000000000000000000000000000000000000001630036108395760405162461bcd60e51b815260040161041890611e0b565b7f00000000000000000000000000000000000000000000000000000000000000006001600160a01b031661086b6113dc565b6001600160a01b0316146108915760405162461bcd60e51b815260040161041890611e45565b61089a826113f8565b6108a682826001611400565b5050565b6000306001600160a01b037f000000000000000000000000000000000000000000000000000000000000000016146109455760405162461bcd60e51b815260206004820152603860248201527f555550535570677261646561626c653a206d757374206e6f742062652063616c6044820152771b1959081d1a1c9bdd59da0819195b1959d85d1958d85b1b60421b6064820152608401610418565b506000805160206120cd83398151915290565b610960611aaf565b5060009081526101006020818152604092839020835160a0810185528154815260018201549281019290925260028101549382019390935260039092015460ff811615156060840152046001600160a01b0316608082015290565b6109c36116f3565b6109cd6000611752565b565b6097546001600160a01b031690565b606060006109eb60fb5490565b905060008060015b838111610a645760008181526101006020819052604090912060030154046001600160a01b03908116908716148015610a3f57506000818152610100602052604090206003015460ff16155b15610a5257610a4f600184611ee3565b92505b80610a5c81611ef6565b9150506109f3565b506000826001600160401b03811115610a7f57610a7f611bb0565b604051908082528060200260200182016040528015610ab857816020015b610aa5611aaf565b815260200190600190039081610a9d5790505b50905060015b848111610ba85760008181526101006020819052604090912060030154046001600160a01b03908116908816148015610b0a57506000818152610100602052604090206003015460ff16155b15610b965760008181526101006020818152604092839020835160a08101855281548152600182015492810192909252600281015493820193909352600383015460ff811615156060830152919091046001600160a01b031660808201528351849086908110610b7c57610b7c611f0f565b6020908102919091010152610b92600185611ee3565b9350505b80610ba081611ef6565b915050610abe565b5095945050505050565b610bba6117a4565b600082815261010060205260409020600281015460039091015460ff1681831015610c185760405162461bcd60e51b815260206004820152600e60248201526d616d6f756e74203c20707269636560901b6044820152606401610418565b8015610c515760405162461bcd60e51b815260206004820152600860248201526714dbdb19081bdd5d60c21b6044820152606401610418565b60006064610c60856001611f25565b610c6a9190611f3c565b610c749085611f5e565b600086815261010060208190526040918290206003015460ff5492516323b872dd60e01b8152939450046001600160a01b03908116929116906323b872dd90610cc590339085908790600401611f71565b6020604051808303816000875af1158015610ce4573d6000803e3d6000fd5b505050506040513d601f19601f82011682018060405250810190610d089190611f95565b5060ff5460fe546001600160a01b03918216916323b872dd91339116610d2e868a611f5e565b6040518463ffffffff1660e01b8152600401610d4c93929190611f71565b6020604051808303816000875af1158015610d6b573d6000803e3d6000fd5b505050506040513d601f19601f82011682018060405250810190610d8f9190611f95565b5060008681526101006020526040908190206001015460fd5491516356df3db160e01b815290916001600160a01b0316906356df3db190610dd69033908590600401611dba565b600060405180830381600087803b158015610df057600080fd5b505af1158015610e04573d6000803e3d6000fd5b505060fd5460405163b00741cb60e01b8152600481018590526001600160a01b03909116925063b00741cb9150602401600060405180830381600087803b158015610e4e57600080fd5b505af1158015610e62573d6000803e3d6000fd5b505050506001600160a01b03828116600090815261010160209081526040808320805460018082018355918552838520018690558b845261010090925291829020600301805460ff19168217905560fc549151637921219560e11b8152919092169163f242432a91610edc91309133918791600401611dd3565b600060405180830381600087803b158015610ef657600080fd5b505af1158015610f0a573d6000803e3d6000fd5b5050505080877ffe70bc7304d39ba029701607c712b367ac27468c55318395739bed71da763b5a8533604051610f41929190611fbe565b60405180910390a350505050506108a6600160c955565b60606000610f6560fb5490565b905060008060015b838111610fe25760008181526101006020819052604090912060030154046001600160a01b03908116908716148015610fbd57506000818152610100602052604090206003015460ff1615156001145b15610fd057610fcd600184611ee3565b92505b80610fda81611ef6565b915050610f6d565b506000826001600160401b03811115610ffd57610ffd611bb0565b60405190808252806020026020018201604052801561103657816020015b611023611aaf565b81526020019060019003908161101b5790505b50905060015b848111610ba85760008181526101006020819052604090912060030154046001600160a01b0390811690881614801561108c57506000818152610100602052604090206003015460ff1615156001145b156111185760008181526101006020818152604092839020835160a08101855281548152600182015492810192909252600281015493820193909352600383015460ff811615156060830152919091046001600160a01b0316608082015283518490869081106110fe576110fe611f0f565b6020908102919091010152611114600185611ee3565b9350505b8061112281611ef6565b91505061103c565b600061113560fb5490565b905090565b6111426117a4565b6000811161117e5760405162461bcd60e51b815260206004820152600960248201526805072696365203d20360bc1b6044820152606401610418565b600061118b606483611f3c565b611196906001611f25565b6111a09083611ee3565b90506111b060fb80546001019055565b60006111bb60fb5490565b60fd546040516356df3db160e01b81529192506001600160a01b0316906356df3db1906111ee9030908890600401611dba565b600060405180830381600087803b15801561120857600080fd5b505af115801561121c573d6000803e3d6000fd5b505060fd5460405163b00741cb60e01b8152600481018890526001600160a01b03909116925063b00741cb9150602401600060405180830381600087803b15801561126657600080fd5b505af115801561127a573d6000803e3d6000fd5b50505060008281526101006020819052604091829020848155600281018690556003810180546001600160a81b03191633938402179055600190810188905560fc549251637921219560e11b81526001600160a01b03909316935063f242432a926112ed929130918a9190600401611dd3565b600060405180830381600087803b15801561130757600080fd5b505af115801561131b573d6000803e3d6000fd5b5050505083817fdd89fc2a3f06907fcb2db26e596d448829f856194ae8d7f9a171437f92d5c0228433604051611352929190611fbe565b60405180910390a350506108a6600160c955565b61136e6116f3565b6001600160a01b0381166113d35760405162461bcd60e51b815260206004820152602660248201527f4f776e61626c653a206e6577206f776e657220697320746865207a65726f206160448201526564647265737360d01b6064820152608401610418565b61071281611752565b6000805160206120cd833981519152546001600160a01b031690565b6107126116f3565b7f4910fdfa16fed3260ed0e7147f7cc6da11a60208b5b9406d12a635614ffd91435460ff1615611433576107ec83611804565b826001600160a01b03166352d1902d6040518163ffffffff1660e01b8152600401602060405180830381865afa92505050801561148d575060408051601f3d908101601f1916820190925261148a91810190611fd5565b60015b6114f05760405162461bcd60e51b815260206004820152602e60248201527f45524331393637557067726164653a206e657720696d706c656d656e7461746960448201526d6f6e206973206e6f74205555505360901b6064820152608401610418565b6000805160206120cd833981519152811461155f5760405162461bcd60e51b815260206004820152602960248201527f45524331393637557067726164653a20756e737570706f727465642070726f786044820152681a58589b195555525160ba1b6064820152608401610418565b506107ec83838361189e565b6001600160a01b03163b151590565b600054610100900460ff166109cd5760405162461bcd60e51b815260040161041890611fee565b600054610100900460ff166115c85760405162461bcd60e51b815260040161041890611fee565b6109cd6118c9565b600054610100900460ff166115f75760405162461bcd60e51b815260040161041890611fee565b6109cd6118f9565b600054610100900460ff161580801561161f5750600054600160ff909116105b80611640575061162e3061156b565b158015611640575060005460ff166001145b61165c5760405162461bcd60e51b815260040161041890611e7f565b6000805460ff19166001179055801561167f576000805461ff0019166101001790555b60fd80546001600160a01b03199081166001600160a01b0386811691821790935560fe80548316905560fc80548316909117905560ff805490911691841691909117905580156107ec576000805461ff0019169055604051600181526000805160206120ed833981519152906020016107e3565b336116fc6109cf565b6001600160a01b0316146109cd5760405162461bcd60e51b815260206004820181905260248201527f4f776e61626c653a2063616c6c6572206973206e6f7420746865206f776e65726044820152606401610418565b609780546001600160a01b038381166001600160a01b0319831681179093556040519116919082907f8be0079c531659141344cd1fd0a4f28419497f9722a3daafe3b4186f6b6457e090600090a35050565b600260c954036117f65760405162461bcd60e51b815260206004820152601f60248201527f5265656e7472616e637947756172643a207265656e7472616e742063616c6c006044820152606401610418565b600260c955565b600160c955565b61180d8161156b565b61186f5760405162461bcd60e51b815260206004820152602d60248201527f455243313936373a206e657720696d706c656d656e746174696f6e206973206e60448201526c1bdd08184818dbdb9d1c9858dd609a1b6064820152608401610418565b6000805160206120cd83398151915280546001600160a01b0319166001600160a01b0392909216919091179055565b6118a783611920565b6000825111806118b45750805b156107ec576118c38383611960565b50505050565b600054610100900460ff166118f05760405162461bcd60e51b815260040161041890611fee565b6109cd33611752565b600054610100900460ff166117fd5760405162461bcd60e51b815260040161041890611fee565b61192981611804565b6040516001600160a01b038216907fbc7cd75a20ee27fd9adebab32041f755214dbc6bffa90cc0225b39da2e5c2d3b90600090a250565b6060611985838360405180606001604052806027815260200161210d6027913961198e565b90505b92915050565b6060600080856001600160a01b0316856040516119ab919061205d565b600060405180830381855af49150503d80600081146119e6576040519150601f19603f3d011682016040523d82523d6000602084013e6119eb565b606091505b50915091506119fc86838387611a06565b9695505050505050565b60608315611a73578251600003611a6c57611a208561156b565b611a6c5760405162461bcd60e51b815260206004820152601d60248201527f416464726573733a2063616c6c20746f206e6f6e2d636f6e74726163740000006044820152606401610418565b5081611a7d565b611a7d8383611a85565b949350505050565b815115611a955781518083602001fd5b8060405162461bcd60e51b81526004016104189190612079565b6040518060a0016040528060008152602001600081526020016000815260200160001515815260200160006001600160a01b031681525090565b600060208284031215611afb57600080fd5b5035919050565b80356001600160a01b0381168114611b1957600080fd5b919050565b600060208284031215611b3057600080fd5b61198582611b02565b6020808252825182820181905260009190848201906040850190845b81811015611b7157835183529284019291840191600101611b55565b50909695505050505050565b60008060408385031215611b9057600080fd5b611b9983611b02565b9150611ba760208401611b02565b90509250929050565b634e487b7160e01b600052604160045260246000fd5b600082601f830112611bd757600080fd5b81356001600160401b0380821115611bf157611bf1611bb0565b604051601f8301601f19908116603f01168101908282118183101715611c1957611c19611bb0565b81604052838152866020858801011115611c3257600080fd5b836020870160208301376000602085830101528094505050505092915050565b60008060408385031215611c6557600080fd5b611c6e83611b02565b915060208301356001600160401b03811115611c8957600080fd5b611c9585828601611bc6565b9150509250929050565b8051825260208082015190830152604080820151908301526060808201511515908301526080908101516001600160a01b0316910152565b60a081016119888284611c9f565b6020808252825182820181905260009190848201906040850190845b81811015611b7157611d14838551611c9f565b9284019260a09290920191600101611d01565b60008060408385031215611d3a57600080fd5b50508035926020909101359150565b600080600080600060a08688031215611d6157600080fd5b611d6a86611b02565b9450611d7860208701611b02565b9350604086013592506060860135915060808601356001600160401b03811115611da157600080fd5b611dad88828901611bc6565b9150509295509295909350565b6001600160a01b03929092168252602082015260400190565b6001600160a01b0394851681529290931660208301526040820152606081019190915260a06080820181905260009082015260c00190565b6020808252602c908201526000805160206120ad83398151915260408201526b19195b1959d85d1958d85b1b60a21b606082015260800190565b6020808252602c908201526000805160206120ad83398151915260408201526b6163746976652070726f787960a01b606082015260800190565b6020808252602e908201527f496e697469616c697a61626c653a20636f6e747261637420697320616c72656160408201526d191e481a5b9a5d1a585b1a5e995960921b606082015260800190565b634e487b7160e01b600052601160045260246000fd5b8082018082111561198857611988611ecd565b600060018201611f0857611f08611ecd565b5060010190565b634e487b7160e01b600052603260045260246000fd5b808202811582820484141761198857611988611ecd565b600082611f5957634e487b7160e01b600052601260045260246000fd5b500490565b8181038181111561198857611988611ecd565b6001600160a01b039384168152919092166020820152604081019190915260600190565b600060208284031215611fa757600080fd5b81518015158114611fb757600080fd5b9392505050565b9182526001600160a01b0316602082015260400190565b600060208284031215611fe757600080fd5b5051919050565b6020808252602b908201527f496e697469616c697a61626c653a20636f6e7472616374206973206e6f74206960408201526a6e697469616c697a696e6760a81b606082015260800190565b60005b8381101561205457818101518382015260200161203c565b50506000910152565b6000825161206f818460208701612039565b9190910192915050565b6020815260008251806020840152612098816040850160208701612039565b601f01601f1916919091016040019291505056fe46756e6374696f6e206d7573742062652063616c6c6564207468726f75676820360894a13ba1a3210667c828492db98dca3e2076cc3735a920a3ca505d382bbc7f26b83ff96e1f2b6a682f133852f6798a09c465da95921460cefb3847402498416464726573733a206c6f772d6c6576656c2064656c65676174652063616c6c206661696c6564a2646970667358221220f29bff67f6e3f9a39f7246f7113919a6d0e03771ecb8a79ac5268251b52876f664736f6c63430008140033",
  "linkReferences": {},
  "deployedLinkReferences": {}
}