{
  "_format": "hh-sol-artifact-1",
  "contractName": "BuyAndSell",
  "sourceName": "contracts/market/BuyAndSell.sol",
  "abi": [
    {
      "anonymous": false,
      "inputs": [
        {
          "indexed": false,
          "internalType": "address",
          "name": "previousAdmin",
          "type": "address"
        },
        {
          "indexed": false,
          "internalType": "address",
          "name": "newAdmin",
          "type": "address"
        }
      ],
      "name": "AdminChanged",
      "type": "event"
    },
    {
      "anonymous": false,
      "inputs": [
        {
          "indexed": true,
          "internalType": "address",
          "name": "beacon",
          "type": "address"
        }
      ],
      "name": "BeaconUpgraded",
      "type": "event"
    },
    {
      "anonymous": false,
      "inputs": [
        {
          "indexed": false,
          "internalType": "uint8",
          "name": "version",
          "type": "uint8"
        }
      ],
      "name": "Initialized",
      "type": "event"
    },
    {
      "anonymous": false,
      "inputs": [
        {
          "indexed": true,
          "internalType": "uint256",
          "name": "productId",
          "type": "uint256"
        },
        {
          "indexed": true,
          "internalType": "uint256",
          "name": "itemId",
          "type": "uint256"
        },
        {
          "indexed": true,
          "internalType": "address",
          "name": "seller",
          "type": "address"
        }
      ],
      "name": "ItemCanceled",
      "type": "event"
    },
    {
      "anonymous": false,
      "inputs": [
        {
          "indexed": true,
          "internalType": "uint256",
          "name": "productId",
          "type": "uint256"
        },
        {
          "indexed": true,
          "internalType": "uint256",
          "name": "nftId",
          "type": "uint256"
        },
        {
          "indexed": false,
          "internalType": "uint256",
          "name": "price",
          "type": "uint256"
        },
        {
          "indexed": false,
          "internalType": "address",
          "name": "seller",
          "type": "address"
        }
      ],
      "name": "ItemIsOnSale",
      "type": "event"
    },
    {
      "anonymous": false,
      "inputs": [
        {
          "indexed": true,
          "internalType": "uint256",
          "name": "productId",
          "type": "uint256"
        },
        {
          "indexed": true,
          "internalType": "uint256",
          "name": "nftId",
          "type": "uint256"
        },
        {
          "indexed": false,
          "internalType": "uint256",
          "name": "price",
          "type": "uint256"
        },
        {
          "indexed": false,
          "internalType": "address",
          "name": "buyer",
          "type": "address"
        }
      ],
      "name": "ItemsSold",
      "type": "event"
    },
    {
      "anonymous": false,
      "inputs": [
        {
          "indexed": true,
          "internalType": "address",
          "name": "previousOwner",
          "type": "address"
        },
        {
          "indexed": true,
          "internalType": "address",
          "name": "newOwner",
          "type": "address"
        }
      ],
      "name": "OwnershipTransferred",
      "type": "event"
    },
    {
      "anonymous": false,
      "inputs": [
        {
          "indexed": true,
          "internalType": "address",
          "name": "implementation",
          "type": "address"
        }
      ],
      "name": "Upgraded",
      "type": "event"
    },
    {
      "inputs": [
        {
          "internalType": "uint256",
          "name": "_productId",
          "type": "uint256"
        }
      ],
      "name": "cancelSell",
      "outputs": [],
      "stateMutability": "nonpayable",
      "type": "function"
    },
    {
      "inputs": [
        {
          "internalType": "uint256",
          "name": "_productId",
          "type": "uint256"
        }
      ],
      "name": "getProductDetail",
      "outputs": [
        {
          "components": [
            {
              "internalType": "uint256",
              "name": "id",
              "type": "uint256"
            },
            {
              "internalType": "uint256",
              "name": "itemId",
              "type": "uint256"
            },
            {
              "internalType": "uint256",
              "name": "price",
              "type": "uint256"
            },
            {
              "internalType": "bool",
              "name": "isSold",
              "type": "bool"
            },
            {
              "internalType": "address",
              "name": "seller",
              "type": "address"
            }
          ],
          "internalType": "struct BuyAndSell.PRODUCT",
          "name": "",
          "type": "tuple"
        }
      ],
      "stateMutability": "view",
      "type": "function"
    },
    {
      "inputs": [],
      "name": "getTotalProductCreated",
      "outputs": [
        {
          "internalType": "uint256",
          "name": "",
          "type": "uint256"
        }
      ],
      "stateMutability": "view",
      "type": "function"
    },
    {
      "inputs": [
        {
          "internalType": "address",
          "name": "_user",
          "type": "address"
        }
      ],
      "name": "getUserOnSellItems",
      "outputs": [
        {
          "components": [
            {
              "internalType": "uint256",
              "name": "id",
              "type": "uint256"
            },
            {
              "internalType": "uint256",
              "name": "itemId",
              "type": "uint256"
            },
            {
              "internalType": "uint256",
              "name": "price",
              "type": "uint256"
            },
            {
              "internalType": "bool",
              "name": "isSold",
              "type": "bool"
            },
            {
              "internalType": "address",
              "name": "seller",
              "type": "address"
            }
          ],
          "internalType": "struct BuyAndSell.PRODUCT[]",
          "name": "",
          "type": "tuple[]"
        }
      ],
      "stateMutability": "view",
      "type": "function"
    },
    {
      "inputs": [
        {
          "internalType": "address",
          "name": "_user",
          "type": "address"
        }
      ],
      "name": "getUserSoldProduct",
      "outputs": [
        {
          "components": [
            {
              "internalType": "uint256",
              "name": "id",
              "type": "uint256"
            },
            {
              "internalType": "uint256",
              "name": "itemId",
              "type": "uint256"
            },
            {
              "internalType": "uint256",
              "name": "price",
              "type": "uint256"
            },
            {
              "internalType": "bool",
              "name": "isSold",
              "type": "bool"
            },
            {
              "internalType": "address",
              "name": "seller",
              "type": "address"
            }
          ],
          "internalType": "struct BuyAndSell.PRODUCT[]",
          "name": "",
          "type": "tuple[]"
        }
      ],
      "stateMutability": "view",
      "type": "function"
    },
    {
      "inputs": [
        {
          "internalType": "address",
          "name": "_user",
          "type": "address"
        }
      ],
      "name": "getUserSoldProducts",
      "outputs": [
        {
          "internalType": "uint256[]",
          "name": "",
          "type": "uint256[]"
        }
      ],
      "stateMutability": "view",
      "type": "function"
    },
    {
      "inputs": [
        {
          "internalType": "address",
          "name": "_nftItemAddress",
          "type": "address"
        },
        {
          "internalType": "address",
          "name": "_payTokenAddress",
          "type": "address"
        }
      ],
      "name": "initialize",
      "outputs": [],
      "stateMutability": "nonpayable",
      "type": "function"
    },
    {
      "inputs": [
        {
          "internalType": "address",
          "name": "",
          "type": "address"
        },
        {
          "internalType": "address",
          "name": "",
          "type": "address"
        },
        {
          "internalType": "uint256",
          "name": "",
          "type": "uint256"
        },
        {
          "internalType": "uint256",
          "name": "",
          "type": "uint256"
        },
        {
          "internalType": "bytes",
          "name": "",
          "type": "bytes"
        }
      ],
      "name": "onERC1155Received",
      "outputs": [
        {
          "internalType": "bytes4",
          "name": "",
          "type": "bytes4"
        }
      ],
      "stateMutability": "nonpayable",
      "type": "function"
    },
    {
      "inputs": [],
      "name": "owner",
      "outputs": [
        {
          "internalType": "address",
          "name": "",
          "type": "address"
        }
      ],
      "stateMutability": "view",
      "type": "function"
    },
    {
      "inputs": [],
      "name": "payTokenAddress",
      "outputs": [
        {
          "internalType": "address",
          "name": "",
          "type": "address"
        }
      ],
      "stateMutability": "view",
      "type": "function"
    },
    {
      "inputs": [],
      "name": "platFormAddress",
      "outputs": [
        {
          "internalType": "address",
          "name": "",
          "type": "address"
        }
      ],
      "stateMutability": "view",
      "type": "function"
    },
    {
      "inputs": [],
      "name": "proxiableUUID",
      "outputs": [
        {
          "internalType": "bytes32",
          "name": "",
          "type": "bytes32"
        }
      ],
      "stateMutability": "view",
      "type": "function"
    },
    {
      "inputs": [
        {
          "internalType": "uint256",
          "name": "_productId",
          "type": "uint256"
        },
        {
          "internalType": "uint256",
          "name": "amount",
          "type": "uint256"
        }
      ],
      "name": "purchaseProduct",
      "outputs": [],
      "stateMutability": "nonpayable",
      "type": "function"
    },
    {
      "inputs": [
        {
          "internalType": "uint256",
          "name": "_itemId",
          "type": "uint256"
        },
        {
          "internalType": "uint256",
          "name": "_price",
          "type": "uint256"
        }
      ],
      "name": "putProductToSell",
      "outputs": [],
      "stateMutability": "nonpayable",
      "type": "function"
    },
    {
      "inputs": [],
      "name": "ravaItemsAddress",
      "outputs": [
        {
          "internalType": "address",
          "name": "",
          "type": "address"
        }
      ],
      "stateMutability": "view",
      "type": "function"
    },
    {
      "inputs": [],
      "name": "renounceOwnership",
      "outputs": [],
      "stateMutability": "nonpayable",
      "type": "function"
    },
    {
      "inputs": [
        {
          "internalType": "address",
          "name": "newOwner",
          "type": "address"
        }
      ],
      "name": "transferOwnership",
      "outputs": [],
      "stateMutability": "nonpayable",
      "type": "function"
    },
    {
      "inputs": [
        {
          "internalType": "address",
          "name": "newImplementation",
          "type": "address"
        }
      ],
      "name": "upgradeTo",
      "outputs": [],
      "stateMutability": "nonpayable",
      "type": "function"
    },
    {
      "inputs": [
        {
          "internalType": "address",
          "name": "newImplementation",
          "type": "address"
        },
        {
          "internalType": "bytes",
          "name": "data",
          "type": "bytes"
        }
      ],
      "name": "upgradeToAndCall",
      "outputs": [],
      "stateMutability": "payable",
      "type": "function"
    }
  ],
  "bytecode": "0x60a06040523060805234801561001457600080fd5b50600160c9556080516120d16100516000396000818161065801528181610698015281816107ec0152818161082c01526108a801526120d16000f3fe6080604052600436106100e45760003560e01c806307c9cd45146100e9578063130517741461010b5780633659cfe614610141578063485cc955146101615780634f1ef2861461018157806352d1902d146101945780635ddc949c146101b7578063715018a6146101e457806388a7c05e146101f95780638da5cb5b14610231578063901523f914610246578063a044042614610273578063afcebcb214610293578063b2d4f36e146102b3578063c77b5146146102c8578063eb1ac748146102e8578063f23a6e6114610308578063f2fde38b1461034d578063f9d377cb1461036d575b600080fd5b3480156100f557600080fd5b50610109610104366004611a51565b61038d565b005b34801561011757600080fd5b5061012b610126366004611a86565b6105e2565b6040516101389190611aa1565b60405180910390f35b34801561014d57600080fd5b5061010961015c366004611a86565b61064e565b34801561016d57600080fd5b5061010961017c366004611ae5565b610716565b61010961018f366004611bba565b6107e2565b3480156101a057600080fd5b506101a961089b565b604051908152602001610138565b3480156101c357600080fd5b506101d76101d2366004611a51565b610949565b6040516101389190611c3f565b3480156101f057600080fd5b506101096109af565b34801561020557600080fd5b5060cd54610219906001600160a01b031681565b6040516001600160a01b039091168152602001610138565b34801561023d57600080fd5b506102196109c3565b34801561025257600080fd5b50610266610261366004611a86565b6109d2565b6040516101389190611c4d565b34801561027f57600080fd5b5061010961028e366004611c8f565b610ba2565b34801561029f57600080fd5b506102666102ae366004611a86565b610f45565b3480156102bf57600080fd5b506101a9611113565b3480156102d457600080fd5b5060ce54610219906001600160a01b031681565b3480156102f457600080fd5b50610109610303366004611c8f565b611123565b34801561031457600080fd5b50610334610323366004611cb1565b63f23a6e6160e01b95945050505050565b6040516001600160e01b03199091168152602001610138565b34801561035957600080fd5b50610109610368366004611a86565b611352565b34801561037957600080fd5b5060cb54610219906001600160a01b031681565b600081815260cf6020908152604091829020825160a0810184528154815260018201549281019290925260028101549282019290925260039091015460ff81161515606083015261010090046001600160a01b03166080820181905233146104245760405162461bcd60e51b81526020600482015260056024820152646e6f74205360d81b60448201526064015b60405180910390fd5b6060810151156104615760405162461bcd60e51b81526020600482015260086024820152671cdbdb19081bdd5d60c21b604482015260640161041b565b602081015160cc546040516356df3db160e01b81526001600160a01b03909116906356df3db1906104989033908590600401611d22565b600060405180830381600087803b1580156104b257600080fd5b505af11580156104c6573d6000803e3d6000fd5b505060cc5460405163b00741cb60e01b8152600481018590526001600160a01b03909116925063b00741cb9150602401600060405180830381600087803b15801561051057600080fd5b505af1158015610524573d6000803e3d6000fd5b505050600084815260cf602052604090819020600301805460ff1916600190811790915560cb549151637921219560e11b81526001600160a01b03909216925063f242432a9161057c91309133918791600401611d3b565b600060405180830381600087803b15801561059657600080fd5b505af11580156105aa573d6000803e3d6000fd5b505060405133925083915085907f937332fa1ffb08f2ccb34906d8cf841f0d933f1fbe678bef5af2770c6379c40e90600090a4505050565b6001600160a01b038116600090815260d0602090815260409182902080548351818402810184019094528084526060939283018282801561064257602002820191906000526020600020905b81548152602001906001019080831161062e575b50505050509050919050565b6001600160a01b037f00000000000000000000000000000000000000000000000000000000000000001630036106965760405162461bcd60e51b815260040161041b90611d73565b7f00000000000000000000000000000000000000000000000000000000000000006001600160a01b03166106c86113c8565b6001600160a01b0316146106ee5760405162461bcd60e51b815260040161041b90611dad565b6106f7816113e4565b60408051600080825260208201909252610713918391906113ec565b50565b600054610100900460ff16158080156107365750600054600160ff909116105b80610757575061074530611557565b158015610757575060005460ff166001145b6107735760405162461bcd60e51b815260040161041b90611de7565b6000805460ff191660011790558015610796576000805461ff0019166101001790555b61079e611566565b6107a88383611595565b80156107dd576000805461ff001916905560405160018152600080516020612055833981519152906020015b60405180910390a15b505050565b6001600160a01b037f000000000000000000000000000000000000000000000000000000000000000016300361082a5760405162461bcd60e51b815260040161041b90611d73565b7f00000000000000000000000000000000000000000000000000000000000000006001600160a01b031661085c6113c8565b6001600160a01b0316146108825760405162461bcd60e51b815260040161041b90611dad565b61088b826113e4565b610897828260016113ec565b5050565b6000306001600160a01b037f000000000000000000000000000000000000000000000000000000000000000016146109365760405162461bcd60e51b815260206004820152603860248201527f555550535570677261646561626c653a206d757374206e6f742062652063616c6044820152771b1959081d1a1c9bdd59da0819195b1959d85d1958d85b1b60421b606482015260840161041b565b5060008051602061203583398151915290565b610951611a17565b50600090815260cf6020908152604091829020825160a0810184528154815260018201549281019290925260028101549282019290925260039091015460ff81161515606083015261010090046001600160a01b0316608082015290565b6109b7611689565b6109c160006116e8565b565b6097546001600160a01b031690565b606060006109df60ca5490565b905060008060015b838111610a5657600081815260cf60205260409020600301546001600160a01b0387811661010090920416148015610a315750600081815260cf602052604090206003015460ff16155b15610a4457610a41600184611e4b565b92505b80610a4e81611e5e565b9150506109e7565b506000826001600160401b03811115610a7157610a71611b18565b604051908082528060200260200182016040528015610aaa57816020015b610a97611a17565b815260200190600190039081610a8f5790505b50905060015b848111610b9857600081815260cf60205260409020600301546001600160a01b0388811661010090920416148015610afa5750600081815260cf602052604090206003015460ff16155b15610b8657600081815260cf6020908152604091829020825160a08101845281548152600182015492810192909252600281015492820192909252600382015460ff81161515606083015261010090046001600160a01b031660808201528351849086908110610b6c57610b6c611e77565b6020908102919091010152610b82600185611e4b565b9350505b80610b9081611e5e565b915050610ab0565b5095945050505050565b610baa61173a565b600082815260cf60205260409020600281015460039091015460ff1681831015610c075760405162461bcd60e51b815260206004820152600e60248201526d616d6f756e74203c20707269636560901b604482015260640161041b565b8015610c405760405162461bcd60e51b815260206004820152600860248201526714dbdb19081bdd5d60c21b604482015260640161041b565b60006064610c4f856001611e8d565b610c599190611ea4565b610c639085611ec6565b600086815260cf6020526040908190206003015460ce5491516323b872dd60e01b81529293506001600160a01b036101009091048116929116906323b872dd90610cb590339085908790600401611ed9565b6020604051808303816000875af1158015610cd4573d6000803e3d6000fd5b505050506040513d601f19601f82011682018060405250810190610cf89190611efd565b5060ce5460cd546001600160a01b03918216916323b872dd91339116610d1e868a611ec6565b6040518463ffffffff1660e01b8152600401610d3c93929190611ed9565b6020604051808303816000875af1158015610d5b573d6000803e3d6000fd5b505050506040513d601f19601f82011682018060405250810190610d7f9190611efd565b50600086815260cf6020526040908190206001015460cc5491516356df3db160e01b815290916001600160a01b0316906356df3db190610dc59033908590600401611d22565b600060405180830381600087803b158015610ddf57600080fd5b505af1158015610df3573d6000803e3d6000fd5b505060cc5460405163b00741cb60e01b8152600481018590526001600160a01b03909116925063b00741cb9150602401600060405180830381600087803b158015610e3d57600080fd5b505af1158015610e51573d6000803e3d6000fd5b505050506001600160a01b03828116600090815260d060209081526040808320805460018082018355918552838520018690558b845260cf90925291829020600301805460ff19168217905560cb549151637921219560e11b8152919092169163f242432a91610ec991309133918791600401611d3b565b600060405180830381600087803b158015610ee357600080fd5b505af1158015610ef7573d6000803e3d6000fd5b5050505080877ffe70bc7304d39ba029701607c712b367ac27468c55318395739bed71da763b5a8533604051610f2e929190611f26565b60405180910390a35050505050610897600160c955565b60606000610f5260ca5490565b905060008060015b838111610fcd57600081815260cf60205260409020600301546001600160a01b0387811661010090920416148015610fa85750600081815260cf602052604090206003015460ff1615156001145b15610fbb57610fb8600184611e4b565b92505b80610fc581611e5e565b915050610f5a565b506000826001600160401b03811115610fe857610fe8611b18565b60405190808252806020026020018201604052801561102157816020015b61100e611a17565b8152602001906001900390816110065790505b50905060015b848111610b9857600081815260cf60205260409020600301546001600160a01b03888116610100909204161480156110755750600081815260cf602052604090206003015460ff1615156001145b1561110157600081815260cf6020908152604091829020825160a08101845281548152600182015492810192909252600281015492820192909252600382015460ff81161515606083015261010090046001600160a01b0316608082015283518490869081106110e7576110e7611e77565b60209081029190910101526110fd600185611e4b565b9350505b8061110b81611e5e565b915050611027565b600061111e60ca5490565b905090565b61112b61173a565b600081116111675760405162461bcd60e51b815260206004820152600960248201526805072696365203d20360bc1b604482015260640161041b565b6000611174606483611ea4565b61117f906001611e8d565b6111899083611e4b565b905061119960ca80546001019055565b60006111a460ca5490565b60cc546040516356df3db160e01b81529192506001600160a01b0316906356df3db1906111d79030908890600401611d22565b600060405180830381600087803b1580156111f157600080fd5b505af1158015611205573d6000803e3d6000fd5b505060cc5460405163b00741cb60e01b8152600481018890526001600160a01b03909116925063b00741cb9150602401600060405180830381600087803b15801561124f57600080fd5b505af1158015611263573d6000803e3d6000fd5b505050600082815260cf602052604090819020838155600281018590556003810180546001600160a81b0319166101003390810291909117909155600191820188905560cb549251637921219560e11b81526001600160a01b03909316935063f242432a926112d99230918a9190600401611d3b565b600060405180830381600087803b1580156112f357600080fd5b505af1158015611307573d6000803e3d6000fd5b5050505083817fdd89fc2a3f06907fcb2db26e596d448829f856194ae8d7f9a171437f92d5c022843360405161133e929190611f26565b60405180910390a35050610897600160c955565b61135a611689565b6001600160a01b0381166113bf5760405162461bcd60e51b815260206004820152602660248201527f4f776e61626c653a206e6577206f776e657220697320746865207a65726f206160448201526564647265737360d01b606482015260840161041b565b610713816116e8565b600080516020612035833981519152546001600160a01b031690565b610713611689565b7f4910fdfa16fed3260ed0e7147f7cc6da11a60208b5b9406d12a635614ffd91435460ff161561141f576107dd83611793565b826001600160a01b03166352d1902d6040518163ffffffff1660e01b8152600401602060405180830381865afa925050508015611479575060408051601f3d908101601f1916820190925261147691810190611f3d565b60015b6114dc5760405162461bcd60e51b815260206004820152602e60248201527f45524331393637557067726164653a206e657720696d706c656d656e7461746960448201526d6f6e206973206e6f74205555505360901b606482015260840161041b565b600080516020612035833981519152811461154b5760405162461bcd60e51b815260206004820152602960248201527f45524331393637557067726164653a20756e737570706f727465642070726f786044820152681a58589b195555525160ba1b606482015260840161041b565b506107dd83838361182d565b6001600160a01b03163b151590565b600054610100900460ff1661158d5760405162461bcd60e51b815260040161041b90611f56565b6109c1611858565b600054610100900460ff16158080156115b55750600054600160ff909116105b806115d657506115c430611557565b1580156115d6575060005460ff166001145b6115f25760405162461bcd60e51b815260040161041b90611de7565b6000805460ff191660011790558015611615576000805461ff0019166101001790555b60cc80546001600160a01b03199081166001600160a01b0386811691821790935560cd80548316905560cb80548316909117905560ce805490911691841691909117905580156107dd576000805461ff001916905560405160018152600080516020612055833981519152906020016107d4565b336116926109c3565b6001600160a01b0316146109c15760405162461bcd60e51b815260206004820181905260248201527f4f776e61626c653a2063616c6c6572206973206e6f7420746865206f776e6572604482015260640161041b565b609780546001600160a01b038381166001600160a01b0319831681179093556040519116919082907f8be0079c531659141344cd1fd0a4f28419497f9722a3daafe3b4186f6b6457e090600090a35050565b600260c9540361178c5760405162461bcd60e51b815260206004820152601f60248201527f5265656e7472616e637947756172643a207265656e7472616e742063616c6c00604482015260640161041b565b600260c955565b61179c81611557565b6117fe5760405162461bcd60e51b815260206004820152602d60248201527f455243313936373a206e657720696d706c656d656e746174696f6e206973206e60448201526c1bdd08184818dbdb9d1c9858dd609a1b606482015260840161041b565b60008051602061203583398151915280546001600160a01b0319166001600160a01b0392909216919091179055565b61183683611888565b6000825111806118435750805b156107dd5761185283836118c8565b50505050565b600054610100900460ff1661187f5760405162461bcd60e51b815260040161041b90611f56565b6109c1336116e8565b61189181611793565b6040516001600160a01b038216907fbc7cd75a20ee27fd9adebab32041f755214dbc6bffa90cc0225b39da2e5c2d3b90600090a250565b60606118ed8383604051806060016040528060278152602001612075602791396118f6565b90505b92915050565b6060600080856001600160a01b0316856040516119139190611fc5565b600060405180830381855af49150503d806000811461194e576040519150601f19603f3d011682016040523d82523d6000602084013e611953565b606091505b50915091506119648683838761196e565b9695505050505050565b606083156119db5782516000036119d45761198885611557565b6119d45760405162461bcd60e51b815260206004820152601d60248201527f416464726573733a2063616c6c20746f206e6f6e2d636f6e7472616374000000604482015260640161041b565b50816119e5565b6119e583836119ed565b949350505050565b8151156119fd5781518083602001fd5b8060405162461bcd60e51b815260040161041b9190611fe1565b6040518060a0016040528060008152602001600081526020016000815260200160001515815260200160006001600160a01b031681525090565b600060208284031215611a6357600080fd5b5035919050565b80356001600160a01b0381168114611a8157600080fd5b919050565b600060208284031215611a9857600080fd5b6118ed82611a6a565b6020808252825182820181905260009190848201906040850190845b81811015611ad957835183529284019291840191600101611abd565b50909695505050505050565b60008060408385031215611af857600080fd5b611b0183611a6a565b9150611b0f60208401611a6a565b90509250929050565b634e487b7160e01b600052604160045260246000fd5b600082601f830112611b3f57600080fd5b81356001600160401b0380821115611b5957611b59611b18565b604051601f8301601f19908116603f01168101908282118183101715611b8157611b81611b18565b81604052838152866020858801011115611b9a57600080fd5b836020870160208301376000602085830101528094505050505092915050565b60008060408385031215611bcd57600080fd5b611bd683611a6a565b915060208301356001600160401b03811115611bf157600080fd5b611bfd85828601611b2e565b9150509250929050565b8051825260208082015190830152604080820151908301526060808201511515908301526080908101516001600160a01b0316910152565b60a081016118f08284611c07565b6020808252825182820181905260009190848201906040850190845b81811015611ad957611c7c838551611c07565b9284019260a09290920191600101611c69565b60008060408385031215611ca257600080fd5b50508035926020909101359150565b600080600080600060a08688031215611cc957600080fd5b611cd286611a6a565b9450611ce060208701611a6a565b9350604086013592506060860135915060808601356001600160401b03811115611d0957600080fd5b611d1588828901611b2e565b9150509295509295909350565b6001600160a01b03929092168252602082015260400190565b6001600160a01b0394851681529290931660208301526040820152606081019190915260a06080820181905260009082015260c00190565b6020808252602c9082015260008051602061201583398151915260408201526b19195b1959d85d1958d85b1b60a21b606082015260800190565b6020808252602c9082015260008051602061201583398151915260408201526b6163746976652070726f787960a01b606082015260800190565b6020808252602e908201527f496e697469616c697a61626c653a20636f6e747261637420697320616c72656160408201526d191e481a5b9a5d1a585b1a5e995960921b606082015260800190565b634e487b7160e01b600052601160045260246000fd5b808201808211156118f0576118f0611e35565b600060018201611e7057611e70611e35565b5060010190565b634e487b7160e01b600052603260045260246000fd5b80820281158282048414176118f0576118f0611e35565b600082611ec157634e487b7160e01b600052601260045260246000fd5b500490565b818103818111156118f0576118f0611e35565b6001600160a01b039384168152919092166020820152604081019190915260600190565b600060208284031215611f0f57600080fd5b81518015158114611f1f57600080fd5b9392505050565b9182526001600160a01b0316602082015260400190565b600060208284031215611f4f57600080fd5b5051919050565b6020808252602b908201527f496e697469616c697a61626c653a20636f6e7472616374206973206e6f74206960408201526a6e697469616c697a696e6760a81b606082015260800190565b60005b83811015611fbc578181015183820152602001611fa4565b50506000910152565b60008251611fd7818460208701611fa1565b9190910192915050565b6020815260008251806020840152612000816040850160208701611fa1565b601f01601f1916919091016040019291505056fe46756e6374696f6e206d7573742062652063616c6c6564207468726f75676820360894a13ba1a3210667c828492db98dca3e2076cc3735a920a3ca505d382bbc7f26b83ff96e1f2b6a682f133852f6798a09c465da95921460cefb3847402498416464726573733a206c6f772d6c6576656c2064656c65676174652063616c6c206661696c6564a2646970667358221220d997ed07dfc490a93d63558b52a43c490277562b09c0b03d576271540764e7c564736f6c63430008140033",
  "linkReferences": {},
  "deployedLinkReferences": {}
}