{
  "_format": "hh-sol-artifact-1",
  "contractName": "LZEndpointMock",
  "sourceName": "contracts/bridge/mocks/LZEndpointMock.sol",
  "abi": [
    {
      "inputs": [
        {
          "internalType": "uint16",
          "name": "_chainId",
          "type": "uint16"
        }
      ],
      "stateMutability": "nonpayable",
      "type": "constructor"
    },
    {
      "anonymous": false,
      "inputs": [
        {
          "indexed": false,
          "internalType": "bytes",
          "name": "payload",
          "type": "bytes"
        }
      ],
      "name": "Packet",
      "type": "event"
    },
    {
      "anonymous": false,
      "inputs": [
        {
          "indexed": false,
          "internalType": "uint16",
          "name": "srcChainId",
          "type": "uint16"
        },
        {
          "indexed": false,
          "internalType": "bytes",
          "name": "srcAddress",
          "type": "bytes"
        },
        {
          "indexed": false,
          "internalType": "uint64",
          "name": "nonce",
          "type": "uint64"
        },
        {
          "indexed": false,
          "internalType": "address",
          "name": "dstAddress",
          "type": "address"
        }
      ],
      "name": "PayloadCleared",
      "type": "event"
    },
    {
      "anonymous": false,
      "inputs": [
        {
          "indexed": false,
          "internalType": "uint16",
          "name": "srcChainId",
          "type": "uint16"
        },
        {
          "indexed": false,
          "internalType": "bytes",
          "name": "srcAddress",
          "type": "bytes"
        },
        {
          "indexed": false,
          "internalType": "address",
          "name": "dstAddress",
          "type": "address"
        },
        {
          "indexed": false,
          "internalType": "uint64",
          "name": "nonce",
          "type": "uint64"
        },
        {
          "indexed": false,
          "internalType": "bytes",
          "name": "payload",
          "type": "bytes"
        },
        {
          "indexed": false,
          "internalType": "bytes",
          "name": "reason",
          "type": "bytes"
        }
      ],
      "name": "PayloadStored",
      "type": "event"
    },
    {
      "anonymous": false,
      "inputs": [
        {
          "indexed": false,
          "internalType": "uint16",
          "name": "chainId",
          "type": "uint16"
        },
        {
          "indexed": false,
          "internalType": "bytes",
          "name": "srcAddress",
          "type": "bytes"
        }
      ],
      "name": "UaForceResumeReceive",
      "type": "event"
    },
    {
      "anonymous": false,
      "inputs": [
        {
          "indexed": true,
          "internalType": "address",
          "name": "to",
          "type": "address"
        },
        {
          "indexed": true,
          "internalType": "uint256",
          "name": "quantity",
          "type": "uint256"
        }
      ],
      "name": "ValueTransferFailed",
      "type": "event"
    },
    {
      "inputs": [],
      "name": "blockNextMsg",
      "outputs": [],
      "stateMutability": "nonpayable",
      "type": "function"
    },
    {
      "inputs": [],
      "name": "callReceive",
      "outputs": [
        {
          "internalType": "bool",
          "name": "",
          "type": "bool"
        }
      ],
      "stateMutability": "view",
      "type": "function"
    },
    {
      "inputs": [],
      "name": "defaultAdapterParams",
      "outputs": [
        {
          "internalType": "bytes",
          "name": "",
          "type": "bytes"
        }
      ],
      "stateMutability": "view",
      "type": "function"
    },
    {
      "inputs": [
        {
          "internalType": "uint16",
          "name": "_dstChainId",
          "type": "uint16"
        },
        {
          "internalType": "address",
          "name": "_userApplication",
          "type": "address"
        },
        {
          "internalType": "bytes",
          "name": "_payload",
          "type": "bytes"
        },
        {
          "internalType": "bool",
          "name": "_payInZRO",
          "type": "bool"
        },
        {
          "internalType": "bytes",
          "name": "_adapterParams",
          "type": "bytes"
        }
      ],
      "name": "estimateFees",
      "outputs": [
        {
          "internalType": "uint256",
          "name": "nativeFee",
          "type": "uint256"
        },
        {
          "internalType": "uint256",
          "name": "zroFee",
          "type": "uint256"
        }
      ],
      "stateMutability": "view",
      "type": "function"
    },
    {
      "inputs": [
        {
          "internalType": "uint16",
          "name": "_srcChainId",
          "type": "uint16"
        },
        {
          "internalType": "bytes",
          "name": "_path",
          "type": "bytes"
        }
      ],
      "name": "forceResumeReceive",
      "outputs": [],
      "stateMutability": "nonpayable",
      "type": "function"
    },
    {
      "inputs": [],
      "name": "getChainId",
      "outputs": [
        {
          "internalType": "uint16",
          "name": "",
          "type": "uint16"
        }
      ],
      "stateMutability": "view",
      "type": "function"
    },
    {
      "inputs": [
        {
          "internalType": "uint16",
          "name": "",
          "type": "uint16"
        },
        {
          "internalType": "uint16",
          "name": "",
          "type": "uint16"
        },
        {
          "internalType": "address",
          "name": "",
          "type": "address"
        },
        {
          "internalType": "uint256",
          "name": "",
          "type": "uint256"
        }
      ],
      "name": "getConfig",
      "outputs": [
        {
          "internalType": "bytes",
          "name": "",
          "type": "bytes"
        }
      ],
      "stateMutability": "pure",
      "type": "function"
    },
    {
      "inputs": [
        {
          "internalType": "uint16",
          "name": "_chainID",
          "type": "uint16"
        },
        {
          "internalType": "bytes",
          "name": "_path",
          "type": "bytes"
        }
      ],
      "name": "getInboundNonce",
      "outputs": [
        {
          "internalType": "uint64",
          "name": "",
          "type": "uint64"
        }
      ],
      "stateMutability": "view",
      "type": "function"
    },
    {
      "inputs": [
        {
          "internalType": "uint16",
          "name": "_chainID",
          "type": "uint16"
        },
        {
          "internalType": "address",
          "name": "_srcAddress",
          "type": "address"
        }
      ],
      "name": "getOutboundNonce",
      "outputs": [
        {
          "internalType": "uint64",
          "name": "",
          "type": "uint64"
        }
      ],
      "stateMutability": "view",
      "type": "function"
    },
    {
      "inputs": [
        {
          "internalType": "address",
          "name": "",
          "type": "address"
        }
      ],
      "name": "getReceiveLibraryAddress",
      "outputs": [
        {
          "internalType": "address",
          "name": "",
          "type": "address"
        }
      ],
      "stateMutability": "view",
      "type": "function"
    },
    {
      "inputs": [
        {
          "internalType": "address",
          "name": "",
          "type": "address"
        }
      ],
      "name": "getReceiveVersion",
      "outputs": [
        {
          "internalType": "uint16",
          "name": "",
          "type": "uint16"
        }
      ],
      "stateMutability": "pure",
      "type": "function"
    },
    {
      "inputs": [
        {
          "internalType": "address",
          "name": "",
          "type": "address"
        }
      ],
      "name": "getSendLibraryAddress",
      "outputs": [
        {
          "internalType": "address",
          "name": "",
          "type": "address"
        }
      ],
      "stateMutability": "view",
      "type": "function"
    },
    {
      "inputs": [
        {
          "internalType": "address",
          "name": "",
          "type": "address"
        }
      ],
      "name": "getSendVersion",
      "outputs": [
        {
          "internalType": "uint16",
          "name": "",
          "type": "uint16"
        }
      ],
      "stateMutability": "pure",
      "type": "function"
    },
    {
      "inputs": [
        {
          "internalType": "uint16",
          "name": "_srcChainId",
          "type": "uint16"
        },
        {
          "internalType": "bytes",
          "name": "_path",
          "type": "bytes"
        }
      ],
      "name": "hasStoredPayload",
      "outputs": [
        {
          "internalType": "bool",
          "name": "",
          "type": "bool"
        }
      ],
      "stateMutability": "view",
      "type": "function"
    },
    {
      "inputs": [
        {
          "internalType": "uint16",
          "name": "",
          "type": "uint16"
        },
        {
          "internalType": "bytes",
          "name": "",
          "type": "bytes"
        }
      ],
      "name": "inboundNonce",
      "outputs": [
        {
          "internalType": "uint64",
          "name": "",
          "type": "uint64"
        }
      ],
      "stateMutability": "view",
      "type": "function"
    },
    {
      "inputs": [],
      "name": "isReceivingPayload",
      "outputs": [
        {
          "internalType": "bool",
          "name": "",
          "type": "bool"
        }
      ],
      "stateMutability": "view",
      "type": "function"
    },
    {
      "inputs": [],
      "name": "isSendingPayload",
      "outputs": [
        {
          "internalType": "bool",
          "name": "",
          "type": "bool"
        }
      ],
      "stateMutability": "view",
      "type": "function"
    },
    {
      "inputs": [
        {
          "internalType": "address",
          "name": "",
          "type": "address"
        }
      ],
      "name": "lzEndpointLookup",
      "outputs": [
        {
          "internalType": "address",
          "name": "",
          "type": "address"
        }
      ],
      "stateMutability": "view",
      "type": "function"
    },
    {
      "inputs": [],
      "name": "mockChainId",
      "outputs": [
        {
          "internalType": "uint16",
          "name": "",
          "type": "uint16"
        }
      ],
      "stateMutability": "view",
      "type": "function"
    },
    {
      "inputs": [
        {
          "internalType": "uint16",
          "name": "",
          "type": "uint16"
        },
        {
          "internalType": "bytes",
          "name": "",
          "type": "bytes"
        },
        {
          "internalType": "uint256",
          "name": "",
          "type": "uint256"
        }
      ],
      "name": "msgsToDeliver",
      "outputs": [
        {
          "internalType": "address",
          "name": "dstAddress",
          "type": "address"
        },
        {
          "internalType": "uint64",
          "name": "nonce",
          "type": "uint64"
        },
        {
          "internalType": "bytes",
          "name": "payload",
          "type": "bytes"
        }
      ],
      "stateMutability": "view",
      "type": "function"
    },
    {
      "inputs": [],
      "name": "nextMsgBlocked",
      "outputs": [
        {
          "internalType": "bool",
          "name": "",
          "type": "bool"
        }
      ],
      "stateMutability": "view",
      "type": "function"
    },
    {
      "inputs": [],
      "name": "oracleFee",
      "outputs": [
        {
          "internalType": "uint256",
          "name": "",
          "type": "uint256"
        }
      ],
      "stateMutability": "view",
      "type": "function"
    },
    {
      "inputs": [
        {
          "internalType": "uint16",
          "name": "",
          "type": "uint16"
        },
        {
          "internalType": "address",
          "name": "",
          "type": "address"
        }
      ],
      "name": "outboundNonce",
      "outputs": [
        {
          "internalType": "uint64",
          "name": "",
          "type": "uint64"
        }
      ],
      "stateMutability": "view",
      "type": "function"
    },
    {
      "inputs": [],
      "name": "protocolFeeConfig",
      "outputs": [
        {
          "internalType": "uint256",
          "name": "zroFee",
          "type": "uint256"
        },
        {
          "internalType": "uint256",
          "name": "nativeBP",
          "type": "uint256"
        }
      ],
      "stateMutability": "view",
      "type": "function"
    },
    {
      "inputs": [
        {
          "internalType": "uint16",
          "name": "_srcChainId",
          "type": "uint16"
        },
        {
          "internalType": "bytes",
          "name": "_path",
          "type": "bytes"
        },
        {
          "internalType": "address",
          "name": "_dstAddress",
          "type": "address"
        },
        {
          "internalType": "uint64",
          "name": "_nonce",
          "type": "uint64"
        },
        {
          "internalType": "uint256",
          "name": "_gasLimit",
          "type": "uint256"
        },
        {
          "internalType": "bytes",
          "name": "_payload",
          "type": "bytes"
        }
      ],
      "name": "receivePayload",
      "outputs": [],
      "stateMutability": "nonpayable",
      "type": "function"
    },
    {
      "inputs": [],
      "name": "relayerFeeConfig",
      "outputs": [
        {
          "internalType": "uint128",
          "name": "dstPriceRatio",
          "type": "uint128"
        },
        {
          "internalType": "uint128",
          "name": "dstGasPriceInWei",
          "type": "uint128"
        },
        {
          "internalType": "uint128",
          "name": "dstNativeAmtCap",
          "type": "uint128"
        },
        {
          "internalType": "uint64",
          "name": "baseGas",
          "type": "uint64"
        },
        {
          "internalType": "uint64",
          "name": "gasPerByte",
          "type": "uint64"
        }
      ],
      "stateMutability": "view",
      "type": "function"
    },
    {
      "inputs": [
        {
          "internalType": "uint16",
          "name": "_srcChainId",
          "type": "uint16"
        },
        {
          "internalType": "bytes",
          "name": "_path",
          "type": "bytes"
        },
        {
          "internalType": "bytes",
          "name": "_payload",
          "type": "bytes"
        }
      ],
      "name": "retryPayload",
      "outputs": [],
      "stateMutability": "nonpayable",
      "type": "function"
    },
    {
      "inputs": [
        {
          "internalType": "uint16",
          "name": "_chainId",
          "type": "uint16"
        },
        {
          "internalType": "bytes",
          "name": "_path",
          "type": "bytes"
        },
        {
          "internalType": "bytes",
          "name": "_payload",
          "type": "bytes"
        },
        {
          "internalType": "address payable",
          "name": "_refundAddress",
          "type": "address"
        },
        {
          "internalType": "address",
          "name": "_zroPaymentAddress",
          "type": "address"
        },
        {
          "internalType": "bytes",
          "name": "_adapterParams",
          "type": "bytes"
        }
      ],
      "name": "send",
      "outputs": [],
      "stateMutability": "payable",
      "type": "function"
    },
    {
      "inputs": [
        {
          "internalType": "bool",
          "name": "_callReceive",
          "type": "bool"
        }
      ],
      "name": "setCallReceive",
      "outputs": [],
      "stateMutability": "nonpayable",
      "type": "function"
    },
    {
      "inputs": [
        {
          "internalType": "uint16",
          "name": "",
          "type": "uint16"
        },
        {
          "internalType": "uint16",
          "name": "",
          "type": "uint16"
        },
        {
          "internalType": "uint256",
          "name": "",
          "type": "uint256"
        },
        {
          "internalType": "bytes",
          "name": "",
          "type": "bytes"
        }
      ],
      "name": "setConfig",
      "outputs": [],
      "stateMutability": "nonpayable",
      "type": "function"
    },
    {
      "inputs": [
        {
          "internalType": "bytes",
          "name": "_adapterParams",
          "type": "bytes"
        }
      ],
      "name": "setDefaultAdapterParams",
      "outputs": [],
      "stateMutability": "nonpayable",
      "type": "function"
    },
    {
      "inputs": [
        {
          "internalType": "address",
          "name": "destAddr",
          "type": "address"
        },
        {
          "internalType": "address",
          "name": "lzEndpointAddr",
          "type": "address"
        }
      ],
      "name": "setDestLzEndpoint",
      "outputs": [],
      "stateMutability": "nonpayable",
      "type": "function"
    },
    {
      "inputs": [
        {
          "internalType": "uint256",
          "name": "_oracleFee",
          "type": "uint256"
        }
      ],
      "name": "setOracleFee",
      "outputs": [],
      "stateMutability": "nonpayable",
      "type": "function"
    },
    {
      "inputs": [
        {
          "internalType": "uint256",
          "name": "_zroFee",
          "type": "uint256"
        },
        {
          "internalType": "uint256",
          "name": "_nativeBP",
          "type": "uint256"
        }
      ],
      "name": "setProtocolFee",
      "outputs": [],
      "stateMutability": "nonpayable",
      "type": "function"
    },
    {
      "inputs": [
        {
          "internalType": "uint16",
          "name": "",
          "type": "uint16"
        }
      ],
      "name": "setReceiveVersion",
      "outputs": [],
      "stateMutability": "nonpayable",
      "type": "function"
    },
    {
      "inputs": [
        {
          "internalType": "uint128",
          "name": "_dstPriceRatio",
          "type": "uint128"
        },
        {
          "internalType": "uint128",
          "name": "_dstGasPriceInWei",
          "type": "uint128"
        },
        {
          "internalType": "uint128",
          "name": "_dstNativeAmtCap",
          "type": "uint128"
        },
        {
          "internalType": "uint64",
          "name": "_baseGas",
          "type": "uint64"
        },
        {
          "internalType": "uint64",
          "name": "_gasPerByte",
          "type": "uint64"
        }
      ],
      "name": "setRelayerPrice",
      "outputs": [],
      "stateMutability": "nonpayable",
      "type": "function"
    },
    {
      "inputs": [
        {
          "internalType": "uint16",
          "name": "",
          "type": "uint16"
        }
      ],
      "name": "setSendVersion",
      "outputs": [],
      "stateMutability": "nonpayable",
      "type": "function"
    },
    {
      "inputs": [
        {
          "internalType": "uint16",
          "name": "",
          "type": "uint16"
        },
        {
          "internalType": "bytes",
          "name": "",
          "type": "bytes"
        }
      ],
      "name": "storedPayload",
      "outputs": [
        {
          "internalType": "uint64",
          "name": "payloadLength",
          "type": "uint64"
        },
        {
          "internalType": "address",
          "name": "dstAddress",
          "type": "address"
        },
        {
          "internalType": "bytes32",
          "name": "payloadHash",
          "type": "bytes32"
        }
      ],
      "stateMutability": "view",
      "type": "function"
    }
  ],
  "bytecode": "0x6080604052600c805461ffff19166101011790553480156200002057600080fd5b50604051620032413803806200324183398101604081905262000043916200013d565b6001805461ffff191661ffff83161781556040805160a0810182526402540be400808252602080830191909152678ac7230489e8000082840152606460608301526080909101929092527402540be400000000000000000000000002540be4006002557801000000000000006400000000000000008ac7230489e800006003558051808201909152670de0b6b3a76400008082526103e891909201819052600491909155600555662386f26fc1000060065562000126620186a060408051600160f01b602082015260228082019390935281518082039093018352604201905290565b6007906200013590826200020f565b5050620002db565b6000602082840312156200015057600080fd5b815161ffff811681146200016357600080fd5b9392505050565b634e487b7160e01b600052604160045260246000fd5b600181811c908216806200019557607f821691505b602082108103620001b657634e487b7160e01b600052602260045260246000fd5b50919050565b601f8211156200020a57600081815260208120601f850160051c81016020861015620001e55750805b601f850160051c820191505b818110156200020657828155600101620001f1565b5050505b505050565b81516001600160401b038111156200022b576200022b6200016a565b62000243816200023c845462000180565b84620001bc565b602080601f8311600181146200027b5760008415620002625750858301515b600019600386901b1c1916600185901b17855562000206565b600085815260208120601f198616915b82811015620002ac578886015182559484019460019091019084016200028b565b5085821015620002cb5787850151600019600388901b60f8161c191681555b5050505050600190811b01905550565b612f5680620002eb6000396000f3fe6080604052600436106101b55760003560e01c806307d3277f146101ba57806307e0db17146101ef578063096568f61461020f5780630eaf6ea61461024357806310ddb137146101ef57806312a9ee6b14610273578063240de277146102a2578063272bd384146102c85780632c365e25146102ea5780633408e470146103605780633e0dd83e1461037957806340a7bb101461039957806342d65a8d146103b95780636fbac4b5146103d957806371ba2fd6146103fa57806376a386dc146104325780637a145748146104cb578063907c5e7e146105035780639924d33b146105935780639c729da1146103fa578063aaff5f16146105e5578063b208649914610605578063b230457414610646578063b6d9ef601461067f578063c08f15a11461069f578063c2fa4813146106e8578063c580310014610708578063c81b383a1461071b578063ca066b3514610751578063cbed8b9c14610772578063d23104f114610793578063da1a7c9a1461020f578063db14f305146107b6578063e97a448a146107d1578063f5ecbdbc146107ed578063f9cd3ceb1461081f578063fbba623b14610843578063fdc07c7014610863575b600080fd5b3480156101c657600080fd5b506004546005546101d5919082565b604080519283526020830191909152015b60405180910390f35b3480156101fb57600080fd5b5061020d61020a36600461214e565b50565b005b34801561021b57600080fd5b5061023061022a36600461217e565b50600190565b60405161ffff90911681526020016101e6565b34801561024f57600080fd5b5061026361025e3660046121e3565b610883565b60405190151581526020016101e6565b34801561027f57600080fd5b5061029361028e3660046122d7565b6108c9565b6040516101e69392919061237d565b3480156102ae57600080fd5b5061020d6102bd3660046123b9565b600491909155600555565b3480156102d457600080fd5b506102dd6109c6565b6040516101e691906123db565b3480156102f657600080fd5b5061020d61030536600461241c565b6001600160801b03948516600160801b94861685021760025560038054939095166001600160c01b0319909316929092176001600160401b03918216909302929092176001600160c01b0316600160c01b9190921602179055565b34801561036c57600080fd5b5060015461ffff16610230565b34801561038557600080fd5b506001546102639062010000900460ff1681565b3480156103a557600080fd5b506101d56103b4366004612491565b610a54565b3480156103c557600080fd5b5061020d6103d43660046121e3565b610b53565b3480156103e557600080fd5b50600154610263906301000000900460ff1681565b34801561040657600080fd5b5061041a61041536600461217e565b503090565b6040516001600160a01b0390911681526020016101e6565b34801561043e57600080fd5b5061049e61044d366004612528565b600a6020908152600092835260409092208151808301840180519281529084019290930191909120915280546001909101546001600160401b03821691600160401b90046001600160a01b03169083565b604080516001600160401b0390941684526001600160a01b039092166020840152908201526060016101e6565b3480156104d757600080fd5b506104eb6104e6366004612575565b610c6e565b6040516001600160401b0390911681526020016101e6565b34801561050f57600080fd5b5060025460035461054f916001600160801b0380821692600160801b92839004821692918116916001600160401b03908204811691600160c01b90041685565b604080516001600160801b039687168152948616602086015292909416918301919091526001600160401b039081166060830152909116608082015260a0016101e6565b34801561059f57600080fd5b506104eb6105ae366004612528565b600860209081526000928352604090922081518083018401805192815290840192909301919091209152546001600160401b031681565b3480156105f157600080fd5b5061020d6106003660046125ac565b610ca6565b34801561061157600080fd5b506104eb610620366004612575565b60096020908152600092835260408084209091529082529020546001600160401b031681565b34801561065257600080fd5b5061020d61066136600461262c565b6001805491151563010000000263ff00000019909216919091179055565b34801561068b57600080fd5b5061020d61069a366004612647565b600655565b3480156106ab57600080fd5b5061020d6106ba366004612660565b6001600160a01b03918216600090815260208190526040902080546001600160a01b03191691909216179055565b3480156106f457600080fd5b5061020d61070336600461267e565b610e8c565b61020d61071636600461272d565b6115a0565b34801561072757600080fd5b5061041a61073636600461217e565b6000602081905290815260409020546001600160a01b031681565b34801561075d57600080fd5b50610263600c54610100900460ff1660021490565b34801561077e57600080fd5b5061020d61078d3660046127f4565b50505050565b34801561079f57600080fd5b5061020d6001805462ff0000191662010000179055565b3480156107c257600080fd5b506001546102309061ffff1681565b3480156107dd57600080fd5b50610263600c5460ff1660021490565b3480156107f957600080fd5b506102dd61080836600461285b565b604080516020810190915260008152949350505050565b34801561082b57600080fd5b5061083560065481565b6040519081526020016101e6565b34801561084f57600080fd5b5061020d61085e3660046128a8565b611ba8565b34801561086f57600080fd5b506104eb61087e3660046121e3565b611bb8565b61ffff83166000908152600a602052604080822090518291906108a990869086906128e4565b9081526040519081900360200190206001015415159150505b9392505050565b600b602090815260008481526040902083518085018301805192815290830192850192909220915280548290811061090057600080fd5b6000918252602090912060029091020180546001820180546001600160a01b0383169650600160a01b9092046001600160401b03169450919250610943906128f4565b80601f016020809104026020016040519081016040528092919081815260200182805461096f906128f4565b80156109bc5780601f10610991576101008083540402835291602001916109bc565b820191906000526020600020905b81548152906001019060200180831161099f57829003601f168201915b5050505050905083565b600780546109d3906128f4565b80601f01602080910402602001604051908101604052809291908181526020018280546109ff906128f4565b8015610a4c5780601f10610a2157610100808354040283529160200191610a4c565b820191906000526020600020905b815481529060010190602001808311610a2f57829003601f168201915b505050505081565b600080600080845111610af15760078054610a6e906128f4565b80601f0160208091040260200160405190810160405280929190818152602001828054610a9a906128f4565b8015610ae75780601f10610abc57610100808354040283529160200191610ae7565b820191906000526020600020905b815481529060010190602001808311610aca57829003601f168201915b5050505050610af3565b835b90506000610b068960018a8a5186611bfd565b90506000610b178783600654611d96565b905086610b275780945084610b2c565b809350835b50600654610b3a8387612944565b610b449190612944565b94505050509550959350505050565b61ffff83166000908152600a60205260408082209051610b7690859085906128e4565b9081526040519081900360200190206001810154909150610bb25760405162461bcd60e51b8152600401610ba990612957565b60405180910390fd5b8054600160401b90046001600160a01b03163314610c125760405162461bcd60e51b815260206004820152601d60248201527f4c617965725a65726f4d6f636b3a20696e76616c69642063616c6c65720000006044820152606401610ba9565b80546001600160e01b0319168155600060018201556040517f23d2684f396e92a6e2ff2d16f98e6fea00d50cb27a64b531bc0748f730211f9890610c5b908690869086906129b5565b60405180910390a161078d848484611dd3565b61ffff821660009081526009602090815260408083206001600160a01b03851684529091529020546001600160401b03165b92915050565b61ffff85166000908152600a60205260408082209051610cc990879087906128e4565b9081526040519081900360200190206001810154909150610cfc5760405162461bcd60e51b8152600401610ba990612957565b80546001600160401b031682148015610d2f575080600101548383604051610d259291906128e4565b6040518091039020145b610d7b5760405162461bcd60e51b815260206004820152601e60248201527f4c617965725a65726f4d6f636b3a20696e76616c6964207061796c6f616400006044820152606401610ba9565b80546001600160e01b03198116825560006001830181905561ffff88168152600860205260408082209051600160401b9093046001600160a01b031692610dc590899089906128e4565b90815260405190819003602001812054621d356760e01b82526001600160401b031691506001600160a01b03831690621d356790610e11908b908b908b9087908c908c906004016129d3565b600060405180830381600087803b158015610e2b57600080fd5b505af1158015610e3f573d6000803e3d6000fd5b505050507f612434f39581c8e7d99746c9c20c6eb0ce8c0eb99f007c5719d620841370957d8888888486604051610e7a959493929190612a20565b60405180910390a15050505050505050565b600c54610100900460ff16600114610ef25760405162461bcd60e51b8152602060048201526024808201527f4c617965725a65726f4d6f636b3a206e6f2072656365697665207265656e7472604482015263616e637960e01b6064820152608401610ba9565b600c805461ff00191661020017905561ffff88166000908152600a60205260408082209051610f24908a908a906128e4565b90815260200160405180910390209050600860008a61ffff1661ffff1681526020019081526020016000208888604051610f5f9291906128e4565b9081526040519081900360200190208054600090610f85906001600160401b0316612a69565b91906101000a8154816001600160401b0302191690836001600160401b0316021790556001600160401b0316856001600160401b0316146110055760405162461bcd60e51b815260206004820152601a6024820152794c617965725a65726f4d6f636b3a2077726f6e67206e6f6e636560301b6044820152606401610ba9565b6001810154156112d75761ffff89166000908152600b60205260408082209051611032908b908b906128e4565b9081526020016040518091039020905060006040518060600160405280896001600160a01b03168152602001886001600160401b0316815260200186868080601f016020809104026020016040519081016040528093929190818152602001838380828437600092019190915250505091525082549091501561126857815460018181018455600084815260209081902084516002909402018054918501516001600160401b0316600160a01b026001600160e01b03199092166001600160a01b039094169390931717825560408301518392918201906111139082612afb565b50505060005b825461112790600190612bb4565b8110156111ed5782818154811061114057611140612bc7565b90600052602060002090600202018382600161115c9190612944565b8154811061116c5761116c612bc7565b60009182526020909120825460029092020180546001600160a01b039092166001600160a01b031983168117825583546001600160e01b031990931617600160a01b928390046001600160401b03169092029190911781556001808201906111d690840182612bdd565b5090505080806111e590612cb1565b915050611119565b50808260008154811061120257611202612bc7565b600091825260209182902083516002909202018054928401516001600160401b0316600160a01b026001600160e01b03199093166001600160a01b03909216919091179190911781556040820151600182019061125f9082612afb565b509050506112d0565b815460018181018455600084815260209081902084516002909402018054918501516001600160401b0316600160a01b026001600160e01b03199092166001600160a01b039094169390931717825560408301518392918201906112cc9082612afb565b5050505b5050611586565b60015462010000900460ff16156113f3576040518060600160405280848490506001600160401b03168152602001876001600160a01b0316815260200184846040516113249291906128e4565b604080519182900390912090915261ffff8b166000908152600a6020528190209051611353908b908b906128e4565b90815260408051918290036020908101832084518154868401516001600160a01b0316600160401b026001600160e01b03199091166001600160401b0390921691909117178155938201516001909401939093559181018252600081529051600080516020612f01833981519152916113da918c918c918c918c918c918b918b9190612cca565b60405180910390a16001805462ff000019169055611586565b604051621d356760e01b81526001600160a01b03871690621d3567908690611429908d908d908d908c908b908b906004016129d3565b600060405180830381600088803b15801561144357600080fd5b5087f193505050508015611455575060015b611586573d808015611483576040519150601f19603f3d011682016040523d82523d6000602084013e611488565b606091505b506040518060600160405280858590506001600160401b03168152602001886001600160a01b0316815260200185856040516114c59291906128e4565b604080519182900390912090915261ffff8c166000908152600a60205281902090516114f4908c908c906128e4565b90815260408051918290036020908101832084518154928601516001600160a01b0316600160401b026001600160e01b03199093166001600160401b0390911617919091178155920151600190920191909155600080516020612f0183398151915290611570908c908c908c908c908c908b908b908a90612cca565b60405180910390a1506001805462ff0000191690555b5050600c805461ff00191661010017905550505050505050565b600c5460ff166001146115ff5760405162461bcd60e51b815260206004820152602160248201527f4c617965725a65726f4d6f636b3a206e6f2073656e64207265656e7472616e636044820152607960f81b6064820152608401610ba9565b600c805460ff1916600217905585516028146116725760405162461bcd60e51b815260206004820152602c60248201527f4c617965725a65726f4d6f636b3a20696e636f72726563742072656d6f74652060448201526b616464726573732073697a6560a01b6064820152608401610ba9565b8051879060009061170d576007805461168a906128f4565b80601f01602080910402602001604051908101604052809291908181526020018280546116b6906128f4565b80156117035780601f106116d857610100808354040283529160200191611703565b820191906000526020600020905b8154815290600101906020018083116116e657829003601f168201915b505050505061170f565b825b9050600061176083338a8a8080601f0160208091040260200160405190810160405280939291908181526020018383808284376000920191909152505050506001600160a01b038916151586610a54565b509050803410156117c55760405162461bcd60e51b815260206004820152602960248201527f4c617965725a65726f4d6f636b3a206e6f7420656e6f756768206e617469766560448201526820666f72206665657360b81b6064820152608401610ba9565b61ffff831660009081526009602090815260408083203384529091528120805482906117f9906001600160401b0316612a69565b91906101000a8154816001600160401b0302191690836001600160401b03160217905590506000823461182c9190612bb4565b905080156118d9576000886001600160a01b03168260405160006040518083038185875af1925050503d8060008114611881576040519150601f19603f3d011682016040523d82523d6000602084013e611886565b606091505b50509050806118d75760405162461bcd60e51b815260206004820152601f60248201527f4c617965725a65726f4d6f636b3a206661696c656420746f20726566756e64006044820152606401610ba9565b505b60008060006118e787611fca565b91955093509150508115611989576000816001600160a01b03168360405160006040518083038185875af1925050503d8060008114611942576040519150601f19603f3d011682016040523d82523d6000602084013e611947565b606091505b50509050806119875760405183906001600160a01b038416907f2c7a964ca3de5ec1d42d9822f9bbd0eb142a59cc9f855e9d93813b773192c7a390600090a35b505b600060148f0151905060008e8e8080601f016020809104026020016040519081016040528093929190818152602001838380828437600092018290525060015460405195965090946119f194508c935061ffff909116915033908f9088908890602001612d3c565b60405160208183030381529060405290507fe9bded5f24a4168e4f3bf44e00298c993b22376aad8c58c7dda9718a54cbea8281604051611a3191906123db565b60405180910390a16001546301000000900460ff1615611b87576001600160a01b038084166000908152602081905260409020541680611ad35760405162461bcd60e51b815260206004820152603760248201527f4c617965725a65726f4d6f636b3a2064657374696e6174696f6e204c6179657260448201527616995c9bc8115b991c1bda5b9d081b9bdd08199bdd5b99604a1b6064820152608401610ba9565b6040516001600160601b031933606090811b8216602084015286901b1660348201526000906048016040516020818303038152906040529050816001600160a01b031663c2fa4813600160009054906101000a900461ffff1683888e8d8a6040518763ffffffff1660e01b8152600401611b5296959493929190612db9565b600060405180830381600087803b158015611b6c57600080fd5b505af1158015611b80573d6000803e3d6000fd5b5050505050505b5050600c805460ff1916600117905550505050505050505050505050505050565b6007611bb48282612afb565b5050565b61ffff83166000908152600860205260408082209051611bdb90859085906128e4565b908152604051908190036020019020546001600160401b031690509392505050565b600080600080611c0c85611fca565b5092509250925060008361ffff16600203611c98576003546001600160801b0316821115611c8b5760405162461bcd60e51b815260206004820152602660248201527f4c617965725a65726f4d6f636b3a206473744e6174697665416d7420746f6f2060448201526503630b933b2960d51b6064820152608401610ba9565b611c958282612944565b90505b600354600090611cb9908590600160801b90046001600160401b0316612944565b600254611cd69190600160801b90046001600160801b0316612e0d565b9050611ce28183612944565b6002549092506000906402540be40090611d05906001600160801b031685612e0d565b611d0f9190612e3a565b6002546003549192506000916402540be400916001600160801b0380821692611d5292600160c01b9091046001600160401b031691600160801b90910416612e4e565b611d5c9190612e4e565b611d669190612e79565b6001600160801b03169050611d7b818b612e0d565b611d859083612944565b9d9c50505050505050505050505050565b60008315611da757506004546108c2565b60055461271090611db88486612944565b611dc29190612e0d565b611dcc9190612e3a565b90506108c2565b61ffff83166000908152600b60205260408082209051611df690859085906128e4565b908152602001604051809103902090505b80541561078d5780546000908290611e2190600190612bb4565b81548110611e3157611e31612bc7565b600091825260209182902060408051606081018252600290930290910180546001600160a01b03811684526001600160401b03600160a01b909104169383019390935260018301805492939291840191611e8a906128f4565b80601f0160208091040260200160405190810160405280929190818152602001828054611eb6906128f4565b8015611f035780601f10611ed857610100808354040283529160200191611f03565b820191906000526020600020905b815481529060010190602001808311611ee657829003601f168201915b505050505081525050905080600001516001600160a01b0316621d3567868686856020015186604001516040518663ffffffff1660e01b8152600401611f4d959493929190612e9f565b600060405180830381600087803b158015611f6757600080fd5b505af1158015611f7b573d6000803e3d6000fd5b5050505081805480611f8f57611f8f612eea565b60008281526020812060026000199093019283020180546001600160e01b031916815590611fc060018301826120e9565b5050905550611e07565b600080600080845160221480611fe1575060428551115b6120255760405162461bcd60e51b8152602060048201526015602482015274496e76616c69642061646170746572506172616d7360581b6044820152606401610ba9565b60028501519350602285015192508361ffff166001148061204a57508361ffff166002145b61208b5760405162461bcd60e51b8152602060048201526012602482015271556e737570706f727465642074785479706560701b6044820152606401610ba9565b600083116120c95760405162461bcd60e51b815260206004820152600b60248201526a47617320746f6f206c6f7760a81b6044820152606401610ba9565b8361ffff166002036120e2575050604283015160568401515b9193509193565b5080546120f5906128f4565b6000825580601f10612105575050565b601f01602090049060005260206000209081019061020a91905b80821115612133576000815560010161211f565b5090565b803561ffff8116811461214957600080fd5b919050565b60006020828403121561216057600080fd5b6108c282612137565b6001600160a01b038116811461020a57600080fd5b60006020828403121561219057600080fd5b81356108c281612169565b60008083601f8401126121ad57600080fd5b5081356001600160401b038111156121c457600080fd5b6020830191508360208285010111156121dc57600080fd5b9250929050565b6000806000604084860312156121f857600080fd5b61220184612137565b925060208401356001600160401b0381111561221c57600080fd5b6122288682870161219b565b9497909650939450505050565b634e487b7160e01b600052604160045260246000fd5b600082601f83011261225c57600080fd5b81356001600160401b038082111561227657612276612235565b604051601f8301601f19908116603f0116810190828211818310171561229e5761229e612235565b816040528381528660208588010111156122b757600080fd5b836020870160208301376000602085830101528094505050505092915050565b6000806000606084860312156122ec57600080fd5b6122f584612137565b925060208401356001600160401b0381111561231057600080fd5b61231c8682870161224b565b925050604084013590509250925092565b60005b83811015612348578181015183820152602001612330565b50506000910152565b6000815180845261236981602086016020860161232d565b601f01601f19169290920160200192915050565b6001600160a01b03841681526001600160401b03831660208201526060604082018190526000906123b090830184612351565b95945050505050565b600080604083850312156123cc57600080fd5b50508035926020909101359150565b6020815260006108c26020830184612351565b80356001600160801b038116811461214957600080fd5b80356001600160401b038116811461214957600080fd5b600080600080600060a0868803121561243457600080fd5b61243d866123ee565b945061244b602087016123ee565b9350612459604087016123ee565b925061246760608701612405565b915061247560808701612405565b90509295509295909350565b8035801515811461214957600080fd5b600080600080600060a086880312156124a957600080fd5b6124b286612137565b945060208601356124c281612169565b935060408601356001600160401b03808211156124de57600080fd5b6124ea89838a0161224b565b94506124f860608901612481565b9350608088013591508082111561250e57600080fd5b5061251b8882890161224b565b9150509295509295909350565b6000806040838503121561253b57600080fd5b61254483612137565b915060208301356001600160401b0381111561255f57600080fd5b61256b8582860161224b565b9150509250929050565b6000806040838503121561258857600080fd5b61259183612137565b915060208301356125a181612169565b809150509250929050565b6000806000806000606086880312156125c457600080fd5b6125cd86612137565b945060208601356001600160401b03808211156125e957600080fd5b6125f589838a0161219b565b9096509450604088013591508082111561260e57600080fd5b5061261b8882890161219b565b969995985093965092949392505050565b60006020828403121561263e57600080fd5b6108c282612481565b60006020828403121561265957600080fd5b5035919050565b6000806040838503121561267357600080fd5b823561259181612169565b60008060008060008060008060c0898b03121561269a57600080fd5b6126a389612137565b975060208901356001600160401b03808211156126bf57600080fd5b6126cb8c838d0161219b565b909950975060408b013591506126e082612169565b8196506126ef60608c01612405565b955060808b0135945060a08b013591508082111561270c57600080fd5b506127198b828c0161219b565b999c989b5096995094979396929594505050565b600080600080600080600060c0888a03121561274857600080fd5b61275188612137565b965060208801356001600160401b038082111561276d57600080fd5b6127798b838c0161224b565b975060408a013591508082111561278f57600080fd5b61279b8b838c0161219b565b909750955060608a013591506127b082612169565b9093506080890135906127c282612169565b90925060a089013590808211156127d857600080fd5b506127e58a828b0161224b565b91505092959891949750929550565b6000806000806080858703121561280a57600080fd5b61281385612137565b935061282160208601612137565b92506040850135915060608501356001600160401b0381111561284357600080fd5b61284f8782880161224b565b91505092959194509250565b6000806000806080858703121561287157600080fd5b61287a85612137565b935061288860208601612137565b9250604085013561289881612169565b9396929550929360600135925050565b6000602082840312156128ba57600080fd5b81356001600160401b038111156128d057600080fd5b6128dc8482850161224b565b949350505050565b8183823760009101908152919050565b600181811c9082168061290857607f821691505b60208210810361292857634e487b7160e01b600052602260045260246000fd5b50919050565b634e487b7160e01b600052601160045260246000fd5b80820180821115610ca057610ca061292e565b6020808252818101527f4c617965725a65726f4d6f636b3a206e6f2073746f726564207061796c6f6164604082015260600190565b81835281816020850137506000828201602090810191909152601f909101601f19169091010190565b61ffff841681526040602082015260006123b060408301848661298c565b61ffff871681526080602082015260006129f160808301878961298c565b6001600160401b03861660408401528281036060840152612a1381858761298c565b9998505050505050505050565b61ffff86168152608060208201526000612a3e60808301868861298c565b6001600160401b03949094166040830152506001600160a01b03919091166060909101529392505050565b60006001600160401b038281166002600160401b03198101612a8d57612a8d61292e565b6001019392505050565b601f821115612ae157600081815260208120601f850160051c81016020861015612abe5750805b601f850160051c820191505b81811015612add57828155600101612aca565b5050505b505050565b600019600383901b1c191660019190911b1790565b81516001600160401b03811115612b1457612b14612235565b612b2881612b2284546128f4565b84612a97565b602080601f831160018114612b575760008415612b455750858301515b612b4f8582612ae6565b865550612add565b600085815260208120601f198616915b82811015612b8657888601518255948401946001909101908401612b67565b5085821015612ba45787850151600019600388901b60f8161c191681555b5050505050600190811b01905550565b81810381811115610ca057610ca061292e565b634e487b7160e01b600052603260045260246000fd5b818103612be8575050565b612bf282546128f4565b6001600160401b03811115612c0957612c09612235565b612c1781612b2284546128f4565b6000601f821160018114612c455760008315612c335750848201545b612c3d8482612ae6565b855550612caa565b600085815260209020601f19841690600086815260209020845b83811015612c7f5782860154825560019586019590910190602001612c5f565b5085831015612c9d5781850154600019600388901b60f8161c191681555b50505060018360011b0184555b5050505050565b600060018201612cc357612cc361292e565b5060010190565b61ffff8916815260c060208201526000612ce860c08301898b61298c565b6001600160a01b03881660408401526001600160401b03871660608401528281036080840152612d1981868861298c565b905082810360a0840152612d2d8185612351565b9b9a5050505050505050505050565b6001600160c01b031960c088901b1681526001600160f01b031960f087811b821660088401526001600160601b0319606088811b8216600a8601529187901b909216601e84015284901b166020808301919091528251600091612da79082906034860190870161232d565b91909101603401979650505050505050565b61ffff8716815260c060208201526000612dd660c0830188612351565b6001600160a01b03871660408401526001600160401b03861660608401526080830185905282810360a0840152612a138185612351565b8082028115828204841417610ca057610ca061292e565b634e487b7160e01b600052601260045260246000fd5b600082612e4957612e49612e24565b500490565b6001600160801b03818116838216028082169190828114612e7157612e7161292e565b505092915050565b60006001600160801b0383811680612e9357612e93612e24565b92169190910492915050565b61ffff86168152608060208201526000612ebd60808301868861298c565b6001600160401b03851660408401528281036060840152612ede8185612351565b98975050505050505050565b634e487b7160e01b600052603160045260246000fdfe0f9e4d95b62f08222d612b5ab92039cd8fbbbea550a95e8df9f927436bbdf5dba2646970667358221220f48f29b21e042c3666a60eec967a867297f8e023886ebb5036e36db7ef1dee5464736f6c63430008140033",
  "linkReferences": {},
  "deployedLinkReferences": {}
}