{"contracts/bridge/LayerZeroTest.sol":{"LayerZeroTest":{"abi":[{"inputs":[{"internalType":"address","name":"_lzEndpoint","type":"address"},{"internalType":"uint16","name":"destChainId","type":"uint16"}],"stateMutability":"nonpayable","type":"constructor"},{"anonymous":false,"inputs":[{"indexed":false,"internalType":"uint16","name":"_srcChainId","type":"uint16"},{"indexed":false,"internalType":"bytes","name":"_srcAddress","type":"bytes"},{"indexed":false,"internalType":"uint64","name":"_nonce","type":"uint64"},{"indexed":false,"internalType":"bytes","name":"_payload","type":"bytes"},{"indexed":false,"internalType":"bytes","name":"_reason","type":"bytes"}],"name":"MessageFailed","type":"event"},{"anonymous":false,"inputs":[{"indexed":true,"internalType":"address","name":"previousOwner","type":"address"},{"indexed":true,"internalType":"address","name":"newOwner","type":"address"}],"name":"OwnershipTransferred","type":"event"},{"anonymous":false,"inputs":[{"indexed":false,"internalType":"uint16","name":"_srcChainId","type":"uint16"},{"indexed":false,"internalType":"bytes","name":"_srcAddress","type":"bytes"},{"indexed":false,"internalType":"uint64","name":"_nonce","type":"uint64"},{"indexed":false,"internalType":"bytes32","name":"_payloadHash","type":"bytes32"}],"name":"RetryMessageSuccess","type":"event"},{"anonymous":false,"inputs":[{"indexed":false,"internalType":"uint16","name":"_dstChainId","type":"uint16"},{"indexed":false,"internalType":"uint16","name":"_type","type":"uint16"},{"indexed":false,"internalType":"uint256","name":"_minDstGas","type":"uint256"}],"name":"SetMinDstGas","type":"event"},{"anonymous":false,"inputs":[{"indexed":false,"internalType":"address","name":"precrime","type":"address"}],"name":"SetPrecrime","type":"event"},{"anonymous":false,"inputs":[{"indexed":false,"internalType":"uint16","name":"_remoteChainId","type":"uint16"},{"indexed":false,"internalType":"bytes","name":"_path","type":"bytes"}],"name":"SetTrustedRemote","type":"event"},{"anonymous":false,"inputs":[{"indexed":false,"internalType":"uint16","name":"_remoteChainId","type":"uint16"},{"indexed":false,"internalType":"bytes","name":"_remoteAddress","type":"bytes"}],"name":"SetTrustedRemoteAddress","type":"event"},{"inputs":[],"name":"DEFAULT_PAYLOAD_SIZE_LIMIT","outputs":[{"internalType":"uint256","name":"","type":"uint256"}],"stateMutability":"view","type":"function"},{"inputs":[],"name":"__lzEndpoint","outputs":[{"internalType":"address","name":"","type":"address"}],"stateMutability":"view","type":"function"},{"inputs":[],"name":"data","outputs":[{"internalType":"string","name":"","type":"string"}],"stateMutability":"view","type":"function"},{"inputs":[{"internalType":"address","name":"","type":"address"}],"name":"endpointIdPair","outputs":[{"internalType":"uint16","name":"","type":"uint16"}],"stateMutability":"view","type":"function"},{"inputs":[{"internalType":"uint16","name":"","type":"uint16"},{"internalType":"bytes","name":"","type":"bytes"},{"internalType":"uint64","name":"","type":"uint64"}],"name":"failedMessages","outputs":[{"internalType":"bytes32","name":"","type":"bytes32"}],"stateMutability":"view","type":"function"},{"inputs":[{"internalType":"uint16","name":"_srcChainId","type":"uint16"},{"internalType":"bytes","name":"_srcAddress","type":"bytes"}],"name":"forceResumeReceive","outputs":[],"stateMutability":"nonpayable","type":"function"},{"inputs":[],"name":"getChainID","outputs":[{"internalType":"uint256","name":"","type":"uint256"}],"stateMutability":"view","type":"function"},{"inputs":[{"internalType":"uint16","name":"_version","type":"uint16"},{"internalType":"uint16","name":"_chainId","type":"uint16"},{"internalType":"address","name":"","type":"address"},{"internalType":"uint256","name":"_configType","type":"uint256"}],"name":"getConfig","outputs":[{"internalType":"bytes","name":"","type":"bytes"}],"stateMutability":"view","type":"function"},{"inputs":[{"internalType":"uint16","name":"_remoteChainId","type":"uint16"}],"name":"getTrustedRemoteAddress","outputs":[{"internalType":"bytes","name":"","type":"bytes"}],"stateMutability":"view","type":"function"},{"inputs":[{"internalType":"uint16","name":"_srcChainId","type":"uint16"},{"internalType":"bytes","name":"_srcAddress","type":"bytes"}],"name":"isTrustedRemote","outputs":[{"internalType":"bool","name":"","type":"bool"}],"stateMutability":"view","type":"function"},{"inputs":[],"name":"lzEndpoint","outputs":[{"internalType":"contract ILayerZeroEndpoint","name":"","type":"address"}],"stateMutability":"view","type":"function"},{"inputs":[{"internalType":"uint16","name":"_srcChainId","type":"uint16"},{"internalType":"bytes","name":"_srcAddress","type":"bytes"},{"internalType":"uint64","name":"_nonce","type":"uint64"},{"internalType":"bytes","name":"_payload","type":"bytes"}],"name":"lzReceive","outputs":[],"stateMutability":"nonpayable","type":"function"},{"inputs":[{"internalType":"uint16","name":"","type":"uint16"},{"internalType":"uint16","name":"","type":"uint16"}],"name":"minDstGasLookup","outputs":[{"internalType":"uint256","name":"","type":"uint256"}],"stateMutability":"view","type":"function"},{"inputs":[{"internalType":"uint16","name":"_srcChainId","type":"uint16"},{"internalType":"bytes","name":"_srcAddress","type":"bytes"},{"internalType":"uint64","name":"_nonce","type":"uint64"},{"internalType":"bytes","name":"_payload","type":"bytes"}],"name":"nonblockingLzReceive","outputs":[],"stateMutability":"nonpayable","type":"function"},{"inputs":[],"name":"owner","outputs":[{"internalType":"address","name":"","type":"address"}],"stateMutability":"view","type":"function"},{"inputs":[{"internalType":"uint16","name":"","type":"uint16"}],"name":"payloadSizeLimitLookup","outputs":[{"internalType":"uint256","name":"","type":"uint256"}],"stateMutability":"view","type":"function"},{"inputs":[],"name":"precrime","outputs":[{"internalType":"address","name":"","type":"address"}],"stateMutability":"view","type":"function"},{"inputs":[],"name":"renounceOwnership","outputs":[],"stateMutability":"nonpayable","type":"function"},{"inputs":[{"internalType":"uint16","name":"_srcChainId","type":"uint16"},{"internalType":"bytes","name":"_srcAddress","type":"bytes"},{"internalType":"uint64","name":"_nonce","type":"uint64"},{"internalType":"bytes","name":"_payload","type":"bytes"}],"name":"retryMessage","outputs":[],"stateMutability":"payable","type":"function"},{"inputs":[{"internalType":"string","name":"_message","type":"string"}],"name":"send","outputs":[],"stateMutability":"payable","type":"function"},{"inputs":[{"internalType":"uint16","name":"_version","type":"uint16"},{"internalType":"uint16","name":"_chainId","type":"uint16"},{"internalType":"uint256","name":"_configType","type":"uint256"},{"internalType":"bytes","name":"_config","type":"bytes"}],"name":"setConfig","outputs":[],"stateMutability":"nonpayable","type":"function"},{"inputs":[{"internalType":"uint16","name":"_dstChainId","type":"uint16"},{"internalType":"uint16","name":"_packetType","type":"uint16"},{"internalType":"uint256","name":"_minGas","type":"uint256"}],"name":"setMinDstGas","outputs":[],"stateMutability":"nonpayable","type":"function"},{"inputs":[{"internalType":"uint16","name":"_dstChainId","type":"uint16"},{"internalType":"uint256","name":"_size","type":"uint256"}],"name":"setPayloadSizeLimit","outputs":[],"stateMutability":"nonpayable","type":"function"},{"inputs":[{"internalType":"address","name":"_precrime","type":"address"}],"name":"setPrecrime","outputs":[],"stateMutability":"nonpayable","type":"function"},{"inputs":[{"internalType":"uint16","name":"_version","type":"uint16"}],"name":"setReceiveVersion","outputs":[],"stateMutability":"nonpayable","type":"function"},{"inputs":[{"internalType":"uint16","name":"_version","type":"uint16"}],"name":"setSendVersion","outputs":[],"stateMutability":"nonpayable","type":"function"},{"inputs":[{"internalType":"uint16","name":"_remoteChainId","type":"uint16"},{"internalType":"bytes","name":"_path","type":"bytes"}],"name":"setTrustedRemote","outputs":[],"stateMutability":"nonpayable","type":"function"},{"inputs":[{"internalType":"uint16","name":"_remoteChainId","type":"uint16"},{"internalType":"bytes","name":"_remoteAddress","type":"bytes"}],"name":"setTrustedRemoteAddress","outputs":[],"stateMutability":"nonpayable","type":"function"},{"inputs":[{"internalType":"address","name":"newOwner","type":"address"}],"name":"transferOwnership","outputs":[],"stateMutability":"nonpayable","type":"function"},{"inputs":[{"internalType":"address","name":"_otherContract","type":"address"}],"name":"trustAddress","outputs":[],"stateMutability":"nonpayable","type":"function"},{"inputs":[{"internalType":"uint16","name":"","type":"uint16"}],"name":"trustedRemoteLookup","outputs":[{"internalType":"bytes","name":"","type":"bytes"}],"stateMutability":"view","type":"function"}],"devdoc":{"kind":"dev","methods":{"owner()":{"details":"Returns the address of the current owner."},"renounceOwnership()":{"details":"Leaves the contract without owner. It will not be possible to call `onlyOwner` functions. Can only be called by the current owner. NOTE: Renouncing ownership will leave the contract without an owner, thereby disabling any functionality that is only available to the owner."},"transferOwnership(address)":{"details":"Transfers ownership of the contract to a new account (`newOwner`). Can only be called by the current owner."}},"version":1},"evm":{"bytecode":{"linkReferences":{},"object":"60e0604052601460a09081527f4e6f7468696e672072656365697665642079657400000000000000000000000060c0526006906200003e908262000258565b503480156200004c57600080fd5b50604051620026c4380380620026c48339810160408190526200006f9162000324565b81806200007c33620000dd565b6001600160a01b0390811660805283166000818152600760205260408120805461ffff191661ffff8616179055600880546001600160a01b0319169092179091559050620000c74690565b9050620000d4816200012d565b50505062000374565b600080546001600160a01b038381166001600160a01b0319831681178455604051919092169283917f8be0079c531659141344cd1fd0a4f28419497f9722a3daafe3b4186f6b6457e09190a35050565b62000179816040516024016200014591815260200190565b60408051601f198184030181529190526020810180516001600160e01b0390811663f82c50f160e01b179091526200017c16565b50565b62000179816200019260201b6200134d1760201c565b60006a636f6e736f6c652e6c6f679050600080835160208501845afa505050565b634e487b7160e01b600052604160045260246000fd5b600181811c90821680620001de57607f821691505b602082108103620001ff57634e487b7160e01b600052602260045260246000fd5b50919050565b601f8211156200025357600081815260208120601f850160051c810160208610156200022e5750805b601f850160051c820191505b818110156200024f578281556001016200023a565b5050505b505050565b81516001600160401b03811115620002745762000274620001b3565b6200028c81620002858454620001c9565b8462000205565b602080601f831160018114620002c45760008415620002ab5750858301515b600019600386901b1c1916600185901b1785556200024f565b600085815260208120601f198616915b82811015620002f557888601518255948401946001909101908401620002d4565b5085821015620003145787850151600019600388901b60f8161c191681555b5050505050600190811b01905550565b600080604083850312156200033857600080fd5b82516001600160a01b03811681146200035057600080fd5b602084015190925061ffff811681146200036957600080fd5b809150509250929050565b608051612303620003c160003960008181610476015281816105c801528181610817015281816108bf015281816109e201528181610ed3015281816112cd015261156f01526123036000f3fe6080604052600436106101675760003560e01c80621d35671461016c57806307e0db171461018e5780630df37483146101ae57806310ddb137146101ce5780633d8b38f6146101ee5780633f1f4fa41461022357806342d65a8d1461025e578063564b81ef1461027e5780635b8c41e6146102915780635cdf1649146102e057806366792ba11461030057806366ad5c8a14610313578063715018a61461033357806373d4a13a146103485780637533d7881461036a5780638cfd8f5c1461038a5780638da5cb5b146103c2578063950c8a74146103e45780639f38369a14610404578063a6c3d16514610424578063b00b2d2a14610444578063b353aaa714610464578063b88aea3714610498578063baf3292d146104dc578063c4461834146104fc578063cbed8b9c14610512578063d1deba1f14610532578063df2a5b3b14610545578063eb8d72b714610565578063f2fde38b14610585578063f5ecbdbc146105a5575b600080fd5b34801561017857600080fd5b5061018c610187366004611984565b6105c5565b005b34801561019a57600080fd5b5061018c6101a9366004611a17565b6107f6565b3480156101ba57600080fd5b5061018c6101c9366004611a32565b61087f565b3480156101da57600080fd5b5061018c6101e9366004611a17565b61089e565b3480156101fa57600080fd5b5061020e610209366004611a5c565b6108f6565b60405190151581526020015b60405180910390f35b34801561022f57600080fd5b5061025061023e366004611a17565b60036020526000908152604090205481565b60405190815260200161021a565b34801561026a57600080fd5b5061018c610279366004611a5c565b6109c3565b34801561028a57600080fd5b5046610250565b34801561029d57600080fd5b506102506102ac366004611b59565b6005602090815260009384526040808520845180860184018051928152908401958401959095209452929052825290205481565b3480156102ec57600080fd5b5061018c6102fb366004611be1565b610a49565b61018c61030e366004611bfc565b610abb565b34801561031f57600080fd5b5061018c61032e366004611984565b610b18565b34801561033f57600080fd5b5061018c610bf4565b34801561035457600080fd5b5061035d610c08565b60405161021a9190611c9c565b34801561037657600080fd5b5061035d610385366004611a17565b610c96565b34801561039657600080fd5b506102506103a5366004611caf565b600260209081526000928352604080842090915290825290205481565b3480156103ce57600080fd5b506103d7610caf565b60405161021a9190611ce2565b3480156103f057600080fd5b506004546103d7906001600160a01b031681565b34801561041057600080fd5b5061035d61041f366004611a17565b610cbe565b34801561043057600080fd5b5061018c61043f366004611a5c565b610dcd565b34801561045057600080fd5b506008546103d7906001600160a01b031681565b34801561047057600080fd5b506103d77f000000000000000000000000000000000000000000000000000000000000000081565b3480156104a457600080fd5b506104c96104b3366004611be1565b60076020526000908152604090205461ffff1681565b60405161ffff909116815260200161021a565b3480156104e857600080fd5b5061018c6104f7366004611be1565b610e56565b34801561050857600080fd5b5061025061271081565b34801561051e57600080fd5b5061018c61052d366004611cf6565b610eb4565b61018c610540366004611984565b610f49565b34801561055157600080fd5b5061018c610560366004611d64565b61115f565b34801561057157600080fd5b5061018c610580366004611a5c565b6111c9565b34801561059157600080fd5b5061018c6105a0366004611be1565b611223565b3480156105b157600080fd5b5061035d6105c0366004611da0565b61129c565b337f00000000000000000000000000000000000000000000000000000000000000006001600160a01b0316146106425760405162461bcd60e51b815260206004820152601e60248201527f4c7a4170703a20696e76616c696420656e64706f696e742063616c6c6572000060448201526064015b60405180910390fd5b61ffff86166000908152600160205260408120805461066090611deb565b80601f016020809104026020016040519081016040528092919081815260200182805461068c90611deb565b80156106d95780601f106106ae576101008083540402835291602001916106d9565b820191906000526020600020905b8154815290600101906020018083116106bc57829003601f168201915b505050505090508051868690501480156106f4575060008151115b801561071c5750805160208201206040516107129088908890611e25565b6040518091039020145b6107775760405162461bcd60e51b815260206004820152602660248201527f4c7a4170703a20696e76616c696420736f757263652073656e64696e6720636f6044820152651b9d1c9858dd60d21b6064820152608401610639565b6107ed8787878080601f01602080910402602001604051908101604052809392919081815260200183838082843760009201919091525050604080516020601f8a018190048102820181019092528881528a93509150889088908190840183828082843760009201919091525061136e92505050565b50505050505050565b6107fe6113e7565b6040516307e0db1760e01b815261ffff821660048201527f00000000000000000000000000000000000000000000000000000000000000006001600160a01b0316906307e0db17906024015b600060405180830381600087803b15801561086457600080fd5b505af1158015610878573d6000803e3d6000fd5b5050505050565b6108876113e7565b61ffff909116600090815260036020526040902055565b6108a66113e7565b6040516310ddb13760e01b815261ffff821660048201527f00000000000000000000000000000000000000000000000000000000000000006001600160a01b0316906310ddb1379060240161084a565b61ffff83166000908152600160205260408120805482919061091790611deb565b80601f016020809104026020016040519081016040528092919081815260200182805461094390611deb565b80156109905780601f1061096557610100808354040283529160200191610990565b820191906000526020600020905b81548152906001019060200180831161097357829003601f168201915b5050505050905083836040516109a7929190611e25565b60405180910390208180519060200120149150505b9392505050565b6109cb6113e7565b6040516342d65a8d60e01b81526001600160a01b037f000000000000000000000000000000000000000000000000000000000000000016906342d65a8d90610a1b90869086908690600401611e5e565b600060405180830381600087803b158015610a3557600080fd5b505af11580156107ed573d6000803e3d6000fd5b610a516113e7565b6040516001600160601b0319606083811b8216602084015230901b16603482015260480160408051601f198184030181529181526008546001600160a01b03166000908152600760209081528282205461ffff168252600190522090610ab79082611ed7565b5050565b600081604051602001610ace9190611c9c565b60408051601f198184030181526008546001600160a01b031660009081526007602090815283822054908501909352808452909350610ab79261ffff909216918491339134611446565b333014610b765760405162461bcd60e51b815260206004820152602660248201527f4e6f6e626c6f636b696e674c7a4170703a2063616c6c6572206d7573742062656044820152650204c7a4170760d41b6064820152608401610639565b610bec8686868080601f01602080910402602001604051908101604052809392919081815260200183838082843760009201919091525050604080516020601f8901819004810282018101909252878152899350915087908790819084018382808284376000920191909152506115eb92505050565b505050505050565b610bfc6113e7565b610c06600061160c565b565b60068054610c1590611deb565b80601f0160208091040260200160405190810160405280929190818152602001828054610c4190611deb565b8015610c8e5780601f10610c6357610100808354040283529160200191610c8e565b820191906000526020600020905b815481529060010190602001808311610c7157829003601f168201915b505050505081565b60016020526000908152604090208054610c1590611deb565b6000546001600160a01b031690565b61ffff8116600090815260016020526040812080546060929190610ce190611deb565b80601f0160208091040260200160405190810160405280929190818152602001828054610d0d90611deb565b8015610d5a5780601f10610d2f57610100808354040283529160200191610d5a565b820191906000526020600020905b815481529060010190602001808311610d3d57829003601f168201915b505050505090508051600003610db25760405162461bcd60e51b815260206004820152601d60248201527f4c7a4170703a206e6f20747275737465642070617468207265636f72640000006044820152606401610639565b6109bc600060148351610dc59190611fa6565b83919061165c565b610dd56113e7565b818130604051602001610dea93929190611fbf565b60408051601f1981840301815291815261ffff8516600090815260016020522090610e159082611ed7565b507f8c0400cfe2d1199b1a725c78960bcc2a344d869b80590d0f2bd005db15a572ce838383604051610e4993929190611e5e565b60405180910390a1505050565b610e5e6113e7565b600480546001600160a01b0319166001600160a01b0383161790556040517f5db758e995a17ec1ad84bdef7e8c3293a0bd6179bcce400dff5d4c3d87db726b90610ea9908390611ce2565b60405180910390a150565b610ebc6113e7565b6040516332fb62e760e21b81526001600160a01b037f0000000000000000000000000000000000000000000000000000000000000000169063cbed8b9c90610f109088908890889088908890600401611fe0565b600060405180830381600087803b158015610f2a57600080fd5b505af1158015610f3e573d6000803e3d6000fd5b505050505050505050565b61ffff86166000908152600560205260408082209051610f6c9088908890611e25565b90815260408051602092819003830190206001600160401b03871660009081529252902054905080610fec5760405162461bcd60e51b815260206004820152602360248201527f4e6f6e626c6f636b696e674c7a4170703a206e6f2073746f726564206d65737360448201526261676560e81b6064820152608401610639565b808383604051610ffd929190611e25565b60405180910390201461105c5760405162461bcd60e51b815260206004820152602160248201527f4e6f6e626c6f636b696e674c7a4170703a20696e76616c6964207061796c6f616044820152601960fa1b6064820152608401610639565b61ffff8716600090815260056020526040808220905161107f9089908990611e25565b90815260408051602092819003830181206001600160401b038916600090815290845282902093909355601f88018290048202830182019052868252611117918991899089908190840183828082843760009201919091525050604080516020601f8a018190048102820181019092528881528a9350915088908890819084018382808284376000920191909152506115eb92505050565b7fc264d91f3adc5588250e1551f547752ca0cfa8f6b530d243b9f9f4cab10ea8e5878787878560405161114e959493929190612019565b60405180910390a150505050505050565b6111676113e7565b61ffff83811660008181526002602090815260408083209487168084529482529182902085905581519283528201929092529081018290527f9d5c7c0b934da8fefa9c7760c98383778a12dfbfc0c3b3106518f43fb9508ac090606001610e49565b6111d16113e7565b61ffff831660009081526001602052604090206111ef828483612054565b507ffa41487ad5d6728f0b19276fa1eddc16558578f5109fc39d2dc33c3230470dab838383604051610e4993929190611e5e565b61122b6113e7565b6001600160a01b0381166112905760405162461bcd60e51b815260206004820152602660248201527f4f776e61626c653a206e6577206f776e657220697320746865207a65726f206160448201526564647265737360d01b6064820152608401610639565b6112998161160c565b50565b604051633d7b2f6f60e21b815261ffff808616600483015284166024820152306044820152606481018290526060907f00000000000000000000000000000000000000000000000000000000000000006001600160a01b03169063f5ecbdbc90608401600060405180830381865afa15801561131c573d6000803e3d6000fd5b505050506040513d6000823e601f3d908101601f19168201604052611344919081019061213d565b95945050505050565b60006a636f6e736f6c652e6c6f679050600080835160208501845afa505050565b6000806113d15a60966366ad5c8a60e01b898989896040516024016113969493929190612185565b60408051601f198184030181529190526020810180516001600160e01b03166001600160e01b03199093169290921790915230929190611769565b9150915081610bec57610bec86868686856117f3565b336113f0610caf565b6001600160a01b031614610c065760405162461bcd60e51b815260206004820181905260248201527f4f776e61626c653a2063616c6c6572206973206e6f7420746865206f776e65726044820152606401610639565b61ffff86166000908152600160205260408120805461146490611deb565b80601f016020809104026020016040519081016040528092919081815260200182805461149090611deb565b80156114dd5780601f106114b2576101008083540402835291602001916114dd565b820191906000526020600020905b8154815290600101906020018083116114c057829003601f168201915b50505050509050805160000361154e5760405162461bcd60e51b815260206004820152603060248201527f4c7a4170703a2064657374696e6174696f6e20636861696e206973206e6f742060448201526f61207472757374656420736f7572636560801b6064820152608401610639565b611559878751611890565b60405162c5803160e81b81526001600160a01b037f0000000000000000000000000000000000000000000000000000000000000000169063c58031009084906115b0908b9086908c908c908c908c906004016121c3565b6000604051808303818588803b1580156115c957600080fd5b505af11580156115dd573d6000803e3d6000fd5b505050505050505050505050565b808060200190518101906115ff919061213d565b6006906108789082611ed7565b600080546001600160a01b038381166001600160a01b0319831681178455604051919092169283917f8be0079c531659141344cd1fd0a4f28419497f9722a3daafe3b4186f6b6457e09190a35050565b60608161166a81601f61222a565b10156116a95760405162461bcd60e51b815260206004820152600e60248201526d736c6963655f6f766572666c6f7760901b6044820152606401610639565b6116b3828461222a565b845110156116f75760405162461bcd60e51b8152602060048201526011602482015270736c6963655f6f75744f66426f756e647360781b6044820152606401610639565b6060821580156117165760405191506000825260208201604052611760565b6040519150601f8416801560200281840101858101878315602002848b0101015b8183101561174f578051835260209283019201611737565b5050858452601f01601f1916604052505b50949350505050565b6000606060008060008661ffff166001600160401b0381111561178e5761178e611aae565b6040519080825280601f01601f1916602001820160405280156117b8576020820181803683370190505b50905060008087516020890160008d8df191503d9250868311156117da578692505b828152826000602083013e909890975095505050505050565b8180519060200120600560008761ffff1661ffff16815260200190815260200160002085604051611824919061223d565b9081526040805191829003602090810183206001600160401b0388166000908152915220919091557fe183f33de2837795525b4792ca4cd60535bd77c53b7e7030060bfcf5734d6b0c906118819087908790879087908790612259565b60405180910390a15050505050565b61ffff8216600090815260036020526040812054908190036118b157506127105b808211156119015760405162461bcd60e51b815260206004820181905260248201527f4c7a4170703a207061796c6f61642073697a6520697320746f6f206c617267656044820152606401610639565b505050565b610c066122b7565b803561ffff8116811461192057600080fd5b919050565b60008083601f84011261193757600080fd5b5081356001600160401b0381111561194e57600080fd5b60208301915083602082850101111561196657600080fd5b9250929050565b80356001600160401b038116811461192057600080fd5b6000806000806000806080878903121561199d57600080fd5b6119a68761190e565b955060208701356001600160401b03808211156119c257600080fd5b6119ce8a838b01611925565b90975095508591506119e260408a0161196d565b945060608901359150808211156119f857600080fd5b50611a0589828a01611925565b979a9699509497509295939492505050565b600060208284031215611a2957600080fd5b6109bc8261190e565b60008060408385031215611a4557600080fd5b611a4e8361190e565b946020939093013593505050565b600080600060408486031215611a7157600080fd5b611a7a8461190e565b925060208401356001600160401b03811115611a9557600080fd5b611aa186828701611925565b9497909650939450505050565b634e487b7160e01b600052604160045260246000fd5b604051601f8201601f191681016001600160401b0381118282101715611aec57611aec611aae565b604052919050565b60006001600160401b03821115611b0d57611b0d611aae565b50601f01601f191660200190565b6000611b2e611b2984611af4565b611ac4565b9050828152838383011115611b4257600080fd5b828260208301376000602084830101529392505050565b600080600060608486031215611b6e57600080fd5b611b778461190e565b925060208401356001600160401b03811115611b9257600080fd5b8401601f81018613611ba357600080fd5b611bb286823560208401611b1b565b925050611bc16040850161196d565b90509250925092565b80356001600160a01b038116811461192057600080fd5b600060208284031215611bf357600080fd5b6109bc82611bca565b600060208284031215611c0e57600080fd5b81356001600160401b03811115611c2457600080fd5b8201601f81018413611c3557600080fd5b611c4484823560208401611b1b565b949350505050565b60005b83811015611c67578181015183820152602001611c4f565b50506000910152565b60008151808452611c88816020860160208601611c4c565b601f01601f19169290920160200192915050565b6020815260006109bc6020830184611c70565b60008060408385031215611cc257600080fd5b611ccb8361190e565b9150611cd96020840161190e565b90509250929050565b6001600160a01b0391909116815260200190565b600080600080600060808688031215611d0e57600080fd5b611d178661190e565b9450611d256020870161190e565b93506040860135925060608601356001600160401b03811115611d4757600080fd5b611d5388828901611925565b969995985093965092949392505050565b600080600060608486031215611d7957600080fd5b611d828461190e565b9250611d906020850161190e565b9150604084013590509250925092565b60008060008060808587031215611db657600080fd5b611dbf8561190e565b9350611dcd6020860161190e565b9250611ddb60408601611bca565b9396929550929360600135925050565b600181811c90821680611dff57607f821691505b602082108103611e1f57634e487b7160e01b600052602260045260246000fd5b50919050565b8183823760009101908152919050565b81835281816020850137506000828201602090810191909152601f909101601f19169091010190565b61ffff84168152604060208201526000611344604083018486611e35565b601f82111561190157600081815260208120601f850160051c81016020861015611ea35750805b601f850160051c820191505b81811015610bec57828155600101611eaf565b600019600383901b1c191660019190911b1790565b81516001600160401b03811115611ef057611ef0611aae565b611f0481611efe8454611deb565b84611e7c565b602080601f831160018114611f335760008415611f215750858301515b611f2b8582611ec2565b865550610bec565b600085815260208120601f198616915b82811015611f6257888601518255948401946001909101908401611f43565b5085821015611f805787850151600019600388901b60f8161c191681555b5050505050600190811b01905550565b634e487b7160e01b600052601160045260246000fd5b81810381811115611fb957611fb9611f90565b92915050565b8284823760609190911b6001600160601b0319169101908152601401919050565b600061ffff80881683528087166020840152508460408301526080606083015261200e608083018486611e35565b979650505050505050565b61ffff86168152608060208201526000612037608083018688611e35565b6001600160401b0394909416604083015250606001529392505050565b6001600160401b0383111561206b5761206b611aae565b61207f836120798354611deb565b83611e7c565b6000601f8411600181146120ad576000851561209b5750838201355b6120a58682611ec2565b845550610878565b600083815260209020601f19861690835b828110156120de57868501358255602094850194600190920191016120be565b50868210156120fb5760001960f88860031b161c19848701351681555b505060018560011b0183555050505050565b600061211b611b2984611af4565b905082815283838301111561212f57600080fd5b6109bc836020830184611c4c565b60006020828403121561214f57600080fd5b81516001600160401b0381111561216557600080fd5b8201601f8101841361217657600080fd5b611c448482516020840161210d565b61ffff851681526080602082015260006121a26080830186611c70565b6001600160401b0385166040840152828103606084015261200e8185611c70565b61ffff8716815260c0602082015260006121e060c0830188611c70565b82810360408401526121f28188611c70565b6001600160a01b0387811660608601528616608085015283810360a0850152905061221d8185611c70565b9998505050505050505050565b80820180821115611fb957611fb9611f90565b6000825161224f818460208701611c4c565b9190910192915050565b61ffff8616815260a06020820152600061227660a0830187611c70565b6001600160401b038616604084015282810360608401526122978186611c70565b905082810360808401526122ab8185611c70565b98975050505050505050565b634e487b7160e01b600052605160045260246000fdfea2646970667358221220421c12235a879b914587847f7b683ea3a9c7f28c0600e143e491f4765505b8f264736f6c63430008140033","opcodes":"PUSH1 0xE0 PUSH1 0x40 MSTORE PUSH1 0x14 PUSH1 0xA0 SWAP1 DUP2 MSTORE PUSH32 0x4E6F7468696E6720726563656976656420796574000000000000000000000000 PUSH1 0xC0 MSTORE PUSH1 0x6 SWAP1 PUSH3 0x3E SWAP1 DUP3 PUSH3 0x258 JUMP JUMPDEST POP CALLVALUE DUP1 ISZERO PUSH3 0x4C JUMPI PUSH1 0x0 DUP1 REVERT JUMPDEST POP PUSH1 0x40 MLOAD PUSH3 0x26C4 CODESIZE SUB DUP1 PUSH3 0x26C4 DUP4 CODECOPY DUP2 ADD PUSH1 0x40 DUP2 SWAP1 MSTORE PUSH3 0x6F SWAP2 PUSH3 0x324 JUMP JUMPDEST DUP2 DUP1 PUSH3 0x7C CALLER PUSH3 0xDD JUMP JUMPDEST PUSH1 0x1 PUSH1 0x1 PUSH1 0xA0 SHL SUB SWAP1 DUP2 AND PUSH1 0x80 MSTORE DUP4 AND PUSH1 0x0 DUP2 DUP2 MSTORE PUSH1 0x7 PUSH1 0x20 MSTORE PUSH1 0x40 DUP2 KECCAK256 DUP1 SLOAD PUSH2 0xFFFF NOT AND PUSH2 0xFFFF DUP7 AND OR SWAP1 SSTORE PUSH1 0x8 DUP1 SLOAD PUSH1 0x1 PUSH1 0x1 PUSH1 0xA0 SHL SUB NOT AND SWAP1 SWAP3 OR SWAP1 SWAP2 SSTORE SWAP1 POP PUSH3 0xC7 CHAINID SWAP1 JUMP JUMPDEST SWAP1 POP PUSH3 0xD4 DUP2 PUSH3 0x12D JUMP JUMPDEST POP POP POP PUSH3 0x374 JUMP JUMPDEST PUSH1 0x0 DUP1 SLOAD PUSH1 0x1 PUSH1 0x1 PUSH1 0xA0 SHL SUB DUP4 DUP2 AND PUSH1 0x1 PUSH1 0x1 PUSH1 0xA0 SHL SUB NOT DUP4 AND DUP2 OR DUP5 SSTORE PUSH1 0x40 MLOAD SWAP2 SWAP1 SWAP3 AND SWAP3 DUP4 SWAP2 PUSH32 0x8BE0079C531659141344CD1FD0A4F28419497F9722A3DAAFE3B4186F6B6457E0 SWAP2 SWAP1 LOG3 POP POP JUMP JUMPDEST PUSH3 0x179 DUP2 PUSH1 0x40 MLOAD PUSH1 0x24 ADD PUSH3 0x145 SWAP2 DUP2 MSTORE PUSH1 0x20 ADD SWAP1 JUMP JUMPDEST PUSH1 0x40 DUP1 MLOAD PUSH1 0x1F NOT DUP2 DUP5 SUB ADD DUP2 MSTORE SWAP2 SWAP1 MSTORE PUSH1 0x20 DUP2 ADD DUP1 MLOAD PUSH1 0x1 PUSH1 0x1 PUSH1 0xE0 SHL SUB SWAP1 DUP2 AND PUSH4 0xF82C50F1 PUSH1 0xE0 SHL OR SWAP1 SWAP2 MSTORE PUSH3 0x17C AND JUMP JUMPDEST POP JUMP JUMPDEST PUSH3 0x179 DUP2 PUSH3 0x192 PUSH1 0x20 SHL PUSH3 0x134D OR PUSH1 0x20 SHR JUMP JUMPDEST PUSH1 0x0 PUSH11 0x636F6E736F6C652E6C6F67 SWAP1 POP PUSH1 0x0 DUP1 DUP4 MLOAD PUSH1 0x20 DUP6 ADD DUP5 GAS STATICCALL POP POP POP JUMP JUMPDEST PUSH4 0x4E487B71 PUSH1 0xE0 SHL PUSH1 0x0 MSTORE PUSH1 0x41 PUSH1 0x4 MSTORE PUSH1 0x24 PUSH1 0x0 REVERT JUMPDEST PUSH1 0x1 DUP2 DUP2 SHR SWAP1 DUP3 AND DUP1 PUSH3 0x1DE JUMPI PUSH1 0x7F DUP3 AND SWAP2 POP JUMPDEST PUSH1 0x20 DUP3 LT DUP2 SUB PUSH3 0x1FF JUMPI PUSH4 0x4E487B71 PUSH1 0xE0 SHL PUSH1 0x0 MSTORE PUSH1 0x22 PUSH1 0x4 MSTORE PUSH1 0x24 PUSH1 0x0 REVERT JUMPDEST POP SWAP2 SWAP1 POP JUMP JUMPDEST PUSH1 0x1F DUP3 GT ISZERO PUSH3 0x253 JUMPI PUSH1 0x0 DUP2 DUP2 MSTORE PUSH1 0x20 DUP2 KECCAK256 PUSH1 0x1F DUP6 ADD PUSH1 0x5 SHR DUP2 ADD PUSH1 0x20 DUP7 LT ISZERO PUSH3 0x22E JUMPI POP DUP1 JUMPDEST PUSH1 0x1F DUP6 ADD PUSH1 0x5 SHR DUP3 ADD SWAP2 POP JUMPDEST DUP2 DUP2 LT ISZERO PUSH3 0x24F JUMPI DUP3 DUP2 SSTORE PUSH1 0x1 ADD PUSH3 0x23A JUMP JUMPDEST POP POP POP JUMPDEST POP POP POP JUMP JUMPDEST DUP2 MLOAD PUSH1 0x1 PUSH1 0x1 PUSH1 0x40 SHL SUB DUP2 GT ISZERO PUSH3 0x274 JUMPI PUSH3 0x274 PUSH3 0x1B3 JUMP JUMPDEST PUSH3 0x28C DUP2 PUSH3 0x285 DUP5 SLOAD PUSH3 0x1C9 JUMP JUMPDEST DUP5 PUSH3 0x205 JUMP JUMPDEST PUSH1 0x20 DUP1 PUSH1 0x1F DUP4 GT PUSH1 0x1 DUP2 EQ PUSH3 0x2C4 JUMPI PUSH1 0x0 DUP5 ISZERO PUSH3 0x2AB JUMPI POP DUP6 DUP4 ADD MLOAD JUMPDEST PUSH1 0x0 NOT PUSH1 0x3 DUP7 SWAP1 SHL SHR NOT AND PUSH1 0x1 DUP6 SWAP1 SHL OR DUP6 SSTORE PUSH3 0x24F JUMP JUMPDEST PUSH1 0x0 DUP6 DUP2 MSTORE PUSH1 0x20 DUP2 KECCAK256 PUSH1 0x1F NOT DUP7 AND SWAP2 JUMPDEST DUP3 DUP2 LT ISZERO PUSH3 0x2F5 JUMPI DUP9 DUP7 ADD MLOAD DUP3 SSTORE SWAP5 DUP5 ADD SWAP5 PUSH1 0x1 SWAP1 SWAP2 ADD SWAP1 DUP5 ADD PUSH3 0x2D4 JUMP JUMPDEST POP DUP6 DUP3 LT ISZERO PUSH3 0x314 JUMPI DUP8 DUP6 ADD MLOAD PUSH1 0x0 NOT PUSH1 0x3 DUP9 SWAP1 SHL PUSH1 0xF8 AND SHR NOT AND DUP2 SSTORE JUMPDEST POP POP POP POP POP PUSH1 0x1 SWAP1 DUP2 SHL ADD SWAP1 SSTORE POP JUMP JUMPDEST PUSH1 0x0 DUP1 PUSH1 0x40 DUP4 DUP6 SUB SLT ISZERO PUSH3 0x338 JUMPI PUSH1 0x0 DUP1 REVERT JUMPDEST DUP3 MLOAD PUSH1 0x1 PUSH1 0x1 PUSH1 0xA0 SHL SUB DUP2 AND DUP2 EQ PUSH3 0x350 JUMPI PUSH1 0x0 DUP1 REVERT JUMPDEST PUSH1 0x20 DUP5 ADD MLOAD SWAP1 SWAP3 POP PUSH2 0xFFFF DUP2 AND DUP2 EQ PUSH3 0x369 JUMPI PUSH1 0x0 DUP1 REVERT JUMPDEST DUP1 SWAP2 POP POP SWAP3 POP SWAP3 SWAP1 POP JUMP JUMPDEST PUSH1 0x80 MLOAD PUSH2 0x2303 PUSH3 0x3C1 PUSH1 0x0 CODECOPY PUSH1 0x0 DUP2 DUP2 PUSH2 0x476 ADD MSTORE DUP2 DUP2 PUSH2 0x5C8 ADD MSTORE DUP2 DUP2 PUSH2 0x817 ADD MSTORE DUP2 DUP2 PUSH2 0x8BF ADD MSTORE DUP2 DUP2 PUSH2 0x9E2 ADD MSTORE DUP2 DUP2 PUSH2 0xED3 ADD MSTORE DUP2 DUP2 PUSH2 0x12CD ADD MSTORE PUSH2 0x156F ADD MSTORE PUSH2 0x2303 PUSH1 0x0 RETURN INVALID PUSH1 0x80 PUSH1 0x40 MSTORE PUSH1 0x4 CALLDATASIZE LT PUSH2 0x167 JUMPI PUSH1 0x0 CALLDATALOAD PUSH1 0xE0 SHR DUP1 PUSH3 0x1D3567 EQ PUSH2 0x16C JUMPI DUP1 PUSH4 0x7E0DB17 EQ PUSH2 0x18E JUMPI DUP1 PUSH4 0xDF37483 EQ PUSH2 0x1AE JUMPI DUP1 PUSH4 0x10DDB137 EQ PUSH2 0x1CE JUMPI DUP1 PUSH4 0x3D8B38F6 EQ PUSH2 0x1EE JUMPI DUP1 PUSH4 0x3F1F4FA4 EQ PUSH2 0x223 JUMPI DUP1 PUSH4 0x42D65A8D EQ PUSH2 0x25E JUMPI DUP1 PUSH4 0x564B81EF EQ PUSH2 0x27E JUMPI DUP1 PUSH4 0x5B8C41E6 EQ PUSH2 0x291 JUMPI DUP1 PUSH4 0x5CDF1649 EQ PUSH2 0x2E0 JUMPI DUP1 PUSH4 0x66792BA1 EQ PUSH2 0x300 JUMPI DUP1 PUSH4 0x66AD5C8A EQ PUSH2 0x313 JUMPI DUP1 PUSH4 0x715018A6 EQ PUSH2 0x333 JUMPI DUP1 PUSH4 0x73D4A13A EQ PUSH2 0x348 JUMPI DUP1 PUSH4 0x7533D788 EQ PUSH2 0x36A JUMPI DUP1 PUSH4 0x8CFD8F5C EQ PUSH2 0x38A JUMPI DUP1 PUSH4 0x8DA5CB5B EQ PUSH2 0x3C2 JUMPI DUP1 PUSH4 0x950C8A74 EQ PUSH2 0x3E4 JUMPI DUP1 PUSH4 0x9F38369A EQ PUSH2 0x404 JUMPI DUP1 PUSH4 0xA6C3D165 EQ PUSH2 0x424 JUMPI DUP1 PUSH4 0xB00B2D2A EQ PUSH2 0x444 JUMPI DUP1 PUSH4 0xB353AAA7 EQ PUSH2 0x464 JUMPI DUP1 PUSH4 0xB88AEA37 EQ PUSH2 0x498 JUMPI DUP1 PUSH4 0xBAF3292D EQ PUSH2 0x4DC JUMPI DUP1 PUSH4 0xC4461834 EQ PUSH2 0x4FC JUMPI DUP1 PUSH4 0xCBED8B9C EQ PUSH2 0x512 JUMPI DUP1 PUSH4 0xD1DEBA1F EQ PUSH2 0x532 JUMPI DUP1 PUSH4 0xDF2A5B3B EQ PUSH2 0x545 JUMPI DUP1 PUSH4 0xEB8D72B7 EQ PUSH2 0x565 JUMPI DUP1 PUSH4 0xF2FDE38B EQ PUSH2 0x585 JUMPI DUP1 PUSH4 0xF5ECBDBC EQ PUSH2 0x5A5 JUMPI JUMPDEST PUSH1 0x0 DUP1 REVERT JUMPDEST CALLVALUE DUP1 ISZERO PUSH2 0x178 JUMPI PUSH1 0x0 DUP1 REVERT JUMPDEST POP PUSH2 0x18C PUSH2 0x187 CALLDATASIZE PUSH1 0x4 PUSH2 0x1984 JUMP JUMPDEST PUSH2 0x5C5 JUMP JUMPDEST STOP JUMPDEST CALLVALUE DUP1 ISZERO PUSH2 0x19A JUMPI PUSH1 0x0 DUP1 REVERT JUMPDEST POP PUSH2 0x18C PUSH2 0x1A9 CALLDATASIZE PUSH1 0x4 PUSH2 0x1A17 JUMP JUMPDEST PUSH2 0x7F6 JUMP JUMPDEST CALLVALUE DUP1 ISZERO PUSH2 0x1BA JUMPI PUSH1 0x0 DUP1 REVERT JUMPDEST POP PUSH2 0x18C PUSH2 0x1C9 CALLDATASIZE PUSH1 0x4 PUSH2 0x1A32 JUMP JUMPDEST PUSH2 0x87F JUMP JUMPDEST CALLVALUE DUP1 ISZERO PUSH2 0x1DA JUMPI PUSH1 0x0 DUP1 REVERT JUMPDEST POP PUSH2 0x18C PUSH2 0x1E9 CALLDATASIZE PUSH1 0x4 PUSH2 0x1A17 JUMP JUMPDEST PUSH2 0x89E JUMP JUMPDEST CALLVALUE DUP1 ISZERO PUSH2 0x1FA JUMPI PUSH1 0x0 DUP1 REVERT JUMPDEST POP PUSH2 0x20E PUSH2 0x209 CALLDATASIZE PUSH1 0x4 PUSH2 0x1A5C JUMP JUMPDEST PUSH2 0x8F6 JUMP JUMPDEST PUSH1 0x40 MLOAD SWAP1 ISZERO ISZERO DUP2 MSTORE PUSH1 0x20 ADD JUMPDEST PUSH1 0x40 MLOAD DUP1 SWAP2 SUB SWAP1 RETURN JUMPDEST CALLVALUE DUP1 ISZERO PUSH2 0x22F JUMPI PUSH1 0x0 DUP1 REVERT JUMPDEST POP PUSH2 0x250 PUSH2 0x23E CALLDATASIZE PUSH1 0x4 PUSH2 0x1A17 JUMP JUMPDEST PUSH1 0x3 PUSH1 0x20 MSTORE PUSH1 0x0 SWAP1 DUP2 MSTORE PUSH1 0x40 SWAP1 KECCAK256 SLOAD DUP2 JUMP JUMPDEST PUSH1 0x40 MLOAD SWAP1 DUP2 MSTORE PUSH1 0x20 ADD PUSH2 0x21A JUMP JUMPDEST CALLVALUE DUP1 ISZERO PUSH2 0x26A JUMPI PUSH1 0x0 DUP1 REVERT JUMPDEST POP PUSH2 0x18C PUSH2 0x279 CALLDATASIZE PUSH1 0x4 PUSH2 0x1A5C JUMP JUMPDEST PUSH2 0x9C3 JUMP JUMPDEST CALLVALUE DUP1 ISZERO PUSH2 0x28A JUMPI PUSH1 0x0 DUP1 REVERT JUMPDEST POP CHAINID PUSH2 0x250 JUMP JUMPDEST CALLVALUE DUP1 ISZERO PUSH2 0x29D JUMPI PUSH1 0x0 DUP1 REVERT JUMPDEST POP PUSH2 0x250 PUSH2 0x2AC CALLDATASIZE PUSH1 0x4 PUSH2 0x1B59 JUMP JUMPDEST PUSH1 0x5 PUSH1 0x20 SWAP1 DUP2 MSTORE PUSH1 0x0 SWAP4 DUP5 MSTORE PUSH1 0x40 DUP1 DUP6 KECCAK256 DUP5 MLOAD DUP1 DUP7 ADD DUP5 ADD DUP1 MLOAD SWAP3 DUP2 MSTORE SWAP1 DUP5 ADD SWAP6 DUP5 ADD SWAP6 SWAP1 SWAP6 KECCAK256 SWAP5 MSTORE SWAP3 SWAP1 MSTORE DUP3 MSTORE SWAP1 KECCAK256 SLOAD DUP2 JUMP JUMPDEST CALLVALUE DUP1 ISZERO PUSH2 0x2EC JUMPI PUSH1 0x0 DUP1 REVERT JUMPDEST POP PUSH2 0x18C PUSH2 0x2FB CALLDATASIZE PUSH1 0x4 PUSH2 0x1BE1 JUMP JUMPDEST PUSH2 0xA49 JUMP JUMPDEST PUSH2 0x18C PUSH2 0x30E CALLDATASIZE PUSH1 0x4 PUSH2 0x1BFC JUMP JUMPDEST PUSH2 0xABB JUMP JUMPDEST CALLVALUE DUP1 ISZERO PUSH2 0x31F JUMPI PUSH1 0x0 DUP1 REVERT JUMPDEST POP PUSH2 0x18C PUSH2 0x32E CALLDATASIZE PUSH1 0x4 PUSH2 0x1984 JUMP JUMPDEST PUSH2 0xB18 JUMP JUMPDEST CALLVALUE DUP1 ISZERO PUSH2 0x33F JUMPI PUSH1 0x0 DUP1 REVERT JUMPDEST POP PUSH2 0x18C PUSH2 0xBF4 JUMP JUMPDEST CALLVALUE DUP1 ISZERO PUSH2 0x354 JUMPI PUSH1 0x0 DUP1 REVERT JUMPDEST POP PUSH2 0x35D PUSH2 0xC08 JUMP JUMPDEST PUSH1 0x40 MLOAD PUSH2 0x21A SWAP2 SWAP1 PUSH2 0x1C9C JUMP JUMPDEST CALLVALUE DUP1 ISZERO PUSH2 0x376 JUMPI PUSH1 0x0 DUP1 REVERT JUMPDEST POP PUSH2 0x35D PUSH2 0x385 CALLDATASIZE PUSH1 0x4 PUSH2 0x1A17 JUMP JUMPDEST PUSH2 0xC96 JUMP JUMPDEST CALLVALUE DUP1 ISZERO PUSH2 0x396 JUMPI PUSH1 0x0 DUP1 REVERT JUMPDEST POP PUSH2 0x250 PUSH2 0x3A5 CALLDATASIZE PUSH1 0x4 PUSH2 0x1CAF JUMP JUMPDEST PUSH1 0x2 PUSH1 0x20 SWAP1 DUP2 MSTORE PUSH1 0x0 SWAP3 DUP4 MSTORE PUSH1 0x40 DUP1 DUP5 KECCAK256 SWAP1 SWAP2 MSTORE SWAP1 DUP3 MSTORE SWAP1 KECCAK256 SLOAD DUP2 JUMP JUMPDEST CALLVALUE DUP1 ISZERO PUSH2 0x3CE JUMPI PUSH1 0x0 DUP1 REVERT JUMPDEST POP PUSH2 0x3D7 PUSH2 0xCAF JUMP JUMPDEST PUSH1 0x40 MLOAD PUSH2 0x21A SWAP2 SWAP1 PUSH2 0x1CE2 JUMP JUMPDEST CALLVALUE DUP1 ISZERO PUSH2 0x3F0 JUMPI PUSH1 0x0 DUP1 REVERT JUMPDEST POP PUSH1 0x4 SLOAD PUSH2 0x3D7 SWAP1 PUSH1 0x1 PUSH1 0x1 PUSH1 0xA0 SHL SUB AND DUP2 JUMP JUMPDEST CALLVALUE DUP1 ISZERO PUSH2 0x410 JUMPI PUSH1 0x0 DUP1 REVERT JUMPDEST POP PUSH2 0x35D PUSH2 0x41F CALLDATASIZE PUSH1 0x4 PUSH2 0x1A17 JUMP JUMPDEST PUSH2 0xCBE JUMP JUMPDEST CALLVALUE DUP1 ISZERO PUSH2 0x430 JUMPI PUSH1 0x0 DUP1 REVERT JUMPDEST POP PUSH2 0x18C PUSH2 0x43F CALLDATASIZE PUSH1 0x4 PUSH2 0x1A5C JUMP JUMPDEST PUSH2 0xDCD JUMP JUMPDEST CALLVALUE DUP1 ISZERO PUSH2 0x450 JUMPI PUSH1 0x0 DUP1 REVERT JUMPDEST POP PUSH1 0x8 SLOAD PUSH2 0x3D7 SWAP1 PUSH1 0x1 PUSH1 0x1 PUSH1 0xA0 SHL SUB AND DUP2 JUMP JUMPDEST CALLVALUE DUP1 ISZERO PUSH2 0x470 JUMPI PUSH1 0x0 DUP1 REVERT JUMPDEST POP PUSH2 0x3D7 PUSH32 0x0 DUP2 JUMP JUMPDEST CALLVALUE DUP1 ISZERO PUSH2 0x4A4 JUMPI PUSH1 0x0 DUP1 REVERT JUMPDEST POP PUSH2 0x4C9 PUSH2 0x4B3 CALLDATASIZE PUSH1 0x4 PUSH2 0x1BE1 JUMP JUMPDEST PUSH1 0x7 PUSH1 0x20 MSTORE PUSH1 0x0 SWAP1 DUP2 MSTORE PUSH1 0x40 SWAP1 KECCAK256 SLOAD PUSH2 0xFFFF AND DUP2 JUMP JUMPDEST PUSH1 0x40 MLOAD PUSH2 0xFFFF SWAP1 SWAP2 AND DUP2 MSTORE PUSH1 0x20 ADD PUSH2 0x21A JUMP JUMPDEST CALLVALUE DUP1 ISZERO PUSH2 0x4E8 JUMPI PUSH1 0x0 DUP1 REVERT JUMPDEST POP PUSH2 0x18C PUSH2 0x4F7 CALLDATASIZE PUSH1 0x4 PUSH2 0x1BE1 JUMP JUMPDEST PUSH2 0xE56 JUMP JUMPDEST CALLVALUE DUP1 ISZERO PUSH2 0x508 JUMPI PUSH1 0x0 DUP1 REVERT JUMPDEST POP PUSH2 0x250 PUSH2 0x2710 DUP2 JUMP JUMPDEST CALLVALUE DUP1 ISZERO PUSH2 0x51E JUMPI PUSH1 0x0 DUP1 REVERT JUMPDEST POP PUSH2 0x18C PUSH2 0x52D CALLDATASIZE PUSH1 0x4 PUSH2 0x1CF6 JUMP JUMPDEST PUSH2 0xEB4 JUMP JUMPDEST PUSH2 0x18C PUSH2 0x540 CALLDATASIZE PUSH1 0x4 PUSH2 0x1984 JUMP JUMPDEST PUSH2 0xF49 JUMP JUMPDEST CALLVALUE DUP1 ISZERO PUSH2 0x551 JUMPI PUSH1 0x0 DUP1 REVERT JUMPDEST POP PUSH2 0x18C PUSH2 0x560 CALLDATASIZE PUSH1 0x4 PUSH2 0x1D64 JUMP JUMPDEST PUSH2 0x115F JUMP JUMPDEST CALLVALUE DUP1 ISZERO PUSH2 0x571 JUMPI PUSH1 0x0 DUP1 REVERT JUMPDEST POP PUSH2 0x18C PUSH2 0x580 CALLDATASIZE PUSH1 0x4 PUSH2 0x1A5C JUMP JUMPDEST PUSH2 0x11C9 JUMP JUMPDEST CALLVALUE DUP1 ISZERO PUSH2 0x591 JUMPI PUSH1 0x0 DUP1 REVERT JUMPDEST POP PUSH2 0x18C PUSH2 0x5A0 CALLDATASIZE PUSH1 0x4 PUSH2 0x1BE1 JUMP JUMPDEST PUSH2 0x1223 JUMP JUMPDEST CALLVALUE DUP1 ISZERO PUSH2 0x5B1 JUMPI PUSH1 0x0 DUP1 REVERT JUMPDEST POP PUSH2 0x35D PUSH2 0x5C0 CALLDATASIZE PUSH1 0x4 PUSH2 0x1DA0 JUMP JUMPDEST PUSH2 0x129C JUMP JUMPDEST CALLER PUSH32 0x0 PUSH1 0x1 PUSH1 0x1 PUSH1 0xA0 SHL SUB AND EQ PUSH2 0x642 JUMPI PUSH1 0x40 MLOAD PUSH3 0x461BCD PUSH1 0xE5 SHL DUP2 MSTORE PUSH1 0x20 PUSH1 0x4 DUP3 ADD MSTORE PUSH1 0x1E PUSH1 0x24 DUP3 ADD MSTORE PUSH32 0x4C7A4170703A20696E76616C696420656E64706F696E742063616C6C65720000 PUSH1 0x44 DUP3 ADD MSTORE PUSH1 0x64 ADD JUMPDEST PUSH1 0x40 MLOAD DUP1 SWAP2 SUB SWAP1 REVERT JUMPDEST PUSH2 0xFFFF DUP7 AND PUSH1 0x0 SWAP1 DUP2 MSTORE PUSH1 0x1 PUSH1 0x20 MSTORE PUSH1 0x40 DUP2 KECCAK256 DUP1 SLOAD PUSH2 0x660 SWAP1 PUSH2 0x1DEB JUMP JUMPDEST DUP1 PUSH1 0x1F ADD PUSH1 0x20 DUP1 SWAP2 DIV MUL PUSH1 0x20 ADD PUSH1 0x40 MLOAD SWAP1 DUP2 ADD PUSH1 0x40 MSTORE DUP1 SWAP3 SWAP2 SWAP1 DUP2 DUP2 MSTORE PUSH1 0x20 ADD DUP3 DUP1 SLOAD PUSH2 0x68C SWAP1 PUSH2 0x1DEB JUMP JUMPDEST DUP1 ISZERO PUSH2 0x6D9 JUMPI DUP1 PUSH1 0x1F LT PUSH2 0x6AE JUMPI PUSH2 0x100 DUP1 DUP4 SLOAD DIV MUL DUP4 MSTORE SWAP2 PUSH1 0x20 ADD SWAP2 PUSH2 0x6D9 JUMP JUMPDEST DUP3 ADD SWAP2 SWAP1 PUSH1 0x0 MSTORE PUSH1 0x20 PUSH1 0x0 KECCAK256 SWAP1 JUMPDEST DUP2 SLOAD DUP2 MSTORE SWAP1 PUSH1 0x1 ADD SWAP1 PUSH1 0x20 ADD DUP1 DUP4 GT PUSH2 0x6BC JUMPI DUP3 SWAP1 SUB PUSH1 0x1F AND DUP3 ADD SWAP2 JUMPDEST POP POP POP POP POP SWAP1 POP DUP1 MLOAD DUP7 DUP7 SWAP1 POP EQ DUP1 ISZERO PUSH2 0x6F4 JUMPI POP PUSH1 0x0 DUP2 MLOAD GT JUMPDEST DUP1 ISZERO PUSH2 0x71C JUMPI POP DUP1 MLOAD PUSH1 0x20 DUP3 ADD KECCAK256 PUSH1 0x40 MLOAD PUSH2 0x712 SWAP1 DUP9 SWAP1 DUP9 SWAP1 PUSH2 0x1E25 JUMP JUMPDEST PUSH1 0x40 MLOAD DUP1 SWAP2 SUB SWAP1 KECCAK256 EQ JUMPDEST PUSH2 0x777 JUMPI PUSH1 0x40 MLOAD PUSH3 0x461BCD PUSH1 0xE5 SHL DUP2 MSTORE PUSH1 0x20 PUSH1 0x4 DUP3 ADD MSTORE PUSH1 0x26 PUSH1 0x24 DUP3 ADD MSTORE PUSH32 0x4C7A4170703A20696E76616C696420736F757263652073656E64696E6720636F PUSH1 0x44 DUP3 ADD MSTORE PUSH6 0x1B9D1C9858DD PUSH1 0xD2 SHL PUSH1 0x64 DUP3 ADD MSTORE PUSH1 0x84 ADD PUSH2 0x639 JUMP JUMPDEST PUSH2 0x7ED DUP8 DUP8 DUP8 DUP1 DUP1 PUSH1 0x1F ADD PUSH1 0x20 DUP1 SWAP2 DIV MUL PUSH1 0x20 ADD PUSH1 0x40 MLOAD SWAP1 DUP2 ADD PUSH1 0x40 MSTORE DUP1 SWAP4 SWAP3 SWAP2 SWAP1 DUP2 DUP2 MSTORE PUSH1 0x20 ADD DUP4 DUP4 DUP1 DUP3 DUP5 CALLDATACOPY PUSH1 0x0 SWAP3 ADD SWAP2 SWAP1 SWAP2 MSTORE POP POP PUSH1 0x40 DUP1 MLOAD PUSH1 0x20 PUSH1 0x1F DUP11 ADD DUP2 SWAP1 DIV DUP2 MUL DUP3 ADD DUP2 ADD SWAP1 SWAP3 MSTORE DUP9 DUP2 MSTORE DUP11 SWAP4 POP SWAP2 POP DUP9 SWAP1 DUP9 SWAP1 DUP2 SWAP1 DUP5 ADD DUP4 DUP3 DUP1 DUP3 DUP5 CALLDATACOPY PUSH1 0x0 SWAP3 ADD SWAP2 SWAP1 SWAP2 MSTORE POP PUSH2 0x136E SWAP3 POP POP POP JUMP JUMPDEST POP POP POP POP POP POP POP JUMP JUMPDEST PUSH2 0x7FE PUSH2 0x13E7 JUMP JUMPDEST PUSH1 0x40 MLOAD PUSH4 0x7E0DB17 PUSH1 0xE0 SHL DUP2 MSTORE PUSH2 0xFFFF DUP3 AND PUSH1 0x4 DUP3 ADD MSTORE PUSH32 0x0 PUSH1 0x1 PUSH1 0x1 PUSH1 0xA0 SHL SUB AND SWAP1 PUSH4 0x7E0DB17 SWAP1 PUSH1 0x24 ADD JUMPDEST PUSH1 0x0 PUSH1 0x40 MLOAD DUP1 DUP4 SUB DUP2 PUSH1 0x0 DUP8 DUP1 EXTCODESIZE ISZERO DUP1 ISZERO PUSH2 0x864 JUMPI PUSH1 0x0 DUP1 REVERT JUMPDEST POP GAS CALL ISZERO DUP1 ISZERO PUSH2 0x878 JUMPI RETURNDATASIZE PUSH1 0x0 DUP1 RETURNDATACOPY RETURNDATASIZE PUSH1 0x0 REVERT JUMPDEST POP POP POP POP POP JUMP JUMPDEST PUSH2 0x887 PUSH2 0x13E7 JUMP JUMPDEST PUSH2 0xFFFF SWAP1 SWAP2 AND PUSH1 0x0 SWAP1 DUP2 MSTORE PUSH1 0x3 PUSH1 0x20 MSTORE PUSH1 0x40 SWAP1 KECCAK256 SSTORE JUMP JUMPDEST PUSH2 0x8A6 PUSH2 0x13E7 JUMP JUMPDEST PUSH1 0x40 MLOAD PUSH4 0x10DDB137 PUSH1 0xE0 SHL DUP2 MSTORE PUSH2 0xFFFF DUP3 AND PUSH1 0x4 DUP3 ADD MSTORE PUSH32 0x0 PUSH1 0x1 PUSH1 0x1 PUSH1 0xA0 SHL SUB AND SWAP1 PUSH4 0x10DDB137 SWAP1 PUSH1 0x24 ADD PUSH2 0x84A JUMP JUMPDEST PUSH2 0xFFFF DUP4 AND PUSH1 0x0 SWAP1 DUP2 MSTORE PUSH1 0x1 PUSH1 0x20 MSTORE PUSH1 0x40 DUP2 KECCAK256 DUP1 SLOAD DUP3 SWAP2 SWAP1 PUSH2 0x917 SWAP1 PUSH2 0x1DEB JUMP JUMPDEST DUP1 PUSH1 0x1F ADD PUSH1 0x20 DUP1 SWAP2 DIV MUL PUSH1 0x20 ADD PUSH1 0x40 MLOAD SWAP1 DUP2 ADD PUSH1 0x40 MSTORE DUP1 SWAP3 SWAP2 SWAP1 DUP2 DUP2 MSTORE PUSH1 0x20 ADD DUP3 DUP1 SLOAD PUSH2 0x943 SWAP1 PUSH2 0x1DEB JUMP JUMPDEST DUP1 ISZERO PUSH2 0x990 JUMPI DUP1 PUSH1 0x1F LT PUSH2 0x965 JUMPI PUSH2 0x100 DUP1 DUP4 SLOAD DIV MUL DUP4 MSTORE SWAP2 PUSH1 0x20 ADD SWAP2 PUSH2 0x990 JUMP JUMPDEST DUP3 ADD SWAP2 SWAP1 PUSH1 0x0 MSTORE PUSH1 0x20 PUSH1 0x0 KECCAK256 SWAP1 JUMPDEST DUP2 SLOAD DUP2 MSTORE SWAP1 PUSH1 0x1 ADD SWAP1 PUSH1 0x20 ADD DUP1 DUP4 GT PUSH2 0x973 JUMPI DUP3 SWAP1 SUB PUSH1 0x1F AND DUP3 ADD SWAP2 JUMPDEST POP POP POP POP POP SWAP1 POP DUP4 DUP4 PUSH1 0x40 MLOAD PUSH2 0x9A7 SWAP3 SWAP2 SWAP1 PUSH2 0x1E25 JUMP JUMPDEST PUSH1 0x40 MLOAD DUP1 SWAP2 SUB SWAP1 KECCAK256 DUP2 DUP1 MLOAD SWAP1 PUSH1 0x20 ADD KECCAK256 EQ SWAP2 POP POP JUMPDEST SWAP4 SWAP3 POP POP POP JUMP JUMPDEST PUSH2 0x9CB PUSH2 0x13E7 JUMP JUMPDEST PUSH1 0x40 MLOAD PUSH4 0x42D65A8D PUSH1 0xE0 SHL DUP2 MSTORE PUSH1 0x1 PUSH1 0x1 PUSH1 0xA0 SHL SUB PUSH32 0x0 AND SWAP1 PUSH4 0x42D65A8D SWAP1 PUSH2 0xA1B SWAP1 DUP7 SWAP1 DUP7 SWAP1 DUP7 SWAP1 PUSH1 0x4 ADD PUSH2 0x1E5E JUMP JUMPDEST PUSH1 0x0 PUSH1 0x40 MLOAD DUP1 DUP4 SUB DUP2 PUSH1 0x0 DUP8 DUP1 EXTCODESIZE ISZERO DUP1 ISZERO PUSH2 0xA35 JUMPI PUSH1 0x0 DUP1 REVERT JUMPDEST POP GAS CALL ISZERO DUP1 ISZERO PUSH2 0x7ED JUMPI RETURNDATASIZE PUSH1 0x0 DUP1 RETURNDATACOPY RETURNDATASIZE PUSH1 0x0 REVERT JUMPDEST PUSH2 0xA51 PUSH2 0x13E7 JUMP JUMPDEST PUSH1 0x40 MLOAD PUSH1 0x1 PUSH1 0x1 PUSH1 0x60 SHL SUB NOT PUSH1 0x60 DUP4 DUP2 SHL DUP3 AND PUSH1 0x20 DUP5 ADD MSTORE ADDRESS SWAP1 SHL AND PUSH1 0x34 DUP3 ADD MSTORE PUSH1 0x48 ADD PUSH1 0x40 DUP1 MLOAD PUSH1 0x1F NOT DUP2 DUP5 SUB ADD DUP2 MSTORE SWAP2 DUP2 MSTORE PUSH1 0x8 SLOAD PUSH1 0x1 PUSH1 0x1 PUSH1 0xA0 SHL SUB AND PUSH1 0x0 SWAP1 DUP2 MSTORE PUSH1 0x7 PUSH1 0x20 SWAP1 DUP2 MSTORE DUP3 DUP3 KECCAK256 SLOAD PUSH2 0xFFFF AND DUP3 MSTORE PUSH1 0x1 SWAP1 MSTORE KECCAK256 SWAP1 PUSH2 0xAB7 SWAP1 DUP3 PUSH2 0x1ED7 JUMP JUMPDEST POP POP JUMP JUMPDEST PUSH1 0x0 DUP2 PUSH1 0x40 MLOAD PUSH1 0x20 ADD PUSH2 0xACE SWAP2 SWAP1 PUSH2 0x1C9C JUMP JUMPDEST PUSH1 0x40 DUP1 MLOAD PUSH1 0x1F NOT DUP2 DUP5 SUB ADD DUP2 MSTORE PUSH1 0x8 SLOAD PUSH1 0x1 PUSH1 0x1 PUSH1 0xA0 SHL SUB AND PUSH1 0x0 SWAP1 DUP2 MSTORE PUSH1 0x7 PUSH1 0x20 SWAP1 DUP2 MSTORE DUP4 DUP3 KECCAK256 SLOAD SWAP1 DUP6 ADD SWAP1 SWAP4 MSTORE DUP1 DUP5 MSTORE SWAP1 SWAP4 POP PUSH2 0xAB7 SWAP3 PUSH2 0xFFFF SWAP1 SWAP3 AND SWAP2 DUP5 SWAP2 CALLER SWAP2 CALLVALUE PUSH2 0x1446 JUMP JUMPDEST CALLER ADDRESS EQ PUSH2 0xB76 JUMPI PUSH1 0x40 MLOAD PUSH3 0x461BCD PUSH1 0xE5 SHL DUP2 MSTORE PUSH1 0x20 PUSH1 0x4 DUP3 ADD MSTORE PUSH1 0x26 PUSH1 0x24 DUP3 ADD MSTORE PUSH32 0x4E6F6E626C6F636B696E674C7A4170703A2063616C6C6572206D757374206265 PUSH1 0x44 DUP3 ADD MSTORE PUSH6 0x204C7A41707 PUSH1 0xD4 SHL PUSH1 0x64 DUP3 ADD MSTORE PUSH1 0x84 ADD PUSH2 0x639 JUMP JUMPDEST PUSH2 0xBEC DUP7 DUP7 DUP7 DUP1 DUP1 PUSH1 0x1F ADD PUSH1 0x20 DUP1 SWAP2 DIV MUL PUSH1 0x20 ADD PUSH1 0x40 MLOAD SWAP1 DUP2 ADD PUSH1 0x40 MSTORE DUP1 SWAP4 SWAP3 SWAP2 SWAP1 DUP2 DUP2 MSTORE PUSH1 0x20 ADD DUP4 DUP4 DUP1 DUP3 DUP5 CALLDATACOPY PUSH1 0x0 SWAP3 ADD SWAP2 SWAP1 SWAP2 MSTORE POP POP PUSH1 0x40 DUP1 MLOAD PUSH1 0x20 PUSH1 0x1F DUP10 ADD DUP2 SWAP1 DIV DUP2 MUL DUP3 ADD DUP2 ADD SWAP1 SWAP3 MSTORE DUP8 DUP2 MSTORE DUP10 SWAP4 POP SWAP2 POP DUP8 SWAP1 DUP8 SWAP1 DUP2 SWAP1 DUP5 ADD DUP4 DUP3 DUP1 DUP3 DUP5 CALLDATACOPY PUSH1 0x0 SWAP3 ADD SWAP2 SWAP1 SWAP2 MSTORE POP PUSH2 0x15EB SWAP3 POP POP POP JUMP JUMPDEST POP POP POP POP POP POP JUMP JUMPDEST PUSH2 0xBFC PUSH2 0x13E7 JUMP JUMPDEST PUSH2 0xC06 PUSH1 0x0 PUSH2 0x160C JUMP JUMPDEST JUMP JUMPDEST PUSH1 0x6 DUP1 SLOAD PUSH2 0xC15 SWAP1 PUSH2 0x1DEB JUMP JUMPDEST DUP1 PUSH1 0x1F ADD PUSH1 0x20 DUP1 SWAP2 DIV MUL PUSH1 0x20 ADD PUSH1 0x40 MLOAD SWAP1 DUP2 ADD PUSH1 0x40 MSTORE DUP1 SWAP3 SWAP2 SWAP1 DUP2 DUP2 MSTORE PUSH1 0x20 ADD DUP3 DUP1 SLOAD PUSH2 0xC41 SWAP1 PUSH2 0x1DEB JUMP JUMPDEST DUP1 ISZERO PUSH2 0xC8E JUMPI DUP1 PUSH1 0x1F LT PUSH2 0xC63 JUMPI PUSH2 0x100 DUP1 DUP4 SLOAD DIV MUL DUP4 MSTORE SWAP2 PUSH1 0x20 ADD SWAP2 PUSH2 0xC8E JUMP JUMPDEST DUP3 ADD SWAP2 SWAP1 PUSH1 0x0 MSTORE PUSH1 0x20 PUSH1 0x0 KECCAK256 SWAP1 JUMPDEST DUP2 SLOAD DUP2 MSTORE SWAP1 PUSH1 0x1 ADD SWAP1 PUSH1 0x20 ADD DUP1 DUP4 GT PUSH2 0xC71 JUMPI DUP3 SWAP1 SUB PUSH1 0x1F AND DUP3 ADD SWAP2 JUMPDEST POP POP POP POP POP DUP2 JUMP JUMPDEST PUSH1 0x1 PUSH1 0x20 MSTORE PUSH1 0x0 SWAP1 DUP2 MSTORE PUSH1 0x40 SWAP1 KECCAK256 DUP1 SLOAD PUSH2 0xC15 SWAP1 PUSH2 0x1DEB JUMP JUMPDEST PUSH1 0x0 SLOAD PUSH1 0x1 PUSH1 0x1 PUSH1 0xA0 SHL SUB AND SWAP1 JUMP JUMPDEST PUSH2 0xFFFF DUP2 AND PUSH1 0x0 SWAP1 DUP2 MSTORE PUSH1 0x1 PUSH1 0x20 MSTORE PUSH1 0x40 DUP2 KECCAK256 DUP1 SLOAD PUSH1 0x60 SWAP3 SWAP2 SWAP1 PUSH2 0xCE1 SWAP1 PUSH2 0x1DEB JUMP JUMPDEST DUP1 PUSH1 0x1F ADD PUSH1 0x20 DUP1 SWAP2 DIV MUL PUSH1 0x20 ADD PUSH1 0x40 MLOAD SWAP1 DUP2 ADD PUSH1 0x40 MSTORE DUP1 SWAP3 SWAP2 SWAP1 DUP2 DUP2 MSTORE PUSH1 0x20 ADD DUP3 DUP1 SLOAD PUSH2 0xD0D SWAP1 PUSH2 0x1DEB JUMP JUMPDEST DUP1 ISZERO PUSH2 0xD5A JUMPI DUP1 PUSH1 0x1F LT PUSH2 0xD2F JUMPI PUSH2 0x100 DUP1 DUP4 SLOAD DIV MUL DUP4 MSTORE SWAP2 PUSH1 0x20 ADD SWAP2 PUSH2 0xD5A JUMP JUMPDEST DUP3 ADD SWAP2 SWAP1 PUSH1 0x0 MSTORE PUSH1 0x20 PUSH1 0x0 KECCAK256 SWAP1 JUMPDEST DUP2 SLOAD DUP2 MSTORE SWAP1 PUSH1 0x1 ADD SWAP1 PUSH1 0x20 ADD DUP1 DUP4 GT PUSH2 0xD3D JUMPI DUP3 SWAP1 SUB PUSH1 0x1F AND DUP3 ADD SWAP2 JUMPDEST POP POP POP POP POP SWAP1 POP DUP1 MLOAD PUSH1 0x0 SUB PUSH2 0xDB2 JUMPI PUSH1 0x40 MLOAD PUSH3 0x461BCD PUSH1 0xE5 SHL DUP2 MSTORE PUSH1 0x20 PUSH1 0x4 DUP3 ADD MSTORE PUSH1 0x1D PUSH1 0x24 DUP3 ADD MSTORE PUSH32 0x4C7A4170703A206E6F20747275737465642070617468207265636F7264000000 PUSH1 0x44 DUP3 ADD MSTORE PUSH1 0x64 ADD PUSH2 0x639 JUMP JUMPDEST PUSH2 0x9BC PUSH1 0x0 PUSH1 0x14 DUP4 MLOAD PUSH2 0xDC5 SWAP2 SWAP1 PUSH2 0x1FA6 JUMP JUMPDEST DUP4 SWAP2 SWAP1 PUSH2 0x165C JUMP JUMPDEST PUSH2 0xDD5 PUSH2 0x13E7 JUMP JUMPDEST DUP2 DUP2 ADDRESS PUSH1 0x40 MLOAD PUSH1 0x20 ADD PUSH2 0xDEA SWAP4 SWAP3 SWAP2 SWAP1 PUSH2 0x1FBF JUMP JUMPDEST PUSH1 0x40 DUP1 MLOAD PUSH1 0x1F NOT DUP2 DUP5 SUB ADD DUP2 MSTORE SWAP2 DUP2 MSTORE PUSH2 0xFFFF DUP6 AND PUSH1 0x0 SWAP1 DUP2 MSTORE PUSH1 0x1 PUSH1 0x20 MSTORE KECCAK256 SWAP1 PUSH2 0xE15 SWAP1 DUP3 PUSH2 0x1ED7 JUMP JUMPDEST POP PUSH32 0x8C0400CFE2D1199B1A725C78960BCC2A344D869B80590D0F2BD005DB15A572CE DUP4 DUP4 DUP4 PUSH1 0x40 MLOAD PUSH2 0xE49 SWAP4 SWAP3 SWAP2 SWAP1 PUSH2 0x1E5E JUMP JUMPDEST PUSH1 0x40 MLOAD DUP1 SWAP2 SUB SWAP1 LOG1 POP POP POP JUMP JUMPDEST PUSH2 0xE5E PUSH2 0x13E7 JUMP JUMPDEST PUSH1 0x4 DUP1 SLOAD PUSH1 0x1 PUSH1 0x1 PUSH1 0xA0 SHL SUB NOT AND PUSH1 0x1 PUSH1 0x1 PUSH1 0xA0 SHL SUB DUP4 AND OR SWAP1 SSTORE PUSH1 0x40 MLOAD PUSH32 0x5DB758E995A17EC1AD84BDEF7E8C3293A0BD6179BCCE400DFF5D4C3D87DB726B SWAP1 PUSH2 0xEA9 SWAP1 DUP4 SWAP1 PUSH2 0x1CE2 JUMP JUMPDEST PUSH1 0x40 MLOAD DUP1 SWAP2 SUB SWAP1 LOG1 POP JUMP JUMPDEST PUSH2 0xEBC PUSH2 0x13E7 JUMP JUMPDEST PUSH1 0x40 MLOAD PUSH4 0x32FB62E7 PUSH1 0xE2 SHL DUP2 MSTORE PUSH1 0x1 PUSH1 0x1 PUSH1 0xA0 SHL SUB PUSH32 0x0 AND SWAP1 PUSH4 0xCBED8B9C SWAP1 PUSH2 0xF10 SWAP1 DUP9 SWAP1 DUP9 SWAP1 DUP9 SWAP1 DUP9 SWAP1 DUP9 SWAP1 PUSH1 0x4 ADD PUSH2 0x1FE0 JUMP JUMPDEST PUSH1 0x0 PUSH1 0x40 MLOAD DUP1 DUP4 SUB DUP2 PUSH1 0x0 DUP8 DUP1 EXTCODESIZE ISZERO DUP1 ISZERO PUSH2 0xF2A JUMPI PUSH1 0x0 DUP1 REVERT JUMPDEST POP GAS CALL ISZERO DUP1 ISZERO PUSH2 0xF3E JUMPI RETURNDATASIZE PUSH1 0x0 DUP1 RETURNDATACOPY RETURNDATASIZE PUSH1 0x0 REVERT JUMPDEST POP POP POP POP POP POP POP POP POP JUMP JUMPDEST PUSH2 0xFFFF DUP7 AND PUSH1 0x0 SWAP1 DUP2 MSTORE PUSH1 0x5 PUSH1 0x20 MSTORE PUSH1 0x40 DUP1 DUP3 KECCAK256 SWAP1 MLOAD PUSH2 0xF6C SWAP1 DUP9 SWAP1 DUP9 SWAP1 PUSH2 0x1E25 JUMP JUMPDEST SWAP1 DUP2 MSTORE PUSH1 0x40 DUP1 MLOAD PUSH1 0x20 SWAP3 DUP2 SWAP1 SUB DUP4 ADD SWAP1 KECCAK256 PUSH1 0x1 PUSH1 0x1 PUSH1 0x40 SHL SUB DUP8 AND PUSH1 0x0 SWAP1 DUP2 MSTORE SWAP3 MSTORE SWAP1 KECCAK256 SLOAD SWAP1 POP DUP1 PUSH2 0xFEC JUMPI PUSH1 0x40 MLOAD PUSH3 0x461BCD PUSH1 0xE5 SHL DUP2 MSTORE PUSH1 0x20 PUSH1 0x4 DUP3 ADD MSTORE PUSH1 0x23 PUSH1 0x24 DUP3 ADD MSTORE PUSH32 0x4E6F6E626C6F636B696E674C7A4170703A206E6F2073746F726564206D657373 PUSH1 0x44 DUP3 ADD MSTORE PUSH3 0x616765 PUSH1 0xE8 SHL PUSH1 0x64 DUP3 ADD MSTORE PUSH1 0x84 ADD PUSH2 0x639 JUMP JUMPDEST DUP1 DUP4 DUP4 PUSH1 0x40 MLOAD PUSH2 0xFFD SWAP3 SWAP2 SWAP1 PUSH2 0x1E25 JUMP JUMPDEST PUSH1 0x40 MLOAD DUP1 SWAP2 SUB SWAP1 KECCAK256 EQ PUSH2 0x105C JUMPI PUSH1 0x40 MLOAD PUSH3 0x461BCD PUSH1 0xE5 SHL DUP2 MSTORE PUSH1 0x20 PUSH1 0x4 DUP3 ADD MSTORE PUSH1 0x21 PUSH1 0x24 DUP3 ADD MSTORE PUSH32 0x4E6F6E626C6F636B696E674C7A4170703A20696E76616C6964207061796C6F61 PUSH1 0x44 DUP3 ADD MSTORE PUSH1 0x19 PUSH1 0xFA SHL PUSH1 0x64 DUP3 ADD MSTORE PUSH1 0x84 ADD PUSH2 0x639 JUMP JUMPDEST PUSH2 0xFFFF DUP8 AND PUSH1 0x0 SWAP1 DUP2 MSTORE PUSH1 0x5 PUSH1 0x20 MSTORE PUSH1 0x40 DUP1 DUP3 KECCAK256 SWAP1 MLOAD PUSH2 0x107F SWAP1 DUP10 SWAP1 DUP10 SWAP1 PUSH2 0x1E25 JUMP JUMPDEST SWAP1 DUP2 MSTORE PUSH1 0x40 DUP1 MLOAD PUSH1 0x20 SWAP3 DUP2 SWAP1 SUB DUP4 ADD DUP2 KECCAK256 PUSH1 0x1 PUSH1 0x1 PUSH1 0x40 SHL SUB DUP10 AND PUSH1 0x0 SWAP1 DUP2 MSTORE SWAP1 DUP5 MSTORE DUP3 SWAP1 KECCAK256 SWAP4 SWAP1 SWAP4 SSTORE PUSH1 0x1F DUP9 ADD DUP3 SWAP1 DIV DUP3 MUL DUP4 ADD DUP3 ADD SWAP1 MSTORE DUP7 DUP3 MSTORE PUSH2 0x1117 SWAP2 DUP10 SWAP2 DUP10 SWAP1 DUP10 SWAP1 DUP2 SWAP1 DUP5 ADD DUP4 DUP3 DUP1 DUP3 DUP5 CALLDATACOPY PUSH1 0x0 SWAP3 ADD SWAP2 SWAP1 SWAP2 MSTORE POP POP PUSH1 0x40 DUP1 MLOAD PUSH1 0x20 PUSH1 0x1F DUP11 ADD DUP2 SWAP1 DIV DUP2 MUL DUP3 ADD DUP2 ADD SWAP1 SWAP3 MSTORE DUP9 DUP2 MSTORE DUP11 SWAP4 POP SWAP2 POP DUP9 SWAP1 DUP9 SWAP1 DUP2 SWAP1 DUP5 ADD DUP4 DUP3 DUP1 DUP3 DUP5 CALLDATACOPY PUSH1 0x0 SWAP3 ADD SWAP2 SWAP1 SWAP2 MSTORE POP PUSH2 0x15EB SWAP3 POP POP POP JUMP JUMPDEST PUSH32 0xC264D91F3ADC5588250E1551F547752CA0CFA8F6B530D243B9F9F4CAB10EA8E5 DUP8 DUP8 DUP8 DUP8 DUP6 PUSH1 0x40 MLOAD PUSH2 0x114E SWAP6 SWAP5 SWAP4 SWAP3 SWAP2 SWAP1 PUSH2 0x2019 JUMP JUMPDEST PUSH1 0x40 MLOAD DUP1 SWAP2 SUB SWAP1 LOG1 POP POP POP POP POP POP POP JUMP JUMPDEST PUSH2 0x1167 PUSH2 0x13E7 JUMP JUMPDEST PUSH2 0xFFFF DUP4 DUP2 AND PUSH1 0x0 DUP2 DUP2 MSTORE PUSH1 0x2 PUSH1 0x20 SWAP1 DUP2 MSTORE PUSH1 0x40 DUP1 DUP4 KECCAK256 SWAP5 DUP8 AND DUP1 DUP5 MSTORE SWAP5 DUP3 MSTORE SWAP2 DUP3 SWAP1 KECCAK256 DUP6 SWAP1 SSTORE DUP2 MLOAD SWAP3 DUP4 MSTORE DUP3 ADD SWAP3 SWAP1 SWAP3 MSTORE SWAP1 DUP2 ADD DUP3 SWAP1 MSTORE PUSH32 0x9D5C7C0B934DA8FEFA9C7760C98383778A12DFBFC0C3B3106518F43FB9508AC0 SWAP1 PUSH1 0x60 ADD PUSH2 0xE49 JUMP JUMPDEST PUSH2 0x11D1 PUSH2 0x13E7 JUMP JUMPDEST PUSH2 0xFFFF DUP4 AND PUSH1 0x0 SWAP1 DUP2 MSTORE PUSH1 0x1 PUSH1 0x20 MSTORE PUSH1 0x40 SWAP1 KECCAK256 PUSH2 0x11EF DUP3 DUP5 DUP4 PUSH2 0x2054 JUMP JUMPDEST POP PUSH32 0xFA41487AD5D6728F0B19276FA1EDDC16558578F5109FC39D2DC33C3230470DAB DUP4 DUP4 DUP4 PUSH1 0x40 MLOAD PUSH2 0xE49 SWAP4 SWAP3 SWAP2 SWAP1 PUSH2 0x1E5E JUMP JUMPDEST PUSH2 0x122B PUSH2 0x13E7 JUMP JUMPDEST PUSH1 0x1 PUSH1 0x1 PUSH1 0xA0 SHL SUB DUP2 AND PUSH2 0x1290 JUMPI PUSH1 0x40 MLOAD PUSH3 0x461BCD PUSH1 0xE5 SHL DUP2 MSTORE PUSH1 0x20 PUSH1 0x4 DUP3 ADD MSTORE PUSH1 0x26 PUSH1 0x24 DUP3 ADD MSTORE PUSH32 0x4F776E61626C653A206E6577206F776E657220697320746865207A65726F2061 PUSH1 0x44 DUP3 ADD MSTORE PUSH6 0x646472657373 PUSH1 0xD0 SHL PUSH1 0x64 DUP3 ADD MSTORE PUSH1 0x84 ADD PUSH2 0x639 JUMP JUMPDEST PUSH2 0x1299 DUP2 PUSH2 0x160C JUMP JUMPDEST POP JUMP JUMPDEST PUSH1 0x40 MLOAD PUSH4 0x3D7B2F6F PUSH1 0xE2 SHL DUP2 MSTORE PUSH2 0xFFFF DUP1 DUP7 AND PUSH1 0x4 DUP4 ADD MSTORE DUP5 AND PUSH1 0x24 DUP3 ADD MSTORE ADDRESS PUSH1 0x44 DUP3 ADD MSTORE PUSH1 0x64 DUP2 ADD DUP3 SWAP1 MSTORE PUSH1 0x60 SWAP1 PUSH32 0x0 PUSH1 0x1 PUSH1 0x1 PUSH1 0xA0 SHL SUB AND SWAP1 PUSH4 0xF5ECBDBC SWAP1 PUSH1 0x84 ADD PUSH1 0x0 PUSH1 0x40 MLOAD DUP1 DUP4 SUB DUP2 DUP7 GAS STATICCALL ISZERO DUP1 ISZERO PUSH2 0x131C JUMPI RETURNDATASIZE PUSH1 0x0 DUP1 RETURNDATACOPY RETURNDATASIZE PUSH1 0x0 REVERT JUMPDEST POP POP POP POP PUSH1 0x40 MLOAD RETURNDATASIZE PUSH1 0x0 DUP3 RETURNDATACOPY PUSH1 0x1F RETURNDATASIZE SWAP1 DUP2 ADD PUSH1 0x1F NOT AND DUP3 ADD PUSH1 0x40 MSTORE PUSH2 0x1344 SWAP2 SWAP1 DUP2 ADD SWAP1 PUSH2 0x213D JUMP JUMPDEST SWAP6 SWAP5 POP POP POP POP POP JUMP JUMPDEST PUSH1 0x0 PUSH11 0x636F6E736F6C652E6C6F67 SWAP1 POP PUSH1 0x0 DUP1 DUP4 MLOAD PUSH1 0x20 DUP6 ADD DUP5 GAS STATICCALL POP POP POP JUMP JUMPDEST PUSH1 0x0 DUP1 PUSH2 0x13D1 GAS PUSH1 0x96 PUSH4 0x66AD5C8A PUSH1 0xE0 SHL DUP10 DUP10 DUP10 DUP10 PUSH1 0x40 MLOAD PUSH1 0x24 ADD PUSH2 0x1396 SWAP5 SWAP4 SWAP3 SWAP2 SWAP1 PUSH2 0x2185 JUMP JUMPDEST PUSH1 0x40 DUP1 MLOAD PUSH1 0x1F NOT DUP2 DUP5 SUB ADD DUP2 MSTORE SWAP2 SWAP1 MSTORE PUSH1 0x20 DUP2 ADD DUP1 MLOAD PUSH1 0x1 PUSH1 0x1 PUSH1 0xE0 SHL SUB AND PUSH1 0x1 PUSH1 0x1 PUSH1 0xE0 SHL SUB NOT SWAP1 SWAP4 AND SWAP3 SWAP1 SWAP3 OR SWAP1 SWAP2 MSTORE ADDRESS SWAP3 SWAP2 SWAP1 PUSH2 0x1769 JUMP JUMPDEST SWAP2 POP SWAP2 POP DUP2 PUSH2 0xBEC JUMPI PUSH2 0xBEC DUP7 DUP7 DUP7 DUP7 DUP6 PUSH2 0x17F3 JUMP JUMPDEST CALLER PUSH2 0x13F0 PUSH2 0xCAF JUMP JUMPDEST PUSH1 0x1 PUSH1 0x1 PUSH1 0xA0 SHL SUB AND EQ PUSH2 0xC06 JUMPI PUSH1 0x40 MLOAD PUSH3 0x461BCD PUSH1 0xE5 SHL DUP2 MSTORE PUSH1 0x20 PUSH1 0x4 DUP3 ADD DUP2 SWAP1 MSTORE PUSH1 0x24 DUP3 ADD MSTORE PUSH32 0x4F776E61626C653A2063616C6C6572206973206E6F7420746865206F776E6572 PUSH1 0x44 DUP3 ADD MSTORE PUSH1 0x64 ADD PUSH2 0x639 JUMP JUMPDEST PUSH2 0xFFFF DUP7 AND PUSH1 0x0 SWAP1 DUP2 MSTORE PUSH1 0x1 PUSH1 0x20 MSTORE PUSH1 0x40 DUP2 KECCAK256 DUP1 SLOAD PUSH2 0x1464 SWAP1 PUSH2 0x1DEB JUMP JUMPDEST DUP1 PUSH1 0x1F ADD PUSH1 0x20 DUP1 SWAP2 DIV MUL PUSH1 0x20 ADD PUSH1 0x40 MLOAD SWAP1 DUP2 ADD PUSH1 0x40 MSTORE DUP1 SWAP3 SWAP2 SWAP1 DUP2 DUP2 MSTORE PUSH1 0x20 ADD DUP3 DUP1 SLOAD PUSH2 0x1490 SWAP1 PUSH2 0x1DEB JUMP JUMPDEST DUP1 ISZERO PUSH2 0x14DD JUMPI DUP1 PUSH1 0x1F LT PUSH2 0x14B2 JUMPI PUSH2 0x100 DUP1 DUP4 SLOAD DIV MUL DUP4 MSTORE SWAP2 PUSH1 0x20 ADD SWAP2 PUSH2 0x14DD JUMP JUMPDEST DUP3 ADD SWAP2 SWAP1 PUSH1 0x0 MSTORE PUSH1 0x20 PUSH1 0x0 KECCAK256 SWAP1 JUMPDEST DUP2 SLOAD DUP2 MSTORE SWAP1 PUSH1 0x1 ADD SWAP1 PUSH1 0x20 ADD DUP1 DUP4 GT PUSH2 0x14C0 JUMPI DUP3 SWAP1 SUB PUSH1 0x1F AND DUP3 ADD SWAP2 JUMPDEST POP POP POP POP POP SWAP1 POP DUP1 MLOAD PUSH1 0x0 SUB PUSH2 0x154E JUMPI PUSH1 0x40 MLOAD PUSH3 0x461BCD PUSH1 0xE5 SHL DUP2 MSTORE PUSH1 0x20 PUSH1 0x4 DUP3 ADD MSTORE PUSH1 0x30 PUSH1 0x24 DUP3 ADD MSTORE PUSH32 0x4C7A4170703A2064657374696E6174696F6E20636861696E206973206E6F7420 PUSH1 0x44 DUP3 ADD MSTORE PUSH16 0x61207472757374656420736F75726365 PUSH1 0x80 SHL PUSH1 0x64 DUP3 ADD MSTORE PUSH1 0x84 ADD PUSH2 0x639 JUMP JUMPDEST PUSH2 0x1559 DUP8 DUP8 MLOAD PUSH2 0x1890 JUMP JUMPDEST PUSH1 0x40 MLOAD PUSH3 0xC58031 PUSH1 0xE8 SHL DUP2 MSTORE PUSH1 0x1 PUSH1 0x1 PUSH1 0xA0 SHL SUB PUSH32 0x0 AND SWAP1 PUSH4 0xC5803100 SWAP1 DUP5 SWAP1 PUSH2 0x15B0 SWAP1 DUP12 SWAP1 DUP7 SWAP1 DUP13 SWAP1 DUP13 SWAP1 DUP13 SWAP1 DUP13 SWAP1 PUSH1 0x4 ADD PUSH2 0x21C3 JUMP JUMPDEST PUSH1 0x0 PUSH1 0x40 MLOAD DUP1 DUP4 SUB DUP2 DUP6 DUP9 DUP1 EXTCODESIZE ISZERO DUP1 ISZERO PUSH2 0x15C9 JUMPI PUSH1 0x0 DUP1 REVERT JUMPDEST POP GAS CALL ISZERO DUP1 ISZERO PUSH2 0x15DD JUMPI RETURNDATASIZE PUSH1 0x0 DUP1 RETURNDATACOPY RETURNDATASIZE PUSH1 0x0 REVERT JUMPDEST POP POP POP POP POP POP POP POP POP POP POP POP JUMP JUMPDEST DUP1 DUP1 PUSH1 0x20 ADD SWAP1 MLOAD DUP2 ADD SWAP1 PUSH2 0x15FF SWAP2 SWAP1 PUSH2 0x213D JUMP JUMPDEST PUSH1 0x6 SWAP1 PUSH2 0x878 SWAP1 DUP3 PUSH2 0x1ED7 JUMP JUMPDEST PUSH1 0x0 DUP1 SLOAD PUSH1 0x1 PUSH1 0x1 PUSH1 0xA0 SHL SUB DUP4 DUP2 AND PUSH1 0x1 PUSH1 0x1 PUSH1 0xA0 SHL SUB NOT DUP4 AND DUP2 OR DUP5 SSTORE PUSH1 0x40 MLOAD SWAP2 SWAP1 SWAP3 AND SWAP3 DUP4 SWAP2 PUSH32 0x8BE0079C531659141344CD1FD0A4F28419497F9722A3DAAFE3B4186F6B6457E0 SWAP2 SWAP1 LOG3 POP POP JUMP JUMPDEST PUSH1 0x60 DUP2 PUSH2 0x166A DUP2 PUSH1 0x1F PUSH2 0x222A JUMP JUMPDEST LT ISZERO PUSH2 0x16A9 JUMPI PUSH1 0x40 MLOAD PUSH3 0x461BCD PUSH1 0xE5 SHL DUP2 MSTORE PUSH1 0x20 PUSH1 0x4 DUP3 ADD MSTORE PUSH1 0xE PUSH1 0x24 DUP3 ADD MSTORE PUSH14 0x736C6963655F6F766572666C6F77 PUSH1 0x90 SHL PUSH1 0x44 DUP3 ADD MSTORE PUSH1 0x64 ADD PUSH2 0x639 JUMP JUMPDEST PUSH2 0x16B3 DUP3 DUP5 PUSH2 0x222A JUMP JUMPDEST DUP5 MLOAD LT ISZERO PUSH2 0x16F7 JUMPI PUSH1 0x40 MLOAD PUSH3 0x461BCD PUSH1 0xE5 SHL DUP2 MSTORE PUSH1 0x20 PUSH1 0x4 DUP3 ADD MSTORE PUSH1 0x11 PUSH1 0x24 DUP3 ADD MSTORE PUSH17 0x736C6963655F6F75744F66426F756E6473 PUSH1 0x78 SHL PUSH1 0x44 DUP3 ADD MSTORE PUSH1 0x64 ADD PUSH2 0x639 JUMP JUMPDEST PUSH1 0x60 DUP3 ISZERO DUP1 ISZERO PUSH2 0x1716 JUMPI PUSH1 0x40 MLOAD SWAP2 POP PUSH1 0x0 DUP3 MSTORE PUSH1 0x20 DUP3 ADD PUSH1 0x40 MSTORE PUSH2 0x1760 JUMP JUMPDEST PUSH1 0x40 MLOAD SWAP2 POP PUSH1 0x1F DUP5 AND DUP1 ISZERO PUSH1 0x20 MUL DUP2 DUP5 ADD ADD DUP6 DUP2 ADD DUP8 DUP4 ISZERO PUSH1 0x20 MUL DUP5 DUP12 ADD ADD ADD JUMPDEST DUP2 DUP4 LT ISZERO PUSH2 0x174F JUMPI DUP1 MLOAD DUP4 MSTORE PUSH1 0x20 SWAP3 DUP4 ADD SWAP3 ADD PUSH2 0x1737 JUMP JUMPDEST POP POP DUP6 DUP5 MSTORE PUSH1 0x1F ADD PUSH1 0x1F NOT AND PUSH1 0x40 MSTORE POP JUMPDEST POP SWAP5 SWAP4 POP POP POP POP JUMP JUMPDEST PUSH1 0x0 PUSH1 0x60 PUSH1 0x0 DUP1 PUSH1 0x0 DUP7 PUSH2 0xFFFF AND PUSH1 0x1 PUSH1 0x1 PUSH1 0x40 SHL SUB DUP2 GT ISZERO PUSH2 0x178E JUMPI PUSH2 0x178E PUSH2 0x1AAE JUMP JUMPDEST PUSH1 0x40 MLOAD SWAP1 DUP1 DUP3 MSTORE DUP1 PUSH1 0x1F ADD PUSH1 0x1F NOT AND PUSH1 0x20 ADD DUP3 ADD PUSH1 0x40 MSTORE DUP1 ISZERO PUSH2 0x17B8 JUMPI PUSH1 0x20 DUP3 ADD DUP2 DUP1 CALLDATASIZE DUP4 CALLDATACOPY ADD SWAP1 POP JUMPDEST POP SWAP1 POP PUSH1 0x0 DUP1 DUP8 MLOAD PUSH1 0x20 DUP10 ADD PUSH1 0x0 DUP14 DUP14 CALL SWAP2 POP RETURNDATASIZE SWAP3 POP DUP7 DUP4 GT ISZERO PUSH2 0x17DA JUMPI DUP7 SWAP3 POP JUMPDEST DUP3 DUP2 MSTORE DUP3 PUSH1 0x0 PUSH1 0x20 DUP4 ADD RETURNDATACOPY SWAP1 SWAP9 SWAP1 SWAP8 POP SWAP6 POP POP POP POP POP POP JUMP JUMPDEST DUP2 DUP1 MLOAD SWAP1 PUSH1 0x20 ADD KECCAK256 PUSH1 0x5 PUSH1 0x0 DUP8 PUSH2 0xFFFF AND PUSH2 0xFFFF AND DUP2 MSTORE PUSH1 0x20 ADD SWAP1 DUP2 MSTORE PUSH1 0x20 ADD PUSH1 0x0 KECCAK256 DUP6 PUSH1 0x40 MLOAD PUSH2 0x1824 SWAP2 SWAP1 PUSH2 0x223D JUMP JUMPDEST SWAP1 DUP2 MSTORE PUSH1 0x40 DUP1 MLOAD SWAP2 DUP3 SWAP1 SUB PUSH1 0x20 SWAP1 DUP2 ADD DUP4 KECCAK256 PUSH1 0x1 PUSH1 0x1 PUSH1 0x40 SHL SUB DUP9 AND PUSH1 0x0 SWAP1 DUP2 MSTORE SWAP2 MSTORE KECCAK256 SWAP2 SWAP1 SWAP2 SSTORE PUSH32 0xE183F33DE2837795525B4792CA4CD60535BD77C53B7E7030060BFCF5734D6B0C SWAP1 PUSH2 0x1881 SWAP1 DUP8 SWAP1 DUP8 SWAP1 DUP8 SWAP1 DUP8 SWAP1 DUP8 SWAP1 PUSH2 0x2259 JUMP JUMPDEST PUSH1 0x40 MLOAD DUP1 SWAP2 SUB SWAP1 LOG1 POP POP POP POP POP JUMP JUMPDEST PUSH2 0xFFFF DUP3 AND PUSH1 0x0 SWAP1 DUP2 MSTORE PUSH1 0x3 PUSH1 0x20 MSTORE PUSH1 0x40 DUP2 KECCAK256 SLOAD SWAP1 DUP2 SWAP1 SUB PUSH2 0x18B1 JUMPI POP PUSH2 0x2710 JUMPDEST DUP1 DUP3 GT ISZERO PUSH2 0x1901 JUMPI PUSH1 0x40 MLOAD PUSH3 0x461BCD PUSH1 0xE5 SHL DUP2 MSTORE PUSH1 0x20 PUSH1 0x4 DUP3 ADD DUP2 SWAP1 MSTORE PUSH1 0x24 DUP3 ADD MSTORE PUSH32 0x4C7A4170703A207061796C6F61642073697A6520697320746F6F206C61726765 PUSH1 0x44 DUP3 ADD MSTORE PUSH1 0x64 ADD PUSH2 0x639 JUMP JUMPDEST POP POP POP JUMP JUMPDEST PUSH2 0xC06 PUSH2 0x22B7 JUMP JUMPDEST DUP1 CALLDATALOAD PUSH2 0xFFFF DUP2 AND DUP2 EQ PUSH2 0x1920 JUMPI PUSH1 0x0 DUP1 REVERT JUMPDEST SWAP2 SWAP1 POP JUMP JUMPDEST PUSH1 0x0 DUP1 DUP4 PUSH1 0x1F DUP5 ADD SLT PUSH2 0x1937 JUMPI PUSH1 0x0 DUP1 REVERT JUMPDEST POP DUP2 CALLDATALOAD PUSH1 0x1 PUSH1 0x1 PUSH1 0x40 SHL SUB DUP2 GT ISZERO PUSH2 0x194E JUMPI PUSH1 0x0 DUP1 REVERT JUMPDEST PUSH1 0x20 DUP4 ADD SWAP2 POP DUP4 PUSH1 0x20 DUP3 DUP6 ADD ADD GT ISZERO PUSH2 0x1966 JUMPI PUSH1 0x0 DUP1 REVERT JUMPDEST SWAP3 POP SWAP3 SWAP1 POP JUMP JUMPDEST DUP1 CALLDATALOAD PUSH1 0x1 PUSH1 0x1 PUSH1 0x40 SHL SUB DUP2 AND DUP2 EQ PUSH2 0x1920 JUMPI PUSH1 0x0 DUP1 REVERT JUMPDEST PUSH1 0x0 DUP1 PUSH1 0x0 DUP1 PUSH1 0x0 DUP1 PUSH1 0x80 DUP8 DUP10 SUB SLT ISZERO PUSH2 0x199D JUMPI PUSH1 0x0 DUP1 REVERT JUMPDEST PUSH2 0x19A6 DUP8 PUSH2 0x190E JUMP JUMPDEST SWAP6 POP PUSH1 0x20 DUP8 ADD CALLDATALOAD PUSH1 0x1 PUSH1 0x1 PUSH1 0x40 SHL SUB DUP1 DUP3 GT ISZERO PUSH2 0x19C2 JUMPI PUSH1 0x0 DUP1 REVERT JUMPDEST PUSH2 0x19CE DUP11 DUP4 DUP12 ADD PUSH2 0x1925 JUMP JUMPDEST SWAP1 SWAP8 POP SWAP6 POP DUP6 SWAP2 POP PUSH2 0x19E2 PUSH1 0x40 DUP11 ADD PUSH2 0x196D JUMP JUMPDEST SWAP5 POP PUSH1 0x60 DUP10 ADD CALLDATALOAD SWAP2 POP DUP1 DUP3 GT ISZERO PUSH2 0x19F8 JUMPI PUSH1 0x0 DUP1 REVERT JUMPDEST POP PUSH2 0x1A05 DUP10 DUP3 DUP11 ADD PUSH2 0x1925 JUMP JUMPDEST SWAP8 SWAP11 SWAP7 SWAP10 POP SWAP5 SWAP8 POP SWAP3 SWAP6 SWAP4 SWAP5 SWAP3 POP POP POP JUMP JUMPDEST PUSH1 0x0 PUSH1 0x20 DUP3 DUP5 SUB SLT ISZERO PUSH2 0x1A29 JUMPI PUSH1 0x0 DUP1 REVERT JUMPDEST PUSH2 0x9BC DUP3 PUSH2 0x190E JUMP JUMPDEST PUSH1 0x0 DUP1 PUSH1 0x40 DUP4 DUP6 SUB SLT ISZERO PUSH2 0x1A45 JUMPI PUSH1 0x0 DUP1 REVERT JUMPDEST PUSH2 0x1A4E DUP4 PUSH2 0x190E JUMP JUMPDEST SWAP5 PUSH1 0x20 SWAP4 SWAP1 SWAP4 ADD CALLDATALOAD SWAP4 POP POP POP JUMP JUMPDEST PUSH1 0x0 DUP1 PUSH1 0x0 PUSH1 0x40 DUP5 DUP7 SUB SLT ISZERO PUSH2 0x1A71 JUMPI PUSH1 0x0 DUP1 REVERT JUMPDEST PUSH2 0x1A7A DUP5 PUSH2 0x190E JUMP JUMPDEST SWAP3 POP PUSH1 0x20 DUP5 ADD CALLDATALOAD PUSH1 0x1 PUSH1 0x1 PUSH1 0x40 SHL SUB DUP2 GT ISZERO PUSH2 0x1A95 JUMPI PUSH1 0x0 DUP1 REVERT JUMPDEST PUSH2 0x1AA1 DUP7 DUP3 DUP8 ADD PUSH2 0x1925 JUMP JUMPDEST SWAP5 SWAP8 SWAP1 SWAP7 POP SWAP4 SWAP5 POP POP POP POP JUMP JUMPDEST PUSH4 0x4E487B71 PUSH1 0xE0 SHL PUSH1 0x0 MSTORE PUSH1 0x41 PUSH1 0x4 MSTORE PUSH1 0x24 PUSH1 0x0 REVERT JUMPDEST PUSH1 0x40 MLOAD PUSH1 0x1F DUP3 ADD PUSH1 0x1F NOT AND DUP2 ADD PUSH1 0x1 PUSH1 0x1 PUSH1 0x40 SHL SUB DUP2 GT DUP3 DUP3 LT OR ISZERO PUSH2 0x1AEC JUMPI PUSH2 0x1AEC PUSH2 0x1AAE JUMP JUMPDEST PUSH1 0x40 MSTORE SWAP2 SWAP1 POP JUMP JUMPDEST PUSH1 0x0 PUSH1 0x1 PUSH1 0x1 PUSH1 0x40 SHL SUB DUP3 GT ISZERO PUSH2 0x1B0D JUMPI PUSH2 0x1B0D PUSH2 0x1AAE JUMP JUMPDEST POP PUSH1 0x1F ADD PUSH1 0x1F NOT AND PUSH1 0x20 ADD SWAP1 JUMP JUMPDEST PUSH1 0x0 PUSH2 0x1B2E PUSH2 0x1B29 DUP5 PUSH2 0x1AF4 JUMP JUMPDEST PUSH2 0x1AC4 JUMP JUMPDEST SWAP1 POP DUP3 DUP2 MSTORE DUP4 DUP4 DUP4 ADD GT ISZERO PUSH2 0x1B42 JUMPI PUSH1 0x0 DUP1 REVERT JUMPDEST DUP3 DUP3 PUSH1 0x20 DUP4 ADD CALLDATACOPY PUSH1 0x0 PUSH1 0x20 DUP5 DUP4 ADD ADD MSTORE SWAP4 SWAP3 POP POP POP JUMP JUMPDEST PUSH1 0x0 DUP1 PUSH1 0x0 PUSH1 0x60 DUP5 DUP7 SUB SLT ISZERO PUSH2 0x1B6E JUMPI PUSH1 0x0 DUP1 REVERT JUMPDEST PUSH2 0x1B77 DUP5 PUSH2 0x190E JUMP JUMPDEST SWAP3 POP PUSH1 0x20 DUP5 ADD CALLDATALOAD PUSH1 0x1 PUSH1 0x1 PUSH1 0x40 SHL SUB DUP2 GT ISZERO PUSH2 0x1B92 JUMPI PUSH1 0x0 DUP1 REVERT JUMPDEST DUP5 ADD PUSH1 0x1F DUP2 ADD DUP7 SGT PUSH2 0x1BA3 JUMPI PUSH1 0x0 DUP1 REVERT JUMPDEST PUSH2 0x1BB2 DUP7 DUP3 CALLDATALOAD PUSH1 0x20 DUP5 ADD PUSH2 0x1B1B JUMP JUMPDEST SWAP3 POP POP PUSH2 0x1BC1 PUSH1 0x40 DUP6 ADD PUSH2 0x196D JUMP JUMPDEST SWAP1 POP SWAP3 POP SWAP3 POP SWAP3 JUMP JUMPDEST DUP1 CALLDATALOAD PUSH1 0x1 PUSH1 0x1 PUSH1 0xA0 SHL SUB DUP2 AND DUP2 EQ PUSH2 0x1920 JUMPI PUSH1 0x0 DUP1 REVERT JUMPDEST PUSH1 0x0 PUSH1 0x20 DUP3 DUP5 SUB SLT ISZERO PUSH2 0x1BF3 JUMPI PUSH1 0x0 DUP1 REVERT JUMPDEST PUSH2 0x9BC DUP3 PUSH2 0x1BCA JUMP JUMPDEST PUSH1 0x0 PUSH1 0x20 DUP3 DUP5 SUB SLT ISZERO PUSH2 0x1C0E JUMPI PUSH1 0x0 DUP1 REVERT JUMPDEST DUP2 CALLDATALOAD PUSH1 0x1 PUSH1 0x1 PUSH1 0x40 SHL SUB DUP2 GT ISZERO PUSH2 0x1C24 JUMPI PUSH1 0x0 DUP1 REVERT JUMPDEST DUP3 ADD PUSH1 0x1F DUP2 ADD DUP5 SGT PUSH2 0x1C35 JUMPI PUSH1 0x0 DUP1 REVERT JUMPDEST PUSH2 0x1C44 DUP5 DUP3 CALLDATALOAD PUSH1 0x20 DUP5 ADD PUSH2 0x1B1B JUMP JUMPDEST SWAP5 SWAP4 POP POP POP POP JUMP JUMPDEST PUSH1 0x0 JUMPDEST DUP4 DUP2 LT ISZERO PUSH2 0x1C67 JUMPI DUP2 DUP2 ADD MLOAD DUP4 DUP3 ADD MSTORE PUSH1 0x20 ADD PUSH2 0x1C4F JUMP JUMPDEST POP POP PUSH1 0x0 SWAP2 ADD MSTORE JUMP JUMPDEST PUSH1 0x0 DUP2 MLOAD DUP1 DUP5 MSTORE PUSH2 0x1C88 DUP2 PUSH1 0x20 DUP7 ADD PUSH1 0x20 DUP7 ADD PUSH2 0x1C4C JUMP JUMPDEST PUSH1 0x1F ADD PUSH1 0x1F NOT AND SWAP3 SWAP1 SWAP3 ADD PUSH1 0x20 ADD SWAP3 SWAP2 POP POP JUMP JUMPDEST PUSH1 0x20 DUP2 MSTORE PUSH1 0x0 PUSH2 0x9BC PUSH1 0x20 DUP4 ADD DUP5 PUSH2 0x1C70 JUMP JUMPDEST PUSH1 0x0 DUP1 PUSH1 0x40 DUP4 DUP6 SUB SLT ISZERO PUSH2 0x1CC2 JUMPI PUSH1 0x0 DUP1 REVERT JUMPDEST PUSH2 0x1CCB DUP4 PUSH2 0x190E JUMP JUMPDEST SWAP2 POP PUSH2 0x1CD9 PUSH1 0x20 DUP5 ADD PUSH2 0x190E JUMP JUMPDEST SWAP1 POP SWAP3 POP SWAP3 SWAP1 POP JUMP JUMPDEST PUSH1 0x1 PUSH1 0x1 PUSH1 0xA0 SHL SUB SWAP2 SWAP1 SWAP2 AND DUP2 MSTORE PUSH1 0x20 ADD SWAP1 JUMP JUMPDEST PUSH1 0x0 DUP1 PUSH1 0x0 DUP1 PUSH1 0x0 PUSH1 0x80 DUP7 DUP9 SUB SLT ISZERO PUSH2 0x1D0E JUMPI PUSH1 0x0 DUP1 REVERT JUMPDEST PUSH2 0x1D17 DUP7 PUSH2 0x190E JUMP JUMPDEST SWAP5 POP PUSH2 0x1D25 PUSH1 0x20 DUP8 ADD PUSH2 0x190E JUMP JUMPDEST SWAP4 POP PUSH1 0x40 DUP7 ADD CALLDATALOAD SWAP3 POP PUSH1 0x60 DUP7 ADD CALLDATALOAD PUSH1 0x1 PUSH1 0x1 PUSH1 0x40 SHL SUB DUP2 GT ISZERO PUSH2 0x1D47 JUMPI PUSH1 0x0 DUP1 REVERT JUMPDEST PUSH2 0x1D53 DUP9 DUP3 DUP10 ADD PUSH2 0x1925 JUMP JUMPDEST SWAP7 SWAP10 SWAP6 SWAP9 POP SWAP4 SWAP7 POP SWAP3 SWAP5 SWAP4 SWAP3 POP POP POP JUMP JUMPDEST PUSH1 0x0 DUP1 PUSH1 0x0 PUSH1 0x60 DUP5 DUP7 SUB SLT ISZERO PUSH2 0x1D79 JUMPI PUSH1 0x0 DUP1 REVERT JUMPDEST PUSH2 0x1D82 DUP5 PUSH2 0x190E JUMP JUMPDEST SWAP3 POP PUSH2 0x1D90 PUSH1 0x20 DUP6 ADD PUSH2 0x190E JUMP JUMPDEST SWAP2 POP PUSH1 0x40 DUP5 ADD CALLDATALOAD SWAP1 POP SWAP3 POP SWAP3 POP SWAP3 JUMP JUMPDEST PUSH1 0x0 DUP1 PUSH1 0x0 DUP1 PUSH1 0x80 DUP6 DUP8 SUB SLT ISZERO PUSH2 0x1DB6 JUMPI PUSH1 0x0 DUP1 REVERT JUMPDEST PUSH2 0x1DBF DUP6 PUSH2 0x190E JUMP JUMPDEST SWAP4 POP PUSH2 0x1DCD PUSH1 0x20 DUP7 ADD PUSH2 0x190E JUMP JUMPDEST SWAP3 POP PUSH2 0x1DDB PUSH1 0x40 DUP7 ADD PUSH2 0x1BCA JUMP JUMPDEST SWAP4 SWAP7 SWAP3 SWAP6 POP SWAP3 SWAP4 PUSH1 0x60 ADD CALLDATALOAD SWAP3 POP POP JUMP JUMPDEST PUSH1 0x1 DUP2 DUP2 SHR SWAP1 DUP3 AND DUP1 PUSH2 0x1DFF JUMPI PUSH1 0x7F DUP3 AND SWAP2 POP JUMPDEST PUSH1 0x20 DUP3 LT DUP2 SUB PUSH2 0x1E1F JUMPI PUSH4 0x4E487B71 PUSH1 0xE0 SHL PUSH1 0x0 MSTORE PUSH1 0x22 PUSH1 0x4 MSTORE PUSH1 0x24 PUSH1 0x0 REVERT JUMPDEST POP SWAP2 SWAP1 POP JUMP JUMPDEST DUP2 DUP4 DUP3 CALLDATACOPY PUSH1 0x0 SWAP2 ADD SWAP1 DUP2 MSTORE SWAP2 SWAP1 POP JUMP JUMPDEST DUP2 DUP4 MSTORE DUP2 DUP2 PUSH1 0x20 DUP6 ADD CALLDATACOPY POP PUSH1 0x0 DUP3 DUP3 ADD PUSH1 0x20 SWAP1 DUP2 ADD SWAP2 SWAP1 SWAP2 MSTORE PUSH1 0x1F SWAP1 SWAP2 ADD PUSH1 0x1F NOT AND SWAP1 SWAP2 ADD ADD SWAP1 JUMP JUMPDEST PUSH2 0xFFFF DUP5 AND DUP2 MSTORE PUSH1 0x40 PUSH1 0x20 DUP3 ADD MSTORE PUSH1 0x0 PUSH2 0x1344 PUSH1 0x40 DUP4 ADD DUP5 DUP7 PUSH2 0x1E35 JUMP JUMPDEST PUSH1 0x1F DUP3 GT ISZERO PUSH2 0x1901 JUMPI PUSH1 0x0 DUP2 DUP2 MSTORE PUSH1 0x20 DUP2 KECCAK256 PUSH1 0x1F DUP6 ADD PUSH1 0x5 SHR DUP2 ADD PUSH1 0x20 DUP7 LT ISZERO PUSH2 0x1EA3 JUMPI POP DUP1 JUMPDEST PUSH1 0x1F DUP6 ADD PUSH1 0x5 SHR DUP3 ADD SWAP2 POP JUMPDEST DUP2 DUP2 LT ISZERO PUSH2 0xBEC JUMPI DUP3 DUP2 SSTORE PUSH1 0x1 ADD PUSH2 0x1EAF JUMP JUMPDEST PUSH1 0x0 NOT PUSH1 0x3 DUP4 SWAP1 SHL SHR NOT AND PUSH1 0x1 SWAP2 SWAP1 SWAP2 SHL OR SWAP1 JUMP JUMPDEST DUP2 MLOAD PUSH1 0x1 PUSH1 0x1 PUSH1 0x40 SHL SUB DUP2 GT ISZERO PUSH2 0x1EF0 JUMPI PUSH2 0x1EF0 PUSH2 0x1AAE JUMP JUMPDEST PUSH2 0x1F04 DUP2 PUSH2 0x1EFE DUP5 SLOAD PUSH2 0x1DEB JUMP JUMPDEST DUP5 PUSH2 0x1E7C JUMP JUMPDEST PUSH1 0x20 DUP1 PUSH1 0x1F DUP4 GT PUSH1 0x1 DUP2 EQ PUSH2 0x1F33 JUMPI PUSH1 0x0 DUP5 ISZERO PUSH2 0x1F21 JUMPI POP DUP6 DUP4 ADD MLOAD JUMPDEST PUSH2 0x1F2B DUP6 DUP3 PUSH2 0x1EC2 JUMP JUMPDEST DUP7 SSTORE POP PUSH2 0xBEC JUMP JUMPDEST PUSH1 0x0 DUP6 DUP2 MSTORE PUSH1 0x20 DUP2 KECCAK256 PUSH1 0x1F NOT DUP7 AND SWAP2 JUMPDEST DUP3 DUP2 LT ISZERO PUSH2 0x1F62 JUMPI DUP9 DUP7 ADD MLOAD DUP3 SSTORE SWAP5 DUP5 ADD SWAP5 PUSH1 0x1 SWAP1 SWAP2 ADD SWAP1 DUP5 ADD PUSH2 0x1F43 JUMP JUMPDEST POP DUP6 DUP3 LT ISZERO PUSH2 0x1F80 JUMPI DUP8 DUP6 ADD MLOAD PUSH1 0x0 NOT PUSH1 0x3 DUP9 SWAP1 SHL PUSH1 0xF8 AND SHR NOT AND DUP2 SSTORE JUMPDEST POP POP POP POP POP PUSH1 0x1 SWAP1 DUP2 SHL ADD SWAP1 SSTORE POP JUMP JUMPDEST PUSH4 0x4E487B71 PUSH1 0xE0 SHL PUSH1 0x0 MSTORE PUSH1 0x11 PUSH1 0x4 MSTORE PUSH1 0x24 PUSH1 0x0 REVERT JUMPDEST DUP2 DUP2 SUB DUP2 DUP2 GT ISZERO PUSH2 0x1FB9 JUMPI PUSH2 0x1FB9 PUSH2 0x1F90 JUMP JUMPDEST SWAP3 SWAP2 POP POP JUMP JUMPDEST DUP3 DUP5 DUP3 CALLDATACOPY PUSH1 0x60 SWAP2 SWAP1 SWAP2 SHL PUSH1 0x1 PUSH1 0x1 PUSH1 0x60 SHL SUB NOT AND SWAP2 ADD SWAP1 DUP2 MSTORE PUSH1 0x14 ADD SWAP2 SWAP1 POP JUMP JUMPDEST PUSH1 0x0 PUSH2 0xFFFF DUP1 DUP9 AND DUP4 MSTORE DUP1 DUP8 AND PUSH1 0x20 DUP5 ADD MSTORE POP DUP5 PUSH1 0x40 DUP4 ADD MSTORE PUSH1 0x80 PUSH1 0x60 DUP4 ADD MSTORE PUSH2 0x200E PUSH1 0x80 DUP4 ADD DUP5 DUP7 PUSH2 0x1E35 JUMP JUMPDEST SWAP8 SWAP7 POP POP POP POP POP POP POP JUMP JUMPDEST PUSH2 0xFFFF DUP7 AND DUP2 MSTORE PUSH1 0x80 PUSH1 0x20 DUP3 ADD MSTORE PUSH1 0x0 PUSH2 0x2037 PUSH1 0x80 DUP4 ADD DUP7 DUP9 PUSH2 0x1E35 JUMP JUMPDEST PUSH1 0x1 PUSH1 0x1 PUSH1 0x40 SHL SUB SWAP5 SWAP1 SWAP5 AND PUSH1 0x40 DUP4 ADD MSTORE POP PUSH1 0x60 ADD MSTORE SWAP4 SWAP3 POP POP POP JUMP JUMPDEST PUSH1 0x1 PUSH1 0x1 PUSH1 0x40 SHL SUB DUP4 GT ISZERO PUSH2 0x206B JUMPI PUSH2 0x206B PUSH2 0x1AAE JUMP JUMPDEST PUSH2 0x207F DUP4 PUSH2 0x2079 DUP4 SLOAD PUSH2 0x1DEB JUMP JUMPDEST DUP4 PUSH2 0x1E7C JUMP JUMPDEST PUSH1 0x0 PUSH1 0x1F DUP5 GT PUSH1 0x1 DUP2 EQ PUSH2 0x20AD JUMPI PUSH1 0x0 DUP6 ISZERO PUSH2 0x209B JUMPI POP DUP4 DUP3 ADD CALLDATALOAD JUMPDEST PUSH2 0x20A5 DUP7 DUP3 PUSH2 0x1EC2 JUMP JUMPDEST DUP5 SSTORE POP PUSH2 0x878 JUMP JUMPDEST PUSH1 0x0 DUP4 DUP2 MSTORE PUSH1 0x20 SWAP1 KECCAK256 PUSH1 0x1F NOT DUP7 AND SWAP1 DUP4 JUMPDEST DUP3 DUP2 LT ISZERO PUSH2 0x20DE JUMPI DUP7 DUP6 ADD CALLDATALOAD DUP3 SSTORE PUSH1 0x20 SWAP5 DUP6 ADD SWAP5 PUSH1 0x1 SWAP1 SWAP3 ADD SWAP2 ADD PUSH2 0x20BE JUMP JUMPDEST POP DUP7 DUP3 LT ISZERO PUSH2 0x20FB JUMPI PUSH1 0x0 NOT PUSH1 0xF8 DUP9 PUSH1 0x3 SHL AND SHR NOT DUP5 DUP8 ADD CALLDATALOAD AND DUP2 SSTORE JUMPDEST POP POP PUSH1 0x1 DUP6 PUSH1 0x1 SHL ADD DUP4 SSTORE POP POP POP POP POP JUMP JUMPDEST PUSH1 0x0 PUSH2 0x211B PUSH2 0x1B29 DUP5 PUSH2 0x1AF4 JUMP JUMPDEST SWAP1 POP DUP3 DUP2 MSTORE DUP4 DUP4 DUP4 ADD GT ISZERO PUSH2 0x212F JUMPI PUSH1 0x0 DUP1 REVERT JUMPDEST PUSH2 0x9BC DUP4 PUSH1 0x20 DUP4 ADD DUP5 PUSH2 0x1C4C JUMP JUMPDEST PUSH1 0x0 PUSH1 0x20 DUP3 DUP5 SUB SLT ISZERO PUSH2 0x214F JUMPI PUSH1 0x0 DUP1 REVERT JUMPDEST DUP2 MLOAD PUSH1 0x1 PUSH1 0x1 PUSH1 0x40 SHL SUB DUP2 GT ISZERO PUSH2 0x2165 JUMPI PUSH1 0x0 DUP1 REVERT JUMPDEST DUP3 ADD PUSH1 0x1F DUP2 ADD DUP5 SGT PUSH2 0x2176 JUMPI PUSH1 0x0 DUP1 REVERT JUMPDEST PUSH2 0x1C44 DUP5 DUP3 MLOAD PUSH1 0x20 DUP5 ADD PUSH2 0x210D JUMP JUMPDEST PUSH2 0xFFFF DUP6 AND DUP2 MSTORE PUSH1 0x80 PUSH1 0x20 DUP3 ADD MSTORE PUSH1 0x0 PUSH2 0x21A2 PUSH1 0x80 DUP4 ADD DUP7 PUSH2 0x1C70 JUMP JUMPDEST PUSH1 0x1 PUSH1 0x1 PUSH1 0x40 SHL SUB DUP6 AND PUSH1 0x40 DUP5 ADD MSTORE DUP3 DUP2 SUB PUSH1 0x60 DUP5 ADD MSTORE PUSH2 0x200E DUP2 DUP6 PUSH2 0x1C70 JUMP JUMPDEST PUSH2 0xFFFF DUP8 AND DUP2 MSTORE PUSH1 0xC0 PUSH1 0x20 DUP3 ADD MSTORE PUSH1 0x0 PUSH2 0x21E0 PUSH1 0xC0 DUP4 ADD DUP9 PUSH2 0x1C70 JUMP JUMPDEST DUP3 DUP2 SUB PUSH1 0x40 DUP5 ADD MSTORE PUSH2 0x21F2 DUP2 DUP9 PUSH2 0x1C70 JUMP JUMPDEST PUSH1 0x1 PUSH1 0x1 PUSH1 0xA0 SHL SUB DUP8 DUP2 AND PUSH1 0x60 DUP7 ADD MSTORE DUP7 AND PUSH1 0x80 DUP6 ADD MSTORE DUP4 DUP2 SUB PUSH1 0xA0 DUP6 ADD MSTORE SWAP1 POP PUSH2 0x221D DUP2 DUP6 PUSH2 0x1C70 JUMP JUMPDEST SWAP10 SWAP9 POP POP POP POP POP POP POP POP POP JUMP JUMPDEST DUP1 DUP3 ADD DUP1 DUP3 GT ISZERO PUSH2 0x1FB9 JUMPI PUSH2 0x1FB9 PUSH2 0x1F90 JUMP JUMPDEST PUSH1 0x0 DUP3 MLOAD PUSH2 0x224F DUP2 DUP5 PUSH1 0x20 DUP8 ADD PUSH2 0x1C4C JUMP JUMPDEST SWAP2 SWAP1 SWAP2 ADD SWAP3 SWAP2 POP POP JUMP JUMPDEST PUSH2 0xFFFF DUP7 AND DUP2 MSTORE PUSH1 0xA0 PUSH1 0x20 DUP3 ADD MSTORE PUSH1 0x0 PUSH2 0x2276 PUSH1 0xA0 DUP4 ADD DUP8 PUSH2 0x1C70 JUMP JUMPDEST PUSH1 0x1 PUSH1 0x1 PUSH1 0x40 SHL SUB DUP7 AND PUSH1 0x40 DUP5 ADD MSTORE DUP3 DUP2 SUB PUSH1 0x60 DUP5 ADD MSTORE PUSH2 0x2297 DUP2 DUP7 PUSH2 0x1C70 JUMP JUMPDEST SWAP1 POP DUP3 DUP2 SUB PUSH1 0x80 DUP5 ADD MSTORE PUSH2 0x22AB DUP2 DUP6 PUSH2 0x1C70 JUMP JUMPDEST SWAP9 SWAP8 POP POP POP POP POP POP POP POP JUMP JUMPDEST PUSH4 0x4E487B71 PUSH1 0xE0 SHL PUSH1 0x0 MSTORE PUSH1 0x51 PUSH1 0x4 MSTORE PUSH1 0x24 PUSH1 0x0 REVERT INVALID LOG2 PUSH5 0x6970667358 0x22 SLT KECCAK256 TIMESTAMP SHR SLT 0x23 GAS DUP8 SWAP12 SWAP2 GASLIMIT DUP8 DUP5 PUSH32 0x7B683EA3A9C7F28C0600E143E491F4765505B8F264736F6C6343000814003300 "},"gasEstimates":{"creation":{"codeDepositCost":"1792600","executionCost":"infinite","totalCost":"infinite"},"external":{"DEFAULT_PAYLOAD_SIZE_LIMIT()":"701","__lzEndpoint()":"2779","data()":"infinite","endpointIdPair(address)":"2996","failedMessages(uint16,bytes,uint64)":"infinite","forceResumeReceive(uint16,bytes)":"infinite","getChainID()":"323","getConfig(uint16,uint16,address,uint256)":"infinite","getTrustedRemoteAddress(uint16)":"infinite","isTrustedRemote(uint16,bytes)":"infinite","lzEndpoint()":"infinite","lzReceive(uint16,bytes,uint64,bytes)":"infinite","minDstGasLookup(uint16,uint16)":"infinite","nonblockingLzReceive(uint16,bytes,uint64,bytes)":"infinite","owner()":"2700","payloadSizeLimitLookup(uint16)":"2595","precrime()":"2713","renounceOwnership()":"infinite","retryMessage(uint16,bytes,uint64,bytes)":"infinite","send(string)":"infinite","setConfig(uint16,uint16,uint256,bytes)":"infinite","setMinDstGas(uint16,uint16,uint256)":"infinite","setPayloadSizeLimit(uint16,uint256)":"24723","setPrecrime(address)":"28368","setReceiveVersion(uint16)":"infinite","setSendVersion(uint16)":"infinite","setTrustedRemote(uint16,bytes)":"infinite","setTrustedRemoteAddress(uint16,bytes)":"infinite","transferOwnership(address)":"28994","trustAddress(address)":"infinite","trustedRemoteLookup(uint16)":"infinite"},"internal":{"_nonblockingLzReceive(uint16,bytes memory,uint64,bytes memory)":"infinite"}},"methodIdentifiers":{"DEFAULT_PAYLOAD_SIZE_LIMIT()":"c4461834","__lzEndpoint()":"b00b2d2a","data()":"73d4a13a","endpointIdPair(address)":"b88aea37","failedMessages(uint16,bytes,uint64)":"5b8c41e6","forceResumeReceive(uint16,bytes)":"42d65a8d","getChainID()":"564b81ef","getConfig(uint16,uint16,address,uint256)":"f5ecbdbc","getTrustedRemoteAddress(uint16)":"9f38369a","isTrustedRemote(uint16,bytes)":"3d8b38f6","lzEndpoint()":"b353aaa7","lzReceive(uint16,bytes,uint64,bytes)":"001d3567","minDstGasLookup(uint16,uint16)":"8cfd8f5c","nonblockingLzReceive(uint16,bytes,uint64,bytes)":"66ad5c8a","owner()":"8da5cb5b","payloadSizeLimitLookup(uint16)":"3f1f4fa4","precrime()":"950c8a74","renounceOwnership()":"715018a6","retryMessage(uint16,bytes,uint64,bytes)":"d1deba1f","send(string)":"66792ba1","setConfig(uint16,uint16,uint256,bytes)":"cbed8b9c","setMinDstGas(uint16,uint16,uint256)":"df2a5b3b","setPayloadSizeLimit(uint16,uint256)":"0df37483","setPrecrime(address)":"baf3292d","setReceiveVersion(uint16)":"10ddb137","setSendVersion(uint16)":"07e0db17","setTrustedRemote(uint16,bytes)":"eb8d72b7","setTrustedRemoteAddress(uint16,bytes)":"a6c3d165","transferOwnership(address)":"f2fde38b","trustAddress(address)":"5cdf1649","trustedRemoteLookup(uint16)":"7533d788"}},"storageLayout":{"storage":[{"astId":1456,"contract":"contracts/bridge/LayerZeroTest.sol:LayerZeroTest","label":"_owner","offset":0,"slot":"0","type":"t_address"},{"astId":501,"contract":"contracts/bridge/LayerZeroTest.sol:LayerZeroTest","label":"trustedRemoteLookup","offset":0,"slot":"1","type":"t_mapping(t_uint16,t_bytes_storage)"},{"astId":507,"contract":"contracts/bridge/LayerZeroTest.sol:LayerZeroTest","label":"minDstGasLookup","offset":0,"slot":"2","type":"t_mapping(t_uint16,t_mapping(t_uint16,t_uint256))"},{"astId":511,"contract":"contracts/bridge/LayerZeroTest.sol:LayerZeroTest","label":"payloadSizeLimitLookup","offset":0,"slot":"3","type":"t_mapping(t_uint16,t_uint256)"},{"astId":513,"contract":"contracts/bridge/LayerZeroTest.sol:LayerZeroTest","label":"precrime","offset":0,"slot":"4","type":"t_address"},{"astId":1043,"contract":"contracts/bridge/LayerZeroTest.sol:LayerZeroTest","label":"failedMessages","offset":0,"slot":"5","type":"t_mapping(t_uint16,t_mapping(t_bytes_memory_ptr,t_mapping(t_uint64,t_bytes32)))"},{"astId":1650,"contract":"contracts/bridge/LayerZeroTest.sol:LayerZeroTest","label":"data","offset":0,"slot":"6","type":"t_string_storage"},{"astId":1654,"contract":"contracts/bridge/LayerZeroTest.sol:LayerZeroTest","label":"endpointIdPair","offset":0,"slot":"7","type":"t_mapping(t_address,t_uint16)"},{"astId":1656,"contract":"contracts/bridge/LayerZeroTest.sol:LayerZeroTest","label":"__lzEndpoint","offset":0,"slot":"8","type":"t_address"}],"types":{"t_address":{"encoding":"inplace","label":"address","numberOfBytes":"20"},"t_bytes32":{"encoding":"inplace","label":"bytes32","numberOfBytes":"32"},"t_bytes_memory_ptr":{"encoding":"bytes","label":"bytes","numberOfBytes":"32"},"t_bytes_storage":{"encoding":"bytes","label":"bytes","numberOfBytes":"32"},"t_mapping(t_address,t_uint16)":{"encoding":"mapping","key":"t_address","label":"mapping(address => uint16)","numberOfBytes":"32","value":"t_uint16"},"t_mapping(t_bytes_memory_ptr,t_mapping(t_uint64,t_bytes32))":{"encoding":"mapping","key":"t_bytes_memory_ptr","label":"mapping(bytes => mapping(uint64 => bytes32))","numberOfBytes":"32","value":"t_mapping(t_uint64,t_bytes32)"},"t_mapping(t_uint16,t_bytes_storage)":{"encoding":"mapping","key":"t_uint16","label":"mapping(uint16 => bytes)","numberOfBytes":"32","value":"t_bytes_storage"},"t_mapping(t_uint16,t_mapping(t_bytes_memory_ptr,t_mapping(t_uint64,t_bytes32)))":{"encoding":"mapping","key":"t_uint16","label":"mapping(uint16 => mapping(bytes => mapping(uint64 => bytes32)))","numberOfBytes":"32","value":"t_mapping(t_bytes_memory_ptr,t_mapping(t_uint64,t_bytes32))"},"t_mapping(t_uint16,t_mapping(t_uint16,t_uint256))":{"encoding":"mapping","key":"t_uint16","label":"mapping(uint16 => mapping(uint16 => uint256))","numberOfBytes":"32","value":"t_mapping(t_uint16,t_uint256)"},"t_mapping(t_uint16,t_uint256)":{"encoding":"mapping","key":"t_uint16","label":"mapping(uint16 => uint256)","numberOfBytes":"32","value":"t_uint256"},"t_mapping(t_uint64,t_bytes32)":{"encoding":"mapping","key":"t_uint64","label":"mapping(uint64 => bytes32)","numberOfBytes":"32","value":"t_bytes32"},"t_string_storage":{"encoding":"bytes","label":"string","numberOfBytes":"32"},"t_uint16":{"encoding":"inplace","label":"uint16","numberOfBytes":"2"},"t_uint256":{"encoding":"inplace","label":"uint256","numberOfBytes":"32"},"t_uint64":{"encoding":"inplace","label":"uint64","numberOfBytes":"8"}}},"userdoc":{"kind":"user","methods":{},"version":1}}}}