{"contracts/bridge/ChainLinkTest.sol":{"DataConsumerV3":{"abi":[{"inputs":[],"stateMutability":"nonpayable","type":"constructor"},{"inputs":[],"name":"getChainID","outputs":[{"internalType":"uint256","name":"","type":"uint256"}],"stateMutability":"view","type":"function"},{"inputs":[],"name":"getChainlinkDataFeedLatestAnswer","outputs":[{"internalType":"int256","name":"","type":"int256"}],"stateMutability":"view","type":"function"}],"devdoc":{"kind":"dev","methods":{},"version":1},"evm":{"bytecode":{"linkReferences":{},"object":"608060405234801561001057600080fd5b504661001b81610047565b50600080546001600160a01b03191673694aa1769357215de4fac081bf1f309adc3253061790556100c7565b6100908160405160240161005d91815260200190565b60408051601f198184030181529190526020810180516001600160e01b0390811663f82c50f160e01b1790915261009316565b50565b610090816100a660201b6100cb1760201c565b60006a636f6e736f6c652e6c6f679050600080835160208501845afa505050565b6101ae806100d66000396000f3fe608060405234801561001057600080fd5b50600436106100365760003560e01c8063564b81ef1461003b578063bea4dfb51461004f575b600080fd5b465b60405190815260200160405180910390f35b61003d6000805460408051633fabe5a360e21b8152905183926001600160a01b03169163feaf968c9160048083019260a09291908290030181865afa15801561009c573d6000803e3d6000fd5b505050506040513d601f19601f820116820180604052508101906100c09190610112565b509195945050505050565b60006a636f6e736f6c652e6c6f679050600080835160208501845afa505050565b6100f4610162565b565b80516001600160501b038116811461010d57600080fd5b919050565b600080600080600060a0868803121561012a57600080fd5b610133866100f6565b9450602086015193506040860151925060608601519150610156608087016100f6565b90509295509295909350565b634e487b7160e01b600052605160045260246000fdfea2646970667358221220caa656d7add0153669e18cecfa90e7af3c72480d9df70b74c9598b58fa44cd6164736f6c63430008140033","opcodes":"PUSH1 0x80 PUSH1 0x40 MSTORE CALLVALUE DUP1 ISZERO PUSH2 0x10 JUMPI PUSH1 0x0 DUP1 REVERT JUMPDEST POP CHAINID PUSH2 0x1B DUP2 PUSH2 0x47 JUMP JUMPDEST POP PUSH1 0x0 DUP1 SLOAD PUSH1 0x1 PUSH1 0x1 PUSH1 0xA0 SHL SUB NOT AND PUSH20 0x694AA1769357215DE4FAC081BF1F309ADC325306 OR SWAP1 SSTORE PUSH2 0xC7 JUMP JUMPDEST PUSH2 0x90 DUP2 PUSH1 0x40 MLOAD PUSH1 0x24 ADD PUSH2 0x5D SWAP2 DUP2 MSTORE PUSH1 0x20 ADD SWAP1 JUMP JUMPDEST PUSH1 0x40 DUP1 MLOAD PUSH1 0x1F NOT DUP2 DUP5 SUB ADD DUP2 MSTORE SWAP2 SWAP1 MSTORE PUSH1 0x20 DUP2 ADD DUP1 MLOAD PUSH1 0x1 PUSH1 0x1 PUSH1 0xE0 SHL SUB SWAP1 DUP2 AND PUSH4 0xF82C50F1 PUSH1 0xE0 SHL OR SWAP1 SWAP2 MSTORE PUSH2 0x93 AND JUMP JUMPDEST POP JUMP JUMPDEST PUSH2 0x90 DUP2 PUSH2 0xA6 PUSH1 0x20 SHL PUSH2 0xCB OR PUSH1 0x20 SHR JUMP JUMPDEST PUSH1 0x0 PUSH11 0x636F6E736F6C652E6C6F67 SWAP1 POP PUSH1 0x0 DUP1 DUP4 MLOAD PUSH1 0x20 DUP6 ADD DUP5 GAS STATICCALL POP POP POP JUMP JUMPDEST PUSH2 0x1AE DUP1 PUSH2 0xD6 PUSH1 0x0 CODECOPY PUSH1 0x0 RETURN INVALID PUSH1 0x80 PUSH1 0x40 MSTORE CALLVALUE DUP1 ISZERO PUSH2 0x10 JUMPI PUSH1 0x0 DUP1 REVERT JUMPDEST POP PUSH1 0x4 CALLDATASIZE LT PUSH2 0x36 JUMPI PUSH1 0x0 CALLDATALOAD PUSH1 0xE0 SHR DUP1 PUSH4 0x564B81EF EQ PUSH2 0x3B JUMPI DUP1 PUSH4 0xBEA4DFB5 EQ PUSH2 0x4F JUMPI JUMPDEST PUSH1 0x0 DUP1 REVERT JUMPDEST CHAINID JUMPDEST PUSH1 0x40 MLOAD SWAP1 DUP2 MSTORE PUSH1 0x20 ADD PUSH1 0x40 MLOAD DUP1 SWAP2 SUB SWAP1 RETURN JUMPDEST PUSH2 0x3D PUSH1 0x0 DUP1 SLOAD PUSH1 0x40 DUP1 MLOAD PUSH4 0x3FABE5A3 PUSH1 0xE2 SHL DUP2 MSTORE SWAP1 MLOAD DUP4 SWAP3 PUSH1 0x1 PUSH1 0x1 PUSH1 0xA0 SHL SUB AND SWAP2 PUSH4 0xFEAF968C SWAP2 PUSH1 0x4 DUP1 DUP4 ADD SWAP3 PUSH1 0xA0 SWAP3 SWAP2 SWAP1 DUP3 SWAP1 SUB ADD DUP2 DUP7 GAS STATICCALL ISZERO DUP1 ISZERO PUSH2 0x9C JUMPI RETURNDATASIZE PUSH1 0x0 DUP1 RETURNDATACOPY RETURNDATASIZE PUSH1 0x0 REVERT JUMPDEST POP POP POP POP PUSH1 0x40 MLOAD RETURNDATASIZE PUSH1 0x1F NOT PUSH1 0x1F DUP3 ADD AND DUP3 ADD DUP1 PUSH1 0x40 MSTORE POP DUP2 ADD SWAP1 PUSH2 0xC0 SWAP2 SWAP1 PUSH2 0x112 JUMP JUMPDEST POP SWAP2 SWAP6 SWAP5 POP POP POP POP POP JUMP JUMPDEST PUSH1 0x0 PUSH11 0x636F6E736F6C652E6C6F67 SWAP1 POP PUSH1 0x0 DUP1 DUP4 MLOAD PUSH1 0x20 DUP6 ADD DUP5 GAS STATICCALL POP POP POP JUMP JUMPDEST PUSH2 0xF4 PUSH2 0x162 JUMP JUMPDEST JUMP JUMPDEST DUP1 MLOAD PUSH1 0x1 PUSH1 0x1 PUSH1 0x50 SHL SUB DUP2 AND DUP2 EQ PUSH2 0x10D JUMPI PUSH1 0x0 DUP1 REVERT JUMPDEST SWAP2 SWAP1 POP JUMP JUMPDEST PUSH1 0x0 DUP1 PUSH1 0x0 DUP1 PUSH1 0x0 PUSH1 0xA0 DUP7 DUP9 SUB SLT ISZERO PUSH2 0x12A JUMPI PUSH1 0x0 DUP1 REVERT JUMPDEST PUSH2 0x133 DUP7 PUSH2 0xF6 JUMP JUMPDEST SWAP5 POP PUSH1 0x20 DUP7 ADD MLOAD SWAP4 POP PUSH1 0x40 DUP7 ADD MLOAD SWAP3 POP PUSH1 0x60 DUP7 ADD MLOAD SWAP2 POP PUSH2 0x156 PUSH1 0x80 DUP8 ADD PUSH2 0xF6 JUMP JUMPDEST SWAP1 POP SWAP3 SWAP6 POP SWAP3 SWAP6 SWAP1 SWAP4 POP JUMP JUMPDEST PUSH4 0x4E487B71 PUSH1 0xE0 SHL PUSH1 0x0 MSTORE PUSH1 0x51 PUSH1 0x4 MSTORE PUSH1 0x24 PUSH1 0x0 REVERT INVALID LOG2 PUSH5 0x6970667358 0x22 SLT KECCAK256 0xCA 0xA6 JUMP 0xD7 0xAD 0xD0 ISZERO CALLDATASIZE PUSH10 0xE18CECFA90E7AF3C7248 0xD SWAP14 0xF7 SIGNEXTEND PUSH21 0xC9598B58FA44CD6164736F6C634300081400330000 "},"gasEstimates":{"creation":{"codeDepositCost":"86000","executionCost":"infinite","totalCost":"infinite"},"external":{"getChainID()":"146","getChainlinkDataFeedLatestAnswer()":"infinite"}},"methodIdentifiers":{"getChainID()":"564b81ef","getChainlinkDataFeedLatestAnswer()":"bea4dfb5"}},"storageLayout":{"storage":[{"astId":1591,"contract":"contracts/bridge/ChainLinkTest.sol:DataConsumerV3","label":"dataFeed","offset":0,"slot":"0","type":"t_contract(AggregatorV3Interface)45"}],"types":{"t_contract(AggregatorV3Interface)45":{"encoding":"inplace","label":"contract AggregatorV3Interface","numberOfBytes":"20"}}},"userdoc":{"kind":"user","methods":{"constructor":{"notice":"Network: Fantom Testnet Aggregator: ETH/USD Address: 0xB8C458C957a6e6ca7Cc53eD95bEA548c52AFaA24"},"getChainlinkDataFeedLatestAnswer()":{"notice":"Returns the latest answer."}},"notice":"If you are reading data feeds on L2 networks, you must check the latest answer from the L2 Sequencer Uptime Feed to ensure that the data is accurate in the event of an L2 sequencer outage. See the https://docs.chain.link/data-feeds/l2-sequencer-feeds page for details.","version":1}}}}