{"contracts/bridge/TokenBridge.sol":{"TokenBridge":{"abi":[{"anonymous":false,"inputs":[{"indexed":false,"internalType":"address","name":"previousAdmin","type":"address"},{"indexed":false,"internalType":"address","name":"newAdmin","type":"address"}],"name":"AdminChanged","type":"event"},{"anonymous":false,"inputs":[{"indexed":true,"internalType":"address","name":"beacon","type":"address"}],"name":"BeaconUpgraded","type":"event"},{"anonymous":false,"inputs":[{"indexed":false,"internalType":"bool","name":"enabled","type":"bool"},{"indexed":false,"internalType":"uint256","name":"unlockTime","type":"uint256"}],"name":"EnableEmergencyWithdraw","type":"event"},{"anonymous":false,"inputs":[{"indexed":false,"internalType":"uint8","name":"version","type":"uint8"}],"name":"Initialized","type":"event"},{"anonymous":false,"inputs":[{"indexed":false,"internalType":"uint16","name":"_srcChainId","type":"uint16"},{"indexed":false,"internalType":"bytes","name":"_srcAddress","type":"bytes"},{"indexed":false,"internalType":"uint64","name":"_nonce","type":"uint64"},{"indexed":false,"internalType":"bytes","name":"_payload","type":"bytes"},{"indexed":false,"internalType":"bytes","name":"_reason","type":"bytes"}],"name":"MessageFailed","type":"event"},{"anonymous":false,"inputs":[{"indexed":true,"internalType":"address","name":"previousOwner","type":"address"},{"indexed":true,"internalType":"address","name":"newOwner","type":"address"}],"name":"OwnershipTransferred","type":"event"},{"anonymous":false,"inputs":[{"indexed":true,"internalType":"address","name":"token","type":"address"},{"indexed":true,"internalType":"address","name":"to","type":"address"},{"indexed":false,"internalType":"uint256","name":"amountLD","type":"uint256"}],"name":"Receive","type":"event"},{"anonymous":false,"inputs":[{"indexed":false,"internalType":"address","name":"token","type":"address"}],"name":"RegisterToken","type":"event"},{"anonymous":false,"inputs":[{"indexed":false,"internalType":"uint16","name":"_srcChainId","type":"uint16"},{"indexed":false,"internalType":"bytes","name":"_srcAddress","type":"bytes"},{"indexed":false,"internalType":"uint64","name":"_nonce","type":"uint64"},{"indexed":false,"internalType":"bytes32","name":"_payloadHash","type":"bytes32"}],"name":"RetryMessageSuccess","type":"event"},{"anonymous":false,"inputs":[{"indexed":true,"internalType":"address","name":"token","type":"address"},{"indexed":true,"internalType":"address","name":"from","type":"address"},{"indexed":true,"internalType":"address","name":"to","type":"address"},{"indexed":false,"internalType":"uint256","name":"amountLD","type":"uint256"}],"name":"Send","type":"event"},{"anonymous":false,"inputs":[{"indexed":false,"internalType":"uint16","name":"aptosChainId","type":"uint16"}],"name":"SetAptosChainId","type":"event"},{"anonymous":false,"inputs":[{"indexed":false,"internalType":"uint256","name":"bridgeFeeBP","type":"uint256"}],"name":"SetBridgeBP","type":"event"},{"anonymous":false,"inputs":[{"indexed":false,"internalType":"bool","name":"paused","type":"bool"}],"name":"SetGlobalPause","type":"event"},{"anonymous":false,"inputs":[{"indexed":false,"internalType":"uint16","name":"localChainId","type":"uint16"}],"name":"SetLocalChainId","type":"event"},{"anonymous":false,"inputs":[{"indexed":false,"internalType":"uint16","name":"_dstChainId","type":"uint16"},{"indexed":false,"internalType":"uint16","name":"_type","type":"uint16"},{"indexed":false,"internalType":"uint256","name":"_minDstGas","type":"uint256"}],"name":"SetMinDstGas","type":"event"},{"anonymous":false,"inputs":[{"indexed":false,"internalType":"address","name":"precrime","type":"address"}],"name":"SetPrecrime","type":"event"},{"anonymous":false,"inputs":[{"indexed":false,"internalType":"address","name":"token","type":"address"},{"indexed":false,"internalType":"bool","name":"paused","type":"bool"}],"name":"SetTokenPause","type":"event"},{"anonymous":false,"inputs":[{"indexed":false,"internalType":"uint16","name":"_remoteChainId","type":"uint16"},{"indexed":false,"internalType":"bytes","name":"_path","type":"bytes"}],"name":"SetTrustedRemote","type":"event"},{"anonymous":false,"inputs":[{"indexed":false,"internalType":"uint16","name":"_remoteChainId","type":"uint16"},{"indexed":false,"internalType":"bytes","name":"_remoteAddress","type":"bytes"}],"name":"SetTrustedRemoteAddress","type":"event"},{"anonymous":false,"inputs":[{"indexed":false,"internalType":"bool","name":"useCustomAdapterParams","type":"bool"}],"name":"SetUseCustomAdapterParams","type":"event"},{"anonymous":false,"inputs":[{"indexed":false,"internalType":"address","name":"weth","type":"address"}],"name":"SetWETH","type":"event"},{"anonymous":false,"inputs":[{"indexed":true,"internalType":"address","name":"implementation","type":"address"}],"name":"Upgraded","type":"event"},{"anonymous":false,"inputs":[{"indexed":true,"internalType":"address","name":"token","type":"address"},{"indexed":false,"internalType":"address","name":"to","type":"address"},{"indexed":false,"internalType":"uint256","name":"amountLD","type":"uint256"}],"name":"WithdrawFee","type":"event"},{"anonymous":false,"inputs":[{"indexed":true,"internalType":"address","name":"token","type":"address"},{"indexed":false,"internalType":"address","name":"to","type":"address"},{"indexed":false,"internalType":"uint256","name":"amountLD","type":"uint256"}],"name":"WithdrawTVL","type":"event"},{"inputs":[],"name":"BP_DENOMINATOR","outputs":[{"internalType":"uint256","name":"","type":"uint256"}],"stateMutability":"view","type":"function"},{"inputs":[],"name":"DEFAULT_PAYLOAD_SIZE_LIMIT","outputs":[{"internalType":"uint256","name":"","type":"uint256"}],"stateMutability":"view","type":"function"},{"inputs":[],"name":"SHARED_DECIMALS","outputs":[{"internalType":"uint8","name":"","type":"uint8"}],"stateMutability":"view","type":"function"},{"inputs":[{"internalType":"address","name":"_token","type":"address"}],"name":"accruedFeeLD","outputs":[{"internalType":"uint256","name":"","type":"uint256"}],"stateMutability":"view","type":"function"},{"inputs":[],"name":"bridgeFeeBP","outputs":[{"internalType":"uint256","name":"","type":"uint256"}],"stateMutability":"view","type":"function"},{"inputs":[],"name":"dataFeed","outputs":[{"internalType":"contract AggregatorV3Interface","name":"","type":"address"}],"stateMutability":"view","type":"function"},{"inputs":[],"name":"emergencyWithdrawEnabled","outputs":[{"internalType":"bool","name":"","type":"bool"}],"stateMutability":"view","type":"function"},{"inputs":[],"name":"emergencyWithdrawTime","outputs":[{"internalType":"uint256","name":"","type":"uint256"}],"stateMutability":"view","type":"function"},{"inputs":[{"internalType":"uint16","name":"","type":"uint16"}],"name":"enableChain","outputs":[{"internalType":"bool","name":"","type":"bool"}],"stateMutability":"view","type":"function"},{"inputs":[{"internalType":"bool","name":"enabled","type":"bool"}],"name":"enableEmergencyWithdraw","outputs":[],"stateMutability":"nonpayable","type":"function"},{"inputs":[{"internalType":"uint16","name":"","type":"uint16"},{"internalType":"bytes","name":"","type":"bytes"},{"internalType":"uint64","name":"","type":"uint64"}],"name":"failedMessages","outputs":[{"internalType":"bytes32","name":"","type":"bytes32"}],"stateMutability":"view","type":"function"},{"inputs":[{"internalType":"uint16","name":"_srcChainId","type":"uint16"},{"internalType":"bytes","name":"_srcAddress","type":"bytes"}],"name":"forceResumeReceive","outputs":[],"stateMutability":"nonpayable","type":"function"},{"inputs":[],"name":"getChainID","outputs":[{"internalType":"uint256","name":"","type":"uint256"}],"stateMutability":"view","type":"function"},{"inputs":[],"name":"getChainlinkDataFeedLatestAnswer","outputs":[{"internalType":"int256","name":"","type":"int256"}],"stateMutability":"view","type":"function"},{"inputs":[{"internalType":"uint16","name":"_version","type":"uint16"},{"internalType":"uint16","name":"_chainId","type":"uint16"},{"internalType":"address","name":"","type":"address"},{"internalType":"uint256","name":"_configType","type":"uint256"}],"name":"getConfig","outputs":[{"internalType":"bytes","name":"","type":"bytes"}],"stateMutability":"view","type":"function"},{"inputs":[{"internalType":"uint16","name":"_remoteChainId","type":"uint16"}],"name":"getTrustedRemoteAddress","outputs":[{"internalType":"bytes","name":"","type":"bytes"}],"stateMutability":"view","type":"function"},{"inputs":[],"name":"globalPaused","outputs":[{"internalType":"bool","name":"","type":"bool"}],"stateMutability":"view","type":"function"},{"inputs":[{"internalType":"address","name":"_layerZeroEndpoint","type":"address"}],"name":"initialize","outputs":[],"stateMutability":"nonpayable","type":"function"},{"inputs":[{"internalType":"uint16","name":"_srcChainId","type":"uint16"},{"internalType":"bytes","name":"_srcAddress","type":"bytes"}],"name":"isTrustedRemote","outputs":[{"internalType":"bool","name":"","type":"bool"}],"stateMutability":"view","type":"function"},{"inputs":[],"name":"lzEndpoint","outputs":[{"internalType":"contract ILayerZeroEndpoint","name":"","type":"address"}],"stateMutability":"view","type":"function"},{"inputs":[{"internalType":"uint16","name":"_srcChainId","type":"uint16"},{"internalType":"bytes","name":"_srcAddress","type":"bytes"},{"internalType":"uint64","name":"_nonce","type":"uint64"},{"internalType":"bytes","name":"_payload","type":"bytes"}],"name":"lzReceive","outputs":[],"stateMutability":"nonpayable","type":"function"},{"inputs":[{"internalType":"uint16","name":"","type":"uint16"},{"internalType":"uint16","name":"","type":"uint16"}],"name":"minDstGasLookup","outputs":[{"internalType":"uint256","name":"","type":"uint256"}],"stateMutability":"view","type":"function"},{"inputs":[{"internalType":"uint16","name":"_srcChainId","type":"uint16"},{"internalType":"bytes","name":"_srcAddress","type":"bytes"},{"internalType":"uint64","name":"_nonce","type":"uint64"},{"internalType":"bytes","name":"_payload","type":"bytes"}],"name":"nonblockingLzReceive","outputs":[],"stateMutability":"nonpayable","type":"function"},{"inputs":[],"name":"owner","outputs":[{"internalType":"address","name":"","type":"address"}],"stateMutability":"view","type":"function"},{"inputs":[{"internalType":"address","name":"","type":"address"}],"name":"pausedTokens","outputs":[{"internalType":"bool","name":"","type":"bool"}],"stateMutability":"view","type":"function"},{"inputs":[{"internalType":"uint16","name":"","type":"uint16"}],"name":"payloadSizeLimitLookup","outputs":[{"internalType":"uint256","name":"","type":"uint256"}],"stateMutability":"view","type":"function"},{"inputs":[],"name":"precrime","outputs":[{"internalType":"address","name":"","type":"address"}],"stateMutability":"view","type":"function"},{"inputs":[{"internalType":"uint256","name":"","type":"uint256"}],"name":"priceFeed","outputs":[{"internalType":"address","name":"","type":"address"}],"stateMutability":"view","type":"function"},{"inputs":[],"name":"proxiableUUID","outputs":[{"internalType":"bytes32","name":"","type":"bytes32"}],"stateMutability":"view","type":"function"},{"inputs":[{"internalType":"uint16","name":"_toLzDestChain","type":"uint16"},{"components":[{"internalType":"address payable","name":"refundAddress","type":"address"},{"internalType":"address","name":"zroPaymentAddress","type":"address"}],"internalType":"struct LzLib.CallParams","name":"_callParams","type":"tuple"},{"internalType":"bytes","name":"_adapterParams","type":"bytes"}],"name":"quoteForSend","outputs":[{"internalType":"uint256","name":"nativeFee","type":"uint256"},{"internalType":"uint256","name":"zroFee","type":"uint256"}],"stateMutability":"view","type":"function"},{"inputs":[],"name":"renounceOwnership","outputs":[],"stateMutability":"nonpayable","type":"function"},{"inputs":[{"internalType":"uint16","name":"_srcChainId","type":"uint16"},{"internalType":"bytes","name":"_srcAddress","type":"bytes"},{"internalType":"uint64","name":"_nonce","type":"uint64"},{"internalType":"bytes","name":"_payload","type":"bytes"}],"name":"retryMessage","outputs":[],"stateMutability":"payable","type":"function"},{"inputs":[{"internalType":"uint16","name":"_toLzDestChain","type":"uint16"},{"internalType":"address","name":"_toAddress","type":"address"},{"internalType":"uint256","name":"_amountIn","type":"uint256"},{"components":[{"internalType":"address payable","name":"refundAddress","type":"address"},{"internalType":"address","name":"zroPaymentAddress","type":"address"}],"internalType":"struct LzLib.CallParams","name":"_callParams","type":"tuple"},{"internalType":"bytes","name":"_adapterParams","type":"bytes"}],"name":"sendETHToDest","outputs":[],"stateMutability":"payable","type":"function"},{"inputs":[{"internalType":"uint16","name":"_toLzDestChain","type":"uint16"},{"internalType":"address","name":"_tokenIn","type":"address"},{"internalType":"uint256","name":"_amountIn","type":"uint256"},{"internalType":"address","name":"_tokenOut","type":"address"},{"internalType":"address","name":"_toAddress","type":"address"},{"components":[{"internalType":"address payable","name":"refundAddress","type":"address"},{"internalType":"address","name":"zroPaymentAddress","type":"address"}],"internalType":"struct LzLib.CallParams","name":"_callParams","type":"tuple"},{"internalType":"bytes","name":"_adapterParams","type":"bytes"}],"name":"sendTokenToDest","outputs":[],"stateMutability":"payable","type":"function"},{"inputs":[{"internalType":"uint256","name":"_bridgeFeeBP","type":"uint256"}],"name":"setBridgeFeeBP","outputs":[],"stateMutability":"nonpayable","type":"function"},{"inputs":[{"internalType":"uint16","name":"_version","type":"uint16"},{"internalType":"uint16","name":"_chainId","type":"uint16"},{"internalType":"uint256","name":"_configType","type":"uint256"},{"internalType":"bytes","name":"_config","type":"bytes"}],"name":"setConfig","outputs":[],"stateMutability":"nonpayable","type":"function"},{"inputs":[{"internalType":"uint16","name":"_lzDestChainId","type":"uint16"},{"internalType":"bool","name":"enable","type":"bool"}],"name":"setEnableChain","outputs":[],"stateMutability":"nonpayable","type":"function"},{"inputs":[{"internalType":"bool","name":"_paused","type":"bool"}],"name":"setGlobalPause","outputs":[],"stateMutability":"nonpayable","type":"function"},{"inputs":[{"internalType":"uint16","name":"_dstChainId","type":"uint16"},{"internalType":"uint16","name":"_packetType","type":"uint16"},{"internalType":"uint256","name":"_minGas","type":"uint256"}],"name":"setMinDstGas","outputs":[],"stateMutability":"nonpayable","type":"function"},{"inputs":[{"internalType":"uint16","name":"_dstChainId","type":"uint16"},{"internalType":"uint256","name":"_size","type":"uint256"}],"name":"setPayloadSizeLimit","outputs":[],"stateMutability":"nonpayable","type":"function"},{"inputs":[{"internalType":"address","name":"_precrime","type":"address"}],"name":"setPrecrime","outputs":[],"stateMutability":"nonpayable","type":"function"},{"inputs":[{"internalType":"uint16","name":"_version","type":"uint16"}],"name":"setReceiveVersion","outputs":[],"stateMutability":"nonpayable","type":"function"},{"inputs":[{"internalType":"uint16","name":"_version","type":"uint16"}],"name":"setSendVersion","outputs":[],"stateMutability":"nonpayable","type":"function"},{"inputs":[{"internalType":"address","name":"_token","type":"address"},{"internalType":"bool","name":"_paused","type":"bool"}],"name":"setTokenPause","outputs":[],"stateMutability":"nonpayable","type":"function"},{"inputs":[{"internalType":"uint16","name":"_remoteChainId","type":"uint16"},{"internalType":"bytes","name":"_path","type":"bytes"}],"name":"setTrustedRemote","outputs":[],"stateMutability":"nonpayable","type":"function"},{"inputs":[{"internalType":"uint16","name":"_remoteChainId","type":"uint16"},{"internalType":"bytes","name":"_remoteAddress","type":"bytes"}],"name":"setTrustedRemoteAddress","outputs":[],"stateMutability":"nonpayable","type":"function"},{"inputs":[{"internalType":"bool","name":"_useCustomAdapterParams","type":"bool"}],"name":"setUseCustomAdapterParams","outputs":[],"stateMutability":"nonpayable","type":"function"},{"inputs":[{"internalType":"address","name":"_weth","type":"address"}],"name":"setWETH","outputs":[],"stateMutability":"nonpayable","type":"function"},{"inputs":[{"internalType":"address","name":"","type":"address"}],"name":"supportedTokens","outputs":[{"internalType":"bool","name":"","type":"bool"}],"stateMutability":"view","type":"function"},{"inputs":[],"name":"toLzChainId","outputs":[{"internalType":"uint16","name":"","type":"uint16"}],"stateMutability":"view","type":"function"},{"inputs":[{"internalType":"address","name":"newOwner","type":"address"}],"name":"transferOwnership","outputs":[],"stateMutability":"nonpayable","type":"function"},{"inputs":[{"internalType":"uint16","name":"_lzDestChainId","type":"uint16"},{"internalType":"address","name":"_otherContract","type":"address"}],"name":"trustAddress","outputs":[],"stateMutability":"nonpayable","type":"function"},{"inputs":[{"internalType":"uint16","name":"","type":"uint16"}],"name":"trustedRemoteLookup","outputs":[{"internalType":"bytes","name":"","type":"bytes"}],"stateMutability":"view","type":"function"},{"inputs":[{"internalType":"address","name":"","type":"address"}],"name":"tvlSDs","outputs":[{"internalType":"uint256","name":"","type":"uint256"}],"stateMutability":"view","type":"function"},{"inputs":[{"internalType":"address","name":"newImplementation","type":"address"}],"name":"upgradeTo","outputs":[],"stateMutability":"nonpayable","type":"function"},{"inputs":[{"internalType":"address","name":"newImplementation","type":"address"},{"internalType":"bytes","name":"data","type":"bytes"}],"name":"upgradeToAndCall","outputs":[],"stateMutability":"payable","type":"function"},{"inputs":[],"name":"useCustomAdapterParams","outputs":[{"internalType":"bool","name":"","type":"bool"}],"stateMutability":"view","type":"function"},{"inputs":[],"name":"weth","outputs":[{"internalType":"address","name":"","type":"address"}],"stateMutability":"view","type":"function"},{"inputs":[{"internalType":"address","name":"_token","type":"address"},{"internalType":"address","name":"_to","type":"address"}],"name":"withdrawEmergency","outputs":[],"stateMutability":"nonpayable","type":"function"},{"inputs":[{"internalType":"address","name":"_token","type":"address"},{"internalType":"address","name":"_to","type":"address"},{"internalType":"uint256","name":"_amountLD","type":"uint256"}],"name":"withdrawFee","outputs":[],"stateMutability":"nonpayable","type":"function"},{"inputs":[{"internalType":"address","name":"_token","type":"address"},{"internalType":"address","name":"_to","type":"address"},{"internalType":"uint256","name":"_amount","type":"uint256"}],"name":"withdrawTVL","outputs":[],"stateMutability":"nonpayable","type":"function"},{"stateMutability":"payable","type":"receive"}],"devdoc":{"events":{"AdminChanged(address,address)":{"details":"Emitted when the admin account has changed."},"BeaconUpgraded(address)":{"details":"Emitted when the beacon is changed."},"Initialized(uint8)":{"details":"Triggered when the contract has been initialized or reinitialized."},"Upgraded(address)":{"details":"Emitted when the implementation is upgraded."}},"kind":"dev","methods":{"owner()":{"details":"Returns the address of the current owner."},"proxiableUUID()":{"details":"Implementation of the ERC1822 {proxiableUUID} function. This returns the storage slot used by the implementation. It is used to validate the implementation's compatibility when performing an upgrade. IMPORTANT: A proxy pointing at a proxiable contract should not be considered proxiable itself, because this risks bricking a proxy that upgrades to it, by delegating to itself until out of gas. Thus it is critical that this function revert if invoked through a proxy. This is guaranteed by the `notDelegated` modifier."},"renounceOwnership()":{"details":"Leaves the contract without owner. It will not be possible to call `onlyOwner` functions. Can only be called by the current owner. NOTE: Renouncing ownership will leave the contract without an owner, thereby disabling any functionality that is only available to the owner."},"transferOwnership(address)":{"details":"Transfers ownership of the contract to a new account (`newOwner`). Can only be called by the current owner."},"upgradeTo(address)":{"custom:oz-upgrades-unsafe-allow-reachable":"delegatecall","details":"Upgrade the implementation of the proxy to `newImplementation`. Calls {_authorizeUpgrade}. Emits an {Upgraded} event."},"upgradeToAndCall(address,bytes)":{"custom:oz-upgrades-unsafe-allow-reachable":"delegatecall","details":"Upgrade the implementation of the proxy to `newImplementation`, and subsequently execute the function call encoded in `data`. Calls {_authorizeUpgrade}. Emits an {Upgraded} event."}},"version":1},"evm":{"bytecode":{"linkReferences":{},"object":"60a06040523060805234801561001457600080fd5b5060805161573c6200004d60003960008181610eed01528181610f2d015281816113120152818161135201526113ce015261573c6000f3fe6080604052600436106102b45760003560e01c80620d5900146102c05780621d3567146102e257806307e0db17146103025780630df37483146103225780631095b6d71461034257806310ddb1371461036257806325a9f792146103825780633659cfe6146103ac5780633bd0536b146103cc5780633d8b38f6146103df5780633f1f4fa41461040f5780633fc8cef31461043c57806342d65a8d1461046a5780634f1ef2861461048a57806352d1902d1461049d578063564b81ef146104b25780635747e69f146104c557806359d91cd7146104e75780635b769f3c146105075780635b8c41e61461052757806361a552dc1461057757806366ad5c8a1461059957806368c4ac26146105b957806369a6b3db146105ea578063715018a61461060a57806373afbcaa1461061f5780637533d7881461063f5780637a38d7601461066c5780637d5f5bd41461069b5780638cfd8f5c146106d05780638da5cb5b1461070857806393f26a4c1461071d578063950c8a741461073d578063971679641461075d5780639e42ff90146107845780639f38369a146107a5578063a2f27ae0146107c5578063a6c3d165146107e5578063abe685cd14610805578063b353aaa71461081b578063b5f970731461083b578063b790d7c114610872578063b90fc4a514610885578063baf3292d146108a5578063bea4dfb5146108c5578063c446183414610805578063c4d66de8146108da578063cb8d3b1f146108fa578063cbed8b9c1461091a578063d1deba1f1461093a578063d71e409e1461094d578063de9b94881461096d578063df2a5b3b14610984578063df4bbc1c146109a4578063e3179c3e146109d5578063eab45d9c14610a03578063eb8d72b714610a23578063ed629c5c14610a43578063ee7a459614610a65578063f2fde38b14610a96578063f5ecbdbc14610ab657600080fd5b366102bb57005b600080fd5b3480156102cc57600080fd5b506102e06102db366004614566565b610ad6565b005b3480156102ee57600080fd5b506102e06102fd3660046145f5565b610b72565b34801561030e57600080fd5b506102e061031d366004614688565b610d89565b34801561032e57600080fd5b506102e061033d3660046146a3565b610df6565b34801561034e57600080fd5b506102e061035d3660046146e2565b610e15565b34801561036e57600080fd5b506102e061037d366004614688565b610ea7565b34801561038e57600080fd5b506103996101025481565b6040519081526020015b60405180910390f35b3480156103b857600080fd5b506102e06103c7366004614723565b610ee3565b6102e06103da366004614758565b610fab565b3480156103eb57600080fd5b506103ff6103fa3660046147ff565b6111d2565b60405190151581526020016103a3565b34801561041b57600080fd5b5061039961042a366004614688565b60fe6020526000908152604090205481565b34801561044857600080fd5b506101085461045d906001600160a01b031681565b6040516103a39190614851565b34801561047657600080fd5b506102e06104853660046147ff565b61129e565b6102e0610498366004614928565b611308565b3480156104a957600080fd5b506103996113c1565b3480156104be57600080fd5b5046610399565b3480156104d157600080fd5b50610108546103ff90600160b01b900460ff1681565b3480156104f357600080fd5b506102e0610502366004614985565b61146f565b34801561051357600080fd5b506102e0610522366004614723565b61149e565b34801561053357600080fd5b506103996105423660046149bc565b610100602090815260009384526040808520845180860184018051928152908401958401959095209452929052825290205481565b34801561058357600080fd5b50610108546103ff90600160a81b900460ff1681565b3480156105a557600080fd5b506102e06105b43660046145f5565b611553565b3480156105c557600080fd5b506103ff6105d4366004614723565b6101046020526000908152604090205460ff1681565b3480156105f657600080fd5b506102e0610605366004614a19565b61162f565b34801561061657600080fd5b506102e0611685565b34801561062b57600080fd5b506102e061063a366004614a36565b61168f565b34801561064b57600080fd5b5061065f61065a366004614688565b611766565b6040516103a39190614ab2565b34801561067857600080fd5b50610101546106889061ffff1681565b60405161ffff90911681526020016103a3565b3480156106a757600080fd5b506106bb6106b6366004614ac5565b611800565b604080519283526020830191909152016103a3565b3480156106dc57600080fd5b506103996106eb366004614b26565b60fd60209081526000928352604080842090915290825290205481565b34801561071457600080fd5b5061045d6118c2565b34801561072957600080fd5b506102e0610738366004614b59565b6118d1565b34801561074957600080fd5b5060ff5461045d906001600160a01b031681565b34801561076957600080fd5b50610772600681565b60405160ff90911681526020016103a3565b34801561079057600080fd5b5061010a5461045d906001600160a01b031681565b3480156107b157600080fd5b5061065f6107c0366004614688565b61190e565b3480156107d157600080fd5b506103996107e0366004614723565b611a24565b3480156107f157600080fd5b506102e06108003660046147ff565b611ab4565b34801561081157600080fd5b5061039961271081565b34801561082757600080fd5b5060fb5461045d906001600160a01b031681565b34801561084757600080fd5b5061045d610856366004614566565b610106602052600090815260409020546001600160a01b031681565b6102e0610880366004614b77565b611b3d565b34801561089157600080fd5b506102e06108a03660046146e2565b611dca565b3480156108b157600080fd5b506102e06108c0366004614723565b611ed5565b3480156108d157600080fd5b50610399611f28565b3480156108e657600080fd5b506102e06108f5366004614723565b611fae565b34801561090657600080fd5b506102e0610915366004614be6565b61208f565b34801561092657600080fd5b506102e0610935366004614c04565b6120f4565b6102e06109483660046145f5565b612162565b34801561095957600080fd5b506102e0610968366004614a19565b61237a565b34801561097957600080fd5b506103996101095481565b34801561099057600080fd5b506102e061099f366004614c72565b6123f2565b3480156109b057600080fd5b506103ff6109bf366004614688565b6101076020526000908152604090205460ff1681565b3480156109e157600080fd5b506103996109f0366004614723565b6101036020526000908152604090205481565b348015610a0f57600080fd5b506102e0610a1e366004614a19565b61245c565b348015610a2f57600080fd5b506102e0610a3e3660046147ff565b6124b2565b348015610a4f57600080fd5b50610108546103ff90600160a01b900460ff1681565b348015610a7157600080fd5b506103ff610a80366004614723565b6101056020526000908152604090205460ff1681565b348015610aa257600080fd5b506102e0610ab1366004614723565b61250c565b348015610ac257600080fd5b5061065f610ad1366004614cae565b612582565b610ade612617565b612710811115610b355760405162461bcd60e51b815260206004820152601e60248201527f546f6b656e4272696467653a2062726964676520666565203e2031303025000060448201526064015b60405180910390fd5b6101028190556040518181527f9a749c8193bfd56b2b2a05c0bd18fbb0f69801a3fd6576c40b90537fd0fc3854906020015b60405180910390a150565b60fb546001600160a01b0316336001600160a01b031614610bd55760405162461bcd60e51b815260206004820152601e60248201527f4c7a4170703a20696e76616c696420656e64706f696e742063616c6c657200006044820152606401610b2c565b61ffff8616600090815260fc602052604081208054610bf390614cfb565b80601f0160208091040260200160405190810160405280929190818152602001828054610c1f90614cfb565b8015610c6c5780601f10610c4157610100808354040283529160200191610c6c565b820191906000526020600020905b815481529060010190602001808311610c4f57829003601f168201915b50505050509050805186869050148015610c87575060008151115b8015610caf575080516020820120604051610ca59088908890614d2f565b6040518091039020145b610d0a5760405162461bcd60e51b815260206004820152602660248201527f4c7a4170703a20696e76616c696420736f757263652073656e64696e6720636f6044820152651b9d1c9858dd60d21b6064820152608401610b2c565b610d808787878080601f01602080910402602001604051908101604052809392919081815260200183838082843760009201919091525050604080516020601f8a018190048102820181019092528881528a93509150889088908190840183828082843760009201919091525061267692505050565b50505050505050565b610d91612617565b60fb546040516307e0db1760e01b815261ffff831660048201526001600160a01b03909116906307e0db17906024015b600060405180830381600087803b158015610ddb57600080fd5b505af1158015610def573d6000803e3d6000fd5b5050505050565b610dfe612617565b61ffff909116600090815260fe6020526040902055565b610e1d612617565b6000610e2884611a24565b905080821115610e4a5760405162461bcd60e51b8152600401610b2c90614d3f565b610e5e6001600160a01b03851684846126ef565b836001600160a01b03167ff15a0a3784dea9b4fe33bc98e2450745e262d310237b2868ea8ef56967ff3ecb8484604051610e99929190614d74565b60405180910390a250505050565b610eaf612617565b60fb546040516310ddb13760e01b815261ffff831660048201526001600160a01b03909116906310ddb13790602401610dc1565b6001600160a01b037f0000000000000000000000000000000000000000000000000000000000000000163003610f2b5760405162461bcd60e51b8152600401610b2c90614d8d565b7f00000000000000000000000000000000000000000000000000000000000000006001600160a01b0316610f5d612745565b6001600160a01b031614610f835760405162461bcd60e51b8152600401610b2c90614dc7565b610f8c81612761565b60408051600080825260208201909252610fa891839190612769565b50565b610108548790600160a81b900460ff16158015610fe257506001600160a01b0381166000908152610105602052604090205460ff16155b610ffe5760405162461bcd60e51b8152600401610b2c90614e01565b6110066128d4565b6001600160a01b0388166000908152610104602052604090205460ff16801561104857506001600160a01b0386166000908152610104602052604090205460ff165b6110b85760405162461bcd60e51b815260206004820152603b60248201527f546f6b656e4272696467653a20696e70757420746f6b656e20616e64206f757460448201527a1c1d5d081d1bdad95b88185c99481b9bdd081cdd5c1c1bdc9d1959602a1b6064820152608401610b2c565b6110c388338961292d565b965060006110d18989612a3a565b9050600088116111385760405162461bcd60e51b815260206004820152602c60248201527f546f6b656e4272696467653a20616d6f756e74496e206d75737420626520677260448201526b06561746572207468616e20360a41b6064820152608401610b2c565b6001600160a01b03891660009081526101036020526040812080548a9290611161908490614e44565b9091555061117790508a82898989898934612c9f565b856001600160a01b0316336001600160a01b03168a6001600160a01b03166000805160206156608339815191528b6040516111b491815260200190565b60405180910390a4506111c7600160c955565b505050505050505050565b61ffff8316600090815260fc6020526040812080548291906111f390614cfb565b80601f016020809104026020016040519081016040528092919081815260200182805461121f90614cfb565b801561126c5780601f106112415761010080835404028352916020019161126c565b820191906000526020600020905b81548152906001019060200180831161124f57829003601f168201915b505050505090508383604051611283929190614d2f565b60405180910390208180519060200120149150509392505050565b6112a6612617565b60fb546040516342d65a8d60e01b81526001600160a01b03909116906342d65a8d906112da90869086908690600401614e80565b600060405180830381600087803b1580156112f457600080fd5b505af1158015610d80573d6000803e3d6000fd5b6001600160a01b037f00000000000000000000000000000000000000000000000000000000000000001630036113505760405162461bcd60e51b8152600401610b2c90614d8d565b7f00000000000000000000000000000000000000000000000000000000000000006001600160a01b0316611382612745565b6001600160a01b0316146113a85760405162461bcd60e51b8152600401610b2c90614dc7565b6113b182612761565b6113bd82826001612769565b5050565b6000306001600160a01b037f0000000000000000000000000000000000000000000000000000000000000000161461145c5760405162461bcd60e51b815260206004820152603860248201527f555550535570677261646561626c653a206d757374206e6f742062652063616c6044820152771b1959081d1a1c9bdd59da0819195b1959d85d1958d85b1b60421b6064820152608401610b2c565b506000805160206156a083398151915290565b611477612617565b61ffff91909116600090815261010760205260409020805460ff1916911515919091179055565b6114a6612617565b6001600160a01b0381166115075760405162461bcd60e51b815260206004820152602260248201527f546f6b656e4272696467653a20696e76616c696420746f6b656e206164647265604482015261737360f01b6064820152608401610b2c565b61010880546001600160a01b0319166001600160a01b0383161790556040517fe390bcec6614d6b1f8ae47a4d9d46531ce328e3d293ecd6ddd015cb01eff030090610b67908390614851565b3330146115b15760405162461bcd60e51b815260206004820152602660248201527f4e6f6e626c6f636b696e674c7a4170703a2063616c6c6572206d7573742062656044820152650204c7a4170760d41b6064820152608401610b2c565b6116278686868080601f01602080910402602001604051908101604052809392919081815260200183838082843760009201919091525050604080516020601f890181900481028201810190925287815289935091508790879081908401838280828437600092019190915250612d4192505050565b505050505050565b611637612617565b6101088054821515600160a81b0260ff60a81b199091161790556040517f5362d4bd13945e8d116b90d83a7050fa61ceb02bb79bfae783377adb46916d9490610b6790831515815260200190565b61168d612617565b565b611697612617565b61ffff82166000908152610107602052604090205460ff166117125760405162461bcd60e51b815260206004820152602e60248201527f546f6b656e4272696467653a2074686973206465737420636861696e2069642060448201526d1a5cc81b9bdd08195b98589b195960921b6064820152608401610b2c565b6040516001600160601b0319606083811b8216602084015230901b16603482015260480160408051601f1981840301815291815261ffff8416600090815260fc60205220906117619082614ef9565b505050565b60fc602052600090815260409020805461177f90614cfb565b80601f01602080910402602001604051908101604052809291908181526020018280546117ab90614cfb565b80156117f85780601f106117cd576101008083540402835291602001916117f8565b820191906000526020600020905b8154815290600101906020018083116117db57829003601f168201915b505050505081565b60008061180d8484613137565b600061181c6000806000613207565b90506000806118316040890160208a01614723565b60fb5460405163040a7bb160e41b81526001600160a01b039283169390931415935016906340a7bb1090611873908b903090879087908d908d90600401614fb2565b6040805180830381865afa15801561188f573d6000803e3d6000fd5b505050506040513d601f19601f820116820180604052508101906118b39190615008565b93509350505094509492505050565b6097546001600160a01b031690565b6118d9612617565b6118e7828261035d85611a24565b6001600160a01b038216600090815261010360205260409020546113bd9083908390611dca565b61ffff8116600090815260fc602052604081208054606092919061193190614cfb565b80601f016020809104026020016040519081016040528092919081815260200182805461195d90614cfb565b80156119aa5780601f1061197f576101008083540402835291602001916119aa565b820191906000526020600020905b81548152906001019060200180831161198d57829003601f168201915b505050505090508051600003611a025760405162461bcd60e51b815260206004820152601d60248201527f4c7a4170703a206e6f20747275737465642070617468207265636f72640000006044820152606401610b2c565b611a1d600060148351611a15919061502c565b839190613260565b9392505050565b6001600160a01b038116600081815261010360205260408082205490516370a0823160e01b8152919290916370a0823190611a63903090600401614851565b602060405180830381865afa158015611a80573d6000803e3d6000fd5b505050506040513d601f19601f82011682018060405250810190611aa4919061503f565b611aae919061502c565b92915050565b611abc612617565b818130604051602001611ad193929190615058565b60408051601f1981840301815291815261ffff8516600090815260fc6020522090611afc9082614ef9565b507f8c0400cfe2d1199b1a725c78960bcc2a344d869b80590d0f2bd005db15a572ce838383604051611b3093929190614e80565b60405180910390a1505050565b610108546001600160a01b03811690600160a81b900460ff16158015611b7d57506001600160a01b0381166000908152610105602052604090205460ff16155b611b995760405162461bcd60e51b8152600401610b2c90614e01565b611ba16128d4565b610108546001600160a01b03168015801590611bd657506001600160a01b0381166000908152610104602052604090205460ff165b611c2c5760405162461bcd60e51b815260206004820152602160248201527f546f6b656e4272696467653a20455448206973206e6f7420737570706f7274656044820152601960fa1b6064820152608401610b2c565b60008611611c8f5760405162461bcd60e51b815260206004820152602a60248201527f546f6b656e4272696467653a20616d6f756e74206d75737420626520677265616044820152690746572207468616e20360b41b6064820152608401610b2c565b85341015611caf5760405162461bcd60e51b8152600401610b2c90614d3f565b806001600160a01b031663d0e30db0876040518263ffffffff1660e01b81526004016000604051808303818588803b158015611cea57600080fd5b505af1158015611cfe573d6000803e3d6000fd5b5050506001600160a01b03831660009081526101036020526040812080548a9450909250611d2d908490614e44565b9091555060009050611d3d611f28565b90506000808212611d4e5781611d65565b611d5a8260001961502c565b611d65906001614e44565b9050611d8c8a611d758a84615079565b60008c8b8b8b8f34611d87919061502c565b612c9f565b6040518881526001600160a01b038a169033906000906000805160206156608339815191529060200160405180910390a4505050610d80600160c955565b611dd2612617565b61010854600160b01b900460ff168015611def5750610109544210155b611e4a5760405162461bcd60e51b815260206004820152602660248201527f546f6b656e4272696467653a20656d657267656e6379207769746864726177206044820152651b1bd8dad95960d21b6064820152608401610b2c565b6001600160a01b0383166000908152610103602052604081208054839290611e7390849061502c565b90915550611e8d90506001600160a01b03841683836126ef565b826001600160a01b03167f49507695f37b729944475cf3388760a14760fef784b7ab5ca8863a5f3f8be6bd8383604051611ec8929190614d74565b60405180910390a2505050565b611edd612617565b60ff80546001600160a01b0319166001600160a01b0383161790556040517f5db758e995a17ec1ad84bdef7e8c3293a0bd6179bcce400dff5d4c3d87db726b90610b67908390614851565b60008061010a60009054906101000a90046001600160a01b03166001600160a01b031663feaf968c6040518163ffffffff1660e01b815260040160a060405180830381865afa158015611f7f573d6000803e3d6000fd5b505050506040513d601f19601f82011682018060405250810190611fa391906150a7565b509195945050505050565b600054610100900460ff1615808015611fce5750600054600160ff909116105b80611fef5750611fdd3061336d565b158015611fef575060005460ff166001145b61200b5760405162461bcd60e51b8152600401610b2c906150f7565b6000805460ff19166001179055801561202e576000805461ff0019166101001790555b61203661337c565b61203e6133a3565b612047826133d2565b61204f613402565b612057613431565b80156113bd576000805461ff0019169055604051600181526000805160206156c0833981519152906020015b60405180910390a15050565b612097612617565b6001600160a01b03821660008181526101056020908152604091829020805460ff19168515159081179091558251938452908301527fb1656bd3b50ddb6b12ef259c86e9cb359952b53c4403cfb5a83e23c515a35e229101612083565b6120fc612617565b60fb546040516332fb62e760e21b81526001600160a01b039091169063cbed8b9c906121349088908890889088908890600401615145565b600060405180830381600087803b15801561214e57600080fd5b505af11580156111c7573d6000803e3d6000fd5b61ffff86166000908152610100602052604080822090516121869088908890614d2f565b90815260408051602092819003830190206001600160401b038716600090815292529020549050806122065760405162461bcd60e51b815260206004820152602360248201527f4e6f6e626c6f636b696e674c7a4170703a206e6f2073746f726564206d65737360448201526261676560e81b6064820152608401610b2c565b808383604051612217929190614d2f565b6040518091039020146122765760405162461bcd60e51b815260206004820152602160248201527f4e6f6e626c6f636b696e674c7a4170703a20696e76616c6964207061796c6f616044820152601960fa1b6064820152608401610b2c565b61ffff871660009081526101006020526040808220905161229a9089908990614d2f565b90815260408051602092819003830181206001600160401b038916600090815290845282902093909355601f88018290048202830182019052868252612332918991899089908190840183828082843760009201919091525050604080516020601f8a018190048102820181019092528881528a935091508890889081908401838280828437600092019190915250612d4192505050565b7fc264d91f3adc5588250e1551f547752ca0cfa8f6b530d243b9f9f4cab10ea8e58787878785604051612369959493929190615173565b60405180910390a150505050505050565b612382612617565b610108805460ff60b01b1916600160b01b83151502179055806123a65760006123b3565b6123b34262093a80614e44565b61010981905560408051831515815260208101929092527f27a37fc51e6c5d14309bbed3a54787c8788223b5d9cd5fe10605661665dd84159101610b67565b6123fa612617565b61ffff838116600081815260fd602090815260408083209487168084529482529182902085905581519283528201929092529081018290527f9d5c7c0b934da8fefa9c7760c98383778a12dfbfc0c3b3106518f43fb9508ac090606001611b30565b612464612617565b6101088054821515600160a01b0260ff60a01b199091161790556040517f1584ad594a70cbe1e6515592e1272a987d922b097ead875069cebe8b40c004a490610b6790831515815260200190565b6124ba612617565b61ffff8316600090815260fc602052604090206124d88284836151ae565b507ffa41487ad5d6728f0b19276fa1eddc16558578f5109fc39d2dc33c3230470dab838383604051611b3093929190614e80565b612514612617565b6001600160a01b0381166125795760405162461bcd60e51b815260206004820152602660248201527f4f776e61626c653a206e6577206f776e657220697320746865207a65726f206160448201526564647265737360d01b6064820152608401610b2c565b610fa881613629565b60fb54604051633d7b2f6f60e21b815261ffff808716600483015285166024820152306044820152606481018390526060916001600160a01b03169063f5ecbdbc90608401600060405180830381865afa1580156125e4573d6000803e3d6000fd5b505050506040513d6000823e601f3d908101601f1916820160405261260c9190810190615267565b90505b949350505050565b336126206118c2565b6001600160a01b03161461168d5760405162461bcd60e51b815260206004820181905260248201527f4f776e61626c653a2063616c6c6572206973206e6f7420746865206f776e65726044820152606401610b2c565b6000806126d95a60966366ad5c8a60e01b8989898960405160240161269e94939291906152dd565b60408051601f198184030181529190526020810180516001600160e01b03166001600160e01b0319909316929092179091523092919061367b565b9150915081611627576116278686868685613705565b6117618363a9059cbb60e01b848460405160240161270e929190614d74565b60408051601f198184030181529190526020810180516001600160e01b03166001600160e01b0319909316929092179091526137a3565b6000805160206156a0833981519152546001600160a01b031690565b610fa8612617565b7f4910fdfa16fed3260ed0e7147f7cc6da11a60208b5b9406d12a635614ffd91435460ff161561279c5761176183613878565b826001600160a01b03166352d1902d6040518163ffffffff1660e01b8152600401602060405180830381865afa9250505080156127f6575060408051601f3d908101601f191682019092526127f39181019061503f565b60015b6128595760405162461bcd60e51b815260206004820152602e60248201527f45524331393637557067726164653a206e657720696d706c656d656e7461746960448201526d6f6e206973206e6f74205555505360901b6064820152608401610b2c565b6000805160206156a083398151915281146128c85760405162461bcd60e51b815260206004820152602960248201527f45524331393637557067726164653a20756e737570706f727465642070726f786044820152681a58589b195555525160ba1b6064820152608401610b2c565b50611761838383613912565b600260c954036129265760405162461bcd60e51b815260206004820152601f60248201527f5265656e7472616e637947756172643a207265656e7472616e742063616c6c006044820152606401610b2c565b600260c955565b600080846001600160a01b03166370a08231306040518263ffffffff1660e01b815260040161295c9190614851565b602060405180830381865afa158015612979573d6000803e3d6000fd5b505050506040513d601f19601f8201168201806040525081019061299d919061503f565b90506129b46001600160a01b03861685308661393d565b6040516370a0823160e01b81526000906001600160a01b038716906370a08231906129e3903090600401614851565b602060405180830381865afa158015612a00573d6000803e3d6000fd5b505050506040513d601f19601f82011682018060405250810190612a24919061503f565b9050612a30828261502c565b9695505050505050565b600080836001600160a01b031663a8aa1b316040518163ffffffff1660e01b8152600401602060405180830381865afa158015612a7b573d6000803e3d6000fd5b505050506040513d601f19601f82011682018060405250810190612a9f919061531b565b90506001600160a01b038116612b055760405162461bcd60e51b815260206004820152602560248201527f546f6b656e42726967653a20746f6b656e2070616972206973206e6f7420637260448201526419585d195960da1b6064820152608401610b2c565b6000612b0f611f28565b90506000808212612b205781612b37565b612b2c8260001961502c565b612b37906001614e44565b90506000839050600080826001600160a01b0316630902f1ac6040518163ffffffff1660e01b8152600401606060405180830381865afa158015612b7f573d6000803e3d6000fd5b505050506040513d601f19601f82011682018060405250810190612ba3919061534f565b50915091506000896001600160a01b0316846001600160a01b0316630dfe16816040518163ffffffff1660e01b8152600401602060405180830381865afa158015612bf2573d6000803e3d6000fd5b505050506040513d601f19601f82011682018060405250810190612c16919061531b565b6001600160a01b031614612c5d57826001600160701b0316858a846001600160701b0316612c449190615079565b612c4e9190615079565b612c58919061539f565b612c91565b816001600160701b0316858a856001600160701b0316612c7d9190615079565b612c879190615079565b612c91919061539f565b9a9950505050505050505050565b612ca98383613137565b6000612cb6888888613207565b9050612d188982612cca6020890189614723565b612cda60408a0160208b01614723565b88888080601f0160208091040260200160405190810160405280939291908181526020018383808284376000920191909152508a9250613975915050565b5050610101805461ffff191661ffff9890981697909717909655505050505050565b600160c955565b61ffff84166000908152610107602052604090205460ff16612db15760405162461bcd60e51b8152602060048201526024808201527f546f6b656e4272696467653a20696e76616c696420736f7572636520636861696044820152631b881a5960e21b6064820152608401610b2c565b600080600080612dc085613afe565b93509350935093506000808215612df057610108546001600160a01b03169150612de986613c38565b9050612ed6565b8491506000826001600160a01b031663a8aa1b316040518163ffffffff1660e01b8152600401602060405180830381865afa158015612e33573d6000803e3d6000fd5b505050506040513d601f19601f82011682018060405250810190612e57919061531b565b90506001600160a01b038116612ec85760405162461bcd60e51b815260206004820152603060248201527f546f6b656e4272696467653a20746f6b656e4f75742068617320696e76616c6960448201526f19081b1a5c5d5a591a5d1e481c1bdbdb60821b6064820152608401610b2c565b612ed28784613c8a565b9150505b61010854600160a81b900460ff16158015612f0b57506001600160a01b0382166000908152610105602052604090205460ff16155b612f275760405162461bcd60e51b8152600401610b2c90614e01565b6001600160a01b0382166000908152610104602052604090205460ff16612f9c5760405162461bcd60e51b815260206004820152602360248201527f546f6b656e4272696467653a20746f6b656e206973206e6f7420737570706f726044820152621d195960ea1b6064820152608401610b2c565b6001600160a01b03821660009081526101036020526040902054818110156130125760405162461bcd60e51b815260206004820152602360248201527f546f6b656e4272696467653a20696e73756666696369656e74206c697175696460448201526269747960e81b6064820152608401610b2c565b61301c828261502c565b6001600160a01b03841660009081526101036020526040902055610102546130465781600061304f565b61304f82613e9d565b50610108549092506001600160a01b03848116911614801561306e5750835b156130bf576101085461308b906001600160a01b03168684613ecf565b6040518281526001600160a01b038616906000906000805160206156408339815191529060200160405180910390a361312a565b6001600160a01b038516156130d457846130d8565b61dead5b94506130ee6001600160a01b03841686846126ef565b846001600160a01b0316836001600160a01b03166000805160206156408339815191528460405161312191815260200190565b60405180910390a35b5050505050505050505050565b61010854600160a01b900460ff16801561315757506101015461ffff1615155b156131a657610101546113bd9061ffff16600084848080601f01602080910402602001604051908101604052809392919081815260200183838082843760009201829052509250613f5f915050565b80156113bd5760405162461bcd60e51b815260206004820152602a60248201527f546f6b656e4272696467653a205f61646170746572506172616d73206d7573746044820152691031329032b6b83a3c9760b11b6064820152608401610b2c565b606060006132148461402f565b905060006132218461402f565b60405160006020820152602181018890526041810184905260618101829052909150608101604051602081830303815290604052925050509392505050565b60608161326e81601f614e44565b10156132ad5760405162461bcd60e51b815260206004820152600e60248201526d736c6963655f6f766572666c6f7760901b6044820152606401610b2c565b6132b78284614e44565b845110156132fb5760405162461bcd60e51b8152602060048201526011602482015270736c6963655f6f75744f66426f756e647360781b6044820152606401610b2c565b60608215801561331a5760405191506000825260208201604052613364565b6040519150601f8416801560200281840101858101878315602002848b0101015b8183101561335357805183526020928301920161333b565b5050858452601f01601f1916604052505b50949350505050565b6001600160a01b03163b151590565b600054610100900460ff1661168d5760405162461bcd60e51b8152600401610b2c906153d7565b600054610100900460ff166133ca5760405162461bcd60e51b8152600401610b2c906153d7565b61168d61403b565b600054610100900460ff166133f95760405162461bcd60e51b8152600401610b2c906153d7565b610fa88161406b565b600054610100900460ff166134295760405162461bcd60e51b8152600401610b2c906153d7565b61168d61409b565b600054610100900460ff16158080156134515750600054600160ff909116105b8061347257506134603061336d565b158015613472575060005460ff166001145b61348e5760405162461bcd60e51b8152600401610b2c906150f7565b6000805460ff1916600117905580156134b1576000805461ff0019166101001790555b6101066020527fd1fe999288d0a7e8ed972caa3b05bca25eccd5b4e714d8ec2d4f2d8e2212621680546001600160a01b031990811673694aa1769357215de4fac081bf1f309adc325306179091557f5c4185f72335224d2cf1ca1428fc3b5b56133884156db2ad5f59d4b2ffef13c180548216732514895c72f50d8bd4b4f9b1110f0d6bd2c975261790557fde8c4e26ff4f8e9560afbccf153706b866627645b028d1ea07877fd698662dab8054821673b8c458c957a6e6ca7cc53ed95bea548c52afaa241790556201388160009081527f5337a075601bc8fa859e72e939688626da1ae8a471b1db80f8e6ae13dcf28bed805490921673d0d5e3db44de05e9f294bb0a3beeaf030de24ada179091556135c84690565b6000908152610106602052604090205461010a80546001600160a01b0319166001600160a01b03909216919091179055508015610fa8576000805461ff0019169055604051600181526000805160206156c083398151915290602001610b67565b609780546001600160a01b038381166001600160a01b0319831681179093556040519116919082907f8be0079c531659141344cd1fd0a4f28419497f9722a3daafe3b4186f6b6457e090600090a35050565b6000606060008060008661ffff166001600160401b038111156136a0576136a0614865565b6040519080825280601f01601f1916602001820160405280156136ca576020820181803683370190505b50905060008087516020890160008d8df191503d9250868311156136ec578692505b828152826000602083013e909890975095505050505050565b818051906020012061010060008761ffff1661ffff168152602001908152602001600020856040516137379190615422565b9081526040805191829003602090810183206001600160401b0388166000908152915220919091557fe183f33de2837795525b4792ca4cd60535bd77c53b7e7030060bfcf5734d6b0c90613794908790879087908790879061543e565b60405180910390a15050505050565b60006137f8826040518060400160405280602081526020017f5361666545524332303a206c6f772d6c6576656c2063616c6c206661696c6564815250856001600160a01b03166140c29092919063ffffffff16565b9050805160001480613819575080806020019051810190613819919061549c565b6117615760405162461bcd60e51b815260206004820152602a60248201527f5361666545524332303a204552433230206f7065726174696f6e20646964206e6044820152691bdd081cdd58d8d9595960b21b6064820152608401610b2c565b6138818161336d565b6138e35760405162461bcd60e51b815260206004820152602d60248201527f455243313936373a206e657720696d706c656d656e746174696f6e206973206e60448201526c1bdd08184818dbdb9d1c9858dd609a1b6064820152608401610b2c565b6000805160206156a083398151915280546001600160a01b0319166001600160a01b0392909216919091179055565b61391b836140d1565b6000825111806139285750805b15611761576139378383614111565b50505050565b6040516001600160a01b03808516602483015283166044820152606481018290526139379085906323b872dd60e01b9060840161270e565b61ffff8616600090815260fc60205260408120805461399390614cfb565b80601f01602080910402602001604051908101604052809291908181526020018280546139bf90614cfb565b8015613a0c5780601f106139e157610100808354040283529160200191613a0c565b820191906000526020600020905b8154815290600101906020018083116139ef57829003601f168201915b505050505090508051600003613a7d5760405162461bcd60e51b815260206004820152603060248201527f4c7a4170703a2064657374696e6174696f6e20636861696e206973206e6f742060448201526f61207472757374656420736f7572636560801b6064820152608401610b2c565b613a88878751614136565b60fb5460405162c5803160e81b81526001600160a01b039091169063c5803100908490613ac3908b9086908c908c908c908c906004016154b9565b6000604051808303818588803b158015613adc57600080fd5b505af1158015613af0573d6000803e3d6000fd5b505050505050505050505050565b6000806000808451606214613b615760405162461bcd60e51b815260206004820152602360248201527f546f6b656e4272696467653a20696e76616c6964207061796c6f6164206c656e6044820152620cee8d60eb1b6064820152608401610b2c565b600085600081518110613b7657613b76615513565b016020015160f81c6001811115613b8f57613b8f6153c1565b90506001816001811115613ba557613ba56153c1565b14613bf25760405162461bcd60e51b815260206004820181905260248201527f546f6b656e4272696467653a20756e6b6e6f776e207061636b657420747970656044820152606401610b2c565b60218601519450604186015193506061860151925085606181518110613c1a57613c1a615513565b602001015160f81c60f81b60f81c60ff166001149150509193509193565b600080613c43611f28565b90506000808212613c545781613c6b565b613c608260001961502c565b613c6b906001614e44565b905080613c8085670de0b6b3a7640000615079565b61260f919061539f565b600080826001600160a01b031663a8aa1b316040518163ffffffff1660e01b8152600401602060405180830381865afa158015613ccb573d6000803e3d6000fd5b505050506040513d601f19601f82011682018060405250810190613cef919061531b565b90506000613cfb611f28565b90506000808212613d0c5781613d23565b613d188260001961502c565b613d23906001614e44565b90506000839050600080826001600160a01b0316630902f1ac6040518163ffffffff1660e01b8152600401606060405180830381865afa158015613d6b573d6000803e3d6000fd5b505050506040513d601f19601f82011682018060405250810190613d8f919061534f565b50915091506000886001600160a01b0316846001600160a01b0316630dfe16816040518163ffffffff1660e01b8152600401602060405180830381865afa158015613dde573d6000803e3d6000fd5b505050506040513d601f19601f82011682018060405250810190613e02919061531b565b6001600160a01b031614613e495784826001600160701b0316846001600160701b03168c613e309190615079565b613e3a919061539f565b613e44919061539f565b613e7d565b84836001600160701b0316836001600160701b03168c613e699190615079565b613e73919061539f565b613e7d919061539f565b9050613e88896141a7565b613e9390600a61560d565b612c919082615079565b6000806127106101025484613eb29190615079565b613ebc919061539f565b9050613ec8818461502c565b9150915091565b604051632e1a7d4d60e01b8152600481018290526001600160a01b03841690632e1a7d4d90602401600060405180830381600087803b158015613f1157600080fd5b505af1158015613f25573d6000803e3d6000fd5b50506040516001600160a01b038516925083156108fc02915083906000818181858888f19350505050158015613937573d6000803e3d6000fd5b6000613f6a836142a5565b61ffff808716600090815260fd602090815260408083209389168352929052205490915080613fd85760405162461bcd60e51b815260206004820152601a602482015279131e905c1c0e881b5a5b91d85cd31a5b5a5d081b9bdd081cd95d60321b6044820152606401610b2c565b613fe28382614e44565b8210156116275760405162461bcd60e51b815260206004820152601b60248201527a4c7a4170703a20676173206c696d697420697320746f6f206c6f7760281b6044820152606401610b2c565b6001600160a01b031690565b600054610100900460ff166140625760405162461bcd60e51b8152600401610b2c906153d7565b61168d33613629565b600054610100900460ff166140925760405162461bcd60e51b8152600401610b2c906153d7565b610fa881614300565b600054610100900460ff16612d3a5760405162461bcd60e51b8152600401610b2c906153d7565b606061260f8484600085614338565b6140da81613878565b6040516001600160a01b038216907fbc7cd75a20ee27fd9adebab32041f755214dbc6bffa90cc0225b39da2e5c2d3b90600090a250565b6060611a1d83836040518060600160405280602781526020016156e060279139614413565b61ffff8216600090815260fe60205260408120549081900361415757506127105b808211156117615760405162461bcd60e51b815260206004820181905260248201527f4c7a4170703a207061796c6f61642073697a6520697320746f6f206c617267656044820152606401610b2c565b60408051600481526024810182526020810180516001600160e01b031663313ce56760e01b1790529051600091829182916001600160a01b038616916141ed9190615422565b600060405180830381855afa9150503d8060008114614228576040519150601f19603f3d011682016040523d82523d6000602084013e61422d565b606091505b5091509150816142915760405162461bcd60e51b815260206004820152602960248201527f546f6b656e4272696467653a206661696c656420746f2067657420746f6b656e60448201526820646563696d616c7360b81b6064820152608401610b2c565b8080602001905181019061260f919061561c565b60006022825110156142f85760405162461bcd60e51b815260206004820152601c60248201527b4c7a4170703a20696e76616c69642061646170746572506172616d7360201b6044820152606401610b2c565b506022015190565b600054610100900460ff166143275760405162461bcd60e51b8152600401610b2c906153d7565b61432f6133a3565b610fa881614481565b6060824710156143995760405162461bcd60e51b815260206004820152602660248201527f416464726573733a20696e73756666696369656e742062616c616e636520666f6044820152651c8818d85b1b60d21b6064820152608401610b2c565b600080866001600160a01b031685876040516143b59190615422565b60006040518083038185875af1925050503d80600081146143f2576040519150601f19603f3d011682016040523d82523d6000602084013e6143f7565b606091505b5091509150614408878383876144ca565b979650505050505050565b6060600080856001600160a01b0316856040516144309190615422565b600060405180830381855af49150503d806000811461446b576040519150601f19603f3d011682016040523d82523d6000602084013e614470565b606091505b5091509150612a30868383876144ca565b600054610100900460ff166144a85760405162461bcd60e51b8152600401610b2c906153d7565b60fb80546001600160a01b0319166001600160a01b0392909216919091179055565b60608315614537578251600003614530576144e48561336d565b6145305760405162461bcd60e51b815260206004820152601d60248201527f416464726573733a2063616c6c20746f206e6f6e2d636f6e74726163740000006044820152606401610b2c565b508161260f565b61260f838381511561454c5781518083602001fd5b8060405162461bcd60e51b8152600401610b2c9190614ab2565b60006020828403121561457857600080fd5b5035919050565b803561ffff8116811461459157600080fd5b919050565b60008083601f8401126145a857600080fd5b5081356001600160401b038111156145bf57600080fd5b6020830191508360208285010111156145d757600080fd5b9250929050565b80356001600160401b038116811461459157600080fd5b6000806000806000806080878903121561460e57600080fd5b6146178761457f565b955060208701356001600160401b038082111561463357600080fd5b61463f8a838b01614596565b909750955085915061465360408a016145de565b9450606089013591508082111561466957600080fd5b5061467689828a01614596565b979a9699509497509295939492505050565b60006020828403121561469a57600080fd5b611a1d8261457f565b600080604083850312156146b657600080fd5b6146bf8361457f565b946020939093013593505050565b6001600160a01b0381168114610fa857600080fd5b6000806000606084860312156146f757600080fd5b8335614702816146cd565b92506020840135614712816146cd565b929592945050506040919091013590565b60006020828403121561473557600080fd5b8135611a1d816146cd565b60006040828403121561475257600080fd5b50919050565b600080600080600080600080610100898b03121561477557600080fd5b61477e8961457f565b9750602089013561478e816146cd565b96506040890135955060608901356147a5816146cd565b945060808901356147b5816146cd565b93506147c48a60a08b01614740565b925060e08901356001600160401b038111156147df57600080fd5b6147eb8b828c01614596565b999c989b5096995094979396929594505050565b60008060006040848603121561481457600080fd5b61481d8461457f565b925060208401356001600160401b0381111561483857600080fd5b61484486828701614596565b9497909650939450505050565b6001600160a01b0391909116815260200190565b634e487b7160e01b600052604160045260246000fd5b604051601f8201601f191681016001600160401b03811182821017156148a3576148a3614865565b604052919050565b60006001600160401b038211156148c4576148c4614865565b50601f01601f191660200190565b600082601f8301126148e357600080fd5b81356148f66148f1826148ab565b61487b565b81815284602083860101111561490b57600080fd5b816020850160208301376000918101602001919091529392505050565b6000806040838503121561493b57600080fd5b8235614946816146cd565b915060208301356001600160401b0381111561496157600080fd5b61496d858286016148d2565b9150509250929050565b8015158114610fa857600080fd5b6000806040838503121561499857600080fd5b6149a18361457f565b915060208301356149b181614977565b809150509250929050565b6000806000606084860312156149d157600080fd5b6149da8461457f565b925060208401356001600160401b038111156149f557600080fd5b614a01868287016148d2565b925050614a10604085016145de565b90509250925092565b600060208284031215614a2b57600080fd5b8135611a1d81614977565b60008060408385031215614a4957600080fd5b614a528361457f565b915060208301356149b1816146cd565b60005b83811015614a7d578181015183820152602001614a65565b50506000910152565b60008151808452614a9e816020860160208601614a62565b601f01601f19169290920160200192915050565b602081526000611a1d6020830184614a86565b60008060008060808587031215614adb57600080fd5b614ae48561457f565b9350614af38660208701614740565b925060608501356001600160401b03811115614b0e57600080fd5b614b1a87828801614596565b95989497509550505050565b60008060408385031215614b3957600080fd5b614b428361457f565b9150614b506020840161457f565b90509250929050565b60008060408385031215614b6c57600080fd5b8235614a52816146cd565b60008060008060008060c08789031215614b9057600080fd5b614b998761457f565b95506020870135614ba9816146cd565b945060408701359350614bbf8860608901614740565b925060a08701356001600160401b03811115614bda57600080fd5b61467689828a01614596565b60008060408385031215614bf957600080fd5b82356149a1816146cd565b600080600080600060808688031215614c1c57600080fd5b614c258661457f565b9450614c336020870161457f565b93506040860135925060608601356001600160401b03811115614c5557600080fd5b614c6188828901614596565b969995985093965092949392505050565b600080600060608486031215614c8757600080fd5b614c908461457f565b9250614c9e6020850161457f565b9150604084013590509250925092565b60008060008060808587031215614cc457600080fd5b614ccd8561457f565b9350614cdb6020860161457f565b92506040850135614ceb816146cd565b9396929550929360600135925050565b600181811c90821680614d0f57607f821691505b60208210810361475257634e487b7160e01b600052602260045260246000fd5b8183823760009101908152919050565b6020808252601b908201527a0a8ded6cadc84e4d2c8ceca7440cccaca40dcdee840cadcdeeaced602b1b604082015260600190565b6001600160a01b03929092168252602082015260400190565b6020808252602c9082015260008051602061568083398151915260408201526b19195b1959d85d1958d85b1b60a21b606082015260800190565b6020808252602c9082015260008051602061568083398151915260408201526b6163746976652070726f787960a01b606082015260800190565b602080825260139082015272151bdad95b909c9a5919d94e881c185d5cd959606a1b604082015260600190565b634e487b7160e01b600052601160045260246000fd5b80820180821115611aae57611aae614e2e565b81835281816020850137506000828201602090810191909152601f909101601f19169091010190565b61ffff8416815260406020820152600061260c604083018486614e57565b601f82111561176157600081815260208120601f850160051c81016020861015614ec55750805b601f850160051c820191505b8181101561162757828155600101614ed1565b600019600383901b1c191660019190911b1790565b81516001600160401b03811115614f1257614f12614865565b614f2681614f208454614cfb565b84614e9e565b602080601f831160018114614f555760008415614f435750858301515b614f4d8582614ee4565b865550611627565b600085815260208120601f198616915b82811015614f8457888601518255948401946001909101908401614f65565b5085821015614fa25787850151600019600388901b60f8161c191681555b5050505050600190811b01905550565b61ffff871681526001600160a01b038616602082015260a060408201819052600090614fe090830187614a86565b85151560608401528281036080840152614ffb818587614e57565b9998505050505050505050565b6000806040838503121561501b57600080fd5b505080516020909101519092909150565b81810381811115611aae57611aae614e2e565b60006020828403121561505157600080fd5b5051919050565b8284823760609190911b6001600160601b0319169101908152601401919050565b8082028115828204841417611aae57611aae614e2e565b80516001600160501b038116811461459157600080fd5b600080600080600060a086880312156150bf57600080fd5b6150c886615090565b94506020860151935060408601519250606086015191506150eb60808701615090565b90509295509295909350565b6020808252602e908201527f496e697469616c697a61626c653a20636f6e747261637420697320616c72656160408201526d191e481a5b9a5d1a585b1a5e995960921b606082015260800190565b600061ffff808816835280871660208401525084604083015260806060830152614408608083018486614e57565b61ffff86168152608060208201526000615191608083018688614e57565b6001600160401b0394909416604083015250606001529392505050565b6001600160401b038311156151c5576151c5614865565b6151d9836151d38354614cfb565b83614e9e565b6000601f84116001811461520757600085156151f55750838201355b6151ff8682614ee4565b845550610def565b600083815260209020601f19861690835b828110156152385786850135825560209485019460019092019101615218565b50868210156152555760001960f88860031b161c19848701351681555b505060018560011b0183555050505050565b60006020828403121561527957600080fd5b81516001600160401b0381111561528f57600080fd5b8201601f810184136152a057600080fd5b80516152ae6148f1826148ab565b8181528560208385010111156152c357600080fd5b6152d4826020830160208601614a62565b95945050505050565b61ffff851681526080602082015260006152fa6080830186614a86565b6001600160401b038516604084015282810360608401526144088185614a86565b60006020828403121561532d57600080fd5b8151611a1d816146cd565b80516001600160701b038116811461459157600080fd5b60008060006060848603121561536457600080fd5b61536d84615338565b925061537b60208501615338565b9150604084015163ffffffff8116811461539457600080fd5b809150509250925092565b6000826153bc57634e487b7160e01b600052601260045260246000fd5b500490565b634e487b7160e01b600052602160045260246000fd5b6020808252602b908201527f496e697469616c697a61626c653a20636f6e7472616374206973206e6f74206960408201526a6e697469616c697a696e6760a81b606082015260800190565b60008251615434818460208701614a62565b9190910192915050565b61ffff8616815260a06020820152600061545b60a0830187614a86565b6001600160401b0386166040840152828103606084015261547c8186614a86565b905082810360808401526154908185614a86565b98975050505050505050565b6000602082840312156154ae57600080fd5b8151611a1d81614977565b61ffff8716815260c0602082015260006154d660c0830188614a86565b82810360408401526154e88188614a86565b6001600160a01b0387811660608601528616608085015283810360a08501529050614ffb8185614a86565b634e487b7160e01b600052603260045260246000fd5b600181815b8085111561556457816000190482111561554a5761554a614e2e565b8085161561555757918102915b93841c939080029061552e565b509250929050565b60008261557b57506001611aae565b8161558857506000611aae565b816001811461559e57600281146155a8576155c4565b6001915050611aae565b60ff8411156155b9576155b9614e2e565b50506001821b611aae565b5060208310610133831016604e8410600b84101617156155e7575081810a611aae565b6155f18383615529565b806000190482111561560557615605614e2e565b029392505050565b6000611a1d60ff84168361556c565b60006020828403121561562e57600080fd5b815160ff81168114611a1d57600080fdfefd19781f43410d9594fd4c02dd1d98dbe99099cbd222d5851a6e183c468d33ca358304737e16805ddc68ab8f04e14751a94bb8fd0a3fecc784b61d0c0789f46046756e6374696f6e206d7573742062652063616c6c6564207468726f75676820360894a13ba1a3210667c828492db98dca3e2076cc3735a920a3ca505d382bbc7f26b83ff96e1f2b6a682f133852f6798a09c465da95921460cefb3847402498416464726573733a206c6f772d6c6576656c2064656c65676174652063616c6c206661696c6564a26469706673582212205193256a0f1f34b4b6fb78d99ecd581ef0a11c14ea0053167681c6d01822b54064736f6c63430008140033","opcodes":"PUSH1 0xA0 PUSH1 0x40 MSTORE ADDRESS PUSH1 0x80 MSTORE CALLVALUE DUP1 ISZERO PUSH2 0x14 JUMPI PUSH1 0x0 DUP1 REVERT JUMPDEST POP PUSH1 0x80 MLOAD PUSH2 0x573C PUSH3 0x4D PUSH1 0x0 CODECOPY PUSH1 0x0 DUP2 DUP2 PUSH2 0xEED ADD MSTORE DUP2 DUP2 PUSH2 0xF2D ADD MSTORE DUP2 DUP2 PUSH2 0x1312 ADD MSTORE DUP2 DUP2 PUSH2 0x1352 ADD MSTORE PUSH2 0x13CE ADD MSTORE PUSH2 0x573C PUSH1 0x0 RETURN INVALID PUSH1 0x80 PUSH1 0x40 MSTORE PUSH1 0x4 CALLDATASIZE LT PUSH2 0x2B4 JUMPI PUSH1 0x0 CALLDATALOAD PUSH1 0xE0 SHR DUP1 PUSH3 0xD5900 EQ PUSH2 0x2C0 JUMPI DUP1 PUSH3 0x1D3567 EQ PUSH2 0x2E2 JUMPI DUP1 PUSH4 0x7E0DB17 EQ PUSH2 0x302 JUMPI DUP1 PUSH4 0xDF37483 EQ PUSH2 0x322 JUMPI DUP1 PUSH4 0x1095B6D7 EQ PUSH2 0x342 JUMPI DUP1 PUSH4 0x10DDB137 EQ PUSH2 0x362 JUMPI DUP1 PUSH4 0x25A9F792 EQ PUSH2 0x382 JUMPI DUP1 PUSH4 0x3659CFE6 EQ PUSH2 0x3AC JUMPI DUP1 PUSH4 0x3BD0536B EQ PUSH2 0x3CC JUMPI DUP1 PUSH4 0x3D8B38F6 EQ PUSH2 0x3DF JUMPI DUP1 PUSH4 0x3F1F4FA4 EQ PUSH2 0x40F JUMPI DUP1 PUSH4 0x3FC8CEF3 EQ PUSH2 0x43C JUMPI DUP1 PUSH4 0x42D65A8D EQ PUSH2 0x46A JUMPI DUP1 PUSH4 0x4F1EF286 EQ PUSH2 0x48A JUMPI DUP1 PUSH4 0x52D1902D EQ PUSH2 0x49D JUMPI DUP1 PUSH4 0x564B81EF EQ PUSH2 0x4B2 JUMPI DUP1 PUSH4 0x5747E69F EQ PUSH2 0x4C5 JUMPI DUP1 PUSH4 0x59D91CD7 EQ PUSH2 0x4E7 JUMPI DUP1 PUSH4 0x5B769F3C EQ PUSH2 0x507 JUMPI DUP1 PUSH4 0x5B8C41E6 EQ PUSH2 0x527 JUMPI DUP1 PUSH4 0x61A552DC EQ PUSH2 0x577 JUMPI DUP1 PUSH4 0x66AD5C8A EQ PUSH2 0x599 JUMPI DUP1 PUSH4 0x68C4AC26 EQ PUSH2 0x5B9 JUMPI DUP1 PUSH4 0x69A6B3DB EQ PUSH2 0x5EA JUMPI DUP1 PUSH4 0x715018A6 EQ PUSH2 0x60A JUMPI DUP1 PUSH4 0x73AFBCAA EQ PUSH2 0x61F JUMPI DUP1 PUSH4 0x7533D788 EQ PUSH2 0x63F JUMPI DUP1 PUSH4 0x7A38D760 EQ PUSH2 0x66C JUMPI DUP1 PUSH4 0x7D5F5BD4 EQ PUSH2 0x69B JUMPI DUP1 PUSH4 0x8CFD8F5C EQ PUSH2 0x6D0 JUMPI DUP1 PUSH4 0x8DA5CB5B EQ PUSH2 0x708 JUMPI DUP1 PUSH4 0x93F26A4C EQ PUSH2 0x71D JUMPI DUP1 PUSH4 0x950C8A74 EQ PUSH2 0x73D JUMPI DUP1 PUSH4 0x97167964 EQ PUSH2 0x75D JUMPI DUP1 PUSH4 0x9E42FF90 EQ PUSH2 0x784 JUMPI DUP1 PUSH4 0x9F38369A EQ PUSH2 0x7A5 JUMPI DUP1 PUSH4 0xA2F27AE0 EQ PUSH2 0x7C5 JUMPI DUP1 PUSH4 0xA6C3D165 EQ PUSH2 0x7E5 JUMPI DUP1 PUSH4 0xABE685CD EQ PUSH2 0x805 JUMPI DUP1 PUSH4 0xB353AAA7 EQ PUSH2 0x81B JUMPI DUP1 PUSH4 0xB5F97073 EQ PUSH2 0x83B JUMPI DUP1 PUSH4 0xB790D7C1 EQ PUSH2 0x872 JUMPI DUP1 PUSH4 0xB90FC4A5 EQ PUSH2 0x885 JUMPI DUP1 PUSH4 0xBAF3292D EQ PUSH2 0x8A5 JUMPI DUP1 PUSH4 0xBEA4DFB5 EQ PUSH2 0x8C5 JUMPI DUP1 PUSH4 0xC4461834 EQ PUSH2 0x805 JUMPI DUP1 PUSH4 0xC4D66DE8 EQ PUSH2 0x8DA JUMPI DUP1 PUSH4 0xCB8D3B1F EQ PUSH2 0x8FA JUMPI DUP1 PUSH4 0xCBED8B9C EQ PUSH2 0x91A JUMPI DUP1 PUSH4 0xD1DEBA1F EQ PUSH2 0x93A JUMPI DUP1 PUSH4 0xD71E409E EQ PUSH2 0x94D JUMPI DUP1 PUSH4 0xDE9B9488 EQ PUSH2 0x96D JUMPI DUP1 PUSH4 0xDF2A5B3B EQ PUSH2 0x984 JUMPI DUP1 PUSH4 0xDF4BBC1C EQ PUSH2 0x9A4 JUMPI DUP1 PUSH4 0xE3179C3E EQ PUSH2 0x9D5 JUMPI DUP1 PUSH4 0xEAB45D9C EQ PUSH2 0xA03 JUMPI DUP1 PUSH4 0xEB8D72B7 EQ PUSH2 0xA23 JUMPI DUP1 PUSH4 0xED629C5C EQ PUSH2 0xA43 JUMPI DUP1 PUSH4 0xEE7A4596 EQ PUSH2 0xA65 JUMPI DUP1 PUSH4 0xF2FDE38B EQ PUSH2 0xA96 JUMPI DUP1 PUSH4 0xF5ECBDBC EQ PUSH2 0xAB6 JUMPI PUSH1 0x0 DUP1 REVERT JUMPDEST CALLDATASIZE PUSH2 0x2BB JUMPI STOP JUMPDEST PUSH1 0x0 DUP1 REVERT JUMPDEST CALLVALUE DUP1 ISZERO PUSH2 0x2CC JUMPI PUSH1 0x0 DUP1 REVERT JUMPDEST POP PUSH2 0x2E0 PUSH2 0x2DB CALLDATASIZE PUSH1 0x4 PUSH2 0x4566 JUMP JUMPDEST PUSH2 0xAD6 JUMP JUMPDEST STOP JUMPDEST CALLVALUE DUP1 ISZERO PUSH2 0x2EE JUMPI PUSH1 0x0 DUP1 REVERT JUMPDEST POP PUSH2 0x2E0 PUSH2 0x2FD CALLDATASIZE PUSH1 0x4 PUSH2 0x45F5 JUMP JUMPDEST PUSH2 0xB72 JUMP JUMPDEST CALLVALUE DUP1 ISZERO PUSH2 0x30E JUMPI PUSH1 0x0 DUP1 REVERT JUMPDEST POP PUSH2 0x2E0 PUSH2 0x31D CALLDATASIZE PUSH1 0x4 PUSH2 0x4688 JUMP JUMPDEST PUSH2 0xD89 JUMP JUMPDEST CALLVALUE DUP1 ISZERO PUSH2 0x32E JUMPI PUSH1 0x0 DUP1 REVERT JUMPDEST POP PUSH2 0x2E0 PUSH2 0x33D CALLDATASIZE PUSH1 0x4 PUSH2 0x46A3 JUMP JUMPDEST PUSH2 0xDF6 JUMP JUMPDEST CALLVALUE DUP1 ISZERO PUSH2 0x34E JUMPI PUSH1 0x0 DUP1 REVERT JUMPDEST POP PUSH2 0x2E0 PUSH2 0x35D CALLDATASIZE PUSH1 0x4 PUSH2 0x46E2 JUMP JUMPDEST PUSH2 0xE15 JUMP JUMPDEST CALLVALUE DUP1 ISZERO PUSH2 0x36E JUMPI PUSH1 0x0 DUP1 REVERT JUMPDEST POP PUSH2 0x2E0 PUSH2 0x37D CALLDATASIZE PUSH1 0x4 PUSH2 0x4688 JUMP JUMPDEST PUSH2 0xEA7 JUMP JUMPDEST CALLVALUE DUP1 ISZERO PUSH2 0x38E JUMPI PUSH1 0x0 DUP1 REVERT JUMPDEST POP PUSH2 0x399 PUSH2 0x102 SLOAD DUP2 JUMP JUMPDEST PUSH1 0x40 MLOAD SWAP1 DUP2 MSTORE PUSH1 0x20 ADD JUMPDEST PUSH1 0x40 MLOAD DUP1 SWAP2 SUB SWAP1 RETURN JUMPDEST CALLVALUE DUP1 ISZERO PUSH2 0x3B8 JUMPI PUSH1 0x0 DUP1 REVERT JUMPDEST POP PUSH2 0x2E0 PUSH2 0x3C7 CALLDATASIZE PUSH1 0x4 PUSH2 0x4723 JUMP JUMPDEST PUSH2 0xEE3 JUMP JUMPDEST PUSH2 0x2E0 PUSH2 0x3DA CALLDATASIZE PUSH1 0x4 PUSH2 0x4758 JUMP JUMPDEST PUSH2 0xFAB JUMP JUMPDEST CALLVALUE DUP1 ISZERO PUSH2 0x3EB JUMPI PUSH1 0x0 DUP1 REVERT JUMPDEST POP PUSH2 0x3FF PUSH2 0x3FA CALLDATASIZE PUSH1 0x4 PUSH2 0x47FF JUMP JUMPDEST PUSH2 0x11D2 JUMP JUMPDEST PUSH1 0x40 MLOAD SWAP1 ISZERO ISZERO DUP2 MSTORE PUSH1 0x20 ADD PUSH2 0x3A3 JUMP JUMPDEST CALLVALUE DUP1 ISZERO PUSH2 0x41B JUMPI PUSH1 0x0 DUP1 REVERT JUMPDEST POP PUSH2 0x399 PUSH2 0x42A CALLDATASIZE PUSH1 0x4 PUSH2 0x4688 JUMP JUMPDEST PUSH1 0xFE PUSH1 0x20 MSTORE PUSH1 0x0 SWAP1 DUP2 MSTORE PUSH1 0x40 SWAP1 KECCAK256 SLOAD DUP2 JUMP JUMPDEST CALLVALUE DUP1 ISZERO PUSH2 0x448 JUMPI PUSH1 0x0 DUP1 REVERT JUMPDEST POP PUSH2 0x108 SLOAD PUSH2 0x45D SWAP1 PUSH1 0x1 PUSH1 0x1 PUSH1 0xA0 SHL SUB AND DUP2 JUMP JUMPDEST PUSH1 0x40 MLOAD PUSH2 0x3A3 SWAP2 SWAP1 PUSH2 0x4851 JUMP JUMPDEST CALLVALUE DUP1 ISZERO PUSH2 0x476 JUMPI PUSH1 0x0 DUP1 REVERT JUMPDEST POP PUSH2 0x2E0 PUSH2 0x485 CALLDATASIZE PUSH1 0x4 PUSH2 0x47FF JUMP JUMPDEST PUSH2 0x129E JUMP JUMPDEST PUSH2 0x2E0 PUSH2 0x498 CALLDATASIZE PUSH1 0x4 PUSH2 0x4928 JUMP JUMPDEST PUSH2 0x1308 JUMP JUMPDEST CALLVALUE DUP1 ISZERO PUSH2 0x4A9 JUMPI PUSH1 0x0 DUP1 REVERT JUMPDEST POP PUSH2 0x399 PUSH2 0x13C1 JUMP JUMPDEST CALLVALUE DUP1 ISZERO PUSH2 0x4BE JUMPI PUSH1 0x0 DUP1 REVERT JUMPDEST POP CHAINID PUSH2 0x399 JUMP JUMPDEST CALLVALUE DUP1 ISZERO PUSH2 0x4D1 JUMPI PUSH1 0x0 DUP1 REVERT JUMPDEST POP PUSH2 0x108 SLOAD PUSH2 0x3FF SWAP1 PUSH1 0x1 PUSH1 0xB0 SHL SWAP1 DIV PUSH1 0xFF AND DUP2 JUMP JUMPDEST CALLVALUE DUP1 ISZERO PUSH2 0x4F3 JUMPI PUSH1 0x0 DUP1 REVERT JUMPDEST POP PUSH2 0x2E0 PUSH2 0x502 CALLDATASIZE PUSH1 0x4 PUSH2 0x4985 JUMP JUMPDEST PUSH2 0x146F JUMP JUMPDEST CALLVALUE DUP1 ISZERO PUSH2 0x513 JUMPI PUSH1 0x0 DUP1 REVERT JUMPDEST POP PUSH2 0x2E0 PUSH2 0x522 CALLDATASIZE PUSH1 0x4 PUSH2 0x4723 JUMP JUMPDEST PUSH2 0x149E JUMP JUMPDEST CALLVALUE DUP1 ISZERO PUSH2 0x533 JUMPI PUSH1 0x0 DUP1 REVERT JUMPDEST POP PUSH2 0x399 PUSH2 0x542 CALLDATASIZE PUSH1 0x4 PUSH2 0x49BC JUMP JUMPDEST PUSH2 0x100 PUSH1 0x20 SWAP1 DUP2 MSTORE PUSH1 0x0 SWAP4 DUP5 MSTORE PUSH1 0x40 DUP1 DUP6 KECCAK256 DUP5 MLOAD DUP1 DUP7 ADD DUP5 ADD DUP1 MLOAD SWAP3 DUP2 MSTORE SWAP1 DUP5 ADD SWAP6 DUP5 ADD SWAP6 SWAP1 SWAP6 KECCAK256 SWAP5 MSTORE SWAP3 SWAP1 MSTORE DUP3 MSTORE SWAP1 KECCAK256 SLOAD DUP2 JUMP JUMPDEST CALLVALUE DUP1 ISZERO PUSH2 0x583 JUMPI PUSH1 0x0 DUP1 REVERT JUMPDEST POP PUSH2 0x108 SLOAD PUSH2 0x3FF SWAP1 PUSH1 0x1 PUSH1 0xA8 SHL SWAP1 DIV PUSH1 0xFF AND DUP2 JUMP JUMPDEST CALLVALUE DUP1 ISZERO PUSH2 0x5A5 JUMPI PUSH1 0x0 DUP1 REVERT JUMPDEST POP PUSH2 0x2E0 PUSH2 0x5B4 CALLDATASIZE PUSH1 0x4 PUSH2 0x45F5 JUMP JUMPDEST PUSH2 0x1553 JUMP JUMPDEST CALLVALUE DUP1 ISZERO PUSH2 0x5C5 JUMPI PUSH1 0x0 DUP1 REVERT JUMPDEST POP PUSH2 0x3FF PUSH2 0x5D4 CALLDATASIZE PUSH1 0x4 PUSH2 0x4723 JUMP JUMPDEST PUSH2 0x104 PUSH1 0x20 MSTORE PUSH1 0x0 SWAP1 DUP2 MSTORE PUSH1 0x40 SWAP1 KECCAK256 SLOAD PUSH1 0xFF AND DUP2 JUMP JUMPDEST CALLVALUE DUP1 ISZERO PUSH2 0x5F6 JUMPI PUSH1 0x0 DUP1 REVERT JUMPDEST POP PUSH2 0x2E0 PUSH2 0x605 CALLDATASIZE PUSH1 0x4 PUSH2 0x4A19 JUMP JUMPDEST PUSH2 0x162F JUMP JUMPDEST CALLVALUE DUP1 ISZERO PUSH2 0x616 JUMPI PUSH1 0x0 DUP1 REVERT JUMPDEST POP PUSH2 0x2E0 PUSH2 0x1685 JUMP JUMPDEST CALLVALUE DUP1 ISZERO PUSH2 0x62B JUMPI PUSH1 0x0 DUP1 REVERT JUMPDEST POP PUSH2 0x2E0 PUSH2 0x63A CALLDATASIZE PUSH1 0x4 PUSH2 0x4A36 JUMP JUMPDEST PUSH2 0x168F JUMP JUMPDEST CALLVALUE DUP1 ISZERO PUSH2 0x64B JUMPI PUSH1 0x0 DUP1 REVERT JUMPDEST POP PUSH2 0x65F PUSH2 0x65A CALLDATASIZE PUSH1 0x4 PUSH2 0x4688 JUMP JUMPDEST PUSH2 0x1766 JUMP JUMPDEST PUSH1 0x40 MLOAD PUSH2 0x3A3 SWAP2 SWAP1 PUSH2 0x4AB2 JUMP JUMPDEST CALLVALUE DUP1 ISZERO PUSH2 0x678 JUMPI PUSH1 0x0 DUP1 REVERT JUMPDEST POP PUSH2 0x101 SLOAD PUSH2 0x688 SWAP1 PUSH2 0xFFFF AND DUP2 JUMP JUMPDEST PUSH1 0x40 MLOAD PUSH2 0xFFFF SWAP1 SWAP2 AND DUP2 MSTORE PUSH1 0x20 ADD PUSH2 0x3A3 JUMP JUMPDEST CALLVALUE DUP1 ISZERO PUSH2 0x6A7 JUMPI PUSH1 0x0 DUP1 REVERT JUMPDEST POP PUSH2 0x6BB PUSH2 0x6B6 CALLDATASIZE PUSH1 0x4 PUSH2 0x4AC5 JUMP JUMPDEST PUSH2 0x1800 JUMP JUMPDEST PUSH1 0x40 DUP1 MLOAD SWAP3 DUP4 MSTORE PUSH1 0x20 DUP4 ADD SWAP2 SWAP1 SWAP2 MSTORE ADD PUSH2 0x3A3 JUMP JUMPDEST CALLVALUE DUP1 ISZERO PUSH2 0x6DC JUMPI PUSH1 0x0 DUP1 REVERT JUMPDEST POP PUSH2 0x399 PUSH2 0x6EB CALLDATASIZE PUSH1 0x4 PUSH2 0x4B26 JUMP JUMPDEST PUSH1 0xFD PUSH1 0x20 SWAP1 DUP2 MSTORE PUSH1 0x0 SWAP3 DUP4 MSTORE PUSH1 0x40 DUP1 DUP5 KECCAK256 SWAP1 SWAP2 MSTORE SWAP1 DUP3 MSTORE SWAP1 KECCAK256 SLOAD DUP2 JUMP JUMPDEST CALLVALUE DUP1 ISZERO PUSH2 0x714 JUMPI PUSH1 0x0 DUP1 REVERT JUMPDEST POP PUSH2 0x45D PUSH2 0x18C2 JUMP JUMPDEST CALLVALUE DUP1 ISZERO PUSH2 0x729 JUMPI PUSH1 0x0 DUP1 REVERT JUMPDEST POP PUSH2 0x2E0 PUSH2 0x738 CALLDATASIZE PUSH1 0x4 PUSH2 0x4B59 JUMP JUMPDEST PUSH2 0x18D1 JUMP JUMPDEST CALLVALUE DUP1 ISZERO PUSH2 0x749 JUMPI PUSH1 0x0 DUP1 REVERT JUMPDEST POP PUSH1 0xFF SLOAD PUSH2 0x45D SWAP1 PUSH1 0x1 PUSH1 0x1 PUSH1 0xA0 SHL SUB AND DUP2 JUMP JUMPDEST CALLVALUE DUP1 ISZERO PUSH2 0x769 JUMPI PUSH1 0x0 DUP1 REVERT JUMPDEST POP PUSH2 0x772 PUSH1 0x6 DUP2 JUMP JUMPDEST PUSH1 0x40 MLOAD PUSH1 0xFF SWAP1 SWAP2 AND DUP2 MSTORE PUSH1 0x20 ADD PUSH2 0x3A3 JUMP JUMPDEST CALLVALUE DUP1 ISZERO PUSH2 0x790 JUMPI PUSH1 0x0 DUP1 REVERT JUMPDEST POP PUSH2 0x10A SLOAD PUSH2 0x45D SWAP1 PUSH1 0x1 PUSH1 0x1 PUSH1 0xA0 SHL SUB AND DUP2 JUMP JUMPDEST CALLVALUE DUP1 ISZERO PUSH2 0x7B1 JUMPI PUSH1 0x0 DUP1 REVERT JUMPDEST POP PUSH2 0x65F PUSH2 0x7C0 CALLDATASIZE PUSH1 0x4 PUSH2 0x4688 JUMP JUMPDEST PUSH2 0x190E JUMP JUMPDEST CALLVALUE DUP1 ISZERO PUSH2 0x7D1 JUMPI PUSH1 0x0 DUP1 REVERT JUMPDEST POP PUSH2 0x399 PUSH2 0x7E0 CALLDATASIZE PUSH1 0x4 PUSH2 0x4723 JUMP JUMPDEST PUSH2 0x1A24 JUMP JUMPDEST CALLVALUE DUP1 ISZERO PUSH2 0x7F1 JUMPI PUSH1 0x0 DUP1 REVERT JUMPDEST POP PUSH2 0x2E0 PUSH2 0x800 CALLDATASIZE PUSH1 0x4 PUSH2 0x47FF JUMP JUMPDEST PUSH2 0x1AB4 JUMP JUMPDEST CALLVALUE DUP1 ISZERO PUSH2 0x811 JUMPI PUSH1 0x0 DUP1 REVERT JUMPDEST POP PUSH2 0x399 PUSH2 0x2710 DUP2 JUMP JUMPDEST CALLVALUE DUP1 ISZERO PUSH2 0x827 JUMPI PUSH1 0x0 DUP1 REVERT JUMPDEST POP PUSH1 0xFB SLOAD PUSH2 0x45D SWAP1 PUSH1 0x1 PUSH1 0x1 PUSH1 0xA0 SHL SUB AND DUP2 JUMP JUMPDEST CALLVALUE DUP1 ISZERO PUSH2 0x847 JUMPI PUSH1 0x0 DUP1 REVERT JUMPDEST POP PUSH2 0x45D PUSH2 0x856 CALLDATASIZE PUSH1 0x4 PUSH2 0x4566 JUMP JUMPDEST PUSH2 0x106 PUSH1 0x20 MSTORE PUSH1 0x0 SWAP1 DUP2 MSTORE PUSH1 0x40 SWAP1 KECCAK256 SLOAD PUSH1 0x1 PUSH1 0x1 PUSH1 0xA0 SHL SUB AND DUP2 JUMP JUMPDEST PUSH2 0x2E0 PUSH2 0x880 CALLDATASIZE PUSH1 0x4 PUSH2 0x4B77 JUMP JUMPDEST PUSH2 0x1B3D JUMP JUMPDEST CALLVALUE DUP1 ISZERO PUSH2 0x891 JUMPI PUSH1 0x0 DUP1 REVERT JUMPDEST POP PUSH2 0x2E0 PUSH2 0x8A0 CALLDATASIZE PUSH1 0x4 PUSH2 0x46E2 JUMP JUMPDEST PUSH2 0x1DCA JUMP JUMPDEST CALLVALUE DUP1 ISZERO PUSH2 0x8B1 JUMPI PUSH1 0x0 DUP1 REVERT JUMPDEST POP PUSH2 0x2E0 PUSH2 0x8C0 CALLDATASIZE PUSH1 0x4 PUSH2 0x4723 JUMP JUMPDEST PUSH2 0x1ED5 JUMP JUMPDEST CALLVALUE DUP1 ISZERO PUSH2 0x8D1 JUMPI PUSH1 0x0 DUP1 REVERT JUMPDEST POP PUSH2 0x399 PUSH2 0x1F28 JUMP JUMPDEST CALLVALUE DUP1 ISZERO PUSH2 0x8E6 JUMPI PUSH1 0x0 DUP1 REVERT JUMPDEST POP PUSH2 0x2E0 PUSH2 0x8F5 CALLDATASIZE PUSH1 0x4 PUSH2 0x4723 JUMP JUMPDEST PUSH2 0x1FAE JUMP JUMPDEST CALLVALUE DUP1 ISZERO PUSH2 0x906 JUMPI PUSH1 0x0 DUP1 REVERT JUMPDEST POP PUSH2 0x2E0 PUSH2 0x915 CALLDATASIZE PUSH1 0x4 PUSH2 0x4BE6 JUMP JUMPDEST PUSH2 0x208F JUMP JUMPDEST CALLVALUE DUP1 ISZERO PUSH2 0x926 JUMPI PUSH1 0x0 DUP1 REVERT JUMPDEST POP PUSH2 0x2E0 PUSH2 0x935 CALLDATASIZE PUSH1 0x4 PUSH2 0x4C04 JUMP JUMPDEST PUSH2 0x20F4 JUMP JUMPDEST PUSH2 0x2E0 PUSH2 0x948 CALLDATASIZE PUSH1 0x4 PUSH2 0x45F5 JUMP JUMPDEST PUSH2 0x2162 JUMP JUMPDEST CALLVALUE DUP1 ISZERO PUSH2 0x959 JUMPI PUSH1 0x0 DUP1 REVERT JUMPDEST POP PUSH2 0x2E0 PUSH2 0x968 CALLDATASIZE PUSH1 0x4 PUSH2 0x4A19 JUMP JUMPDEST PUSH2 0x237A JUMP JUMPDEST CALLVALUE DUP1 ISZERO PUSH2 0x979 JUMPI PUSH1 0x0 DUP1 REVERT JUMPDEST POP PUSH2 0x399 PUSH2 0x109 SLOAD DUP2 JUMP JUMPDEST CALLVALUE DUP1 ISZERO PUSH2 0x990 JUMPI PUSH1 0x0 DUP1 REVERT JUMPDEST POP PUSH2 0x2E0 PUSH2 0x99F CALLDATASIZE PUSH1 0x4 PUSH2 0x4C72 JUMP JUMPDEST PUSH2 0x23F2 JUMP JUMPDEST CALLVALUE DUP1 ISZERO PUSH2 0x9B0 JUMPI PUSH1 0x0 DUP1 REVERT JUMPDEST POP PUSH2 0x3FF PUSH2 0x9BF CALLDATASIZE PUSH1 0x4 PUSH2 0x4688 JUMP JUMPDEST PUSH2 0x107 PUSH1 0x20 MSTORE PUSH1 0x0 SWAP1 DUP2 MSTORE PUSH1 0x40 SWAP1 KECCAK256 SLOAD PUSH1 0xFF AND DUP2 JUMP JUMPDEST CALLVALUE DUP1 ISZERO PUSH2 0x9E1 JUMPI PUSH1 0x0 DUP1 REVERT JUMPDEST POP PUSH2 0x399 PUSH2 0x9F0 CALLDATASIZE PUSH1 0x4 PUSH2 0x4723 JUMP JUMPDEST PUSH2 0x103 PUSH1 0x20 MSTORE PUSH1 0x0 SWAP1 DUP2 MSTORE PUSH1 0x40 SWAP1 KECCAK256 SLOAD DUP2 JUMP JUMPDEST CALLVALUE DUP1 ISZERO PUSH2 0xA0F JUMPI PUSH1 0x0 DUP1 REVERT JUMPDEST POP PUSH2 0x2E0 PUSH2 0xA1E CALLDATASIZE PUSH1 0x4 PUSH2 0x4A19 JUMP JUMPDEST PUSH2 0x245C JUMP JUMPDEST CALLVALUE DUP1 ISZERO PUSH2 0xA2F JUMPI PUSH1 0x0 DUP1 REVERT JUMPDEST POP PUSH2 0x2E0 PUSH2 0xA3E CALLDATASIZE PUSH1 0x4 PUSH2 0x47FF JUMP JUMPDEST PUSH2 0x24B2 JUMP JUMPDEST CALLVALUE DUP1 ISZERO PUSH2 0xA4F JUMPI PUSH1 0x0 DUP1 REVERT JUMPDEST POP PUSH2 0x108 SLOAD PUSH2 0x3FF SWAP1 PUSH1 0x1 PUSH1 0xA0 SHL SWAP1 DIV PUSH1 0xFF AND DUP2 JUMP JUMPDEST CALLVALUE DUP1 ISZERO PUSH2 0xA71 JUMPI PUSH1 0x0 DUP1 REVERT JUMPDEST POP PUSH2 0x3FF PUSH2 0xA80 CALLDATASIZE PUSH1 0x4 PUSH2 0x4723 JUMP JUMPDEST PUSH2 0x105 PUSH1 0x20 MSTORE PUSH1 0x0 SWAP1 DUP2 MSTORE PUSH1 0x40 SWAP1 KECCAK256 SLOAD PUSH1 0xFF AND DUP2 JUMP JUMPDEST CALLVALUE DUP1 ISZERO PUSH2 0xAA2 JUMPI PUSH1 0x0 DUP1 REVERT JUMPDEST POP PUSH2 0x2E0 PUSH2 0xAB1 CALLDATASIZE PUSH1 0x4 PUSH2 0x4723 JUMP JUMPDEST PUSH2 0x250C JUMP JUMPDEST CALLVALUE DUP1 ISZERO PUSH2 0xAC2 JUMPI PUSH1 0x0 DUP1 REVERT JUMPDEST POP PUSH2 0x65F PUSH2 0xAD1 CALLDATASIZE PUSH1 0x4 PUSH2 0x4CAE JUMP JUMPDEST PUSH2 0x2582 JUMP JUMPDEST PUSH2 0xADE PUSH2 0x2617 JUMP JUMPDEST PUSH2 0x2710 DUP2 GT ISZERO PUSH2 0xB35 JUMPI PUSH1 0x40 MLOAD PUSH3 0x461BCD PUSH1 0xE5 SHL DUP2 MSTORE PUSH1 0x20 PUSH1 0x4 DUP3 ADD MSTORE PUSH1 0x1E PUSH1 0x24 DUP3 ADD MSTORE PUSH32 0x546F6B656E4272696467653A2062726964676520666565203E20313030250000 PUSH1 0x44 DUP3 ADD MSTORE PUSH1 0x64 ADD JUMPDEST PUSH1 0x40 MLOAD DUP1 SWAP2 SUB SWAP1 REVERT JUMPDEST PUSH2 0x102 DUP2 SWAP1 SSTORE PUSH1 0x40 MLOAD DUP2 DUP2 MSTORE PUSH32 0x9A749C8193BFD56B2B2A05C0BD18FBB0F69801A3FD6576C40B90537FD0FC3854 SWAP1 PUSH1 0x20 ADD JUMPDEST PUSH1 0x40 MLOAD DUP1 SWAP2 SUB SWAP1 LOG1 POP JUMP JUMPDEST PUSH1 0xFB SLOAD PUSH1 0x1 PUSH1 0x1 PUSH1 0xA0 SHL SUB AND CALLER PUSH1 0x1 PUSH1 0x1 PUSH1 0xA0 SHL SUB AND EQ PUSH2 0xBD5 JUMPI PUSH1 0x40 MLOAD PUSH3 0x461BCD PUSH1 0xE5 SHL DUP2 MSTORE PUSH1 0x20 PUSH1 0x4 DUP3 ADD MSTORE PUSH1 0x1E PUSH1 0x24 DUP3 ADD MSTORE PUSH32 0x4C7A4170703A20696E76616C696420656E64706F696E742063616C6C65720000 PUSH1 0x44 DUP3 ADD MSTORE PUSH1 0x64 ADD PUSH2 0xB2C JUMP JUMPDEST PUSH2 0xFFFF DUP7 AND PUSH1 0x0 SWAP1 DUP2 MSTORE PUSH1 0xFC PUSH1 0x20 MSTORE PUSH1 0x40 DUP2 KECCAK256 DUP1 SLOAD PUSH2 0xBF3 SWAP1 PUSH2 0x4CFB JUMP JUMPDEST DUP1 PUSH1 0x1F ADD PUSH1 0x20 DUP1 SWAP2 DIV MUL PUSH1 0x20 ADD PUSH1 0x40 MLOAD SWAP1 DUP2 ADD PUSH1 0x40 MSTORE DUP1 SWAP3 SWAP2 SWAP1 DUP2 DUP2 MSTORE PUSH1 0x20 ADD DUP3 DUP1 SLOAD PUSH2 0xC1F SWAP1 PUSH2 0x4CFB JUMP JUMPDEST DUP1 ISZERO PUSH2 0xC6C JUMPI DUP1 PUSH1 0x1F LT PUSH2 0xC41 JUMPI PUSH2 0x100 DUP1 DUP4 SLOAD DIV MUL DUP4 MSTORE SWAP2 PUSH1 0x20 ADD SWAP2 PUSH2 0xC6C JUMP JUMPDEST DUP3 ADD SWAP2 SWAP1 PUSH1 0x0 MSTORE PUSH1 0x20 PUSH1 0x0 KECCAK256 SWAP1 JUMPDEST DUP2 SLOAD DUP2 MSTORE SWAP1 PUSH1 0x1 ADD SWAP1 PUSH1 0x20 ADD DUP1 DUP4 GT PUSH2 0xC4F JUMPI DUP3 SWAP1 SUB PUSH1 0x1F AND DUP3 ADD SWAP2 JUMPDEST POP POP POP POP POP SWAP1 POP DUP1 MLOAD DUP7 DUP7 SWAP1 POP EQ DUP1 ISZERO PUSH2 0xC87 JUMPI POP PUSH1 0x0 DUP2 MLOAD GT JUMPDEST DUP1 ISZERO PUSH2 0xCAF JUMPI POP DUP1 MLOAD PUSH1 0x20 DUP3 ADD KECCAK256 PUSH1 0x40 MLOAD PUSH2 0xCA5 SWAP1 DUP9 SWAP1 DUP9 SWAP1 PUSH2 0x4D2F JUMP JUMPDEST PUSH1 0x40 MLOAD DUP1 SWAP2 SUB SWAP1 KECCAK256 EQ JUMPDEST PUSH2 0xD0A JUMPI PUSH1 0x40 MLOAD PUSH3 0x461BCD PUSH1 0xE5 SHL DUP2 MSTORE PUSH1 0x20 PUSH1 0x4 DUP3 ADD MSTORE PUSH1 0x26 PUSH1 0x24 DUP3 ADD MSTORE PUSH32 0x4C7A4170703A20696E76616C696420736F757263652073656E64696E6720636F PUSH1 0x44 DUP3 ADD MSTORE PUSH6 0x1B9D1C9858DD PUSH1 0xD2 SHL PUSH1 0x64 DUP3 ADD MSTORE PUSH1 0x84 ADD PUSH2 0xB2C JUMP JUMPDEST PUSH2 0xD80 DUP8 DUP8 DUP8 DUP1 DUP1 PUSH1 0x1F ADD PUSH1 0x20 DUP1 SWAP2 DIV MUL PUSH1 0x20 ADD PUSH1 0x40 MLOAD SWAP1 DUP2 ADD PUSH1 0x40 MSTORE DUP1 SWAP4 SWAP3 SWAP2 SWAP1 DUP2 DUP2 MSTORE PUSH1 0x20 ADD DUP4 DUP4 DUP1 DUP3 DUP5 CALLDATACOPY PUSH1 0x0 SWAP3 ADD SWAP2 SWAP1 SWAP2 MSTORE POP POP PUSH1 0x40 DUP1 MLOAD PUSH1 0x20 PUSH1 0x1F DUP11 ADD DUP2 SWAP1 DIV DUP2 MUL DUP3 ADD DUP2 ADD SWAP1 SWAP3 MSTORE DUP9 DUP2 MSTORE DUP11 SWAP4 POP SWAP2 POP DUP9 SWAP1 DUP9 SWAP1 DUP2 SWAP1 DUP5 ADD DUP4 DUP3 DUP1 DUP3 DUP5 CALLDATACOPY PUSH1 0x0 SWAP3 ADD SWAP2 SWAP1 SWAP2 MSTORE POP PUSH2 0x2676 SWAP3 POP POP POP JUMP JUMPDEST POP POP POP POP POP POP POP JUMP JUMPDEST PUSH2 0xD91 PUSH2 0x2617 JUMP JUMPDEST PUSH1 0xFB SLOAD PUSH1 0x40 MLOAD PUSH4 0x7E0DB17 PUSH1 0xE0 SHL DUP2 MSTORE PUSH2 0xFFFF DUP4 AND PUSH1 0x4 DUP3 ADD MSTORE PUSH1 0x1 PUSH1 0x1 PUSH1 0xA0 SHL SUB SWAP1 SWAP2 AND SWAP1 PUSH4 0x7E0DB17 SWAP1 PUSH1 0x24 ADD JUMPDEST PUSH1 0x0 PUSH1 0x40 MLOAD DUP1 DUP4 SUB DUP2 PUSH1 0x0 DUP8 DUP1 EXTCODESIZE ISZERO DUP1 ISZERO PUSH2 0xDDB JUMPI PUSH1 0x0 DUP1 REVERT JUMPDEST POP GAS CALL ISZERO DUP1 ISZERO PUSH2 0xDEF JUMPI RETURNDATASIZE PUSH1 0x0 DUP1 RETURNDATACOPY RETURNDATASIZE PUSH1 0x0 REVERT JUMPDEST POP POP POP POP POP JUMP JUMPDEST PUSH2 0xDFE PUSH2 0x2617 JUMP JUMPDEST PUSH2 0xFFFF SWAP1 SWAP2 AND PUSH1 0x0 SWAP1 DUP2 MSTORE PUSH1 0xFE PUSH1 0x20 MSTORE PUSH1 0x40 SWAP1 KECCAK256 SSTORE JUMP JUMPDEST PUSH2 0xE1D PUSH2 0x2617 JUMP JUMPDEST PUSH1 0x0 PUSH2 0xE28 DUP5 PUSH2 0x1A24 JUMP JUMPDEST SWAP1 POP DUP1 DUP3 GT ISZERO PUSH2 0xE4A JUMPI PUSH1 0x40 MLOAD PUSH3 0x461BCD PUSH1 0xE5 SHL DUP2 MSTORE PUSH1 0x4 ADD PUSH2 0xB2C SWAP1 PUSH2 0x4D3F JUMP JUMPDEST PUSH2 0xE5E PUSH1 0x1 PUSH1 0x1 PUSH1 0xA0 SHL SUB DUP6 AND DUP5 DUP5 PUSH2 0x26EF JUMP JUMPDEST DUP4 PUSH1 0x1 PUSH1 0x1 PUSH1 0xA0 SHL SUB AND PUSH32 0xF15A0A3784DEA9B4FE33BC98E2450745E262D310237B2868EA8EF56967FF3ECB DUP5 DUP5 PUSH1 0x40 MLOAD PUSH2 0xE99 SWAP3 SWAP2 SWAP1 PUSH2 0x4D74 JUMP JUMPDEST PUSH1 0x40 MLOAD DUP1 SWAP2 SUB SWAP1 LOG2 POP POP POP POP JUMP JUMPDEST PUSH2 0xEAF PUSH2 0x2617 JUMP JUMPDEST PUSH1 0xFB SLOAD PUSH1 0x40 MLOAD PUSH4 0x10DDB137 PUSH1 0xE0 SHL DUP2 MSTORE PUSH2 0xFFFF DUP4 AND PUSH1 0x4 DUP3 ADD MSTORE PUSH1 0x1 PUSH1 0x1 PUSH1 0xA0 SHL SUB SWAP1 SWAP2 AND SWAP1 PUSH4 0x10DDB137 SWAP1 PUSH1 0x24 ADD PUSH2 0xDC1 JUMP JUMPDEST PUSH1 0x1 PUSH1 0x1 PUSH1 0xA0 SHL SUB PUSH32 0x0 AND ADDRESS SUB PUSH2 0xF2B JUMPI PUSH1 0x40 MLOAD PUSH3 0x461BCD PUSH1 0xE5 SHL DUP2 MSTORE PUSH1 0x4 ADD PUSH2 0xB2C SWAP1 PUSH2 0x4D8D JUMP JUMPDEST PUSH32 0x0 PUSH1 0x1 PUSH1 0x1 PUSH1 0xA0 SHL SUB AND PUSH2 0xF5D PUSH2 0x2745 JUMP JUMPDEST PUSH1 0x1 PUSH1 0x1 PUSH1 0xA0 SHL SUB AND EQ PUSH2 0xF83 JUMPI PUSH1 0x40 MLOAD PUSH3 0x461BCD PUSH1 0xE5 SHL DUP2 MSTORE PUSH1 0x4 ADD PUSH2 0xB2C SWAP1 PUSH2 0x4DC7 JUMP JUMPDEST PUSH2 0xF8C DUP2 PUSH2 0x2761 JUMP JUMPDEST PUSH1 0x40 DUP1 MLOAD PUSH1 0x0 DUP1 DUP3 MSTORE PUSH1 0x20 DUP3 ADD SWAP1 SWAP3 MSTORE PUSH2 0xFA8 SWAP2 DUP4 SWAP2 SWAP1 PUSH2 0x2769 JUMP JUMPDEST POP JUMP JUMPDEST PUSH2 0x108 SLOAD DUP8 SWAP1 PUSH1 0x1 PUSH1 0xA8 SHL SWAP1 DIV PUSH1 0xFF AND ISZERO DUP1 ISZERO PUSH2 0xFE2 JUMPI POP PUSH1 0x1 PUSH1 0x1 PUSH1 0xA0 SHL SUB DUP2 AND PUSH1 0x0 SWAP1 DUP2 MSTORE PUSH2 0x105 PUSH1 0x20 MSTORE PUSH1 0x40 SWAP1 KECCAK256 SLOAD PUSH1 0xFF AND ISZERO JUMPDEST PUSH2 0xFFE JUMPI PUSH1 0x40 MLOAD PUSH3 0x461BCD PUSH1 0xE5 SHL DUP2 MSTORE PUSH1 0x4 ADD PUSH2 0xB2C SWAP1 PUSH2 0x4E01 JUMP JUMPDEST PUSH2 0x1006 PUSH2 0x28D4 JUMP JUMPDEST PUSH1 0x1 PUSH1 0x1 PUSH1 0xA0 SHL SUB DUP9 AND PUSH1 0x0 SWAP1 DUP2 MSTORE PUSH2 0x104 PUSH1 0x20 MSTORE PUSH1 0x40 SWAP1 KECCAK256 SLOAD PUSH1 0xFF AND DUP1 ISZERO PUSH2 0x1048 JUMPI POP PUSH1 0x1 PUSH1 0x1 PUSH1 0xA0 SHL SUB DUP7 AND PUSH1 0x0 SWAP1 DUP2 MSTORE PUSH2 0x104 PUSH1 0x20 MSTORE PUSH1 0x40 SWAP1 KECCAK256 SLOAD PUSH1 0xFF AND JUMPDEST PUSH2 0x10B8 JUMPI PUSH1 0x40 MLOAD PUSH3 0x461BCD PUSH1 0xE5 SHL DUP2 MSTORE PUSH1 0x20 PUSH1 0x4 DUP3 ADD MSTORE PUSH1 0x3B PUSH1 0x24 DUP3 ADD MSTORE PUSH32 0x546F6B656E4272696467653A20696E70757420746F6B656E20616E64206F7574 PUSH1 0x44 DUP3 ADD MSTORE PUSH27 0x1C1D5D081D1BDAD95B88185C99481B9BDD081CDD5C1C1BDC9D1959 PUSH1 0x2A SHL PUSH1 0x64 DUP3 ADD MSTORE PUSH1 0x84 ADD PUSH2 0xB2C JUMP JUMPDEST PUSH2 0x10C3 DUP9 CALLER DUP10 PUSH2 0x292D JUMP JUMPDEST SWAP7 POP PUSH1 0x0 PUSH2 0x10D1 DUP10 DUP10 PUSH2 0x2A3A JUMP JUMPDEST SWAP1 POP PUSH1 0x0 DUP9 GT PUSH2 0x1138 JUMPI PUSH1 0x40 MLOAD PUSH3 0x461BCD PUSH1 0xE5 SHL DUP2 MSTORE PUSH1 0x20 PUSH1 0x4 DUP3 ADD MSTORE PUSH1 0x2C PUSH1 0x24 DUP3 ADD MSTORE PUSH32 0x546F6B656E4272696467653A20616D6F756E74496E206D757374206265206772 PUSH1 0x44 DUP3 ADD MSTORE PUSH12 0x6561746572207468616E203 PUSH1 0xA4 SHL PUSH1 0x64 DUP3 ADD MSTORE PUSH1 0x84 ADD PUSH2 0xB2C JUMP JUMPDEST PUSH1 0x1 PUSH1 0x1 PUSH1 0xA0 SHL SUB DUP10 AND PUSH1 0x0 SWAP1 DUP2 MSTORE PUSH2 0x103 PUSH1 0x20 MSTORE PUSH1 0x40 DUP2 KECCAK256 DUP1 SLOAD DUP11 SWAP3 SWAP1 PUSH2 0x1161 SWAP1 DUP5 SWAP1 PUSH2 0x4E44 JUMP JUMPDEST SWAP1 SWAP2 SSTORE POP PUSH2 0x1177 SWAP1 POP DUP11 DUP3 DUP10 DUP10 DUP10 DUP10 DUP10 CALLVALUE PUSH2 0x2C9F JUMP JUMPDEST DUP6 PUSH1 0x1 PUSH1 0x1 PUSH1 0xA0 SHL SUB AND CALLER PUSH1 0x1 PUSH1 0x1 PUSH1 0xA0 SHL SUB AND DUP11 PUSH1 0x1 PUSH1 0x1 PUSH1 0xA0 SHL SUB AND PUSH1 0x0 DUP1 MLOAD PUSH1 0x20 PUSH2 0x5660 DUP4 CODECOPY DUP2 MLOAD SWAP2 MSTORE DUP12 PUSH1 0x40 MLOAD PUSH2 0x11B4 SWAP2 DUP2 MSTORE PUSH1 0x20 ADD SWAP1 JUMP JUMPDEST PUSH1 0x40 MLOAD DUP1 SWAP2 SUB SWAP1 LOG4 POP PUSH2 0x11C7 PUSH1 0x1 PUSH1 0xC9 SSTORE JUMP JUMPDEST POP POP POP POP POP POP POP POP POP JUMP JUMPDEST PUSH2 0xFFFF DUP4 AND PUSH1 0x0 SWAP1 DUP2 MSTORE PUSH1 0xFC PUSH1 0x20 MSTORE PUSH1 0x40 DUP2 KECCAK256 DUP1 SLOAD DUP3 SWAP2 SWAP1 PUSH2 0x11F3 SWAP1 PUSH2 0x4CFB JUMP JUMPDEST DUP1 PUSH1 0x1F ADD PUSH1 0x20 DUP1 SWAP2 DIV MUL PUSH1 0x20 ADD PUSH1 0x40 MLOAD SWAP1 DUP2 ADD PUSH1 0x40 MSTORE DUP1 SWAP3 SWAP2 SWAP1 DUP2 DUP2 MSTORE PUSH1 0x20 ADD DUP3 DUP1 SLOAD PUSH2 0x121F SWAP1 PUSH2 0x4CFB JUMP JUMPDEST DUP1 ISZERO PUSH2 0x126C JUMPI DUP1 PUSH1 0x1F LT PUSH2 0x1241 JUMPI PUSH2 0x100 DUP1 DUP4 SLOAD DIV MUL DUP4 MSTORE SWAP2 PUSH1 0x20 ADD SWAP2 PUSH2 0x126C JUMP JUMPDEST DUP3 ADD SWAP2 SWAP1 PUSH1 0x0 MSTORE PUSH1 0x20 PUSH1 0x0 KECCAK256 SWAP1 JUMPDEST DUP2 SLOAD DUP2 MSTORE SWAP1 PUSH1 0x1 ADD SWAP1 PUSH1 0x20 ADD DUP1 DUP4 GT PUSH2 0x124F JUMPI DUP3 SWAP1 SUB PUSH1 0x1F AND DUP3 ADD SWAP2 JUMPDEST POP POP POP POP POP SWAP1 POP DUP4 DUP4 PUSH1 0x40 MLOAD PUSH2 0x1283 SWAP3 SWAP2 SWAP1 PUSH2 0x4D2F JUMP JUMPDEST PUSH1 0x40 MLOAD DUP1 SWAP2 SUB SWAP1 KECCAK256 DUP2 DUP1 MLOAD SWAP1 PUSH1 0x20 ADD KECCAK256 EQ SWAP2 POP POP SWAP4 SWAP3 POP POP POP JUMP JUMPDEST PUSH2 0x12A6 PUSH2 0x2617 JUMP JUMPDEST PUSH1 0xFB SLOAD PUSH1 0x40 MLOAD PUSH4 0x42D65A8D PUSH1 0xE0 SHL DUP2 MSTORE PUSH1 0x1 PUSH1 0x1 PUSH1 0xA0 SHL SUB SWAP1 SWAP2 AND SWAP1 PUSH4 0x42D65A8D SWAP1 PUSH2 0x12DA SWAP1 DUP7 SWAP1 DUP7 SWAP1 DUP7 SWAP1 PUSH1 0x4 ADD PUSH2 0x4E80 JUMP JUMPDEST PUSH1 0x0 PUSH1 0x40 MLOAD DUP1 DUP4 SUB DUP2 PUSH1 0x0 DUP8 DUP1 EXTCODESIZE ISZERO DUP1 ISZERO PUSH2 0x12F4 JUMPI PUSH1 0x0 DUP1 REVERT JUMPDEST POP GAS CALL ISZERO DUP1 ISZERO PUSH2 0xD80 JUMPI RETURNDATASIZE PUSH1 0x0 DUP1 RETURNDATACOPY RETURNDATASIZE PUSH1 0x0 REVERT JUMPDEST PUSH1 0x1 PUSH1 0x1 PUSH1 0xA0 SHL SUB PUSH32 0x0 AND ADDRESS SUB PUSH2 0x1350 JUMPI PUSH1 0x40 MLOAD PUSH3 0x461BCD PUSH1 0xE5 SHL DUP2 MSTORE PUSH1 0x4 ADD PUSH2 0xB2C SWAP1 PUSH2 0x4D8D JUMP JUMPDEST PUSH32 0x0 PUSH1 0x1 PUSH1 0x1 PUSH1 0xA0 SHL SUB AND PUSH2 0x1382 PUSH2 0x2745 JUMP JUMPDEST PUSH1 0x1 PUSH1 0x1 PUSH1 0xA0 SHL SUB AND EQ PUSH2 0x13A8 JUMPI PUSH1 0x40 MLOAD PUSH3 0x461BCD PUSH1 0xE5 SHL DUP2 MSTORE PUSH1 0x4 ADD PUSH2 0xB2C SWAP1 PUSH2 0x4DC7 JUMP JUMPDEST PUSH2 0x13B1 DUP3 PUSH2 0x2761 JUMP JUMPDEST PUSH2 0x13BD DUP3 DUP3 PUSH1 0x1 PUSH2 0x2769 JUMP JUMPDEST POP POP JUMP JUMPDEST PUSH1 0x0 ADDRESS PUSH1 0x1 PUSH1 0x1 PUSH1 0xA0 SHL SUB PUSH32 0x0 AND EQ PUSH2 0x145C JUMPI PUSH1 0x40 MLOAD PUSH3 0x461BCD PUSH1 0xE5 SHL DUP2 MSTORE PUSH1 0x20 PUSH1 0x4 DUP3 ADD MSTORE PUSH1 0x38 PUSH1 0x24 DUP3 ADD MSTORE PUSH32 0x555550535570677261646561626C653A206D757374206E6F742062652063616C PUSH1 0x44 DUP3 ADD MSTORE PUSH24 0x1B1959081D1A1C9BDD59DA0819195B1959D85D1958D85B1B PUSH1 0x42 SHL PUSH1 0x64 DUP3 ADD MSTORE PUSH1 0x84 ADD PUSH2 0xB2C JUMP JUMPDEST POP PUSH1 0x0 DUP1 MLOAD PUSH1 0x20 PUSH2 0x56A0 DUP4 CODECOPY DUP2 MLOAD SWAP2 MSTORE SWAP1 JUMP JUMPDEST PUSH2 0x1477 PUSH2 0x2617 JUMP JUMPDEST PUSH2 0xFFFF SWAP2 SWAP1 SWAP2 AND PUSH1 0x0 SWAP1 DUP2 MSTORE PUSH2 0x107 PUSH1 0x20 MSTORE PUSH1 0x40 SWAP1 KECCAK256 DUP1 SLOAD PUSH1 0xFF NOT AND SWAP2 ISZERO ISZERO SWAP2 SWAP1 SWAP2 OR SWAP1 SSTORE JUMP JUMPDEST PUSH2 0x14A6 PUSH2 0x2617 JUMP JUMPDEST PUSH1 0x1 PUSH1 0x1 PUSH1 0xA0 SHL SUB DUP2 AND PUSH2 0x1507 JUMPI PUSH1 0x40 MLOAD PUSH3 0x461BCD PUSH1 0xE5 SHL DUP2 MSTORE PUSH1 0x20 PUSH1 0x4 DUP3 ADD MSTORE PUSH1 0x22 PUSH1 0x24 DUP3 ADD MSTORE PUSH32 0x546F6B656E4272696467653A20696E76616C696420746F6B656E206164647265 PUSH1 0x44 DUP3 ADD MSTORE PUSH2 0x7373 PUSH1 0xF0 SHL PUSH1 0x64 DUP3 ADD MSTORE PUSH1 0x84 ADD PUSH2 0xB2C JUMP JUMPDEST PUSH2 0x108 DUP1 SLOAD PUSH1 0x1 PUSH1 0x1 PUSH1 0xA0 SHL SUB NOT AND PUSH1 0x1 PUSH1 0x1 PUSH1 0xA0 SHL SUB DUP4 AND OR SWAP1 SSTORE PUSH1 0x40 MLOAD PUSH32 0xE390BCEC6614D6B1F8AE47A4D9D46531CE328E3D293ECD6DDD015CB01EFF0300 SWAP1 PUSH2 0xB67 SWAP1 DUP4 SWAP1 PUSH2 0x4851 JUMP JUMPDEST CALLER ADDRESS EQ PUSH2 0x15B1 JUMPI PUSH1 0x40 MLOAD PUSH3 0x461BCD PUSH1 0xE5 SHL DUP2 MSTORE PUSH1 0x20 PUSH1 0x4 DUP3 ADD MSTORE PUSH1 0x26 PUSH1 0x24 DUP3 ADD MSTORE PUSH32 0x4E6F6E626C6F636B696E674C7A4170703A2063616C6C6572206D757374206265 PUSH1 0x44 DUP3 ADD MSTORE PUSH6 0x204C7A41707 PUSH1 0xD4 SHL PUSH1 0x64 DUP3 ADD MSTORE PUSH1 0x84 ADD PUSH2 0xB2C JUMP JUMPDEST PUSH2 0x1627 DUP7 DUP7 DUP7 DUP1 DUP1 PUSH1 0x1F ADD PUSH1 0x20 DUP1 SWAP2 DIV MUL PUSH1 0x20 ADD PUSH1 0x40 MLOAD SWAP1 DUP2 ADD PUSH1 0x40 MSTORE DUP1 SWAP4 SWAP3 SWAP2 SWAP1 DUP2 DUP2 MSTORE PUSH1 0x20 ADD DUP4 DUP4 DUP1 DUP3 DUP5 CALLDATACOPY PUSH1 0x0 SWAP3 ADD SWAP2 SWAP1 SWAP2 MSTORE POP POP PUSH1 0x40 DUP1 MLOAD PUSH1 0x20 PUSH1 0x1F DUP10 ADD DUP2 SWAP1 DIV DUP2 MUL DUP3 ADD DUP2 ADD SWAP1 SWAP3 MSTORE DUP8 DUP2 MSTORE DUP10 SWAP4 POP SWAP2 POP DUP8 SWAP1 DUP8 SWAP1 DUP2 SWAP1 DUP5 ADD DUP4 DUP3 DUP1 DUP3 DUP5 CALLDATACOPY PUSH1 0x0 SWAP3 ADD SWAP2 SWAP1 SWAP2 MSTORE POP PUSH2 0x2D41 SWAP3 POP POP POP JUMP JUMPDEST POP POP POP POP POP POP JUMP JUMPDEST PUSH2 0x1637 PUSH2 0x2617 JUMP JUMPDEST PUSH2 0x108 DUP1 SLOAD DUP3 ISZERO ISZERO PUSH1 0x1 PUSH1 0xA8 SHL MUL PUSH1 0xFF PUSH1 0xA8 SHL NOT SWAP1 SWAP2 AND OR SWAP1 SSTORE PUSH1 0x40 MLOAD PUSH32 0x5362D4BD13945E8D116B90D83A7050FA61CEB02BB79BFAE783377ADB46916D94 SWAP1 PUSH2 0xB67 SWAP1 DUP4 ISZERO ISZERO DUP2 MSTORE PUSH1 0x20 ADD SWAP1 JUMP JUMPDEST PUSH2 0x168D PUSH2 0x2617 JUMP JUMPDEST JUMP JUMPDEST PUSH2 0x1697 PUSH2 0x2617 JUMP JUMPDEST PUSH2 0xFFFF DUP3 AND PUSH1 0x0 SWAP1 DUP2 MSTORE PUSH2 0x107 PUSH1 0x20 MSTORE PUSH1 0x40 SWAP1 KECCAK256 SLOAD PUSH1 0xFF AND PUSH2 0x1712 JUMPI PUSH1 0x40 MLOAD PUSH3 0x461BCD PUSH1 0xE5 SHL DUP2 MSTORE PUSH1 0x20 PUSH1 0x4 DUP3 ADD MSTORE PUSH1 0x2E PUSH1 0x24 DUP3 ADD MSTORE PUSH32 0x546F6B656E4272696467653A2074686973206465737420636861696E20696420 PUSH1 0x44 DUP3 ADD MSTORE PUSH14 0x1A5CC81B9BDD08195B98589B1959 PUSH1 0x92 SHL PUSH1 0x64 DUP3 ADD MSTORE PUSH1 0x84 ADD PUSH2 0xB2C JUMP JUMPDEST PUSH1 0x40 MLOAD PUSH1 0x1 PUSH1 0x1 PUSH1 0x60 SHL SUB NOT PUSH1 0x60 DUP4 DUP2 SHL DUP3 AND PUSH1 0x20 DUP5 ADD MSTORE ADDRESS SWAP1 SHL AND PUSH1 0x34 DUP3 ADD MSTORE PUSH1 0x48 ADD PUSH1 0x40 DUP1 MLOAD PUSH1 0x1F NOT DUP2 DUP5 SUB ADD DUP2 MSTORE SWAP2 DUP2 MSTORE PUSH2 0xFFFF DUP5 AND PUSH1 0x0 SWAP1 DUP2 MSTORE PUSH1 0xFC PUSH1 0x20 MSTORE KECCAK256 SWAP1 PUSH2 0x1761 SWAP1 DUP3 PUSH2 0x4EF9 JUMP JUMPDEST POP POP POP JUMP JUMPDEST PUSH1 0xFC PUSH1 0x20 MSTORE PUSH1 0x0 SWAP1 DUP2 MSTORE PUSH1 0x40 SWAP1 KECCAK256 DUP1 SLOAD PUSH2 0x177F SWAP1 PUSH2 0x4CFB JUMP JUMPDEST DUP1 PUSH1 0x1F ADD PUSH1 0x20 DUP1 SWAP2 DIV MUL PUSH1 0x20 ADD PUSH1 0x40 MLOAD SWAP1 DUP2 ADD PUSH1 0x40 MSTORE DUP1 SWAP3 SWAP2 SWAP1 DUP2 DUP2 MSTORE PUSH1 0x20 ADD DUP3 DUP1 SLOAD PUSH2 0x17AB SWAP1 PUSH2 0x4CFB JUMP JUMPDEST DUP1 ISZERO PUSH2 0x17F8 JUMPI DUP1 PUSH1 0x1F LT PUSH2 0x17CD JUMPI PUSH2 0x100 DUP1 DUP4 SLOAD DIV MUL DUP4 MSTORE SWAP2 PUSH1 0x20 ADD SWAP2 PUSH2 0x17F8 JUMP JUMPDEST DUP3 ADD SWAP2 SWAP1 PUSH1 0x0 MSTORE PUSH1 0x20 PUSH1 0x0 KECCAK256 SWAP1 JUMPDEST DUP2 SLOAD DUP2 MSTORE SWAP1 PUSH1 0x1 ADD SWAP1 PUSH1 0x20 ADD DUP1 DUP4 GT PUSH2 0x17DB JUMPI DUP3 SWAP1 SUB PUSH1 0x1F AND DUP3 ADD SWAP2 JUMPDEST POP POP POP POP POP DUP2 JUMP JUMPDEST PUSH1 0x0 DUP1 PUSH2 0x180D DUP5 DUP5 PUSH2 0x3137 JUMP JUMPDEST PUSH1 0x0 PUSH2 0x181C PUSH1 0x0 DUP1 PUSH1 0x0 PUSH2 0x3207 JUMP JUMPDEST SWAP1 POP PUSH1 0x0 DUP1 PUSH2 0x1831 PUSH1 0x40 DUP10 ADD PUSH1 0x20 DUP11 ADD PUSH2 0x4723 JUMP JUMPDEST PUSH1 0xFB SLOAD PUSH1 0x40 MLOAD PUSH4 0x40A7BB1 PUSH1 0xE4 SHL DUP2 MSTORE PUSH1 0x1 PUSH1 0x1 PUSH1 0xA0 SHL SUB SWAP3 DUP4 AND SWAP4 SWAP1 SWAP4 EQ ISZERO SWAP4 POP AND SWAP1 PUSH4 0x40A7BB10 SWAP1 PUSH2 0x1873 SWAP1 DUP12 SWAP1 ADDRESS SWAP1 DUP8 SWAP1 DUP8 SWAP1 DUP14 SWAP1 DUP14 SWAP1 PUSH1 0x4 ADD PUSH2 0x4FB2 JUMP JUMPDEST PUSH1 0x40 DUP1 MLOAD DUP1 DUP4 SUB DUP2 DUP7 GAS STATICCALL ISZERO DUP1 ISZERO PUSH2 0x188F JUMPI RETURNDATASIZE PUSH1 0x0 DUP1 RETURNDATACOPY RETURNDATASIZE PUSH1 0x0 REVERT JUMPDEST POP POP POP POP PUSH1 0x40 MLOAD RETURNDATASIZE PUSH1 0x1F NOT PUSH1 0x1F DUP3 ADD AND DUP3 ADD DUP1 PUSH1 0x40 MSTORE POP DUP2 ADD SWAP1 PUSH2 0x18B3 SWAP2 SWAP1 PUSH2 0x5008 JUMP JUMPDEST SWAP4 POP SWAP4 POP POP POP SWAP5 POP SWAP5 SWAP3 POP POP POP JUMP JUMPDEST PUSH1 0x97 SLOAD PUSH1 0x1 PUSH1 0x1 PUSH1 0xA0 SHL SUB AND SWAP1 JUMP JUMPDEST PUSH2 0x18D9 PUSH2 0x2617 JUMP JUMPDEST PUSH2 0x18E7 DUP3 DUP3 PUSH2 0x35D DUP6 PUSH2 0x1A24 JUMP JUMPDEST PUSH1 0x1 PUSH1 0x1 PUSH1 0xA0 SHL SUB DUP3 AND PUSH1 0x0 SWAP1 DUP2 MSTORE PUSH2 0x103 PUSH1 0x20 MSTORE PUSH1 0x40 SWAP1 KECCAK256 SLOAD PUSH2 0x13BD SWAP1 DUP4 SWAP1 DUP4 SWAP1 PUSH2 0x1DCA JUMP JUMPDEST PUSH2 0xFFFF DUP2 AND PUSH1 0x0 SWAP1 DUP2 MSTORE PUSH1 0xFC PUSH1 0x20 MSTORE PUSH1 0x40 DUP2 KECCAK256 DUP1 SLOAD PUSH1 0x60 SWAP3 SWAP2 SWAP1 PUSH2 0x1931 SWAP1 PUSH2 0x4CFB JUMP JUMPDEST DUP1 PUSH1 0x1F ADD PUSH1 0x20 DUP1 SWAP2 DIV MUL PUSH1 0x20 ADD PUSH1 0x40 MLOAD SWAP1 DUP2 ADD PUSH1 0x40 MSTORE DUP1 SWAP3 SWAP2 SWAP1 DUP2 DUP2 MSTORE PUSH1 0x20 ADD DUP3 DUP1 SLOAD PUSH2 0x195D SWAP1 PUSH2 0x4CFB JUMP JUMPDEST DUP1 ISZERO PUSH2 0x19AA JUMPI DUP1 PUSH1 0x1F LT PUSH2 0x197F JUMPI PUSH2 0x100 DUP1 DUP4 SLOAD DIV MUL DUP4 MSTORE SWAP2 PUSH1 0x20 ADD SWAP2 PUSH2 0x19AA JUMP JUMPDEST DUP3 ADD SWAP2 SWAP1 PUSH1 0x0 MSTORE PUSH1 0x20 PUSH1 0x0 KECCAK256 SWAP1 JUMPDEST DUP2 SLOAD DUP2 MSTORE SWAP1 PUSH1 0x1 ADD SWAP1 PUSH1 0x20 ADD DUP1 DUP4 GT PUSH2 0x198D JUMPI DUP3 SWAP1 SUB PUSH1 0x1F AND DUP3 ADD SWAP2 JUMPDEST POP POP POP POP POP SWAP1 POP DUP1 MLOAD PUSH1 0x0 SUB PUSH2 0x1A02 JUMPI PUSH1 0x40 MLOAD PUSH3 0x461BCD PUSH1 0xE5 SHL DUP2 MSTORE PUSH1 0x20 PUSH1 0x4 DUP3 ADD MSTORE PUSH1 0x1D PUSH1 0x24 DUP3 ADD MSTORE PUSH32 0x4C7A4170703A206E6F20747275737465642070617468207265636F7264000000 PUSH1 0x44 DUP3 ADD MSTORE PUSH1 0x64 ADD PUSH2 0xB2C JUMP JUMPDEST PUSH2 0x1A1D PUSH1 0x0 PUSH1 0x14 DUP4 MLOAD PUSH2 0x1A15 SWAP2 SWAP1 PUSH2 0x502C JUMP JUMPDEST DUP4 SWAP2 SWAP1 PUSH2 0x3260 JUMP JUMPDEST SWAP4 SWAP3 POP POP POP JUMP JUMPDEST PUSH1 0x1 PUSH1 0x1 PUSH1 0xA0 SHL SUB DUP2 AND PUSH1 0x0 DUP2 DUP2 MSTORE PUSH2 0x103 PUSH1 0x20 MSTORE PUSH1 0x40 DUP1 DUP3 KECCAK256 SLOAD SWAP1 MLOAD PUSH4 0x70A08231 PUSH1 0xE0 SHL DUP2 MSTORE SWAP2 SWAP3 SWAP1 SWAP2 PUSH4 0x70A08231 SWAP1 PUSH2 0x1A63 SWAP1 ADDRESS SWAP1 PUSH1 0x4 ADD PUSH2 0x4851 JUMP JUMPDEST PUSH1 0x20 PUSH1 0x40 MLOAD DUP1 DUP4 SUB DUP2 DUP7 GAS STATICCALL ISZERO DUP1 ISZERO PUSH2 0x1A80 JUMPI RETURNDATASIZE PUSH1 0x0 DUP1 RETURNDATACOPY RETURNDATASIZE PUSH1 0x0 REVERT JUMPDEST POP POP POP POP PUSH1 0x40 MLOAD RETURNDATASIZE PUSH1 0x1F NOT PUSH1 0x1F DUP3 ADD AND DUP3 ADD DUP1 PUSH1 0x40 MSTORE POP DUP2 ADD SWAP1 PUSH2 0x1AA4 SWAP2 SWAP1 PUSH2 0x503F JUMP JUMPDEST PUSH2 0x1AAE SWAP2 SWAP1 PUSH2 0x502C JUMP JUMPDEST SWAP3 SWAP2 POP POP JUMP JUMPDEST PUSH2 0x1ABC PUSH2 0x2617 JUMP JUMPDEST DUP2 DUP2 ADDRESS PUSH1 0x40 MLOAD PUSH1 0x20 ADD PUSH2 0x1AD1 SWAP4 SWAP3 SWAP2 SWAP1 PUSH2 0x5058 JUMP JUMPDEST PUSH1 0x40 DUP1 MLOAD PUSH1 0x1F NOT DUP2 DUP5 SUB ADD DUP2 MSTORE SWAP2 DUP2 MSTORE PUSH2 0xFFFF DUP6 AND PUSH1 0x0 SWAP1 DUP2 MSTORE PUSH1 0xFC PUSH1 0x20 MSTORE KECCAK256 SWAP1 PUSH2 0x1AFC SWAP1 DUP3 PUSH2 0x4EF9 JUMP JUMPDEST POP PUSH32 0x8C0400CFE2D1199B1A725C78960BCC2A344D869B80590D0F2BD005DB15A572CE DUP4 DUP4 DUP4 PUSH1 0x40 MLOAD PUSH2 0x1B30 SWAP4 SWAP3 SWAP2 SWAP1 PUSH2 0x4E80 JUMP JUMPDEST PUSH1 0x40 MLOAD DUP1 SWAP2 SUB SWAP1 LOG1 POP POP POP JUMP JUMPDEST PUSH2 0x108 SLOAD PUSH1 0x1 PUSH1 0x1 PUSH1 0xA0 SHL SUB DUP2 AND SWAP1 PUSH1 0x1 PUSH1 0xA8 SHL SWAP1 DIV PUSH1 0xFF AND ISZERO DUP1 ISZERO PUSH2 0x1B7D JUMPI POP PUSH1 0x1 PUSH1 0x1 PUSH1 0xA0 SHL SUB DUP2 AND PUSH1 0x0 SWAP1 DUP2 MSTORE PUSH2 0x105 PUSH1 0x20 MSTORE PUSH1 0x40 SWAP1 KECCAK256 SLOAD PUSH1 0xFF AND ISZERO JUMPDEST PUSH2 0x1B99 JUMPI PUSH1 0x40 MLOAD PUSH3 0x461BCD PUSH1 0xE5 SHL DUP2 MSTORE PUSH1 0x4 ADD PUSH2 0xB2C SWAP1 PUSH2 0x4E01 JUMP JUMPDEST PUSH2 0x1BA1 PUSH2 0x28D4 JUMP JUMPDEST PUSH2 0x108 SLOAD PUSH1 0x1 PUSH1 0x1 PUSH1 0xA0 SHL SUB AND DUP1 ISZERO DUP1 ISZERO SWAP1 PUSH2 0x1BD6 JUMPI POP PUSH1 0x1 PUSH1 0x1 PUSH1 0xA0 SHL SUB DUP2 AND PUSH1 0x0 SWAP1 DUP2 MSTORE PUSH2 0x104 PUSH1 0x20 MSTORE PUSH1 0x40 SWAP1 KECCAK256 SLOAD PUSH1 0xFF AND JUMPDEST PUSH2 0x1C2C JUMPI PUSH1 0x40 MLOAD PUSH3 0x461BCD PUSH1 0xE5 SHL DUP2 MSTORE PUSH1 0x20 PUSH1 0x4 DUP3 ADD MSTORE PUSH1 0x21 PUSH1 0x24 DUP3 ADD MSTORE PUSH32 0x546F6B656E4272696467653A20455448206973206E6F7420737570706F727465 PUSH1 0x44 DUP3 ADD MSTORE PUSH1 0x19 PUSH1 0xFA SHL PUSH1 0x64 DUP3 ADD MSTORE PUSH1 0x84 ADD PUSH2 0xB2C JUMP JUMPDEST PUSH1 0x0 DUP7 GT PUSH2 0x1C8F JUMPI PUSH1 0x40 MLOAD PUSH3 0x461BCD PUSH1 0xE5 SHL DUP2 MSTORE PUSH1 0x20 PUSH1 0x4 DUP3 ADD MSTORE PUSH1 0x2A PUSH1 0x24 DUP3 ADD MSTORE PUSH32 0x546F6B656E4272696467653A20616D6F756E74206D7573742062652067726561 PUSH1 0x44 DUP3 ADD MSTORE PUSH10 0x746572207468616E203 PUSH1 0xB4 SHL PUSH1 0x64 DUP3 ADD MSTORE PUSH1 0x84 ADD PUSH2 0xB2C JUMP JUMPDEST DUP6 CALLVALUE LT ISZERO PUSH2 0x1CAF JUMPI PUSH1 0x40 MLOAD PUSH3 0x461BCD PUSH1 0xE5 SHL DUP2 MSTORE PUSH1 0x4 ADD PUSH2 0xB2C SWAP1 PUSH2 0x4D3F JUMP JUMPDEST DUP1 PUSH1 0x1 PUSH1 0x1 PUSH1 0xA0 SHL SUB AND PUSH4 0xD0E30DB0 DUP8 PUSH1 0x40 MLOAD DUP3 PUSH4 0xFFFFFFFF AND PUSH1 0xE0 SHL DUP2 MSTORE PUSH1 0x4 ADD PUSH1 0x0 PUSH1 0x40 MLOAD DUP1 DUP4 SUB DUP2 DUP6 DUP9 DUP1 EXTCODESIZE ISZERO DUP1 ISZERO PUSH2 0x1CEA JUMPI PUSH1 0x0 DUP1 REVERT JUMPDEST POP GAS CALL ISZERO DUP1 ISZERO PUSH2 0x1CFE JUMPI RETURNDATASIZE PUSH1 0x0 DUP1 RETURNDATACOPY RETURNDATASIZE PUSH1 0x0 REVERT JUMPDEST POP POP POP PUSH1 0x1 PUSH1 0x1 PUSH1 0xA0 SHL SUB DUP4 AND PUSH1 0x0 SWAP1 DUP2 MSTORE PUSH2 0x103 PUSH1 0x20 MSTORE PUSH1 0x40 DUP2 KECCAK256 DUP1 SLOAD DUP11 SWAP5 POP SWAP1 SWAP3 POP PUSH2 0x1D2D SWAP1 DUP5 SWAP1 PUSH2 0x4E44 JUMP JUMPDEST SWAP1 SWAP2 SSTORE POP PUSH1 0x0 SWAP1 POP PUSH2 0x1D3D PUSH2 0x1F28 JUMP JUMPDEST SWAP1 POP PUSH1 0x0 DUP1 DUP3 SLT PUSH2 0x1D4E JUMPI DUP2 PUSH2 0x1D65 JUMP JUMPDEST PUSH2 0x1D5A DUP3 PUSH1 0x0 NOT PUSH2 0x502C JUMP JUMPDEST PUSH2 0x1D65 SWAP1 PUSH1 0x1 PUSH2 0x4E44 JUMP JUMPDEST SWAP1 POP PUSH2 0x1D8C DUP11 PUSH2 0x1D75 DUP11 DUP5 PUSH2 0x5079 JUMP JUMPDEST PUSH1 0x0 DUP13 DUP12 DUP12 DUP12 DUP16 CALLVALUE PUSH2 0x1D87 SWAP2 SWAP1 PUSH2 0x502C JUMP JUMPDEST PUSH2 0x2C9F JUMP JUMPDEST PUSH1 0x40 MLOAD DUP9 DUP2 MSTORE PUSH1 0x1 PUSH1 0x1 PUSH1 0xA0 SHL SUB DUP11 AND SWAP1 CALLER SWAP1 PUSH1 0x0 SWAP1 PUSH1 0x0 DUP1 MLOAD PUSH1 0x20 PUSH2 0x5660 DUP4 CODECOPY DUP2 MLOAD SWAP2 MSTORE SWAP1 PUSH1 0x20 ADD PUSH1 0x40 MLOAD DUP1 SWAP2 SUB SWAP1 LOG4 POP POP POP PUSH2 0xD80 PUSH1 0x1 PUSH1 0xC9 SSTORE JUMP JUMPDEST PUSH2 0x1DD2 PUSH2 0x2617 JUMP JUMPDEST PUSH2 0x108 SLOAD PUSH1 0x1 PUSH1 0xB0 SHL SWAP1 DIV PUSH1 0xFF AND DUP1 ISZERO PUSH2 0x1DEF JUMPI POP PUSH2 0x109 SLOAD TIMESTAMP LT ISZERO JUMPDEST PUSH2 0x1E4A JUMPI PUSH1 0x40 MLOAD PUSH3 0x461BCD PUSH1 0xE5 SHL DUP2 MSTORE PUSH1 0x20 PUSH1 0x4 DUP3 ADD MSTORE PUSH1 0x26 PUSH1 0x24 DUP3 ADD MSTORE PUSH32 0x546F6B656E4272696467653A20656D657267656E637920776974686472617720 PUSH1 0x44 DUP3 ADD MSTORE PUSH6 0x1B1BD8DAD959 PUSH1 0xD2 SHL PUSH1 0x64 DUP3 ADD MSTORE PUSH1 0x84 ADD PUSH2 0xB2C JUMP JUMPDEST PUSH1 0x1 PUSH1 0x1 PUSH1 0xA0 SHL SUB DUP4 AND PUSH1 0x0 SWAP1 DUP2 MSTORE PUSH2 0x103 PUSH1 0x20 MSTORE PUSH1 0x40 DUP2 KECCAK256 DUP1 SLOAD DUP4 SWAP3 SWAP1 PUSH2 0x1E73 SWAP1 DUP5 SWAP1 PUSH2 0x502C JUMP JUMPDEST SWAP1 SWAP2 SSTORE POP PUSH2 0x1E8D SWAP1 POP PUSH1 0x1 PUSH1 0x1 PUSH1 0xA0 SHL SUB DUP5 AND DUP4 DUP4 PUSH2 0x26EF JUMP JUMPDEST DUP3 PUSH1 0x1 PUSH1 0x1 PUSH1 0xA0 SHL SUB AND PUSH32 0x49507695F37B729944475CF3388760A14760FEF784B7AB5CA8863A5F3F8BE6BD DUP4 DUP4 PUSH1 0x40 MLOAD PUSH2 0x1EC8 SWAP3 SWAP2 SWAP1 PUSH2 0x4D74 JUMP JUMPDEST PUSH1 0x40 MLOAD DUP1 SWAP2 SUB SWAP1 LOG2 POP POP POP JUMP JUMPDEST PUSH2 0x1EDD PUSH2 0x2617 JUMP JUMPDEST PUSH1 0xFF DUP1 SLOAD PUSH1 0x1 PUSH1 0x1 PUSH1 0xA0 SHL SUB NOT AND PUSH1 0x1 PUSH1 0x1 PUSH1 0xA0 SHL SUB DUP4 AND OR SWAP1 SSTORE PUSH1 0x40 MLOAD PUSH32 0x5DB758E995A17EC1AD84BDEF7E8C3293A0BD6179BCCE400DFF5D4C3D87DB726B SWAP1 PUSH2 0xB67 SWAP1 DUP4 SWAP1 PUSH2 0x4851 JUMP JUMPDEST PUSH1 0x0 DUP1 PUSH2 0x10A PUSH1 0x0 SWAP1 SLOAD SWAP1 PUSH2 0x100 EXP SWAP1 DIV PUSH1 0x1 PUSH1 0x1 PUSH1 0xA0 SHL SUB AND PUSH1 0x1 PUSH1 0x1 PUSH1 0xA0 SHL SUB AND PUSH4 0xFEAF968C PUSH1 0x40 MLOAD DUP2 PUSH4 0xFFFFFFFF AND PUSH1 0xE0 SHL DUP2 MSTORE PUSH1 0x4 ADD PUSH1 0xA0 PUSH1 0x40 MLOAD DUP1 DUP4 SUB DUP2 DUP7 GAS STATICCALL ISZERO DUP1 ISZERO PUSH2 0x1F7F JUMPI RETURNDATASIZE PUSH1 0x0 DUP1 RETURNDATACOPY RETURNDATASIZE PUSH1 0x0 REVERT JUMPDEST POP POP POP POP PUSH1 0x40 MLOAD RETURNDATASIZE PUSH1 0x1F NOT PUSH1 0x1F DUP3 ADD AND DUP3 ADD DUP1 PUSH1 0x40 MSTORE POP DUP2 ADD SWAP1 PUSH2 0x1FA3 SWAP2 SWAP1 PUSH2 0x50A7 JUMP JUMPDEST POP SWAP2 SWAP6 SWAP5 POP POP POP POP POP JUMP JUMPDEST PUSH1 0x0 SLOAD PUSH2 0x100 SWAP1 DIV PUSH1 0xFF AND ISZERO DUP1 DUP1 ISZERO PUSH2 0x1FCE JUMPI POP PUSH1 0x0 SLOAD PUSH1 0x1 PUSH1 0xFF SWAP1 SWAP2 AND LT JUMPDEST DUP1 PUSH2 0x1FEF JUMPI POP PUSH2 0x1FDD ADDRESS PUSH2 0x336D JUMP JUMPDEST ISZERO DUP1 ISZERO PUSH2 0x1FEF JUMPI POP PUSH1 0x0 SLOAD PUSH1 0xFF AND PUSH1 0x1 EQ JUMPDEST PUSH2 0x200B JUMPI PUSH1 0x40 MLOAD PUSH3 0x461BCD PUSH1 0xE5 SHL DUP2 MSTORE PUSH1 0x4 ADD PUSH2 0xB2C SWAP1 PUSH2 0x50F7 JUMP JUMPDEST PUSH1 0x0 DUP1 SLOAD PUSH1 0xFF NOT AND PUSH1 0x1 OR SWAP1 SSTORE DUP1 ISZERO PUSH2 0x202E JUMPI PUSH1 0x0 DUP1 SLOAD PUSH2 0xFF00 NOT AND PUSH2 0x100 OR SWAP1 SSTORE JUMPDEST PUSH2 0x2036 PUSH2 0x337C JUMP JUMPDEST PUSH2 0x203E PUSH2 0x33A3 JUMP JUMPDEST PUSH2 0x2047 DUP3 PUSH2 0x33D2 JUMP JUMPDEST PUSH2 0x204F PUSH2 0x3402 JUMP JUMPDEST PUSH2 0x2057 PUSH2 0x3431 JUMP JUMPDEST DUP1 ISZERO PUSH2 0x13BD JUMPI PUSH1 0x0 DUP1 SLOAD PUSH2 0xFF00 NOT AND SWAP1 SSTORE PUSH1 0x40 MLOAD PUSH1 0x1 DUP2 MSTORE PUSH1 0x0 DUP1 MLOAD PUSH1 0x20 PUSH2 0x56C0 DUP4 CODECOPY DUP2 MLOAD SWAP2 MSTORE SWAP1 PUSH1 0x20 ADD JUMPDEST PUSH1 0x40 MLOAD DUP1 SWAP2 SUB SWAP1 LOG1 POP POP JUMP JUMPDEST PUSH2 0x2097 PUSH2 0x2617 JUMP JUMPDEST PUSH1 0x1 PUSH1 0x1 PUSH1 0xA0 SHL SUB DUP3 AND PUSH1 0x0 DUP2 DUP2 MSTORE PUSH2 0x105 PUSH1 0x20 SWAP1 DUP2 MSTORE PUSH1 0x40 SWAP2 DUP3 SWAP1 KECCAK256 DUP1 SLOAD PUSH1 0xFF NOT AND DUP6 ISZERO ISZERO SWAP1 DUP2 OR SWAP1 SWAP2 SSTORE DUP3 MLOAD SWAP4 DUP5 MSTORE SWAP1 DUP4 ADD MSTORE PUSH32 0xB1656BD3B50DDB6B12EF259C86E9CB359952B53C4403CFB5A83E23C515A35E22 SWAP2 ADD PUSH2 0x2083 JUMP JUMPDEST PUSH2 0x20FC PUSH2 0x2617 JUMP JUMPDEST PUSH1 0xFB SLOAD PUSH1 0x40 MLOAD PUSH4 0x32FB62E7 PUSH1 0xE2 SHL DUP2 MSTORE PUSH1 0x1 PUSH1 0x1 PUSH1 0xA0 SHL SUB SWAP1 SWAP2 AND SWAP1 PUSH4 0xCBED8B9C SWAP1 PUSH2 0x2134 SWAP1 DUP9 SWAP1 DUP9 SWAP1 DUP9 SWAP1 DUP9 SWAP1 DUP9 SWAP1 PUSH1 0x4 ADD PUSH2 0x5145 JUMP JUMPDEST PUSH1 0x0 PUSH1 0x40 MLOAD DUP1 DUP4 SUB DUP2 PUSH1 0x0 DUP8 DUP1 EXTCODESIZE ISZERO DUP1 ISZERO PUSH2 0x214E JUMPI PUSH1 0x0 DUP1 REVERT JUMPDEST POP GAS CALL ISZERO DUP1 ISZERO PUSH2 0x11C7 JUMPI RETURNDATASIZE PUSH1 0x0 DUP1 RETURNDATACOPY RETURNDATASIZE PUSH1 0x0 REVERT JUMPDEST PUSH2 0xFFFF DUP7 AND PUSH1 0x0 SWAP1 DUP2 MSTORE PUSH2 0x100 PUSH1 0x20 MSTORE PUSH1 0x40 DUP1 DUP3 KECCAK256 SWAP1 MLOAD PUSH2 0x2186 SWAP1 DUP9 SWAP1 DUP9 SWAP1 PUSH2 0x4D2F JUMP JUMPDEST SWAP1 DUP2 MSTORE PUSH1 0x40 DUP1 MLOAD PUSH1 0x20 SWAP3 DUP2 SWAP1 SUB DUP4 ADD SWAP1 KECCAK256 PUSH1 0x1 PUSH1 0x1 PUSH1 0x40 SHL SUB DUP8 AND PUSH1 0x0 SWAP1 DUP2 MSTORE SWAP3 MSTORE SWAP1 KECCAK256 SLOAD SWAP1 POP DUP1 PUSH2 0x2206 JUMPI PUSH1 0x40 MLOAD PUSH3 0x461BCD PUSH1 0xE5 SHL DUP2 MSTORE PUSH1 0x20 PUSH1 0x4 DUP3 ADD MSTORE PUSH1 0x23 PUSH1 0x24 DUP3 ADD MSTORE PUSH32 0x4E6F6E626C6F636B696E674C7A4170703A206E6F2073746F726564206D657373 PUSH1 0x44 DUP3 ADD MSTORE PUSH3 0x616765 PUSH1 0xE8 SHL PUSH1 0x64 DUP3 ADD MSTORE PUSH1 0x84 ADD PUSH2 0xB2C JUMP JUMPDEST DUP1 DUP4 DUP4 PUSH1 0x40 MLOAD PUSH2 0x2217 SWAP3 SWAP2 SWAP1 PUSH2 0x4D2F JUMP JUMPDEST PUSH1 0x40 MLOAD DUP1 SWAP2 SUB SWAP1 KECCAK256 EQ PUSH2 0x2276 JUMPI PUSH1 0x40 MLOAD PUSH3 0x461BCD PUSH1 0xE5 SHL DUP2 MSTORE PUSH1 0x20 PUSH1 0x4 DUP3 ADD MSTORE PUSH1 0x21 PUSH1 0x24 DUP3 ADD MSTORE PUSH32 0x4E6F6E626C6F636B696E674C7A4170703A20696E76616C6964207061796C6F61 PUSH1 0x44 DUP3 ADD MSTORE PUSH1 0x19 PUSH1 0xFA SHL PUSH1 0x64 DUP3 ADD MSTORE PUSH1 0x84 ADD PUSH2 0xB2C JUMP JUMPDEST PUSH2 0xFFFF DUP8 AND PUSH1 0x0 SWAP1 DUP2 MSTORE PUSH2 0x100 PUSH1 0x20 MSTORE PUSH1 0x40 DUP1 DUP3 KECCAK256 SWAP1 MLOAD PUSH2 0x229A SWAP1 DUP10 SWAP1 DUP10 SWAP1 PUSH2 0x4D2F JUMP JUMPDEST SWAP1 DUP2 MSTORE PUSH1 0x40 DUP1 MLOAD PUSH1 0x20 SWAP3 DUP2 SWAP1 SUB DUP4 ADD DUP2 KECCAK256 PUSH1 0x1 PUSH1 0x1 PUSH1 0x40 SHL SUB DUP10 AND PUSH1 0x0 SWAP1 DUP2 MSTORE SWAP1 DUP5 MSTORE DUP3 SWAP1 KECCAK256 SWAP4 SWAP1 SWAP4 SSTORE PUSH1 0x1F DUP9 ADD DUP3 SWAP1 DIV DUP3 MUL DUP4 ADD DUP3 ADD SWAP1 MSTORE DUP7 DUP3 MSTORE PUSH2 0x2332 SWAP2 DUP10 SWAP2 DUP10 SWAP1 DUP10 SWAP1 DUP2 SWAP1 DUP5 ADD DUP4 DUP3 DUP1 DUP3 DUP5 CALLDATACOPY PUSH1 0x0 SWAP3 ADD SWAP2 SWAP1 SWAP2 MSTORE POP POP PUSH1 0x40 DUP1 MLOAD PUSH1 0x20 PUSH1 0x1F DUP11 ADD DUP2 SWAP1 DIV DUP2 MUL DUP3 ADD DUP2 ADD SWAP1 SWAP3 MSTORE DUP9 DUP2 MSTORE DUP11 SWAP4 POP SWAP2 POP DUP9 SWAP1 DUP9 SWAP1 DUP2 SWAP1 DUP5 ADD DUP4 DUP3 DUP1 DUP3 DUP5 CALLDATACOPY PUSH1 0x0 SWAP3 ADD SWAP2 SWAP1 SWAP2 MSTORE POP PUSH2 0x2D41 SWAP3 POP POP POP JUMP JUMPDEST PUSH32 0xC264D91F3ADC5588250E1551F547752CA0CFA8F6B530D243B9F9F4CAB10EA8E5 DUP8 DUP8 DUP8 DUP8 DUP6 PUSH1 0x40 MLOAD PUSH2 0x2369 SWAP6 SWAP5 SWAP4 SWAP3 SWAP2 SWAP1 PUSH2 0x5173 JUMP JUMPDEST PUSH1 0x40 MLOAD DUP1 SWAP2 SUB SWAP1 LOG1 POP POP POP POP POP POP POP JUMP JUMPDEST PUSH2 0x2382 PUSH2 0x2617 JUMP JUMPDEST PUSH2 0x108 DUP1 SLOAD PUSH1 0xFF PUSH1 0xB0 SHL NOT AND PUSH1 0x1 PUSH1 0xB0 SHL DUP4 ISZERO ISZERO MUL OR SWAP1 SSTORE DUP1 PUSH2 0x23A6 JUMPI PUSH1 0x0 PUSH2 0x23B3 JUMP JUMPDEST PUSH2 0x23B3 TIMESTAMP PUSH3 0x93A80 PUSH2 0x4E44 JUMP JUMPDEST PUSH2 0x109 DUP2 SWAP1 SSTORE PUSH1 0x40 DUP1 MLOAD DUP4 ISZERO ISZERO DUP2 MSTORE PUSH1 0x20 DUP2 ADD SWAP3 SWAP1 SWAP3 MSTORE PUSH32 0x27A37FC51E6C5D14309BBED3A54787C8788223B5D9CD5FE10605661665DD8415 SWAP2 ADD PUSH2 0xB67 JUMP JUMPDEST PUSH2 0x23FA PUSH2 0x2617 JUMP JUMPDEST PUSH2 0xFFFF DUP4 DUP2 AND PUSH1 0x0 DUP2 DUP2 MSTORE PUSH1 0xFD PUSH1 0x20 SWAP1 DUP2 MSTORE PUSH1 0x40 DUP1 DUP4 KECCAK256 SWAP5 DUP8 AND DUP1 DUP5 MSTORE SWAP5 DUP3 MSTORE SWAP2 DUP3 SWAP1 KECCAK256 DUP6 SWAP1 SSTORE DUP2 MLOAD SWAP3 DUP4 MSTORE DUP3 ADD SWAP3 SWAP1 SWAP3 MSTORE SWAP1 DUP2 ADD DUP3 SWAP1 MSTORE PUSH32 0x9D5C7C0B934DA8FEFA9C7760C98383778A12DFBFC0C3B3106518F43FB9508AC0 SWAP1 PUSH1 0x60 ADD PUSH2 0x1B30 JUMP JUMPDEST PUSH2 0x2464 PUSH2 0x2617 JUMP JUMPDEST PUSH2 0x108 DUP1 SLOAD DUP3 ISZERO ISZERO PUSH1 0x1 PUSH1 0xA0 SHL MUL PUSH1 0xFF PUSH1 0xA0 SHL NOT SWAP1 SWAP2 AND OR SWAP1 SSTORE PUSH1 0x40 MLOAD PUSH32 0x1584AD594A70CBE1E6515592E1272A987D922B097EAD875069CEBE8B40C004A4 SWAP1 PUSH2 0xB67 SWAP1 DUP4 ISZERO ISZERO DUP2 MSTORE PUSH1 0x20 ADD SWAP1 JUMP JUMPDEST PUSH2 0x24BA PUSH2 0x2617 JUMP JUMPDEST PUSH2 0xFFFF DUP4 AND PUSH1 0x0 SWAP1 DUP2 MSTORE PUSH1 0xFC PUSH1 0x20 MSTORE PUSH1 0x40 SWAP1 KECCAK256 PUSH2 0x24D8 DUP3 DUP5 DUP4 PUSH2 0x51AE JUMP JUMPDEST POP PUSH32 0xFA41487AD5D6728F0B19276FA1EDDC16558578F5109FC39D2DC33C3230470DAB DUP4 DUP4 DUP4 PUSH1 0x40 MLOAD PUSH2 0x1B30 SWAP4 SWAP3 SWAP2 SWAP1 PUSH2 0x4E80 JUMP JUMPDEST PUSH2 0x2514 PUSH2 0x2617 JUMP JUMPDEST PUSH1 0x1 PUSH1 0x1 PUSH1 0xA0 SHL SUB DUP2 AND PUSH2 0x2579 JUMPI PUSH1 0x40 MLOAD PUSH3 0x461BCD PUSH1 0xE5 SHL DUP2 MSTORE PUSH1 0x20 PUSH1 0x4 DUP3 ADD MSTORE PUSH1 0x26 PUSH1 0x24 DUP3 ADD MSTORE PUSH32 0x4F776E61626C653A206E6577206F776E657220697320746865207A65726F2061 PUSH1 0x44 DUP3 ADD MSTORE PUSH6 0x646472657373 PUSH1 0xD0 SHL PUSH1 0x64 DUP3 ADD MSTORE PUSH1 0x84 ADD PUSH2 0xB2C JUMP JUMPDEST PUSH2 0xFA8 DUP2 PUSH2 0x3629 JUMP JUMPDEST PUSH1 0xFB SLOAD PUSH1 0x40 MLOAD PUSH4 0x3D7B2F6F PUSH1 0xE2 SHL DUP2 MSTORE PUSH2 0xFFFF DUP1 DUP8 AND PUSH1 0x4 DUP4 ADD MSTORE DUP6 AND PUSH1 0x24 DUP3 ADD MSTORE ADDRESS PUSH1 0x44 DUP3 ADD MSTORE PUSH1 0x64 DUP2 ADD DUP4 SWAP1 MSTORE PUSH1 0x60 SWAP2 PUSH1 0x1 PUSH1 0x1 PUSH1 0xA0 SHL SUB AND SWAP1 PUSH4 0xF5ECBDBC SWAP1 PUSH1 0x84 ADD PUSH1 0x0 PUSH1 0x40 MLOAD DUP1 DUP4 SUB DUP2 DUP7 GAS STATICCALL ISZERO DUP1 ISZERO PUSH2 0x25E4 JUMPI RETURNDATASIZE PUSH1 0x0 DUP1 RETURNDATACOPY RETURNDATASIZE PUSH1 0x0 REVERT JUMPDEST POP POP POP POP PUSH1 0x40 MLOAD RETURNDATASIZE PUSH1 0x0 DUP3 RETURNDATACOPY PUSH1 0x1F RETURNDATASIZE SWAP1 DUP2 ADD PUSH1 0x1F NOT AND DUP3 ADD PUSH1 0x40 MSTORE PUSH2 0x260C SWAP2 SWAP1 DUP2 ADD SWAP1 PUSH2 0x5267 JUMP JUMPDEST SWAP1 POP JUMPDEST SWAP5 SWAP4 POP POP POP POP JUMP JUMPDEST CALLER PUSH2 0x2620 PUSH2 0x18C2 JUMP JUMPDEST PUSH1 0x1 PUSH1 0x1 PUSH1 0xA0 SHL SUB AND EQ PUSH2 0x168D JUMPI PUSH1 0x40 MLOAD PUSH3 0x461BCD PUSH1 0xE5 SHL DUP2 MSTORE PUSH1 0x20 PUSH1 0x4 DUP3 ADD DUP2 SWAP1 MSTORE PUSH1 0x24 DUP3 ADD MSTORE PUSH32 0x4F776E61626C653A2063616C6C6572206973206E6F7420746865206F776E6572 PUSH1 0x44 DUP3 ADD MSTORE PUSH1 0x64 ADD PUSH2 0xB2C JUMP JUMPDEST PUSH1 0x0 DUP1 PUSH2 0x26D9 GAS PUSH1 0x96 PUSH4 0x66AD5C8A PUSH1 0xE0 SHL DUP10 DUP10 DUP10 DUP10 PUSH1 0x40 MLOAD PUSH1 0x24 ADD PUSH2 0x269E SWAP5 SWAP4 SWAP3 SWAP2 SWAP1 PUSH2 0x52DD JUMP JUMPDEST PUSH1 0x40 DUP1 MLOAD PUSH1 0x1F NOT DUP2 DUP5 SUB ADD DUP2 MSTORE SWAP2 SWAP1 MSTORE PUSH1 0x20 DUP2 ADD DUP1 MLOAD PUSH1 0x1 PUSH1 0x1 PUSH1 0xE0 SHL SUB AND PUSH1 0x1 PUSH1 0x1 PUSH1 0xE0 SHL SUB NOT SWAP1 SWAP4 AND SWAP3 SWAP1 SWAP3 OR SWAP1 SWAP2 MSTORE ADDRESS SWAP3 SWAP2 SWAP1 PUSH2 0x367B JUMP JUMPDEST SWAP2 POP SWAP2 POP DUP2 PUSH2 0x1627 JUMPI PUSH2 0x1627 DUP7 DUP7 DUP7 DUP7 DUP6 PUSH2 0x3705 JUMP JUMPDEST PUSH2 0x1761 DUP4 PUSH4 0xA9059CBB PUSH1 0xE0 SHL DUP5 DUP5 PUSH1 0x40 MLOAD PUSH1 0x24 ADD PUSH2 0x270E SWAP3 SWAP2 SWAP1 PUSH2 0x4D74 JUMP JUMPDEST PUSH1 0x40 DUP1 MLOAD PUSH1 0x1F NOT DUP2 DUP5 SUB ADD DUP2 MSTORE SWAP2 SWAP1 MSTORE PUSH1 0x20 DUP2 ADD DUP1 MLOAD PUSH1 0x1 PUSH1 0x1 PUSH1 0xE0 SHL SUB AND PUSH1 0x1 PUSH1 0x1 PUSH1 0xE0 SHL SUB NOT SWAP1 SWAP4 AND SWAP3 SWAP1 SWAP3 OR SWAP1 SWAP2 MSTORE PUSH2 0x37A3 JUMP JUMPDEST PUSH1 0x0 DUP1 MLOAD PUSH1 0x20 PUSH2 0x56A0 DUP4 CODECOPY DUP2 MLOAD SWAP2 MSTORE SLOAD PUSH1 0x1 PUSH1 0x1 PUSH1 0xA0 SHL SUB AND SWAP1 JUMP JUMPDEST PUSH2 0xFA8 PUSH2 0x2617 JUMP JUMPDEST PUSH32 0x4910FDFA16FED3260ED0E7147F7CC6DA11A60208B5B9406D12A635614FFD9143 SLOAD PUSH1 0xFF AND ISZERO PUSH2 0x279C JUMPI PUSH2 0x1761 DUP4 PUSH2 0x3878 JUMP JUMPDEST DUP3 PUSH1 0x1 PUSH1 0x1 PUSH1 0xA0 SHL SUB AND PUSH4 0x52D1902D PUSH1 0x40 MLOAD DUP2 PUSH4 0xFFFFFFFF AND PUSH1 0xE0 SHL DUP2 MSTORE PUSH1 0x4 ADD PUSH1 0x20 PUSH1 0x40 MLOAD DUP1 DUP4 SUB DUP2 DUP7 GAS STATICCALL SWAP3 POP POP POP DUP1 ISZERO PUSH2 0x27F6 JUMPI POP PUSH1 0x40 DUP1 MLOAD PUSH1 0x1F RETURNDATASIZE SWAP1 DUP2 ADD PUSH1 0x1F NOT AND DUP3 ADD SWAP1 SWAP3 MSTORE PUSH2 0x27F3 SWAP2 DUP2 ADD SWAP1 PUSH2 0x503F JUMP JUMPDEST PUSH1 0x1 JUMPDEST PUSH2 0x2859 JUMPI PUSH1 0x40 MLOAD PUSH3 0x461BCD PUSH1 0xE5 SHL DUP2 MSTORE PUSH1 0x20 PUSH1 0x4 DUP3 ADD MSTORE PUSH1 0x2E PUSH1 0x24 DUP3 ADD MSTORE PUSH32 0x45524331393637557067726164653A206E657720696D706C656D656E74617469 PUSH1 0x44 DUP3 ADD MSTORE PUSH14 0x6F6E206973206E6F742055555053 PUSH1 0x90 SHL PUSH1 0x64 DUP3 ADD MSTORE PUSH1 0x84 ADD PUSH2 0xB2C JUMP JUMPDEST PUSH1 0x0 DUP1 MLOAD PUSH1 0x20 PUSH2 0x56A0 DUP4 CODECOPY DUP2 MLOAD SWAP2 MSTORE DUP2 EQ PUSH2 0x28C8 JUMPI PUSH1 0x40 MLOAD PUSH3 0x461BCD PUSH1 0xE5 SHL DUP2 MSTORE PUSH1 0x20 PUSH1 0x4 DUP3 ADD MSTORE PUSH1 0x29 PUSH1 0x24 DUP3 ADD MSTORE PUSH32 0x45524331393637557067726164653A20756E737570706F727465642070726F78 PUSH1 0x44 DUP3 ADD MSTORE PUSH9 0x1A58589B1955555251 PUSH1 0xBA SHL PUSH1 0x64 DUP3 ADD MSTORE PUSH1 0x84 ADD PUSH2 0xB2C JUMP JUMPDEST POP PUSH2 0x1761 DUP4 DUP4 DUP4 PUSH2 0x3912 JUMP JUMPDEST PUSH1 0x2 PUSH1 0xC9 SLOAD SUB PUSH2 0x2926 JUMPI PUSH1 0x40 MLOAD PUSH3 0x461BCD PUSH1 0xE5 SHL DUP2 MSTORE PUSH1 0x20 PUSH1 0x4 DUP3 ADD MSTORE PUSH1 0x1F PUSH1 0x24 DUP3 ADD MSTORE PUSH32 0x5265656E7472616E637947756172643A207265656E7472616E742063616C6C00 PUSH1 0x44 DUP3 ADD MSTORE PUSH1 0x64 ADD PUSH2 0xB2C JUMP JUMPDEST PUSH1 0x2 PUSH1 0xC9 SSTORE JUMP JUMPDEST PUSH1 0x0 DUP1 DUP5 PUSH1 0x1 PUSH1 0x1 PUSH1 0xA0 SHL SUB AND PUSH4 0x70A08231 ADDRESS PUSH1 0x40 MLOAD DUP3 PUSH4 0xFFFFFFFF AND PUSH1 0xE0 SHL DUP2 MSTORE PUSH1 0x4 ADD PUSH2 0x295C SWAP2 SWAP1 PUSH2 0x4851 JUMP JUMPDEST PUSH1 0x20 PUSH1 0x40 MLOAD DUP1 DUP4 SUB DUP2 DUP7 GAS STATICCALL ISZERO DUP1 ISZERO PUSH2 0x2979 JUMPI RETURNDATASIZE PUSH1 0x0 DUP1 RETURNDATACOPY RETURNDATASIZE PUSH1 0x0 REVERT JUMPDEST POP POP POP POP PUSH1 0x40 MLOAD RETURNDATASIZE PUSH1 0x1F NOT PUSH1 0x1F DUP3 ADD AND DUP3 ADD DUP1 PUSH1 0x40 MSTORE POP DUP2 ADD SWAP1 PUSH2 0x299D SWAP2 SWAP1 PUSH2 0x503F JUMP JUMPDEST SWAP1 POP PUSH2 0x29B4 PUSH1 0x1 PUSH1 0x1 PUSH1 0xA0 SHL SUB DUP7 AND DUP6 ADDRESS DUP7 PUSH2 0x393D JUMP JUMPDEST PUSH1 0x40 MLOAD PUSH4 0x70A08231 PUSH1 0xE0 SHL DUP2 MSTORE PUSH1 0x0 SWAP1 PUSH1 0x1 PUSH1 0x1 PUSH1 0xA0 SHL SUB DUP8 AND SWAP1 PUSH4 0x70A08231 SWAP1 PUSH2 0x29E3 SWAP1 ADDRESS SWAP1 PUSH1 0x4 ADD PUSH2 0x4851 JUMP JUMPDEST PUSH1 0x20 PUSH1 0x40 MLOAD DUP1 DUP4 SUB DUP2 DUP7 GAS STATICCALL ISZERO DUP1 ISZERO PUSH2 0x2A00 JUMPI RETURNDATASIZE PUSH1 0x0 DUP1 RETURNDATACOPY RETURNDATASIZE PUSH1 0x0 REVERT JUMPDEST POP POP POP POP PUSH1 0x40 MLOAD RETURNDATASIZE PUSH1 0x1F NOT PUSH1 0x1F DUP3 ADD AND DUP3 ADD DUP1 PUSH1 0x40 MSTORE POP DUP2 ADD SWAP1 PUSH2 0x2A24 SWAP2 SWAP1 PUSH2 0x503F JUMP JUMPDEST SWAP1 POP PUSH2 0x2A30 DUP3 DUP3 PUSH2 0x502C JUMP JUMPDEST SWAP7 SWAP6 POP POP POP POP POP POP JUMP JUMPDEST PUSH1 0x0 DUP1 DUP4 PUSH1 0x1 PUSH1 0x1 PUSH1 0xA0 SHL SUB AND PUSH4 0xA8AA1B31 PUSH1 0x40 MLOAD DUP2 PUSH4 0xFFFFFFFF AND PUSH1 0xE0 SHL DUP2 MSTORE PUSH1 0x4 ADD PUSH1 0x20 PUSH1 0x40 MLOAD DUP1 DUP4 SUB DUP2 DUP7 GAS STATICCALL ISZERO DUP1 ISZERO PUSH2 0x2A7B JUMPI RETURNDATASIZE PUSH1 0x0 DUP1 RETURNDATACOPY RETURNDATASIZE PUSH1 0x0 REVERT JUMPDEST POP POP POP POP PUSH1 0x40 MLOAD RETURNDATASIZE PUSH1 0x1F NOT PUSH1 0x1F DUP3 ADD AND DUP3 ADD DUP1 PUSH1 0x40 MSTORE POP DUP2 ADD SWAP1 PUSH2 0x2A9F SWAP2 SWAP1 PUSH2 0x531B JUMP JUMPDEST SWAP1 POP PUSH1 0x1 PUSH1 0x1 PUSH1 0xA0 SHL SUB DUP2 AND PUSH2 0x2B05 JUMPI PUSH1 0x40 MLOAD PUSH3 0x461BCD PUSH1 0xE5 SHL DUP2 MSTORE PUSH1 0x20 PUSH1 0x4 DUP3 ADD MSTORE PUSH1 0x25 PUSH1 0x24 DUP3 ADD MSTORE PUSH32 0x546F6B656E42726967653A20746F6B656E2070616972206973206E6F74206372 PUSH1 0x44 DUP3 ADD MSTORE PUSH5 0x19585D1959 PUSH1 0xDA SHL PUSH1 0x64 DUP3 ADD MSTORE PUSH1 0x84 ADD PUSH2 0xB2C JUMP JUMPDEST PUSH1 0x0 PUSH2 0x2B0F PUSH2 0x1F28 JUMP JUMPDEST SWAP1 POP PUSH1 0x0 DUP1 DUP3 SLT PUSH2 0x2B20 JUMPI DUP2 PUSH2 0x2B37 JUMP JUMPDEST PUSH2 0x2B2C DUP3 PUSH1 0x0 NOT PUSH2 0x502C JUMP JUMPDEST PUSH2 0x2B37 SWAP1 PUSH1 0x1 PUSH2 0x4E44 JUMP JUMPDEST SWAP1 POP PUSH1 0x0 DUP4 SWAP1 POP PUSH1 0x0 DUP1 DUP3 PUSH1 0x1 PUSH1 0x1 PUSH1 0xA0 SHL SUB AND PUSH4 0x902F1AC PUSH1 0x40 MLOAD DUP2 PUSH4 0xFFFFFFFF AND PUSH1 0xE0 SHL DUP2 MSTORE PUSH1 0x4 ADD PUSH1 0x60 PUSH1 0x40 MLOAD DUP1 DUP4 SUB DUP2 DUP7 GAS STATICCALL ISZERO DUP1 ISZERO PUSH2 0x2B7F JUMPI RETURNDATASIZE PUSH1 0x0 DUP1 RETURNDATACOPY RETURNDATASIZE PUSH1 0x0 REVERT JUMPDEST POP POP POP POP PUSH1 0x40 MLOAD RETURNDATASIZE PUSH1 0x1F NOT PUSH1 0x1F DUP3 ADD AND DUP3 ADD DUP1 PUSH1 0x40 MSTORE POP DUP2 ADD SWAP1 PUSH2 0x2BA3 SWAP2 SWAP1 PUSH2 0x534F JUMP JUMPDEST POP SWAP2 POP SWAP2 POP PUSH1 0x0 DUP10 PUSH1 0x1 PUSH1 0x1 PUSH1 0xA0 SHL SUB AND DUP5 PUSH1 0x1 PUSH1 0x1 PUSH1 0xA0 SHL SUB AND PUSH4 0xDFE1681 PUSH1 0x40 MLOAD DUP2 PUSH4 0xFFFFFFFF AND PUSH1 0xE0 SHL DUP2 MSTORE PUSH1 0x4 ADD PUSH1 0x20 PUSH1 0x40 MLOAD DUP1 DUP4 SUB DUP2 DUP7 GAS STATICCALL ISZERO DUP1 ISZERO PUSH2 0x2BF2 JUMPI RETURNDATASIZE PUSH1 0x0 DUP1 RETURNDATACOPY RETURNDATASIZE PUSH1 0x0 REVERT JUMPDEST POP POP POP POP PUSH1 0x40 MLOAD RETURNDATASIZE PUSH1 0x1F NOT PUSH1 0x1F DUP3 ADD AND DUP3 ADD DUP1 PUSH1 0x40 MSTORE POP DUP2 ADD SWAP1 PUSH2 0x2C16 SWAP2 SWAP1 PUSH2 0x531B JUMP JUMPDEST PUSH1 0x1 PUSH1 0x1 PUSH1 0xA0 SHL SUB AND EQ PUSH2 0x2C5D JUMPI DUP3 PUSH1 0x1 PUSH1 0x1 PUSH1 0x70 SHL SUB AND DUP6 DUP11 DUP5 PUSH1 0x1 PUSH1 0x1 PUSH1 0x70 SHL SUB AND PUSH2 0x2C44 SWAP2 SWAP1 PUSH2 0x5079 JUMP JUMPDEST PUSH2 0x2C4E SWAP2 SWAP1 PUSH2 0x5079 JUMP JUMPDEST PUSH2 0x2C58 SWAP2 SWAP1 PUSH2 0x539F JUMP JUMPDEST PUSH2 0x2C91 JUMP JUMPDEST DUP2 PUSH1 0x1 PUSH1 0x1 PUSH1 0x70 SHL SUB AND DUP6 DUP11 DUP6 PUSH1 0x1 PUSH1 0x1 PUSH1 0x70 SHL SUB AND PUSH2 0x2C7D SWAP2 SWAP1 PUSH2 0x5079 JUMP JUMPDEST PUSH2 0x2C87 SWAP2 SWAP1 PUSH2 0x5079 JUMP JUMPDEST PUSH2 0x2C91 SWAP2 SWAP1 PUSH2 0x539F JUMP JUMPDEST SWAP11 SWAP10 POP POP POP POP POP POP POP POP POP POP JUMP JUMPDEST PUSH2 0x2CA9 DUP4 DUP4 PUSH2 0x3137 JUMP JUMPDEST PUSH1 0x0 PUSH2 0x2CB6 DUP9 DUP9 DUP9 PUSH2 0x3207 JUMP JUMPDEST SWAP1 POP PUSH2 0x2D18 DUP10 DUP3 PUSH2 0x2CCA PUSH1 0x20 DUP10 ADD DUP10 PUSH2 0x4723 JUMP JUMPDEST PUSH2 0x2CDA PUSH1 0x40 DUP11 ADD PUSH1 0x20 DUP12 ADD PUSH2 0x4723 JUMP JUMPDEST DUP9 DUP9 DUP1 DUP1 PUSH1 0x1F ADD PUSH1 0x20 DUP1 SWAP2 DIV MUL PUSH1 0x20 ADD PUSH1 0x40 MLOAD SWAP1 DUP2 ADD PUSH1 0x40 MSTORE DUP1 SWAP4 SWAP3 SWAP2 SWAP1 DUP2 DUP2 MSTORE PUSH1 0x20 ADD DUP4 DUP4 DUP1 DUP3 DUP5 CALLDATACOPY PUSH1 0x0 SWAP3 ADD SWAP2 SWAP1 SWAP2 MSTORE POP DUP11 SWAP3 POP PUSH2 0x3975 SWAP2 POP POP JUMP JUMPDEST POP POP PUSH2 0x101 DUP1 SLOAD PUSH2 0xFFFF NOT AND PUSH2 0xFFFF SWAP9 SWAP1 SWAP9 AND SWAP8 SWAP1 SWAP8 OR SWAP1 SWAP7 SSTORE POP POP POP POP POP POP JUMP JUMPDEST PUSH1 0x1 PUSH1 0xC9 SSTORE JUMP JUMPDEST PUSH2 0xFFFF DUP5 AND PUSH1 0x0 SWAP1 DUP2 MSTORE PUSH2 0x107 PUSH1 0x20 MSTORE PUSH1 0x40 SWAP1 KECCAK256 SLOAD PUSH1 0xFF AND PUSH2 0x2DB1 JUMPI PUSH1 0x40 MLOAD PUSH3 0x461BCD PUSH1 0xE5 SHL DUP2 MSTORE PUSH1 0x20 PUSH1 0x4 DUP3 ADD MSTORE PUSH1 0x24 DUP1 DUP3 ADD MSTORE PUSH32 0x546F6B656E4272696467653A20696E76616C696420736F757263652063686169 PUSH1 0x44 DUP3 ADD MSTORE PUSH4 0x1B881A59 PUSH1 0xE2 SHL PUSH1 0x64 DUP3 ADD MSTORE PUSH1 0x84 ADD PUSH2 0xB2C JUMP JUMPDEST PUSH1 0x0 DUP1 PUSH1 0x0 DUP1 PUSH2 0x2DC0 DUP6 PUSH2 0x3AFE JUMP JUMPDEST SWAP4 POP SWAP4 POP SWAP4 POP SWAP4 POP PUSH1 0x0 DUP1 DUP3 ISZERO PUSH2 0x2DF0 JUMPI PUSH2 0x108 SLOAD PUSH1 0x1 PUSH1 0x1 PUSH1 0xA0 SHL SUB AND SWAP2 POP PUSH2 0x2DE9 DUP7 PUSH2 0x3C38 JUMP JUMPDEST SWAP1 POP PUSH2 0x2ED6 JUMP JUMPDEST DUP5 SWAP2 POP PUSH1 0x0 DUP3 PUSH1 0x1 PUSH1 0x1 PUSH1 0xA0 SHL SUB AND PUSH4 0xA8AA1B31 PUSH1 0x40 MLOAD DUP2 PUSH4 0xFFFFFFFF AND PUSH1 0xE0 SHL DUP2 MSTORE PUSH1 0x4 ADD PUSH1 0x20 PUSH1 0x40 MLOAD DUP1 DUP4 SUB DUP2 DUP7 GAS STATICCALL ISZERO DUP1 ISZERO PUSH2 0x2E33 JUMPI RETURNDATASIZE PUSH1 0x0 DUP1 RETURNDATACOPY RETURNDATASIZE PUSH1 0x0 REVERT JUMPDEST POP POP POP POP PUSH1 0x40 MLOAD RETURNDATASIZE PUSH1 0x1F NOT PUSH1 0x1F DUP3 ADD AND DUP3 ADD DUP1 PUSH1 0x40 MSTORE POP DUP2 ADD SWAP1 PUSH2 0x2E57 SWAP2 SWAP1 PUSH2 0x531B JUMP JUMPDEST SWAP1 POP PUSH1 0x1 PUSH1 0x1 PUSH1 0xA0 SHL SUB DUP2 AND PUSH2 0x2EC8 JUMPI PUSH1 0x40 MLOAD PUSH3 0x461BCD PUSH1 0xE5 SHL DUP2 MSTORE PUSH1 0x20 PUSH1 0x4 DUP3 ADD MSTORE PUSH1 0x30 PUSH1 0x24 DUP3 ADD MSTORE PUSH32 0x546F6B656E4272696467653A20746F6B656E4F75742068617320696E76616C69 PUSH1 0x44 DUP3 ADD MSTORE PUSH16 0x19081B1A5C5D5A591A5D1E481C1BDBDB PUSH1 0x82 SHL PUSH1 0x64 DUP3 ADD MSTORE PUSH1 0x84 ADD PUSH2 0xB2C JUMP JUMPDEST PUSH2 0x2ED2 DUP8 DUP5 PUSH2 0x3C8A JUMP JUMPDEST SWAP2 POP POP JUMPDEST PUSH2 0x108 SLOAD PUSH1 0x1 PUSH1 0xA8 SHL SWAP1 DIV PUSH1 0xFF AND ISZERO DUP1 ISZERO PUSH2 0x2F0B JUMPI POP PUSH1 0x1 PUSH1 0x1 PUSH1 0xA0 SHL SUB DUP3 AND PUSH1 0x0 SWAP1 DUP2 MSTORE PUSH2 0x105 PUSH1 0x20 MSTORE PUSH1 0x40 SWAP1 KECCAK256 SLOAD PUSH1 0xFF AND ISZERO JUMPDEST PUSH2 0x2F27 JUMPI PUSH1 0x40 MLOAD PUSH3 0x461BCD PUSH1 0xE5 SHL DUP2 MSTORE PUSH1 0x4 ADD PUSH2 0xB2C SWAP1 PUSH2 0x4E01 JUMP JUMPDEST PUSH1 0x1 PUSH1 0x1 PUSH1 0xA0 SHL SUB DUP3 AND PUSH1 0x0 SWAP1 DUP2 MSTORE PUSH2 0x104 PUSH1 0x20 MSTORE PUSH1 0x40 SWAP1 KECCAK256 SLOAD PUSH1 0xFF AND PUSH2 0x2F9C JUMPI PUSH1 0x40 MLOAD PUSH3 0x461BCD PUSH1 0xE5 SHL DUP2 MSTORE PUSH1 0x20 PUSH1 0x4 DUP3 ADD MSTORE PUSH1 0x23 PUSH1 0x24 DUP3 ADD MSTORE PUSH32 0x546F6B656E4272696467653A20746F6B656E206973206E6F7420737570706F72 PUSH1 0x44 DUP3 ADD MSTORE PUSH3 0x1D1959 PUSH1 0xEA SHL PUSH1 0x64 DUP3 ADD MSTORE PUSH1 0x84 ADD PUSH2 0xB2C JUMP JUMPDEST PUSH1 0x1 PUSH1 0x1 PUSH1 0xA0 SHL SUB DUP3 AND PUSH1 0x0 SWAP1 DUP2 MSTORE PUSH2 0x103 PUSH1 0x20 MSTORE PUSH1 0x40 SWAP1 KECCAK256 SLOAD DUP2 DUP2 LT ISZERO PUSH2 0x3012 JUMPI PUSH1 0x40 MLOAD PUSH3 0x461BCD PUSH1 0xE5 SHL DUP2 MSTORE PUSH1 0x20 PUSH1 0x4 DUP3 ADD MSTORE PUSH1 0x23 PUSH1 0x24 DUP3 ADD MSTORE PUSH32 0x546F6B656E4272696467653A20696E73756666696369656E74206C6971756964 PUSH1 0x44 DUP3 ADD MSTORE PUSH3 0x697479 PUSH1 0xE8 SHL PUSH1 0x64 DUP3 ADD MSTORE PUSH1 0x84 ADD PUSH2 0xB2C JUMP JUMPDEST PUSH2 0x301C DUP3 DUP3 PUSH2 0x502C JUMP JUMPDEST PUSH1 0x1 PUSH1 0x1 PUSH1 0xA0 SHL SUB DUP5 AND PUSH1 0x0 SWAP1 DUP2 MSTORE PUSH2 0x103 PUSH1 0x20 MSTORE PUSH1 0x40 SWAP1 KECCAK256 SSTORE PUSH2 0x102 SLOAD PUSH2 0x3046 JUMPI DUP2 PUSH1 0x0 PUSH2 0x304F JUMP JUMPDEST PUSH2 0x304F DUP3 PUSH2 0x3E9D JUMP JUMPDEST POP PUSH2 0x108 SLOAD SWAP1 SWAP3 POP PUSH1 0x1 PUSH1 0x1 PUSH1 0xA0 SHL SUB DUP5 DUP2 AND SWAP2 AND EQ DUP1 ISZERO PUSH2 0x306E JUMPI POP DUP4 JUMPDEST ISZERO PUSH2 0x30BF JUMPI PUSH2 0x108 SLOAD PUSH2 0x308B SWAP1 PUSH1 0x1 PUSH1 0x1 PUSH1 0xA0 SHL SUB AND DUP7 DUP5 PUSH2 0x3ECF JUMP JUMPDEST PUSH1 0x40 MLOAD DUP3 DUP2 MSTORE PUSH1 0x1 PUSH1 0x1 PUSH1 0xA0 SHL SUB DUP7 AND SWAP1 PUSH1 0x0 SWAP1 PUSH1 0x0 DUP1 MLOAD PUSH1 0x20 PUSH2 0x5640 DUP4 CODECOPY DUP2 MLOAD SWAP2 MSTORE SWAP1 PUSH1 0x20 ADD PUSH1 0x40 MLOAD DUP1 SWAP2 SUB SWAP1 LOG3 PUSH2 0x312A JUMP JUMPDEST PUSH1 0x1 PUSH1 0x1 PUSH1 0xA0 SHL SUB DUP6 AND ISZERO PUSH2 0x30D4 JUMPI DUP5 PUSH2 0x30D8 JUMP JUMPDEST PUSH2 0xDEAD JUMPDEST SWAP5 POP PUSH2 0x30EE PUSH1 0x1 PUSH1 0x1 PUSH1 0xA0 SHL SUB DUP5 AND DUP7 DUP5 PUSH2 0x26EF JUMP JUMPDEST DUP5 PUSH1 0x1 PUSH1 0x1 PUSH1 0xA0 SHL SUB AND DUP4 PUSH1 0x1 PUSH1 0x1 PUSH1 0xA0 SHL SUB AND PUSH1 0x0 DUP1 MLOAD PUSH1 0x20 PUSH2 0x5640 DUP4 CODECOPY DUP2 MLOAD SWAP2 MSTORE DUP5 PUSH1 0x40 MLOAD PUSH2 0x3121 SWAP2 DUP2 MSTORE PUSH1 0x20 ADD SWAP1 JUMP JUMPDEST PUSH1 0x40 MLOAD DUP1 SWAP2 SUB SWAP1 LOG3 JUMPDEST POP POP POP POP POP POP POP POP POP POP POP JUMP JUMPDEST PUSH2 0x108 SLOAD PUSH1 0x1 PUSH1 0xA0 SHL SWAP1 DIV PUSH1 0xFF AND DUP1 ISZERO PUSH2 0x3157 JUMPI POP PUSH2 0x101 SLOAD PUSH2 0xFFFF AND ISZERO ISZERO JUMPDEST ISZERO PUSH2 0x31A6 JUMPI PUSH2 0x101 SLOAD PUSH2 0x13BD SWAP1 PUSH2 0xFFFF AND PUSH1 0x0 DUP5 DUP5 DUP1 DUP1 PUSH1 0x1F ADD PUSH1 0x20 DUP1 SWAP2 DIV MUL PUSH1 0x20 ADD PUSH1 0x40 MLOAD SWAP1 DUP2 ADD PUSH1 0x40 MSTORE DUP1 SWAP4 SWAP3 SWAP2 SWAP1 DUP2 DUP2 MSTORE PUSH1 0x20 ADD DUP4 DUP4 DUP1 DUP3 DUP5 CALLDATACOPY PUSH1 0x0 SWAP3 ADD DUP3 SWAP1 MSTORE POP SWAP3 POP PUSH2 0x3F5F SWAP2 POP POP JUMP JUMPDEST DUP1 ISZERO PUSH2 0x13BD JUMPI PUSH1 0x40 MLOAD PUSH3 0x461BCD PUSH1 0xE5 SHL DUP2 MSTORE PUSH1 0x20 PUSH1 0x4 DUP3 ADD MSTORE PUSH1 0x2A PUSH1 0x24 DUP3 ADD MSTORE PUSH32 0x546F6B656E4272696467653A205F61646170746572506172616D73206D757374 PUSH1 0x44 DUP3 ADD MSTORE PUSH10 0x1031329032B6B83A3C97 PUSH1 0xB1 SHL PUSH1 0x64 DUP3 ADD MSTORE PUSH1 0x84 ADD PUSH2 0xB2C JUMP JUMPDEST PUSH1 0x60 PUSH1 0x0 PUSH2 0x3214 DUP5 PUSH2 0x402F JUMP JUMPDEST SWAP1 POP PUSH1 0x0 PUSH2 0x3221 DUP5 PUSH2 0x402F JUMP JUMPDEST PUSH1 0x40 MLOAD PUSH1 0x0 PUSH1 0x20 DUP3 ADD MSTORE PUSH1 0x21 DUP2 ADD DUP9 SWAP1 MSTORE PUSH1 0x41 DUP2 ADD DUP5 SWAP1 MSTORE PUSH1 0x61 DUP2 ADD DUP3 SWAP1 MSTORE SWAP1 SWAP2 POP PUSH1 0x81 ADD PUSH1 0x40 MLOAD PUSH1 0x20 DUP2 DUP4 SUB SUB DUP2 MSTORE SWAP1 PUSH1 0x40 MSTORE SWAP3 POP POP POP SWAP4 SWAP3 POP POP POP JUMP JUMPDEST PUSH1 0x60 DUP2 PUSH2 0x326E DUP2 PUSH1 0x1F PUSH2 0x4E44 JUMP JUMPDEST LT ISZERO PUSH2 0x32AD JUMPI PUSH1 0x40 MLOAD PUSH3 0x461BCD PUSH1 0xE5 SHL DUP2 MSTORE PUSH1 0x20 PUSH1 0x4 DUP3 ADD MSTORE PUSH1 0xE PUSH1 0x24 DUP3 ADD MSTORE PUSH14 0x736C6963655F6F766572666C6F77 PUSH1 0x90 SHL PUSH1 0x44 DUP3 ADD MSTORE PUSH1 0x64 ADD PUSH2 0xB2C JUMP JUMPDEST PUSH2 0x32B7 DUP3 DUP5 PUSH2 0x4E44 JUMP JUMPDEST DUP5 MLOAD LT ISZERO PUSH2 0x32FB JUMPI PUSH1 0x40 MLOAD PUSH3 0x461BCD PUSH1 0xE5 SHL DUP2 MSTORE PUSH1 0x20 PUSH1 0x4 DUP3 ADD MSTORE PUSH1 0x11 PUSH1 0x24 DUP3 ADD MSTORE PUSH17 0x736C6963655F6F75744F66426F756E6473 PUSH1 0x78 SHL PUSH1 0x44 DUP3 ADD MSTORE PUSH1 0x64 ADD PUSH2 0xB2C JUMP JUMPDEST PUSH1 0x60 DUP3 ISZERO DUP1 ISZERO PUSH2 0x331A JUMPI PUSH1 0x40 MLOAD SWAP2 POP PUSH1 0x0 DUP3 MSTORE PUSH1 0x20 DUP3 ADD PUSH1 0x40 MSTORE PUSH2 0x3364 JUMP JUMPDEST PUSH1 0x40 MLOAD SWAP2 POP PUSH1 0x1F DUP5 AND DUP1 ISZERO PUSH1 0x20 MUL DUP2 DUP5 ADD ADD DUP6 DUP2 ADD DUP8 DUP4 ISZERO PUSH1 0x20 MUL DUP5 DUP12 ADD ADD ADD JUMPDEST DUP2 DUP4 LT ISZERO PUSH2 0x3353 JUMPI DUP1 MLOAD DUP4 MSTORE PUSH1 0x20 SWAP3 DUP4 ADD SWAP3 ADD PUSH2 0x333B JUMP JUMPDEST POP POP DUP6 DUP5 MSTORE PUSH1 0x1F ADD PUSH1 0x1F NOT AND PUSH1 0x40 MSTORE POP JUMPDEST POP SWAP5 SWAP4 POP POP POP POP JUMP JUMPDEST PUSH1 0x1 PUSH1 0x1 PUSH1 0xA0 SHL SUB AND EXTCODESIZE ISZERO ISZERO SWAP1 JUMP JUMPDEST PUSH1 0x0 SLOAD PUSH2 0x100 SWAP1 DIV PUSH1 0xFF AND PUSH2 0x168D JUMPI PUSH1 0x40 MLOAD PUSH3 0x461BCD PUSH1 0xE5 SHL DUP2 MSTORE PUSH1 0x4 ADD PUSH2 0xB2C SWAP1 PUSH2 0x53D7 JUMP JUMPDEST PUSH1 0x0 SLOAD PUSH2 0x100 SWAP1 DIV PUSH1 0xFF AND PUSH2 0x33CA JUMPI PUSH1 0x40 MLOAD PUSH3 0x461BCD PUSH1 0xE5 SHL DUP2 MSTORE PUSH1 0x4 ADD PUSH2 0xB2C SWAP1 PUSH2 0x53D7 JUMP JUMPDEST PUSH2 0x168D PUSH2 0x403B JUMP JUMPDEST PUSH1 0x0 SLOAD PUSH2 0x100 SWAP1 DIV PUSH1 0xFF AND PUSH2 0x33F9 JUMPI PUSH1 0x40 MLOAD PUSH3 0x461BCD PUSH1 0xE5 SHL DUP2 MSTORE PUSH1 0x4 ADD PUSH2 0xB2C SWAP1 PUSH2 0x53D7 JUMP JUMPDEST PUSH2 0xFA8 DUP2 PUSH2 0x406B JUMP JUMPDEST PUSH1 0x0 SLOAD PUSH2 0x100 SWAP1 DIV PUSH1 0xFF AND PUSH2 0x3429 JUMPI PUSH1 0x40 MLOAD PUSH3 0x461BCD PUSH1 0xE5 SHL DUP2 MSTORE PUSH1 0x4 ADD PUSH2 0xB2C SWAP1 PUSH2 0x53D7 JUMP JUMPDEST PUSH2 0x168D PUSH2 0x409B JUMP JUMPDEST PUSH1 0x0 SLOAD PUSH2 0x100 SWAP1 DIV PUSH1 0xFF AND ISZERO DUP1 DUP1 ISZERO PUSH2 0x3451 JUMPI POP PUSH1 0x0 SLOAD PUSH1 0x1 PUSH1 0xFF SWAP1 SWAP2 AND LT JUMPDEST DUP1 PUSH2 0x3472 JUMPI POP PUSH2 0x3460 ADDRESS PUSH2 0x336D JUMP JUMPDEST ISZERO DUP1 ISZERO PUSH2 0x3472 JUMPI POP PUSH1 0x0 SLOAD PUSH1 0xFF AND PUSH1 0x1 EQ JUMPDEST PUSH2 0x348E JUMPI PUSH1 0x40 MLOAD PUSH3 0x461BCD PUSH1 0xE5 SHL DUP2 MSTORE PUSH1 0x4 ADD PUSH2 0xB2C SWAP1 PUSH2 0x50F7 JUMP JUMPDEST PUSH1 0x0 DUP1 SLOAD PUSH1 0xFF NOT AND PUSH1 0x1 OR SWAP1 SSTORE DUP1 ISZERO PUSH2 0x34B1 JUMPI PUSH1 0x0 DUP1 SLOAD PUSH2 0xFF00 NOT AND PUSH2 0x100 OR SWAP1 SSTORE JUMPDEST PUSH2 0x106 PUSH1 0x20 MSTORE PUSH32 0xD1FE999288D0A7E8ED972CAA3B05BCA25ECCD5B4E714D8EC2D4F2D8E22126216 DUP1 SLOAD PUSH1 0x1 PUSH1 0x1 PUSH1 0xA0 SHL SUB NOT SWAP1 DUP2 AND PUSH20 0x694AA1769357215DE4FAC081BF1F309ADC325306 OR SWAP1 SWAP2 SSTORE PUSH32 0x5C4185F72335224D2CF1CA1428FC3B5B56133884156DB2AD5F59D4B2FFEF13C1 DUP1 SLOAD DUP3 AND PUSH20 0x2514895C72F50D8BD4B4F9B1110F0D6BD2C97526 OR SWAP1 SSTORE PUSH32 0xDE8C4E26FF4F8E9560AFBCCF153706B866627645B028D1EA07877FD698662DAB DUP1 SLOAD DUP3 AND PUSH20 0xB8C458C957A6E6CA7CC53ED95BEA548C52AFAA24 OR SWAP1 SSTORE PUSH3 0x13881 PUSH1 0x0 SWAP1 DUP2 MSTORE PUSH32 0x5337A075601BC8FA859E72E939688626DA1AE8A471B1DB80F8E6AE13DCF28BED DUP1 SLOAD SWAP1 SWAP3 AND PUSH20 0xD0D5E3DB44DE05E9F294BB0A3BEEAF030DE24ADA OR SWAP1 SWAP2 SSTORE PUSH2 0x35C8 CHAINID SWAP1 JUMP JUMPDEST PUSH1 0x0 SWAP1 DUP2 MSTORE PUSH2 0x106 PUSH1 0x20 MSTORE PUSH1 0x40 SWAP1 KECCAK256 SLOAD PUSH2 0x10A DUP1 SLOAD PUSH1 0x1 PUSH1 0x1 PUSH1 0xA0 SHL SUB NOT AND PUSH1 0x1 PUSH1 0x1 PUSH1 0xA0 SHL SUB SWAP1 SWAP3 AND SWAP2 SWAP1 SWAP2 OR SWAP1 SSTORE POP DUP1 ISZERO PUSH2 0xFA8 JUMPI PUSH1 0x0 DUP1 SLOAD PUSH2 0xFF00 NOT AND SWAP1 SSTORE PUSH1 0x40 MLOAD PUSH1 0x1 DUP2 MSTORE PUSH1 0x0 DUP1 MLOAD PUSH1 0x20 PUSH2 0x56C0 DUP4 CODECOPY DUP2 MLOAD SWAP2 MSTORE SWAP1 PUSH1 0x20 ADD PUSH2 0xB67 JUMP JUMPDEST PUSH1 0x97 DUP1 SLOAD PUSH1 0x1 PUSH1 0x1 PUSH1 0xA0 SHL SUB DUP4 DUP2 AND PUSH1 0x1 PUSH1 0x1 PUSH1 0xA0 SHL SUB NOT DUP4 AND DUP2 OR SWAP1 SWAP4 SSTORE PUSH1 0x40 MLOAD SWAP2 AND SWAP2 SWAP1 DUP3 SWAP1 PUSH32 0x8BE0079C531659141344CD1FD0A4F28419497F9722A3DAAFE3B4186F6B6457E0 SWAP1 PUSH1 0x0 SWAP1 LOG3 POP POP JUMP JUMPDEST PUSH1 0x0 PUSH1 0x60 PUSH1 0x0 DUP1 PUSH1 0x0 DUP7 PUSH2 0xFFFF AND PUSH1 0x1 PUSH1 0x1 PUSH1 0x40 SHL SUB DUP2 GT ISZERO PUSH2 0x36A0 JUMPI PUSH2 0x36A0 PUSH2 0x4865 JUMP JUMPDEST PUSH1 0x40 MLOAD SWAP1 DUP1 DUP3 MSTORE DUP1 PUSH1 0x1F ADD PUSH1 0x1F NOT AND PUSH1 0x20 ADD DUP3 ADD PUSH1 0x40 MSTORE DUP1 ISZERO PUSH2 0x36CA JUMPI PUSH1 0x20 DUP3 ADD DUP2 DUP1 CALLDATASIZE DUP4 CALLDATACOPY ADD SWAP1 POP JUMPDEST POP SWAP1 POP PUSH1 0x0 DUP1 DUP8 MLOAD PUSH1 0x20 DUP10 ADD PUSH1 0x0 DUP14 DUP14 CALL SWAP2 POP RETURNDATASIZE SWAP3 POP DUP7 DUP4 GT ISZERO PUSH2 0x36EC JUMPI DUP7 SWAP3 POP JUMPDEST DUP3 DUP2 MSTORE DUP3 PUSH1 0x0 PUSH1 0x20 DUP4 ADD RETURNDATACOPY SWAP1 SWAP9 SWAP1 SWAP8 POP SWAP6 POP POP POP POP POP POP JUMP JUMPDEST DUP2 DUP1 MLOAD SWAP1 PUSH1 0x20 ADD KECCAK256 PUSH2 0x100 PUSH1 0x0 DUP8 PUSH2 0xFFFF AND PUSH2 0xFFFF AND DUP2 MSTORE PUSH1 0x20 ADD SWAP1 DUP2 MSTORE PUSH1 0x20 ADD PUSH1 0x0 KECCAK256 DUP6 PUSH1 0x40 MLOAD PUSH2 0x3737 SWAP2 SWAP1 PUSH2 0x5422 JUMP JUMPDEST SWAP1 DUP2 MSTORE PUSH1 0x40 DUP1 MLOAD SWAP2 DUP3 SWAP1 SUB PUSH1 0x20 SWAP1 DUP2 ADD DUP4 KECCAK256 PUSH1 0x1 PUSH1 0x1 PUSH1 0x40 SHL SUB DUP9 AND PUSH1 0x0 SWAP1 DUP2 MSTORE SWAP2 MSTORE KECCAK256 SWAP2 SWAP1 SWAP2 SSTORE PUSH32 0xE183F33DE2837795525B4792CA4CD60535BD77C53B7E7030060BFCF5734D6B0C SWAP1 PUSH2 0x3794 SWAP1 DUP8 SWAP1 DUP8 SWAP1 DUP8 SWAP1 DUP8 SWAP1 DUP8 SWAP1 PUSH2 0x543E JUMP JUMPDEST PUSH1 0x40 MLOAD DUP1 SWAP2 SUB SWAP1 LOG1 POP POP POP POP POP JUMP JUMPDEST PUSH1 0x0 PUSH2 0x37F8 DUP3 PUSH1 0x40 MLOAD DUP1 PUSH1 0x40 ADD PUSH1 0x40 MSTORE DUP1 PUSH1 0x20 DUP2 MSTORE PUSH1 0x20 ADD PUSH32 0x5361666545524332303A206C6F772D6C6576656C2063616C6C206661696C6564 DUP2 MSTORE POP DUP6 PUSH1 0x1 PUSH1 0x1 PUSH1 0xA0 SHL SUB AND PUSH2 0x40C2 SWAP1 SWAP3 SWAP2 SWAP1 PUSH4 0xFFFFFFFF AND JUMP JUMPDEST SWAP1 POP DUP1 MLOAD PUSH1 0x0 EQ DUP1 PUSH2 0x3819 JUMPI POP DUP1 DUP1 PUSH1 0x20 ADD SWAP1 MLOAD DUP2 ADD SWAP1 PUSH2 0x3819 SWAP2 SWAP1 PUSH2 0x549C JUMP JUMPDEST PUSH2 0x1761 JUMPI PUSH1 0x40 MLOAD PUSH3 0x461BCD PUSH1 0xE5 SHL DUP2 MSTORE PUSH1 0x20 PUSH1 0x4 DUP3 ADD MSTORE PUSH1 0x2A PUSH1 0x24 DUP3 ADD MSTORE PUSH32 0x5361666545524332303A204552433230206F7065726174696F6E20646964206E PUSH1 0x44 DUP3 ADD MSTORE PUSH10 0x1BDD081CDD58D8D95959 PUSH1 0xB2 SHL PUSH1 0x64 DUP3 ADD MSTORE PUSH1 0x84 ADD PUSH2 0xB2C JUMP JUMPDEST PUSH2 0x3881 DUP2 PUSH2 0x336D JUMP JUMPDEST PUSH2 0x38E3 JUMPI PUSH1 0x40 MLOAD PUSH3 0x461BCD PUSH1 0xE5 SHL DUP2 MSTORE PUSH1 0x20 PUSH1 0x4 DUP3 ADD MSTORE PUSH1 0x2D PUSH1 0x24 DUP3 ADD MSTORE PUSH32 0x455243313936373A206E657720696D706C656D656E746174696F6E206973206E PUSH1 0x44 DUP3 ADD MSTORE PUSH13 0x1BDD08184818DBDB9D1C9858DD PUSH1 0x9A SHL PUSH1 0x64 DUP3 ADD MSTORE PUSH1 0x84 ADD PUSH2 0xB2C JUMP JUMPDEST PUSH1 0x0 DUP1 MLOAD PUSH1 0x20 PUSH2 0x56A0 DUP4 CODECOPY DUP2 MLOAD SWAP2 MSTORE DUP1 SLOAD PUSH1 0x1 PUSH1 0x1 PUSH1 0xA0 SHL SUB NOT AND PUSH1 0x1 PUSH1 0x1 PUSH1 0xA0 SHL SUB SWAP3 SWAP1 SWAP3 AND SWAP2 SWAP1 SWAP2 OR SWAP1 SSTORE JUMP JUMPDEST PUSH2 0x391B DUP4 PUSH2 0x40D1 JUMP JUMPDEST PUSH1 0x0 DUP3 MLOAD GT DUP1 PUSH2 0x3928 JUMPI POP DUP1 JUMPDEST ISZERO PUSH2 0x1761 JUMPI PUSH2 0x3937 DUP4 DUP4 PUSH2 0x4111 JUMP JUMPDEST POP POP POP POP JUMP JUMPDEST PUSH1 0x40 MLOAD PUSH1 0x1 PUSH1 0x1 PUSH1 0xA0 SHL SUB DUP1 DUP6 AND PUSH1 0x24 DUP4 ADD MSTORE DUP4 AND PUSH1 0x44 DUP3 ADD MSTORE PUSH1 0x64 DUP2 ADD DUP3 SWAP1 MSTORE PUSH2 0x3937 SWAP1 DUP6 SWAP1 PUSH4 0x23B872DD PUSH1 0xE0 SHL SWAP1 PUSH1 0x84 ADD PUSH2 0x270E JUMP JUMPDEST PUSH2 0xFFFF DUP7 AND PUSH1 0x0 SWAP1 DUP2 MSTORE PUSH1 0xFC PUSH1 0x20 MSTORE PUSH1 0x40 DUP2 KECCAK256 DUP1 SLOAD PUSH2 0x3993 SWAP1 PUSH2 0x4CFB JUMP JUMPDEST DUP1 PUSH1 0x1F ADD PUSH1 0x20 DUP1 SWAP2 DIV MUL PUSH1 0x20 ADD PUSH1 0x40 MLOAD SWAP1 DUP2 ADD PUSH1 0x40 MSTORE DUP1 SWAP3 SWAP2 SWAP1 DUP2 DUP2 MSTORE PUSH1 0x20 ADD DUP3 DUP1 SLOAD PUSH2 0x39BF SWAP1 PUSH2 0x4CFB JUMP JUMPDEST DUP1 ISZERO PUSH2 0x3A0C JUMPI DUP1 PUSH1 0x1F LT PUSH2 0x39E1 JUMPI PUSH2 0x100 DUP1 DUP4 SLOAD DIV MUL DUP4 MSTORE SWAP2 PUSH1 0x20 ADD SWAP2 PUSH2 0x3A0C JUMP JUMPDEST DUP3 ADD SWAP2 SWAP1 PUSH1 0x0 MSTORE PUSH1 0x20 PUSH1 0x0 KECCAK256 SWAP1 JUMPDEST DUP2 SLOAD DUP2 MSTORE SWAP1 PUSH1 0x1 ADD SWAP1 PUSH1 0x20 ADD DUP1 DUP4 GT PUSH2 0x39EF JUMPI DUP3 SWAP1 SUB PUSH1 0x1F AND DUP3 ADD SWAP2 JUMPDEST POP POP POP POP POP SWAP1 POP DUP1 MLOAD PUSH1 0x0 SUB PUSH2 0x3A7D JUMPI PUSH1 0x40 MLOAD PUSH3 0x461BCD PUSH1 0xE5 SHL DUP2 MSTORE PUSH1 0x20 PUSH1 0x4 DUP3 ADD MSTORE PUSH1 0x30 PUSH1 0x24 DUP3 ADD MSTORE PUSH32 0x4C7A4170703A2064657374696E6174696F6E20636861696E206973206E6F7420 PUSH1 0x44 DUP3 ADD MSTORE PUSH16 0x61207472757374656420736F75726365 PUSH1 0x80 SHL PUSH1 0x64 DUP3 ADD MSTORE PUSH1 0x84 ADD PUSH2 0xB2C JUMP JUMPDEST PUSH2 0x3A88 DUP8 DUP8 MLOAD PUSH2 0x4136 JUMP JUMPDEST PUSH1 0xFB SLOAD PUSH1 0x40 MLOAD PUSH3 0xC58031 PUSH1 0xE8 SHL DUP2 MSTORE PUSH1 0x1 PUSH1 0x1 PUSH1 0xA0 SHL SUB SWAP1 SWAP2 AND SWAP1 PUSH4 0xC5803100 SWAP1 DUP5 SWAP1 PUSH2 0x3AC3 SWAP1 DUP12 SWAP1 DUP7 SWAP1 DUP13 SWAP1 DUP13 SWAP1 DUP13 SWAP1 DUP13 SWAP1 PUSH1 0x4 ADD PUSH2 0x54B9 JUMP JUMPDEST PUSH1 0x0 PUSH1 0x40 MLOAD DUP1 DUP4 SUB DUP2 DUP6 DUP9 DUP1 EXTCODESIZE ISZERO DUP1 ISZERO PUSH2 0x3ADC JUMPI PUSH1 0x0 DUP1 REVERT JUMPDEST POP GAS CALL ISZERO DUP1 ISZERO PUSH2 0x3AF0 JUMPI RETURNDATASIZE PUSH1 0x0 DUP1 RETURNDATACOPY RETURNDATASIZE PUSH1 0x0 REVERT JUMPDEST POP POP POP POP POP POP POP POP POP POP POP POP JUMP JUMPDEST PUSH1 0x0 DUP1 PUSH1 0x0 DUP1 DUP5 MLOAD PUSH1 0x62 EQ PUSH2 0x3B61 JUMPI PUSH1 0x40 MLOAD PUSH3 0x461BCD PUSH1 0xE5 SHL DUP2 MSTORE PUSH1 0x20 PUSH1 0x4 DUP3 ADD MSTORE PUSH1 0x23 PUSH1 0x24 DUP3 ADD MSTORE PUSH32 0x546F6B656E4272696467653A20696E76616C6964207061796C6F6164206C656E PUSH1 0x44 DUP3 ADD MSTORE PUSH3 0xCEE8D PUSH1 0xEB SHL PUSH1 0x64 DUP3 ADD MSTORE PUSH1 0x84 ADD PUSH2 0xB2C JUMP JUMPDEST PUSH1 0x0 DUP6 PUSH1 0x0 DUP2 MLOAD DUP2 LT PUSH2 0x3B76 JUMPI PUSH2 0x3B76 PUSH2 0x5513 JUMP JUMPDEST ADD PUSH1 0x20 ADD MLOAD PUSH1 0xF8 SHR PUSH1 0x1 DUP2 GT ISZERO PUSH2 0x3B8F JUMPI PUSH2 0x3B8F PUSH2 0x53C1 JUMP JUMPDEST SWAP1 POP PUSH1 0x1 DUP2 PUSH1 0x1 DUP2 GT ISZERO PUSH2 0x3BA5 JUMPI PUSH2 0x3BA5 PUSH2 0x53C1 JUMP JUMPDEST EQ PUSH2 0x3BF2 JUMPI PUSH1 0x40 MLOAD PUSH3 0x461BCD PUSH1 0xE5 SHL DUP2 MSTORE PUSH1 0x20 PUSH1 0x4 DUP3 ADD DUP2 SWAP1 MSTORE PUSH1 0x24 DUP3 ADD MSTORE PUSH32 0x546F6B656E4272696467653A20756E6B6E6F776E207061636B65742074797065 PUSH1 0x44 DUP3 ADD MSTORE PUSH1 0x64 ADD PUSH2 0xB2C JUMP JUMPDEST PUSH1 0x21 DUP7 ADD MLOAD SWAP5 POP PUSH1 0x41 DUP7 ADD MLOAD SWAP4 POP PUSH1 0x61 DUP7 ADD MLOAD SWAP3 POP DUP6 PUSH1 0x61 DUP2 MLOAD DUP2 LT PUSH2 0x3C1A JUMPI PUSH2 0x3C1A PUSH2 0x5513 JUMP JUMPDEST PUSH1 0x20 ADD ADD MLOAD PUSH1 0xF8 SHR PUSH1 0xF8 SHL PUSH1 0xF8 SHR PUSH1 0xFF AND PUSH1 0x1 EQ SWAP2 POP POP SWAP2 SWAP4 POP SWAP2 SWAP4 JUMP JUMPDEST PUSH1 0x0 DUP1 PUSH2 0x3C43 PUSH2 0x1F28 JUMP JUMPDEST SWAP1 POP PUSH1 0x0 DUP1 DUP3 SLT PUSH2 0x3C54 JUMPI DUP2 PUSH2 0x3C6B JUMP JUMPDEST PUSH2 0x3C60 DUP3 PUSH1 0x0 NOT PUSH2 0x502C JUMP JUMPDEST PUSH2 0x3C6B SWAP1 PUSH1 0x1 PUSH2 0x4E44 JUMP JUMPDEST SWAP1 POP DUP1 PUSH2 0x3C80 DUP6 PUSH8 0xDE0B6B3A7640000 PUSH2 0x5079 JUMP JUMPDEST PUSH2 0x260F SWAP2 SWAP1 PUSH2 0x539F JUMP JUMPDEST PUSH1 0x0 DUP1 DUP3 PUSH1 0x1 PUSH1 0x1 PUSH1 0xA0 SHL SUB AND PUSH4 0xA8AA1B31 PUSH1 0x40 MLOAD DUP2 PUSH4 0xFFFFFFFF AND PUSH1 0xE0 SHL DUP2 MSTORE PUSH1 0x4 ADD PUSH1 0x20 PUSH1 0x40 MLOAD DUP1 DUP4 SUB DUP2 DUP7 GAS STATICCALL ISZERO DUP1 ISZERO PUSH2 0x3CCB JUMPI RETURNDATASIZE PUSH1 0x0 DUP1 RETURNDATACOPY RETURNDATASIZE PUSH1 0x0 REVERT JUMPDEST POP POP POP POP PUSH1 0x40 MLOAD RETURNDATASIZE PUSH1 0x1F NOT PUSH1 0x1F DUP3 ADD AND DUP3 ADD DUP1 PUSH1 0x40 MSTORE POP DUP2 ADD SWAP1 PUSH2 0x3CEF SWAP2 SWAP1 PUSH2 0x531B JUMP JUMPDEST SWAP1 POP PUSH1 0x0 PUSH2 0x3CFB PUSH2 0x1F28 JUMP JUMPDEST SWAP1 POP PUSH1 0x0 DUP1 DUP3 SLT PUSH2 0x3D0C JUMPI DUP2 PUSH2 0x3D23 JUMP JUMPDEST PUSH2 0x3D18 DUP3 PUSH1 0x0 NOT PUSH2 0x502C JUMP JUMPDEST PUSH2 0x3D23 SWAP1 PUSH1 0x1 PUSH2 0x4E44 JUMP JUMPDEST SWAP1 POP PUSH1 0x0 DUP4 SWAP1 POP PUSH1 0x0 DUP1 DUP3 PUSH1 0x1 PUSH1 0x1 PUSH1 0xA0 SHL SUB AND PUSH4 0x902F1AC PUSH1 0x40 MLOAD DUP2 PUSH4 0xFFFFFFFF AND PUSH1 0xE0 SHL DUP2 MSTORE PUSH1 0x4 ADD PUSH1 0x60 PUSH1 0x40 MLOAD DUP1 DUP4 SUB DUP2 DUP7 GAS STATICCALL ISZERO DUP1 ISZERO PUSH2 0x3D6B JUMPI RETURNDATASIZE PUSH1 0x0 DUP1 RETURNDATACOPY RETURNDATASIZE PUSH1 0x0 REVERT JUMPDEST POP POP POP POP PUSH1 0x40 MLOAD RETURNDATASIZE PUSH1 0x1F NOT PUSH1 0x1F DUP3 ADD AND DUP3 ADD DUP1 PUSH1 0x40 MSTORE POP DUP2 ADD SWAP1 PUSH2 0x3D8F SWAP2 SWAP1 PUSH2 0x534F JUMP JUMPDEST POP SWAP2 POP SWAP2 POP PUSH1 0x0 DUP9 PUSH1 0x1 PUSH1 0x1 PUSH1 0xA0 SHL SUB AND DUP5 PUSH1 0x1 PUSH1 0x1 PUSH1 0xA0 SHL SUB AND PUSH4 0xDFE1681 PUSH1 0x40 MLOAD DUP2 PUSH4 0xFFFFFFFF AND PUSH1 0xE0 SHL DUP2 MSTORE PUSH1 0x4 ADD PUSH1 0x20 PUSH1 0x40 MLOAD DUP1 DUP4 SUB DUP2 DUP7 GAS STATICCALL ISZERO DUP1 ISZERO PUSH2 0x3DDE JUMPI RETURNDATASIZE PUSH1 0x0 DUP1 RETURNDATACOPY RETURNDATASIZE PUSH1 0x0 REVERT JUMPDEST POP POP POP POP PUSH1 0x40 MLOAD RETURNDATASIZE PUSH1 0x1F NOT PUSH1 0x1F DUP3 ADD AND DUP3 ADD DUP1 PUSH1 0x40 MSTORE POP DUP2 ADD SWAP1 PUSH2 0x3E02 SWAP2 SWAP1 PUSH2 0x531B JUMP JUMPDEST PUSH1 0x1 PUSH1 0x1 PUSH1 0xA0 SHL SUB AND EQ PUSH2 0x3E49 JUMPI DUP5 DUP3 PUSH1 0x1 PUSH1 0x1 PUSH1 0x70 SHL SUB AND DUP5 PUSH1 0x1 PUSH1 0x1 PUSH1 0x70 SHL SUB AND DUP13 PUSH2 0x3E30 SWAP2 SWAP1 PUSH2 0x5079 JUMP JUMPDEST PUSH2 0x3E3A SWAP2 SWAP1 PUSH2 0x539F JUMP JUMPDEST PUSH2 0x3E44 SWAP2 SWAP1 PUSH2 0x539F JUMP JUMPDEST PUSH2 0x3E7D JUMP JUMPDEST DUP5 DUP4 PUSH1 0x1 PUSH1 0x1 PUSH1 0x70 SHL SUB AND DUP4 PUSH1 0x1 PUSH1 0x1 PUSH1 0x70 SHL SUB AND DUP13 PUSH2 0x3E69 SWAP2 SWAP1 PUSH2 0x5079 JUMP JUMPDEST PUSH2 0x3E73 SWAP2 SWAP1 PUSH2 0x539F JUMP JUMPDEST PUSH2 0x3E7D SWAP2 SWAP1 PUSH2 0x539F JUMP JUMPDEST SWAP1 POP PUSH2 0x3E88 DUP10 PUSH2 0x41A7 JUMP JUMPDEST PUSH2 0x3E93 SWAP1 PUSH1 0xA PUSH2 0x560D JUMP JUMPDEST PUSH2 0x2C91 SWAP1 DUP3 PUSH2 0x5079 JUMP JUMPDEST PUSH1 0x0 DUP1 PUSH2 0x2710 PUSH2 0x102 SLOAD DUP5 PUSH2 0x3EB2 SWAP2 SWAP1 PUSH2 0x5079 JUMP JUMPDEST PUSH2 0x3EBC SWAP2 SWAP1 PUSH2 0x539F JUMP JUMPDEST SWAP1 POP PUSH2 0x3EC8 DUP2 DUP5 PUSH2 0x502C JUMP JUMPDEST SWAP2 POP SWAP2 POP SWAP2 JUMP JUMPDEST PUSH1 0x40 MLOAD PUSH4 0x2E1A7D4D PUSH1 0xE0 SHL DUP2 MSTORE PUSH1 0x4 DUP2 ADD DUP3 SWAP1 MSTORE PUSH1 0x1 PUSH1 0x1 PUSH1 0xA0 SHL SUB DUP5 AND SWAP1 PUSH4 0x2E1A7D4D SWAP1 PUSH1 0x24 ADD PUSH1 0x0 PUSH1 0x40 MLOAD DUP1 DUP4 SUB DUP2 PUSH1 0x0 DUP8 DUP1 EXTCODESIZE ISZERO DUP1 ISZERO PUSH2 0x3F11 JUMPI PUSH1 0x0 DUP1 REVERT JUMPDEST POP GAS CALL ISZERO DUP1 ISZERO PUSH2 0x3F25 JUMPI RETURNDATASIZE PUSH1 0x0 DUP1 RETURNDATACOPY RETURNDATASIZE PUSH1 0x0 REVERT JUMPDEST POP POP PUSH1 0x40 MLOAD PUSH1 0x1 PUSH1 0x1 PUSH1 0xA0 SHL SUB DUP6 AND SWAP3 POP DUP4 ISZERO PUSH2 0x8FC MUL SWAP2 POP DUP4 SWAP1 PUSH1 0x0 DUP2 DUP2 DUP2 DUP6 DUP9 DUP9 CALL SWAP4 POP POP POP POP ISZERO DUP1 ISZERO PUSH2 0x3937 JUMPI RETURNDATASIZE PUSH1 0x0 DUP1 RETURNDATACOPY RETURNDATASIZE PUSH1 0x0 REVERT JUMPDEST PUSH1 0x0 PUSH2 0x3F6A DUP4 PUSH2 0x42A5 JUMP JUMPDEST PUSH2 0xFFFF DUP1 DUP8 AND PUSH1 0x0 SWAP1 DUP2 MSTORE PUSH1 0xFD PUSH1 0x20 SWAP1 DUP2 MSTORE PUSH1 0x40 DUP1 DUP4 KECCAK256 SWAP4 DUP10 AND DUP4 MSTORE SWAP3 SWAP1 MSTORE KECCAK256 SLOAD SWAP1 SWAP2 POP DUP1 PUSH2 0x3FD8 JUMPI PUSH1 0x40 MLOAD PUSH3 0x461BCD PUSH1 0xE5 SHL DUP2 MSTORE PUSH1 0x20 PUSH1 0x4 DUP3 ADD MSTORE PUSH1 0x1A PUSH1 0x24 DUP3 ADD MSTORE PUSH26 0x131E905C1C0E881B5A5B91D85CD31A5B5A5D081B9BDD081CD95D PUSH1 0x32 SHL PUSH1 0x44 DUP3 ADD MSTORE PUSH1 0x64 ADD PUSH2 0xB2C JUMP JUMPDEST PUSH2 0x3FE2 DUP4 DUP3 PUSH2 0x4E44 JUMP JUMPDEST DUP3 LT ISZERO PUSH2 0x1627 JUMPI PUSH1 0x40 MLOAD PUSH3 0x461BCD PUSH1 0xE5 SHL DUP2 MSTORE PUSH1 0x20 PUSH1 0x4 DUP3 ADD MSTORE PUSH1 0x1B PUSH1 0x24 DUP3 ADD MSTORE PUSH27 0x4C7A4170703A20676173206C696D697420697320746F6F206C6F77 PUSH1 0x28 SHL PUSH1 0x44 DUP3 ADD MSTORE PUSH1 0x64 ADD PUSH2 0xB2C JUMP JUMPDEST PUSH1 0x1 PUSH1 0x1 PUSH1 0xA0 SHL SUB AND SWAP1 JUMP JUMPDEST PUSH1 0x0 SLOAD PUSH2 0x100 SWAP1 DIV PUSH1 0xFF AND PUSH2 0x4062 JUMPI PUSH1 0x40 MLOAD PUSH3 0x461BCD PUSH1 0xE5 SHL DUP2 MSTORE PUSH1 0x4 ADD PUSH2 0xB2C SWAP1 PUSH2 0x53D7 JUMP JUMPDEST PUSH2 0x168D CALLER PUSH2 0x3629 JUMP JUMPDEST PUSH1 0x0 SLOAD PUSH2 0x100 SWAP1 DIV PUSH1 0xFF AND PUSH2 0x4092 JUMPI PUSH1 0x40 MLOAD PUSH3 0x461BCD PUSH1 0xE5 SHL DUP2 MSTORE PUSH1 0x4 ADD PUSH2 0xB2C SWAP1 PUSH2 0x53D7 JUMP JUMPDEST PUSH2 0xFA8 DUP2 PUSH2 0x4300 JUMP JUMPDEST PUSH1 0x0 SLOAD PUSH2 0x100 SWAP1 DIV PUSH1 0xFF AND PUSH2 0x2D3A JUMPI PUSH1 0x40 MLOAD PUSH3 0x461BCD PUSH1 0xE5 SHL DUP2 MSTORE PUSH1 0x4 ADD PUSH2 0xB2C SWAP1 PUSH2 0x53D7 JUMP JUMPDEST PUSH1 0x60 PUSH2 0x260F DUP5 DUP5 PUSH1 0x0 DUP6 PUSH2 0x4338 JUMP JUMPDEST PUSH2 0x40DA DUP2 PUSH2 0x3878 JUMP JUMPDEST PUSH1 0x40 MLOAD PUSH1 0x1 PUSH1 0x1 PUSH1 0xA0 SHL SUB DUP3 AND SWAP1 PUSH32 0xBC7CD75A20EE27FD9ADEBAB32041F755214DBC6BFFA90CC0225B39DA2E5C2D3B SWAP1 PUSH1 0x0 SWAP1 LOG2 POP JUMP JUMPDEST PUSH1 0x60 PUSH2 0x1A1D DUP4 DUP4 PUSH1 0x40 MLOAD DUP1 PUSH1 0x60 ADD PUSH1 0x40 MSTORE DUP1 PUSH1 0x27 DUP2 MSTORE PUSH1 0x20 ADD PUSH2 0x56E0 PUSH1 0x27 SWAP2 CODECOPY PUSH2 0x4413 JUMP JUMPDEST PUSH2 0xFFFF DUP3 AND PUSH1 0x0 SWAP1 DUP2 MSTORE PUSH1 0xFE PUSH1 0x20 MSTORE PUSH1 0x40 DUP2 KECCAK256 SLOAD SWAP1 DUP2 SWAP1 SUB PUSH2 0x4157 JUMPI POP PUSH2 0x2710 JUMPDEST DUP1 DUP3 GT ISZERO PUSH2 0x1761 JUMPI PUSH1 0x40 MLOAD PUSH3 0x461BCD PUSH1 0xE5 SHL DUP2 MSTORE PUSH1 0x20 PUSH1 0x4 DUP3 ADD DUP2 SWAP1 MSTORE PUSH1 0x24 DUP3 ADD MSTORE PUSH32 0x4C7A4170703A207061796C6F61642073697A6520697320746F6F206C61726765 PUSH1 0x44 DUP3 ADD MSTORE PUSH1 0x64 ADD PUSH2 0xB2C JUMP JUMPDEST PUSH1 0x40 DUP1 MLOAD PUSH1 0x4 DUP2 MSTORE PUSH1 0x24 DUP2 ADD DUP3 MSTORE PUSH1 0x20 DUP2 ADD DUP1 MLOAD PUSH1 0x1 PUSH1 0x1 PUSH1 0xE0 SHL SUB AND PUSH4 0x313CE567 PUSH1 0xE0 SHL OR SWAP1 MSTORE SWAP1 MLOAD PUSH1 0x0 SWAP2 DUP3 SWAP2 DUP3 SWAP2 PUSH1 0x1 PUSH1 0x1 PUSH1 0xA0 SHL SUB DUP7 AND SWAP2 PUSH2 0x41ED SWAP2 SWAP1 PUSH2 0x5422 JUMP JUMPDEST PUSH1 0x0 PUSH1 0x40 MLOAD DUP1 DUP4 SUB DUP2 DUP6 GAS STATICCALL SWAP2 POP POP RETURNDATASIZE DUP1 PUSH1 0x0 DUP2 EQ PUSH2 0x4228 JUMPI PUSH1 0x40 MLOAD SWAP2 POP PUSH1 0x1F NOT PUSH1 0x3F RETURNDATASIZE ADD AND DUP3 ADD PUSH1 0x40 MSTORE RETURNDATASIZE DUP3 MSTORE RETURNDATASIZE PUSH1 0x0 PUSH1 0x20 DUP5 ADD RETURNDATACOPY PUSH2 0x422D JUMP JUMPDEST PUSH1 0x60 SWAP2 POP JUMPDEST POP SWAP2 POP SWAP2 POP DUP2 PUSH2 0x4291 JUMPI PUSH1 0x40 MLOAD PUSH3 0x461BCD PUSH1 0xE5 SHL DUP2 MSTORE PUSH1 0x20 PUSH1 0x4 DUP3 ADD MSTORE PUSH1 0x29 PUSH1 0x24 DUP3 ADD MSTORE PUSH32 0x546F6B656E4272696467653A206661696C656420746F2067657420746F6B656E PUSH1 0x44 DUP3 ADD MSTORE PUSH9 0x20646563696D616C73 PUSH1 0xB8 SHL PUSH1 0x64 DUP3 ADD MSTORE PUSH1 0x84 ADD PUSH2 0xB2C JUMP JUMPDEST DUP1 DUP1 PUSH1 0x20 ADD SWAP1 MLOAD DUP2 ADD SWAP1 PUSH2 0x260F SWAP2 SWAP1 PUSH2 0x561C JUMP JUMPDEST PUSH1 0x0 PUSH1 0x22 DUP3 MLOAD LT ISZERO PUSH2 0x42F8 JUMPI PUSH1 0x40 MLOAD PUSH3 0x461BCD PUSH1 0xE5 SHL DUP2 MSTORE PUSH1 0x20 PUSH1 0x4 DUP3 ADD MSTORE PUSH1 0x1C PUSH1 0x24 DUP3 ADD MSTORE PUSH28 0x4C7A4170703A20696E76616C69642061646170746572506172616D73 PUSH1 0x20 SHL PUSH1 0x44 DUP3 ADD MSTORE PUSH1 0x64 ADD PUSH2 0xB2C JUMP JUMPDEST POP PUSH1 0x22 ADD MLOAD SWAP1 JUMP JUMPDEST PUSH1 0x0 SLOAD PUSH2 0x100 SWAP1 DIV PUSH1 0xFF AND PUSH2 0x4327 JUMPI PUSH1 0x40 MLOAD PUSH3 0x461BCD PUSH1 0xE5 SHL DUP2 MSTORE PUSH1 0x4 ADD PUSH2 0xB2C SWAP1 PUSH2 0x53D7 JUMP JUMPDEST PUSH2 0x432F PUSH2 0x33A3 JUMP JUMPDEST PUSH2 0xFA8 DUP2 PUSH2 0x4481 JUMP JUMPDEST PUSH1 0x60 DUP3 SELFBALANCE LT ISZERO PUSH2 0x4399 JUMPI PUSH1 0x40 MLOAD PUSH3 0x461BCD PUSH1 0xE5 SHL DUP2 MSTORE PUSH1 0x20 PUSH1 0x4 DUP3 ADD MSTORE PUSH1 0x26 PUSH1 0x24 DUP3 ADD MSTORE PUSH32 0x416464726573733A20696E73756666696369656E742062616C616E636520666F PUSH1 0x44 DUP3 ADD MSTORE PUSH6 0x1C8818D85B1B PUSH1 0xD2 SHL PUSH1 0x64 DUP3 ADD MSTORE PUSH1 0x84 ADD PUSH2 0xB2C JUMP JUMPDEST PUSH1 0x0 DUP1 DUP7 PUSH1 0x1 PUSH1 0x1 PUSH1 0xA0 SHL SUB AND DUP6 DUP8 PUSH1 0x40 MLOAD PUSH2 0x43B5 SWAP2 SWAP1 PUSH2 0x5422 JUMP JUMPDEST PUSH1 0x0 PUSH1 0x40 MLOAD DUP1 DUP4 SUB DUP2 DUP6 DUP8 GAS CALL SWAP3 POP POP POP RETURNDATASIZE DUP1 PUSH1 0x0 DUP2 EQ PUSH2 0x43F2 JUMPI PUSH1 0x40 MLOAD SWAP2 POP PUSH1 0x1F NOT PUSH1 0x3F RETURNDATASIZE ADD AND DUP3 ADD PUSH1 0x40 MSTORE RETURNDATASIZE DUP3 MSTORE RETURNDATASIZE PUSH1 0x0 PUSH1 0x20 DUP5 ADD RETURNDATACOPY PUSH2 0x43F7 JUMP JUMPDEST PUSH1 0x60 SWAP2 POP JUMPDEST POP SWAP2 POP SWAP2 POP PUSH2 0x4408 DUP8 DUP4 DUP4 DUP8 PUSH2 0x44CA JUMP JUMPDEST SWAP8 SWAP7 POP POP POP POP POP POP POP JUMP JUMPDEST PUSH1 0x60 PUSH1 0x0 DUP1 DUP6 PUSH1 0x1 PUSH1 0x1 PUSH1 0xA0 SHL SUB AND DUP6 PUSH1 0x40 MLOAD PUSH2 0x4430 SWAP2 SWAP1 PUSH2 0x5422 JUMP JUMPDEST PUSH1 0x0 PUSH1 0x40 MLOAD DUP1 DUP4 SUB DUP2 DUP6 GAS DELEGATECALL SWAP2 POP POP RETURNDATASIZE DUP1 PUSH1 0x0 DUP2 EQ PUSH2 0x446B JUMPI PUSH1 0x40 MLOAD SWAP2 POP PUSH1 0x1F NOT PUSH1 0x3F RETURNDATASIZE ADD AND DUP3 ADD PUSH1 0x40 MSTORE RETURNDATASIZE DUP3 MSTORE RETURNDATASIZE PUSH1 0x0 PUSH1 0x20 DUP5 ADD RETURNDATACOPY PUSH2 0x4470 JUMP JUMPDEST PUSH1 0x60 SWAP2 POP JUMPDEST POP SWAP2 POP SWAP2 POP PUSH2 0x2A30 DUP7 DUP4 DUP4 DUP8 PUSH2 0x44CA JUMP JUMPDEST PUSH1 0x0 SLOAD PUSH2 0x100 SWAP1 DIV PUSH1 0xFF AND PUSH2 0x44A8 JUMPI PUSH1 0x40 MLOAD PUSH3 0x461BCD PUSH1 0xE5 SHL DUP2 MSTORE PUSH1 0x4 ADD PUSH2 0xB2C SWAP1 PUSH2 0x53D7 JUMP JUMPDEST PUSH1 0xFB DUP1 SLOAD PUSH1 0x1 PUSH1 0x1 PUSH1 0xA0 SHL SUB NOT AND PUSH1 0x1 PUSH1 0x1 PUSH1 0xA0 SHL SUB SWAP3 SWAP1 SWAP3 AND SWAP2 SWAP1 SWAP2 OR SWAP1 SSTORE JUMP JUMPDEST PUSH1 0x60 DUP4 ISZERO PUSH2 0x4537 JUMPI DUP3 MLOAD PUSH1 0x0 SUB PUSH2 0x4530 JUMPI PUSH2 0x44E4 DUP6 PUSH2 0x336D JUMP JUMPDEST PUSH2 0x4530 JUMPI PUSH1 0x40 MLOAD PUSH3 0x461BCD PUSH1 0xE5 SHL DUP2 MSTORE PUSH1 0x20 PUSH1 0x4 DUP3 ADD MSTORE PUSH1 0x1D PUSH1 0x24 DUP3 ADD MSTORE PUSH32 0x416464726573733A2063616C6C20746F206E6F6E2D636F6E7472616374000000 PUSH1 0x44 DUP3 ADD MSTORE PUSH1 0x64 ADD PUSH2 0xB2C JUMP JUMPDEST POP DUP2 PUSH2 0x260F JUMP JUMPDEST PUSH2 0x260F DUP4 DUP4 DUP2 MLOAD ISZERO PUSH2 0x454C JUMPI DUP2 MLOAD DUP1 DUP4 PUSH1 0x20 ADD REVERT JUMPDEST DUP1 PUSH1 0x40 MLOAD PUSH3 0x461BCD PUSH1 0xE5 SHL DUP2 MSTORE PUSH1 0x4 ADD PUSH2 0xB2C SWAP2 SWAP1 PUSH2 0x4AB2 JUMP JUMPDEST PUSH1 0x0 PUSH1 0x20 DUP3 DUP5 SUB SLT ISZERO PUSH2 0x4578 JUMPI PUSH1 0x0 DUP1 REVERT JUMPDEST POP CALLDATALOAD SWAP2 SWAP1 POP JUMP JUMPDEST DUP1 CALLDATALOAD PUSH2 0xFFFF DUP2 AND DUP2 EQ PUSH2 0x4591 JUMPI PUSH1 0x0 DUP1 REVERT JUMPDEST SWAP2 SWAP1 POP JUMP JUMPDEST PUSH1 0x0 DUP1 DUP4 PUSH1 0x1F DUP5 ADD SLT PUSH2 0x45A8 JUMPI PUSH1 0x0 DUP1 REVERT JUMPDEST POP DUP2 CALLDATALOAD PUSH1 0x1 PUSH1 0x1 PUSH1 0x40 SHL SUB DUP2 GT ISZERO PUSH2 0x45BF JUMPI PUSH1 0x0 DUP1 REVERT JUMPDEST PUSH1 0x20 DUP4 ADD SWAP2 POP DUP4 PUSH1 0x20 DUP3 DUP6 ADD ADD GT ISZERO PUSH2 0x45D7 JUMPI PUSH1 0x0 DUP1 REVERT JUMPDEST SWAP3 POP SWAP3 SWAP1 POP JUMP JUMPDEST DUP1 CALLDATALOAD PUSH1 0x1 PUSH1 0x1 PUSH1 0x40 SHL SUB DUP2 AND DUP2 EQ PUSH2 0x4591 JUMPI PUSH1 0x0 DUP1 REVERT JUMPDEST PUSH1 0x0 DUP1 PUSH1 0x0 DUP1 PUSH1 0x0 DUP1 PUSH1 0x80 DUP8 DUP10 SUB SLT ISZERO PUSH2 0x460E JUMPI PUSH1 0x0 DUP1 REVERT JUMPDEST PUSH2 0x4617 DUP8 PUSH2 0x457F JUMP JUMPDEST SWAP6 POP PUSH1 0x20 DUP8 ADD CALLDATALOAD PUSH1 0x1 PUSH1 0x1 PUSH1 0x40 SHL SUB DUP1 DUP3 GT ISZERO PUSH2 0x4633 JUMPI PUSH1 0x0 DUP1 REVERT JUMPDEST PUSH2 0x463F DUP11 DUP4 DUP12 ADD PUSH2 0x4596 JUMP JUMPDEST SWAP1 SWAP8 POP SWAP6 POP DUP6 SWAP2 POP PUSH2 0x4653 PUSH1 0x40 DUP11 ADD PUSH2 0x45DE JUMP JUMPDEST SWAP5 POP PUSH1 0x60 DUP10 ADD CALLDATALOAD SWAP2 POP DUP1 DUP3 GT ISZERO PUSH2 0x4669 JUMPI PUSH1 0x0 DUP1 REVERT JUMPDEST POP PUSH2 0x4676 DUP10 DUP3 DUP11 ADD PUSH2 0x4596 JUMP JUMPDEST SWAP8 SWAP11 SWAP7 SWAP10 POP SWAP5 SWAP8 POP SWAP3 SWAP6 SWAP4 SWAP5 SWAP3 POP POP POP JUMP JUMPDEST PUSH1 0x0 PUSH1 0x20 DUP3 DUP5 SUB SLT ISZERO PUSH2 0x469A JUMPI PUSH1 0x0 DUP1 REVERT JUMPDEST PUSH2 0x1A1D DUP3 PUSH2 0x457F JUMP JUMPDEST PUSH1 0x0 DUP1 PUSH1 0x40 DUP4 DUP6 SUB SLT ISZERO PUSH2 0x46B6 JUMPI PUSH1 0x0 DUP1 REVERT JUMPDEST PUSH2 0x46BF DUP4 PUSH2 0x457F JUMP JUMPDEST SWAP5 PUSH1 0x20 SWAP4 SWAP1 SWAP4 ADD CALLDATALOAD SWAP4 POP POP POP JUMP JUMPDEST PUSH1 0x1 PUSH1 0x1 PUSH1 0xA0 SHL SUB DUP2 AND DUP2 EQ PUSH2 0xFA8 JUMPI PUSH1 0x0 DUP1 REVERT JUMPDEST PUSH1 0x0 DUP1 PUSH1 0x0 PUSH1 0x60 DUP5 DUP7 SUB SLT ISZERO PUSH2 0x46F7 JUMPI PUSH1 0x0 DUP1 REVERT JUMPDEST DUP4 CALLDATALOAD PUSH2 0x4702 DUP2 PUSH2 0x46CD JUMP JUMPDEST SWAP3 POP PUSH1 0x20 DUP5 ADD CALLDATALOAD PUSH2 0x4712 DUP2 PUSH2 0x46CD JUMP JUMPDEST SWAP3 SWAP6 SWAP3 SWAP5 POP POP POP PUSH1 0x40 SWAP2 SWAP1 SWAP2 ADD CALLDATALOAD SWAP1 JUMP JUMPDEST PUSH1 0x0 PUSH1 0x20 DUP3 DUP5 SUB SLT ISZERO PUSH2 0x4735 JUMPI PUSH1 0x0 DUP1 REVERT JUMPDEST DUP2 CALLDATALOAD PUSH2 0x1A1D DUP2 PUSH2 0x46CD JUMP JUMPDEST PUSH1 0x0 PUSH1 0x40 DUP3 DUP5 SUB SLT ISZERO PUSH2 0x4752 JUMPI PUSH1 0x0 DUP1 REVERT JUMPDEST POP SWAP2 SWAP1 POP JUMP JUMPDEST PUSH1 0x0 DUP1 PUSH1 0x0 DUP1 PUSH1 0x0 DUP1 PUSH1 0x0 DUP1 PUSH2 0x100 DUP10 DUP12 SUB SLT ISZERO PUSH2 0x4775 JUMPI PUSH1 0x0 DUP1 REVERT JUMPDEST PUSH2 0x477E DUP10 PUSH2 0x457F JUMP JUMPDEST SWAP8 POP PUSH1 0x20 DUP10 ADD CALLDATALOAD PUSH2 0x478E DUP2 PUSH2 0x46CD JUMP JUMPDEST SWAP7 POP PUSH1 0x40 DUP10 ADD CALLDATALOAD SWAP6 POP PUSH1 0x60 DUP10 ADD CALLDATALOAD PUSH2 0x47A5 DUP2 PUSH2 0x46CD JUMP JUMPDEST SWAP5 POP PUSH1 0x80 DUP10 ADD CALLDATALOAD PUSH2 0x47B5 DUP2 PUSH2 0x46CD JUMP JUMPDEST SWAP4 POP PUSH2 0x47C4 DUP11 PUSH1 0xA0 DUP12 ADD PUSH2 0x4740 JUMP JUMPDEST SWAP3 POP PUSH1 0xE0 DUP10 ADD CALLDATALOAD PUSH1 0x1 PUSH1 0x1 PUSH1 0x40 SHL SUB DUP2 GT ISZERO PUSH2 0x47DF JUMPI PUSH1 0x0 DUP1 REVERT JUMPDEST PUSH2 0x47EB DUP12 DUP3 DUP13 ADD PUSH2 0x4596 JUMP JUMPDEST SWAP10 SWAP13 SWAP9 SWAP12 POP SWAP7 SWAP10 POP SWAP5 SWAP8 SWAP4 SWAP7 SWAP3 SWAP6 SWAP5 POP POP POP JUMP JUMPDEST PUSH1 0x0 DUP1 PUSH1 0x0 PUSH1 0x40 DUP5 DUP7 SUB SLT ISZERO PUSH2 0x4814 JUMPI PUSH1 0x0 DUP1 REVERT JUMPDEST PUSH2 0x481D DUP5 PUSH2 0x457F JUMP JUMPDEST SWAP3 POP PUSH1 0x20 DUP5 ADD CALLDATALOAD PUSH1 0x1 PUSH1 0x1 PUSH1 0x40 SHL SUB DUP2 GT ISZERO PUSH2 0x4838 JUMPI PUSH1 0x0 DUP1 REVERT JUMPDEST PUSH2 0x4844 DUP7 DUP3 DUP8 ADD PUSH2 0x4596 JUMP JUMPDEST SWAP5 SWAP8 SWAP1 SWAP7 POP SWAP4 SWAP5 POP POP POP POP JUMP JUMPDEST PUSH1 0x1 PUSH1 0x1 PUSH1 0xA0 SHL SUB SWAP2 SWAP1 SWAP2 AND DUP2 MSTORE PUSH1 0x20 ADD SWAP1 JUMP JUMPDEST PUSH4 0x4E487B71 PUSH1 0xE0 SHL PUSH1 0x0 MSTORE PUSH1 0x41 PUSH1 0x4 MSTORE PUSH1 0x24 PUSH1 0x0 REVERT JUMPDEST PUSH1 0x40 MLOAD PUSH1 0x1F DUP3 ADD PUSH1 0x1F NOT AND DUP2 ADD PUSH1 0x1 PUSH1 0x1 PUSH1 0x40 SHL SUB DUP2 GT DUP3 DUP3 LT OR ISZERO PUSH2 0x48A3 JUMPI PUSH2 0x48A3 PUSH2 0x4865 JUMP JUMPDEST PUSH1 0x40 MSTORE SWAP2 SWAP1 POP JUMP JUMPDEST PUSH1 0x0 PUSH1 0x1 PUSH1 0x1 PUSH1 0x40 SHL SUB DUP3 GT ISZERO PUSH2 0x48C4 JUMPI PUSH2 0x48C4 PUSH2 0x4865 JUMP JUMPDEST POP PUSH1 0x1F ADD PUSH1 0x1F NOT AND PUSH1 0x20 ADD SWAP1 JUMP JUMPDEST PUSH1 0x0 DUP3 PUSH1 0x1F DUP4 ADD SLT PUSH2 0x48E3 JUMPI PUSH1 0x0 DUP1 REVERT JUMPDEST DUP2 CALLDATALOAD PUSH2 0x48F6 PUSH2 0x48F1 DUP3 PUSH2 0x48AB JUMP JUMPDEST PUSH2 0x487B JUMP JUMPDEST DUP2 DUP2 MSTORE DUP5 PUSH1 0x20 DUP4 DUP7 ADD ADD GT ISZERO PUSH2 0x490B JUMPI PUSH1 0x0 DUP1 REVERT JUMPDEST DUP2 PUSH1 0x20 DUP6 ADD PUSH1 0x20 DUP4 ADD CALLDATACOPY PUSH1 0x0 SWAP2 DUP2 ADD PUSH1 0x20 ADD SWAP2 SWAP1 SWAP2 MSTORE SWAP4 SWAP3 POP POP POP JUMP JUMPDEST PUSH1 0x0 DUP1 PUSH1 0x40 DUP4 DUP6 SUB SLT ISZERO PUSH2 0x493B JUMPI PUSH1 0x0 DUP1 REVERT JUMPDEST DUP3 CALLDATALOAD PUSH2 0x4946 DUP2 PUSH2 0x46CD JUMP JUMPDEST SWAP2 POP PUSH1 0x20 DUP4 ADD CALLDATALOAD PUSH1 0x1 PUSH1 0x1 PUSH1 0x40 SHL SUB DUP2 GT ISZERO PUSH2 0x4961 JUMPI PUSH1 0x0 DUP1 REVERT JUMPDEST PUSH2 0x496D DUP6 DUP3 DUP7 ADD PUSH2 0x48D2 JUMP JUMPDEST SWAP2 POP POP SWAP3 POP SWAP3 SWAP1 POP JUMP JUMPDEST DUP1 ISZERO ISZERO DUP2 EQ PUSH2 0xFA8 JUMPI PUSH1 0x0 DUP1 REVERT JUMPDEST PUSH1 0x0 DUP1 PUSH1 0x40 DUP4 DUP6 SUB SLT ISZERO PUSH2 0x4998 JUMPI PUSH1 0x0 DUP1 REVERT JUMPDEST PUSH2 0x49A1 DUP4 PUSH2 0x457F JUMP JUMPDEST SWAP2 POP PUSH1 0x20 DUP4 ADD CALLDATALOAD PUSH2 0x49B1 DUP2 PUSH2 0x4977 JUMP JUMPDEST DUP1 SWAP2 POP POP SWAP3 POP SWAP3 SWAP1 POP JUMP JUMPDEST PUSH1 0x0 DUP1 PUSH1 0x0 PUSH1 0x60 DUP5 DUP7 SUB SLT ISZERO PUSH2 0x49D1 JUMPI PUSH1 0x0 DUP1 REVERT JUMPDEST PUSH2 0x49DA DUP5 PUSH2 0x457F JUMP JUMPDEST SWAP3 POP PUSH1 0x20 DUP5 ADD CALLDATALOAD PUSH1 0x1 PUSH1 0x1 PUSH1 0x40 SHL SUB DUP2 GT ISZERO PUSH2 0x49F5 JUMPI PUSH1 0x0 DUP1 REVERT JUMPDEST PUSH2 0x4A01 DUP7 DUP3 DUP8 ADD PUSH2 0x48D2 JUMP JUMPDEST SWAP3 POP POP PUSH2 0x4A10 PUSH1 0x40 DUP6 ADD PUSH2 0x45DE JUMP JUMPDEST SWAP1 POP SWAP3 POP SWAP3 POP SWAP3 JUMP JUMPDEST PUSH1 0x0 PUSH1 0x20 DUP3 DUP5 SUB SLT ISZERO PUSH2 0x4A2B JUMPI PUSH1 0x0 DUP1 REVERT JUMPDEST DUP2 CALLDATALOAD PUSH2 0x1A1D DUP2 PUSH2 0x4977 JUMP JUMPDEST PUSH1 0x0 DUP1 PUSH1 0x40 DUP4 DUP6 SUB SLT ISZERO PUSH2 0x4A49 JUMPI PUSH1 0x0 DUP1 REVERT JUMPDEST PUSH2 0x4A52 DUP4 PUSH2 0x457F JUMP JUMPDEST SWAP2 POP PUSH1 0x20 DUP4 ADD CALLDATALOAD PUSH2 0x49B1 DUP2 PUSH2 0x46CD JUMP JUMPDEST PUSH1 0x0 JUMPDEST DUP4 DUP2 LT ISZERO PUSH2 0x4A7D JUMPI DUP2 DUP2 ADD MLOAD DUP4 DUP3 ADD MSTORE PUSH1 0x20 ADD PUSH2 0x4A65 JUMP JUMPDEST POP POP PUSH1 0x0 SWAP2 ADD MSTORE JUMP JUMPDEST PUSH1 0x0 DUP2 MLOAD DUP1 DUP5 MSTORE PUSH2 0x4A9E DUP2 PUSH1 0x20 DUP7 ADD PUSH1 0x20 DUP7 ADD PUSH2 0x4A62 JUMP JUMPDEST PUSH1 0x1F ADD PUSH1 0x1F NOT AND SWAP3 SWAP1 SWAP3 ADD PUSH1 0x20 ADD SWAP3 SWAP2 POP POP JUMP JUMPDEST PUSH1 0x20 DUP2 MSTORE PUSH1 0x0 PUSH2 0x1A1D PUSH1 0x20 DUP4 ADD DUP5 PUSH2 0x4A86 JUMP JUMPDEST PUSH1 0x0 DUP1 PUSH1 0x0 DUP1 PUSH1 0x80 DUP6 DUP8 SUB SLT ISZERO PUSH2 0x4ADB JUMPI PUSH1 0x0 DUP1 REVERT JUMPDEST PUSH2 0x4AE4 DUP6 PUSH2 0x457F JUMP JUMPDEST SWAP4 POP PUSH2 0x4AF3 DUP7 PUSH1 0x20 DUP8 ADD PUSH2 0x4740 JUMP JUMPDEST SWAP3 POP PUSH1 0x60 DUP6 ADD CALLDATALOAD PUSH1 0x1 PUSH1 0x1 PUSH1 0x40 SHL SUB DUP2 GT ISZERO PUSH2 0x4B0E JUMPI PUSH1 0x0 DUP1 REVERT JUMPDEST PUSH2 0x4B1A DUP8 DUP3 DUP9 ADD PUSH2 0x4596 JUMP JUMPDEST SWAP6 SWAP9 SWAP5 SWAP8 POP SWAP6 POP POP POP POP JUMP JUMPDEST PUSH1 0x0 DUP1 PUSH1 0x40 DUP4 DUP6 SUB SLT ISZERO PUSH2 0x4B39 JUMPI PUSH1 0x0 DUP1 REVERT JUMPDEST PUSH2 0x4B42 DUP4 PUSH2 0x457F JUMP JUMPDEST SWAP2 POP PUSH2 0x4B50 PUSH1 0x20 DUP5 ADD PUSH2 0x457F JUMP JUMPDEST SWAP1 POP SWAP3 POP SWAP3 SWAP1 POP JUMP JUMPDEST PUSH1 0x0 DUP1 PUSH1 0x40 DUP4 DUP6 SUB SLT ISZERO PUSH2 0x4B6C JUMPI PUSH1 0x0 DUP1 REVERT JUMPDEST DUP3 CALLDATALOAD PUSH2 0x4A52 DUP2 PUSH2 0x46CD JUMP JUMPDEST PUSH1 0x0 DUP1 PUSH1 0x0 DUP1 PUSH1 0x0 DUP1 PUSH1 0xC0 DUP8 DUP10 SUB SLT ISZERO PUSH2 0x4B90 JUMPI PUSH1 0x0 DUP1 REVERT JUMPDEST PUSH2 0x4B99 DUP8 PUSH2 0x457F JUMP JUMPDEST SWAP6 POP PUSH1 0x20 DUP8 ADD CALLDATALOAD PUSH2 0x4BA9 DUP2 PUSH2 0x46CD JUMP JUMPDEST SWAP5 POP PUSH1 0x40 DUP8 ADD CALLDATALOAD SWAP4 POP PUSH2 0x4BBF DUP9 PUSH1 0x60 DUP10 ADD PUSH2 0x4740 JUMP JUMPDEST SWAP3 POP PUSH1 0xA0 DUP8 ADD CALLDATALOAD PUSH1 0x1 PUSH1 0x1 PUSH1 0x40 SHL SUB DUP2 GT ISZERO PUSH2 0x4BDA JUMPI PUSH1 0x0 DUP1 REVERT JUMPDEST PUSH2 0x4676 DUP10 DUP3 DUP11 ADD PUSH2 0x4596 JUMP JUMPDEST PUSH1 0x0 DUP1 PUSH1 0x40 DUP4 DUP6 SUB SLT ISZERO PUSH2 0x4BF9 JUMPI PUSH1 0x0 DUP1 REVERT JUMPDEST DUP3 CALLDATALOAD PUSH2 0x49A1 DUP2 PUSH2 0x46CD JUMP JUMPDEST PUSH1 0x0 DUP1 PUSH1 0x0 DUP1 PUSH1 0x0 PUSH1 0x80 DUP7 DUP9 SUB SLT ISZERO PUSH2 0x4C1C JUMPI PUSH1 0x0 DUP1 REVERT JUMPDEST PUSH2 0x4C25 DUP7 PUSH2 0x457F JUMP JUMPDEST SWAP5 POP PUSH2 0x4C33 PUSH1 0x20 DUP8 ADD PUSH2 0x457F JUMP JUMPDEST SWAP4 POP PUSH1 0x40 DUP7 ADD CALLDATALOAD SWAP3 POP PUSH1 0x60 DUP7 ADD CALLDATALOAD PUSH1 0x1 PUSH1 0x1 PUSH1 0x40 SHL SUB DUP2 GT ISZERO PUSH2 0x4C55 JUMPI PUSH1 0x0 DUP1 REVERT JUMPDEST PUSH2 0x4C61 DUP9 DUP3 DUP10 ADD PUSH2 0x4596 JUMP JUMPDEST SWAP7 SWAP10 SWAP6 SWAP9 POP SWAP4 SWAP7 POP SWAP3 SWAP5 SWAP4 SWAP3 POP POP POP JUMP JUMPDEST PUSH1 0x0 DUP1 PUSH1 0x0 PUSH1 0x60 DUP5 DUP7 SUB SLT ISZERO PUSH2 0x4C87 JUMPI PUSH1 0x0 DUP1 REVERT JUMPDEST PUSH2 0x4C90 DUP5 PUSH2 0x457F JUMP JUMPDEST SWAP3 POP PUSH2 0x4C9E PUSH1 0x20 DUP6 ADD PUSH2 0x457F JUMP JUMPDEST SWAP2 POP PUSH1 0x40 DUP5 ADD CALLDATALOAD SWAP1 POP SWAP3 POP SWAP3 POP SWAP3 JUMP JUMPDEST PUSH1 0x0 DUP1 PUSH1 0x0 DUP1 PUSH1 0x80 DUP6 DUP8 SUB SLT ISZERO PUSH2 0x4CC4 JUMPI PUSH1 0x0 DUP1 REVERT JUMPDEST PUSH2 0x4CCD DUP6 PUSH2 0x457F JUMP JUMPDEST SWAP4 POP PUSH2 0x4CDB PUSH1 0x20 DUP7 ADD PUSH2 0x457F JUMP JUMPDEST SWAP3 POP PUSH1 0x40 DUP6 ADD CALLDATALOAD PUSH2 0x4CEB DUP2 PUSH2 0x46CD JUMP JUMPDEST SWAP4 SWAP7 SWAP3 SWAP6 POP SWAP3 SWAP4 PUSH1 0x60 ADD CALLDATALOAD SWAP3 POP POP JUMP JUMPDEST PUSH1 0x1 DUP2 DUP2 SHR SWAP1 DUP3 AND DUP1 PUSH2 0x4D0F JUMPI PUSH1 0x7F DUP3 AND SWAP2 POP JUMPDEST PUSH1 0x20 DUP3 LT DUP2 SUB PUSH2 0x4752 JUMPI PUSH4 0x4E487B71 PUSH1 0xE0 SHL PUSH1 0x0 MSTORE PUSH1 0x22 PUSH1 0x4 MSTORE PUSH1 0x24 PUSH1 0x0 REVERT JUMPDEST DUP2 DUP4 DUP3 CALLDATACOPY PUSH1 0x0 SWAP2 ADD SWAP1 DUP2 MSTORE SWAP2 SWAP1 POP JUMP JUMPDEST PUSH1 0x20 DUP1 DUP3 MSTORE PUSH1 0x1B SWAP1 DUP3 ADD MSTORE PUSH27 0xA8DED6CADC84E4D2C8CECA7440CCCACA40DCDEE840CADCDEEACED PUSH1 0x2B SHL PUSH1 0x40 DUP3 ADD MSTORE PUSH1 0x60 ADD SWAP1 JUMP JUMPDEST PUSH1 0x1 PUSH1 0x1 PUSH1 0xA0 SHL SUB SWAP3 SWAP1 SWAP3 AND DUP3 MSTORE PUSH1 0x20 DUP3 ADD MSTORE PUSH1 0x40 ADD SWAP1 JUMP JUMPDEST PUSH1 0x20 DUP1 DUP3 MSTORE PUSH1 0x2C SWAP1 DUP3 ADD MSTORE PUSH1 0x0 DUP1 MLOAD PUSH1 0x20 PUSH2 0x5680 DUP4 CODECOPY DUP2 MLOAD SWAP2 MSTORE PUSH1 0x40 DUP3 ADD MSTORE PUSH12 0x19195B1959D85D1958D85B1B PUSH1 0xA2 SHL PUSH1 0x60 DUP3 ADD MSTORE PUSH1 0x80 ADD SWAP1 JUMP JUMPDEST PUSH1 0x20 DUP1 DUP3 MSTORE PUSH1 0x2C SWAP1 DUP3 ADD MSTORE PUSH1 0x0 DUP1 MLOAD PUSH1 0x20 PUSH2 0x5680 DUP4 CODECOPY DUP2 MLOAD SWAP2 MSTORE PUSH1 0x40 DUP3 ADD MSTORE PUSH12 0x6163746976652070726F7879 PUSH1 0xA0 SHL PUSH1 0x60 DUP3 ADD MSTORE PUSH1 0x80 ADD SWAP1 JUMP JUMPDEST PUSH1 0x20 DUP1 DUP3 MSTORE PUSH1 0x13 SWAP1 DUP3 ADD MSTORE PUSH19 0x151BDAD95B909C9A5919D94E881C185D5CD959 PUSH1 0x6A SHL PUSH1 0x40 DUP3 ADD MSTORE PUSH1 0x60 ADD SWAP1 JUMP JUMPDEST PUSH4 0x4E487B71 PUSH1 0xE0 SHL PUSH1 0x0 MSTORE PUSH1 0x11 PUSH1 0x4 MSTORE PUSH1 0x24 PUSH1 0x0 REVERT JUMPDEST DUP1 DUP3 ADD DUP1 DUP3 GT ISZERO PUSH2 0x1AAE JUMPI PUSH2 0x1AAE PUSH2 0x4E2E JUMP JUMPDEST DUP2 DUP4 MSTORE DUP2 DUP2 PUSH1 0x20 DUP6 ADD CALLDATACOPY POP PUSH1 0x0 DUP3 DUP3 ADD PUSH1 0x20 SWAP1 DUP2 ADD SWAP2 SWAP1 SWAP2 MSTORE PUSH1 0x1F SWAP1 SWAP2 ADD PUSH1 0x1F NOT AND SWAP1 SWAP2 ADD ADD SWAP1 JUMP JUMPDEST PUSH2 0xFFFF DUP5 AND DUP2 MSTORE PUSH1 0x40 PUSH1 0x20 DUP3 ADD MSTORE PUSH1 0x0 PUSH2 0x260C PUSH1 0x40 DUP4 ADD DUP5 DUP7 PUSH2 0x4E57 JUMP JUMPDEST PUSH1 0x1F DUP3 GT ISZERO PUSH2 0x1761 JUMPI PUSH1 0x0 DUP2 DUP2 MSTORE PUSH1 0x20 DUP2 KECCAK256 PUSH1 0x1F DUP6 ADD PUSH1 0x5 SHR DUP2 ADD PUSH1 0x20 DUP7 LT ISZERO PUSH2 0x4EC5 JUMPI POP DUP1 JUMPDEST PUSH1 0x1F DUP6 ADD PUSH1 0x5 SHR DUP3 ADD SWAP2 POP JUMPDEST DUP2 DUP2 LT ISZERO PUSH2 0x1627 JUMPI DUP3 DUP2 SSTORE PUSH1 0x1 ADD PUSH2 0x4ED1 JUMP JUMPDEST PUSH1 0x0 NOT PUSH1 0x3 DUP4 SWAP1 SHL SHR NOT AND PUSH1 0x1 SWAP2 SWAP1 SWAP2 SHL OR SWAP1 JUMP JUMPDEST DUP2 MLOAD PUSH1 0x1 PUSH1 0x1 PUSH1 0x40 SHL SUB DUP2 GT ISZERO PUSH2 0x4F12 JUMPI PUSH2 0x4F12 PUSH2 0x4865 JUMP JUMPDEST PUSH2 0x4F26 DUP2 PUSH2 0x4F20 DUP5 SLOAD PUSH2 0x4CFB JUMP JUMPDEST DUP5 PUSH2 0x4E9E JUMP JUMPDEST PUSH1 0x20 DUP1 PUSH1 0x1F DUP4 GT PUSH1 0x1 DUP2 EQ PUSH2 0x4F55 JUMPI PUSH1 0x0 DUP5 ISZERO PUSH2 0x4F43 JUMPI POP DUP6 DUP4 ADD MLOAD JUMPDEST PUSH2 0x4F4D DUP6 DUP3 PUSH2 0x4EE4 JUMP JUMPDEST DUP7 SSTORE POP PUSH2 0x1627 JUMP JUMPDEST PUSH1 0x0 DUP6 DUP2 MSTORE PUSH1 0x20 DUP2 KECCAK256 PUSH1 0x1F NOT DUP7 AND SWAP2 JUMPDEST DUP3 DUP2 LT ISZERO PUSH2 0x4F84 JUMPI DUP9 DUP7 ADD MLOAD DUP3 SSTORE SWAP5 DUP5 ADD SWAP5 PUSH1 0x1 SWAP1 SWAP2 ADD SWAP1 DUP5 ADD PUSH2 0x4F65 JUMP JUMPDEST POP DUP6 DUP3 LT ISZERO PUSH2 0x4FA2 JUMPI DUP8 DUP6 ADD MLOAD PUSH1 0x0 NOT PUSH1 0x3 DUP9 SWAP1 SHL PUSH1 0xF8 AND SHR NOT AND DUP2 SSTORE JUMPDEST POP POP POP POP POP PUSH1 0x1 SWAP1 DUP2 SHL ADD SWAP1 SSTORE POP JUMP JUMPDEST PUSH2 0xFFFF DUP8 AND DUP2 MSTORE PUSH1 0x1 PUSH1 0x1 PUSH1 0xA0 SHL SUB DUP7 AND PUSH1 0x20 DUP3 ADD MSTORE PUSH1 0xA0 PUSH1 0x40 DUP3 ADD DUP2 SWAP1 MSTORE PUSH1 0x0 SWAP1 PUSH2 0x4FE0 SWAP1 DUP4 ADD DUP8 PUSH2 0x4A86 JUMP JUMPDEST DUP6 ISZERO ISZERO PUSH1 0x60 DUP5 ADD MSTORE DUP3 DUP2 SUB PUSH1 0x80 DUP5 ADD MSTORE PUSH2 0x4FFB DUP2 DUP6 DUP8 PUSH2 0x4E57 JUMP JUMPDEST SWAP10 SWAP9 POP POP POP POP POP POP POP POP POP JUMP JUMPDEST PUSH1 0x0 DUP1 PUSH1 0x40 DUP4 DUP6 SUB SLT ISZERO PUSH2 0x501B JUMPI PUSH1 0x0 DUP1 REVERT JUMPDEST POP POP DUP1 MLOAD PUSH1 0x20 SWAP1 SWAP2 ADD MLOAD SWAP1 SWAP3 SWAP1 SWAP2 POP JUMP JUMPDEST DUP2 DUP2 SUB DUP2 DUP2 GT ISZERO PUSH2 0x1AAE JUMPI PUSH2 0x1AAE PUSH2 0x4E2E JUMP JUMPDEST PUSH1 0x0 PUSH1 0x20 DUP3 DUP5 SUB SLT ISZERO PUSH2 0x5051 JUMPI PUSH1 0x0 DUP1 REVERT JUMPDEST POP MLOAD SWAP2 SWAP1 POP JUMP JUMPDEST DUP3 DUP5 DUP3 CALLDATACOPY PUSH1 0x60 SWAP2 SWAP1 SWAP2 SHL PUSH1 0x1 PUSH1 0x1 PUSH1 0x60 SHL SUB NOT AND SWAP2 ADD SWAP1 DUP2 MSTORE PUSH1 0x14 ADD SWAP2 SWAP1 POP JUMP JUMPDEST DUP1 DUP3 MUL DUP2 ISZERO DUP3 DUP3 DIV DUP5 EQ OR PUSH2 0x1AAE JUMPI PUSH2 0x1AAE PUSH2 0x4E2E JUMP JUMPDEST DUP1 MLOAD PUSH1 0x1 PUSH1 0x1 PUSH1 0x50 SHL SUB DUP2 AND DUP2 EQ PUSH2 0x4591 JUMPI PUSH1 0x0 DUP1 REVERT JUMPDEST PUSH1 0x0 DUP1 PUSH1 0x0 DUP1 PUSH1 0x0 PUSH1 0xA0 DUP7 DUP9 SUB SLT ISZERO PUSH2 0x50BF JUMPI PUSH1 0x0 DUP1 REVERT JUMPDEST PUSH2 0x50C8 DUP7 PUSH2 0x5090 JUMP JUMPDEST SWAP5 POP PUSH1 0x20 DUP7 ADD MLOAD SWAP4 POP PUSH1 0x40 DUP7 ADD MLOAD SWAP3 POP PUSH1 0x60 DUP7 ADD MLOAD SWAP2 POP PUSH2 0x50EB PUSH1 0x80 DUP8 ADD PUSH2 0x5090 JUMP JUMPDEST SWAP1 POP SWAP3 SWAP6 POP SWAP3 SWAP6 SWAP1 SWAP4 POP JUMP JUMPDEST PUSH1 0x20 DUP1 DUP3 MSTORE PUSH1 0x2E SWAP1 DUP3 ADD MSTORE PUSH32 0x496E697469616C697A61626C653A20636F6E747261637420697320616C726561 PUSH1 0x40 DUP3 ADD MSTORE PUSH14 0x191E481A5B9A5D1A585B1A5E9959 PUSH1 0x92 SHL PUSH1 0x60 DUP3 ADD MSTORE PUSH1 0x80 ADD SWAP1 JUMP JUMPDEST PUSH1 0x0 PUSH2 0xFFFF DUP1 DUP9 AND DUP4 MSTORE DUP1 DUP8 AND PUSH1 0x20 DUP5 ADD MSTORE POP DUP5 PUSH1 0x40 DUP4 ADD MSTORE PUSH1 0x80 PUSH1 0x60 DUP4 ADD MSTORE PUSH2 0x4408 PUSH1 0x80 DUP4 ADD DUP5 DUP7 PUSH2 0x4E57 JUMP JUMPDEST PUSH2 0xFFFF DUP7 AND DUP2 MSTORE PUSH1 0x80 PUSH1 0x20 DUP3 ADD MSTORE PUSH1 0x0 PUSH2 0x5191 PUSH1 0x80 DUP4 ADD DUP7 DUP9 PUSH2 0x4E57 JUMP JUMPDEST PUSH1 0x1 PUSH1 0x1 PUSH1 0x40 SHL SUB SWAP5 SWAP1 SWAP5 AND PUSH1 0x40 DUP4 ADD MSTORE POP PUSH1 0x60 ADD MSTORE SWAP4 SWAP3 POP POP POP JUMP JUMPDEST PUSH1 0x1 PUSH1 0x1 PUSH1 0x40 SHL SUB DUP4 GT ISZERO PUSH2 0x51C5 JUMPI PUSH2 0x51C5 PUSH2 0x4865 JUMP JUMPDEST PUSH2 0x51D9 DUP4 PUSH2 0x51D3 DUP4 SLOAD PUSH2 0x4CFB JUMP JUMPDEST DUP4 PUSH2 0x4E9E JUMP JUMPDEST PUSH1 0x0 PUSH1 0x1F DUP5 GT PUSH1 0x1 DUP2 EQ PUSH2 0x5207 JUMPI PUSH1 0x0 DUP6 ISZERO PUSH2 0x51F5 JUMPI POP DUP4 DUP3 ADD CALLDATALOAD JUMPDEST PUSH2 0x51FF DUP7 DUP3 PUSH2 0x4EE4 JUMP JUMPDEST DUP5 SSTORE POP PUSH2 0xDEF JUMP JUMPDEST PUSH1 0x0 DUP4 DUP2 MSTORE PUSH1 0x20 SWAP1 KECCAK256 PUSH1 0x1F NOT DUP7 AND SWAP1 DUP4 JUMPDEST DUP3 DUP2 LT ISZERO PUSH2 0x5238 JUMPI DUP7 DUP6 ADD CALLDATALOAD DUP3 SSTORE PUSH1 0x20 SWAP5 DUP6 ADD SWAP5 PUSH1 0x1 SWAP1 SWAP3 ADD SWAP2 ADD PUSH2 0x5218 JUMP JUMPDEST POP DUP7 DUP3 LT ISZERO PUSH2 0x5255 JUMPI PUSH1 0x0 NOT PUSH1 0xF8 DUP9 PUSH1 0x3 SHL AND SHR NOT DUP5 DUP8 ADD CALLDATALOAD AND DUP2 SSTORE JUMPDEST POP POP PUSH1 0x1 DUP6 PUSH1 0x1 SHL ADD DUP4 SSTORE POP POP POP POP POP JUMP JUMPDEST PUSH1 0x0 PUSH1 0x20 DUP3 DUP5 SUB SLT ISZERO PUSH2 0x5279 JUMPI PUSH1 0x0 DUP1 REVERT JUMPDEST DUP2 MLOAD PUSH1 0x1 PUSH1 0x1 PUSH1 0x40 SHL SUB DUP2 GT ISZERO PUSH2 0x528F JUMPI PUSH1 0x0 DUP1 REVERT JUMPDEST DUP3 ADD PUSH1 0x1F DUP2 ADD DUP5 SGT PUSH2 0x52A0 JUMPI PUSH1 0x0 DUP1 REVERT JUMPDEST DUP1 MLOAD PUSH2 0x52AE PUSH2 0x48F1 DUP3 PUSH2 0x48AB JUMP JUMPDEST DUP2 DUP2 MSTORE DUP6 PUSH1 0x20 DUP4 DUP6 ADD ADD GT ISZERO PUSH2 0x52C3 JUMPI PUSH1 0x0 DUP1 REVERT JUMPDEST PUSH2 0x52D4 DUP3 PUSH1 0x20 DUP4 ADD PUSH1 0x20 DUP7 ADD PUSH2 0x4A62 JUMP JUMPDEST SWAP6 SWAP5 POP POP POP POP POP JUMP JUMPDEST PUSH2 0xFFFF DUP6 AND DUP2 MSTORE PUSH1 0x80 PUSH1 0x20 DUP3 ADD MSTORE PUSH1 0x0 PUSH2 0x52FA PUSH1 0x80 DUP4 ADD DUP7 PUSH2 0x4A86 JUMP JUMPDEST PUSH1 0x1 PUSH1 0x1 PUSH1 0x40 SHL SUB DUP6 AND PUSH1 0x40 DUP5 ADD MSTORE DUP3 DUP2 SUB PUSH1 0x60 DUP5 ADD MSTORE PUSH2 0x4408 DUP2 DUP6 PUSH2 0x4A86 JUMP JUMPDEST PUSH1 0x0 PUSH1 0x20 DUP3 DUP5 SUB SLT ISZERO PUSH2 0x532D JUMPI PUSH1 0x0 DUP1 REVERT JUMPDEST DUP2 MLOAD PUSH2 0x1A1D DUP2 PUSH2 0x46CD JUMP JUMPDEST DUP1 MLOAD PUSH1 0x1 PUSH1 0x1 PUSH1 0x70 SHL SUB DUP2 AND DUP2 EQ PUSH2 0x4591 JUMPI PUSH1 0x0 DUP1 REVERT JUMPDEST PUSH1 0x0 DUP1 PUSH1 0x0 PUSH1 0x60 DUP5 DUP7 SUB SLT ISZERO PUSH2 0x5364 JUMPI PUSH1 0x0 DUP1 REVERT JUMPDEST PUSH2 0x536D DUP5 PUSH2 0x5338 JUMP JUMPDEST SWAP3 POP PUSH2 0x537B PUSH1 0x20 DUP6 ADD PUSH2 0x5338 JUMP JUMPDEST SWAP2 POP PUSH1 0x40 DUP5 ADD MLOAD PUSH4 0xFFFFFFFF DUP2 AND DUP2 EQ PUSH2 0x5394 JUMPI PUSH1 0x0 DUP1 REVERT JUMPDEST DUP1 SWAP2 POP POP SWAP3 POP SWAP3 POP SWAP3 JUMP JUMPDEST PUSH1 0x0 DUP3 PUSH2 0x53BC JUMPI PUSH4 0x4E487B71 PUSH1 0xE0 SHL PUSH1 0x0 MSTORE PUSH1 0x12 PUSH1 0x4 MSTORE PUSH1 0x24 PUSH1 0x0 REVERT JUMPDEST POP DIV SWAP1 JUMP JUMPDEST PUSH4 0x4E487B71 PUSH1 0xE0 SHL PUSH1 0x0 MSTORE PUSH1 0x21 PUSH1 0x4 MSTORE PUSH1 0x24 PUSH1 0x0 REVERT JUMPDEST PUSH1 0x20 DUP1 DUP3 MSTORE PUSH1 0x2B SWAP1 DUP3 ADD MSTORE PUSH32 0x496E697469616C697A61626C653A20636F6E7472616374206973206E6F742069 PUSH1 0x40 DUP3 ADD MSTORE PUSH11 0x6E697469616C697A696E67 PUSH1 0xA8 SHL PUSH1 0x60 DUP3 ADD MSTORE PUSH1 0x80 ADD SWAP1 JUMP JUMPDEST PUSH1 0x0 DUP3 MLOAD PUSH2 0x5434 DUP2 DUP5 PUSH1 0x20 DUP8 ADD PUSH2 0x4A62 JUMP JUMPDEST SWAP2 SWAP1 SWAP2 ADD SWAP3 SWAP2 POP POP JUMP JUMPDEST PUSH2 0xFFFF DUP7 AND DUP2 MSTORE PUSH1 0xA0 PUSH1 0x20 DUP3 ADD MSTORE PUSH1 0x0 PUSH2 0x545B PUSH1 0xA0 DUP4 ADD DUP8 PUSH2 0x4A86 JUMP JUMPDEST PUSH1 0x1 PUSH1 0x1 PUSH1 0x40 SHL SUB DUP7 AND PUSH1 0x40 DUP5 ADD MSTORE DUP3 DUP2 SUB PUSH1 0x60 DUP5 ADD MSTORE PUSH2 0x547C DUP2 DUP7 PUSH2 0x4A86 JUMP JUMPDEST SWAP1 POP DUP3 DUP2 SUB PUSH1 0x80 DUP5 ADD MSTORE PUSH2 0x5490 DUP2 DUP6 PUSH2 0x4A86 JUMP JUMPDEST SWAP9 SWAP8 POP POP POP POP POP POP POP POP JUMP JUMPDEST PUSH1 0x0 PUSH1 0x20 DUP3 DUP5 SUB SLT ISZERO PUSH2 0x54AE JUMPI PUSH1 0x0 DUP1 REVERT JUMPDEST DUP2 MLOAD PUSH2 0x1A1D DUP2 PUSH2 0x4977 JUMP JUMPDEST PUSH2 0xFFFF DUP8 AND DUP2 MSTORE PUSH1 0xC0 PUSH1 0x20 DUP3 ADD MSTORE PUSH1 0x0 PUSH2 0x54D6 PUSH1 0xC0 DUP4 ADD DUP9 PUSH2 0x4A86 JUMP JUMPDEST DUP3 DUP2 SUB PUSH1 0x40 DUP5 ADD MSTORE PUSH2 0x54E8 DUP2 DUP9 PUSH2 0x4A86 JUMP JUMPDEST PUSH1 0x1 PUSH1 0x1 PUSH1 0xA0 SHL SUB DUP8 DUP2 AND PUSH1 0x60 DUP7 ADD MSTORE DUP7 AND PUSH1 0x80 DUP6 ADD MSTORE DUP4 DUP2 SUB PUSH1 0xA0 DUP6 ADD MSTORE SWAP1 POP PUSH2 0x4FFB DUP2 DUP6 PUSH2 0x4A86 JUMP JUMPDEST PUSH4 0x4E487B71 PUSH1 0xE0 SHL PUSH1 0x0 MSTORE PUSH1 0x32 PUSH1 0x4 MSTORE PUSH1 0x24 PUSH1 0x0 REVERT JUMPDEST PUSH1 0x1 DUP2 DUP2 JUMPDEST DUP1 DUP6 GT ISZERO PUSH2 0x5564 JUMPI DUP2 PUSH1 0x0 NOT DIV DUP3 GT ISZERO PUSH2 0x554A JUMPI PUSH2 0x554A PUSH2 0x4E2E JUMP JUMPDEST DUP1 DUP6 AND ISZERO PUSH2 0x5557 JUMPI SWAP2 DUP2 MUL SWAP2 JUMPDEST SWAP4 DUP5 SHR SWAP4 SWAP1 DUP1 MUL SWAP1 PUSH2 0x552E JUMP JUMPDEST POP SWAP3 POP SWAP3 SWAP1 POP JUMP JUMPDEST PUSH1 0x0 DUP3 PUSH2 0x557B JUMPI POP PUSH1 0x1 PUSH2 0x1AAE JUMP JUMPDEST DUP2 PUSH2 0x5588 JUMPI POP PUSH1 0x0 PUSH2 0x1AAE JUMP JUMPDEST DUP2 PUSH1 0x1 DUP2 EQ PUSH2 0x559E JUMPI PUSH1 0x2 DUP2 EQ PUSH2 0x55A8 JUMPI PUSH2 0x55C4 JUMP JUMPDEST PUSH1 0x1 SWAP2 POP POP PUSH2 0x1AAE JUMP JUMPDEST PUSH1 0xFF DUP5 GT ISZERO PUSH2 0x55B9 JUMPI PUSH2 0x55B9 PUSH2 0x4E2E JUMP JUMPDEST POP POP PUSH1 0x1 DUP3 SHL PUSH2 0x1AAE JUMP JUMPDEST POP PUSH1 0x20 DUP4 LT PUSH2 0x133 DUP4 LT AND PUSH1 0x4E DUP5 LT PUSH1 0xB DUP5 LT AND OR ISZERO PUSH2 0x55E7 JUMPI POP DUP2 DUP2 EXP PUSH2 0x1AAE JUMP JUMPDEST PUSH2 0x55F1 DUP4 DUP4 PUSH2 0x5529 JUMP JUMPDEST DUP1 PUSH1 0x0 NOT DIV DUP3 GT ISZERO PUSH2 0x5605 JUMPI PUSH2 0x5605 PUSH2 0x4E2E JUMP JUMPDEST MUL SWAP4 SWAP3 POP POP POP JUMP JUMPDEST PUSH1 0x0 PUSH2 0x1A1D PUSH1 0xFF DUP5 AND DUP4 PUSH2 0x556C JUMP JUMPDEST PUSH1 0x0 PUSH1 0x20 DUP3 DUP5 SUB SLT ISZERO PUSH2 0x562E JUMPI PUSH1 0x0 DUP1 REVERT JUMPDEST DUP2 MLOAD PUSH1 0xFF DUP2 AND DUP2 EQ PUSH2 0x1A1D JUMPI PUSH1 0x0 DUP1 REVERT INVALID REVERT NOT PUSH25 0x1F43410D9594FD4C02DD1D98DBE99099CBD222D5851A6E183C CHAINID DUP14 CALLER 0xCA CALLDATALOAD DUP4 DIV PUSH20 0x7E16805DDC68AB8F04E14751A94BB8FD0A3FECC7 DUP5 0xB6 SAR 0xC SMOD DUP10 DELEGATECALL PUSH1 0x46 PUSH22 0x6E6374696F6E206D7573742062652063616C6C656420 PUSH21 0x68726F75676820360894A13BA1A3210667C828492D 0xB9 DUP14 0xCA RETURNDATACOPY KECCAK256 PUSH23 0xCC3735A920A3CA505D382BBC7F26B83FF96E1F2B6A682F SGT CODESIZE MSTORE 0xF6 PUSH26 0x8A09C465DA95921460CEFB3847402498416464726573733A206C PUSH16 0x772D6C6576656C2064656C6567617465 KECCAK256 PUSH4 0x616C6C20 PUSH7 0x61696C6564A264 PUSH10 0x70667358221220519325 PUSH11 0xF1F34B4B6FB78D99ECD58 0x1E CREATE LOG1 SHR EQ 0xEA STOP MSTORE8 AND PUSH23 0x81C6D01822B54064736F6C634300081400330000000000 "},"gasEstimates":{"creation":{"codeDepositCost":"4466400","executionCost":"infinite","totalCost":"infinite"},"external":{"BP_DENOMINATOR()":"998","DEFAULT_PAYLOAD_SIZE_LIMIT()":"1152","SHARED_DECIMALS()":"908","accruedFeeLD(address)":"infinite","bridgeFeeBP()":"2394","dataFeed()":"3087","emergencyWithdrawEnabled()":"2657","emergencyWithdrawTime()":"3384","enableChain(uint16)":"3663","enableEmergencyWithdraw(bool)":"51378","failedMessages(uint16,bytes,uint64)":"infinite","forceResumeReceive(uint16,bytes)":"infinite","getChainID()":"488","getChainlinkDataFeedLatestAnswer()":"infinite","getConfig(uint16,uint16,address,uint256)":"infinite","getTrustedRemoteAddress(uint16)":"infinite","globalPaused()":"2745","initialize(address)":"infinite","isTrustedRemote(uint16,bytes)":"infinite","lzEndpoint()":"3197","lzReceive(uint16,bytes,uint64,bytes)":"infinite","minDstGasLookup(uint16,uint16)":"infinite","nonblockingLzReceive(uint16,bytes,uint64,bytes)":"infinite","owner()":"3008","pausedTokens(address)":"3779","payloadSizeLimitLookup(uint16)":"2694","precrime()":"3043","priceFeed(uint256)":"3359","proxiableUUID()":"infinite","quoteForSend(uint16,(address,address),bytes)":"infinite","renounceOwnership()":"infinite","retryMessage(uint16,bytes,uint64,bytes)":"infinite","sendETHToDest(uint16,address,uint256,(address,address),bytes)":"infinite","sendTokenToDest(uint16,address,uint256,address,address,(address,address),bytes)":"infinite","setBridgeFeeBP(uint256)":"25603","setConfig(uint16,uint16,uint256,bytes)":"infinite","setEnableChain(uint16,bool)":"27260","setGlobalPause(bool)":"28316","setMinDstGas(uint16,uint16,uint256)":"infinite","setPayloadSizeLimit(uint16,uint256)":"24745","setPrecrime(address)":"28802","setReceiveVersion(uint16)":"infinite","setSendVersion(uint16)":"infinite","setTokenPause(address,bool)":"infinite","setTrustedRemote(uint16,bytes)":"infinite","setTrustedRemoteAddress(uint16,bytes)":"infinite","setUseCustomAdapterParams(bool)":"29020","setWETH(address)":"28287","supportedTokens(address)":"2987","toLzChainId()":"2885","transferOwnership(address)":"infinite","trustAddress(uint16,address)":"infinite","trustedRemoteLookup(uint16)":"infinite","tvlSDs(address)":"3668","upgradeTo(address)":"infinite","upgradeToAndCall(address,bytes)":"infinite","useCustomAdapterParams()":"3559","weth()":"2581","withdrawEmergency(address,address)":"infinite","withdrawFee(address,address,uint256)":"infinite","withdrawTVL(address,address,uint256)":"infinite"},"internal":{"__Bridge_init_unchained()":"infinite","_authorizeUpgrade(address)":"infinite","_checkAdapterParams(bytes calldata)":"infinite","_decodeReceivePayload(bytes memory)":"infinite","_encodeSendPayload(uint256,address,address)":"infinite","_lockTokenFrom(address,address,uint256)":"infinite","_nonblockingLzReceive(uint16,bytes memory,uint64,bytes memory)":"infinite","_payFee(uint256)":"infinite","_redeemETHTo(address,address payable,uint256)":"infinite","_sendToken(uint16,uint256,address,address,struct LzLib.CallParams calldata,bytes calldata,uint256)":"infinite","_tokenDecimals(address)":"infinite","calaOutEthAmount(uint256)":"infinite","calcInTokenPrice(address,uint256)":"infinite","calcOutTokenAmount(uint256,address)":"infinite"}},"methodIdentifiers":{"BP_DENOMINATOR()":"abe685cd","DEFAULT_PAYLOAD_SIZE_LIMIT()":"c4461834","SHARED_DECIMALS()":"97167964","accruedFeeLD(address)":"a2f27ae0","bridgeFeeBP()":"25a9f792","dataFeed()":"9e42ff90","emergencyWithdrawEnabled()":"5747e69f","emergencyWithdrawTime()":"de9b9488","enableChain(uint16)":"df4bbc1c","enableEmergencyWithdraw(bool)":"d71e409e","failedMessages(uint16,bytes,uint64)":"5b8c41e6","forceResumeReceive(uint16,bytes)":"42d65a8d","getChainID()":"564b81ef","getChainlinkDataFeedLatestAnswer()":"bea4dfb5","getConfig(uint16,uint16,address,uint256)":"f5ecbdbc","getTrustedRemoteAddress(uint16)":"9f38369a","globalPaused()":"61a552dc","initialize(address)":"c4d66de8","isTrustedRemote(uint16,bytes)":"3d8b38f6","lzEndpoint()":"b353aaa7","lzReceive(uint16,bytes,uint64,bytes)":"001d3567","minDstGasLookup(uint16,uint16)":"8cfd8f5c","nonblockingLzReceive(uint16,bytes,uint64,bytes)":"66ad5c8a","owner()":"8da5cb5b","pausedTokens(address)":"ee7a4596","payloadSizeLimitLookup(uint16)":"3f1f4fa4","precrime()":"950c8a74","priceFeed(uint256)":"b5f97073","proxiableUUID()":"52d1902d","quoteForSend(uint16,(address,address),bytes)":"7d5f5bd4","renounceOwnership()":"715018a6","retryMessage(uint16,bytes,uint64,bytes)":"d1deba1f","sendETHToDest(uint16,address,uint256,(address,address),bytes)":"b790d7c1","sendTokenToDest(uint16,address,uint256,address,address,(address,address),bytes)":"3bd0536b","setBridgeFeeBP(uint256)":"000d5900","setConfig(uint16,uint16,uint256,bytes)":"cbed8b9c","setEnableChain(uint16,bool)":"59d91cd7","setGlobalPause(bool)":"69a6b3db","setMinDstGas(uint16,uint16,uint256)":"df2a5b3b","setPayloadSizeLimit(uint16,uint256)":"0df37483","setPrecrime(address)":"baf3292d","setReceiveVersion(uint16)":"10ddb137","setSendVersion(uint16)":"07e0db17","setTokenPause(address,bool)":"cb8d3b1f","setTrustedRemote(uint16,bytes)":"eb8d72b7","setTrustedRemoteAddress(uint16,bytes)":"a6c3d165","setUseCustomAdapterParams(bool)":"eab45d9c","setWETH(address)":"5b769f3c","supportedTokens(address)":"68c4ac26","toLzChainId()":"7a38d760","transferOwnership(address)":"f2fde38b","trustAddress(uint16,address)":"73afbcaa","trustedRemoteLookup(uint16)":"7533d788","tvlSDs(address)":"e3179c3e","upgradeTo(address)":"3659cfe6","upgradeToAndCall(address,bytes)":"4f1ef286","useCustomAdapterParams()":"ed629c5c","weth()":"3fc8cef3","withdrawEmergency(address,address)":"93f26a4c","withdrawFee(address,address,uint256)":"1095b6d7","withdrawTVL(address,address,uint256)":"b90fc4a5"}},"storageLayout":{"storage":[{"astId":774,"contract":"contracts/bridge/TokenBridge.sol:TokenBridge","label":"_initialized","offset":0,"slot":"0","type":"t_uint8"},{"astId":777,"contract":"contracts/bridge/TokenBridge.sol:TokenBridge","label":"_initializing","offset":1,"slot":"0","type":"t_bool"},{"astId":756,"contract":"contracts/bridge/TokenBridge.sol:TokenBridge","label":"__gap","offset":0,"slot":"1","type":"t_array(t_uint256)50_storage"},{"astId":1071,"contract":"contracts/bridge/TokenBridge.sol:TokenBridge","label":"__gap","offset":0,"slot":"51","type":"t_array(t_uint256)50_storage"},{"astId":1527,"contract":"contracts/bridge/TokenBridge.sol:TokenBridge","label":"__gap","offset":0,"slot":"101","type":"t_array(t_uint256)50_storage"},{"astId":281,"contract":"contracts/bridge/TokenBridge.sol:TokenBridge","label":"_owner","offset":0,"slot":"151","type":"t_address"},{"astId":401,"contract":"contracts/bridge/TokenBridge.sol:TokenBridge","label":"__gap","offset":0,"slot":"152","type":"t_array(t_uint256)49_storage"},{"astId":1086,"contract":"contracts/bridge/TokenBridge.sol:TokenBridge","label":"_status","offset":0,"slot":"201","type":"t_uint256"},{"astId":1155,"contract":"contracts/bridge/TokenBridge.sol:TokenBridge","label":"__gap","offset":0,"slot":"202","type":"t_array(t_uint256)49_storage"},{"astId":4600,"contract":"contracts/bridge/TokenBridge.sol:TokenBridge","label":"lzEndpoint","offset":0,"slot":"251","type":"t_contract(ILayerZeroEndpoint)5541"},{"astId":4604,"contract":"contracts/bridge/TokenBridge.sol:TokenBridge","label":"trustedRemoteLookup","offset":0,"slot":"252","type":"t_mapping(t_uint16,t_bytes_storage)"},{"astId":4610,"contract":"contracts/bridge/TokenBridge.sol:TokenBridge","label":"minDstGasLookup","offset":0,"slot":"253","type":"t_mapping(t_uint16,t_mapping(t_uint16,t_uint256))"},{"astId":4614,"contract":"contracts/bridge/TokenBridge.sol:TokenBridge","label":"payloadSizeLimitLookup","offset":0,"slot":"254","type":"t_mapping(t_uint16,t_uint256)"},{"astId":4616,"contract":"contracts/bridge/TokenBridge.sol:TokenBridge","label":"precrime","offset":0,"slot":"255","type":"t_address"},{"astId":5181,"contract":"contracts/bridge/TokenBridge.sol:TokenBridge","label":"failedMessages","offset":0,"slot":"256","type":"t_mapping(t_uint16,t_mapping(t_bytes_memory_ptr,t_mapping(t_uint64,t_bytes32)))"},{"astId":2494,"contract":"contracts/bridge/TokenBridge.sol:TokenBridge","label":"toLzChainId","offset":0,"slot":"257","type":"t_uint16"},{"astId":2496,"contract":"contracts/bridge/TokenBridge.sol:TokenBridge","label":"bridgeFeeBP","offset":0,"slot":"258","type":"t_uint256"},{"astId":2500,"contract":"contracts/bridge/TokenBridge.sol:TokenBridge","label":"tvlSDs","offset":0,"slot":"259","type":"t_mapping(t_address,t_uint256)"},{"astId":2504,"contract":"contracts/bridge/TokenBridge.sol:TokenBridge","label":"supportedTokens","offset":0,"slot":"260","type":"t_mapping(t_address,t_bool)"},{"astId":2508,"contract":"contracts/bridge/TokenBridge.sol:TokenBridge","label":"pausedTokens","offset":0,"slot":"261","type":"t_mapping(t_address,t_bool)"},{"astId":2512,"contract":"contracts/bridge/TokenBridge.sol:TokenBridge","label":"priceFeed","offset":0,"slot":"262","type":"t_mapping(t_uint256,t_address)"},{"astId":2516,"contract":"contracts/bridge/TokenBridge.sol:TokenBridge","label":"enableChain","offset":0,"slot":"263","type":"t_mapping(t_uint16,t_bool)"},{"astId":2518,"contract":"contracts/bridge/TokenBridge.sol:TokenBridge","label":"weth","offset":0,"slot":"264","type":"t_address"},{"astId":2520,"contract":"contracts/bridge/TokenBridge.sol:TokenBridge","label":"useCustomAdapterParams","offset":20,"slot":"264","type":"t_bool"},{"astId":2522,"contract":"contracts/bridge/TokenBridge.sol:TokenBridge","label":"globalPaused","offset":21,"slot":"264","type":"t_bool"},{"astId":2524,"contract":"contracts/bridge/TokenBridge.sol:TokenBridge","label":"emergencyWithdrawEnabled","offset":22,"slot":"264","type":"t_bool"},{"astId":2526,"contract":"contracts/bridge/TokenBridge.sol:TokenBridge","label":"emergencyWithdrawTime","offset":0,"slot":"265","type":"t_uint256"},{"astId":2529,"contract":"contracts/bridge/TokenBridge.sol:TokenBridge","label":"dataFeed","offset":0,"slot":"266","type":"t_contract(AggregatorV3Interface)45"}],"types":{"t_address":{"encoding":"inplace","label":"address","numberOfBytes":"20"},"t_array(t_uint256)49_storage":{"base":"t_uint256","encoding":"inplace","label":"uint256[49]","numberOfBytes":"1568"},"t_array(t_uint256)50_storage":{"base":"t_uint256","encoding":"inplace","label":"uint256[50]","numberOfBytes":"1600"},"t_bool":{"encoding":"inplace","label":"bool","numberOfBytes":"1"},"t_bytes32":{"encoding":"inplace","label":"bytes32","numberOfBytes":"32"},"t_bytes_memory_ptr":{"encoding":"bytes","label":"bytes","numberOfBytes":"32"},"t_bytes_storage":{"encoding":"bytes","label":"bytes","numberOfBytes":"32"},"t_contract(AggregatorV3Interface)45":{"encoding":"inplace","label":"contract AggregatorV3Interface","numberOfBytes":"20"},"t_contract(ILayerZeroEndpoint)5541":{"encoding":"inplace","label":"contract ILayerZeroEndpoint","numberOfBytes":"20"},"t_mapping(t_address,t_bool)":{"encoding":"mapping","key":"t_address","label":"mapping(address => bool)","numberOfBytes":"32","value":"t_bool"},"t_mapping(t_address,t_uint256)":{"encoding":"mapping","key":"t_address","label":"mapping(address => uint256)","numberOfBytes":"32","value":"t_uint256"},"t_mapping(t_bytes_memory_ptr,t_mapping(t_uint64,t_bytes32))":{"encoding":"mapping","key":"t_bytes_memory_ptr","label":"mapping(bytes => mapping(uint64 => bytes32))","numberOfBytes":"32","value":"t_mapping(t_uint64,t_bytes32)"},"t_mapping(t_uint16,t_bool)":{"encoding":"mapping","key":"t_uint16","label":"mapping(uint16 => bool)","numberOfBytes":"32","value":"t_bool"},"t_mapping(t_uint16,t_bytes_storage)":{"encoding":"mapping","key":"t_uint16","label":"mapping(uint16 => bytes)","numberOfBytes":"32","value":"t_bytes_storage"},"t_mapping(t_uint16,t_mapping(t_bytes_memory_ptr,t_mapping(t_uint64,t_bytes32)))":{"encoding":"mapping","key":"t_uint16","label":"mapping(uint16 => mapping(bytes => mapping(uint64 => bytes32)))","numberOfBytes":"32","value":"t_mapping(t_bytes_memory_ptr,t_mapping(t_uint64,t_bytes32))"},"t_mapping(t_uint16,t_mapping(t_uint16,t_uint256))":{"encoding":"mapping","key":"t_uint16","label":"mapping(uint16 => mapping(uint16 => uint256))","numberOfBytes":"32","value":"t_mapping(t_uint16,t_uint256)"},"t_mapping(t_uint16,t_uint256)":{"encoding":"mapping","key":"t_uint16","label":"mapping(uint16 => uint256)","numberOfBytes":"32","value":"t_uint256"},"t_mapping(t_uint256,t_address)":{"encoding":"mapping","key":"t_uint256","label":"mapping(uint256 => address)","numberOfBytes":"32","value":"t_address"},"t_mapping(t_uint64,t_bytes32)":{"encoding":"mapping","key":"t_uint64","label":"mapping(uint64 => bytes32)","numberOfBytes":"32","value":"t_bytes32"},"t_uint16":{"encoding":"inplace","label":"uint16","numberOfBytes":"2"},"t_uint256":{"encoding":"inplace","label":"uint256","numberOfBytes":"32"},"t_uint64":{"encoding":"inplace","label":"uint64","numberOfBytes":"8"},"t_uint8":{"encoding":"inplace","label":"uint8","numberOfBytes":"1"}}},"userdoc":{"kind":"user","methods":{"getChainlinkDataFeedLatestAnswer()":{"notice":"Returns the ETH/USD latest answer."}},"version":1}}}}