{"contracts/mocks/LZEndpointMock.sol":{"LZEndpointMock":{"abi":[{"inputs":[{"internalType":"uint16","name":"_chainId","type":"uint16"}],"stateMutability":"nonpayable","type":"constructor"},{"anonymous":false,"inputs":[{"indexed":false,"internalType":"bytes","name":"payload","type":"bytes"}],"name":"Packet","type":"event"},{"anonymous":false,"inputs":[{"indexed":false,"internalType":"uint16","name":"srcChainId","type":"uint16"},{"indexed":false,"internalType":"bytes","name":"srcAddress","type":"bytes"},{"indexed":false,"internalType":"uint64","name":"nonce","type":"uint64"},{"indexed":false,"internalType":"address","name":"dstAddress","type":"address"}],"name":"PayloadCleared","type":"event"},{"anonymous":false,"inputs":[{"indexed":false,"internalType":"uint16","name":"srcChainId","type":"uint16"},{"indexed":false,"internalType":"bytes","name":"srcAddress","type":"bytes"},{"indexed":false,"internalType":"address","name":"dstAddress","type":"address"},{"indexed":false,"internalType":"uint64","name":"nonce","type":"uint64"},{"indexed":false,"internalType":"bytes","name":"payload","type":"bytes"},{"indexed":false,"internalType":"bytes","name":"reason","type":"bytes"}],"name":"PayloadStored","type":"event"},{"anonymous":false,"inputs":[{"indexed":false,"internalType":"uint16","name":"chainId","type":"uint16"},{"indexed":false,"internalType":"bytes","name":"srcAddress","type":"bytes"}],"name":"UaForceResumeReceive","type":"event"},{"anonymous":false,"inputs":[{"indexed":true,"internalType":"address","name":"to","type":"address"},{"indexed":true,"internalType":"uint256","name":"quantity","type":"uint256"}],"name":"ValueTransferFailed","type":"event"},{"inputs":[],"name":"blockNextMsg","outputs":[],"stateMutability":"nonpayable","type":"function"},{"inputs":[],"name":"callReceive","outputs":[{"internalType":"bool","name":"","type":"bool"}],"stateMutability":"view","type":"function"},{"inputs":[],"name":"defaultAdapterParams","outputs":[{"internalType":"bytes","name":"","type":"bytes"}],"stateMutability":"view","type":"function"},{"inputs":[{"internalType":"uint16","name":"_dstChainId","type":"uint16"},{"internalType":"address","name":"_userApplication","type":"address"},{"internalType":"bytes","name":"_payload","type":"bytes"},{"internalType":"bool","name":"_payInZRO","type":"bool"},{"internalType":"bytes","name":"_adapterParams","type":"bytes"}],"name":"estimateFees","outputs":[{"internalType":"uint256","name":"nativeFee","type":"uint256"},{"internalType":"uint256","name":"zroFee","type":"uint256"}],"stateMutability":"view","type":"function"},{"inputs":[{"internalType":"uint16","name":"_srcChainId","type":"uint16"},{"internalType":"bytes","name":"_path","type":"bytes"}],"name":"forceResumeReceive","outputs":[],"stateMutability":"nonpayable","type":"function"},{"inputs":[],"name":"getChainId","outputs":[{"internalType":"uint16","name":"","type":"uint16"}],"stateMutability":"view","type":"function"},{"inputs":[{"internalType":"uint16","name":"","type":"uint16"},{"internalType":"uint16","name":"","type":"uint16"},{"internalType":"address","name":"","type":"address"},{"internalType":"uint256","name":"","type":"uint256"}],"name":"getConfig","outputs":[{"internalType":"bytes","name":"","type":"bytes"}],"stateMutability":"pure","type":"function"},{"inputs":[{"internalType":"uint16","name":"_chainID","type":"uint16"},{"internalType":"bytes","name":"_path","type":"bytes"}],"name":"getInboundNonce","outputs":[{"internalType":"uint64","name":"","type":"uint64"}],"stateMutability":"view","type":"function"},{"inputs":[{"internalType":"uint16","name":"_chainID","type":"uint16"},{"internalType":"address","name":"_srcAddress","type":"address"}],"name":"getOutboundNonce","outputs":[{"internalType":"uint64","name":"","type":"uint64"}],"stateMutability":"view","type":"function"},{"inputs":[{"internalType":"address","name":"","type":"address"}],"name":"getReceiveLibraryAddress","outputs":[{"internalType":"address","name":"","type":"address"}],"stateMutability":"view","type":"function"},{"inputs":[{"internalType":"address","name":"","type":"address"}],"name":"getReceiveVersion","outputs":[{"internalType":"uint16","name":"","type":"uint16"}],"stateMutability":"pure","type":"function"},{"inputs":[{"internalType":"address","name":"","type":"address"}],"name":"getSendLibraryAddress","outputs":[{"internalType":"address","name":"","type":"address"}],"stateMutability":"view","type":"function"},{"inputs":[{"internalType":"address","name":"","type":"address"}],"name":"getSendVersion","outputs":[{"internalType":"uint16","name":"","type":"uint16"}],"stateMutability":"pure","type":"function"},{"inputs":[{"internalType":"uint16","name":"_srcChainId","type":"uint16"},{"internalType":"bytes","name":"_path","type":"bytes"}],"name":"hasStoredPayload","outputs":[{"internalType":"bool","name":"","type":"bool"}],"stateMutability":"view","type":"function"},{"inputs":[{"internalType":"uint16","name":"","type":"uint16"},{"internalType":"bytes","name":"","type":"bytes"}],"name":"inboundNonce","outputs":[{"internalType":"uint64","name":"","type":"uint64"}],"stateMutability":"view","type":"function"},{"inputs":[],"name":"isReceivingPayload","outputs":[{"internalType":"bool","name":"","type":"bool"}],"stateMutability":"view","type":"function"},{"inputs":[],"name":"isSendingPayload","outputs":[{"internalType":"bool","name":"","type":"bool"}],"stateMutability":"view","type":"function"},{"inputs":[{"internalType":"address","name":"","type":"address"}],"name":"lzEndpointLookup","outputs":[{"internalType":"address","name":"","type":"address"}],"stateMutability":"view","type":"function"},{"inputs":[],"name":"mockChainId","outputs":[{"internalType":"uint16","name":"","type":"uint16"}],"stateMutability":"view","type":"function"},{"inputs":[{"internalType":"uint16","name":"","type":"uint16"},{"internalType":"bytes","name":"","type":"bytes"},{"internalType":"uint256","name":"","type":"uint256"}],"name":"msgsToDeliver","outputs":[{"internalType":"address","name":"dstAddress","type":"address"},{"internalType":"uint64","name":"nonce","type":"uint64"},{"internalType":"bytes","name":"payload","type":"bytes"}],"stateMutability":"view","type":"function"},{"inputs":[],"name":"nextMsgBlocked","outputs":[{"internalType":"bool","name":"","type":"bool"}],"stateMutability":"view","type":"function"},{"inputs":[],"name":"oracleFee","outputs":[{"internalType":"uint256","name":"","type":"uint256"}],"stateMutability":"view","type":"function"},{"inputs":[{"internalType":"uint16","name":"","type":"uint16"},{"internalType":"address","name":"","type":"address"}],"name":"outboundNonce","outputs":[{"internalType":"uint64","name":"","type":"uint64"}],"stateMutability":"view","type":"function"},{"inputs":[],"name":"protocolFeeConfig","outputs":[{"internalType":"uint256","name":"zroFee","type":"uint256"},{"internalType":"uint256","name":"nativeBP","type":"uint256"}],"stateMutability":"view","type":"function"},{"inputs":[{"internalType":"uint16","name":"_srcChainId","type":"uint16"},{"internalType":"bytes","name":"_path","type":"bytes"},{"internalType":"address","name":"_dstAddress","type":"address"},{"internalType":"uint64","name":"_nonce","type":"uint64"},{"internalType":"uint256","name":"_gasLimit","type":"uint256"},{"internalType":"bytes","name":"_payload","type":"bytes"}],"name":"receivePayload","outputs":[],"stateMutability":"nonpayable","type":"function"},{"inputs":[],"name":"relayerFeeConfig","outputs":[{"internalType":"uint128","name":"dstPriceRatio","type":"uint128"},{"internalType":"uint128","name":"dstGasPriceInWei","type":"uint128"},{"internalType":"uint128","name":"dstNativeAmtCap","type":"uint128"},{"internalType":"uint64","name":"baseGas","type":"uint64"},{"internalType":"uint64","name":"gasPerByte","type":"uint64"}],"stateMutability":"view","type":"function"},{"inputs":[{"internalType":"uint16","name":"_srcChainId","type":"uint16"},{"internalType":"bytes","name":"_path","type":"bytes"},{"internalType":"bytes","name":"_payload","type":"bytes"}],"name":"retryPayload","outputs":[],"stateMutability":"nonpayable","type":"function"},{"inputs":[{"internalType":"uint16","name":"_chainId","type":"uint16"},{"internalType":"bytes","name":"_path","type":"bytes"},{"internalType":"bytes","name":"_payload","type":"bytes"},{"internalType":"address payable","name":"_refundAddress","type":"address"},{"internalType":"address","name":"_zroPaymentAddress","type":"address"},{"internalType":"bytes","name":"_adapterParams","type":"bytes"}],"name":"send","outputs":[],"stateMutability":"payable","type":"function"},{"inputs":[{"internalType":"bool","name":"_callReceive","type":"bool"}],"name":"setCallReceive","outputs":[],"stateMutability":"nonpayable","type":"function"},{"inputs":[{"internalType":"uint16","name":"","type":"uint16"},{"internalType":"uint16","name":"","type":"uint16"},{"internalType":"uint256","name":"","type":"uint256"},{"internalType":"bytes","name":"","type":"bytes"}],"name":"setConfig","outputs":[],"stateMutability":"nonpayable","type":"function"},{"inputs":[{"internalType":"bytes","name":"_adapterParams","type":"bytes"}],"name":"setDefaultAdapterParams","outputs":[],"stateMutability":"nonpayable","type":"function"},{"inputs":[{"internalType":"address","name":"destAddr","type":"address"},{"internalType":"address","name":"lzEndpointAddr","type":"address"}],"name":"setDestLzEndpoint","outputs":[],"stateMutability":"nonpayable","type":"function"},{"inputs":[{"internalType":"uint256","name":"_oracleFee","type":"uint256"}],"name":"setOracleFee","outputs":[],"stateMutability":"nonpayable","type":"function"},{"inputs":[{"internalType":"uint256","name":"_zroFee","type":"uint256"},{"internalType":"uint256","name":"_nativeBP","type":"uint256"}],"name":"setProtocolFee","outputs":[],"stateMutability":"nonpayable","type":"function"},{"inputs":[{"internalType":"uint16","name":"","type":"uint16"}],"name":"setReceiveVersion","outputs":[],"stateMutability":"nonpayable","type":"function"},{"inputs":[{"internalType":"uint128","name":"_dstPriceRatio","type":"uint128"},{"internalType":"uint128","name":"_dstGasPriceInWei","type":"uint128"},{"internalType":"uint128","name":"_dstNativeAmtCap","type":"uint128"},{"internalType":"uint64","name":"_baseGas","type":"uint64"},{"internalType":"uint64","name":"_gasPerByte","type":"uint64"}],"name":"setRelayerPrice","outputs":[],"stateMutability":"nonpayable","type":"function"},{"inputs":[{"internalType":"uint16","name":"","type":"uint16"}],"name":"setSendVersion","outputs":[],"stateMutability":"nonpayable","type":"function"},{"inputs":[{"internalType":"uint16","name":"","type":"uint16"},{"internalType":"bytes","name":"","type":"bytes"}],"name":"storedPayload","outputs":[{"internalType":"uint64","name":"payloadLength","type":"uint64"},{"internalType":"address","name":"dstAddress","type":"address"},{"internalType":"bytes32","name":"payloadHash","type":"bytes32"}],"stateMutability":"view","type":"function"}],"devdoc":{"kind":"dev","methods":{},"version":1},"evm":{"bytecode":{"linkReferences":{},"object":"6080604052600c805461ffff19166101011790553480156200002057600080fd5b50604051620032413803806200324183398101604081905262000043916200013d565b6001805461ffff191661ffff83161781556040805160a0810182526402540be400808252602080830191909152678ac7230489e8000082840152606460608301526080909101929092527402540be400000000000000000000000002540be4006002557801000000000000006400000000000000008ac7230489e800006003558051808201909152670de0b6b3a76400008082526103e891909201819052600491909155600555662386f26fc1000060065562000126620186a060408051600160f01b602082015260228082019390935281518082039093018352604201905290565b6007906200013590826200020f565b5050620002db565b6000602082840312156200015057600080fd5b815161ffff811681146200016357600080fd5b9392505050565b634e487b7160e01b600052604160045260246000fd5b600181811c908216806200019557607f821691505b602082108103620001b657634e487b7160e01b600052602260045260246000fd5b50919050565b601f8211156200020a57600081815260208120601f850160051c81016020861015620001e55750805b601f850160051c820191505b818110156200020657828155600101620001f1565b5050505b505050565b81516001600160401b038111156200022b576200022b6200016a565b62000243816200023c845462000180565b84620001bc565b602080601f8311600181146200027b5760008415620002625750858301515b600019600386901b1c1916600185901b17855562000206565b600085815260208120601f198616915b82811015620002ac578886015182559484019460019091019084016200028b565b5085821015620002cb5787850151600019600388901b60f8161c191681555b5050505050600190811b01905550565b612f5680620002eb6000396000f3fe6080604052600436106101b55760003560e01c806307d3277f146101ba57806307e0db17146101ef578063096568f61461020f5780630eaf6ea61461024357806310ddb137146101ef57806312a9ee6b14610273578063240de277146102a2578063272bd384146102c85780632c365e25146102ea5780633408e470146103605780633e0dd83e1461037957806340a7bb101461039957806342d65a8d146103b95780636fbac4b5146103d957806371ba2fd6146103fa57806376a386dc146104325780637a145748146104cb578063907c5e7e146105035780639924d33b146105935780639c729da1146103fa578063aaff5f16146105e5578063b208649914610605578063b230457414610646578063b6d9ef601461067f578063c08f15a11461069f578063c2fa4813146106e8578063c580310014610708578063c81b383a1461071b578063ca066b3514610751578063cbed8b9c14610772578063d23104f114610793578063da1a7c9a1461020f578063db14f305146107b6578063e97a448a146107d1578063f5ecbdbc146107ed578063f9cd3ceb1461081f578063fbba623b14610843578063fdc07c7014610863575b600080fd5b3480156101c657600080fd5b506004546005546101d5919082565b604080519283526020830191909152015b60405180910390f35b3480156101fb57600080fd5b5061020d61020a36600461214e565b50565b005b34801561021b57600080fd5b5061023061022a36600461217e565b50600190565b60405161ffff90911681526020016101e6565b34801561024f57600080fd5b5061026361025e3660046121e3565b610883565b60405190151581526020016101e6565b34801561027f57600080fd5b5061029361028e3660046122d7565b6108c9565b6040516101e69392919061237d565b3480156102ae57600080fd5b5061020d6102bd3660046123b9565b600491909155600555565b3480156102d457600080fd5b506102dd6109c6565b6040516101e691906123db565b3480156102f657600080fd5b5061020d61030536600461241c565b6001600160801b03948516600160801b94861685021760025560038054939095166001600160c01b0319909316929092176001600160401b03918216909302929092176001600160c01b0316600160c01b9190921602179055565b34801561036c57600080fd5b5060015461ffff16610230565b34801561038557600080fd5b506001546102639062010000900460ff1681565b3480156103a557600080fd5b506101d56103b4366004612491565b610a54565b3480156103c557600080fd5b5061020d6103d43660046121e3565b610b53565b3480156103e557600080fd5b50600154610263906301000000900460ff1681565b34801561040657600080fd5b5061041a61041536600461217e565b503090565b6040516001600160a01b0390911681526020016101e6565b34801561043e57600080fd5b5061049e61044d366004612528565b600a6020908152600092835260409092208151808301840180519281529084019290930191909120915280546001909101546001600160401b03821691600160401b90046001600160a01b03169083565b604080516001600160401b0390941684526001600160a01b039092166020840152908201526060016101e6565b3480156104d757600080fd5b506104eb6104e6366004612575565b610c6e565b6040516001600160401b0390911681526020016101e6565b34801561050f57600080fd5b5060025460035461054f916001600160801b0380821692600160801b92839004821692918116916001600160401b03908204811691600160c01b90041685565b604080516001600160801b039687168152948616602086015292909416918301919091526001600160401b039081166060830152909116608082015260a0016101e6565b34801561059f57600080fd5b506104eb6105ae366004612528565b600860209081526000928352604090922081518083018401805192815290840192909301919091209152546001600160401b031681565b3480156105f157600080fd5b5061020d6106003660046125ac565b610ca6565b34801561061157600080fd5b506104eb610620366004612575565b60096020908152600092835260408084209091529082529020546001600160401b031681565b34801561065257600080fd5b5061020d61066136600461262c565b6001805491151563010000000263ff00000019909216919091179055565b34801561068b57600080fd5b5061020d61069a366004612647565b600655565b3480156106ab57600080fd5b5061020d6106ba366004612660565b6001600160a01b03918216600090815260208190526040902080546001600160a01b03191691909216179055565b3480156106f457600080fd5b5061020d61070336600461267e565b610e8c565b61020d61071636600461272d565b6115a0565b34801561072757600080fd5b5061041a61073636600461217e565b6000602081905290815260409020546001600160a01b031681565b34801561075d57600080fd5b50610263600c54610100900460ff1660021490565b34801561077e57600080fd5b5061020d61078d3660046127f4565b50505050565b34801561079f57600080fd5b5061020d6001805462ff0000191662010000179055565b3480156107c257600080fd5b506001546102309061ffff1681565b3480156107dd57600080fd5b50610263600c5460ff1660021490565b3480156107f957600080fd5b506102dd61080836600461285b565b604080516020810190915260008152949350505050565b34801561082b57600080fd5b5061083560065481565b6040519081526020016101e6565b34801561084f57600080fd5b5061020d61085e3660046128a8565b611ba8565b34801561086f57600080fd5b506104eb61087e3660046121e3565b611bb8565b61ffff83166000908152600a602052604080822090518291906108a990869086906128e4565b9081526040519081900360200190206001015415159150505b9392505050565b600b602090815260008481526040902083518085018301805192815290830192850192909220915280548290811061090057600080fd5b6000918252602090912060029091020180546001820180546001600160a01b0383169650600160a01b9092046001600160401b03169450919250610943906128f4565b80601f016020809104026020016040519081016040528092919081815260200182805461096f906128f4565b80156109bc5780601f10610991576101008083540402835291602001916109bc565b820191906000526020600020905b81548152906001019060200180831161099f57829003601f168201915b5050505050905083565b600780546109d3906128f4565b80601f01602080910402602001604051908101604052809291908181526020018280546109ff906128f4565b8015610a4c5780601f10610a2157610100808354040283529160200191610a4c565b820191906000526020600020905b815481529060010190602001808311610a2f57829003601f168201915b505050505081565b600080600080845111610af15760078054610a6e906128f4565b80601f0160208091040260200160405190810160405280929190818152602001828054610a9a906128f4565b8015610ae75780601f10610abc57610100808354040283529160200191610ae7565b820191906000526020600020905b815481529060010190602001808311610aca57829003601f168201915b5050505050610af3565b835b90506000610b068960018a8a5186611bfd565b90506000610b178783600654611d96565b905086610b275780945084610b2c565b809350835b50600654610b3a8387612944565b610b449190612944565b94505050509550959350505050565b61ffff83166000908152600a60205260408082209051610b7690859085906128e4565b9081526040519081900360200190206001810154909150610bb25760405162461bcd60e51b8152600401610ba990612957565b60405180910390fd5b8054600160401b90046001600160a01b03163314610c125760405162461bcd60e51b815260206004820152601d60248201527f4c617965725a65726f4d6f636b3a20696e76616c69642063616c6c65720000006044820152606401610ba9565b80546001600160e01b0319168155600060018201556040517f23d2684f396e92a6e2ff2d16f98e6fea00d50cb27a64b531bc0748f730211f9890610c5b908690869086906129b5565b60405180910390a161078d848484611dd3565b61ffff821660009081526009602090815260408083206001600160a01b03851684529091529020546001600160401b03165b92915050565b61ffff85166000908152600a60205260408082209051610cc990879087906128e4565b9081526040519081900360200190206001810154909150610cfc5760405162461bcd60e51b8152600401610ba990612957565b80546001600160401b031682148015610d2f575080600101548383604051610d259291906128e4565b6040518091039020145b610d7b5760405162461bcd60e51b815260206004820152601e60248201527f4c617965725a65726f4d6f636b3a20696e76616c6964207061796c6f616400006044820152606401610ba9565b80546001600160e01b03198116825560006001830181905561ffff88168152600860205260408082209051600160401b9093046001600160a01b031692610dc590899089906128e4565b90815260405190819003602001812054621d356760e01b82526001600160401b031691506001600160a01b03831690621d356790610e11908b908b908b9087908c908c906004016129d3565b600060405180830381600087803b158015610e2b57600080fd5b505af1158015610e3f573d6000803e3d6000fd5b505050507f612434f39581c8e7d99746c9c20c6eb0ce8c0eb99f007c5719d620841370957d8888888486604051610e7a959493929190612a20565b60405180910390a15050505050505050565b600c54610100900460ff16600114610ef25760405162461bcd60e51b8152602060048201526024808201527f4c617965725a65726f4d6f636b3a206e6f2072656365697665207265656e7472604482015263616e637960e01b6064820152608401610ba9565b600c805461ff00191661020017905561ffff88166000908152600a60205260408082209051610f24908a908a906128e4565b90815260200160405180910390209050600860008a61ffff1661ffff1681526020019081526020016000208888604051610f5f9291906128e4565b9081526040519081900360200190208054600090610f85906001600160401b0316612a69565b91906101000a8154816001600160401b0302191690836001600160401b0316021790556001600160401b0316856001600160401b0316146110055760405162461bcd60e51b815260206004820152601a6024820152794c617965725a65726f4d6f636b3a2077726f6e67206e6f6e636560301b6044820152606401610ba9565b6001810154156112d75761ffff89166000908152600b60205260408082209051611032908b908b906128e4565b9081526020016040518091039020905060006040518060600160405280896001600160a01b03168152602001886001600160401b0316815260200186868080601f016020809104026020016040519081016040528093929190818152602001838380828437600092019190915250505091525082549091501561126857815460018181018455600084815260209081902084516002909402018054918501516001600160401b0316600160a01b026001600160e01b03199092166001600160a01b039094169390931717825560408301518392918201906111139082612afb565b50505060005b825461112790600190612bb4565b8110156111ed5782818154811061114057611140612bc7565b90600052602060002090600202018382600161115c9190612944565b8154811061116c5761116c612bc7565b60009182526020909120825460029092020180546001600160a01b039092166001600160a01b031983168117825583546001600160e01b031990931617600160a01b928390046001600160401b03169092029190911781556001808201906111d690840182612bdd565b5090505080806111e590612cb1565b915050611119565b50808260008154811061120257611202612bc7565b600091825260209182902083516002909202018054928401516001600160401b0316600160a01b026001600160e01b03199093166001600160a01b03909216919091179190911781556040820151600182019061125f9082612afb565b509050506112d0565b815460018181018455600084815260209081902084516002909402018054918501516001600160401b0316600160a01b026001600160e01b03199092166001600160a01b039094169390931717825560408301518392918201906112cc9082612afb565b5050505b5050611586565b60015462010000900460ff16156113f3576040518060600160405280848490506001600160401b03168152602001876001600160a01b0316815260200184846040516113249291906128e4565b604080519182900390912090915261ffff8b166000908152600a6020528190209051611353908b908b906128e4565b90815260408051918290036020908101832084518154868401516001600160a01b0316600160401b026001600160e01b03199091166001600160401b0390921691909117178155938201516001909401939093559181018252600081529051600080516020612f01833981519152916113da918c918c918c918c918c918b918b9190612cca565b60405180910390a16001805462ff000019169055611586565b604051621d356760e01b81526001600160a01b03871690621d3567908690611429908d908d908d908c908b908b906004016129d3565b600060405180830381600088803b15801561144357600080fd5b5087f193505050508015611455575060015b611586573d808015611483576040519150601f19603f3d011682016040523d82523d6000602084013e611488565b606091505b506040518060600160405280858590506001600160401b03168152602001886001600160a01b0316815260200185856040516114c59291906128e4565b604080519182900390912090915261ffff8c166000908152600a60205281902090516114f4908c908c906128e4565b90815260408051918290036020908101832084518154928601516001600160a01b0316600160401b026001600160e01b03199093166001600160401b0390911617919091178155920151600190920191909155600080516020612f0183398151915290611570908c908c908c908c908c908b908b908a90612cca565b60405180910390a1506001805462ff0000191690555b5050600c805461ff00191661010017905550505050505050565b600c5460ff166001146115ff5760405162461bcd60e51b815260206004820152602160248201527f4c617965725a65726f4d6f636b3a206e6f2073656e64207265656e7472616e636044820152607960f81b6064820152608401610ba9565b600c805460ff1916600217905585516028146116725760405162461bcd60e51b815260206004820152602c60248201527f4c617965725a65726f4d6f636b3a20696e636f72726563742072656d6f74652060448201526b616464726573732073697a6560a01b6064820152608401610ba9565b8051879060009061170d576007805461168a906128f4565b80601f01602080910402602001604051908101604052809291908181526020018280546116b6906128f4565b80156117035780601f106116d857610100808354040283529160200191611703565b820191906000526020600020905b8154815290600101906020018083116116e657829003601f168201915b505050505061170f565b825b9050600061176083338a8a8080601f0160208091040260200160405190810160405280939291908181526020018383808284376000920191909152505050506001600160a01b038916151586610a54565b509050803410156117c55760405162461bcd60e51b815260206004820152602960248201527f4c617965725a65726f4d6f636b3a206e6f7420656e6f756768206e617469766560448201526820666f72206665657360b81b6064820152608401610ba9565b61ffff831660009081526009602090815260408083203384529091528120805482906117f9906001600160401b0316612a69565b91906101000a8154816001600160401b0302191690836001600160401b03160217905590506000823461182c9190612bb4565b905080156118d9576000886001600160a01b03168260405160006040518083038185875af1925050503d8060008114611881576040519150601f19603f3d011682016040523d82523d6000602084013e611886565b606091505b50509050806118d75760405162461bcd60e51b815260206004820152601f60248201527f4c617965725a65726f4d6f636b3a206661696c656420746f20726566756e64006044820152606401610ba9565b505b60008060006118e787611fca565b91955093509150508115611989576000816001600160a01b03168360405160006040518083038185875af1925050503d8060008114611942576040519150601f19603f3d011682016040523d82523d6000602084013e611947565b606091505b50509050806119875760405183906001600160a01b038416907f2c7a964ca3de5ec1d42d9822f9bbd0eb142a59cc9f855e9d93813b773192c7a390600090a35b505b600060148f0151905060008e8e8080601f016020809104026020016040519081016040528093929190818152602001838380828437600092018290525060015460405195965090946119f194508c935061ffff909116915033908f9088908890602001612d3c565b60405160208183030381529060405290507fe9bded5f24a4168e4f3bf44e00298c993b22376aad8c58c7dda9718a54cbea8281604051611a3191906123db565b60405180910390a16001546301000000900460ff1615611b87576001600160a01b038084166000908152602081905260409020541680611ad35760405162461bcd60e51b815260206004820152603760248201527f4c617965725a65726f4d6f636b3a2064657374696e6174696f6e204c6179657260448201527616995c9bc8115b991c1bda5b9d081b9bdd08199bdd5b99604a1b6064820152608401610ba9565b6040516001600160601b031933606090811b8216602084015286901b1660348201526000906048016040516020818303038152906040529050816001600160a01b031663c2fa4813600160009054906101000a900461ffff1683888e8d8a6040518763ffffffff1660e01b8152600401611b5296959493929190612db9565b600060405180830381600087803b158015611b6c57600080fd5b505af1158015611b80573d6000803e3d6000fd5b5050505050505b5050600c805460ff1916600117905550505050505050505050505050505050565b6007611bb48282612afb565b5050565b61ffff83166000908152600860205260408082209051611bdb90859085906128e4565b908152604051908190036020019020546001600160401b031690509392505050565b600080600080611c0c85611fca565b5092509250925060008361ffff16600203611c98576003546001600160801b0316821115611c8b5760405162461bcd60e51b815260206004820152602660248201527f4c617965725a65726f4d6f636b3a206473744e6174697665416d7420746f6f2060448201526503630b933b2960d51b6064820152608401610ba9565b611c958282612944565b90505b600354600090611cb9908590600160801b90046001600160401b0316612944565b600254611cd69190600160801b90046001600160801b0316612e0d565b9050611ce28183612944565b6002549092506000906402540be40090611d05906001600160801b031685612e0d565b611d0f9190612e3a565b6002546003549192506000916402540be400916001600160801b0380821692611d5292600160c01b9091046001600160401b031691600160801b90910416612e4e565b611d5c9190612e4e565b611d669190612e79565b6001600160801b03169050611d7b818b612e0d565b611d859083612944565b9d9c50505050505050505050505050565b60008315611da757506004546108c2565b60055461271090611db88486612944565b611dc29190612e0d565b611dcc9190612e3a565b90506108c2565b61ffff83166000908152600b60205260408082209051611df690859085906128e4565b908152602001604051809103902090505b80541561078d5780546000908290611e2190600190612bb4565b81548110611e3157611e31612bc7565b600091825260209182902060408051606081018252600290930290910180546001600160a01b03811684526001600160401b03600160a01b909104169383019390935260018301805492939291840191611e8a906128f4565b80601f0160208091040260200160405190810160405280929190818152602001828054611eb6906128f4565b8015611f035780601f10611ed857610100808354040283529160200191611f03565b820191906000526020600020905b815481529060010190602001808311611ee657829003601f168201915b505050505081525050905080600001516001600160a01b0316621d3567868686856020015186604001516040518663ffffffff1660e01b8152600401611f4d959493929190612e9f565b600060405180830381600087803b158015611f6757600080fd5b505af1158015611f7b573d6000803e3d6000fd5b5050505081805480611f8f57611f8f612eea565b60008281526020812060026000199093019283020180546001600160e01b031916815590611fc060018301826120e9565b5050905550611e07565b600080600080845160221480611fe1575060428551115b6120255760405162461bcd60e51b8152602060048201526015602482015274496e76616c69642061646170746572506172616d7360581b6044820152606401610ba9565b60028501519350602285015192508361ffff166001148061204a57508361ffff166002145b61208b5760405162461bcd60e51b8152602060048201526012602482015271556e737570706f727465642074785479706560701b6044820152606401610ba9565b600083116120c95760405162461bcd60e51b815260206004820152600b60248201526a47617320746f6f206c6f7760a81b6044820152606401610ba9565b8361ffff166002036120e2575050604283015160568401515b9193509193565b5080546120f5906128f4565b6000825580601f10612105575050565b601f01602090049060005260206000209081019061020a91905b80821115612133576000815560010161211f565b5090565b803561ffff8116811461214957600080fd5b919050565b60006020828403121561216057600080fd5b6108c282612137565b6001600160a01b038116811461020a57600080fd5b60006020828403121561219057600080fd5b81356108c281612169565b60008083601f8401126121ad57600080fd5b5081356001600160401b038111156121c457600080fd5b6020830191508360208285010111156121dc57600080fd5b9250929050565b6000806000604084860312156121f857600080fd5b61220184612137565b925060208401356001600160401b0381111561221c57600080fd5b6122288682870161219b565b9497909650939450505050565b634e487b7160e01b600052604160045260246000fd5b600082601f83011261225c57600080fd5b81356001600160401b038082111561227657612276612235565b604051601f8301601f19908116603f0116810190828211818310171561229e5761229e612235565b816040528381528660208588010111156122b757600080fd5b836020870160208301376000602085830101528094505050505092915050565b6000806000606084860312156122ec57600080fd5b6122f584612137565b925060208401356001600160401b0381111561231057600080fd5b61231c8682870161224b565b925050604084013590509250925092565b60005b83811015612348578181015183820152602001612330565b50506000910152565b6000815180845261236981602086016020860161232d565b601f01601f19169290920160200192915050565b6001600160a01b03841681526001600160401b03831660208201526060604082018190526000906123b090830184612351565b95945050505050565b600080604083850312156123cc57600080fd5b50508035926020909101359150565b6020815260006108c26020830184612351565b80356001600160801b038116811461214957600080fd5b80356001600160401b038116811461214957600080fd5b600080600080600060a0868803121561243457600080fd5b61243d866123ee565b945061244b602087016123ee565b9350612459604087016123ee565b925061246760608701612405565b915061247560808701612405565b90509295509295909350565b8035801515811461214957600080fd5b600080600080600060a086880312156124a957600080fd5b6124b286612137565b945060208601356124c281612169565b935060408601356001600160401b03808211156124de57600080fd5b6124ea89838a0161224b565b94506124f860608901612481565b9350608088013591508082111561250e57600080fd5b5061251b8882890161224b565b9150509295509295909350565b6000806040838503121561253b57600080fd5b61254483612137565b915060208301356001600160401b0381111561255f57600080fd5b61256b8582860161224b565b9150509250929050565b6000806040838503121561258857600080fd5b61259183612137565b915060208301356125a181612169565b809150509250929050565b6000806000806000606086880312156125c457600080fd5b6125cd86612137565b945060208601356001600160401b03808211156125e957600080fd5b6125f589838a0161219b565b9096509450604088013591508082111561260e57600080fd5b5061261b8882890161219b565b969995985093965092949392505050565b60006020828403121561263e57600080fd5b6108c282612481565b60006020828403121561265957600080fd5b5035919050565b6000806040838503121561267357600080fd5b823561259181612169565b60008060008060008060008060c0898b03121561269a57600080fd5b6126a389612137565b975060208901356001600160401b03808211156126bf57600080fd5b6126cb8c838d0161219b565b909950975060408b013591506126e082612169565b8196506126ef60608c01612405565b955060808b0135945060a08b013591508082111561270c57600080fd5b506127198b828c0161219b565b999c989b5096995094979396929594505050565b600080600080600080600060c0888a03121561274857600080fd5b61275188612137565b965060208801356001600160401b038082111561276d57600080fd5b6127798b838c0161224b565b975060408a013591508082111561278f57600080fd5b61279b8b838c0161219b565b909750955060608a013591506127b082612169565b9093506080890135906127c282612169565b90925060a089013590808211156127d857600080fd5b506127e58a828b0161224b565b91505092959891949750929550565b6000806000806080858703121561280a57600080fd5b61281385612137565b935061282160208601612137565b92506040850135915060608501356001600160401b0381111561284357600080fd5b61284f8782880161224b565b91505092959194509250565b6000806000806080858703121561287157600080fd5b61287a85612137565b935061288860208601612137565b9250604085013561289881612169565b9396929550929360600135925050565b6000602082840312156128ba57600080fd5b81356001600160401b038111156128d057600080fd5b6128dc8482850161224b565b949350505050565b8183823760009101908152919050565b600181811c9082168061290857607f821691505b60208210810361292857634e487b7160e01b600052602260045260246000fd5b50919050565b634e487b7160e01b600052601160045260246000fd5b80820180821115610ca057610ca061292e565b6020808252818101527f4c617965725a65726f4d6f636b3a206e6f2073746f726564207061796c6f6164604082015260600190565b81835281816020850137506000828201602090810191909152601f909101601f19169091010190565b61ffff841681526040602082015260006123b060408301848661298c565b61ffff871681526080602082015260006129f160808301878961298c565b6001600160401b03861660408401528281036060840152612a1381858761298c565b9998505050505050505050565b61ffff86168152608060208201526000612a3e60808301868861298c565b6001600160401b03949094166040830152506001600160a01b03919091166060909101529392505050565b60006001600160401b038281166002600160401b03198101612a8d57612a8d61292e565b6001019392505050565b601f821115612ae157600081815260208120601f850160051c81016020861015612abe5750805b601f850160051c820191505b81811015612add57828155600101612aca565b5050505b505050565b600019600383901b1c191660019190911b1790565b81516001600160401b03811115612b1457612b14612235565b612b2881612b2284546128f4565b84612a97565b602080601f831160018114612b575760008415612b455750858301515b612b4f8582612ae6565b865550612add565b600085815260208120601f198616915b82811015612b8657888601518255948401946001909101908401612b67565b5085821015612ba45787850151600019600388901b60f8161c191681555b5050505050600190811b01905550565b81810381811115610ca057610ca061292e565b634e487b7160e01b600052603260045260246000fd5b818103612be8575050565b612bf282546128f4565b6001600160401b03811115612c0957612c09612235565b612c1781612b2284546128f4565b6000601f821160018114612c455760008315612c335750848201545b612c3d8482612ae6565b855550612caa565b600085815260209020601f19841690600086815260209020845b83811015612c7f5782860154825560019586019590910190602001612c5f565b5085831015612c9d5781850154600019600388901b60f8161c191681555b50505060018360011b0184555b5050505050565b600060018201612cc357612cc361292e565b5060010190565b61ffff8916815260c060208201526000612ce860c08301898b61298c565b6001600160a01b03881660408401526001600160401b03871660608401528281036080840152612d1981868861298c565b905082810360a0840152612d2d8185612351565b9b9a5050505050505050505050565b6001600160c01b031960c088901b1681526001600160f01b031960f087811b821660088401526001600160601b0319606088811b8216600a8601529187901b909216601e84015284901b166020808301919091528251600091612da79082906034860190870161232d565b91909101603401979650505050505050565b61ffff8716815260c060208201526000612dd660c0830188612351565b6001600160a01b03871660408401526001600160401b03861660608401526080830185905282810360a0840152612a138185612351565b8082028115828204841417610ca057610ca061292e565b634e487b7160e01b600052601260045260246000fd5b600082612e4957612e49612e24565b500490565b6001600160801b03818116838216028082169190828114612e7157612e7161292e565b505092915050565b60006001600160801b0383811680612e9357612e93612e24565b92169190910492915050565b61ffff86168152608060208201526000612ebd60808301868861298c565b6001600160401b03851660408401528281036060840152612ede8185612351565b98975050505050505050565b634e487b7160e01b600052603160045260246000fdfe0f9e4d95b62f08222d612b5ab92039cd8fbbbea550a95e8df9f927436bbdf5dba2646970667358221220c8a88acba54a3749f532d3356f11a315cbd2d78d4a319f52ad93175d041840a964736f6c63430008140033","opcodes":"PUSH1 0x80 PUSH1 0x40 MSTORE PUSH1 0xC DUP1 SLOAD PUSH2 0xFFFF NOT AND PUSH2 0x101 OR SWAP1 SSTORE CALLVALUE DUP1 ISZERO PUSH3 0x20 JUMPI PUSH1 0x0 DUP1 REVERT JUMPDEST POP PUSH1 0x40 MLOAD PUSH3 0x3241 CODESIZE SUB DUP1 PUSH3 0x3241 DUP4 CODECOPY DUP2 ADD PUSH1 0x40 DUP2 SWAP1 MSTORE PUSH3 0x43 SWAP2 PUSH3 0x13D JUMP JUMPDEST PUSH1 0x1 DUP1 SLOAD PUSH2 0xFFFF NOT AND PUSH2 0xFFFF DUP4 AND OR DUP2 SSTORE PUSH1 0x40 DUP1 MLOAD PUSH1 0xA0 DUP2 ADD DUP3 MSTORE PUSH5 0x2540BE400 DUP1 DUP3 MSTORE PUSH1 0x20 DUP1 DUP4 ADD SWAP2 SWAP1 SWAP2 MSTORE PUSH8 0x8AC7230489E80000 DUP3 DUP5 ADD MSTORE PUSH1 0x64 PUSH1 0x60 DUP4 ADD MSTORE PUSH1 0x80 SWAP1 SWAP2 ADD SWAP3 SWAP1 SWAP3 MSTORE PUSH21 0x2540BE400000000000000000000000002540BE400 PUSH1 0x2 SSTORE PUSH25 0x1000000000000006400000000000000008AC7230489E80000 PUSH1 0x3 SSTORE DUP1 MLOAD DUP1 DUP3 ADD SWAP1 SWAP2 MSTORE PUSH8 0xDE0B6B3A7640000 DUP1 DUP3 MSTORE PUSH2 0x3E8 SWAP2 SWAP1 SWAP3 ADD DUP2 SWAP1 MSTORE PUSH1 0x4 SWAP2 SWAP1 SWAP2 SSTORE PUSH1 0x5 SSTORE PUSH7 0x2386F26FC10000 PUSH1 0x6 SSTORE PUSH3 0x126 PUSH3 0x186A0 PUSH1 0x40 DUP1 MLOAD PUSH1 0x1 PUSH1 0xF0 SHL PUSH1 0x20 DUP3 ADD MSTORE PUSH1 0x22 DUP1 DUP3 ADD SWAP4 SWAP1 SWAP4 MSTORE DUP2 MLOAD DUP1 DUP3 SUB SWAP1 SWAP4 ADD DUP4 MSTORE PUSH1 0x42 ADD SWAP1 MSTORE SWAP1 JUMP JUMPDEST PUSH1 0x7 SWAP1 PUSH3 0x135 SWAP1 DUP3 PUSH3 0x20F JUMP JUMPDEST POP POP PUSH3 0x2DB JUMP JUMPDEST PUSH1 0x0 PUSH1 0x20 DUP3 DUP5 SUB SLT ISZERO PUSH3 0x150 JUMPI PUSH1 0x0 DUP1 REVERT JUMPDEST DUP2 MLOAD PUSH2 0xFFFF DUP2 AND DUP2 EQ PUSH3 0x163 JUMPI PUSH1 0x0 DUP1 REVERT JUMPDEST SWAP4 SWAP3 POP POP POP JUMP JUMPDEST PUSH4 0x4E487B71 PUSH1 0xE0 SHL PUSH1 0x0 MSTORE PUSH1 0x41 PUSH1 0x4 MSTORE PUSH1 0x24 PUSH1 0x0 REVERT JUMPDEST PUSH1 0x1 DUP2 DUP2 SHR SWAP1 DUP3 AND DUP1 PUSH3 0x195 JUMPI PUSH1 0x7F DUP3 AND SWAP2 POP JUMPDEST PUSH1 0x20 DUP3 LT DUP2 SUB PUSH3 0x1B6 JUMPI PUSH4 0x4E487B71 PUSH1 0xE0 SHL PUSH1 0x0 MSTORE PUSH1 0x22 PUSH1 0x4 MSTORE PUSH1 0x24 PUSH1 0x0 REVERT JUMPDEST POP SWAP2 SWAP1 POP JUMP JUMPDEST PUSH1 0x1F DUP3 GT ISZERO PUSH3 0x20A JUMPI PUSH1 0x0 DUP2 DUP2 MSTORE PUSH1 0x20 DUP2 KECCAK256 PUSH1 0x1F DUP6 ADD PUSH1 0x5 SHR DUP2 ADD PUSH1 0x20 DUP7 LT ISZERO PUSH3 0x1E5 JUMPI POP DUP1 JUMPDEST PUSH1 0x1F DUP6 ADD PUSH1 0x5 SHR DUP3 ADD SWAP2 POP JUMPDEST DUP2 DUP2 LT ISZERO PUSH3 0x206 JUMPI DUP3 DUP2 SSTORE PUSH1 0x1 ADD PUSH3 0x1F1 JUMP JUMPDEST POP POP POP JUMPDEST POP POP POP JUMP JUMPDEST DUP2 MLOAD PUSH1 0x1 PUSH1 0x1 PUSH1 0x40 SHL SUB DUP2 GT ISZERO PUSH3 0x22B JUMPI PUSH3 0x22B PUSH3 0x16A JUMP JUMPDEST PUSH3 0x243 DUP2 PUSH3 0x23C DUP5 SLOAD PUSH3 0x180 JUMP JUMPDEST DUP5 PUSH3 0x1BC JUMP JUMPDEST PUSH1 0x20 DUP1 PUSH1 0x1F DUP4 GT PUSH1 0x1 DUP2 EQ PUSH3 0x27B JUMPI PUSH1 0x0 DUP5 ISZERO PUSH3 0x262 JUMPI POP DUP6 DUP4 ADD MLOAD JUMPDEST PUSH1 0x0 NOT PUSH1 0x3 DUP7 SWAP1 SHL SHR NOT AND PUSH1 0x1 DUP6 SWAP1 SHL OR DUP6 SSTORE PUSH3 0x206 JUMP JUMPDEST PUSH1 0x0 DUP6 DUP2 MSTORE PUSH1 0x20 DUP2 KECCAK256 PUSH1 0x1F NOT DUP7 AND SWAP2 JUMPDEST DUP3 DUP2 LT ISZERO PUSH3 0x2AC JUMPI DUP9 DUP7 ADD MLOAD DUP3 SSTORE SWAP5 DUP5 ADD SWAP5 PUSH1 0x1 SWAP1 SWAP2 ADD SWAP1 DUP5 ADD PUSH3 0x28B JUMP JUMPDEST POP DUP6 DUP3 LT ISZERO PUSH3 0x2CB JUMPI DUP8 DUP6 ADD MLOAD PUSH1 0x0 NOT PUSH1 0x3 DUP9 SWAP1 SHL PUSH1 0xF8 AND SHR NOT AND DUP2 SSTORE JUMPDEST POP POP POP POP POP PUSH1 0x1 SWAP1 DUP2 SHL ADD SWAP1 SSTORE POP JUMP JUMPDEST PUSH2 0x2F56 DUP1 PUSH3 0x2EB PUSH1 0x0 CODECOPY PUSH1 0x0 RETURN INVALID PUSH1 0x80 PUSH1 0x40 MSTORE PUSH1 0x4 CALLDATASIZE LT PUSH2 0x1B5 JUMPI PUSH1 0x0 CALLDATALOAD PUSH1 0xE0 SHR DUP1 PUSH4 0x7D3277F EQ PUSH2 0x1BA JUMPI DUP1 PUSH4 0x7E0DB17 EQ PUSH2 0x1EF JUMPI DUP1 PUSH4 0x96568F6 EQ PUSH2 0x20F JUMPI DUP1 PUSH4 0xEAF6EA6 EQ PUSH2 0x243 JUMPI DUP1 PUSH4 0x10DDB137 EQ PUSH2 0x1EF JUMPI DUP1 PUSH4 0x12A9EE6B EQ PUSH2 0x273 JUMPI DUP1 PUSH4 0x240DE277 EQ PUSH2 0x2A2 JUMPI DUP1 PUSH4 0x272BD384 EQ PUSH2 0x2C8 JUMPI DUP1 PUSH4 0x2C365E25 EQ PUSH2 0x2EA JUMPI DUP1 PUSH4 0x3408E470 EQ PUSH2 0x360 JUMPI DUP1 PUSH4 0x3E0DD83E EQ PUSH2 0x379 JUMPI DUP1 PUSH4 0x40A7BB10 EQ PUSH2 0x399 JUMPI DUP1 PUSH4 0x42D65A8D EQ PUSH2 0x3B9 JUMPI DUP1 PUSH4 0x6FBAC4B5 EQ PUSH2 0x3D9 JUMPI DUP1 PUSH4 0x71BA2FD6 EQ PUSH2 0x3FA JUMPI DUP1 PUSH4 0x76A386DC EQ PUSH2 0x432 JUMPI DUP1 PUSH4 0x7A145748 EQ PUSH2 0x4CB JUMPI DUP1 PUSH4 0x907C5E7E EQ PUSH2 0x503 JUMPI DUP1 PUSH4 0x9924D33B EQ PUSH2 0x593 JUMPI DUP1 PUSH4 0x9C729DA1 EQ PUSH2 0x3FA JUMPI DUP1 PUSH4 0xAAFF5F16 EQ PUSH2 0x5E5 JUMPI DUP1 PUSH4 0xB2086499 EQ PUSH2 0x605 JUMPI DUP1 PUSH4 0xB2304574 EQ PUSH2 0x646 JUMPI DUP1 PUSH4 0xB6D9EF60 EQ PUSH2 0x67F JUMPI DUP1 PUSH4 0xC08F15A1 EQ PUSH2 0x69F JUMPI DUP1 PUSH4 0xC2FA4813 EQ PUSH2 0x6E8 JUMPI DUP1 PUSH4 0xC5803100 EQ PUSH2 0x708 JUMPI DUP1 PUSH4 0xC81B383A EQ PUSH2 0x71B JUMPI DUP1 PUSH4 0xCA066B35 EQ PUSH2 0x751 JUMPI DUP1 PUSH4 0xCBED8B9C EQ PUSH2 0x772 JUMPI DUP1 PUSH4 0xD23104F1 EQ PUSH2 0x793 JUMPI DUP1 PUSH4 0xDA1A7C9A EQ PUSH2 0x20F JUMPI DUP1 PUSH4 0xDB14F305 EQ PUSH2 0x7B6 JUMPI DUP1 PUSH4 0xE97A448A EQ PUSH2 0x7D1 JUMPI DUP1 PUSH4 0xF5ECBDBC EQ PUSH2 0x7ED JUMPI DUP1 PUSH4 0xF9CD3CEB EQ PUSH2 0x81F JUMPI DUP1 PUSH4 0xFBBA623B EQ PUSH2 0x843 JUMPI DUP1 PUSH4 0xFDC07C70 EQ PUSH2 0x863 JUMPI JUMPDEST PUSH1 0x0 DUP1 REVERT JUMPDEST CALLVALUE DUP1 ISZERO PUSH2 0x1C6 JUMPI PUSH1 0x0 DUP1 REVERT JUMPDEST POP PUSH1 0x4 SLOAD PUSH1 0x5 SLOAD PUSH2 0x1D5 SWAP2 SWAP1 DUP3 JUMP JUMPDEST PUSH1 0x40 DUP1 MLOAD SWAP3 DUP4 MSTORE PUSH1 0x20 DUP4 ADD SWAP2 SWAP1 SWAP2 MSTORE ADD JUMPDEST PUSH1 0x40 MLOAD DUP1 SWAP2 SUB SWAP1 RETURN JUMPDEST CALLVALUE DUP1 ISZERO PUSH2 0x1FB JUMPI PUSH1 0x0 DUP1 REVERT JUMPDEST POP PUSH2 0x20D PUSH2 0x20A CALLDATASIZE PUSH1 0x4 PUSH2 0x214E JUMP JUMPDEST POP JUMP JUMPDEST STOP JUMPDEST CALLVALUE DUP1 ISZERO PUSH2 0x21B JUMPI PUSH1 0x0 DUP1 REVERT JUMPDEST POP PUSH2 0x230 PUSH2 0x22A CALLDATASIZE PUSH1 0x4 PUSH2 0x217E JUMP JUMPDEST POP PUSH1 0x1 SWAP1 JUMP JUMPDEST PUSH1 0x40 MLOAD PUSH2 0xFFFF SWAP1 SWAP2 AND DUP2 MSTORE PUSH1 0x20 ADD PUSH2 0x1E6 JUMP JUMPDEST CALLVALUE DUP1 ISZERO PUSH2 0x24F JUMPI PUSH1 0x0 DUP1 REVERT JUMPDEST POP PUSH2 0x263 PUSH2 0x25E CALLDATASIZE PUSH1 0x4 PUSH2 0x21E3 JUMP JUMPDEST PUSH2 0x883 JUMP JUMPDEST PUSH1 0x40 MLOAD SWAP1 ISZERO ISZERO DUP2 MSTORE PUSH1 0x20 ADD PUSH2 0x1E6 JUMP JUMPDEST CALLVALUE DUP1 ISZERO PUSH2 0x27F JUMPI PUSH1 0x0 DUP1 REVERT JUMPDEST POP PUSH2 0x293 PUSH2 0x28E CALLDATASIZE PUSH1 0x4 PUSH2 0x22D7 JUMP JUMPDEST PUSH2 0x8C9 JUMP JUMPDEST PUSH1 0x40 MLOAD PUSH2 0x1E6 SWAP4 SWAP3 SWAP2 SWAP1 PUSH2 0x237D JUMP JUMPDEST CALLVALUE DUP1 ISZERO PUSH2 0x2AE JUMPI PUSH1 0x0 DUP1 REVERT JUMPDEST POP PUSH2 0x20D PUSH2 0x2BD CALLDATASIZE PUSH1 0x4 PUSH2 0x23B9 JUMP JUMPDEST PUSH1 0x4 SWAP2 SWAP1 SWAP2 SSTORE PUSH1 0x5 SSTORE JUMP JUMPDEST CALLVALUE DUP1 ISZERO PUSH2 0x2D4 JUMPI PUSH1 0x0 DUP1 REVERT JUMPDEST POP PUSH2 0x2DD PUSH2 0x9C6 JUMP JUMPDEST PUSH1 0x40 MLOAD PUSH2 0x1E6 SWAP2 SWAP1 PUSH2 0x23DB JUMP JUMPDEST CALLVALUE DUP1 ISZERO PUSH2 0x2F6 JUMPI PUSH1 0x0 DUP1 REVERT JUMPDEST POP PUSH2 0x20D PUSH2 0x305 CALLDATASIZE PUSH1 0x4 PUSH2 0x241C JUMP JUMPDEST PUSH1 0x1 PUSH1 0x1 PUSH1 0x80 SHL SUB SWAP5 DUP6 AND PUSH1 0x1 PUSH1 0x80 SHL SWAP5 DUP7 AND DUP6 MUL OR PUSH1 0x2 SSTORE PUSH1 0x3 DUP1 SLOAD SWAP4 SWAP1 SWAP6 AND PUSH1 0x1 PUSH1 0x1 PUSH1 0xC0 SHL SUB NOT SWAP1 SWAP4 AND SWAP3 SWAP1 SWAP3 OR PUSH1 0x1 PUSH1 0x1 PUSH1 0x40 SHL SUB SWAP2 DUP3 AND SWAP1 SWAP4 MUL SWAP3 SWAP1 SWAP3 OR PUSH1 0x1 PUSH1 0x1 PUSH1 0xC0 SHL SUB AND PUSH1 0x1 PUSH1 0xC0 SHL SWAP2 SWAP1 SWAP3 AND MUL OR SWAP1 SSTORE JUMP JUMPDEST CALLVALUE DUP1 ISZERO PUSH2 0x36C JUMPI PUSH1 0x0 DUP1 REVERT JUMPDEST POP PUSH1 0x1 SLOAD PUSH2 0xFFFF AND PUSH2 0x230 JUMP JUMPDEST CALLVALUE DUP1 ISZERO PUSH2 0x385 JUMPI PUSH1 0x0 DUP1 REVERT JUMPDEST POP PUSH1 0x1 SLOAD PUSH2 0x263 SWAP1 PUSH3 0x10000 SWAP1 DIV PUSH1 0xFF AND DUP2 JUMP JUMPDEST CALLVALUE DUP1 ISZERO PUSH2 0x3A5 JUMPI PUSH1 0x0 DUP1 REVERT JUMPDEST POP PUSH2 0x1D5 PUSH2 0x3B4 CALLDATASIZE PUSH1 0x4 PUSH2 0x2491 JUMP JUMPDEST PUSH2 0xA54 JUMP JUMPDEST CALLVALUE DUP1 ISZERO PUSH2 0x3C5 JUMPI PUSH1 0x0 DUP1 REVERT JUMPDEST POP PUSH2 0x20D PUSH2 0x3D4 CALLDATASIZE PUSH1 0x4 PUSH2 0x21E3 JUMP JUMPDEST PUSH2 0xB53 JUMP JUMPDEST CALLVALUE DUP1 ISZERO PUSH2 0x3E5 JUMPI PUSH1 0x0 DUP1 REVERT JUMPDEST POP PUSH1 0x1 SLOAD PUSH2 0x263 SWAP1 PUSH4 0x1000000 SWAP1 DIV PUSH1 0xFF AND DUP2 JUMP JUMPDEST CALLVALUE DUP1 ISZERO PUSH2 0x406 JUMPI PUSH1 0x0 DUP1 REVERT JUMPDEST POP PUSH2 0x41A PUSH2 0x415 CALLDATASIZE PUSH1 0x4 PUSH2 0x217E JUMP JUMPDEST POP ADDRESS SWAP1 JUMP JUMPDEST PUSH1 0x40 MLOAD PUSH1 0x1 PUSH1 0x1 PUSH1 0xA0 SHL SUB SWAP1 SWAP2 AND DUP2 MSTORE PUSH1 0x20 ADD PUSH2 0x1E6 JUMP JUMPDEST CALLVALUE DUP1 ISZERO PUSH2 0x43E JUMPI PUSH1 0x0 DUP1 REVERT JUMPDEST POP PUSH2 0x49E PUSH2 0x44D CALLDATASIZE PUSH1 0x4 PUSH2 0x2528 JUMP JUMPDEST PUSH1 0xA PUSH1 0x20 SWAP1 DUP2 MSTORE PUSH1 0x0 SWAP3 DUP4 MSTORE PUSH1 0x40 SWAP1 SWAP3 KECCAK256 DUP2 MLOAD DUP1 DUP4 ADD DUP5 ADD DUP1 MLOAD SWAP3 DUP2 MSTORE SWAP1 DUP5 ADD SWAP3 SWAP1 SWAP4 ADD SWAP2 SWAP1 SWAP2 KECCAK256 SWAP2 MSTORE DUP1 SLOAD PUSH1 0x1 SWAP1 SWAP2 ADD SLOAD PUSH1 0x1 PUSH1 0x1 PUSH1 0x40 SHL SUB DUP3 AND SWAP2 PUSH1 0x1 PUSH1 0x40 SHL SWAP1 DIV PUSH1 0x1 PUSH1 0x1 PUSH1 0xA0 SHL SUB AND SWAP1 DUP4 JUMP JUMPDEST PUSH1 0x40 DUP1 MLOAD PUSH1 0x1 PUSH1 0x1 PUSH1 0x40 SHL SUB SWAP1 SWAP5 AND DUP5 MSTORE PUSH1 0x1 PUSH1 0x1 PUSH1 0xA0 SHL SUB SWAP1 SWAP3 AND PUSH1 0x20 DUP5 ADD MSTORE SWAP1 DUP3 ADD MSTORE PUSH1 0x60 ADD PUSH2 0x1E6 JUMP JUMPDEST CALLVALUE DUP1 ISZERO PUSH2 0x4D7 JUMPI PUSH1 0x0 DUP1 REVERT JUMPDEST POP PUSH2 0x4EB PUSH2 0x4E6 CALLDATASIZE PUSH1 0x4 PUSH2 0x2575 JUMP JUMPDEST PUSH2 0xC6E JUMP JUMPDEST PUSH1 0x40 MLOAD PUSH1 0x1 PUSH1 0x1 PUSH1 0x40 SHL SUB SWAP1 SWAP2 AND DUP2 MSTORE PUSH1 0x20 ADD PUSH2 0x1E6 JUMP JUMPDEST CALLVALUE DUP1 ISZERO PUSH2 0x50F JUMPI PUSH1 0x0 DUP1 REVERT JUMPDEST POP PUSH1 0x2 SLOAD PUSH1 0x3 SLOAD PUSH2 0x54F SWAP2 PUSH1 0x1 PUSH1 0x1 PUSH1 0x80 SHL SUB DUP1 DUP3 AND SWAP3 PUSH1 0x1 PUSH1 0x80 SHL SWAP3 DUP4 SWAP1 DIV DUP3 AND SWAP3 SWAP2 DUP2 AND SWAP2 PUSH1 0x1 PUSH1 0x1 PUSH1 0x40 SHL SUB SWAP1 DUP3 DIV DUP2 AND SWAP2 PUSH1 0x1 PUSH1 0xC0 SHL SWAP1 DIV AND DUP6 JUMP JUMPDEST PUSH1 0x40 DUP1 MLOAD PUSH1 0x1 PUSH1 0x1 PUSH1 0x80 SHL SUB SWAP7 DUP8 AND DUP2 MSTORE SWAP5 DUP7 AND PUSH1 0x20 DUP7 ADD MSTORE SWAP3 SWAP1 SWAP5 AND SWAP2 DUP4 ADD SWAP2 SWAP1 SWAP2 MSTORE PUSH1 0x1 PUSH1 0x1 PUSH1 0x40 SHL SUB SWAP1 DUP2 AND PUSH1 0x60 DUP4 ADD MSTORE SWAP1 SWAP2 AND PUSH1 0x80 DUP3 ADD MSTORE PUSH1 0xA0 ADD PUSH2 0x1E6 JUMP JUMPDEST CALLVALUE DUP1 ISZERO PUSH2 0x59F JUMPI PUSH1 0x0 DUP1 REVERT JUMPDEST POP PUSH2 0x4EB PUSH2 0x5AE CALLDATASIZE PUSH1 0x4 PUSH2 0x2528 JUMP JUMPDEST PUSH1 0x8 PUSH1 0x20 SWAP1 DUP2 MSTORE PUSH1 0x0 SWAP3 DUP4 MSTORE PUSH1 0x40 SWAP1 SWAP3 KECCAK256 DUP2 MLOAD DUP1 DUP4 ADD DUP5 ADD DUP1 MLOAD SWAP3 DUP2 MSTORE SWAP1 DUP5 ADD SWAP3 SWAP1 SWAP4 ADD SWAP2 SWAP1 SWAP2 KECCAK256 SWAP2 MSTORE SLOAD PUSH1 0x1 PUSH1 0x1 PUSH1 0x40 SHL SUB AND DUP2 JUMP JUMPDEST CALLVALUE DUP1 ISZERO PUSH2 0x5F1 JUMPI PUSH1 0x0 DUP1 REVERT JUMPDEST POP PUSH2 0x20D PUSH2 0x600 CALLDATASIZE PUSH1 0x4 PUSH2 0x25AC JUMP JUMPDEST PUSH2 0xCA6 JUMP JUMPDEST CALLVALUE DUP1 ISZERO PUSH2 0x611 JUMPI PUSH1 0x0 DUP1 REVERT JUMPDEST POP PUSH2 0x4EB PUSH2 0x620 CALLDATASIZE PUSH1 0x4 PUSH2 0x2575 JUMP JUMPDEST PUSH1 0x9 PUSH1 0x20 SWAP1 DUP2 MSTORE PUSH1 0x0 SWAP3 DUP4 MSTORE PUSH1 0x40 DUP1 DUP5 KECCAK256 SWAP1 SWAP2 MSTORE SWAP1 DUP3 MSTORE SWAP1 KECCAK256 SLOAD PUSH1 0x1 PUSH1 0x1 PUSH1 0x40 SHL SUB AND DUP2 JUMP JUMPDEST CALLVALUE DUP1 ISZERO PUSH2 0x652 JUMPI PUSH1 0x0 DUP1 REVERT JUMPDEST POP PUSH2 0x20D PUSH2 0x661 CALLDATASIZE PUSH1 0x4 PUSH2 0x262C JUMP JUMPDEST PUSH1 0x1 DUP1 SLOAD SWAP2 ISZERO ISZERO PUSH4 0x1000000 MUL PUSH4 0xFF000000 NOT SWAP1 SWAP3 AND SWAP2 SWAP1 SWAP2 OR SWAP1 SSTORE JUMP JUMPDEST CALLVALUE DUP1 ISZERO PUSH2 0x68B JUMPI PUSH1 0x0 DUP1 REVERT JUMPDEST POP PUSH2 0x20D PUSH2 0x69A CALLDATASIZE PUSH1 0x4 PUSH2 0x2647 JUMP JUMPDEST PUSH1 0x6 SSTORE JUMP JUMPDEST CALLVALUE DUP1 ISZERO PUSH2 0x6AB JUMPI PUSH1 0x0 DUP1 REVERT JUMPDEST POP PUSH2 0x20D PUSH2 0x6BA CALLDATASIZE PUSH1 0x4 PUSH2 0x2660 JUMP JUMPDEST PUSH1 0x1 PUSH1 0x1 PUSH1 0xA0 SHL SUB SWAP2 DUP3 AND PUSH1 0x0 SWAP1 DUP2 MSTORE PUSH1 0x20 DUP2 SWAP1 MSTORE PUSH1 0x40 SWAP1 KECCAK256 DUP1 SLOAD PUSH1 0x1 PUSH1 0x1 PUSH1 0xA0 SHL SUB NOT AND SWAP2 SWAP1 SWAP3 AND OR SWAP1 SSTORE JUMP JUMPDEST CALLVALUE DUP1 ISZERO PUSH2 0x6F4 JUMPI PUSH1 0x0 DUP1 REVERT JUMPDEST POP PUSH2 0x20D PUSH2 0x703 CALLDATASIZE PUSH1 0x4 PUSH2 0x267E JUMP JUMPDEST PUSH2 0xE8C JUMP JUMPDEST PUSH2 0x20D PUSH2 0x716 CALLDATASIZE PUSH1 0x4 PUSH2 0x272D JUMP JUMPDEST PUSH2 0x15A0 JUMP JUMPDEST CALLVALUE DUP1 ISZERO PUSH2 0x727 JUMPI PUSH1 0x0 DUP1 REVERT JUMPDEST POP PUSH2 0x41A PUSH2 0x736 CALLDATASIZE PUSH1 0x4 PUSH2 0x217E JUMP JUMPDEST PUSH1 0x0 PUSH1 0x20 DUP2 SWAP1 MSTORE SWAP1 DUP2 MSTORE PUSH1 0x40 SWAP1 KECCAK256 SLOAD PUSH1 0x1 PUSH1 0x1 PUSH1 0xA0 SHL SUB AND DUP2 JUMP JUMPDEST CALLVALUE DUP1 ISZERO PUSH2 0x75D JUMPI PUSH1 0x0 DUP1 REVERT JUMPDEST POP PUSH2 0x263 PUSH1 0xC SLOAD PUSH2 0x100 SWAP1 DIV PUSH1 0xFF AND PUSH1 0x2 EQ SWAP1 JUMP JUMPDEST CALLVALUE DUP1 ISZERO PUSH2 0x77E JUMPI PUSH1 0x0 DUP1 REVERT JUMPDEST POP PUSH2 0x20D PUSH2 0x78D CALLDATASIZE PUSH1 0x4 PUSH2 0x27F4 JUMP JUMPDEST POP POP POP POP JUMP JUMPDEST CALLVALUE DUP1 ISZERO PUSH2 0x79F JUMPI PUSH1 0x0 DUP1 REVERT JUMPDEST POP PUSH2 0x20D PUSH1 0x1 DUP1 SLOAD PUSH3 0xFF0000 NOT AND PUSH3 0x10000 OR SWAP1 SSTORE JUMP JUMPDEST CALLVALUE DUP1 ISZERO PUSH2 0x7C2 JUMPI PUSH1 0x0 DUP1 REVERT JUMPDEST POP PUSH1 0x1 SLOAD PUSH2 0x230 SWAP1 PUSH2 0xFFFF AND DUP2 JUMP JUMPDEST CALLVALUE DUP1 ISZERO PUSH2 0x7DD JUMPI PUSH1 0x0 DUP1 REVERT JUMPDEST POP PUSH2 0x263 PUSH1 0xC SLOAD PUSH1 0xFF AND PUSH1 0x2 EQ SWAP1 JUMP JUMPDEST CALLVALUE DUP1 ISZERO PUSH2 0x7F9 JUMPI PUSH1 0x0 DUP1 REVERT JUMPDEST POP PUSH2 0x2DD PUSH2 0x808 CALLDATASIZE PUSH1 0x4 PUSH2 0x285B JUMP JUMPDEST PUSH1 0x40 DUP1 MLOAD PUSH1 0x20 DUP2 ADD SWAP1 SWAP2 MSTORE PUSH1 0x0 DUP2 MSTORE SWAP5 SWAP4 POP POP POP POP JUMP JUMPDEST CALLVALUE DUP1 ISZERO PUSH2 0x82B JUMPI PUSH1 0x0 DUP1 REVERT JUMPDEST POP PUSH2 0x835 PUSH1 0x6 SLOAD DUP2 JUMP JUMPDEST PUSH1 0x40 MLOAD SWAP1 DUP2 MSTORE PUSH1 0x20 ADD PUSH2 0x1E6 JUMP JUMPDEST CALLVALUE DUP1 ISZERO PUSH2 0x84F JUMPI PUSH1 0x0 DUP1 REVERT JUMPDEST POP PUSH2 0x20D PUSH2 0x85E CALLDATASIZE PUSH1 0x4 PUSH2 0x28A8 JUMP JUMPDEST PUSH2 0x1BA8 JUMP JUMPDEST CALLVALUE DUP1 ISZERO PUSH2 0x86F JUMPI PUSH1 0x0 DUP1 REVERT JUMPDEST POP PUSH2 0x4EB PUSH2 0x87E CALLDATASIZE PUSH1 0x4 PUSH2 0x21E3 JUMP JUMPDEST PUSH2 0x1BB8 JUMP JUMPDEST PUSH2 0xFFFF DUP4 AND PUSH1 0x0 SWAP1 DUP2 MSTORE PUSH1 0xA PUSH1 0x20 MSTORE PUSH1 0x40 DUP1 DUP3 KECCAK256 SWAP1 MLOAD DUP3 SWAP2 SWAP1 PUSH2 0x8A9 SWAP1 DUP7 SWAP1 DUP7 SWAP1 PUSH2 0x28E4 JUMP JUMPDEST SWAP1 DUP2 MSTORE PUSH1 0x40 MLOAD SWAP1 DUP2 SWAP1 SUB PUSH1 0x20 ADD SWAP1 KECCAK256 PUSH1 0x1 ADD SLOAD ISZERO ISZERO SWAP2 POP POP JUMPDEST SWAP4 SWAP3 POP POP POP JUMP JUMPDEST PUSH1 0xB PUSH1 0x20 SWAP1 DUP2 MSTORE PUSH1 0x0 DUP5 DUP2 MSTORE PUSH1 0x40 SWAP1 KECCAK256 DUP4 MLOAD DUP1 DUP6 ADD DUP4 ADD DUP1 MLOAD SWAP3 DUP2 MSTORE SWAP1 DUP4 ADD SWAP3 DUP6 ADD SWAP3 SWAP1 SWAP3 KECCAK256 SWAP2 MSTORE DUP1 SLOAD DUP3 SWAP1 DUP2 LT PUSH2 0x900 JUMPI PUSH1 0x0 DUP1 REVERT JUMPDEST PUSH1 0x0 SWAP2 DUP3 MSTORE PUSH1 0x20 SWAP1 SWAP2 KECCAK256 PUSH1 0x2 SWAP1 SWAP2 MUL ADD DUP1 SLOAD PUSH1 0x1 DUP3 ADD DUP1 SLOAD PUSH1 0x1 PUSH1 0x1 PUSH1 0xA0 SHL SUB DUP4 AND SWAP7 POP PUSH1 0x1 PUSH1 0xA0 SHL SWAP1 SWAP3 DIV PUSH1 0x1 PUSH1 0x1 PUSH1 0x40 SHL SUB AND SWAP5 POP SWAP2 SWAP3 POP PUSH2 0x943 SWAP1 PUSH2 0x28F4 JUMP JUMPDEST DUP1 PUSH1 0x1F ADD PUSH1 0x20 DUP1 SWAP2 DIV MUL PUSH1 0x20 ADD PUSH1 0x40 MLOAD SWAP1 DUP2 ADD PUSH1 0x40 MSTORE DUP1 SWAP3 SWAP2 SWAP1 DUP2 DUP2 MSTORE PUSH1 0x20 ADD DUP3 DUP1 SLOAD PUSH2 0x96F SWAP1 PUSH2 0x28F4 JUMP JUMPDEST DUP1 ISZERO PUSH2 0x9BC JUMPI DUP1 PUSH1 0x1F LT PUSH2 0x991 JUMPI PUSH2 0x100 DUP1 DUP4 SLOAD DIV MUL DUP4 MSTORE SWAP2 PUSH1 0x20 ADD SWAP2 PUSH2 0x9BC JUMP JUMPDEST DUP3 ADD SWAP2 SWAP1 PUSH1 0x0 MSTORE PUSH1 0x20 PUSH1 0x0 KECCAK256 SWAP1 JUMPDEST DUP2 SLOAD DUP2 MSTORE SWAP1 PUSH1 0x1 ADD SWAP1 PUSH1 0x20 ADD DUP1 DUP4 GT PUSH2 0x99F JUMPI DUP3 SWAP1 SUB PUSH1 0x1F AND DUP3 ADD SWAP2 JUMPDEST POP POP POP POP POP SWAP1 POP DUP4 JUMP JUMPDEST PUSH1 0x7 DUP1 SLOAD PUSH2 0x9D3 SWAP1 PUSH2 0x28F4 JUMP JUMPDEST DUP1 PUSH1 0x1F ADD PUSH1 0x20 DUP1 SWAP2 DIV MUL PUSH1 0x20 ADD PUSH1 0x40 MLOAD SWAP1 DUP2 ADD PUSH1 0x40 MSTORE DUP1 SWAP3 SWAP2 SWAP1 DUP2 DUP2 MSTORE PUSH1 0x20 ADD DUP3 DUP1 SLOAD PUSH2 0x9FF SWAP1 PUSH2 0x28F4 JUMP JUMPDEST DUP1 ISZERO PUSH2 0xA4C JUMPI DUP1 PUSH1 0x1F LT PUSH2 0xA21 JUMPI PUSH2 0x100 DUP1 DUP4 SLOAD DIV MUL DUP4 MSTORE SWAP2 PUSH1 0x20 ADD SWAP2 PUSH2 0xA4C JUMP JUMPDEST DUP3 ADD SWAP2 SWAP1 PUSH1 0x0 MSTORE PUSH1 0x20 PUSH1 0x0 KECCAK256 SWAP1 JUMPDEST DUP2 SLOAD DUP2 MSTORE SWAP1 PUSH1 0x1 ADD SWAP1 PUSH1 0x20 ADD DUP1 DUP4 GT PUSH2 0xA2F JUMPI DUP3 SWAP1 SUB PUSH1 0x1F AND DUP3 ADD SWAP2 JUMPDEST POP POP POP POP POP DUP2 JUMP JUMPDEST PUSH1 0x0 DUP1 PUSH1 0x0 DUP1 DUP5 MLOAD GT PUSH2 0xAF1 JUMPI PUSH1 0x7 DUP1 SLOAD PUSH2 0xA6E SWAP1 PUSH2 0x28F4 JUMP JUMPDEST DUP1 PUSH1 0x1F ADD PUSH1 0x20 DUP1 SWAP2 DIV MUL PUSH1 0x20 ADD PUSH1 0x40 MLOAD SWAP1 DUP2 ADD PUSH1 0x40 MSTORE DUP1 SWAP3 SWAP2 SWAP1 DUP2 DUP2 MSTORE PUSH1 0x20 ADD DUP3 DUP1 SLOAD PUSH2 0xA9A SWAP1 PUSH2 0x28F4 JUMP JUMPDEST DUP1 ISZERO PUSH2 0xAE7 JUMPI DUP1 PUSH1 0x1F LT PUSH2 0xABC JUMPI PUSH2 0x100 DUP1 DUP4 SLOAD DIV MUL DUP4 MSTORE SWAP2 PUSH1 0x20 ADD SWAP2 PUSH2 0xAE7 JUMP JUMPDEST DUP3 ADD SWAP2 SWAP1 PUSH1 0x0 MSTORE PUSH1 0x20 PUSH1 0x0 KECCAK256 SWAP1 JUMPDEST DUP2 SLOAD DUP2 MSTORE SWAP1 PUSH1 0x1 ADD SWAP1 PUSH1 0x20 ADD DUP1 DUP4 GT PUSH2 0xACA JUMPI DUP3 SWAP1 SUB PUSH1 0x1F AND DUP3 ADD SWAP2 JUMPDEST POP POP POP POP POP PUSH2 0xAF3 JUMP JUMPDEST DUP4 JUMPDEST SWAP1 POP PUSH1 0x0 PUSH2 0xB06 DUP10 PUSH1 0x1 DUP11 DUP11 MLOAD DUP7 PUSH2 0x1BFD JUMP JUMPDEST SWAP1 POP PUSH1 0x0 PUSH2 0xB17 DUP8 DUP4 PUSH1 0x6 SLOAD PUSH2 0x1D96 JUMP JUMPDEST SWAP1 POP DUP7 PUSH2 0xB27 JUMPI DUP1 SWAP5 POP DUP5 PUSH2 0xB2C JUMP JUMPDEST DUP1 SWAP4 POP DUP4 JUMPDEST POP PUSH1 0x6 SLOAD PUSH2 0xB3A DUP4 DUP8 PUSH2 0x2944 JUMP JUMPDEST PUSH2 0xB44 SWAP2 SWAP1 PUSH2 0x2944 JUMP JUMPDEST SWAP5 POP POP POP POP SWAP6 POP SWAP6 SWAP4 POP POP POP POP JUMP JUMPDEST PUSH2 0xFFFF DUP4 AND PUSH1 0x0 SWAP1 DUP2 MSTORE PUSH1 0xA PUSH1 0x20 MSTORE PUSH1 0x40 DUP1 DUP3 KECCAK256 SWAP1 MLOAD PUSH2 0xB76 SWAP1 DUP6 SWAP1 DUP6 SWAP1 PUSH2 0x28E4 JUMP JUMPDEST SWAP1 DUP2 MSTORE PUSH1 0x40 MLOAD SWAP1 DUP2 SWAP1 SUB PUSH1 0x20 ADD SWAP1 KECCAK256 PUSH1 0x1 DUP2 ADD SLOAD SWAP1 SWAP2 POP PUSH2 0xBB2 JUMPI PUSH1 0x40 MLOAD PUSH3 0x461BCD PUSH1 0xE5 SHL DUP2 MSTORE PUSH1 0x4 ADD PUSH2 0xBA9 SWAP1 PUSH2 0x2957 JUMP JUMPDEST PUSH1 0x40 MLOAD DUP1 SWAP2 SUB SWAP1 REVERT JUMPDEST DUP1 SLOAD PUSH1 0x1 PUSH1 0x40 SHL SWAP1 DIV PUSH1 0x1 PUSH1 0x1 PUSH1 0xA0 SHL SUB AND CALLER EQ PUSH2 0xC12 JUMPI PUSH1 0x40 MLOAD PUSH3 0x461BCD PUSH1 0xE5 SHL DUP2 MSTORE PUSH1 0x20 PUSH1 0x4 DUP3 ADD MSTORE PUSH1 0x1D PUSH1 0x24 DUP3 ADD MSTORE PUSH32 0x4C617965725A65726F4D6F636B3A20696E76616C69642063616C6C6572000000 PUSH1 0x44 DUP3 ADD MSTORE PUSH1 0x64 ADD PUSH2 0xBA9 JUMP JUMPDEST DUP1 SLOAD PUSH1 0x1 PUSH1 0x1 PUSH1 0xE0 SHL SUB NOT AND DUP2 SSTORE PUSH1 0x0 PUSH1 0x1 DUP3 ADD SSTORE PUSH1 0x40 MLOAD PUSH32 0x23D2684F396E92A6E2FF2D16F98E6FEA00D50CB27A64B531BC0748F730211F98 SWAP1 PUSH2 0xC5B SWAP1 DUP7 SWAP1 DUP7 SWAP1 DUP7 SWAP1 PUSH2 0x29B5 JUMP JUMPDEST PUSH1 0x40 MLOAD DUP1 SWAP2 SUB SWAP1 LOG1 PUSH2 0x78D DUP5 DUP5 DUP5 PUSH2 0x1DD3 JUMP JUMPDEST PUSH2 0xFFFF DUP3 AND PUSH1 0x0 SWAP1 DUP2 MSTORE PUSH1 0x9 PUSH1 0x20 SWAP1 DUP2 MSTORE PUSH1 0x40 DUP1 DUP4 KECCAK256 PUSH1 0x1 PUSH1 0x1 PUSH1 0xA0 SHL SUB DUP6 AND DUP5 MSTORE SWAP1 SWAP2 MSTORE SWAP1 KECCAK256 SLOAD PUSH1 0x1 PUSH1 0x1 PUSH1 0x40 SHL SUB AND JUMPDEST SWAP3 SWAP2 POP POP JUMP JUMPDEST PUSH2 0xFFFF DUP6 AND PUSH1 0x0 SWAP1 DUP2 MSTORE PUSH1 0xA PUSH1 0x20 MSTORE PUSH1 0x40 DUP1 DUP3 KECCAK256 SWAP1 MLOAD PUSH2 0xCC9 SWAP1 DUP8 SWAP1 DUP8 SWAP1 PUSH2 0x28E4 JUMP JUMPDEST SWAP1 DUP2 MSTORE PUSH1 0x40 MLOAD SWAP1 DUP2 SWAP1 SUB PUSH1 0x20 ADD SWAP1 KECCAK256 PUSH1 0x1 DUP2 ADD SLOAD SWAP1 SWAP2 POP PUSH2 0xCFC JUMPI PUSH1 0x40 MLOAD PUSH3 0x461BCD PUSH1 0xE5 SHL DUP2 MSTORE PUSH1 0x4 ADD PUSH2 0xBA9 SWAP1 PUSH2 0x2957 JUMP JUMPDEST DUP1 SLOAD PUSH1 0x1 PUSH1 0x1 PUSH1 0x40 SHL SUB AND DUP3 EQ DUP1 ISZERO PUSH2 0xD2F JUMPI POP DUP1 PUSH1 0x1 ADD SLOAD DUP4 DUP4 PUSH1 0x40 MLOAD PUSH2 0xD25 SWAP3 SWAP2 SWAP1 PUSH2 0x28E4 JUMP JUMPDEST PUSH1 0x40 MLOAD DUP1 SWAP2 SUB SWAP1 KECCAK256 EQ JUMPDEST PUSH2 0xD7B JUMPI PUSH1 0x40 MLOAD PUSH3 0x461BCD PUSH1 0xE5 SHL DUP2 MSTORE PUSH1 0x20 PUSH1 0x4 DUP3 ADD MSTORE PUSH1 0x1E PUSH1 0x24 DUP3 ADD MSTORE PUSH32 0x4C617965725A65726F4D6F636B3A20696E76616C6964207061796C6F61640000 PUSH1 0x44 DUP3 ADD MSTORE PUSH1 0x64 ADD PUSH2 0xBA9 JUMP JUMPDEST DUP1 SLOAD PUSH1 0x1 PUSH1 0x1 PUSH1 0xE0 SHL SUB NOT DUP2 AND DUP3 SSTORE PUSH1 0x0 PUSH1 0x1 DUP4 ADD DUP2 SWAP1 SSTORE PUSH2 0xFFFF DUP9 AND DUP2 MSTORE PUSH1 0x8 PUSH1 0x20 MSTORE PUSH1 0x40 DUP1 DUP3 KECCAK256 SWAP1 MLOAD PUSH1 0x1 PUSH1 0x40 SHL SWAP1 SWAP4 DIV PUSH1 0x1 PUSH1 0x1 PUSH1 0xA0 SHL SUB AND SWAP3 PUSH2 0xDC5 SWAP1 DUP10 SWAP1 DUP10 SWAP1 PUSH2 0x28E4 JUMP JUMPDEST SWAP1 DUP2 MSTORE PUSH1 0x40 MLOAD SWAP1 DUP2 SWAP1 SUB PUSH1 0x20 ADD DUP2 KECCAK256 SLOAD PUSH3 0x1D3567 PUSH1 0xE0 SHL DUP3 MSTORE PUSH1 0x1 PUSH1 0x1 PUSH1 0x40 SHL SUB AND SWAP2 POP PUSH1 0x1 PUSH1 0x1 PUSH1 0xA0 SHL SUB DUP4 AND SWAP1 PUSH3 0x1D3567 SWAP1 PUSH2 0xE11 SWAP1 DUP12 SWAP1 DUP12 SWAP1 DUP12 SWAP1 DUP8 SWAP1 DUP13 SWAP1 DUP13 SWAP1 PUSH1 0x4 ADD PUSH2 0x29D3 JUMP JUMPDEST PUSH1 0x0 PUSH1 0x40 MLOAD DUP1 DUP4 SUB DUP2 PUSH1 0x0 DUP8 DUP1 EXTCODESIZE ISZERO DUP1 ISZERO PUSH2 0xE2B JUMPI PUSH1 0x0 DUP1 REVERT JUMPDEST POP GAS CALL ISZERO DUP1 ISZERO PUSH2 0xE3F JUMPI RETURNDATASIZE PUSH1 0x0 DUP1 RETURNDATACOPY RETURNDATASIZE PUSH1 0x0 REVERT JUMPDEST POP POP POP POP PUSH32 0x612434F39581C8E7D99746C9C20C6EB0CE8C0EB99F007C5719D620841370957D DUP9 DUP9 DUP9 DUP5 DUP7 PUSH1 0x40 MLOAD PUSH2 0xE7A SWAP6 SWAP5 SWAP4 SWAP3 SWAP2 SWAP1 PUSH2 0x2A20 JUMP JUMPDEST PUSH1 0x40 MLOAD DUP1 SWAP2 SUB SWAP1 LOG1 POP POP POP POP POP POP POP POP JUMP JUMPDEST PUSH1 0xC SLOAD PUSH2 0x100 SWAP1 DIV PUSH1 0xFF AND PUSH1 0x1 EQ PUSH2 0xEF2 JUMPI PUSH1 0x40 MLOAD PUSH3 0x461BCD PUSH1 0xE5 SHL DUP2 MSTORE PUSH1 0x20 PUSH1 0x4 DUP3 ADD MSTORE PUSH1 0x24 DUP1 DUP3 ADD MSTORE PUSH32 0x4C617965725A65726F4D6F636B3A206E6F2072656365697665207265656E7472 PUSH1 0x44 DUP3 ADD MSTORE PUSH4 0x616E6379 PUSH1 0xE0 SHL PUSH1 0x64 DUP3 ADD MSTORE PUSH1 0x84 ADD PUSH2 0xBA9 JUMP JUMPDEST PUSH1 0xC DUP1 SLOAD PUSH2 0xFF00 NOT AND PUSH2 0x200 OR SWAP1 SSTORE PUSH2 0xFFFF DUP9 AND PUSH1 0x0 SWAP1 DUP2 MSTORE PUSH1 0xA PUSH1 0x20 MSTORE PUSH1 0x40 DUP1 DUP3 KECCAK256 SWAP1 MLOAD PUSH2 0xF24 SWAP1 DUP11 SWAP1 DUP11 SWAP1 PUSH2 0x28E4 JUMP JUMPDEST SWAP1 DUP2 MSTORE PUSH1 0x20 ADD PUSH1 0x40 MLOAD DUP1 SWAP2 SUB SWAP1 KECCAK256 SWAP1 POP PUSH1 0x8 PUSH1 0x0 DUP11 PUSH2 0xFFFF AND PUSH2 0xFFFF AND DUP2 MSTORE PUSH1 0x20 ADD SWAP1 DUP2 MSTORE PUSH1 0x20 ADD PUSH1 0x0 KECCAK256 DUP9 DUP9 PUSH1 0x40 MLOAD PUSH2 0xF5F SWAP3 SWAP2 SWAP1 PUSH2 0x28E4 JUMP JUMPDEST SWAP1 DUP2 MSTORE PUSH1 0x40 MLOAD SWAP1 DUP2 SWAP1 SUB PUSH1 0x20 ADD SWAP1 KECCAK256 DUP1 SLOAD PUSH1 0x0 SWAP1 PUSH2 0xF85 SWAP1 PUSH1 0x1 PUSH1 0x1 PUSH1 0x40 SHL SUB AND PUSH2 0x2A69 JUMP JUMPDEST SWAP2 SWAP1 PUSH2 0x100 EXP DUP2 SLOAD DUP2 PUSH1 0x1 PUSH1 0x1 PUSH1 0x40 SHL SUB MUL NOT AND SWAP1 DUP4 PUSH1 0x1 PUSH1 0x1 PUSH1 0x40 SHL SUB AND MUL OR SWAP1 SSTORE PUSH1 0x1 PUSH1 0x1 PUSH1 0x40 SHL SUB AND DUP6 PUSH1 0x1 PUSH1 0x1 PUSH1 0x40 SHL SUB AND EQ PUSH2 0x1005 JUMPI PUSH1 0x40 MLOAD PUSH3 0x461BCD PUSH1 0xE5 SHL DUP2 MSTORE PUSH1 0x20 PUSH1 0x4 DUP3 ADD MSTORE PUSH1 0x1A PUSH1 0x24 DUP3 ADD MSTORE PUSH26 0x4C617965725A65726F4D6F636B3A2077726F6E67206E6F6E6365 PUSH1 0x30 SHL PUSH1 0x44 DUP3 ADD MSTORE PUSH1 0x64 ADD PUSH2 0xBA9 JUMP JUMPDEST PUSH1 0x1 DUP2 ADD SLOAD ISZERO PUSH2 0x12D7 JUMPI PUSH2 0xFFFF DUP10 AND PUSH1 0x0 SWAP1 DUP2 MSTORE PUSH1 0xB PUSH1 0x20 MSTORE PUSH1 0x40 DUP1 DUP3 KECCAK256 SWAP1 MLOAD PUSH2 0x1032 SWAP1 DUP12 SWAP1 DUP12 SWAP1 PUSH2 0x28E4 JUMP JUMPDEST SWAP1 DUP2 MSTORE PUSH1 0x20 ADD PUSH1 0x40 MLOAD DUP1 SWAP2 SUB SWAP1 KECCAK256 SWAP1 POP PUSH1 0x0 PUSH1 0x40 MLOAD DUP1 PUSH1 0x60 ADD PUSH1 0x40 MSTORE DUP1 DUP10 PUSH1 0x1 PUSH1 0x1 PUSH1 0xA0 SHL SUB AND DUP2 MSTORE PUSH1 0x20 ADD DUP9 PUSH1 0x1 PUSH1 0x1 PUSH1 0x40 SHL SUB AND DUP2 MSTORE PUSH1 0x20 ADD DUP7 DUP7 DUP1 DUP1 PUSH1 0x1F ADD PUSH1 0x20 DUP1 SWAP2 DIV MUL PUSH1 0x20 ADD PUSH1 0x40 MLOAD SWAP1 DUP2 ADD PUSH1 0x40 MSTORE DUP1 SWAP4 SWAP3 SWAP2 SWAP1 DUP2 DUP2 MSTORE PUSH1 0x20 ADD DUP4 DUP4 DUP1 DUP3 DUP5 CALLDATACOPY PUSH1 0x0 SWAP3 ADD SWAP2 SWAP1 SWAP2 MSTORE POP POP POP SWAP2 MSTORE POP DUP3 SLOAD SWAP1 SWAP2 POP ISZERO PUSH2 0x1268 JUMPI DUP2 SLOAD PUSH1 0x1 DUP2 DUP2 ADD DUP5 SSTORE PUSH1 0x0 DUP5 DUP2 MSTORE PUSH1 0x20 SWAP1 DUP2 SWAP1 KECCAK256 DUP5 MLOAD PUSH1 0x2 SWAP1 SWAP5 MUL ADD DUP1 SLOAD SWAP2 DUP6 ADD MLOAD PUSH1 0x1 PUSH1 0x1 PUSH1 0x40 SHL SUB AND PUSH1 0x1 PUSH1 0xA0 SHL MUL PUSH1 0x1 PUSH1 0x1 PUSH1 0xE0 SHL SUB NOT SWAP1 SWAP3 AND PUSH1 0x1 PUSH1 0x1 PUSH1 0xA0 SHL SUB SWAP1 SWAP5 AND SWAP4 SWAP1 SWAP4 OR OR DUP3 SSTORE PUSH1 0x40 DUP4 ADD MLOAD DUP4 SWAP3 SWAP2 DUP3 ADD SWAP1 PUSH2 0x1113 SWAP1 DUP3 PUSH2 0x2AFB JUMP JUMPDEST POP POP POP PUSH1 0x0 JUMPDEST DUP3 SLOAD PUSH2 0x1127 SWAP1 PUSH1 0x1 SWAP1 PUSH2 0x2BB4 JUMP JUMPDEST DUP2 LT ISZERO PUSH2 0x11ED JUMPI DUP3 DUP2 DUP2 SLOAD DUP2 LT PUSH2 0x1140 JUMPI PUSH2 0x1140 PUSH2 0x2BC7 JUMP JUMPDEST SWAP1 PUSH1 0x0 MSTORE PUSH1 0x20 PUSH1 0x0 KECCAK256 SWAP1 PUSH1 0x2 MUL ADD DUP4 DUP3 PUSH1 0x1 PUSH2 0x115C SWAP2 SWAP1 PUSH2 0x2944 JUMP JUMPDEST DUP2 SLOAD DUP2 LT PUSH2 0x116C JUMPI PUSH2 0x116C PUSH2 0x2BC7 JUMP JUMPDEST PUSH1 0x0 SWAP2 DUP3 MSTORE PUSH1 0x20 SWAP1 SWAP2 KECCAK256 DUP3 SLOAD PUSH1 0x2 SWAP1 SWAP3 MUL ADD DUP1 SLOAD PUSH1 0x1 PUSH1 0x1 PUSH1 0xA0 SHL SUB SWAP1 SWAP3 AND PUSH1 0x1 PUSH1 0x1 PUSH1 0xA0 SHL SUB NOT DUP4 AND DUP2 OR DUP3 SSTORE DUP4 SLOAD PUSH1 0x1 PUSH1 0x1 PUSH1 0xE0 SHL SUB NOT SWAP1 SWAP4 AND OR PUSH1 0x1 PUSH1 0xA0 SHL SWAP3 DUP4 SWAP1 DIV PUSH1 0x1 PUSH1 0x1 PUSH1 0x40 SHL SUB AND SWAP1 SWAP3 MUL SWAP2 SWAP1 SWAP2 OR DUP2 SSTORE PUSH1 0x1 DUP1 DUP3 ADD SWAP1 PUSH2 0x11D6 SWAP1 DUP5 ADD DUP3 PUSH2 0x2BDD JUMP JUMPDEST POP SWAP1 POP POP DUP1 DUP1 PUSH2 0x11E5 SWAP1 PUSH2 0x2CB1 JUMP JUMPDEST SWAP2 POP POP PUSH2 0x1119 JUMP JUMPDEST POP DUP1 DUP3 PUSH1 0x0 DUP2 SLOAD DUP2 LT PUSH2 0x1202 JUMPI PUSH2 0x1202 PUSH2 0x2BC7 JUMP JUMPDEST PUSH1 0x0 SWAP2 DUP3 MSTORE PUSH1 0x20 SWAP2 DUP3 SWAP1 KECCAK256 DUP4 MLOAD PUSH1 0x2 SWAP1 SWAP3 MUL ADD DUP1 SLOAD SWAP3 DUP5 ADD MLOAD PUSH1 0x1 PUSH1 0x1 PUSH1 0x40 SHL SUB AND PUSH1 0x1 PUSH1 0xA0 SHL MUL PUSH1 0x1 PUSH1 0x1 PUSH1 0xE0 SHL SUB NOT SWAP1 SWAP4 AND PUSH1 0x1 PUSH1 0x1 PUSH1 0xA0 SHL SUB SWAP1 SWAP3 AND SWAP2 SWAP1 SWAP2 OR SWAP2 SWAP1 SWAP2 OR DUP2 SSTORE PUSH1 0x40 DUP3 ADD MLOAD PUSH1 0x1 DUP3 ADD SWAP1 PUSH2 0x125F SWAP1 DUP3 PUSH2 0x2AFB JUMP JUMPDEST POP SWAP1 POP POP PUSH2 0x12D0 JUMP JUMPDEST DUP2 SLOAD PUSH1 0x1 DUP2 DUP2 ADD DUP5 SSTORE PUSH1 0x0 DUP5 DUP2 MSTORE PUSH1 0x20 SWAP1 DUP2 SWAP1 KECCAK256 DUP5 MLOAD PUSH1 0x2 SWAP1 SWAP5 MUL ADD DUP1 SLOAD SWAP2 DUP6 ADD MLOAD PUSH1 0x1 PUSH1 0x1 PUSH1 0x40 SHL SUB AND PUSH1 0x1 PUSH1 0xA0 SHL MUL PUSH1 0x1 PUSH1 0x1 PUSH1 0xE0 SHL SUB NOT SWAP1 SWAP3 AND PUSH1 0x1 PUSH1 0x1 PUSH1 0xA0 SHL SUB SWAP1 SWAP5 AND SWAP4 SWAP1 SWAP4 OR OR DUP3 SSTORE PUSH1 0x40 DUP4 ADD MLOAD DUP4 SWAP3 SWAP2 DUP3 ADD SWAP1 PUSH2 0x12CC SWAP1 DUP3 PUSH2 0x2AFB JUMP JUMPDEST POP POP POP JUMPDEST POP POP PUSH2 0x1586 JUMP JUMPDEST PUSH1 0x1 SLOAD PUSH3 0x10000 SWAP1 DIV PUSH1 0xFF AND ISZERO PUSH2 0x13F3 JUMPI PUSH1 0x40 MLOAD DUP1 PUSH1 0x60 ADD PUSH1 0x40 MSTORE DUP1 DUP5 DUP5 SWAP1 POP PUSH1 0x1 PUSH1 0x1 PUSH1 0x40 SHL SUB AND DUP2 MSTORE PUSH1 0x20 ADD DUP8 PUSH1 0x1 PUSH1 0x1 PUSH1 0xA0 SHL SUB AND DUP2 MSTORE PUSH1 0x20 ADD DUP5 DUP5 PUSH1 0x40 MLOAD PUSH2 0x1324 SWAP3 SWAP2 SWAP1 PUSH2 0x28E4 JUMP JUMPDEST PUSH1 0x40 DUP1 MLOAD SWAP2 DUP3 SWAP1 SUB SWAP1 SWAP2 KECCAK256 SWAP1 SWAP2 MSTORE PUSH2 0xFFFF DUP12 AND PUSH1 0x0 SWAP1 DUP2 MSTORE PUSH1 0xA PUSH1 0x20 MSTORE DUP2 SWAP1 KECCAK256 SWAP1 MLOAD PUSH2 0x1353 SWAP1 DUP12 SWAP1 DUP12 SWAP1 PUSH2 0x28E4 JUMP JUMPDEST SWAP1 DUP2 MSTORE PUSH1 0x40 DUP1 MLOAD SWAP2 DUP3 SWAP1 SUB PUSH1 0x20 SWAP1 DUP2 ADD DUP4 KECCAK256 DUP5 MLOAD DUP2 SLOAD DUP7 DUP5 ADD MLOAD PUSH1 0x1 PUSH1 0x1 PUSH1 0xA0 SHL SUB AND PUSH1 0x1 PUSH1 0x40 SHL MUL PUSH1 0x1 PUSH1 0x1 PUSH1 0xE0 SHL SUB NOT SWAP1 SWAP2 AND PUSH1 0x1 PUSH1 0x1 PUSH1 0x40 SHL SUB SWAP1 SWAP3 AND SWAP2 SWAP1 SWAP2 OR OR DUP2 SSTORE SWAP4 DUP3 ADD MLOAD PUSH1 0x1 SWAP1 SWAP5 ADD SWAP4 SWAP1 SWAP4 SSTORE SWAP2 DUP2 ADD DUP3 MSTORE PUSH1 0x0 DUP2 MSTORE SWAP1 MLOAD PUSH1 0x0 DUP1 MLOAD PUSH1 0x20 PUSH2 0x2F01 DUP4 CODECOPY DUP2 MLOAD SWAP2 MSTORE SWAP2 PUSH2 0x13DA SWAP2 DUP13 SWAP2 DUP13 SWAP2 DUP13 SWAP2 DUP13 SWAP2 DUP13 SWAP2 DUP12 SWAP2 DUP12 SWAP2 SWAP1 PUSH2 0x2CCA JUMP JUMPDEST PUSH1 0x40 MLOAD DUP1 SWAP2 SUB SWAP1 LOG1 PUSH1 0x1 DUP1 SLOAD PUSH3 0xFF0000 NOT AND SWAP1 SSTORE PUSH2 0x1586 JUMP JUMPDEST PUSH1 0x40 MLOAD PUSH3 0x1D3567 PUSH1 0xE0 SHL DUP2 MSTORE PUSH1 0x1 PUSH1 0x1 PUSH1 0xA0 SHL SUB DUP8 AND SWAP1 PUSH3 0x1D3567 SWAP1 DUP7 SWAP1 PUSH2 0x1429 SWAP1 DUP14 SWAP1 DUP14 SWAP1 DUP14 SWAP1 DUP13 SWAP1 DUP12 SWAP1 DUP12 SWAP1 PUSH1 0x4 ADD PUSH2 0x29D3 JUMP JUMPDEST PUSH1 0x0 PUSH1 0x40 MLOAD DUP1 DUP4 SUB DUP2 PUSH1 0x0 DUP9 DUP1 EXTCODESIZE ISZERO DUP1 ISZERO PUSH2 0x1443 JUMPI PUSH1 0x0 DUP1 REVERT JUMPDEST POP DUP8 CALL SWAP4 POP POP POP POP DUP1 ISZERO PUSH2 0x1455 JUMPI POP PUSH1 0x1 JUMPDEST PUSH2 0x1586 JUMPI RETURNDATASIZE DUP1 DUP1 ISZERO PUSH2 0x1483 JUMPI PUSH1 0x40 MLOAD SWAP2 POP PUSH1 0x1F NOT PUSH1 0x3F RETURNDATASIZE ADD AND DUP3 ADD PUSH1 0x40 MSTORE RETURNDATASIZE DUP3 MSTORE RETURNDATASIZE PUSH1 0x0 PUSH1 0x20 DUP5 ADD RETURNDATACOPY PUSH2 0x1488 JUMP JUMPDEST PUSH1 0x60 SWAP2 POP JUMPDEST POP PUSH1 0x40 MLOAD DUP1 PUSH1 0x60 ADD PUSH1 0x40 MSTORE DUP1 DUP6 DUP6 SWAP1 POP PUSH1 0x1 PUSH1 0x1 PUSH1 0x40 SHL SUB AND DUP2 MSTORE PUSH1 0x20 ADD DUP9 PUSH1 0x1 PUSH1 0x1 PUSH1 0xA0 SHL SUB AND DUP2 MSTORE PUSH1 0x20 ADD DUP6 DUP6 PUSH1 0x40 MLOAD PUSH2 0x14C5 SWAP3 SWAP2 SWAP1 PUSH2 0x28E4 JUMP JUMPDEST PUSH1 0x40 DUP1 MLOAD SWAP2 DUP3 SWAP1 SUB SWAP1 SWAP2 KECCAK256 SWAP1 SWAP2 MSTORE PUSH2 0xFFFF DUP13 AND PUSH1 0x0 SWAP1 DUP2 MSTORE PUSH1 0xA PUSH1 0x20 MSTORE DUP2 SWAP1 KECCAK256 SWAP1 MLOAD PUSH2 0x14F4 SWAP1 DUP13 SWAP1 DUP13 SWAP1 PUSH2 0x28E4 JUMP JUMPDEST SWAP1 DUP2 MSTORE PUSH1 0x40 DUP1 MLOAD SWAP2 DUP3 SWAP1 SUB PUSH1 0x20 SWAP1 DUP2 ADD DUP4 KECCAK256 DUP5 MLOAD DUP2 SLOAD SWAP3 DUP7 ADD MLOAD PUSH1 0x1 PUSH1 0x1 PUSH1 0xA0 SHL SUB AND PUSH1 0x1 PUSH1 0x40 SHL MUL PUSH1 0x1 PUSH1 0x1 PUSH1 0xE0 SHL SUB NOT SWAP1 SWAP4 AND PUSH1 0x1 PUSH1 0x1 PUSH1 0x40 SHL SUB SWAP1 SWAP2 AND OR SWAP2 SWAP1 SWAP2 OR DUP2 SSTORE SWAP3 ADD MLOAD PUSH1 0x1 SWAP1 SWAP3 ADD SWAP2 SWAP1 SWAP2 SSTORE PUSH1 0x0 DUP1 MLOAD PUSH1 0x20 PUSH2 0x2F01 DUP4 CODECOPY DUP2 MLOAD SWAP2 MSTORE SWAP1 PUSH2 0x1570 SWAP1 DUP13 SWAP1 DUP13 SWAP1 DUP13 SWAP1 DUP13 SWAP1 DUP13 SWAP1 DUP12 SWAP1 DUP12 SWAP1 DUP11 SWAP1 PUSH2 0x2CCA JUMP JUMPDEST PUSH1 0x40 MLOAD DUP1 SWAP2 SUB SWAP1 LOG1 POP PUSH1 0x1 DUP1 SLOAD PUSH3 0xFF0000 NOT AND SWAP1 SSTORE JUMPDEST POP POP PUSH1 0xC DUP1 SLOAD PUSH2 0xFF00 NOT AND PUSH2 0x100 OR SWAP1 SSTORE POP POP POP POP POP POP POP JUMP JUMPDEST PUSH1 0xC SLOAD PUSH1 0xFF AND PUSH1 0x1 EQ PUSH2 0x15FF JUMPI PUSH1 0x40 MLOAD PUSH3 0x461BCD PUSH1 0xE5 SHL DUP2 MSTORE PUSH1 0x20 PUSH1 0x4 DUP3 ADD MSTORE PUSH1 0x21 PUSH1 0x24 DUP3 ADD MSTORE PUSH32 0x4C617965725A65726F4D6F636B3A206E6F2073656E64207265656E7472616E63 PUSH1 0x44 DUP3 ADD MSTORE PUSH1 0x79 PUSH1 0xF8 SHL PUSH1 0x64 DUP3 ADD MSTORE PUSH1 0x84 ADD PUSH2 0xBA9 JUMP JUMPDEST PUSH1 0xC DUP1 SLOAD PUSH1 0xFF NOT AND PUSH1 0x2 OR SWAP1 SSTORE DUP6 MLOAD PUSH1 0x28 EQ PUSH2 0x1672 JUMPI PUSH1 0x40 MLOAD PUSH3 0x461BCD PUSH1 0xE5 SHL DUP2 MSTORE PUSH1 0x20 PUSH1 0x4 DUP3 ADD MSTORE PUSH1 0x2C PUSH1 0x24 DUP3 ADD MSTORE PUSH32 0x4C617965725A65726F4D6F636B3A20696E636F72726563742072656D6F746520 PUSH1 0x44 DUP3 ADD MSTORE PUSH12 0x616464726573732073697A65 PUSH1 0xA0 SHL PUSH1 0x64 DUP3 ADD MSTORE PUSH1 0x84 ADD PUSH2 0xBA9 JUMP JUMPDEST DUP1 MLOAD DUP8 SWAP1 PUSH1 0x0 SWAP1 PUSH2 0x170D JUMPI PUSH1 0x7 DUP1 SLOAD PUSH2 0x168A SWAP1 PUSH2 0x28F4 JUMP JUMPDEST DUP1 PUSH1 0x1F ADD PUSH1 0x20 DUP1 SWAP2 DIV MUL PUSH1 0x20 ADD PUSH1 0x40 MLOAD SWAP1 DUP2 ADD PUSH1 0x40 MSTORE DUP1 SWAP3 SWAP2 SWAP1 DUP2 DUP2 MSTORE PUSH1 0x20 ADD DUP3 DUP1 SLOAD PUSH2 0x16B6 SWAP1 PUSH2 0x28F4 JUMP JUMPDEST DUP1 ISZERO PUSH2 0x1703 JUMPI DUP1 PUSH1 0x1F LT PUSH2 0x16D8 JUMPI PUSH2 0x100 DUP1 DUP4 SLOAD DIV MUL DUP4 MSTORE SWAP2 PUSH1 0x20 ADD SWAP2 PUSH2 0x1703 JUMP JUMPDEST DUP3 ADD SWAP2 SWAP1 PUSH1 0x0 MSTORE PUSH1 0x20 PUSH1 0x0 KECCAK256 SWAP1 JUMPDEST DUP2 SLOAD DUP2 MSTORE SWAP1 PUSH1 0x1 ADD SWAP1 PUSH1 0x20 ADD DUP1 DUP4 GT PUSH2 0x16E6 JUMPI DUP3 SWAP1 SUB PUSH1 0x1F AND DUP3 ADD SWAP2 JUMPDEST POP POP POP POP POP PUSH2 0x170F JUMP JUMPDEST DUP3 JUMPDEST SWAP1 POP PUSH1 0x0 PUSH2 0x1760 DUP4 CALLER DUP11 DUP11 DUP1 DUP1 PUSH1 0x1F ADD PUSH1 0x20 DUP1 SWAP2 DIV MUL PUSH1 0x20 ADD PUSH1 0x40 MLOAD SWAP1 DUP2 ADD PUSH1 0x40 MSTORE DUP1 SWAP4 SWAP3 SWAP2 SWAP1 DUP2 DUP2 MSTORE PUSH1 0x20 ADD DUP4 DUP4 DUP1 DUP3 DUP5 CALLDATACOPY PUSH1 0x0 SWAP3 ADD SWAP2 SWAP1 SWAP2 MSTORE POP POP POP POP PUSH1 0x1 PUSH1 0x1 PUSH1 0xA0 SHL SUB DUP10 AND ISZERO ISZERO DUP7 PUSH2 0xA54 JUMP JUMPDEST POP SWAP1 POP DUP1 CALLVALUE LT ISZERO PUSH2 0x17C5 JUMPI PUSH1 0x40 MLOAD PUSH3 0x461BCD PUSH1 0xE5 SHL DUP2 MSTORE PUSH1 0x20 PUSH1 0x4 DUP3 ADD MSTORE PUSH1 0x29 PUSH1 0x24 DUP3 ADD MSTORE PUSH32 0x4C617965725A65726F4D6F636B3A206E6F7420656E6F756768206E6174697665 PUSH1 0x44 DUP3 ADD MSTORE PUSH9 0x20666F722066656573 PUSH1 0xB8 SHL PUSH1 0x64 DUP3 ADD MSTORE PUSH1 0x84 ADD PUSH2 0xBA9 JUMP JUMPDEST PUSH2 0xFFFF DUP4 AND PUSH1 0x0 SWAP1 DUP2 MSTORE PUSH1 0x9 PUSH1 0x20 SWAP1 DUP2 MSTORE PUSH1 0x40 DUP1 DUP4 KECCAK256 CALLER DUP5 MSTORE SWAP1 SWAP2 MSTORE DUP2 KECCAK256 DUP1 SLOAD DUP3 SWAP1 PUSH2 0x17F9 SWAP1 PUSH1 0x1 PUSH1 0x1 PUSH1 0x40 SHL SUB AND PUSH2 0x2A69 JUMP JUMPDEST SWAP2 SWAP1 PUSH2 0x100 EXP DUP2 SLOAD DUP2 PUSH1 0x1 PUSH1 0x1 PUSH1 0x40 SHL SUB MUL NOT AND SWAP1 DUP4 PUSH1 0x1 PUSH1 0x1 PUSH1 0x40 SHL SUB AND MUL OR SWAP1 SSTORE SWAP1 POP PUSH1 0x0 DUP3 CALLVALUE PUSH2 0x182C SWAP2 SWAP1 PUSH2 0x2BB4 JUMP JUMPDEST SWAP1 POP DUP1 ISZERO PUSH2 0x18D9 JUMPI PUSH1 0x0 DUP9 PUSH1 0x1 PUSH1 0x1 PUSH1 0xA0 SHL SUB AND DUP3 PUSH1 0x40 MLOAD PUSH1 0x0 PUSH1 0x40 MLOAD DUP1 DUP4 SUB DUP2 DUP6 DUP8 GAS CALL SWAP3 POP POP POP RETURNDATASIZE DUP1 PUSH1 0x0 DUP2 EQ PUSH2 0x1881 JUMPI PUSH1 0x40 MLOAD SWAP2 POP PUSH1 0x1F NOT PUSH1 0x3F RETURNDATASIZE ADD AND DUP3 ADD PUSH1 0x40 MSTORE RETURNDATASIZE DUP3 MSTORE RETURNDATASIZE PUSH1 0x0 PUSH1 0x20 DUP5 ADD RETURNDATACOPY PUSH2 0x1886 JUMP JUMPDEST PUSH1 0x60 SWAP2 POP JUMPDEST POP POP SWAP1 POP DUP1 PUSH2 0x18D7 JUMPI PUSH1 0x40 MLOAD PUSH3 0x461BCD PUSH1 0xE5 SHL DUP2 MSTORE PUSH1 0x20 PUSH1 0x4 DUP3 ADD MSTORE PUSH1 0x1F PUSH1 0x24 DUP3 ADD MSTORE PUSH32 0x4C617965725A65726F4D6F636B3A206661696C656420746F20726566756E6400 PUSH1 0x44 DUP3 ADD MSTORE PUSH1 0x64 ADD PUSH2 0xBA9 JUMP JUMPDEST POP JUMPDEST PUSH1 0x0 DUP1 PUSH1 0x0 PUSH2 0x18E7 DUP8 PUSH2 0x1FCA JUMP JUMPDEST SWAP2 SWAP6 POP SWAP4 POP SWAP2 POP POP DUP2 ISZERO PUSH2 0x1989 JUMPI PUSH1 0x0 DUP2 PUSH1 0x1 PUSH1 0x1 PUSH1 0xA0 SHL SUB AND DUP4 PUSH1 0x40 MLOAD PUSH1 0x0 PUSH1 0x40 MLOAD DUP1 DUP4 SUB DUP2 DUP6 DUP8 GAS CALL SWAP3 POP POP POP RETURNDATASIZE DUP1 PUSH1 0x0 DUP2 EQ PUSH2 0x1942 JUMPI PUSH1 0x40 MLOAD SWAP2 POP PUSH1 0x1F NOT PUSH1 0x3F RETURNDATASIZE ADD AND DUP3 ADD PUSH1 0x40 MSTORE RETURNDATASIZE DUP3 MSTORE RETURNDATASIZE PUSH1 0x0 PUSH1 0x20 DUP5 ADD RETURNDATACOPY PUSH2 0x1947 JUMP JUMPDEST PUSH1 0x60 SWAP2 POP JUMPDEST POP POP SWAP1 POP DUP1 PUSH2 0x1987 JUMPI PUSH1 0x40 MLOAD DUP4 SWAP1 PUSH1 0x1 PUSH1 0x1 PUSH1 0xA0 SHL SUB DUP5 AND SWAP1 PUSH32 0x2C7A964CA3DE5EC1D42D9822F9BBD0EB142A59CC9F855E9D93813B773192C7A3 SWAP1 PUSH1 0x0 SWAP1 LOG3 JUMPDEST POP JUMPDEST PUSH1 0x0 PUSH1 0x14 DUP16 ADD MLOAD SWAP1 POP PUSH1 0x0 DUP15 DUP15 DUP1 DUP1 PUSH1 0x1F ADD PUSH1 0x20 DUP1 SWAP2 DIV MUL PUSH1 0x20 ADD PUSH1 0x40 MLOAD SWAP1 DUP2 ADD PUSH1 0x40 MSTORE DUP1 SWAP4 SWAP3 SWAP2 SWAP1 DUP2 DUP2 MSTORE PUSH1 0x20 ADD DUP4 DUP4 DUP1 DUP3 DUP5 CALLDATACOPY PUSH1 0x0 SWAP3 ADD DUP3 SWAP1 MSTORE POP PUSH1 0x1 SLOAD PUSH1 0x40 MLOAD SWAP6 SWAP7 POP SWAP1 SWAP5 PUSH2 0x19F1 SWAP5 POP DUP13 SWAP4 POP PUSH2 0xFFFF SWAP1 SWAP2 AND SWAP2 POP CALLER SWAP1 DUP16 SWAP1 DUP9 SWAP1 DUP9 SWAP1 PUSH1 0x20 ADD PUSH2 0x2D3C JUMP JUMPDEST PUSH1 0x40 MLOAD PUSH1 0x20 DUP2 DUP4 SUB SUB DUP2 MSTORE SWAP1 PUSH1 0x40 MSTORE SWAP1 POP PUSH32 0xE9BDED5F24A4168E4F3BF44E00298C993B22376AAD8C58C7DDA9718A54CBEA82 DUP2 PUSH1 0x40 MLOAD PUSH2 0x1A31 SWAP2 SWAP1 PUSH2 0x23DB JUMP JUMPDEST PUSH1 0x40 MLOAD DUP1 SWAP2 SUB SWAP1 LOG1 PUSH1 0x1 SLOAD PUSH4 0x1000000 SWAP1 DIV PUSH1 0xFF AND ISZERO PUSH2 0x1B87 JUMPI PUSH1 0x1 PUSH1 0x1 PUSH1 0xA0 SHL SUB DUP1 DUP5 AND PUSH1 0x0 SWAP1 DUP2 MSTORE PUSH1 0x20 DUP2 SWAP1 MSTORE PUSH1 0x40 SWAP1 KECCAK256 SLOAD AND DUP1 PUSH2 0x1AD3 JUMPI PUSH1 0x40 MLOAD PUSH3 0x461BCD PUSH1 0xE5 SHL DUP2 MSTORE PUSH1 0x20 PUSH1 0x4 DUP3 ADD MSTORE PUSH1 0x37 PUSH1 0x24 DUP3 ADD MSTORE PUSH32 0x4C617965725A65726F4D6F636B3A2064657374696E6174696F6E204C61796572 PUSH1 0x44 DUP3 ADD MSTORE PUSH23 0x16995C9BC8115B991C1BDA5B9D081B9BDD08199BDD5B99 PUSH1 0x4A SHL PUSH1 0x64 DUP3 ADD MSTORE PUSH1 0x84 ADD PUSH2 0xBA9 JUMP JUMPDEST PUSH1 0x40 MLOAD PUSH1 0x1 PUSH1 0x1 PUSH1 0x60 SHL SUB NOT CALLER PUSH1 0x60 SWAP1 DUP2 SHL DUP3 AND PUSH1 0x20 DUP5 ADD MSTORE DUP7 SWAP1 SHL AND PUSH1 0x34 DUP3 ADD MSTORE PUSH1 0x0 SWAP1 PUSH1 0x48 ADD PUSH1 0x40 MLOAD PUSH1 0x20 DUP2 DUP4 SUB SUB DUP2 MSTORE SWAP1 PUSH1 0x40 MSTORE SWAP1 POP DUP2 PUSH1 0x1 PUSH1 0x1 PUSH1 0xA0 SHL SUB AND PUSH4 0xC2FA4813 PUSH1 0x1 PUSH1 0x0 SWAP1 SLOAD SWAP1 PUSH2 0x100 EXP SWAP1 DIV PUSH2 0xFFFF AND DUP4 DUP9 DUP15 DUP14 DUP11 PUSH1 0x40 MLOAD DUP8 PUSH4 0xFFFFFFFF AND PUSH1 0xE0 SHL DUP2 MSTORE PUSH1 0x4 ADD PUSH2 0x1B52 SWAP7 SWAP6 SWAP5 SWAP4 SWAP3 SWAP2 SWAP1 PUSH2 0x2DB9 JUMP JUMPDEST PUSH1 0x0 PUSH1 0x40 MLOAD DUP1 DUP4 SUB DUP2 PUSH1 0x0 DUP8 DUP1 EXTCODESIZE ISZERO DUP1 ISZERO PUSH2 0x1B6C JUMPI PUSH1 0x0 DUP1 REVERT JUMPDEST POP GAS CALL ISZERO DUP1 ISZERO PUSH2 0x1B80 JUMPI RETURNDATASIZE PUSH1 0x0 DUP1 RETURNDATACOPY RETURNDATASIZE PUSH1 0x0 REVERT JUMPDEST POP POP POP POP POP POP JUMPDEST POP POP PUSH1 0xC DUP1 SLOAD PUSH1 0xFF NOT AND PUSH1 0x1 OR SWAP1 SSTORE POP POP POP POP POP POP POP POP POP POP POP POP POP POP POP POP JUMP JUMPDEST PUSH1 0x7 PUSH2 0x1BB4 DUP3 DUP3 PUSH2 0x2AFB JUMP JUMPDEST POP POP JUMP JUMPDEST PUSH2 0xFFFF DUP4 AND PUSH1 0x0 SWAP1 DUP2 MSTORE PUSH1 0x8 PUSH1 0x20 MSTORE PUSH1 0x40 DUP1 DUP3 KECCAK256 SWAP1 MLOAD PUSH2 0x1BDB SWAP1 DUP6 SWAP1 DUP6 SWAP1 PUSH2 0x28E4 JUMP JUMPDEST SWAP1 DUP2 MSTORE PUSH1 0x40 MLOAD SWAP1 DUP2 SWAP1 SUB PUSH1 0x20 ADD SWAP1 KECCAK256 SLOAD PUSH1 0x1 PUSH1 0x1 PUSH1 0x40 SHL SUB AND SWAP1 POP SWAP4 SWAP3 POP POP POP JUMP JUMPDEST PUSH1 0x0 DUP1 PUSH1 0x0 DUP1 PUSH2 0x1C0C DUP6 PUSH2 0x1FCA JUMP JUMPDEST POP SWAP3 POP SWAP3 POP SWAP3 POP PUSH1 0x0 DUP4 PUSH2 0xFFFF AND PUSH1 0x2 SUB PUSH2 0x1C98 JUMPI PUSH1 0x3 SLOAD PUSH1 0x1 PUSH1 0x1 PUSH1 0x80 SHL SUB AND DUP3 GT ISZERO PUSH2 0x1C8B JUMPI PUSH1 0x40 MLOAD PUSH3 0x461BCD PUSH1 0xE5 SHL DUP2 MSTORE PUSH1 0x20 PUSH1 0x4 DUP3 ADD MSTORE PUSH1 0x26 PUSH1 0x24 DUP3 ADD MSTORE PUSH32 0x4C617965725A65726F4D6F636B3A206473744E6174697665416D7420746F6F20 PUSH1 0x44 DUP3 ADD MSTORE PUSH6 0x3630B933B29 PUSH1 0xD5 SHL PUSH1 0x64 DUP3 ADD MSTORE PUSH1 0x84 ADD PUSH2 0xBA9 JUMP JUMPDEST PUSH2 0x1C95 DUP3 DUP3 PUSH2 0x2944 JUMP JUMPDEST SWAP1 POP JUMPDEST PUSH1 0x3 SLOAD PUSH1 0x0 SWAP1 PUSH2 0x1CB9 SWAP1 DUP6 SWAP1 PUSH1 0x1 PUSH1 0x80 SHL SWAP1 DIV PUSH1 0x1 PUSH1 0x1 PUSH1 0x40 SHL SUB AND PUSH2 0x2944 JUMP JUMPDEST PUSH1 0x2 SLOAD PUSH2 0x1CD6 SWAP2 SWAP1 PUSH1 0x1 PUSH1 0x80 SHL SWAP1 DIV PUSH1 0x1 PUSH1 0x1 PUSH1 0x80 SHL SUB AND PUSH2 0x2E0D JUMP JUMPDEST SWAP1 POP PUSH2 0x1CE2 DUP2 DUP4 PUSH2 0x2944 JUMP JUMPDEST PUSH1 0x2 SLOAD SWAP1 SWAP3 POP PUSH1 0x0 SWAP1 PUSH5 0x2540BE400 SWAP1 PUSH2 0x1D05 SWAP1 PUSH1 0x1 PUSH1 0x1 PUSH1 0x80 SHL SUB AND DUP6 PUSH2 0x2E0D JUMP JUMPDEST PUSH2 0x1D0F SWAP2 SWAP1 PUSH2 0x2E3A JUMP JUMPDEST PUSH1 0x2 SLOAD PUSH1 0x3 SLOAD SWAP2 SWAP3 POP PUSH1 0x0 SWAP2 PUSH5 0x2540BE400 SWAP2 PUSH1 0x1 PUSH1 0x1 PUSH1 0x80 SHL SUB DUP1 DUP3 AND SWAP3 PUSH2 0x1D52 SWAP3 PUSH1 0x1 PUSH1 0xC0 SHL SWAP1 SWAP2 DIV PUSH1 0x1 PUSH1 0x1 PUSH1 0x40 SHL SUB AND SWAP2 PUSH1 0x1 PUSH1 0x80 SHL SWAP1 SWAP2 DIV AND PUSH2 0x2E4E JUMP JUMPDEST PUSH2 0x1D5C SWAP2 SWAP1 PUSH2 0x2E4E JUMP JUMPDEST PUSH2 0x1D66 SWAP2 SWAP1 PUSH2 0x2E79 JUMP JUMPDEST PUSH1 0x1 PUSH1 0x1 PUSH1 0x80 SHL SUB AND SWAP1 POP PUSH2 0x1D7B DUP2 DUP12 PUSH2 0x2E0D JUMP JUMPDEST PUSH2 0x1D85 SWAP1 DUP4 PUSH2 0x2944 JUMP JUMPDEST SWAP14 SWAP13 POP POP POP POP POP POP POP POP POP POP POP POP POP JUMP JUMPDEST PUSH1 0x0 DUP4 ISZERO PUSH2 0x1DA7 JUMPI POP PUSH1 0x4 SLOAD PUSH2 0x8C2 JUMP JUMPDEST PUSH1 0x5 SLOAD PUSH2 0x2710 SWAP1 PUSH2 0x1DB8 DUP5 DUP7 PUSH2 0x2944 JUMP JUMPDEST PUSH2 0x1DC2 SWAP2 SWAP1 PUSH2 0x2E0D JUMP JUMPDEST PUSH2 0x1DCC SWAP2 SWAP1 PUSH2 0x2E3A JUMP JUMPDEST SWAP1 POP PUSH2 0x8C2 JUMP JUMPDEST PUSH2 0xFFFF DUP4 AND PUSH1 0x0 SWAP1 DUP2 MSTORE PUSH1 0xB PUSH1 0x20 MSTORE PUSH1 0x40 DUP1 DUP3 KECCAK256 SWAP1 MLOAD PUSH2 0x1DF6 SWAP1 DUP6 SWAP1 DUP6 SWAP1 PUSH2 0x28E4 JUMP JUMPDEST SWAP1 DUP2 MSTORE PUSH1 0x20 ADD PUSH1 0x40 MLOAD DUP1 SWAP2 SUB SWAP1 KECCAK256 SWAP1 POP JUMPDEST DUP1 SLOAD ISZERO PUSH2 0x78D JUMPI DUP1 SLOAD PUSH1 0x0 SWAP1 DUP3 SWAP1 PUSH2 0x1E21 SWAP1 PUSH1 0x1 SWAP1 PUSH2 0x2BB4 JUMP JUMPDEST DUP2 SLOAD DUP2 LT PUSH2 0x1E31 JUMPI PUSH2 0x1E31 PUSH2 0x2BC7 JUMP JUMPDEST PUSH1 0x0 SWAP2 DUP3 MSTORE PUSH1 0x20 SWAP2 DUP3 SWAP1 KECCAK256 PUSH1 0x40 DUP1 MLOAD PUSH1 0x60 DUP2 ADD DUP3 MSTORE PUSH1 0x2 SWAP1 SWAP4 MUL SWAP1 SWAP2 ADD DUP1 SLOAD PUSH1 0x1 PUSH1 0x1 PUSH1 0xA0 SHL SUB DUP2 AND DUP5 MSTORE PUSH1 0x1 PUSH1 0x1 PUSH1 0x40 SHL SUB PUSH1 0x1 PUSH1 0xA0 SHL SWAP1 SWAP2 DIV AND SWAP4 DUP4 ADD SWAP4 SWAP1 SWAP4 MSTORE PUSH1 0x1 DUP4 ADD DUP1 SLOAD SWAP3 SWAP4 SWAP3 SWAP2 DUP5 ADD SWAP2 PUSH2 0x1E8A SWAP1 PUSH2 0x28F4 JUMP JUMPDEST DUP1 PUSH1 0x1F ADD PUSH1 0x20 DUP1 SWAP2 DIV MUL PUSH1 0x20 ADD PUSH1 0x40 MLOAD SWAP1 DUP2 ADD PUSH1 0x40 MSTORE DUP1 SWAP3 SWAP2 SWAP1 DUP2 DUP2 MSTORE PUSH1 0x20 ADD DUP3 DUP1 SLOAD PUSH2 0x1EB6 SWAP1 PUSH2 0x28F4 JUMP JUMPDEST DUP1 ISZERO PUSH2 0x1F03 JUMPI DUP1 PUSH1 0x1F LT PUSH2 0x1ED8 JUMPI PUSH2 0x100 DUP1 DUP4 SLOAD DIV MUL DUP4 MSTORE SWAP2 PUSH1 0x20 ADD SWAP2 PUSH2 0x1F03 JUMP JUMPDEST DUP3 ADD SWAP2 SWAP1 PUSH1 0x0 MSTORE PUSH1 0x20 PUSH1 0x0 KECCAK256 SWAP1 JUMPDEST DUP2 SLOAD DUP2 MSTORE SWAP1 PUSH1 0x1 ADD SWAP1 PUSH1 0x20 ADD DUP1 DUP4 GT PUSH2 0x1EE6 JUMPI DUP3 SWAP1 SUB PUSH1 0x1F AND DUP3 ADD SWAP2 JUMPDEST POP POP POP POP POP DUP2 MSTORE POP POP SWAP1 POP DUP1 PUSH1 0x0 ADD MLOAD PUSH1 0x1 PUSH1 0x1 PUSH1 0xA0 SHL SUB AND PUSH3 0x1D3567 DUP7 DUP7 DUP7 DUP6 PUSH1 0x20 ADD MLOAD DUP7 PUSH1 0x40 ADD MLOAD PUSH1 0x40 MLOAD DUP7 PUSH4 0xFFFFFFFF AND PUSH1 0xE0 SHL DUP2 MSTORE PUSH1 0x4 ADD PUSH2 0x1F4D SWAP6 SWAP5 SWAP4 SWAP3 SWAP2 SWAP1 PUSH2 0x2E9F JUMP JUMPDEST PUSH1 0x0 PUSH1 0x40 MLOAD DUP1 DUP4 SUB DUP2 PUSH1 0x0 DUP8 DUP1 EXTCODESIZE ISZERO DUP1 ISZERO PUSH2 0x1F67 JUMPI PUSH1 0x0 DUP1 REVERT JUMPDEST POP GAS CALL ISZERO DUP1 ISZERO PUSH2 0x1F7B JUMPI RETURNDATASIZE PUSH1 0x0 DUP1 RETURNDATACOPY RETURNDATASIZE PUSH1 0x0 REVERT JUMPDEST POP POP POP POP DUP2 DUP1 SLOAD DUP1 PUSH2 0x1F8F JUMPI PUSH2 0x1F8F PUSH2 0x2EEA JUMP JUMPDEST PUSH1 0x0 DUP3 DUP2 MSTORE PUSH1 0x20 DUP2 KECCAK256 PUSH1 0x2 PUSH1 0x0 NOT SWAP1 SWAP4 ADD SWAP3 DUP4 MUL ADD DUP1 SLOAD PUSH1 0x1 PUSH1 0x1 PUSH1 0xE0 SHL SUB NOT AND DUP2 SSTORE SWAP1 PUSH2 0x1FC0 PUSH1 0x1 DUP4 ADD DUP3 PUSH2 0x20E9 JUMP JUMPDEST POP POP SWAP1 SSTORE POP PUSH2 0x1E07 JUMP JUMPDEST PUSH1 0x0 DUP1 PUSH1 0x0 DUP1 DUP5 MLOAD PUSH1 0x22 EQ DUP1 PUSH2 0x1FE1 JUMPI POP PUSH1 0x42 DUP6 MLOAD GT JUMPDEST PUSH2 0x2025 JUMPI PUSH1 0x40 MLOAD PUSH3 0x461BCD PUSH1 0xE5 SHL DUP2 MSTORE PUSH1 0x20 PUSH1 0x4 DUP3 ADD MSTORE PUSH1 0x15 PUSH1 0x24 DUP3 ADD MSTORE PUSH21 0x496E76616C69642061646170746572506172616D73 PUSH1 0x58 SHL PUSH1 0x44 DUP3 ADD MSTORE PUSH1 0x64 ADD PUSH2 0xBA9 JUMP JUMPDEST PUSH1 0x2 DUP6 ADD MLOAD SWAP4 POP PUSH1 0x22 DUP6 ADD MLOAD SWAP3 POP DUP4 PUSH2 0xFFFF AND PUSH1 0x1 EQ DUP1 PUSH2 0x204A JUMPI POP DUP4 PUSH2 0xFFFF AND PUSH1 0x2 EQ JUMPDEST PUSH2 0x208B JUMPI PUSH1 0x40 MLOAD PUSH3 0x461BCD PUSH1 0xE5 SHL DUP2 MSTORE PUSH1 0x20 PUSH1 0x4 DUP3 ADD MSTORE PUSH1 0x12 PUSH1 0x24 DUP3 ADD MSTORE PUSH18 0x556E737570706F7274656420747854797065 PUSH1 0x70 SHL PUSH1 0x44 DUP3 ADD MSTORE PUSH1 0x64 ADD PUSH2 0xBA9 JUMP JUMPDEST PUSH1 0x0 DUP4 GT PUSH2 0x20C9 JUMPI PUSH1 0x40 MLOAD PUSH3 0x461BCD PUSH1 0xE5 SHL DUP2 MSTORE PUSH1 0x20 PUSH1 0x4 DUP3 ADD MSTORE PUSH1 0xB PUSH1 0x24 DUP3 ADD MSTORE PUSH11 0x47617320746F6F206C6F77 PUSH1 0xA8 SHL PUSH1 0x44 DUP3 ADD MSTORE PUSH1 0x64 ADD PUSH2 0xBA9 JUMP JUMPDEST DUP4 PUSH2 0xFFFF AND PUSH1 0x2 SUB PUSH2 0x20E2 JUMPI POP POP PUSH1 0x42 DUP4 ADD MLOAD PUSH1 0x56 DUP5 ADD MLOAD JUMPDEST SWAP2 SWAP4 POP SWAP2 SWAP4 JUMP JUMPDEST POP DUP1 SLOAD PUSH2 0x20F5 SWAP1 PUSH2 0x28F4 JUMP JUMPDEST PUSH1 0x0 DUP3 SSTORE DUP1 PUSH1 0x1F LT PUSH2 0x2105 JUMPI POP POP JUMP JUMPDEST PUSH1 0x1F ADD PUSH1 0x20 SWAP1 DIV SWAP1 PUSH1 0x0 MSTORE PUSH1 0x20 PUSH1 0x0 KECCAK256 SWAP1 DUP2 ADD SWAP1 PUSH2 0x20A SWAP2 SWAP1 JUMPDEST DUP1 DUP3 GT ISZERO PUSH2 0x2133 JUMPI PUSH1 0x0 DUP2 SSTORE PUSH1 0x1 ADD PUSH2 0x211F JUMP JUMPDEST POP SWAP1 JUMP JUMPDEST DUP1 CALLDATALOAD PUSH2 0xFFFF DUP2 AND DUP2 EQ PUSH2 0x2149 JUMPI PUSH1 0x0 DUP1 REVERT JUMPDEST SWAP2 SWAP1 POP JUMP JUMPDEST PUSH1 0x0 PUSH1 0x20 DUP3 DUP5 SUB SLT ISZERO PUSH2 0x2160 JUMPI PUSH1 0x0 DUP1 REVERT JUMPDEST PUSH2 0x8C2 DUP3 PUSH2 0x2137 JUMP JUMPDEST PUSH1 0x1 PUSH1 0x1 PUSH1 0xA0 SHL SUB DUP2 AND DUP2 EQ PUSH2 0x20A JUMPI PUSH1 0x0 DUP1 REVERT JUMPDEST PUSH1 0x0 PUSH1 0x20 DUP3 DUP5 SUB SLT ISZERO PUSH2 0x2190 JUMPI PUSH1 0x0 DUP1 REVERT JUMPDEST DUP2 CALLDATALOAD PUSH2 0x8C2 DUP2 PUSH2 0x2169 JUMP JUMPDEST PUSH1 0x0 DUP1 DUP4 PUSH1 0x1F DUP5 ADD SLT PUSH2 0x21AD JUMPI PUSH1 0x0 DUP1 REVERT JUMPDEST POP DUP2 CALLDATALOAD PUSH1 0x1 PUSH1 0x1 PUSH1 0x40 SHL SUB DUP2 GT ISZERO PUSH2 0x21C4 JUMPI PUSH1 0x0 DUP1 REVERT JUMPDEST PUSH1 0x20 DUP4 ADD SWAP2 POP DUP4 PUSH1 0x20 DUP3 DUP6 ADD ADD GT ISZERO PUSH2 0x21DC JUMPI PUSH1 0x0 DUP1 REVERT JUMPDEST SWAP3 POP SWAP3 SWAP1 POP JUMP JUMPDEST PUSH1 0x0 DUP1 PUSH1 0x0 PUSH1 0x40 DUP5 DUP7 SUB SLT ISZERO PUSH2 0x21F8 JUMPI PUSH1 0x0 DUP1 REVERT JUMPDEST PUSH2 0x2201 DUP5 PUSH2 0x2137 JUMP JUMPDEST SWAP3 POP PUSH1 0x20 DUP5 ADD CALLDATALOAD PUSH1 0x1 PUSH1 0x1 PUSH1 0x40 SHL SUB DUP2 GT ISZERO PUSH2 0x221C JUMPI PUSH1 0x0 DUP1 REVERT JUMPDEST PUSH2 0x2228 DUP7 DUP3 DUP8 ADD PUSH2 0x219B JUMP JUMPDEST SWAP5 SWAP8 SWAP1 SWAP7 POP SWAP4 SWAP5 POP POP POP POP JUMP JUMPDEST PUSH4 0x4E487B71 PUSH1 0xE0 SHL PUSH1 0x0 MSTORE PUSH1 0x41 PUSH1 0x4 MSTORE PUSH1 0x24 PUSH1 0x0 REVERT JUMPDEST PUSH1 0x0 DUP3 PUSH1 0x1F DUP4 ADD SLT PUSH2 0x225C JUMPI PUSH1 0x0 DUP1 REVERT JUMPDEST DUP2 CALLDATALOAD PUSH1 0x1 PUSH1 0x1 PUSH1 0x40 SHL SUB DUP1 DUP3 GT ISZERO PUSH2 0x2276 JUMPI PUSH2 0x2276 PUSH2 0x2235 JUMP JUMPDEST PUSH1 0x40 MLOAD PUSH1 0x1F DUP4 ADD PUSH1 0x1F NOT SWAP1 DUP2 AND PUSH1 0x3F ADD AND DUP2 ADD SWAP1 DUP3 DUP3 GT DUP2 DUP4 LT OR ISZERO PUSH2 0x229E JUMPI PUSH2 0x229E PUSH2 0x2235 JUMP JUMPDEST DUP2 PUSH1 0x40 MSTORE DUP4 DUP2 MSTORE DUP7 PUSH1 0x20 DUP6 DUP9 ADD ADD GT ISZERO PUSH2 0x22B7 JUMPI PUSH1 0x0 DUP1 REVERT JUMPDEST DUP4 PUSH1 0x20 DUP8 ADD PUSH1 0x20 DUP4 ADD CALLDATACOPY PUSH1 0x0 PUSH1 0x20 DUP6 DUP4 ADD ADD MSTORE DUP1 SWAP5 POP POP POP POP POP SWAP3 SWAP2 POP POP JUMP JUMPDEST PUSH1 0x0 DUP1 PUSH1 0x0 PUSH1 0x60 DUP5 DUP7 SUB SLT ISZERO PUSH2 0x22EC JUMPI PUSH1 0x0 DUP1 REVERT JUMPDEST PUSH2 0x22F5 DUP5 PUSH2 0x2137 JUMP JUMPDEST SWAP3 POP PUSH1 0x20 DUP5 ADD CALLDATALOAD PUSH1 0x1 PUSH1 0x1 PUSH1 0x40 SHL SUB DUP2 GT ISZERO PUSH2 0x2310 JUMPI PUSH1 0x0 DUP1 REVERT JUMPDEST PUSH2 0x231C DUP7 DUP3 DUP8 ADD PUSH2 0x224B JUMP JUMPDEST SWAP3 POP POP PUSH1 0x40 DUP5 ADD CALLDATALOAD SWAP1 POP SWAP3 POP SWAP3 POP SWAP3 JUMP JUMPDEST PUSH1 0x0 JUMPDEST DUP4 DUP2 LT ISZERO PUSH2 0x2348 JUMPI DUP2 DUP2 ADD MLOAD DUP4 DUP3 ADD MSTORE PUSH1 0x20 ADD PUSH2 0x2330 JUMP JUMPDEST POP POP PUSH1 0x0 SWAP2 ADD MSTORE JUMP JUMPDEST PUSH1 0x0 DUP2 MLOAD DUP1 DUP5 MSTORE PUSH2 0x2369 DUP2 PUSH1 0x20 DUP7 ADD PUSH1 0x20 DUP7 ADD PUSH2 0x232D JUMP JUMPDEST PUSH1 0x1F ADD PUSH1 0x1F NOT AND SWAP3 SWAP1 SWAP3 ADD PUSH1 0x20 ADD SWAP3 SWAP2 POP POP JUMP JUMPDEST PUSH1 0x1 PUSH1 0x1 PUSH1 0xA0 SHL SUB DUP5 AND DUP2 MSTORE PUSH1 0x1 PUSH1 0x1 PUSH1 0x40 SHL SUB DUP4 AND PUSH1 0x20 DUP3 ADD MSTORE PUSH1 0x60 PUSH1 0x40 DUP3 ADD DUP2 SWAP1 MSTORE PUSH1 0x0 SWAP1 PUSH2 0x23B0 SWAP1 DUP4 ADD DUP5 PUSH2 0x2351 JUMP JUMPDEST SWAP6 SWAP5 POP POP POP POP POP JUMP JUMPDEST PUSH1 0x0 DUP1 PUSH1 0x40 DUP4 DUP6 SUB SLT ISZERO PUSH2 0x23CC JUMPI PUSH1 0x0 DUP1 REVERT JUMPDEST POP POP DUP1 CALLDATALOAD SWAP3 PUSH1 0x20 SWAP1 SWAP2 ADD CALLDATALOAD SWAP2 POP JUMP JUMPDEST PUSH1 0x20 DUP2 MSTORE PUSH1 0x0 PUSH2 0x8C2 PUSH1 0x20 DUP4 ADD DUP5 PUSH2 0x2351 JUMP JUMPDEST DUP1 CALLDATALOAD PUSH1 0x1 PUSH1 0x1 PUSH1 0x80 SHL SUB DUP2 AND DUP2 EQ PUSH2 0x2149 JUMPI PUSH1 0x0 DUP1 REVERT JUMPDEST DUP1 CALLDATALOAD PUSH1 0x1 PUSH1 0x1 PUSH1 0x40 SHL SUB DUP2 AND DUP2 EQ PUSH2 0x2149 JUMPI PUSH1 0x0 DUP1 REVERT JUMPDEST PUSH1 0x0 DUP1 PUSH1 0x0 DUP1 PUSH1 0x0 PUSH1 0xA0 DUP7 DUP9 SUB SLT ISZERO PUSH2 0x2434 JUMPI PUSH1 0x0 DUP1 REVERT JUMPDEST PUSH2 0x243D DUP7 PUSH2 0x23EE JUMP JUMPDEST SWAP5 POP PUSH2 0x244B PUSH1 0x20 DUP8 ADD PUSH2 0x23EE JUMP JUMPDEST SWAP4 POP PUSH2 0x2459 PUSH1 0x40 DUP8 ADD PUSH2 0x23EE JUMP JUMPDEST SWAP3 POP PUSH2 0x2467 PUSH1 0x60 DUP8 ADD PUSH2 0x2405 JUMP JUMPDEST SWAP2 POP PUSH2 0x2475 PUSH1 0x80 DUP8 ADD PUSH2 0x2405 JUMP JUMPDEST SWAP1 POP SWAP3 SWAP6 POP SWAP3 SWAP6 SWAP1 SWAP4 POP JUMP JUMPDEST DUP1 CALLDATALOAD DUP1 ISZERO ISZERO DUP2 EQ PUSH2 0x2149 JUMPI PUSH1 0x0 DUP1 REVERT JUMPDEST PUSH1 0x0 DUP1 PUSH1 0x0 DUP1 PUSH1 0x0 PUSH1 0xA0 DUP7 DUP9 SUB SLT ISZERO PUSH2 0x24A9 JUMPI PUSH1 0x0 DUP1 REVERT JUMPDEST PUSH2 0x24B2 DUP7 PUSH2 0x2137 JUMP JUMPDEST SWAP5 POP PUSH1 0x20 DUP7 ADD CALLDATALOAD PUSH2 0x24C2 DUP2 PUSH2 0x2169 JUMP JUMPDEST SWAP4 POP PUSH1 0x40 DUP7 ADD CALLDATALOAD PUSH1 0x1 PUSH1 0x1 PUSH1 0x40 SHL SUB DUP1 DUP3 GT ISZERO PUSH2 0x24DE JUMPI PUSH1 0x0 DUP1 REVERT JUMPDEST PUSH2 0x24EA DUP10 DUP4 DUP11 ADD PUSH2 0x224B JUMP JUMPDEST SWAP5 POP PUSH2 0x24F8 PUSH1 0x60 DUP10 ADD PUSH2 0x2481 JUMP JUMPDEST SWAP4 POP PUSH1 0x80 DUP9 ADD CALLDATALOAD SWAP2 POP DUP1 DUP3 GT ISZERO PUSH2 0x250E JUMPI PUSH1 0x0 DUP1 REVERT JUMPDEST POP PUSH2 0x251B DUP9 DUP3 DUP10 ADD PUSH2 0x224B JUMP JUMPDEST SWAP2 POP POP SWAP3 SWAP6 POP SWAP3 SWAP6 SWAP1 SWAP4 POP JUMP JUMPDEST PUSH1 0x0 DUP1 PUSH1 0x40 DUP4 DUP6 SUB SLT ISZERO PUSH2 0x253B JUMPI PUSH1 0x0 DUP1 REVERT JUMPDEST PUSH2 0x2544 DUP4 PUSH2 0x2137 JUMP JUMPDEST SWAP2 POP PUSH1 0x20 DUP4 ADD CALLDATALOAD PUSH1 0x1 PUSH1 0x1 PUSH1 0x40 SHL SUB DUP2 GT ISZERO PUSH2 0x255F JUMPI PUSH1 0x0 DUP1 REVERT JUMPDEST PUSH2 0x256B DUP6 DUP3 DUP7 ADD PUSH2 0x224B JUMP JUMPDEST SWAP2 POP POP SWAP3 POP SWAP3 SWAP1 POP JUMP JUMPDEST PUSH1 0x0 DUP1 PUSH1 0x40 DUP4 DUP6 SUB SLT ISZERO PUSH2 0x2588 JUMPI PUSH1 0x0 DUP1 REVERT JUMPDEST PUSH2 0x2591 DUP4 PUSH2 0x2137 JUMP JUMPDEST SWAP2 POP PUSH1 0x20 DUP4 ADD CALLDATALOAD PUSH2 0x25A1 DUP2 PUSH2 0x2169 JUMP JUMPDEST DUP1 SWAP2 POP POP SWAP3 POP SWAP3 SWAP1 POP JUMP JUMPDEST PUSH1 0x0 DUP1 PUSH1 0x0 DUP1 PUSH1 0x0 PUSH1 0x60 DUP7 DUP9 SUB SLT ISZERO PUSH2 0x25C4 JUMPI PUSH1 0x0 DUP1 REVERT JUMPDEST PUSH2 0x25CD DUP7 PUSH2 0x2137 JUMP JUMPDEST SWAP5 POP PUSH1 0x20 DUP7 ADD CALLDATALOAD PUSH1 0x1 PUSH1 0x1 PUSH1 0x40 SHL SUB DUP1 DUP3 GT ISZERO PUSH2 0x25E9 JUMPI PUSH1 0x0 DUP1 REVERT JUMPDEST PUSH2 0x25F5 DUP10 DUP4 DUP11 ADD PUSH2 0x219B JUMP JUMPDEST SWAP1 SWAP7 POP SWAP5 POP PUSH1 0x40 DUP9 ADD CALLDATALOAD SWAP2 POP DUP1 DUP3 GT ISZERO PUSH2 0x260E JUMPI PUSH1 0x0 DUP1 REVERT JUMPDEST POP PUSH2 0x261B DUP9 DUP3 DUP10 ADD PUSH2 0x219B JUMP JUMPDEST SWAP7 SWAP10 SWAP6 SWAP9 POP SWAP4 SWAP7 POP SWAP3 SWAP5 SWAP4 SWAP3 POP POP POP JUMP JUMPDEST PUSH1 0x0 PUSH1 0x20 DUP3 DUP5 SUB SLT ISZERO PUSH2 0x263E JUMPI PUSH1 0x0 DUP1 REVERT JUMPDEST PUSH2 0x8C2 DUP3 PUSH2 0x2481 JUMP JUMPDEST PUSH1 0x0 PUSH1 0x20 DUP3 DUP5 SUB SLT ISZERO PUSH2 0x2659 JUMPI PUSH1 0x0 DUP1 REVERT JUMPDEST POP CALLDATALOAD SWAP2 SWAP1 POP JUMP JUMPDEST PUSH1 0x0 DUP1 PUSH1 0x40 DUP4 DUP6 SUB SLT ISZERO PUSH2 0x2673 JUMPI PUSH1 0x0 DUP1 REVERT JUMPDEST DUP3 CALLDATALOAD PUSH2 0x2591 DUP2 PUSH2 0x2169 JUMP JUMPDEST PUSH1 0x0 DUP1 PUSH1 0x0 DUP1 PUSH1 0x0 DUP1 PUSH1 0x0 DUP1 PUSH1 0xC0 DUP10 DUP12 SUB SLT ISZERO PUSH2 0x269A JUMPI PUSH1 0x0 DUP1 REVERT JUMPDEST PUSH2 0x26A3 DUP10 PUSH2 0x2137 JUMP JUMPDEST SWAP8 POP PUSH1 0x20 DUP10 ADD CALLDATALOAD PUSH1 0x1 PUSH1 0x1 PUSH1 0x40 SHL SUB DUP1 DUP3 GT ISZERO PUSH2 0x26BF JUMPI PUSH1 0x0 DUP1 REVERT JUMPDEST PUSH2 0x26CB DUP13 DUP4 DUP14 ADD PUSH2 0x219B JUMP JUMPDEST SWAP1 SWAP10 POP SWAP8 POP PUSH1 0x40 DUP12 ADD CALLDATALOAD SWAP2 POP PUSH2 0x26E0 DUP3 PUSH2 0x2169 JUMP JUMPDEST DUP2 SWAP7 POP PUSH2 0x26EF PUSH1 0x60 DUP13 ADD PUSH2 0x2405 JUMP JUMPDEST SWAP6 POP PUSH1 0x80 DUP12 ADD CALLDATALOAD SWAP5 POP PUSH1 0xA0 DUP12 ADD CALLDATALOAD SWAP2 POP DUP1 DUP3 GT ISZERO PUSH2 0x270C JUMPI PUSH1 0x0 DUP1 REVERT JUMPDEST POP PUSH2 0x2719 DUP12 DUP3 DUP13 ADD PUSH2 0x219B JUMP JUMPDEST SWAP10 SWAP13 SWAP9 SWAP12 POP SWAP7 SWAP10 POP SWAP5 SWAP8 SWAP4 SWAP7 SWAP3 SWAP6 SWAP5 POP POP POP JUMP JUMPDEST PUSH1 0x0 DUP1 PUSH1 0x0 DUP1 PUSH1 0x0 DUP1 PUSH1 0x0 PUSH1 0xC0 DUP9 DUP11 SUB SLT ISZERO PUSH2 0x2748 JUMPI PUSH1 0x0 DUP1 REVERT JUMPDEST PUSH2 0x2751 DUP9 PUSH2 0x2137 JUMP JUMPDEST SWAP7 POP PUSH1 0x20 DUP9 ADD CALLDATALOAD PUSH1 0x1 PUSH1 0x1 PUSH1 0x40 SHL SUB DUP1 DUP3 GT ISZERO PUSH2 0x276D JUMPI PUSH1 0x0 DUP1 REVERT JUMPDEST PUSH2 0x2779 DUP12 DUP4 DUP13 ADD PUSH2 0x224B JUMP JUMPDEST SWAP8 POP PUSH1 0x40 DUP11 ADD CALLDATALOAD SWAP2 POP DUP1 DUP3 GT ISZERO PUSH2 0x278F JUMPI PUSH1 0x0 DUP1 REVERT JUMPDEST PUSH2 0x279B DUP12 DUP4 DUP13 ADD PUSH2 0x219B JUMP JUMPDEST SWAP1 SWAP8 POP SWAP6 POP PUSH1 0x60 DUP11 ADD CALLDATALOAD SWAP2 POP PUSH2 0x27B0 DUP3 PUSH2 0x2169 JUMP JUMPDEST SWAP1 SWAP4 POP PUSH1 0x80 DUP10 ADD CALLDATALOAD SWAP1 PUSH2 0x27C2 DUP3 PUSH2 0x2169 JUMP JUMPDEST SWAP1 SWAP3 POP PUSH1 0xA0 DUP10 ADD CALLDATALOAD SWAP1 DUP1 DUP3 GT ISZERO PUSH2 0x27D8 JUMPI PUSH1 0x0 DUP1 REVERT JUMPDEST POP PUSH2 0x27E5 DUP11 DUP3 DUP12 ADD PUSH2 0x224B JUMP JUMPDEST SWAP2 POP POP SWAP3 SWAP6 SWAP9 SWAP2 SWAP5 SWAP8 POP SWAP3 SWAP6 POP JUMP JUMPDEST PUSH1 0x0 DUP1 PUSH1 0x0 DUP1 PUSH1 0x80 DUP6 DUP8 SUB SLT ISZERO PUSH2 0x280A JUMPI PUSH1 0x0 DUP1 REVERT JUMPDEST PUSH2 0x2813 DUP6 PUSH2 0x2137 JUMP JUMPDEST SWAP4 POP PUSH2 0x2821 PUSH1 0x20 DUP7 ADD PUSH2 0x2137 JUMP JUMPDEST SWAP3 POP PUSH1 0x40 DUP6 ADD CALLDATALOAD SWAP2 POP PUSH1 0x60 DUP6 ADD CALLDATALOAD PUSH1 0x1 PUSH1 0x1 PUSH1 0x40 SHL SUB DUP2 GT ISZERO PUSH2 0x2843 JUMPI PUSH1 0x0 DUP1 REVERT JUMPDEST PUSH2 0x284F DUP8 DUP3 DUP9 ADD PUSH2 0x224B JUMP JUMPDEST SWAP2 POP POP SWAP3 SWAP6 SWAP2 SWAP5 POP SWAP3 POP JUMP JUMPDEST PUSH1 0x0 DUP1 PUSH1 0x0 DUP1 PUSH1 0x80 DUP6 DUP8 SUB SLT ISZERO PUSH2 0x2871 JUMPI PUSH1 0x0 DUP1 REVERT JUMPDEST PUSH2 0x287A DUP6 PUSH2 0x2137 JUMP JUMPDEST SWAP4 POP PUSH2 0x2888 PUSH1 0x20 DUP7 ADD PUSH2 0x2137 JUMP JUMPDEST SWAP3 POP PUSH1 0x40 DUP6 ADD CALLDATALOAD PUSH2 0x2898 DUP2 PUSH2 0x2169 JUMP JUMPDEST SWAP4 SWAP7 SWAP3 SWAP6 POP SWAP3 SWAP4 PUSH1 0x60 ADD CALLDATALOAD SWAP3 POP POP JUMP JUMPDEST PUSH1 0x0 PUSH1 0x20 DUP3 DUP5 SUB SLT ISZERO PUSH2 0x28BA JUMPI PUSH1 0x0 DUP1 REVERT JUMPDEST DUP2 CALLDATALOAD PUSH1 0x1 PUSH1 0x1 PUSH1 0x40 SHL SUB DUP2 GT ISZERO PUSH2 0x28D0 JUMPI PUSH1 0x0 DUP1 REVERT JUMPDEST PUSH2 0x28DC DUP5 DUP3 DUP6 ADD PUSH2 0x224B JUMP JUMPDEST SWAP5 SWAP4 POP POP POP POP JUMP JUMPDEST DUP2 DUP4 DUP3 CALLDATACOPY PUSH1 0x0 SWAP2 ADD SWAP1 DUP2 MSTORE SWAP2 SWAP1 POP JUMP JUMPDEST PUSH1 0x1 DUP2 DUP2 SHR SWAP1 DUP3 AND DUP1 PUSH2 0x2908 JUMPI PUSH1 0x7F DUP3 AND SWAP2 POP JUMPDEST PUSH1 0x20 DUP3 LT DUP2 SUB PUSH2 0x2928 JUMPI PUSH4 0x4E487B71 PUSH1 0xE0 SHL PUSH1 0x0 MSTORE PUSH1 0x22 PUSH1 0x4 MSTORE PUSH1 0x24 PUSH1 0x0 REVERT JUMPDEST POP SWAP2 SWAP1 POP JUMP JUMPDEST PUSH4 0x4E487B71 PUSH1 0xE0 SHL PUSH1 0x0 MSTORE PUSH1 0x11 PUSH1 0x4 MSTORE PUSH1 0x24 PUSH1 0x0 REVERT JUMPDEST DUP1 DUP3 ADD DUP1 DUP3 GT ISZERO PUSH2 0xCA0 JUMPI PUSH2 0xCA0 PUSH2 0x292E JUMP JUMPDEST PUSH1 0x20 DUP1 DUP3 MSTORE DUP2 DUP2 ADD MSTORE PUSH32 0x4C617965725A65726F4D6F636B3A206E6F2073746F726564207061796C6F6164 PUSH1 0x40 DUP3 ADD MSTORE PUSH1 0x60 ADD SWAP1 JUMP JUMPDEST DUP2 DUP4 MSTORE DUP2 DUP2 PUSH1 0x20 DUP6 ADD CALLDATACOPY POP PUSH1 0x0 DUP3 DUP3 ADD PUSH1 0x20 SWAP1 DUP2 ADD SWAP2 SWAP1 SWAP2 MSTORE PUSH1 0x1F SWAP1 SWAP2 ADD PUSH1 0x1F NOT AND SWAP1 SWAP2 ADD ADD SWAP1 JUMP JUMPDEST PUSH2 0xFFFF DUP5 AND DUP2 MSTORE PUSH1 0x40 PUSH1 0x20 DUP3 ADD MSTORE PUSH1 0x0 PUSH2 0x23B0 PUSH1 0x40 DUP4 ADD DUP5 DUP7 PUSH2 0x298C JUMP JUMPDEST PUSH2 0xFFFF DUP8 AND DUP2 MSTORE PUSH1 0x80 PUSH1 0x20 DUP3 ADD MSTORE PUSH1 0x0 PUSH2 0x29F1 PUSH1 0x80 DUP4 ADD DUP8 DUP10 PUSH2 0x298C JUMP JUMPDEST PUSH1 0x1 PUSH1 0x1 PUSH1 0x40 SHL SUB DUP7 AND PUSH1 0x40 DUP5 ADD MSTORE DUP3 DUP2 SUB PUSH1 0x60 DUP5 ADD MSTORE PUSH2 0x2A13 DUP2 DUP6 DUP8 PUSH2 0x298C JUMP JUMPDEST SWAP10 SWAP9 POP POP POP POP POP POP POP POP POP JUMP JUMPDEST PUSH2 0xFFFF DUP7 AND DUP2 MSTORE PUSH1 0x80 PUSH1 0x20 DUP3 ADD MSTORE PUSH1 0x0 PUSH2 0x2A3E PUSH1 0x80 DUP4 ADD DUP7 DUP9 PUSH2 0x298C JUMP JUMPDEST PUSH1 0x1 PUSH1 0x1 PUSH1 0x40 SHL SUB SWAP5 SWAP1 SWAP5 AND PUSH1 0x40 DUP4 ADD MSTORE POP PUSH1 0x1 PUSH1 0x1 PUSH1 0xA0 SHL SUB SWAP2 SWAP1 SWAP2 AND PUSH1 0x60 SWAP1 SWAP2 ADD MSTORE SWAP4 SWAP3 POP POP POP JUMP JUMPDEST PUSH1 0x0 PUSH1 0x1 PUSH1 0x1 PUSH1 0x40 SHL SUB DUP3 DUP2 AND PUSH1 0x2 PUSH1 0x1 PUSH1 0x40 SHL SUB NOT DUP2 ADD PUSH2 0x2A8D JUMPI PUSH2 0x2A8D PUSH2 0x292E JUMP JUMPDEST PUSH1 0x1 ADD SWAP4 SWAP3 POP POP POP JUMP JUMPDEST PUSH1 0x1F DUP3 GT ISZERO PUSH2 0x2AE1 JUMPI PUSH1 0x0 DUP2 DUP2 MSTORE PUSH1 0x20 DUP2 KECCAK256 PUSH1 0x1F DUP6 ADD PUSH1 0x5 SHR DUP2 ADD PUSH1 0x20 DUP7 LT ISZERO PUSH2 0x2ABE JUMPI POP DUP1 JUMPDEST PUSH1 0x1F DUP6 ADD PUSH1 0x5 SHR DUP3 ADD SWAP2 POP JUMPDEST DUP2 DUP2 LT ISZERO PUSH2 0x2ADD JUMPI DUP3 DUP2 SSTORE PUSH1 0x1 ADD PUSH2 0x2ACA JUMP JUMPDEST POP POP POP JUMPDEST POP POP POP JUMP JUMPDEST PUSH1 0x0 NOT PUSH1 0x3 DUP4 SWAP1 SHL SHR NOT AND PUSH1 0x1 SWAP2 SWAP1 SWAP2 SHL OR SWAP1 JUMP JUMPDEST DUP2 MLOAD PUSH1 0x1 PUSH1 0x1 PUSH1 0x40 SHL SUB DUP2 GT ISZERO PUSH2 0x2B14 JUMPI PUSH2 0x2B14 PUSH2 0x2235 JUMP JUMPDEST PUSH2 0x2B28 DUP2 PUSH2 0x2B22 DUP5 SLOAD PUSH2 0x28F4 JUMP JUMPDEST DUP5 PUSH2 0x2A97 JUMP JUMPDEST PUSH1 0x20 DUP1 PUSH1 0x1F DUP4 GT PUSH1 0x1 DUP2 EQ PUSH2 0x2B57 JUMPI PUSH1 0x0 DUP5 ISZERO PUSH2 0x2B45 JUMPI POP DUP6 DUP4 ADD MLOAD JUMPDEST PUSH2 0x2B4F DUP6 DUP3 PUSH2 0x2AE6 JUMP JUMPDEST DUP7 SSTORE POP PUSH2 0x2ADD JUMP JUMPDEST PUSH1 0x0 DUP6 DUP2 MSTORE PUSH1 0x20 DUP2 KECCAK256 PUSH1 0x1F NOT DUP7 AND SWAP2 JUMPDEST DUP3 DUP2 LT ISZERO PUSH2 0x2B86 JUMPI DUP9 DUP7 ADD MLOAD DUP3 SSTORE SWAP5 DUP5 ADD SWAP5 PUSH1 0x1 SWAP1 SWAP2 ADD SWAP1 DUP5 ADD PUSH2 0x2B67 JUMP JUMPDEST POP DUP6 DUP3 LT ISZERO PUSH2 0x2BA4 JUMPI DUP8 DUP6 ADD MLOAD PUSH1 0x0 NOT PUSH1 0x3 DUP9 SWAP1 SHL PUSH1 0xF8 AND SHR NOT AND DUP2 SSTORE JUMPDEST POP POP POP POP POP PUSH1 0x1 SWAP1 DUP2 SHL ADD SWAP1 SSTORE POP JUMP JUMPDEST DUP2 DUP2 SUB DUP2 DUP2 GT ISZERO PUSH2 0xCA0 JUMPI PUSH2 0xCA0 PUSH2 0x292E JUMP JUMPDEST PUSH4 0x4E487B71 PUSH1 0xE0 SHL PUSH1 0x0 MSTORE PUSH1 0x32 PUSH1 0x4 MSTORE PUSH1 0x24 PUSH1 0x0 REVERT JUMPDEST DUP2 DUP2 SUB PUSH2 0x2BE8 JUMPI POP POP JUMP JUMPDEST PUSH2 0x2BF2 DUP3 SLOAD PUSH2 0x28F4 JUMP JUMPDEST PUSH1 0x1 PUSH1 0x1 PUSH1 0x40 SHL SUB DUP2 GT ISZERO PUSH2 0x2C09 JUMPI PUSH2 0x2C09 PUSH2 0x2235 JUMP JUMPDEST PUSH2 0x2C17 DUP2 PUSH2 0x2B22 DUP5 SLOAD PUSH2 0x28F4 JUMP JUMPDEST PUSH1 0x0 PUSH1 0x1F DUP3 GT PUSH1 0x1 DUP2 EQ PUSH2 0x2C45 JUMPI PUSH1 0x0 DUP4 ISZERO PUSH2 0x2C33 JUMPI POP DUP5 DUP3 ADD SLOAD JUMPDEST PUSH2 0x2C3D DUP5 DUP3 PUSH2 0x2AE6 JUMP JUMPDEST DUP6 SSTORE POP PUSH2 0x2CAA JUMP JUMPDEST PUSH1 0x0 DUP6 DUP2 MSTORE PUSH1 0x20 SWAP1 KECCAK256 PUSH1 0x1F NOT DUP5 AND SWAP1 PUSH1 0x0 DUP7 DUP2 MSTORE PUSH1 0x20 SWAP1 KECCAK256 DUP5 JUMPDEST DUP4 DUP2 LT ISZERO PUSH2 0x2C7F JUMPI DUP3 DUP7 ADD SLOAD DUP3 SSTORE PUSH1 0x1 SWAP6 DUP7 ADD SWAP6 SWAP1 SWAP2 ADD SWAP1 PUSH1 0x20 ADD PUSH2 0x2C5F JUMP JUMPDEST POP DUP6 DUP4 LT ISZERO PUSH2 0x2C9D JUMPI DUP2 DUP6 ADD SLOAD PUSH1 0x0 NOT PUSH1 0x3 DUP9 SWAP1 SHL PUSH1 0xF8 AND SHR NOT AND DUP2 SSTORE JUMPDEST POP POP POP PUSH1 0x1 DUP4 PUSH1 0x1 SHL ADD DUP5 SSTORE JUMPDEST POP POP POP POP POP JUMP JUMPDEST PUSH1 0x0 PUSH1 0x1 DUP3 ADD PUSH2 0x2CC3 JUMPI PUSH2 0x2CC3 PUSH2 0x292E JUMP JUMPDEST POP PUSH1 0x1 ADD SWAP1 JUMP JUMPDEST PUSH2 0xFFFF DUP10 AND DUP2 MSTORE PUSH1 0xC0 PUSH1 0x20 DUP3 ADD MSTORE PUSH1 0x0 PUSH2 0x2CE8 PUSH1 0xC0 DUP4 ADD DUP10 DUP12 PUSH2 0x298C JUMP JUMPDEST PUSH1 0x1 PUSH1 0x1 PUSH1 0xA0 SHL SUB DUP9 AND PUSH1 0x40 DUP5 ADD MSTORE PUSH1 0x1 PUSH1 0x1 PUSH1 0x40 SHL SUB DUP8 AND PUSH1 0x60 DUP5 ADD MSTORE DUP3 DUP2 SUB PUSH1 0x80 DUP5 ADD MSTORE PUSH2 0x2D19 DUP2 DUP7 DUP9 PUSH2 0x298C JUMP JUMPDEST SWAP1 POP DUP3 DUP2 SUB PUSH1 0xA0 DUP5 ADD MSTORE PUSH2 0x2D2D DUP2 DUP6 PUSH2 0x2351 JUMP JUMPDEST SWAP12 SWAP11 POP POP POP POP POP POP POP POP POP POP POP JUMP JUMPDEST PUSH1 0x1 PUSH1 0x1 PUSH1 0xC0 SHL SUB NOT PUSH1 0xC0 DUP9 SWAP1 SHL AND DUP2 MSTORE PUSH1 0x1 PUSH1 0x1 PUSH1 0xF0 SHL SUB NOT PUSH1 0xF0 DUP8 DUP2 SHL DUP3 AND PUSH1 0x8 DUP5 ADD MSTORE PUSH1 0x1 PUSH1 0x1 PUSH1 0x60 SHL SUB NOT PUSH1 0x60 DUP9 DUP2 SHL DUP3 AND PUSH1 0xA DUP7 ADD MSTORE SWAP2 DUP8 SWAP1 SHL SWAP1 SWAP3 AND PUSH1 0x1E DUP5 ADD MSTORE DUP5 SWAP1 SHL AND PUSH1 0x20 DUP1 DUP4 ADD SWAP2 SWAP1 SWAP2 MSTORE DUP3 MLOAD PUSH1 0x0 SWAP2 PUSH2 0x2DA7 SWAP1 DUP3 SWAP1 PUSH1 0x34 DUP7 ADD SWAP1 DUP8 ADD PUSH2 0x232D JUMP JUMPDEST SWAP2 SWAP1 SWAP2 ADD PUSH1 0x34 ADD SWAP8 SWAP7 POP POP POP POP POP POP POP JUMP JUMPDEST PUSH2 0xFFFF DUP8 AND DUP2 MSTORE PUSH1 0xC0 PUSH1 0x20 DUP3 ADD MSTORE PUSH1 0x0 PUSH2 0x2DD6 PUSH1 0xC0 DUP4 ADD DUP9 PUSH2 0x2351 JUMP JUMPDEST PUSH1 0x1 PUSH1 0x1 PUSH1 0xA0 SHL SUB DUP8 AND PUSH1 0x40 DUP5 ADD MSTORE PUSH1 0x1 PUSH1 0x1 PUSH1 0x40 SHL SUB DUP7 AND PUSH1 0x60 DUP5 ADD MSTORE PUSH1 0x80 DUP4 ADD DUP6 SWAP1 MSTORE DUP3 DUP2 SUB PUSH1 0xA0 DUP5 ADD MSTORE PUSH2 0x2A13 DUP2 DUP6 PUSH2 0x2351 JUMP JUMPDEST DUP1 DUP3 MUL DUP2 ISZERO DUP3 DUP3 DIV DUP5 EQ OR PUSH2 0xCA0 JUMPI PUSH2 0xCA0 PUSH2 0x292E JUMP JUMPDEST PUSH4 0x4E487B71 PUSH1 0xE0 SHL PUSH1 0x0 MSTORE PUSH1 0x12 PUSH1 0x4 MSTORE PUSH1 0x24 PUSH1 0x0 REVERT JUMPDEST PUSH1 0x0 DUP3 PUSH2 0x2E49 JUMPI PUSH2 0x2E49 PUSH2 0x2E24 JUMP JUMPDEST POP DIV SWAP1 JUMP JUMPDEST PUSH1 0x1 PUSH1 0x1 PUSH1 0x80 SHL SUB DUP2 DUP2 AND DUP4 DUP3 AND MUL DUP1 DUP3 AND SWAP2 SWAP1 DUP3 DUP2 EQ PUSH2 0x2E71 JUMPI PUSH2 0x2E71 PUSH2 0x292E JUMP JUMPDEST POP POP SWAP3 SWAP2 POP POP JUMP JUMPDEST PUSH1 0x0 PUSH1 0x1 PUSH1 0x1 PUSH1 0x80 SHL SUB DUP4 DUP2 AND DUP1 PUSH2 0x2E93 JUMPI PUSH2 0x2E93 PUSH2 0x2E24 JUMP JUMPDEST SWAP3 AND SWAP2 SWAP1 SWAP2 DIV SWAP3 SWAP2 POP POP JUMP JUMPDEST PUSH2 0xFFFF DUP7 AND DUP2 MSTORE PUSH1 0x80 PUSH1 0x20 DUP3 ADD MSTORE PUSH1 0x0 PUSH2 0x2EBD PUSH1 0x80 DUP4 ADD DUP7 DUP9 PUSH2 0x298C JUMP JUMPDEST PUSH1 0x1 PUSH1 0x1 PUSH1 0x40 SHL SUB DUP6 AND PUSH1 0x40 DUP5 ADD MSTORE DUP3 DUP2 SUB PUSH1 0x60 DUP5 ADD MSTORE PUSH2 0x2EDE DUP2 DUP6 PUSH2 0x2351 JUMP JUMPDEST SWAP9 SWAP8 POP POP POP POP POP POP POP POP JUMP JUMPDEST PUSH4 0x4E487B71 PUSH1 0xE0 SHL PUSH1 0x0 MSTORE PUSH1 0x31 PUSH1 0x4 MSTORE PUSH1 0x24 PUSH1 0x0 REVERT INVALID 0xF SWAP15 0x4D SWAP6 0xB6 0x2F ADDMOD 0x22 0x2D PUSH2 0x2B5A 0xB9 KECCAK256 CODECOPY 0xCD DUP16 0xBB 0xBE 0xA5 POP 0xA9 0x5E DUP14 0xF9 0xF9 0x27 NUMBER PUSH12 0xBDF5DBA26469706673582212 KECCAK256 0xC8 0xA8 DUP11 0xCB 0xA5 0x4A CALLDATACOPY 0x49 CREATE2 ORIGIN 0xD3 CALLDATALOAD PUSH16 0x11A315CBD2D78D4A319F52AD93175D04 XOR BLOCKHASH 0xA9 PUSH5 0x736F6C6343 STOP ADDMOD EQ STOP CALLER "},"gasEstimates":{"creation":{"codeDepositCost":"2423600","executionCost":"infinite","totalCost":"infinite"},"external":{"blockNextMsg()":"24994","callReceive()":"2585","defaultAdapterParams()":"infinite","estimateFees(uint16,address,bytes,bool,bytes)":"infinite","forceResumeReceive(uint16,bytes)":"infinite","getChainId()":"2483","getConfig(uint16,uint16,address,uint256)":"infinite","getInboundNonce(uint16,bytes)":"infinite","getOutboundNonce(uint16,address)":"3096","getReceiveLibraryAddress(address)":"655","getReceiveVersion(address)":"1018","getSendLibraryAddress(address)":"765","getSendVersion(address)":"380","hasStoredPayload(uint16,bytes)":"infinite","inboundNonce(uint16,bytes)":"infinite","isReceivingPayload()":"2918","isSendingPayload()":"3017","lzEndpointLookup(address)":"3127","mockChainId()":"2995","msgsToDeliver(uint16,bytes,uint256)":"infinite","nextMsgBlocked()":"2519","oracleFee()":"3043","outboundNonce(uint16,address)":"3159","protocolFeeConfig()":"4395","receivePayload(uint16,bytes,address,uint64,uint256,bytes)":"infinite","relayerFeeConfig()":"5026","retryPayload(uint16,bytes,bytes)":"infinite","send(uint16,bytes,bytes,address,address,bytes)":"infinite","setCallReceive(bool)":"24993","setConfig(uint16,uint16,uint256,bytes)":"infinite","setDefaultAdapterParams(bytes)":"infinite","setDestLzEndpoint(address,address)":"infinite","setOracleFee(uint256)":"22796","setProtocolFee(uint256,uint256)":"44557","setReceiveVersion(uint16)":"346","setRelayerPrice(uint128,uint128,uint128,uint64,uint64)":"infinite","setSendVersion(uint16)":"280","storedPayload(uint16,bytes)":"infinite"},"internal":{"_clearMsgQue(uint16,bytes calldata)":"infinite","_getProtocolFees(bool,uint256,uint256)":"infinite","_getRelayerFee(uint16,uint16,address,uint256,bytes memory)":"infinite"}},"methodIdentifiers":{"blockNextMsg()":"d23104f1","callReceive()":"6fbac4b5","defaultAdapterParams()":"272bd384","estimateFees(uint16,address,bytes,bool,bytes)":"40a7bb10","forceResumeReceive(uint16,bytes)":"42d65a8d","getChainId()":"3408e470","getConfig(uint16,uint16,address,uint256)":"f5ecbdbc","getInboundNonce(uint16,bytes)":"fdc07c70","getOutboundNonce(uint16,address)":"7a145748","getReceiveLibraryAddress(address)":"71ba2fd6","getReceiveVersion(address)":"da1a7c9a","getSendLibraryAddress(address)":"9c729da1","getSendVersion(address)":"096568f6","hasStoredPayload(uint16,bytes)":"0eaf6ea6","inboundNonce(uint16,bytes)":"9924d33b","isReceivingPayload()":"ca066b35","isSendingPayload()":"e97a448a","lzEndpointLookup(address)":"c81b383a","mockChainId()":"db14f305","msgsToDeliver(uint16,bytes,uint256)":"12a9ee6b","nextMsgBlocked()":"3e0dd83e","oracleFee()":"f9cd3ceb","outboundNonce(uint16,address)":"b2086499","protocolFeeConfig()":"07d3277f","receivePayload(uint16,bytes,address,uint64,uint256,bytes)":"c2fa4813","relayerFeeConfig()":"907c5e7e","retryPayload(uint16,bytes,bytes)":"aaff5f16","send(uint16,bytes,bytes,address,address,bytes)":"c5803100","setCallReceive(bool)":"b2304574","setConfig(uint16,uint16,uint256,bytes)":"cbed8b9c","setDefaultAdapterParams(bytes)":"fbba623b","setDestLzEndpoint(address,address)":"c08f15a1","setOracleFee(uint256)":"b6d9ef60","setProtocolFee(uint256,uint256)":"240de277","setReceiveVersion(uint16)":"10ddb137","setRelayerPrice(uint128,uint128,uint128,uint64,uint64)":"2c365e25","setSendVersion(uint16)":"07e0db17","storedPayload(uint16,bytes)":"76a386dc"}},"storageLayout":{"storage":[{"astId":3538,"contract":"contracts/mocks/LZEndpointMock.sol:LZEndpointMock","label":"lzEndpointLookup","offset":0,"slot":"0","type":"t_mapping(t_address,t_address)"},{"astId":3540,"contract":"contracts/mocks/LZEndpointMock.sol:LZEndpointMock","label":"mockChainId","offset":0,"slot":"1","type":"t_uint16"},{"astId":3542,"contract":"contracts/mocks/LZEndpointMock.sol:LZEndpointMock","label":"nextMsgBlocked","offset":2,"slot":"1","type":"t_bool"},{"astId":3544,"contract":"contracts/mocks/LZEndpointMock.sol:LZEndpointMock","label":"callReceive","offset":3,"slot":"1","type":"t_bool"},{"astId":3547,"contract":"contracts/mocks/LZEndpointMock.sol:LZEndpointMock","label":"relayerFeeConfig","offset":0,"slot":"2","type":"t_struct(RelayerFeeConfig)3603_storage"},{"astId":3550,"contract":"contracts/mocks/LZEndpointMock.sol:LZEndpointMock","label":"protocolFeeConfig","offset":0,"slot":"4","type":"t_struct(ProtocolFeeConfig)3592_storage"},{"astId":3552,"contract":"contracts/mocks/LZEndpointMock.sol:LZEndpointMock","label":"oracleFee","offset":0,"slot":"6","type":"t_uint256"},{"astId":3554,"contract":"contracts/mocks/LZEndpointMock.sol:LZEndpointMock","label":"defaultAdapterParams","offset":0,"slot":"7","type":"t_bytes_storage"},{"astId":3560,"contract":"contracts/mocks/LZEndpointMock.sol:LZEndpointMock","label":"inboundNonce","offset":0,"slot":"8","type":"t_mapping(t_uint16,t_mapping(t_bytes_memory_ptr,t_uint64))"},{"astId":3566,"contract":"contracts/mocks/LZEndpointMock.sol:LZEndpointMock","label":"outboundNonce","offset":0,"slot":"9","type":"t_mapping(t_uint16,t_mapping(t_address,t_uint64))"},{"astId":3573,"contract":"contracts/mocks/LZEndpointMock.sol:LZEndpointMock","label":"storedPayload","offset":0,"slot":"10","type":"t_mapping(t_uint16,t_mapping(t_bytes_memory_ptr,t_struct(StoredPayload)3610_storage))"},{"astId":3581,"contract":"contracts/mocks/LZEndpointMock.sol:LZEndpointMock","label":"msgsToDeliver","offset":0,"slot":"11","type":"t_mapping(t_uint16,t_mapping(t_bytes_memory_ptr,t_array(t_struct(QueuedPayload)3617_storage)dyn_storage))"},{"astId":3584,"contract":"contracts/mocks/LZEndpointMock.sol:LZEndpointMock","label":"_send_entered_state","offset":0,"slot":"12","type":"t_uint8"},{"astId":3587,"contract":"contracts/mocks/LZEndpointMock.sol:LZEndpointMock","label":"_receive_entered_state","offset":1,"slot":"12","type":"t_uint8"}],"types":{"t_address":{"encoding":"inplace","label":"address","numberOfBytes":"20"},"t_array(t_struct(QueuedPayload)3617_storage)dyn_storage":{"base":"t_struct(QueuedPayload)3617_storage","encoding":"dynamic_array","label":"struct LZEndpointMock.QueuedPayload[]","numberOfBytes":"32"},"t_bool":{"encoding":"inplace","label":"bool","numberOfBytes":"1"},"t_bytes32":{"encoding":"inplace","label":"bytes32","numberOfBytes":"32"},"t_bytes_memory_ptr":{"encoding":"bytes","label":"bytes","numberOfBytes":"32"},"t_bytes_storage":{"encoding":"bytes","label":"bytes","numberOfBytes":"32"},"t_mapping(t_address,t_address)":{"encoding":"mapping","key":"t_address","label":"mapping(address => address)","numberOfBytes":"32","value":"t_address"},"t_mapping(t_address,t_uint64)":{"encoding":"mapping","key":"t_address","label":"mapping(address => uint64)","numberOfBytes":"32","value":"t_uint64"},"t_mapping(t_bytes_memory_ptr,t_array(t_struct(QueuedPayload)3617_storage)dyn_storage)":{"encoding":"mapping","key":"t_bytes_memory_ptr","label":"mapping(bytes => struct LZEndpointMock.QueuedPayload[])","numberOfBytes":"32","value":"t_array(t_struct(QueuedPayload)3617_storage)dyn_storage"},"t_mapping(t_bytes_memory_ptr,t_struct(StoredPayload)3610_storage)":{"encoding":"mapping","key":"t_bytes_memory_ptr","label":"mapping(bytes => struct LZEndpointMock.StoredPayload)","numberOfBytes":"32","value":"t_struct(StoredPayload)3610_storage"},"t_mapping(t_bytes_memory_ptr,t_uint64)":{"encoding":"mapping","key":"t_bytes_memory_ptr","label":"mapping(bytes => uint64)","numberOfBytes":"32","value":"t_uint64"},"t_mapping(t_uint16,t_mapping(t_address,t_uint64))":{"encoding":"mapping","key":"t_uint16","label":"mapping(uint16 => mapping(address => uint64))","numberOfBytes":"32","value":"t_mapping(t_address,t_uint64)"},"t_mapping(t_uint16,t_mapping(t_bytes_memory_ptr,t_array(t_struct(QueuedPayload)3617_storage)dyn_storage))":{"encoding":"mapping","key":"t_uint16","label":"mapping(uint16 => mapping(bytes => struct LZEndpointMock.QueuedPayload[]))","numberOfBytes":"32","value":"t_mapping(t_bytes_memory_ptr,t_array(t_struct(QueuedPayload)3617_storage)dyn_storage)"},"t_mapping(t_uint16,t_mapping(t_bytes_memory_ptr,t_struct(StoredPayload)3610_storage))":{"encoding":"mapping","key":"t_uint16","label":"mapping(uint16 => mapping(bytes => struct LZEndpointMock.StoredPayload))","numberOfBytes":"32","value":"t_mapping(t_bytes_memory_ptr,t_struct(StoredPayload)3610_storage)"},"t_mapping(t_uint16,t_mapping(t_bytes_memory_ptr,t_uint64))":{"encoding":"mapping","key":"t_uint16","label":"mapping(uint16 => mapping(bytes => uint64))","numberOfBytes":"32","value":"t_mapping(t_bytes_memory_ptr,t_uint64)"},"t_struct(ProtocolFeeConfig)3592_storage":{"encoding":"inplace","label":"struct LZEndpointMock.ProtocolFeeConfig","members":[{"astId":3589,"contract":"contracts/mocks/LZEndpointMock.sol:LZEndpointMock","label":"zroFee","offset":0,"slot":"0","type":"t_uint256"},{"astId":3591,"contract":"contracts/mocks/LZEndpointMock.sol:LZEndpointMock","label":"nativeBP","offset":0,"slot":"1","type":"t_uint256"}],"numberOfBytes":"64"},"t_struct(QueuedPayload)3617_storage":{"encoding":"inplace","label":"struct LZEndpointMock.QueuedPayload","members":[{"astId":3612,"contract":"contracts/mocks/LZEndpointMock.sol:LZEndpointMock","label":"dstAddress","offset":0,"slot":"0","type":"t_address"},{"astId":3614,"contract":"contracts/mocks/LZEndpointMock.sol:LZEndpointMock","label":"nonce","offset":20,"slot":"0","type":"t_uint64"},{"astId":3616,"contract":"contracts/mocks/LZEndpointMock.sol:LZEndpointMock","label":"payload","offset":0,"slot":"1","type":"t_bytes_storage"}],"numberOfBytes":"64"},"t_struct(RelayerFeeConfig)3603_storage":{"encoding":"inplace","label":"struct LZEndpointMock.RelayerFeeConfig","members":[{"astId":3594,"contract":"contracts/mocks/LZEndpointMock.sol:LZEndpointMock","label":"dstPriceRatio","offset":0,"slot":"0","type":"t_uint128"},{"astId":3596,"contract":"contracts/mocks/LZEndpointMock.sol:LZEndpointMock","label":"dstGasPriceInWei","offset":16,"slot":"0","type":"t_uint128"},{"astId":3598,"contract":"contracts/mocks/LZEndpointMock.sol:LZEndpointMock","label":"dstNativeAmtCap","offset":0,"slot":"1","type":"t_uint128"},{"astId":3600,"contract":"contracts/mocks/LZEndpointMock.sol:LZEndpointMock","label":"baseGas","offset":16,"slot":"1","type":"t_uint64"},{"astId":3602,"contract":"contracts/mocks/LZEndpointMock.sol:LZEndpointMock","label":"gasPerByte","offset":24,"slot":"1","type":"t_uint64"}],"numberOfBytes":"64"},"t_struct(StoredPayload)3610_storage":{"encoding":"inplace","label":"struct LZEndpointMock.StoredPayload","members":[{"astId":3605,"contract":"contracts/mocks/LZEndpointMock.sol:LZEndpointMock","label":"payloadLength","offset":0,"slot":"0","type":"t_uint64"},{"astId":3607,"contract":"contracts/mocks/LZEndpointMock.sol:LZEndpointMock","label":"dstAddress","offset":8,"slot":"0","type":"t_address"},{"astId":3609,"contract":"contracts/mocks/LZEndpointMock.sol:LZEndpointMock","label":"payloadHash","offset":0,"slot":"1","type":"t_bytes32"}],"numberOfBytes":"64"},"t_uint128":{"encoding":"inplace","label":"uint128","numberOfBytes":"16"},"t_uint16":{"encoding":"inplace","label":"uint16","numberOfBytes":"2"},"t_uint256":{"encoding":"inplace","label":"uint256","numberOfBytes":"32"},"t_uint64":{"encoding":"inplace","label":"uint64","numberOfBytes":"8"},"t_uint8":{"encoding":"inplace","label":"uint8","numberOfBytes":"1"}}},"userdoc":{"kind":"user","methods":{},"version":1}}}}