{
  "_format": "hh-sol-artifact-1",
  "contractName": "PancakeSwapPair",
  "sourceName": "contracts/libs/dexfactory.sol",
  "abi": [
    {
      "inputs": [],
      "stateMutability": "nonpayable",
      "type": "constructor"
    },
    {
      "anonymous": false,
      "inputs": [
        {
          "indexed": true,
          "internalType": "address",
          "name": "owner",
          "type": "address"
        },
        {
          "indexed": true,
          "internalType": "address",
          "name": "spender",
          "type": "address"
        },
        {
          "indexed": false,
          "internalType": "uint256",
          "name": "value",
          "type": "uint256"
        }
      ],
      "name": "Approval",
      "type": "event"
    },
    {
      "anonymous": false,
      "inputs": [
        {
          "indexed": true,
          "internalType": "address",
          "name": "sender",
          "type": "address"
        },
        {
          "indexed": false,
          "internalType": "uint256",
          "name": "amount0",
          "type": "uint256"
        },
        {
          "indexed": false,
          "internalType": "uint256",
          "name": "amount1",
          "type": "uint256"
        },
        {
          "indexed": true,
          "internalType": "address",
          "name": "to",
          "type": "address"
        }
      ],
      "name": "Burn",
      "type": "event"
    },
    {
      "anonymous": false,
      "inputs": [
        {
          "indexed": true,
          "internalType": "address",
          "name": "sender",
          "type": "address"
        },
        {
          "indexed": false,
          "internalType": "uint256",
          "name": "amount0",
          "type": "uint256"
        },
        {
          "indexed": false,
          "internalType": "uint256",
          "name": "amount1",
          "type": "uint256"
        }
      ],
      "name": "Mint",
      "type": "event"
    },
    {
      "anonymous": false,
      "inputs": [
        {
          "indexed": true,
          "internalType": "address",
          "name": "sender",
          "type": "address"
        },
        {
          "indexed": false,
          "internalType": "uint256",
          "name": "amount0In",
          "type": "uint256"
        },
        {
          "indexed": false,
          "internalType": "uint256",
          "name": "amount1In",
          "type": "uint256"
        },
        {
          "indexed": false,
          "internalType": "uint256",
          "name": "amount0Out",
          "type": "uint256"
        },
        {
          "indexed": false,
          "internalType": "uint256",
          "name": "amount1Out",
          "type": "uint256"
        },
        {
          "indexed": true,
          "internalType": "address",
          "name": "to",
          "type": "address"
        }
      ],
      "name": "Swap",
      "type": "event"
    },
    {
      "anonymous": false,
      "inputs": [
        {
          "indexed": false,
          "internalType": "uint112",
          "name": "reserve0",
          "type": "uint112"
        },
        {
          "indexed": false,
          "internalType": "uint112",
          "name": "reserve1",
          "type": "uint112"
        }
      ],
      "name": "Sync",
      "type": "event"
    },
    {
      "anonymous": false,
      "inputs": [
        {
          "indexed": true,
          "internalType": "address",
          "name": "from",
          "type": "address"
        },
        {
          "indexed": true,
          "internalType": "address",
          "name": "to",
          "type": "address"
        },
        {
          "indexed": false,
          "internalType": "uint256",
          "name": "value",
          "type": "uint256"
        }
      ],
      "name": "Transfer",
      "type": "event"
    },
    {
      "inputs": [],
      "name": "DOMAIN_SEPARATOR",
      "outputs": [
        {
          "internalType": "bytes32",
          "name": "",
          "type": "bytes32"
        }
      ],
      "stateMutability": "view",
      "type": "function"
    },
    {
      "inputs": [],
      "name": "MINIMUM_LIQUIDITY",
      "outputs": [
        {
          "internalType": "uint256",
          "name": "",
          "type": "uint256"
        }
      ],
      "stateMutability": "view",
      "type": "function"
    },
    {
      "inputs": [],
      "name": "PERMIT_TYPEHASH",
      "outputs": [
        {
          "internalType": "bytes32",
          "name": "",
          "type": "bytes32"
        }
      ],
      "stateMutability": "pure",
      "type": "function"
    },
    {
      "inputs": [],
      "name": "SELECTOR",
      "outputs": [
        {
          "internalType": "bytes4",
          "name": "",
          "type": "bytes4"
        }
      ],
      "stateMutability": "view",
      "type": "function"
    },
    {
      "inputs": [],
      "name": "_decimals",
      "outputs": [
        {
          "internalType": "uint8",
          "name": "",
          "type": "uint8"
        }
      ],
      "stateMutability": "view",
      "type": "function"
    },
    {
      "inputs": [],
      "name": "_factory",
      "outputs": [
        {
          "internalType": "address",
          "name": "",
          "type": "address"
        }
      ],
      "stateMutability": "view",
      "type": "function"
    },
    {
      "inputs": [],
      "name": "_kLast",
      "outputs": [
        {
          "internalType": "uint256",
          "name": "",
          "type": "uint256"
        }
      ],
      "stateMutability": "view",
      "type": "function"
    },
    {
      "inputs": [],
      "name": "_name",
      "outputs": [
        {
          "internalType": "string",
          "name": "",
          "type": "string"
        }
      ],
      "stateMutability": "view",
      "type": "function"
    },
    {
      "inputs": [],
      "name": "_price0CumulativeLast",
      "outputs": [
        {
          "internalType": "uint256",
          "name": "",
          "type": "uint256"
        }
      ],
      "stateMutability": "view",
      "type": "function"
    },
    {
      "inputs": [],
      "name": "_price1CumulativeLast",
      "outputs": [
        {
          "internalType": "uint256",
          "name": "",
          "type": "uint256"
        }
      ],
      "stateMutability": "view",
      "type": "function"
    },
    {
      "inputs": [],
      "name": "_symbol",
      "outputs": [
        {
          "internalType": "string",
          "name": "",
          "type": "string"
        }
      ],
      "stateMutability": "view",
      "type": "function"
    },
    {
      "inputs": [],
      "name": "_token0",
      "outputs": [
        {
          "internalType": "address",
          "name": "",
          "type": "address"
        }
      ],
      "stateMutability": "view",
      "type": "function"
    },
    {
      "inputs": [],
      "name": "_token1",
      "outputs": [
        {
          "internalType": "address",
          "name": "",
          "type": "address"
        }
      ],
      "stateMutability": "view",
      "type": "function"
    },
    {
      "inputs": [],
      "name": "_totalSupply",
      "outputs": [
        {
          "internalType": "uint256",
          "name": "",
          "type": "uint256"
        }
      ],
      "stateMutability": "view",
      "type": "function"
    },
    {
      "inputs": [
        {
          "internalType": "address",
          "name": "owner",
          "type": "address"
        },
        {
          "internalType": "address",
          "name": "spender",
          "type": "address"
        }
      ],
      "name": "allowance",
      "outputs": [
        {
          "internalType": "uint256",
          "name": "",
          "type": "uint256"
        }
      ],
      "stateMutability": "view",
      "type": "function"
    },
    {
      "inputs": [
        {
          "internalType": "address",
          "name": "spender",
          "type": "address"
        },
        {
          "internalType": "uint256",
          "name": "value",
          "type": "uint256"
        }
      ],
      "name": "approve",
      "outputs": [
        {
          "internalType": "bool",
          "name": "",
          "type": "bool"
        }
      ],
      "stateMutability": "nonpayable",
      "type": "function"
    },
    {
      "inputs": [
        {
          "internalType": "address",
          "name": "owner",
          "type": "address"
        }
      ],
      "name": "balanceOf",
      "outputs": [
        {
          "internalType": "uint256",
          "name": "",
          "type": "uint256"
        }
      ],
      "stateMutability": "view",
      "type": "function"
    },
    {
      "inputs": [
        {
          "internalType": "address",
          "name": "to",
          "type": "address"
        }
      ],
      "name": "burn",
      "outputs": [
        {
          "internalType": "uint256",
          "name": "amount0",
          "type": "uint256"
        },
        {
          "internalType": "uint256",
          "name": "amount1",
          "type": "uint256"
        }
      ],
      "stateMutability": "nonpayable",
      "type": "function"
    },
    {
      "inputs": [],
      "name": "decimals",
      "outputs": [
        {
          "internalType": "uint8",
          "name": "",
          "type": "uint8"
        }
      ],
      "stateMutability": "pure",
      "type": "function"
    },
    {
      "inputs": [],
      "name": "factory",
      "outputs": [
        {
          "internalType": "address",
          "name": "",
          "type": "address"
        }
      ],
      "stateMutability": "view",
      "type": "function"
    },
    {
      "inputs": [],
      "name": "getReserves",
      "outputs": [
        {
          "internalType": "uint112",
          "name": "reserve0",
          "type": "uint112"
        },
        {
          "internalType": "uint112",
          "name": "reserve1",
          "type": "uint112"
        },
        {
          "internalType": "uint32",
          "name": "blockTimestampLast",
          "type": "uint32"
        }
      ],
      "stateMutability": "view",
      "type": "function"
    },
    {
      "inputs": [
        {
          "internalType": "address",
          "name": "token00",
          "type": "address"
        },
        {
          "internalType": "address",
          "name": "token11",
          "type": "address"
        }
      ],
      "name": "initialize",
      "outputs": [],
      "stateMutability": "nonpayable",
      "type": "function"
    },
    {
      "inputs": [],
      "name": "kLast",
      "outputs": [
        {
          "internalType": "uint256",
          "name": "",
          "type": "uint256"
        }
      ],
      "stateMutability": "view",
      "type": "function"
    },
    {
      "inputs": [
        {
          "internalType": "address",
          "name": "to",
          "type": "address"
        }
      ],
      "name": "mint",
      "outputs": [
        {
          "internalType": "uint256",
          "name": "liquidity",
          "type": "uint256"
        }
      ],
      "stateMutability": "nonpayable",
      "type": "function"
    },
    {
      "inputs": [],
      "name": "name",
      "outputs": [
        {
          "internalType": "string",
          "name": "",
          "type": "string"
        }
      ],
      "stateMutability": "pure",
      "type": "function"
    },
    {
      "inputs": [
        {
          "internalType": "address",
          "name": "owner",
          "type": "address"
        }
      ],
      "name": "nonces",
      "outputs": [
        {
          "internalType": "uint256",
          "name": "",
          "type": "uint256"
        }
      ],
      "stateMutability": "view",
      "type": "function"
    },
    {
      "inputs": [
        {
          "internalType": "address",
          "name": "owner",
          "type": "address"
        },
        {
          "internalType": "address",
          "name": "spender",
          "type": "address"
        },
        {
          "internalType": "uint256",
          "name": "value",
          "type": "uint256"
        },
        {
          "internalType": "uint256",
          "name": "deadline",
          "type": "uint256"
        },
        {
          "internalType": "uint8",
          "name": "v",
          "type": "uint8"
        },
        {
          "internalType": "bytes32",
          "name": "r",
          "type": "bytes32"
        },
        {
          "internalType": "bytes32",
          "name": "s",
          "type": "bytes32"
        }
      ],
      "name": "permit",
      "outputs": [],
      "stateMutability": "nonpayable",
      "type": "function"
    },
    {
      "inputs": [],
      "name": "price0CumulativeLast",
      "outputs": [
        {
          "internalType": "uint256",
          "name": "",
          "type": "uint256"
        }
      ],
      "stateMutability": "view",
      "type": "function"
    },
    {
      "inputs": [],
      "name": "price1CumulativeLast",
      "outputs": [
        {
          "internalType": "uint256",
          "name": "",
          "type": "uint256"
        }
      ],
      "stateMutability": "view",
      "type": "function"
    },
    {
      "inputs": [
        {
          "internalType": "address",
          "name": "to",
          "type": "address"
        }
      ],
      "name": "skim",
      "outputs": [],
      "stateMutability": "nonpayable",
      "type": "function"
    },
    {
      "inputs": [
        {
          "internalType": "uint256",
          "name": "amount0Out",
          "type": "uint256"
        },
        {
          "internalType": "uint256",
          "name": "amount1Out",
          "type": "uint256"
        },
        {
          "internalType": "address",
          "name": "to",
          "type": "address"
        },
        {
          "internalType": "bytes",
          "name": "data",
          "type": "bytes"
        }
      ],
      "name": "swap",
      "outputs": [],
      "stateMutability": "nonpayable",
      "type": "function"
    },
    {
      "inputs": [],
      "name": "symbol",
      "outputs": [
        {
          "internalType": "string",
          "name": "",
          "type": "string"
        }
      ],
      "stateMutability": "pure",
      "type": "function"
    },
    {
      "inputs": [],
      "name": "sync",
      "outputs": [],
      "stateMutability": "nonpayable",
      "type": "function"
    },
    {
      "inputs": [],
      "name": "token0",
      "outputs": [
        {
          "internalType": "address",
          "name": "",
          "type": "address"
        }
      ],
      "stateMutability": "view",
      "type": "function"
    },
    {
      "inputs": [],
      "name": "token1",
      "outputs": [
        {
          "internalType": "address",
          "name": "",
          "type": "address"
        }
      ],
      "stateMutability": "view",
      "type": "function"
    },
    {
      "inputs": [],
      "name": "totalSupply",
      "outputs": [
        {
          "internalType": "uint256",
          "name": "",
          "type": "uint256"
        }
      ],
      "stateMutability": "view",
      "type": "function"
    },
    {
      "inputs": [
        {
          "internalType": "address",
          "name": "to",
          "type": "address"
        },
        {
          "internalType": "uint256",
          "name": "value",
          "type": "uint256"
        }
      ],
      "name": "transfer",
      "outputs": [
        {
          "internalType": "bool",
          "name": "",
          "type": "bool"
        }
      ],
      "stateMutability": "nonpayable",
      "type": "function"
    },
    {
      "inputs": [
        {
          "internalType": "address",
          "name": "from",
          "type": "address"
        },
        {
          "internalType": "address",
          "name": "to",
          "type": "address"
        },
        {
          "internalType": "uint256",
          "name": "value",
          "type": "uint256"
        }
      ],
      "name": "transferFrom",
      "outputs": [
        {
          "internalType": "bool",
          "name": "",
          "type": "bool"
        }
      ],
      "stateMutability": "nonpayable",
      "type": "function"
    }
  ],
  "bytecode": "0x60c0604052600c60809081526b02830b731b0b5b2a9bbb0b8160a51b60a0526000906200002d908262000214565b5060408051808201909152600a815269050616e63616b652d4c560b41b60208201526001906200005e908262000214565b506002805460ff191660121790557f6e71edae12b1b97f4d1f60370fef10105fa2faae0126114a169c64845d6126c96007556001601055348015620000a257600080fd5b5060405146907f8b73c3c69bb8fe3d512ecc4cf759cc79239f7b179b0ffacaa9a75d522b39400f90620000d890600090620002e0565b60408051918290038220828201825260018352603160f81b6020938401528151928301939093528101919091527fc89efdaa54c0f20c7adf612882df0950f5a951637e0307cdcb4c672f298b8bc66060820152608081018290523060a082015260c00160408051601f19818403018152919052805160209091012060065550600980546001600160a01b031916331790556200035e565b634e487b7160e01b600052604160045260246000fd5b600181811c908216806200019a57607f821691505b602082108103620001bb57634e487b7160e01b600052602260045260246000fd5b50919050565b601f8211156200020f57600081815260208120601f850160051c81016020861015620001ea5750805b601f850160051c820191505b818110156200020b57828155600101620001f6565b5050505b505050565b81516001600160401b038111156200023057620002306200016f565b620002488162000241845462000185565b84620001c1565b602080601f831160018114620002805760008415620002675750858301515b600019600386901b1c1916600185901b1785556200020b565b600085815260208120601f198616915b82811015620002b15788860151825594840194600190910190840162000290565b5085821015620002d05787850151600019600388901b60f8161c191681555b5050505050600190811b01905550565b6000808354620002f08162000185565b600182811680156200030b5760018114620003215762000352565b60ff198416875282151583028701945062000352565b8760005260208060002060005b85811015620003495781548a8201529084019082016200032e565b50505082870194505b50929695505050505050565b612416806200036e6000396000f3fe608060405234801561001057600080fd5b50600436106101c25760003560e01c8063022c0d9f146101c7578063053c238d146101dc57806306fdde03146102525780630902f1ac14610281578063095ea7b3146102b55780630dfe1681146102d857806318160ddd146102f257806323b872dd1461030457806330adf81f14610317578063313ce5671461033d57806332424aa3146103525780633644e5151461035f5780633eaaf86b14610367578063485cc95514610370578063496b35b9146103835780634ef4ebaf146103965780635909c0d5146103a95780635a3d5493146103b15780636a627842146103b95780636f642e7f146103cc57806370a08231146103d55780637464fc3d146103fe5780637ecebe001461040657806389afcb441461042f57806395d89b4114610457578063a9059cbb1461047c578063b09f12661461048f578063ba9a7a5614610497578063bc25cf77146104a0578063c45a0155146104b3578063c5cc6b6a146104c4578063d21220a7146104d7578063d28d8852146104e8578063d505accf146104f0578063dd62ed3e14610503578063e6a987c61461053c578063e78f81ea14610545578063fff6cae91461054e575b600080fd5b6101da6101d5366004611f1f565b610556565b005b6040805180820190915260198152787472616e7366657228616464726573732c75696e743235362960381b6020909101526102347fa9059cbb2ab09eb219583f4a59a5d0623ade346d962bcd4e46b11da047c9049b81565b6040516001600160e01b031990911681526020015b60405180910390f35b60408051808201909152600a815269050616e63616b65204c560b41b60208201525b6040516102499190611fd8565b610289610a5f565b604080516001600160701b03948516815293909216602084015263ffffffff1690820152606001610249565b6102c86102c336600461200b565b610a89565b6040519015158152602001610249565b600a546001600160a01b03165b6040516102499190612037565b6003545b604051908152602001610249565b6102c861031236600461204b565b610aa0565b7f6e71edae12b1b97f4d1f60370fef10105fa2faae0126114a169c64845d6126c96102f6565b60125b60405160ff9091168152602001610249565b6002546103409060ff1681565b6006546102f6565b6102f660035481565b6101da61037e36600461208c565b610b3f565b600b546102e5906001600160a01b031681565b600a546102e5906001600160a01b031681565b600d546102f6565b600e546102f6565b6102f66103c73660046120c5565b610bc0565b6102f6600e5481565b6102f66103e33660046120c5565b6001600160a01b031660009081526004602052604090205490565b600f546102f6565b6102f66104143660046120c5565b6001600160a01b031660009081526008602052604090205490565b61044261043d3660046120c5565b610e83565b60408051928352602083019190915201610249565b60408051808201909152600981526813140814de5b589bdb60ba1b6020820152610274565b6102c861048a36600461200b565b6111eb565b6102746111f8565b6102f66103e881565b6101da6104ae3660046120c5565b611286565b6009546001600160a01b03166102e5565b6009546102e5906001600160a01b031681565b600b546001600160a01b03166102e5565b6102746113a4565b6101da6104fe3660046120e2565b6113b1565b6102f661051136600461208c565b6001600160a01b03918216600090815260056020908152604080832093909416825291909152205490565b6102f6600f5481565b6102f6600d5481565b6101da6115a8565b6010546001146105815760405162461bcd60e51b815260040161057890612159565b60405180910390fd5b6000601055841515806105945750600084115b6105f05760405162461bcd60e51b815260206004820152602760248201527f50616e63616b65537761703a20494e53554646494349454e545f4f555450555460448201526617d05353d5539560ca1b6064820152608401610578565b6000806105fb610a5f565b5091509150816001600160701b0316871080156106205750806001600160701b031686105b6106665760405162461bcd60e51b815260206004820152602360248201526000805160206123a183398151915260448201526249545960e81b6064820152608401610578565b600a54600b5460009182916001600160a01b039182169190811690891682148015906106a45750806001600160a01b0316896001600160a01b031614155b6106ea5760405162461bcd60e51b815260206004820152601760248201527650616e63616b65537761703a20494e56414c49445f544f60481b6044820152606401610578565b8a156106fb576106fb828a8d6116d6565b891561070c5761070c818a8c6116d6565b861561077957604051636d7e4f1360e01b81526001600160a01b038a1690636d7e4f13906107469033908f908f908e908e90600401612186565b600060405180830381600087803b15801561076057600080fd5b505af1158015610774573d6000803e3d6000fd5b505050505b6040516370a0823160e01b81526001600160a01b038316906370a08231906107a5903090600401612037565b602060405180830381865afa1580156107c2573d6000803e3d6000fd5b505050506040513d601f19601f820116820180604052508101906107e691906121d2565b6040516370a0823160e01b81529094506001600160a01b038216906370a0823190610815903090600401612037565b602060405180830381865afa158015610832573d6000803e3d6000fd5b505050506040513d601f19601f8201168201806040525081019061085691906121d2565b92505050600089856001600160701b03166108719190612201565b831161087e57600061089b565b6108918a6001600160701b038716612201565b61089b9084612201565b905060006108b28a6001600160701b038716612201565b83116108bf5760006108dc565b6108d28a6001600160701b038716612201565b6108dc9084612201565b905060008211806108ed5750600081115b6109485760405162461bcd60e51b815260206004820152602660248201527f50616e63616b65537761703a20494e53554646494349454e545f494e5055545f604482015265105353d5539560d21b6064820152608401610578565b600061096a610958846003611829565b610964876103e8611829565b90611890565b9050600061097c610958846003611829565b90506109a1620f424061099b6001600160701b038b8116908b16611829565b90611829565b6109ab8383611829565b10156109ea5760405162461bcd60e51b815260206004820152600e60248201526d50616e63616b65537761703a204b60901b6044820152606401610578565b50506109f8848488886118e6565b60408051838152602081018390529081018c9052606081018b90526001600160a01b038a169033907fd78ad95fa46c994b6551d0da85fc275fe613ce37657fb8d5e3d130840159d8229060800160405180910390a350506001601055505050505050505050565b600c546001600160701b0380821692600160701b830490911691600160e01b900463ffffffff1690565b6000610a96338484611ad3565b5060015b92915050565b6001600160a01b03831660009081526005602090815260408083203384529091528120548190610ad1908490612201565b1115610b2a576001600160a01b0384166000908152600560209081526040808320338452909152902054610b059083611890565b6001600160a01b03851660009081526005602090815260408083203384529091529020555b610b35848484611b35565b5060019392505050565b6009546001600160a01b03163314610b925760405162461bcd60e51b81526020600482015260166024820152752830b731b0b5b2a9bbb0b81d102327a92124a22222a760511b6044820152606401610578565b600a80546001600160a01b039384166001600160a01b031991821617909155600b8054929093169116179055565b6000601054600114610be45760405162461bcd60e51b815260040161057890612159565b6000601081905580610bf4610a5f565b50600a546040516370a0823160e01b81529294509092506000916001600160a01b03909116906370a0823190610c2e903090600401612037565b602060405180830381865afa158015610c4b573d6000803e3d6000fd5b505050506040513d601f19601f82011682018060405250810190610c6f91906121d2565b600b546040516370a0823160e01b81529192506000916001600160a01b03909116906370a0823190610ca5903090600401612037565b602060405180830381865afa158015610cc2573d6000803e3d6000fd5b505050506040513d601f19601f82011682018060405250810190610ce691906121d2565b90506000610cfd836001600160701b038716611890565b90506000610d14836001600160701b038716611890565b90506000610d228787611bc9565b6003549091506000819003610d5d57610d496103e8610964610d448787611829565b611d06565b9850610d5860006103e8611d76565b610da4565b610da16001600160701b038916610d748684611829565b610d7e919061222a565b6001600160701b038916610d928685611829565b610d9c919061222a565b611df4565b98505b60008911610df55760405162461bcd60e51b815260206004820152602a60248201526000805160206123a183398151915260448201526912551657d3525395115160b21b6064820152608401610578565b610dff8a8a611d76565b610e0b86868a8a6118e6565b8115610e3557600c54610e31906001600160701b0380821691600160701b900416611829565b600f555b604080518581526020810185905233917f4c209b5fc8ad50758f13e2e1088ba56a560dff690a1c6fef26394f4c03821c4f910160405180910390a25050600160105550949695505050505050565b600080601054600114610ea85760405162461bcd60e51b815260040161057890612159565b6000601081905580610eb8610a5f565b50600a54600b546040516370a0823160e01b81529395509193506001600160a01b039081169291169060009083906370a0823190610efa903090600401612037565b602060405180830381865afa158015610f17573d6000803e3d6000fd5b505050506040513d601f19601f82011682018060405250810190610f3b91906121d2565b90506000826001600160a01b03166370a08231306040518263ffffffff1660e01b8152600401610f6b9190612037565b602060405180830381865afa158015610f88573d6000803e3d6000fd5b505050506040513d601f19601f82011682018060405250810190610fac91906121d2565b30600090815260046020526040812054919250610fc98888611bc9565b60035490915080610fda8487611829565b610fe4919061222a565b9a5080610ff18486611829565b610ffb919061222a565b995060008b11801561100d575060008a115b61105a5760405162461bcd60e51b815260206004820152602a60248201526000805160206123a183398151915260448201526912551657d0955493915160b21b6064820152608401610578565b6110643084611e0c565b61106f878d8d6116d6565b61107a868d8c6116d6565b6040516370a0823160e01b81526001600160a01b038816906370a08231906110a6903090600401612037565b602060405180830381865afa1580156110c3573d6000803e3d6000fd5b505050506040513d601f19601f820116820180604052508101906110e791906121d2565b6040516370a0823160e01b81529095506001600160a01b038716906370a0823190611116903090600401612037565b602060405180830381865afa158015611133573d6000803e3d6000fd5b505050506040513d601f19601f8201168201806040525081019061115791906121d2565b935061116585858b8b6118e6565b811561118f57600c5461118b906001600160701b0380821691600160701b900416611829565b600f555b604080518c8152602081018c90526001600160a01b038e169133917fdccd412f0b1252819cb1fd330b93224ca42612892bb3f4f789976e6d81936496910160405180910390a35050505050505050506001601081905550915091565b6000610a96338484611b35565b600180546112059061223e565b80601f01602080910402602001604051908101604052809291908181526020018280546112319061223e565b801561127e5780601f106112535761010080835404028352916020019161127e565b820191906000526020600020905b81548152906001019060200180831161126157829003601f168201915b505050505081565b6010546001146112a85760405162461bcd60e51b815260040161057890612159565b6000601055600a54600b54600c546040516370a0823160e01b81526001600160a01b0393841693909216916113479184918691611342916001600160701b039091169084906370a0823190611301903090600401612037565b602060405180830381865afa15801561131e573d6000803e3d6000fd5b505050506040513d601f19601f8201168201806040525081019061096491906121d2565b6116d6565b61139a8184611342600c600e9054906101000a90046001600160701b03166001600160701b0316856001600160a01b03166370a08231306040518263ffffffff1660e01b81526004016113019190612037565b5050600160105550565b600080546112059061223e565b428410156113f85760405162461bcd60e51b815260206004820152601460248201527314185b98d85ad954ddd85c0e881156141254915160621b6044820152606401610578565b6006546007546001600160a01b03891660009081526008602052604081208054919392918b918b918b918761142c83612272565b909155506040805160208101969096526001600160a01b0394851690860152929091166060840152608083015260a082015260c0810187905260e001604051602081830303815290604052805190602001206040516020016114a592919061190160f01b81526002810192909252602282015260420190565b60408051601f198184030181528282528051602091820120600080855291840180845281905260ff88169284019290925260608301869052608083018590529092509060019060a0016020604051602081039080840390855afa158015611510573d6000803e3d6000fd5b5050604051601f1901519150506001600160a01b038116158015906115465750886001600160a01b0316816001600160a01b0316145b6115925760405162461bcd60e51b815260206004820152601e60248201527f50616e63616b65537761703a20494e56414c49445f5349474e415455524500006044820152606401610578565b61159d898989611ad3565b505050505050505050565b6010546001146115ca5760405162461bcd60e51b815260040161057890612159565b6000601055600a546040516370a0823160e01b81526116cf916001600160a01b0316906370a0823190611601903090600401612037565b602060405180830381865afa15801561161e573d6000803e3d6000fd5b505050506040513d601f19601f8201168201806040525081019061164291906121d2565b600b546040516370a0823160e01b81526001600160a01b03909116906370a0823190611672903090600401612037565b602060405180830381865afa15801561168f573d6000803e3d6000fd5b505050506040513d601f19601f820116820180604052508101906116b391906121d2565b600c546001600160701b0380821691600160701b9004166118e6565b6001601055565b60408051808201825260198152787472616e7366657228616464726573732c75696e743235362960381b60209182015281516001600160a01b0385811660248301526044808301869052845180840390910181526064909201845291810180516001600160e01b031663a9059cbb60e01b1790529151600092839287169161175e919061228b565b6000604051808303816000865af19150503d806000811461179b576040519150601f19603f3d011682016040523d82523d6000602084013e6117a0565b606091505b50915091508180156117ca5750805115806117ca5750808060200190518101906117ca91906122a7565b6118225760405162461bcd60e51b815260206004820152602360248201527f50616e63616b6553776170466163746f72793a205452414e534645525f46414960448201526213115160ea1b6064820152608401610578565b5050505050565b600081158061184d5750828261183f81836122c9565b925061184b908361222a565b145b610a9a5760405162461bcd60e51b815260206004820152601460248201527364732d6d6174682d6d756c2d6f766572666c6f7760601b6044820152606401610578565b60008261189d8382612201565b9150811115610a9a5760405162461bcd60e51b815260206004820152601560248201527464732d6d6174682d7375622d756e646572666c6f7760581b6044820152606401610578565b6001600160701b03841180159061190457506001600160701b038311155b6119485760405162461bcd60e51b815260206004820152601560248201527450616e63616b65537761703a204f564552464c4f5760581b6044820152606401610578565b6000611958600160201b426122e0565b600c5490915060009061197890600160e01b900463ffffffff16836122f4565b905060008163ffffffff1611801561199857506001600160701b03841615155b80156119ac57506001600160701b03831615155b15611a3b578063ffffffff166119d4856119c586611e84565b6001600160e01b031690611e9d565b6001600160e01b03166119e791906122c9565b600d60008282546119f89190612318565b909155505063ffffffff8116611a11846119c587611e84565b6001600160e01b0316611a2491906122c9565b600e6000828254611a359190612318565b90915550505b600c805463ffffffff8416600160e01b026001600160e01b036001600160701b03898116600160701b9081026001600160e01b03199095168c83161794909417918216831794859055604080519382169282169290921783529290930490911660208201527f1c411e9a96e071241c2f21f7726b17ae89e3cab4c78be50e062b03a9fffbbad1910160405180910390a1505050505050565b6001600160a01b0383811660008181526005602090815260408083209487168084529482529182902085905590518481527f8c5be1e5ebec7d5bd14f71427d1e84f3dd0314c0f7b2291e5b200ac8c7c3b92591015b60405180910390a3505050565b6001600160a01b038316600090815260046020526040902054611b589082611890565b6001600160a01b038085166000908152600460205260408082209390935590841681522054611b879082611eb2565b6001600160a01b0380841660008181526004602052604090819020939093559151908516906000805160206123c183398151915290611b289085815260200190565b600080600960009054906101000a90046001600160a01b03166001600160a01b031663017e7e586040518163ffffffff1660e01b8152600401602060405180830381865afa158015611c1f573d6000803e3d6000fd5b505050506040513d601f19601f82011682018060405250810190611c43919061232b565b600f546001600160a01b038216158015945091925090611cf2578015611ced576000611c7e610d446001600160701b03888116908816611829565b90506000611c8b83611d06565b905080821115611cea576000611cad611ca48484611890565b60035490611829565b90506000611cc683611cc0866005611829565b90611eb2565b90506000611cd4828461222a565b90508015611ce657611ce68782611d76565b5050505b50505b611cfe565b8015611cfe576000600f555b505092915050565b60006003821115611d675750806000611d2060028361222a565b611d2b906001612318565b90505b81811015611d6157905080600281611d46818661222a565b611d509190612318565b611d5a919061222a565b9050611d2e565b50919050565b8115611d71575060015b919050565b600354611d839082611eb2565b6003556001600160a01b038216600090815260046020526040902054611da99082611eb2565b6001600160a01b0383166000818152600460205260408082209390935591519091906000805160206123c183398151915290611de89085815260200190565b60405180910390a35050565b6000818310611e035781611e05565b825b9392505050565b6001600160a01b038216600090815260046020526040902054611e2f9082611890565b6001600160a01b038316600090815260046020526040902055600354611e559082611890565b6003556040518181526000906001600160a01b038416906000805160206123c183398151915290602001611de8565b6000610a9a600160701b6001600160701b038416612348565b6000611e056001600160701b0383168461237a565b600082611ebf8382612318565b9150811015610a9a5760405162461bcd60e51b815260206004820152601460248201527364732d6d6174682d6164642d6f766572666c6f7760601b6044820152606401610578565b6001600160a01b0381168114611f1c57600080fd5b50565b600080600080600060808688031215611f3757600080fd5b85359450602086013593506040860135611f5081611f07565b925060608601356001600160401b0380821115611f6c57600080fd5b818801915088601f830112611f8057600080fd5b813581811115611f8f57600080fd5b896020828501011115611fa157600080fd5b9699959850939650602001949392505050565b60005b83811015611fcf578181015183820152602001611fb7565b50506000910152565b6020815260008251806020840152611ff7816040850160208701611fb4565b601f01601f19169190910160400192915050565b6000806040838503121561201e57600080fd5b823561202981611f07565b946020939093013593505050565b6001600160a01b0391909116815260200190565b60008060006060848603121561206057600080fd5b833561206b81611f07565b9250602084013561207b81611f07565b929592945050506040919091013590565b6000806040838503121561209f57600080fd5b82356120aa81611f07565b915060208301356120ba81611f07565b809150509250929050565b6000602082840312156120d757600080fd5b8135611e0581611f07565b600080600080600080600060e0888a0312156120fd57600080fd5b873561210881611f07565b9650602088013561211881611f07565b95506040880135945060608801359350608088013560ff8116811461213c57600080fd5b9699959850939692959460a0840135945060c09093013592915050565b60208082526013908201527214185b98d85ad954ddd85c0e881313d0d2d151606a1b604082015260600190565b60018060a01b038616815284602082015283604082015260806060820152816080820152818360a0830137600081830160a090810191909152601f909201601f19160101949350505050565b6000602082840312156121e457600080fd5b5051919050565b634e487b7160e01b600052601160045260246000fd5b81810381811115610a9a57610a9a6121eb565b634e487b7160e01b600052601260045260246000fd5b60008261223957612239612214565b500490565b600181811c9082168061225257607f821691505b602082108103611d6157634e487b7160e01b600052602260045260246000fd5b600060018201612284576122846121eb565b5060010190565b6000825161229d818460208701611fb4565b9190910192915050565b6000602082840312156122b957600080fd5b81518015158114611e0557600080fd5b8082028115828204841417610a9a57610a9a6121eb565b6000826122ef576122ef612214565b500690565b63ffffffff828116828216039080821115612311576123116121eb565b5092915050565b80820180821115610a9a57610a9a6121eb565b60006020828403121561233d57600080fd5b8151611e0581611f07565b6001600160e01b03828116828216818102831692918115828504821417612371576123716121eb565b50505092915050565b60006001600160e01b038381168061239457612394612214565b9216919091049291505056fe50616e63616b65537761703a20494e53554646494349454e545f4c4951554944ddf252ad1be2c89b69c2b068fc378daa952ba7f163c4a11628f55a4df523b3efa2646970667358221220764904e2fb4734424e12a7a8d2fe9def033b0ec6bfd0d4beca43df1fefa1bed464736f6c63430008140033",
  "linkReferences": {},
  "deployedLinkReferences": {}
}