{
  "_format": "hh-sol-artifact-1",
  "contractName": "LZEndpointMock",
  "sourceName": "contracts/bridge/lzApp/mocks/LZEndpointMock.sol",
  "abi": [
    {
      "inputs": [
        {
          "internalType": "uint16",
          "name": "_chainId",
          "type": "uint16"
        }
      ],
      "stateMutability": "nonpayable",
      "type": "constructor"
    },
    {
      "anonymous": false,
      "inputs": [
        {
          "indexed": false,
          "internalType": "uint16",
          "name": "srcChainId",
          "type": "uint16"
        },
        {
          "indexed": false,
          "internalType": "bytes",
          "name": "srcAddress",
          "type": "bytes"
        },
        {
          "indexed": false,
          "internalType": "uint64",
          "name": "nonce",
          "type": "uint64"
        },
        {
          "indexed": false,
          "internalType": "address",
          "name": "dstAddress",
          "type": "address"
        }
      ],
      "name": "PayloadCleared",
      "type": "event"
    },
    {
      "anonymous": false,
      "inputs": [
        {
          "indexed": false,
          "internalType": "uint16",
          "name": "srcChainId",
          "type": "uint16"
        },
        {
          "indexed": false,
          "internalType": "bytes",
          "name": "srcAddress",
          "type": "bytes"
        },
        {
          "indexed": false,
          "internalType": "address",
          "name": "dstAddress",
          "type": "address"
        },
        {
          "indexed": false,
          "internalType": "uint64",
          "name": "nonce",
          "type": "uint64"
        },
        {
          "indexed": false,
          "internalType": "bytes",
          "name": "payload",
          "type": "bytes"
        },
        {
          "indexed": false,
          "internalType": "bytes",
          "name": "reason",
          "type": "bytes"
        }
      ],
      "name": "PayloadStored",
      "type": "event"
    },
    {
      "anonymous": false,
      "inputs": [
        {
          "indexed": false,
          "internalType": "uint16",
          "name": "chainId",
          "type": "uint16"
        },
        {
          "indexed": false,
          "internalType": "bytes",
          "name": "srcAddress",
          "type": "bytes"
        }
      ],
      "name": "UaForceResumeReceive",
      "type": "event"
    },
    {
      "anonymous": false,
      "inputs": [
        {
          "indexed": true,
          "internalType": "address",
          "name": "to",
          "type": "address"
        },
        {
          "indexed": true,
          "internalType": "uint256",
          "name": "quantity",
          "type": "uint256"
        }
      ],
      "name": "ValueTransferFailed",
      "type": "event"
    },
    {
      "inputs": [],
      "name": "blockNextMsg",
      "outputs": [],
      "stateMutability": "nonpayable",
      "type": "function"
    },
    {
      "inputs": [],
      "name": "defaultAdapterParams",
      "outputs": [
        {
          "internalType": "bytes",
          "name": "",
          "type": "bytes"
        }
      ],
      "stateMutability": "view",
      "type": "function"
    },
    {
      "inputs": [
        {
          "internalType": "uint16",
          "name": "_dstChainId",
          "type": "uint16"
        },
        {
          "internalType": "address",
          "name": "_userApplication",
          "type": "address"
        },
        {
          "internalType": "bytes",
          "name": "_payload",
          "type": "bytes"
        },
        {
          "internalType": "bool",
          "name": "_payInZRO",
          "type": "bool"
        },
        {
          "internalType": "bytes",
          "name": "_adapterParams",
          "type": "bytes"
        }
      ],
      "name": "estimateFees",
      "outputs": [
        {
          "internalType": "uint256",
          "name": "nativeFee",
          "type": "uint256"
        },
        {
          "internalType": "uint256",
          "name": "zroFee",
          "type": "uint256"
        }
      ],
      "stateMutability": "view",
      "type": "function"
    },
    {
      "inputs": [
        {
          "internalType": "uint16",
          "name": "_srcChainId",
          "type": "uint16"
        },
        {
          "internalType": "bytes",
          "name": "_path",
          "type": "bytes"
        }
      ],
      "name": "forceResumeReceive",
      "outputs": [],
      "stateMutability": "nonpayable",
      "type": "function"
    },
    {
      "inputs": [],
      "name": "getChainId",
      "outputs": [
        {
          "internalType": "uint16",
          "name": "",
          "type": "uint16"
        }
      ],
      "stateMutability": "view",
      "type": "function"
    },
    {
      "inputs": [
        {
          "internalType": "uint16",
          "name": "",
          "type": "uint16"
        },
        {
          "internalType": "uint16",
          "name": "",
          "type": "uint16"
        },
        {
          "internalType": "address",
          "name": "",
          "type": "address"
        },
        {
          "internalType": "uint256",
          "name": "",
          "type": "uint256"
        }
      ],
      "name": "getConfig",
      "outputs": [
        {
          "internalType": "bytes",
          "name": "",
          "type": "bytes"
        }
      ],
      "stateMutability": "pure",
      "type": "function"
    },
    {
      "inputs": [
        {
          "internalType": "uint16",
          "name": "_chainID",
          "type": "uint16"
        },
        {
          "internalType": "bytes",
          "name": "_path",
          "type": "bytes"
        }
      ],
      "name": "getInboundNonce",
      "outputs": [
        {
          "internalType": "uint64",
          "name": "",
          "type": "uint64"
        }
      ],
      "stateMutability": "view",
      "type": "function"
    },
    {
      "inputs": [
        {
          "internalType": "uint16",
          "name": "_srcChainId",
          "type": "uint16"
        },
        {
          "internalType": "bytes",
          "name": "_srcAddress",
          "type": "bytes"
        }
      ],
      "name": "getLengthOfQueue",
      "outputs": [
        {
          "internalType": "uint256",
          "name": "",
          "type": "uint256"
        }
      ],
      "stateMutability": "view",
      "type": "function"
    },
    {
      "inputs": [
        {
          "internalType": "uint16",
          "name": "_chainID",
          "type": "uint16"
        },
        {
          "internalType": "address",
          "name": "_srcAddress",
          "type": "address"
        }
      ],
      "name": "getOutboundNonce",
      "outputs": [
        {
          "internalType": "uint64",
          "name": "",
          "type": "uint64"
        }
      ],
      "stateMutability": "view",
      "type": "function"
    },
    {
      "inputs": [
        {
          "internalType": "address",
          "name": "",
          "type": "address"
        }
      ],
      "name": "getReceiveLibraryAddress",
      "outputs": [
        {
          "internalType": "address",
          "name": "",
          "type": "address"
        }
      ],
      "stateMutability": "view",
      "type": "function"
    },
    {
      "inputs": [
        {
          "internalType": "address",
          "name": "",
          "type": "address"
        }
      ],
      "name": "getReceiveVersion",
      "outputs": [
        {
          "internalType": "uint16",
          "name": "",
          "type": "uint16"
        }
      ],
      "stateMutability": "pure",
      "type": "function"
    },
    {
      "inputs": [
        {
          "internalType": "address",
          "name": "",
          "type": "address"
        }
      ],
      "name": "getSendLibraryAddress",
      "outputs": [
        {
          "internalType": "address",
          "name": "",
          "type": "address"
        }
      ],
      "stateMutability": "view",
      "type": "function"
    },
    {
      "inputs": [
        {
          "internalType": "address",
          "name": "",
          "type": "address"
        }
      ],
      "name": "getSendVersion",
      "outputs": [
        {
          "internalType": "uint16",
          "name": "",
          "type": "uint16"
        }
      ],
      "stateMutability": "pure",
      "type": "function"
    },
    {
      "inputs": [
        {
          "internalType": "uint16",
          "name": "_srcChainId",
          "type": "uint16"
        },
        {
          "internalType": "bytes",
          "name": "_path",
          "type": "bytes"
        }
      ],
      "name": "hasStoredPayload",
      "outputs": [
        {
          "internalType": "bool",
          "name": "",
          "type": "bool"
        }
      ],
      "stateMutability": "view",
      "type": "function"
    },
    {
      "inputs": [
        {
          "internalType": "uint16",
          "name": "",
          "type": "uint16"
        },
        {
          "internalType": "bytes",
          "name": "",
          "type": "bytes"
        }
      ],
      "name": "inboundNonce",
      "outputs": [
        {
          "internalType": "uint64",
          "name": "",
          "type": "uint64"
        }
      ],
      "stateMutability": "view",
      "type": "function"
    },
    {
      "inputs": [],
      "name": "isReceivingPayload",
      "outputs": [
        {
          "internalType": "bool",
          "name": "",
          "type": "bool"
        }
      ],
      "stateMutability": "view",
      "type": "function"
    },
    {
      "inputs": [],
      "name": "isSendingPayload",
      "outputs": [
        {
          "internalType": "bool",
          "name": "",
          "type": "bool"
        }
      ],
      "stateMutability": "view",
      "type": "function"
    },
    {
      "inputs": [
        {
          "internalType": "address",
          "name": "",
          "type": "address"
        }
      ],
      "name": "lzEndpointLookup",
      "outputs": [
        {
          "internalType": "address",
          "name": "",
          "type": "address"
        }
      ],
      "stateMutability": "view",
      "type": "function"
    },
    {
      "inputs": [],
      "name": "mockChainId",
      "outputs": [
        {
          "internalType": "uint16",
          "name": "",
          "type": "uint16"
        }
      ],
      "stateMutability": "view",
      "type": "function"
    },
    {
      "inputs": [
        {
          "internalType": "uint16",
          "name": "",
          "type": "uint16"
        },
        {
          "internalType": "bytes",
          "name": "",
          "type": "bytes"
        },
        {
          "internalType": "uint256",
          "name": "",
          "type": "uint256"
        }
      ],
      "name": "msgsToDeliver",
      "outputs": [
        {
          "internalType": "address",
          "name": "dstAddress",
          "type": "address"
        },
        {
          "internalType": "uint64",
          "name": "nonce",
          "type": "uint64"
        },
        {
          "internalType": "bytes",
          "name": "payload",
          "type": "bytes"
        }
      ],
      "stateMutability": "view",
      "type": "function"
    },
    {
      "inputs": [],
      "name": "nextMsgBlocked",
      "outputs": [
        {
          "internalType": "bool",
          "name": "",
          "type": "bool"
        }
      ],
      "stateMutability": "view",
      "type": "function"
    },
    {
      "inputs": [],
      "name": "oracleFee",
      "outputs": [
        {
          "internalType": "uint256",
          "name": "",
          "type": "uint256"
        }
      ],
      "stateMutability": "view",
      "type": "function"
    },
    {
      "inputs": [
        {
          "internalType": "uint16",
          "name": "",
          "type": "uint16"
        },
        {
          "internalType": "address",
          "name": "",
          "type": "address"
        }
      ],
      "name": "outboundNonce",
      "outputs": [
        {
          "internalType": "uint64",
          "name": "",
          "type": "uint64"
        }
      ],
      "stateMutability": "view",
      "type": "function"
    },
    {
      "inputs": [],
      "name": "protocolFeeConfig",
      "outputs": [
        {
          "internalType": "uint256",
          "name": "zroFee",
          "type": "uint256"
        },
        {
          "internalType": "uint256",
          "name": "nativeBP",
          "type": "uint256"
        }
      ],
      "stateMutability": "view",
      "type": "function"
    },
    {
      "inputs": [
        {
          "internalType": "uint16",
          "name": "_srcChainId",
          "type": "uint16"
        },
        {
          "internalType": "bytes",
          "name": "_path",
          "type": "bytes"
        },
        {
          "internalType": "address",
          "name": "_dstAddress",
          "type": "address"
        },
        {
          "internalType": "uint64",
          "name": "_nonce",
          "type": "uint64"
        },
        {
          "internalType": "uint256",
          "name": "_gasLimit",
          "type": "uint256"
        },
        {
          "internalType": "bytes",
          "name": "_payload",
          "type": "bytes"
        }
      ],
      "name": "receivePayload",
      "outputs": [],
      "stateMutability": "nonpayable",
      "type": "function"
    },
    {
      "inputs": [],
      "name": "relayerFeeConfig",
      "outputs": [
        {
          "internalType": "uint128",
          "name": "dstPriceRatio",
          "type": "uint128"
        },
        {
          "internalType": "uint128",
          "name": "dstGasPriceInWei",
          "type": "uint128"
        },
        {
          "internalType": "uint128",
          "name": "dstNativeAmtCap",
          "type": "uint128"
        },
        {
          "internalType": "uint64",
          "name": "baseGas",
          "type": "uint64"
        },
        {
          "internalType": "uint64",
          "name": "gasPerByte",
          "type": "uint64"
        }
      ],
      "stateMutability": "view",
      "type": "function"
    },
    {
      "inputs": [
        {
          "internalType": "uint16",
          "name": "_srcChainId",
          "type": "uint16"
        },
        {
          "internalType": "bytes",
          "name": "_path",
          "type": "bytes"
        },
        {
          "internalType": "bytes",
          "name": "_payload",
          "type": "bytes"
        }
      ],
      "name": "retryPayload",
      "outputs": [],
      "stateMutability": "nonpayable",
      "type": "function"
    },
    {
      "inputs": [
        {
          "internalType": "uint16",
          "name": "_chainId",
          "type": "uint16"
        },
        {
          "internalType": "bytes",
          "name": "_path",
          "type": "bytes"
        },
        {
          "internalType": "bytes",
          "name": "_payload",
          "type": "bytes"
        },
        {
          "internalType": "address payable",
          "name": "_refundAddress",
          "type": "address"
        },
        {
          "internalType": "address",
          "name": "_zroPaymentAddress",
          "type": "address"
        },
        {
          "internalType": "bytes",
          "name": "_adapterParams",
          "type": "bytes"
        }
      ],
      "name": "send",
      "outputs": [],
      "stateMutability": "payable",
      "type": "function"
    },
    {
      "inputs": [
        {
          "internalType": "uint16",
          "name": "",
          "type": "uint16"
        },
        {
          "internalType": "uint16",
          "name": "",
          "type": "uint16"
        },
        {
          "internalType": "uint256",
          "name": "",
          "type": "uint256"
        },
        {
          "internalType": "bytes",
          "name": "",
          "type": "bytes"
        }
      ],
      "name": "setConfig",
      "outputs": [],
      "stateMutability": "nonpayable",
      "type": "function"
    },
    {
      "inputs": [
        {
          "internalType": "bytes",
          "name": "_adapterParams",
          "type": "bytes"
        }
      ],
      "name": "setDefaultAdapterParams",
      "outputs": [],
      "stateMutability": "nonpayable",
      "type": "function"
    },
    {
      "inputs": [
        {
          "internalType": "address",
          "name": "destAddr",
          "type": "address"
        },
        {
          "internalType": "address",
          "name": "lzEndpointAddr",
          "type": "address"
        }
      ],
      "name": "setDestLzEndpoint",
      "outputs": [],
      "stateMutability": "nonpayable",
      "type": "function"
    },
    {
      "inputs": [
        {
          "internalType": "uint256",
          "name": "_oracleFee",
          "type": "uint256"
        }
      ],
      "name": "setOracleFee",
      "outputs": [],
      "stateMutability": "nonpayable",
      "type": "function"
    },
    {
      "inputs": [
        {
          "internalType": "uint256",
          "name": "_zroFee",
          "type": "uint256"
        },
        {
          "internalType": "uint256",
          "name": "_nativeBP",
          "type": "uint256"
        }
      ],
      "name": "setProtocolFee",
      "outputs": [],
      "stateMutability": "nonpayable",
      "type": "function"
    },
    {
      "inputs": [
        {
          "internalType": "uint16",
          "name": "",
          "type": "uint16"
        }
      ],
      "name": "setReceiveVersion",
      "outputs": [],
      "stateMutability": "nonpayable",
      "type": "function"
    },
    {
      "inputs": [
        {
          "internalType": "uint128",
          "name": "_dstPriceRatio",
          "type": "uint128"
        },
        {
          "internalType": "uint128",
          "name": "_dstGasPriceInWei",
          "type": "uint128"
        },
        {
          "internalType": "uint128",
          "name": "_dstNativeAmtCap",
          "type": "uint128"
        },
        {
          "internalType": "uint64",
          "name": "_baseGas",
          "type": "uint64"
        },
        {
          "internalType": "uint64",
          "name": "_gasPerByte",
          "type": "uint64"
        }
      ],
      "name": "setRelayerPrice",
      "outputs": [],
      "stateMutability": "nonpayable",
      "type": "function"
    },
    {
      "inputs": [
        {
          "internalType": "uint16",
          "name": "",
          "type": "uint16"
        }
      ],
      "name": "setSendVersion",
      "outputs": [],
      "stateMutability": "nonpayable",
      "type": "function"
    },
    {
      "inputs": [
        {
          "internalType": "uint16",
          "name": "",
          "type": "uint16"
        },
        {
          "internalType": "bytes",
          "name": "",
          "type": "bytes"
        }
      ],
      "name": "storedPayload",
      "outputs": [
        {
          "internalType": "uint64",
          "name": "payloadLength",
          "type": "uint64"
        },
        {
          "internalType": "address",
          "name": "dstAddress",
          "type": "address"
        },
        {
          "internalType": "bytes32",
          "name": "payloadHash",
          "type": "bytes32"
        }
      ],
      "stateMutability": "view",
      "type": "function"
    }
  ],
  "bytecode": "0x6080604052600c805461ffff19166101011790553480156200002057600080fd5b50604051620031173803806200311783398101604081905262000043916200013d565b6001805461ffff191661ffff83161781556040805160a0810182526402540be400808252602080830191909152678ac7230489e8000082840152606460608301526080909101929092527402540be400000000000000000000000002540be4006002557801000000000000006400000000000000008ac7230489e800006003558051808201909152670de0b6b3a76400008082526103e891909201819052600491909155600555662386f26fc100006006556200012662030d4060408051600160f01b602082015260228082019390935281518082039093018352604201905290565b6007906200013590826200020f565b5050620002db565b6000602082840312156200015057600080fd5b815161ffff811681146200016357600080fd5b9392505050565b634e487b7160e01b600052604160045260246000fd5b600181811c908216806200019557607f821691505b602082108103620001b657634e487b7160e01b600052602260045260246000fd5b50919050565b601f8211156200020a57600081815260208120601f850160051c81016020861015620001e55750805b601f850160051c820191505b818110156200020657828155600101620001f1565b5050505b505050565b81516001600160401b038111156200022b576200022b6200016a565b62000243816200023c845462000180565b84620001bc565b602080601f8311600181146200027b5760008415620002625750858301515b600019600386901b1c1916600185901b17855562000206565b600085815260208120601f198616915b82811015620002ac578886015182559484019460019091019084016200028b565b5085821015620002cb5787850151600019600388901b60f8161c191681555b5050505050600190811b01905550565b612e2c80620002eb6000396000f3fe6080604052600436106101aa5760003560e01c806307d3277f146101af57806307e0db17146101e4578063096568f6146102045780630eaf6ea61461023857806310ddb137146101e457806312a9ee6b14610268578063240de27714610297578063272bd384146102bd5780632c365e25146102df5780633408e470146103555780633e0dd83e1461036e57806340a7bb101461038e57806342d65a8d146103ae57806371ba2fd6146103ce57806376a386dc146104065780637a1457481461049f5780637f6df8e6146104d7578063907c5e7e146105055780639924d33b146105955780639c729da1146103ce578063aaff5f16146105e7578063b208649914610607578063b6d9ef6014610648578063c08f15a114610668578063c2fa4813146106b1578063c5803100146106d1578063c81b383a146106e4578063ca066b351461071a578063cbed8b9c1461073b578063d23104f11461075c578063da1a7c9a14610204578063db14f3051461077f578063e97a448a1461079a578063f5ecbdbc146107b6578063f9cd3ceb146107e8578063fbba623b146107fe578063fdc07c701461081e575b600080fd5b3480156101bb57600080fd5b506004546005546101ca919082565b604080519283526020830191909152015b60405180910390f35b3480156101f057600080fd5b506102026101ff3660046120cd565b50565b005b34801561021057600080fd5b5061022561021f3660046120fd565b50600190565b60405161ffff90911681526020016101db565b34801561024457600080fd5b50610258610253366004612162565b61083e565b60405190151581526020016101db565b34801561027457600080fd5b50610288610283366004612256565b610884565b6040516101db939291906122f2565b3480156102a357600080fd5b506102026102b236600461232e565b600491909155600555565b3480156102c957600080fd5b506102d2610981565b6040516101db9190612350565b3480156102eb57600080fd5b506102026102fa366004612391565b6001600160801b03948516600160801b94861685021760025560038054939095166001600160c01b0319909316929092176001600160401b03918216909302929092176001600160c01b0316600160c01b9190921602179055565b34801561036157600080fd5b5060015461ffff16610225565b34801561037a57600080fd5b506001546102589062010000900460ff1681565b34801561039a57600080fd5b506101ca6103a93660046123f6565b610a0f565b3480156103ba57600080fd5b506102026103c9366004612162565b610b0e565b3480156103da57600080fd5b506103ee6103e93660046120fd565b503090565b6040516001600160a01b0390911681526020016101db565b34801561041257600080fd5b50610472610421366004612496565b600a6020908152600092835260409092208151808301840180519281529084019290930191909120915280546001909101546001600160401b03821691600160401b90046001600160a01b03169083565b604080516001600160401b0390941684526001600160a01b039092166020840152908201526060016101db565b3480156104ab57600080fd5b506104bf6104ba3660046124e3565b610c29565b6040516001600160401b0390911681526020016101db565b3480156104e357600080fd5b506104f76104f2366004612162565b610c61565b6040519081526020016101db565b34801561051157600080fd5b50600254600354610551916001600160801b0380821692600160801b92839004821692918116916001600160401b03908204811691600160c01b90041685565b604080516001600160801b039687168152948616602086015292909416918301919091526001600160401b039081166060830152909116608082015260a0016101db565b3480156105a157600080fd5b506104bf6105b0366004612496565b600860209081526000928352604090922081518083018401805192815290840192909301919091209152546001600160401b031681565b3480156105f357600080fd5b5061020261060236600461251a565b610c9d565b34801561061357600080fd5b506104bf6106223660046124e3565b60096020908152600092835260408084209091529082529020546001600160401b031681565b34801561065457600080fd5b5061020261066336600461259a565b600655565b34801561067457600080fd5b506102026106833660046125b3565b6001600160a01b03918216600090815260208190526040902080546001600160a01b03191691909216179055565b3480156106bd57600080fd5b506102026106cc3660046125d1565b610e83565b6102026106df366004612680565b611597565b3480156106f057600080fd5b506103ee6106ff3660046120fd565b6000602081905290815260409020546001600160a01b031681565b34801561072657600080fd5b50610258600c54610100900460ff1660021490565b34801561074757600080fd5b50610202610756366004612747565b50505050565b34801561076857600080fd5b506102026001805462ff0000191662010000179055565b34801561078b57600080fd5b506001546102259061ffff1681565b3480156107a657600080fd5b50610258600c5460ff1660021490565b3480156107c257600080fd5b506102d26107d13660046127ae565b604080516020810190915260008152949350505050565b3480156107f457600080fd5b506104f760065481565b34801561080a57600080fd5b506102026108193660046127fb565b611b27565b34801561082a57600080fd5b506104bf610839366004612162565b611b37565b61ffff83166000908152600a602052604080822090518291906108649086908690612837565b9081526040519081900360200190206001015415159150505b9392505050565b600b60209081526000848152604090208351808501830180519281529083019285019290922091528054829081106108bb57600080fd5b6000918252602090912060029091020180546001820180546001600160a01b0383169650600160a01b9092046001600160401b031694509192506108fe90612847565b80601f016020809104026020016040519081016040528092919081815260200182805461092a90612847565b80156109775780601f1061094c57610100808354040283529160200191610977565b820191906000526020600020905b81548152906001019060200180831161095a57829003601f168201915b5050505050905083565b6007805461098e90612847565b80601f01602080910402602001604051908101604052809291908181526020018280546109ba90612847565b8015610a075780601f106109dc57610100808354040283529160200191610a07565b820191906000526020600020905b8154815290600101906020018083116109ea57829003601f168201915b505050505081565b600080600080845111610aac5760078054610a2990612847565b80601f0160208091040260200160405190810160405280929190818152602001828054610a5590612847565b8015610aa25780601f10610a7757610100808354040283529160200191610aa2565b820191906000526020600020905b815481529060010190602001808311610a8557829003601f168201915b5050505050610aae565b835b90506000610ac18960018a8a5186611b7c565b90506000610ad28783600654611d15565b905086610ae25780945084610ae7565b809350835b50600654610af58387612897565b610aff9190612897565b94505050509550959350505050565b61ffff83166000908152600a60205260408082209051610b319085908590612837565b9081526040519081900360200190206001810154909150610b6d5760405162461bcd60e51b8152600401610b64906128aa565b60405180910390fd5b8054600160401b90046001600160a01b03163314610bcd5760405162461bcd60e51b815260206004820152601d60248201527f4c617965725a65726f4d6f636b3a20696e76616c69642063616c6c65720000006044820152606401610b64565b80546001600160e01b0319168155600060018201556040517f23d2684f396e92a6e2ff2d16f98e6fea00d50cb27a64b531bc0748f730211f9890610c1690869086908690612908565b60405180910390a1610756848484611d52565b61ffff821660009081526009602090815260408083206001600160a01b03851684529091529020546001600160401b03165b92915050565b61ffff83166000908152600b60205260408082209051610c849085908590612837565b9081526040519081900360200190205490509392505050565b61ffff85166000908152600a60205260408082209051610cc09087908790612837565b9081526040519081900360200190206001810154909150610cf35760405162461bcd60e51b8152600401610b64906128aa565b80546001600160401b031682148015610d26575080600101548383604051610d1c929190612837565b6040518091039020145b610d725760405162461bcd60e51b815260206004820152601e60248201527f4c617965725a65726f4d6f636b3a20696e76616c6964207061796c6f616400006044820152606401610b64565b80546001600160e01b03198116825560006001830181905561ffff88168152600860205260408082209051600160401b9093046001600160a01b031692610dbc9089908990612837565b90815260405190819003602001812054621d356760e01b82526001600160401b031691506001600160a01b03831690621d356790610e08908b908b908b9087908c908c90600401612926565b600060405180830381600087803b158015610e2257600080fd5b505af1158015610e36573d6000803e3d6000fd5b505050507f612434f39581c8e7d99746c9c20c6eb0ce8c0eb99f007c5719d620841370957d8888888486604051610e71959493929190612973565b60405180910390a15050505050505050565b600c54610100900460ff16600114610ee95760405162461bcd60e51b8152602060048201526024808201527f4c617965725a65726f4d6f636b3a206e6f2072656365697665207265656e7472604482015263616e637960e01b6064820152608401610b64565b600c805461ff00191661020017905561ffff88166000908152600a60205260408082209051610f1b908a908a90612837565b90815260200160405180910390209050600860008a61ffff1661ffff1681526020019081526020016000208888604051610f56929190612837565b9081526040519081900360200190208054600090610f7c906001600160401b03166129bc565b91906101000a8154816001600160401b0302191690836001600160401b0316021790556001600160401b0316856001600160401b031614610ffc5760405162461bcd60e51b815260206004820152601a6024820152794c617965725a65726f4d6f636b3a2077726f6e67206e6f6e636560301b6044820152606401610b64565b6001810154156112ce5761ffff89166000908152600b60205260408082209051611029908b908b90612837565b9081526020016040518091039020905060006040518060600160405280896001600160a01b03168152602001886001600160401b0316815260200186868080601f016020809104026020016040519081016040528093929190818152602001838380828437600092019190915250505091525082549091501561125f57815460018181018455600084815260209081902084516002909402018054918501516001600160401b0316600160a01b026001600160e01b03199092166001600160a01b0390941693909317178255604083015183929182019061110a9082612a4e565b50505060005b825461111e90600190612b07565b8110156111e45782818154811061113757611137612b1a565b9060005260206000209060020201838260016111539190612897565b8154811061116357611163612b1a565b60009182526020909120825460029092020180546001600160a01b039092166001600160a01b031983168117825583546001600160e01b031990931617600160a01b928390046001600160401b03169092029190911781556001808201906111cd90840182612b30565b5090505080806111dc90612c04565b915050611110565b5080826000815481106111f9576111f9612b1a565b600091825260209182902083516002909202018054928401516001600160401b0316600160a01b026001600160e01b03199093166001600160a01b0390921691909117919091178155604082015160018201906112569082612a4e565b509050506112c7565b815460018181018455600084815260209081902084516002909402018054918501516001600160401b0316600160a01b026001600160e01b03199092166001600160a01b039094169390931717825560408301518392918201906112c39082612a4e565b5050505b505061157d565b60015462010000900460ff16156113ea576040518060600160405280848490506001600160401b03168152602001876001600160a01b03168152602001848460405161131b929190612837565b604080519182900390912090915261ffff8b166000908152600a602052819020905161134a908b908b90612837565b90815260408051918290036020908101832084518154868401516001600160a01b0316600160401b026001600160e01b03199091166001600160401b0390921691909117178155938201516001909401939093559181018252600081529051600080516020612dd7833981519152916113d1918c918c918c918c918c918b918b9190612c1d565b60405180910390a16001805462ff00001916905561157d565b604051621d356760e01b81526001600160a01b03871690621d3567908690611420908d908d908d908c908b908b90600401612926565b600060405180830381600088803b15801561143a57600080fd5b5087f19350505050801561144c575060015b61157d573d80801561147a576040519150601f19603f3d011682016040523d82523d6000602084013e61147f565b606091505b506040518060600160405280858590506001600160401b03168152602001886001600160a01b0316815260200185856040516114bc929190612837565b604080519182900390912090915261ffff8c166000908152600a60205281902090516114eb908c908c90612837565b90815260408051918290036020908101832084518154928601516001600160a01b0316600160401b026001600160e01b03199093166001600160401b0390911617919091178155920151600190920191909155600080516020612dd783398151915290611567908c908c908c908c908c908b908b908a90612c1d565b60405180910390a1506001805462ff0000191690555b5050600c805461ff00191661010017905550505050505050565b600c5460ff166001146115f65760405162461bcd60e51b815260206004820152602160248201527f4c617965725a65726f4d6f636b3a206e6f2073656e64207265656e7472616e636044820152607960f81b6064820152608401610b64565b600c805460ff1916600217905585516028146116695760405162461bcd60e51b815260206004820152602c60248201527f4c617965725a65726f4d6f636b3a20696e636f72726563742072656d6f74652060448201526b616464726573732073697a6560a01b6064820152608401610b64565b60148601516001600160a01b0380821660009081526020819052604090205416806116f65760405162461bcd60e51b815260206004820152603760248201527f4c617965725a65726f4d6f636b3a2064657374696e6174696f6e204c6179657260448201527616995c9bc8115b991c1bda5b9d081b9bdd08199bdd5b99604a1b6064820152608401610b64565b600080845111611790576007805461170d90612847565b80601f016020809104026020016040519081016040528092919081815260200182805461173990612847565b80156117865780601f1061175b57610100808354040283529160200191611786565b820191906000526020600020905b81548152906001019060200180831161176957829003601f168201915b5050505050611792565b835b905060006117e38b338b8b8080601f0160208091040260200160405190810160405280939291908181526020018383808284376000920191909152505050506001600160a01b038a16151586610a0f565b509050803410156118485760405162461bcd60e51b815260206004820152602960248201527f4c617965725a65726f4d6f636b3a206e6f7420656e6f756768206e617469766560448201526820666f72206665657360b81b6064820152608401610b64565b61ffff8b16600090815260096020908152604080832033845290915281208054829061187c906001600160401b03166129bc565b91906101000a8154816001600160401b0302191690836001600160401b0316021790559050600082346118af9190612b07565b9050801561195c576000896001600160a01b03168260405160006040518083038185875af1925050503d8060008114611904576040519150601f19603f3d011682016040523d82523d6000602084013e611909565b606091505b505090508061195a5760405162461bcd60e51b815260206004820152601f60248201527f4c617965725a65726f4d6f636b3a206661696c656420746f20726566756e64006044820152606401610b64565b505b600080600061196a87611f49565b91955093509150508115611a0c576000816001600160a01b03168360405160006040518083038185875af1925050503d80600081146119c5576040519150601f19603f3d011682016040523d82523d6000602084013e6119ca565b606091505b5050905080611a0a5760405183906001600160a01b038416907f2c7a964ca3de5ec1d42d9822f9bbd0eb142a59cc9f855e9d93813b773192c7a390600090a35b505b6040516001600160601b031933606090811b821660208401528b901b166034820152600090604801604051602081830303815290604052905060008f8f8080601f016020809104026020016040519081016040528093929190818152602001838380828437600081840152601f19601f820116905080830192505050505050509050896001600160a01b031663c2fa4813600160009054906101000a900461ffff16848e8b8a876040518763ffffffff1660e01b8152600401611ad496959493929190612c8f565b600060405180830381600087803b158015611aee57600080fd5b505af1158015611b02573d6000803e3d6000fd5b5050600c805460ff191660011790555050505050505050505050505050505050505050565b6007611b338282612a4e565b5050565b61ffff83166000908152600860205260408082209051611b5a9085908590612837565b908152604051908190036020019020546001600160401b031690509392505050565b600080600080611b8b85611f49565b5092509250925060008361ffff16600203611c17576003546001600160801b0316821115611c0a5760405162461bcd60e51b815260206004820152602660248201527f4c617965725a65726f4d6f636b3a206473744e6174697665416d7420746f6f2060448201526503630b933b2960d51b6064820152608401610b64565b611c148282612897565b90505b600354600090611c38908590600160801b90046001600160401b0316612897565b600254611c559190600160801b90046001600160801b0316612ce3565b9050611c618183612897565b6002549092506000906402540be40090611c84906001600160801b031685612ce3565b611c8e9190612d10565b6002546003549192506000916402540be400916001600160801b0380821692611cd192600160c01b9091046001600160401b031691600160801b90910416612d24565b611cdb9190612d24565b611ce59190612d4f565b6001600160801b03169050611cfa818b612ce3565b611d049083612897565b9d9c50505050505050505050505050565b60008315611d26575060045461087d565b60055461271090611d378486612897565b611d419190612ce3565b611d4b9190612d10565b905061087d565b61ffff83166000908152600b60205260408082209051611d759085908590612837565b908152602001604051809103902090505b8054156107565780546000908290611da090600190612b07565b81548110611db057611db0612b1a565b600091825260209182902060408051606081018252600290930290910180546001600160a01b03811684526001600160401b03600160a01b909104169383019390935260018301805492939291840191611e0990612847565b80601f0160208091040260200160405190810160405280929190818152602001828054611e3590612847565b8015611e825780601f10611e5757610100808354040283529160200191611e82565b820191906000526020600020905b815481529060010190602001808311611e6557829003601f168201915b505050505081525050905080600001516001600160a01b0316621d3567868686856020015186604001516040518663ffffffff1660e01b8152600401611ecc959493929190612d75565b600060405180830381600087803b158015611ee657600080fd5b505af1158015611efa573d6000803e3d6000fd5b5050505081805480611f0e57611f0e612dc0565b60008281526020812060026000199093019283020180546001600160e01b031916815590611f3f6001830182612068565b5050905550611d86565b600080600080845160221480611f60575060428551115b611fa45760405162461bcd60e51b8152602060048201526015602482015274496e76616c69642061646170746572506172616d7360581b6044820152606401610b64565b60028501519350602285015192508361ffff1660011480611fc957508361ffff166002145b61200a5760405162461bcd60e51b8152602060048201526012602482015271556e737570706f727465642074785479706560701b6044820152606401610b64565b600083116120485760405162461bcd60e51b815260206004820152600b60248201526a47617320746f6f206c6f7760a81b6044820152606401610b64565b8361ffff16600203612061575050604283015160568401515b9193509193565b50805461207490612847565b6000825580601f10612084575050565b601f0160209004906000526020600020908101906101ff91905b808211156120b2576000815560010161209e565b5090565b803561ffff811681146120c857600080fd5b919050565b6000602082840312156120df57600080fd5b61087d826120b6565b6001600160a01b03811681146101ff57600080fd5b60006020828403121561210f57600080fd5b813561087d816120e8565b60008083601f84011261212c57600080fd5b5081356001600160401b0381111561214357600080fd5b60208301915083602082850101111561215b57600080fd5b9250929050565b60008060006040848603121561217757600080fd5b612180846120b6565b925060208401356001600160401b0381111561219b57600080fd5b6121a78682870161211a565b9497909650939450505050565b634e487b7160e01b600052604160045260246000fd5b600082601f8301126121db57600080fd5b81356001600160401b03808211156121f5576121f56121b4565b604051601f8301601f19908116603f0116810190828211818310171561221d5761221d6121b4565b8160405283815286602085880101111561223657600080fd5b836020870160208301376000602085830101528094505050505092915050565b60008060006060848603121561226b57600080fd5b612274846120b6565b925060208401356001600160401b0381111561228f57600080fd5b61229b868287016121ca565b925050604084013590509250925092565b6000815180845260005b818110156122d2576020818501810151868301820152016122b6565b506000602082860101526020601f19601f83011685010191505092915050565b6001600160a01b03841681526001600160401b0383166020820152606060408201819052600090612325908301846122ac565b95945050505050565b6000806040838503121561234157600080fd5b50508035926020909101359150565b60208152600061087d60208301846122ac565b80356001600160801b03811681146120c857600080fd5b80356001600160401b03811681146120c857600080fd5b600080600080600060a086880312156123a957600080fd5b6123b286612363565b94506123c060208701612363565b93506123ce60408701612363565b92506123dc6060870161237a565b91506123ea6080870161237a565b90509295509295909350565b600080600080600060a0868803121561240e57600080fd5b612417866120b6565b94506020860135612427816120e8565b935060408601356001600160401b038082111561244357600080fd5b61244f89838a016121ca565b945060608801359150811515821461246657600080fd5b9092506080870135908082111561247c57600080fd5b50612489888289016121ca565b9150509295509295909350565b600080604083850312156124a957600080fd5b6124b2836120b6565b915060208301356001600160401b038111156124cd57600080fd5b6124d9858286016121ca565b9150509250929050565b600080604083850312156124f657600080fd5b6124ff836120b6565b9150602083013561250f816120e8565b809150509250929050565b60008060008060006060868803121561253257600080fd5b61253b866120b6565b945060208601356001600160401b038082111561255757600080fd5b61256389838a0161211a565b9096509450604088013591508082111561257c57600080fd5b506125898882890161211a565b969995985093965092949392505050565b6000602082840312156125ac57600080fd5b5035919050565b600080604083850312156125c657600080fd5b82356124ff816120e8565b60008060008060008060008060c0898b0312156125ed57600080fd5b6125f6896120b6565b975060208901356001600160401b038082111561261257600080fd5b61261e8c838d0161211a565b909950975060408b01359150612633826120e8565b81965061264260608c0161237a565b955060808b0135945060a08b013591508082111561265f57600080fd5b5061266c8b828c0161211a565b999c989b5096995094979396929594505050565b600080600080600080600060c0888a03121561269b57600080fd5b6126a4886120b6565b965060208801356001600160401b03808211156126c057600080fd5b6126cc8b838c016121ca565b975060408a01359150808211156126e257600080fd5b6126ee8b838c0161211a565b909750955060608a01359150612703826120e8565b909350608089013590612715826120e8565b90925060a0890135908082111561272b57600080fd5b506127388a828b016121ca565b91505092959891949750929550565b6000806000806080858703121561275d57600080fd5b612766856120b6565b9350612774602086016120b6565b92506040850135915060608501356001600160401b0381111561279657600080fd5b6127a2878288016121ca565b91505092959194509250565b600080600080608085870312156127c457600080fd5b6127cd856120b6565b93506127db602086016120b6565b925060408501356127eb816120e8565b9396929550929360600135925050565b60006020828403121561280d57600080fd5b81356001600160401b0381111561282357600080fd5b61282f848285016121ca565b949350505050565b8183823760009101908152919050565b600181811c9082168061285b57607f821691505b60208210810361287b57634e487b7160e01b600052602260045260246000fd5b50919050565b634e487b7160e01b600052601160045260246000fd5b80820180821115610c5b57610c5b612881565b6020808252818101527f4c617965725a65726f4d6f636b3a206e6f2073746f726564207061796c6f6164604082015260600190565b81835281816020850137506000828201602090810191909152601f909101601f19169091010190565b61ffff841681526040602082015260006123256040830184866128df565b61ffff871681526080602082015260006129446080830187896128df565b6001600160401b038616604084015282810360608401526129668185876128df565b9998505050505050505050565b61ffff861681526080602082015260006129916080830186886128df565b6001600160401b03949094166040830152506001600160a01b03919091166060909101529392505050565b60006001600160401b038281166002600160401b031981016129e0576129e0612881565b6001019392505050565b601f821115612a3457600081815260208120601f850160051c81016020861015612a115750805b601f850160051c820191505b81811015612a3057828155600101612a1d565b5050505b505050565b600019600383901b1c191660019190911b1790565b81516001600160401b03811115612a6757612a676121b4565b612a7b81612a758454612847565b846129ea565b602080601f831160018114612aaa5760008415612a985750858301515b612aa28582612a39565b865550612a30565b600085815260208120601f198616915b82811015612ad957888601518255948401946001909101908401612aba565b5085821015612af75787850151600019600388901b60f8161c191681555b5050505050600190811b01905550565b81810381811115610c5b57610c5b612881565b634e487b7160e01b600052603260045260246000fd5b818103612b3b575050565b612b458254612847565b6001600160401b03811115612b5c57612b5c6121b4565b612b6a81612a758454612847565b6000601f821160018114612b985760008315612b865750848201545b612b908482612a39565b855550612bfd565b600085815260209020601f19841690600086815260209020845b83811015612bd25782860154825560019586019590910190602001612bb2565b5085831015612bf05781850154600019600388901b60f8161c191681555b50505060018360011b0184555b5050505050565b600060018201612c1657612c16612881565b5060010190565b61ffff8916815260c060208201526000612c3b60c08301898b6128df565b6001600160a01b03881660408401526001600160401b03871660608401528281036080840152612c6c8186886128df565b905082810360a0840152612c8081856122ac565b9b9a5050505050505050505050565b61ffff8716815260c060208201526000612cac60c08301886122ac565b6001600160a01b03871660408401526001600160401b03861660608401526080830185905282810360a084015261296681856122ac565b8082028115828204841417610c5b57610c5b612881565b634e487b7160e01b600052601260045260246000fd5b600082612d1f57612d1f612cfa565b500490565b6001600160801b03818116838216028082169190828114612d4757612d47612881565b505092915050565b60006001600160801b0383811680612d6957612d69612cfa565b92169190910492915050565b61ffff86168152608060208201526000612d936080830186886128df565b6001600160401b03851660408401528281036060840152612db481856122ac565b98975050505050505050565b634e487b7160e01b600052603160045260246000fdfe0f9e4d95b62f08222d612b5ab92039cd8fbbbea550a95e8df9f927436bbdf5dba264697066735822122005602b0e987623157e0db98e65a25cbf391da2a74cb2484a15d5e2eb5ade346c64736f6c63430008140033",
  "linkReferences": {},
  "deployedLinkReferences": {}
}