{
  "_format": "hh-sol-artifact-1",
  "contractName": "TokenBridge",
  "sourceName": "contracts/bridge/TokenBridge.sol",
  "abi": [
    {
      "anonymous": false,
      "inputs": [
        {
          "indexed": false,
          "internalType": "address",
          "name": "previousAdmin",
          "type": "address"
        },
        {
          "indexed": false,
          "internalType": "address",
          "name": "newAdmin",
          "type": "address"
        }
      ],
      "name": "AdminChanged",
      "type": "event"
    },
    {
      "anonymous": false,
      "inputs": [
        {
          "indexed": true,
          "internalType": "address",
          "name": "beacon",
          "type": "address"
        }
      ],
      "name": "BeaconUpgraded",
      "type": "event"
    },
    {
      "anonymous": false,
      "inputs": [
        {
          "indexed": false,
          "internalType": "bool",
          "name": "enabled",
          "type": "bool"
        },
        {
          "indexed": false,
          "internalType": "uint256",
          "name": "unlockTime",
          "type": "uint256"
        }
      ],
      "name": "EnableEmergencyWithdraw",
      "type": "event"
    },
    {
      "anonymous": false,
      "inputs": [
        {
          "indexed": false,
          "internalType": "uint8",
          "name": "version",
          "type": "uint8"
        }
      ],
      "name": "Initialized",
      "type": "event"
    },
    {
      "anonymous": false,
      "inputs": [
        {
          "indexed": false,
          "internalType": "uint16",
          "name": "_srcChainId",
          "type": "uint16"
        },
        {
          "indexed": false,
          "internalType": "bytes",
          "name": "_srcAddress",
          "type": "bytes"
        },
        {
          "indexed": false,
          "internalType": "uint64",
          "name": "_nonce",
          "type": "uint64"
        },
        {
          "indexed": false,
          "internalType": "bytes",
          "name": "_payload",
          "type": "bytes"
        },
        {
          "indexed": false,
          "internalType": "bytes",
          "name": "_reason",
          "type": "bytes"
        }
      ],
      "name": "MessageFailed",
      "type": "event"
    },
    {
      "anonymous": false,
      "inputs": [
        {
          "indexed": true,
          "internalType": "address",
          "name": "previousOwner",
          "type": "address"
        },
        {
          "indexed": true,
          "internalType": "address",
          "name": "newOwner",
          "type": "address"
        }
      ],
      "name": "OwnershipTransferred",
      "type": "event"
    },
    {
      "anonymous": false,
      "inputs": [
        {
          "indexed": true,
          "internalType": "address",
          "name": "token",
          "type": "address"
        },
        {
          "indexed": true,
          "internalType": "address",
          "name": "to",
          "type": "address"
        },
        {
          "indexed": false,
          "internalType": "uint256",
          "name": "amountLD",
          "type": "uint256"
        }
      ],
      "name": "Receive",
      "type": "event"
    },
    {
      "anonymous": false,
      "inputs": [
        {
          "indexed": false,
          "internalType": "address",
          "name": "token",
          "type": "address"
        }
      ],
      "name": "RegisterToken",
      "type": "event"
    },
    {
      "anonymous": false,
      "inputs": [
        {
          "indexed": false,
          "internalType": "uint16",
          "name": "_srcChainId",
          "type": "uint16"
        },
        {
          "indexed": false,
          "internalType": "bytes",
          "name": "_srcAddress",
          "type": "bytes"
        },
        {
          "indexed": false,
          "internalType": "uint64",
          "name": "_nonce",
          "type": "uint64"
        },
        {
          "indexed": false,
          "internalType": "bytes32",
          "name": "_payloadHash",
          "type": "bytes32"
        }
      ],
      "name": "RetryMessageSuccess",
      "type": "event"
    },
    {
      "anonymous": false,
      "inputs": [
        {
          "indexed": true,
          "internalType": "address",
          "name": "token",
          "type": "address"
        },
        {
          "indexed": true,
          "internalType": "address",
          "name": "from",
          "type": "address"
        },
        {
          "indexed": true,
          "internalType": "address",
          "name": "to",
          "type": "address"
        },
        {
          "indexed": false,
          "internalType": "uint256",
          "name": "amountLD",
          "type": "uint256"
        }
      ],
      "name": "Send",
      "type": "event"
    },
    {
      "anonymous": false,
      "inputs": [
        {
          "indexed": false,
          "internalType": "uint16",
          "name": "aptosChainId",
          "type": "uint16"
        }
      ],
      "name": "SetAptosChainId",
      "type": "event"
    },
    {
      "anonymous": false,
      "inputs": [
        {
          "indexed": false,
          "internalType": "uint256",
          "name": "bridgeFeeBP",
          "type": "uint256"
        }
      ],
      "name": "SetBridgeBP",
      "type": "event"
    },
    {
      "anonymous": false,
      "inputs": [
        {
          "indexed": false,
          "internalType": "bool",
          "name": "paused",
          "type": "bool"
        }
      ],
      "name": "SetGlobalPause",
      "type": "event"
    },
    {
      "anonymous": false,
      "inputs": [
        {
          "indexed": false,
          "internalType": "uint16",
          "name": "localChainId",
          "type": "uint16"
        }
      ],
      "name": "SetLocalChainId",
      "type": "event"
    },
    {
      "anonymous": false,
      "inputs": [
        {
          "indexed": false,
          "internalType": "uint16",
          "name": "_dstChainId",
          "type": "uint16"
        },
        {
          "indexed": false,
          "internalType": "uint16",
          "name": "_type",
          "type": "uint16"
        },
        {
          "indexed": false,
          "internalType": "uint256",
          "name": "_minDstGas",
          "type": "uint256"
        }
      ],
      "name": "SetMinDstGas",
      "type": "event"
    },
    {
      "anonymous": false,
      "inputs": [
        {
          "indexed": false,
          "internalType": "address",
          "name": "precrime",
          "type": "address"
        }
      ],
      "name": "SetPrecrime",
      "type": "event"
    },
    {
      "anonymous": false,
      "inputs": [
        {
          "indexed": false,
          "internalType": "address",
          "name": "token",
          "type": "address"
        },
        {
          "indexed": false,
          "internalType": "bool",
          "name": "paused",
          "type": "bool"
        }
      ],
      "name": "SetTokenPause",
      "type": "event"
    },
    {
      "anonymous": false,
      "inputs": [
        {
          "indexed": false,
          "internalType": "uint16",
          "name": "_remoteChainId",
          "type": "uint16"
        },
        {
          "indexed": false,
          "internalType": "bytes",
          "name": "_path",
          "type": "bytes"
        }
      ],
      "name": "SetTrustedRemote",
      "type": "event"
    },
    {
      "anonymous": false,
      "inputs": [
        {
          "indexed": false,
          "internalType": "uint16",
          "name": "_remoteChainId",
          "type": "uint16"
        },
        {
          "indexed": false,
          "internalType": "bytes",
          "name": "_remoteAddress",
          "type": "bytes"
        }
      ],
      "name": "SetTrustedRemoteAddress",
      "type": "event"
    },
    {
      "anonymous": false,
      "inputs": [
        {
          "indexed": false,
          "internalType": "bool",
          "name": "useCustomAdapterParams",
          "type": "bool"
        }
      ],
      "name": "SetUseCustomAdapterParams",
      "type": "event"
    },
    {
      "anonymous": false,
      "inputs": [
        {
          "indexed": false,
          "internalType": "address",
          "name": "weth",
          "type": "address"
        }
      ],
      "name": "SetWETH",
      "type": "event"
    },
    {
      "anonymous": false,
      "inputs": [
        {
          "indexed": true,
          "internalType": "address",
          "name": "implementation",
          "type": "address"
        }
      ],
      "name": "Upgraded",
      "type": "event"
    },
    {
      "anonymous": false,
      "inputs": [
        {
          "indexed": true,
          "internalType": "address",
          "name": "token",
          "type": "address"
        },
        {
          "indexed": false,
          "internalType": "address",
          "name": "to",
          "type": "address"
        },
        {
          "indexed": false,
          "internalType": "uint256",
          "name": "amountLD",
          "type": "uint256"
        }
      ],
      "name": "WithdrawFee",
      "type": "event"
    },
    {
      "anonymous": false,
      "inputs": [
        {
          "indexed": true,
          "internalType": "address",
          "name": "token",
          "type": "address"
        },
        {
          "indexed": false,
          "internalType": "address",
          "name": "to",
          "type": "address"
        },
        {
          "indexed": false,
          "internalType": "uint256",
          "name": "amountLD",
          "type": "uint256"
        }
      ],
      "name": "WithdrawTVL",
      "type": "event"
    },
    {
      "inputs": [],
      "name": "BP_DENOMINATOR",
      "outputs": [
        {
          "internalType": "uint256",
          "name": "",
          "type": "uint256"
        }
      ],
      "stateMutability": "view",
      "type": "function"
    },
    {
      "inputs": [],
      "name": "DEFAULT_PAYLOAD_SIZE_LIMIT",
      "outputs": [
        {
          "internalType": "uint256",
          "name": "",
          "type": "uint256"
        }
      ],
      "stateMutability": "view",
      "type": "function"
    },
    {
      "inputs": [],
      "name": "SHARED_DECIMALS",
      "outputs": [
        {
          "internalType": "uint8",
          "name": "",
          "type": "uint8"
        }
      ],
      "stateMutability": "view",
      "type": "function"
    },
    {
      "inputs": [
        {
          "internalType": "address",
          "name": "_token",
          "type": "address"
        }
      ],
      "name": "accruedFeeLD",
      "outputs": [
        {
          "internalType": "uint256",
          "name": "",
          "type": "uint256"
        }
      ],
      "stateMutability": "view",
      "type": "function"
    },
    {
      "inputs": [],
      "name": "bridgeFeeBP",
      "outputs": [
        {
          "internalType": "uint256",
          "name": "",
          "type": "uint256"
        }
      ],
      "stateMutability": "view",
      "type": "function"
    },
    {
      "inputs": [],
      "name": "dataFeed",
      "outputs": [
        {
          "internalType": "contract AggregatorV3Interface",
          "name": "",
          "type": "address"
        }
      ],
      "stateMutability": "view",
      "type": "function"
    },
    {
      "inputs": [],
      "name": "emergencyWithdrawEnabled",
      "outputs": [
        {
          "internalType": "bool",
          "name": "",
          "type": "bool"
        }
      ],
      "stateMutability": "view",
      "type": "function"
    },
    {
      "inputs": [],
      "name": "emergencyWithdrawTime",
      "outputs": [
        {
          "internalType": "uint256",
          "name": "",
          "type": "uint256"
        }
      ],
      "stateMutability": "view",
      "type": "function"
    },
    {
      "inputs": [
        {
          "internalType": "uint16",
          "name": "",
          "type": "uint16"
        }
      ],
      "name": "enableChain",
      "outputs": [
        {
          "internalType": "bool",
          "name": "",
          "type": "bool"
        }
      ],
      "stateMutability": "view",
      "type": "function"
    },
    {
      "inputs": [
        {
          "internalType": "bool",
          "name": "enabled",
          "type": "bool"
        }
      ],
      "name": "enableEmergencyWithdraw",
      "outputs": [],
      "stateMutability": "nonpayable",
      "type": "function"
    },
    {
      "inputs": [
        {
          "internalType": "uint16",
          "name": "",
          "type": "uint16"
        },
        {
          "internalType": "bytes",
          "name": "",
          "type": "bytes"
        },
        {
          "internalType": "uint64",
          "name": "",
          "type": "uint64"
        }
      ],
      "name": "failedMessages",
      "outputs": [
        {
          "internalType": "bytes32",
          "name": "",
          "type": "bytes32"
        }
      ],
      "stateMutability": "view",
      "type": "function"
    },
    {
      "inputs": [
        {
          "internalType": "uint16",
          "name": "_srcChainId",
          "type": "uint16"
        },
        {
          "internalType": "bytes",
          "name": "_srcAddress",
          "type": "bytes"
        }
      ],
      "name": "forceResumeReceive",
      "outputs": [],
      "stateMutability": "nonpayable",
      "type": "function"
    },
    {
      "inputs": [],
      "name": "getChainID",
      "outputs": [
        {
          "internalType": "uint256",
          "name": "",
          "type": "uint256"
        }
      ],
      "stateMutability": "view",
      "type": "function"
    },
    {
      "inputs": [],
      "name": "getChainlinkDataFeedLatestAnswer",
      "outputs": [
        {
          "internalType": "int256",
          "name": "",
          "type": "int256"
        }
      ],
      "stateMutability": "view",
      "type": "function"
    },
    {
      "inputs": [
        {
          "internalType": "uint16",
          "name": "_version",
          "type": "uint16"
        },
        {
          "internalType": "uint16",
          "name": "_chainId",
          "type": "uint16"
        },
        {
          "internalType": "address",
          "name": "",
          "type": "address"
        },
        {
          "internalType": "uint256",
          "name": "_configType",
          "type": "uint256"
        }
      ],
      "name": "getConfig",
      "outputs": [
        {
          "internalType": "bytes",
          "name": "",
          "type": "bytes"
        }
      ],
      "stateMutability": "view",
      "type": "function"
    },
    {
      "inputs": [
        {
          "internalType": "uint16",
          "name": "_remoteChainId",
          "type": "uint16"
        }
      ],
      "name": "getTrustedRemoteAddress",
      "outputs": [
        {
          "internalType": "bytes",
          "name": "",
          "type": "bytes"
        }
      ],
      "stateMutability": "view",
      "type": "function"
    },
    {
      "inputs": [],
      "name": "globalPaused",
      "outputs": [
        {
          "internalType": "bool",
          "name": "",
          "type": "bool"
        }
      ],
      "stateMutability": "view",
      "type": "function"
    },
    {
      "inputs": [
        {
          "internalType": "address",
          "name": "_layerZeroEndpoint",
          "type": "address"
        }
      ],
      "name": "initialize",
      "outputs": [],
      "stateMutability": "nonpayable",
      "type": "function"
    },
    {
      "inputs": [
        {
          "internalType": "uint16",
          "name": "_srcChainId",
          "type": "uint16"
        },
        {
          "internalType": "bytes",
          "name": "_srcAddress",
          "type": "bytes"
        }
      ],
      "name": "isTrustedRemote",
      "outputs": [
        {
          "internalType": "bool",
          "name": "",
          "type": "bool"
        }
      ],
      "stateMutability": "view",
      "type": "function"
    },
    {
      "inputs": [],
      "name": "lzEndpoint",
      "outputs": [
        {
          "internalType": "contract ILayerZeroEndpoint",
          "name": "",
          "type": "address"
        }
      ],
      "stateMutability": "view",
      "type": "function"
    },
    {
      "inputs": [
        {
          "internalType": "uint16",
          "name": "_srcChainId",
          "type": "uint16"
        },
        {
          "internalType": "bytes",
          "name": "_srcAddress",
          "type": "bytes"
        },
        {
          "internalType": "uint64",
          "name": "_nonce",
          "type": "uint64"
        },
        {
          "internalType": "bytes",
          "name": "_payload",
          "type": "bytes"
        }
      ],
      "name": "lzReceive",
      "outputs": [],
      "stateMutability": "nonpayable",
      "type": "function"
    },
    {
      "inputs": [
        {
          "internalType": "uint16",
          "name": "",
          "type": "uint16"
        },
        {
          "internalType": "uint16",
          "name": "",
          "type": "uint16"
        }
      ],
      "name": "minDstGasLookup",
      "outputs": [
        {
          "internalType": "uint256",
          "name": "",
          "type": "uint256"
        }
      ],
      "stateMutability": "view",
      "type": "function"
    },
    {
      "inputs": [
        {
          "internalType": "uint16",
          "name": "_srcChainId",
          "type": "uint16"
        },
        {
          "internalType": "bytes",
          "name": "_srcAddress",
          "type": "bytes"
        },
        {
          "internalType": "uint64",
          "name": "_nonce",
          "type": "uint64"
        },
        {
          "internalType": "bytes",
          "name": "_payload",
          "type": "bytes"
        }
      ],
      "name": "nonblockingLzReceive",
      "outputs": [],
      "stateMutability": "nonpayable",
      "type": "function"
    },
    {
      "inputs": [],
      "name": "owner",
      "outputs": [
        {
          "internalType": "address",
          "name": "",
          "type": "address"
        }
      ],
      "stateMutability": "view",
      "type": "function"
    },
    {
      "inputs": [
        {
          "internalType": "address",
          "name": "",
          "type": "address"
        }
      ],
      "name": "pausedTokens",
      "outputs": [
        {
          "internalType": "bool",
          "name": "",
          "type": "bool"
        }
      ],
      "stateMutability": "view",
      "type": "function"
    },
    {
      "inputs": [
        {
          "internalType": "uint16",
          "name": "",
          "type": "uint16"
        }
      ],
      "name": "payloadSizeLimitLookup",
      "outputs": [
        {
          "internalType": "uint256",
          "name": "",
          "type": "uint256"
        }
      ],
      "stateMutability": "view",
      "type": "function"
    },
    {
      "inputs": [],
      "name": "precrime",
      "outputs": [
        {
          "internalType": "address",
          "name": "",
          "type": "address"
        }
      ],
      "stateMutability": "view",
      "type": "function"
    },
    {
      "inputs": [
        {
          "internalType": "uint256",
          "name": "",
          "type": "uint256"
        }
      ],
      "name": "priceFeed",
      "outputs": [
        {
          "internalType": "address",
          "name": "",
          "type": "address"
        }
      ],
      "stateMutability": "view",
      "type": "function"
    },
    {
      "inputs": [],
      "name": "proxiableUUID",
      "outputs": [
        {
          "internalType": "bytes32",
          "name": "",
          "type": "bytes32"
        }
      ],
      "stateMutability": "view",
      "type": "function"
    },
    {
      "inputs": [
        {
          "internalType": "uint16",
          "name": "_toLzDestChain",
          "type": "uint16"
        },
        {
          "components": [
            {
              "internalType": "address payable",
              "name": "refundAddress",
              "type": "address"
            },
            {
              "internalType": "address",
              "name": "zroPaymentAddress",
              "type": "address"
            }
          ],
          "internalType": "struct LzLib.CallParams",
          "name": "_callParams",
          "type": "tuple"
        },
        {
          "internalType": "bytes",
          "name": "_adapterParams",
          "type": "bytes"
        }
      ],
      "name": "quoteForSend",
      "outputs": [
        {
          "internalType": "uint256",
          "name": "nativeFee",
          "type": "uint256"
        },
        {
          "internalType": "uint256",
          "name": "zroFee",
          "type": "uint256"
        }
      ],
      "stateMutability": "view",
      "type": "function"
    },
    {
      "inputs": [],
      "name": "renounceOwnership",
      "outputs": [],
      "stateMutability": "nonpayable",
      "type": "function"
    },
    {
      "inputs": [
        {
          "internalType": "uint16",
          "name": "_srcChainId",
          "type": "uint16"
        },
        {
          "internalType": "bytes",
          "name": "_srcAddress",
          "type": "bytes"
        },
        {
          "internalType": "uint64",
          "name": "_nonce",
          "type": "uint64"
        },
        {
          "internalType": "bytes",
          "name": "_payload",
          "type": "bytes"
        }
      ],
      "name": "retryMessage",
      "outputs": [],
      "stateMutability": "payable",
      "type": "function"
    },
    {
      "inputs": [
        {
          "internalType": "uint16",
          "name": "_toLzDestChain",
          "type": "uint16"
        },
        {
          "internalType": "address",
          "name": "_toAddress",
          "type": "address"
        },
        {
          "internalType": "uint256",
          "name": "_amountIn",
          "type": "uint256"
        },
        {
          "components": [
            {
              "internalType": "address payable",
              "name": "refundAddress",
              "type": "address"
            },
            {
              "internalType": "address",
              "name": "zroPaymentAddress",
              "type": "address"
            }
          ],
          "internalType": "struct LzLib.CallParams",
          "name": "_callParams",
          "type": "tuple"
        },
        {
          "internalType": "bytes",
          "name": "_adapterParams",
          "type": "bytes"
        }
      ],
      "name": "sendETHToDest",
      "outputs": [],
      "stateMutability": "payable",
      "type": "function"
    },
    {
      "inputs": [
        {
          "internalType": "uint16",
          "name": "_toLzDestChain",
          "type": "uint16"
        },
        {
          "internalType": "address",
          "name": "_tokenIn",
          "type": "address"
        },
        {
          "internalType": "uint256",
          "name": "_amountIn",
          "type": "uint256"
        },
        {
          "internalType": "address",
          "name": "_tokenOut",
          "type": "address"
        },
        {
          "internalType": "address",
          "name": "_toAddress",
          "type": "address"
        },
        {
          "components": [
            {
              "internalType": "address payable",
              "name": "refundAddress",
              "type": "address"
            },
            {
              "internalType": "address",
              "name": "zroPaymentAddress",
              "type": "address"
            }
          ],
          "internalType": "struct LzLib.CallParams",
          "name": "_callParams",
          "type": "tuple"
        },
        {
          "internalType": "bytes",
          "name": "_adapterParams",
          "type": "bytes"
        }
      ],
      "name": "sendTokenToDest",
      "outputs": [],
      "stateMutability": "payable",
      "type": "function"
    },
    {
      "inputs": [
        {
          "internalType": "uint256",
          "name": "_bridgeFeeBP",
          "type": "uint256"
        }
      ],
      "name": "setBridgeFeeBP",
      "outputs": [],
      "stateMutability": "nonpayable",
      "type": "function"
    },
    {
      "inputs": [
        {
          "internalType": "uint16",
          "name": "_version",
          "type": "uint16"
        },
        {
          "internalType": "uint16",
          "name": "_chainId",
          "type": "uint16"
        },
        {
          "internalType": "uint256",
          "name": "_configType",
          "type": "uint256"
        },
        {
          "internalType": "bytes",
          "name": "_config",
          "type": "bytes"
        }
      ],
      "name": "setConfig",
      "outputs": [],
      "stateMutability": "nonpayable",
      "type": "function"
    },
    {
      "inputs": [
        {
          "internalType": "uint16",
          "name": "_lzDestChainId",
          "type": "uint16"
        },
        {
          "internalType": "bool",
          "name": "enable",
          "type": "bool"
        }
      ],
      "name": "setEnableChain",
      "outputs": [],
      "stateMutability": "nonpayable",
      "type": "function"
    },
    {
      "inputs": [
        {
          "internalType": "bool",
          "name": "_paused",
          "type": "bool"
        }
      ],
      "name": "setGlobalPause",
      "outputs": [],
      "stateMutability": "nonpayable",
      "type": "function"
    },
    {
      "inputs": [
        {
          "internalType": "uint16",
          "name": "_dstChainId",
          "type": "uint16"
        },
        {
          "internalType": "uint16",
          "name": "_packetType",
          "type": "uint16"
        },
        {
          "internalType": "uint256",
          "name": "_minGas",
          "type": "uint256"
        }
      ],
      "name": "setMinDstGas",
      "outputs": [],
      "stateMutability": "nonpayable",
      "type": "function"
    },
    {
      "inputs": [
        {
          "internalType": "uint16",
          "name": "_dstChainId",
          "type": "uint16"
        },
        {
          "internalType": "uint256",
          "name": "_size",
          "type": "uint256"
        }
      ],
      "name": "setPayloadSizeLimit",
      "outputs": [],
      "stateMutability": "nonpayable",
      "type": "function"
    },
    {
      "inputs": [
        {
          "internalType": "address",
          "name": "_precrime",
          "type": "address"
        }
      ],
      "name": "setPrecrime",
      "outputs": [],
      "stateMutability": "nonpayable",
      "type": "function"
    },
    {
      "inputs": [
        {
          "internalType": "uint16",
          "name": "_version",
          "type": "uint16"
        }
      ],
      "name": "setReceiveVersion",
      "outputs": [],
      "stateMutability": "nonpayable",
      "type": "function"
    },
    {
      "inputs": [
        {
          "internalType": "uint16",
          "name": "_version",
          "type": "uint16"
        }
      ],
      "name": "setSendVersion",
      "outputs": [],
      "stateMutability": "nonpayable",
      "type": "function"
    },
    {
      "inputs": [
        {
          "internalType": "address",
          "name": "_token",
          "type": "address"
        },
        {
          "internalType": "bool",
          "name": "_paused",
          "type": "bool"
        }
      ],
      "name": "setTokenPause",
      "outputs": [],
      "stateMutability": "nonpayable",
      "type": "function"
    },
    {
      "inputs": [
        {
          "internalType": "uint16",
          "name": "_remoteChainId",
          "type": "uint16"
        },
        {
          "internalType": "bytes",
          "name": "_path",
          "type": "bytes"
        }
      ],
      "name": "setTrustedRemote",
      "outputs": [],
      "stateMutability": "nonpayable",
      "type": "function"
    },
    {
      "inputs": [
        {
          "internalType": "uint16",
          "name": "_remoteChainId",
          "type": "uint16"
        },
        {
          "internalType": "bytes",
          "name": "_remoteAddress",
          "type": "bytes"
        }
      ],
      "name": "setTrustedRemoteAddress",
      "outputs": [],
      "stateMutability": "nonpayable",
      "type": "function"
    },
    {
      "inputs": [
        {
          "internalType": "bool",
          "name": "_useCustomAdapterParams",
          "type": "bool"
        }
      ],
      "name": "setUseCustomAdapterParams",
      "outputs": [],
      "stateMutability": "nonpayable",
      "type": "function"
    },
    {
      "inputs": [
        {
          "internalType": "address",
          "name": "_weth",
          "type": "address"
        }
      ],
      "name": "setWETH",
      "outputs": [],
      "stateMutability": "nonpayable",
      "type": "function"
    },
    {
      "inputs": [
        {
          "internalType": "address",
          "name": "",
          "type": "address"
        }
      ],
      "name": "supportedTokens",
      "outputs": [
        {
          "internalType": "bool",
          "name": "",
          "type": "bool"
        }
      ],
      "stateMutability": "view",
      "type": "function"
    },
    {
      "inputs": [],
      "name": "toLzChainId",
      "outputs": [
        {
          "internalType": "uint16",
          "name": "",
          "type": "uint16"
        }
      ],
      "stateMutability": "view",
      "type": "function"
    },
    {
      "inputs": [
        {
          "internalType": "address",
          "name": "newOwner",
          "type": "address"
        }
      ],
      "name": "transferOwnership",
      "outputs": [],
      "stateMutability": "nonpayable",
      "type": "function"
    },
    {
      "inputs": [
        {
          "internalType": "uint16",
          "name": "_lzDestChainId",
          "type": "uint16"
        },
        {
          "internalType": "address",
          "name": "_otherContract",
          "type": "address"
        }
      ],
      "name": "trustAddress",
      "outputs": [],
      "stateMutability": "nonpayable",
      "type": "function"
    },
    {
      "inputs": [
        {
          "internalType": "uint16",
          "name": "",
          "type": "uint16"
        }
      ],
      "name": "trustedRemoteLookup",
      "outputs": [
        {
          "internalType": "bytes",
          "name": "",
          "type": "bytes"
        }
      ],
      "stateMutability": "view",
      "type": "function"
    },
    {
      "inputs": [
        {
          "internalType": "address",
          "name": "",
          "type": "address"
        }
      ],
      "name": "tvlSDs",
      "outputs": [
        {
          "internalType": "uint256",
          "name": "",
          "type": "uint256"
        }
      ],
      "stateMutability": "view",
      "type": "function"
    },
    {
      "inputs": [
        {
          "internalType": "address",
          "name": "newImplementation",
          "type": "address"
        }
      ],
      "name": "upgradeTo",
      "outputs": [],
      "stateMutability": "nonpayable",
      "type": "function"
    },
    {
      "inputs": [
        {
          "internalType": "address",
          "name": "newImplementation",
          "type": "address"
        },
        {
          "internalType": "bytes",
          "name": "data",
          "type": "bytes"
        }
      ],
      "name": "upgradeToAndCall",
      "outputs": [],
      "stateMutability": "payable",
      "type": "function"
    },
    {
      "inputs": [],
      "name": "useCustomAdapterParams",
      "outputs": [
        {
          "internalType": "bool",
          "name": "",
          "type": "bool"
        }
      ],
      "stateMutability": "view",
      "type": "function"
    },
    {
      "inputs": [],
      "name": "weth",
      "outputs": [
        {
          "internalType": "address",
          "name": "",
          "type": "address"
        }
      ],
      "stateMutability": "view",
      "type": "function"
    },
    {
      "inputs": [
        {
          "internalType": "address",
          "name": "_token",
          "type": "address"
        },
        {
          "internalType": "address",
          "name": "_to",
          "type": "address"
        }
      ],
      "name": "withdrawEmergency",
      "outputs": [],
      "stateMutability": "nonpayable",
      "type": "function"
    },
    {
      "inputs": [
        {
          "internalType": "address",
          "name": "_token",
          "type": "address"
        },
        {
          "internalType": "address",
          "name": "_to",
          "type": "address"
        },
        {
          "internalType": "uint256",
          "name": "_amountLD",
          "type": "uint256"
        }
      ],
      "name": "withdrawFee",
      "outputs": [],
      "stateMutability": "nonpayable",
      "type": "function"
    },
    {
      "inputs": [
        {
          "internalType": "address",
          "name": "_token",
          "type": "address"
        },
        {
          "internalType": "address",
          "name": "_to",
          "type": "address"
        },
        {
          "internalType": "uint256",
          "name": "_amount",
          "type": "uint256"
        }
      ],
      "name": "withdrawTVL",
      "outputs": [],
      "stateMutability": "nonpayable",
      "type": "function"
    },
    {
      "stateMutability": "payable",
      "type": "receive"
    }
  ],
  "bytecode": "0x60a06040523060805234801561001457600080fd5b5060805161573c6200004d60003960008181610eed01528181610f2d015281816113120152818161135201526113ce015261573c6000f3fe6080604052600436106102b45760003560e01c80620d5900146102c05780621d3567146102e257806307e0db17146103025780630df37483146103225780631095b6d71461034257806310ddb1371461036257806325a9f792146103825780633659cfe6146103ac5780633bd0536b146103cc5780633d8b38f6146103df5780633f1f4fa41461040f5780633fc8cef31461043c57806342d65a8d1461046a5780634f1ef2861461048a57806352d1902d1461049d578063564b81ef146104b25780635747e69f146104c557806359d91cd7146104e75780635b769f3c146105075780635b8c41e61461052757806361a552dc1461057757806366ad5c8a1461059957806368c4ac26146105b957806369a6b3db146105ea578063715018a61461060a57806373afbcaa1461061f5780637533d7881461063f5780637a38d7601461066c5780637d5f5bd41461069b5780638cfd8f5c146106d05780638da5cb5b1461070857806393f26a4c1461071d578063950c8a741461073d578063971679641461075d5780639e42ff90146107845780639f38369a146107a5578063a2f27ae0146107c5578063a6c3d165146107e5578063abe685cd14610805578063b353aaa71461081b578063b5f970731461083b578063b790d7c114610872578063b90fc4a514610885578063baf3292d146108a5578063bea4dfb5146108c5578063c446183414610805578063c4d66de8146108da578063cb8d3b1f146108fa578063cbed8b9c1461091a578063d1deba1f1461093a578063d71e409e1461094d578063de9b94881461096d578063df2a5b3b14610984578063df4bbc1c146109a4578063e3179c3e146109d5578063eab45d9c14610a03578063eb8d72b714610a23578063ed629c5c14610a43578063ee7a459614610a65578063f2fde38b14610a96578063f5ecbdbc14610ab657600080fd5b366102bb57005b600080fd5b3480156102cc57600080fd5b506102e06102db366004614566565b610ad6565b005b3480156102ee57600080fd5b506102e06102fd3660046145f5565b610b72565b34801561030e57600080fd5b506102e061031d366004614688565b610d89565b34801561032e57600080fd5b506102e061033d3660046146a3565b610df6565b34801561034e57600080fd5b506102e061035d3660046146e2565b610e15565b34801561036e57600080fd5b506102e061037d366004614688565b610ea7565b34801561038e57600080fd5b506103996101025481565b6040519081526020015b60405180910390f35b3480156103b857600080fd5b506102e06103c7366004614723565b610ee3565b6102e06103da366004614758565b610fab565b3480156103eb57600080fd5b506103ff6103fa3660046147ff565b6111d2565b60405190151581526020016103a3565b34801561041b57600080fd5b5061039961042a366004614688565b60fe6020526000908152604090205481565b34801561044857600080fd5b506101085461045d906001600160a01b031681565b6040516103a39190614851565b34801561047657600080fd5b506102e06104853660046147ff565b61129e565b6102e0610498366004614928565b611308565b3480156104a957600080fd5b506103996113c1565b3480156104be57600080fd5b5046610399565b3480156104d157600080fd5b50610108546103ff90600160b01b900460ff1681565b3480156104f357600080fd5b506102e0610502366004614985565b61146f565b34801561051357600080fd5b506102e0610522366004614723565b61149e565b34801561053357600080fd5b506103996105423660046149bc565b610100602090815260009384526040808520845180860184018051928152908401958401959095209452929052825290205481565b34801561058357600080fd5b50610108546103ff90600160a81b900460ff1681565b3480156105a557600080fd5b506102e06105b43660046145f5565b611553565b3480156105c557600080fd5b506103ff6105d4366004614723565b6101046020526000908152604090205460ff1681565b3480156105f657600080fd5b506102e0610605366004614a19565b61162f565b34801561061657600080fd5b506102e0611685565b34801561062b57600080fd5b506102e061063a366004614a36565b61168f565b34801561064b57600080fd5b5061065f61065a366004614688565b611766565b6040516103a39190614ab2565b34801561067857600080fd5b50610101546106889061ffff1681565b60405161ffff90911681526020016103a3565b3480156106a757600080fd5b506106bb6106b6366004614ac5565b611800565b604080519283526020830191909152016103a3565b3480156106dc57600080fd5b506103996106eb366004614b26565b60fd60209081526000928352604080842090915290825290205481565b34801561071457600080fd5b5061045d6118c2565b34801561072957600080fd5b506102e0610738366004614b59565b6118d1565b34801561074957600080fd5b5060ff5461045d906001600160a01b031681565b34801561076957600080fd5b50610772600681565b60405160ff90911681526020016103a3565b34801561079057600080fd5b5061010a5461045d906001600160a01b031681565b3480156107b157600080fd5b5061065f6107c0366004614688565b61190e565b3480156107d157600080fd5b506103996107e0366004614723565b611a24565b3480156107f157600080fd5b506102e06108003660046147ff565b611ab4565b34801561081157600080fd5b5061039961271081565b34801561082757600080fd5b5060fb5461045d906001600160a01b031681565b34801561084757600080fd5b5061045d610856366004614566565b610106602052600090815260409020546001600160a01b031681565b6102e0610880366004614b77565b611b3d565b34801561089157600080fd5b506102e06108a03660046146e2565b611dca565b3480156108b157600080fd5b506102e06108c0366004614723565b611ed5565b3480156108d157600080fd5b50610399611f28565b3480156108e657600080fd5b506102e06108f5366004614723565b611fae565b34801561090657600080fd5b506102e0610915366004614be6565b61208f565b34801561092657600080fd5b506102e0610935366004614c04565b6120f4565b6102e06109483660046145f5565b612162565b34801561095957600080fd5b506102e0610968366004614a19565b61237a565b34801561097957600080fd5b506103996101095481565b34801561099057600080fd5b506102e061099f366004614c72565b6123f2565b3480156109b057600080fd5b506103ff6109bf366004614688565b6101076020526000908152604090205460ff1681565b3480156109e157600080fd5b506103996109f0366004614723565b6101036020526000908152604090205481565b348015610a0f57600080fd5b506102e0610a1e366004614a19565b61245c565b348015610a2f57600080fd5b506102e0610a3e3660046147ff565b6124b2565b348015610a4f57600080fd5b50610108546103ff90600160a01b900460ff1681565b348015610a7157600080fd5b506103ff610a80366004614723565b6101056020526000908152604090205460ff1681565b348015610aa257600080fd5b506102e0610ab1366004614723565b61250c565b348015610ac257600080fd5b5061065f610ad1366004614cae565b612582565b610ade612617565b612710811115610b355760405162461bcd60e51b815260206004820152601e60248201527f546f6b656e4272696467653a2062726964676520666565203e2031303025000060448201526064015b60405180910390fd5b6101028190556040518181527f9a749c8193bfd56b2b2a05c0bd18fbb0f69801a3fd6576c40b90537fd0fc3854906020015b60405180910390a150565b60fb546001600160a01b0316336001600160a01b031614610bd55760405162461bcd60e51b815260206004820152601e60248201527f4c7a4170703a20696e76616c696420656e64706f696e742063616c6c657200006044820152606401610b2c565b61ffff8616600090815260fc602052604081208054610bf390614cfb565b80601f0160208091040260200160405190810160405280929190818152602001828054610c1f90614cfb565b8015610c6c5780601f10610c4157610100808354040283529160200191610c6c565b820191906000526020600020905b815481529060010190602001808311610c4f57829003601f168201915b50505050509050805186869050148015610c87575060008151115b8015610caf575080516020820120604051610ca59088908890614d2f565b6040518091039020145b610d0a5760405162461bcd60e51b815260206004820152602660248201527f4c7a4170703a20696e76616c696420736f757263652073656e64696e6720636f6044820152651b9d1c9858dd60d21b6064820152608401610b2c565b610d808787878080601f01602080910402602001604051908101604052809392919081815260200183838082843760009201919091525050604080516020601f8a018190048102820181019092528881528a93509150889088908190840183828082843760009201919091525061267692505050565b50505050505050565b610d91612617565b60fb546040516307e0db1760e01b815261ffff831660048201526001600160a01b03909116906307e0db17906024015b600060405180830381600087803b158015610ddb57600080fd5b505af1158015610def573d6000803e3d6000fd5b5050505050565b610dfe612617565b61ffff909116600090815260fe6020526040902055565b610e1d612617565b6000610e2884611a24565b905080821115610e4a5760405162461bcd60e51b8152600401610b2c90614d3f565b610e5e6001600160a01b03851684846126ef565b836001600160a01b03167ff15a0a3784dea9b4fe33bc98e2450745e262d310237b2868ea8ef56967ff3ecb8484604051610e99929190614d74565b60405180910390a250505050565b610eaf612617565b60fb546040516310ddb13760e01b815261ffff831660048201526001600160a01b03909116906310ddb13790602401610dc1565b6001600160a01b037f0000000000000000000000000000000000000000000000000000000000000000163003610f2b5760405162461bcd60e51b8152600401610b2c90614d8d565b7f00000000000000000000000000000000000000000000000000000000000000006001600160a01b0316610f5d612745565b6001600160a01b031614610f835760405162461bcd60e51b8152600401610b2c90614dc7565b610f8c81612761565b60408051600080825260208201909252610fa891839190612769565b50565b610108548790600160a81b900460ff16158015610fe257506001600160a01b0381166000908152610105602052604090205460ff16155b610ffe5760405162461bcd60e51b8152600401610b2c90614e01565b6110066128d4565b6001600160a01b0388166000908152610104602052604090205460ff16801561104857506001600160a01b0386166000908152610104602052604090205460ff165b6110b85760405162461bcd60e51b815260206004820152603b60248201527f546f6b656e4272696467653a20696e70757420746f6b656e20616e64206f757460448201527a1c1d5d081d1bdad95b88185c99481b9bdd081cdd5c1c1bdc9d1959602a1b6064820152608401610b2c565b6110c388338961292d565b965060006110d18989612a3a565b9050600088116111385760405162461bcd60e51b815260206004820152602c60248201527f546f6b656e4272696467653a20616d6f756e74496e206d75737420626520677260448201526b06561746572207468616e20360a41b6064820152608401610b2c565b6001600160a01b03891660009081526101036020526040812080548a9290611161908490614e44565b9091555061117790508a82898989898934612c9f565b856001600160a01b0316336001600160a01b03168a6001600160a01b03166000805160206156608339815191528b6040516111b491815260200190565b60405180910390a4506111c7600160c955565b505050505050505050565b61ffff8316600090815260fc6020526040812080548291906111f390614cfb565b80601f016020809104026020016040519081016040528092919081815260200182805461121f90614cfb565b801561126c5780601f106112415761010080835404028352916020019161126c565b820191906000526020600020905b81548152906001019060200180831161124f57829003601f168201915b505050505090508383604051611283929190614d2f565b60405180910390208180519060200120149150509392505050565b6112a6612617565b60fb546040516342d65a8d60e01b81526001600160a01b03909116906342d65a8d906112da90869086908690600401614e80565b600060405180830381600087803b1580156112f457600080fd5b505af1158015610d80573d6000803e3d6000fd5b6001600160a01b037f00000000000000000000000000000000000000000000000000000000000000001630036113505760405162461bcd60e51b8152600401610b2c90614d8d565b7f00000000000000000000000000000000000000000000000000000000000000006001600160a01b0316611382612745565b6001600160a01b0316146113a85760405162461bcd60e51b8152600401610b2c90614dc7565b6113b182612761565b6113bd82826001612769565b5050565b6000306001600160a01b037f0000000000000000000000000000000000000000000000000000000000000000161461145c5760405162461bcd60e51b815260206004820152603860248201527f555550535570677261646561626c653a206d757374206e6f742062652063616c6044820152771b1959081d1a1c9bdd59da0819195b1959d85d1958d85b1b60421b6064820152608401610b2c565b506000805160206156a083398151915290565b611477612617565b61ffff91909116600090815261010760205260409020805460ff1916911515919091179055565b6114a6612617565b6001600160a01b0381166115075760405162461bcd60e51b815260206004820152602260248201527f546f6b656e4272696467653a20696e76616c696420746f6b656e206164647265604482015261737360f01b6064820152608401610b2c565b61010880546001600160a01b0319166001600160a01b0383161790556040517fe390bcec6614d6b1f8ae47a4d9d46531ce328e3d293ecd6ddd015cb01eff030090610b67908390614851565b3330146115b15760405162461bcd60e51b815260206004820152602660248201527f4e6f6e626c6f636b696e674c7a4170703a2063616c6c6572206d7573742062656044820152650204c7a4170760d41b6064820152608401610b2c565b6116278686868080601f01602080910402602001604051908101604052809392919081815260200183838082843760009201919091525050604080516020601f890181900481028201810190925287815289935091508790879081908401838280828437600092019190915250612d4192505050565b505050505050565b611637612617565b6101088054821515600160a81b0260ff60a81b199091161790556040517f5362d4bd13945e8d116b90d83a7050fa61ceb02bb79bfae783377adb46916d9490610b6790831515815260200190565b61168d612617565b565b611697612617565b61ffff82166000908152610107602052604090205460ff166117125760405162461bcd60e51b815260206004820152602e60248201527f546f6b656e4272696467653a2074686973206465737420636861696e2069642060448201526d1a5cc81b9bdd08195b98589b195960921b6064820152608401610b2c565b6040516001600160601b0319606083811b8216602084015230901b16603482015260480160408051601f1981840301815291815261ffff8416600090815260fc60205220906117619082614ef9565b505050565b60fc602052600090815260409020805461177f90614cfb565b80601f01602080910402602001604051908101604052809291908181526020018280546117ab90614cfb565b80156117f85780601f106117cd576101008083540402835291602001916117f8565b820191906000526020600020905b8154815290600101906020018083116117db57829003601f168201915b505050505081565b60008061180d8484613137565b600061181c6000806000613207565b90506000806118316040890160208a01614723565b60fb5460405163040a7bb160e41b81526001600160a01b039283169390931415935016906340a7bb1090611873908b903090879087908d908d90600401614fb2565b6040805180830381865afa15801561188f573d6000803e3d6000fd5b505050506040513d601f19601f820116820180604052508101906118b39190615008565b93509350505094509492505050565b6097546001600160a01b031690565b6118d9612617565b6118e7828261035d85611a24565b6001600160a01b038216600090815261010360205260409020546113bd9083908390611dca565b61ffff8116600090815260fc602052604081208054606092919061193190614cfb565b80601f016020809104026020016040519081016040528092919081815260200182805461195d90614cfb565b80156119aa5780601f1061197f576101008083540402835291602001916119aa565b820191906000526020600020905b81548152906001019060200180831161198d57829003601f168201915b505050505090508051600003611a025760405162461bcd60e51b815260206004820152601d60248201527f4c7a4170703a206e6f20747275737465642070617468207265636f72640000006044820152606401610b2c565b611a1d600060148351611a15919061502c565b839190613260565b9392505050565b6001600160a01b038116600081815261010360205260408082205490516370a0823160e01b8152919290916370a0823190611a63903090600401614851565b602060405180830381865afa158015611a80573d6000803e3d6000fd5b505050506040513d601f19601f82011682018060405250810190611aa4919061503f565b611aae919061502c565b92915050565b611abc612617565b818130604051602001611ad193929190615058565b60408051601f1981840301815291815261ffff8516600090815260fc6020522090611afc9082614ef9565b507f8c0400cfe2d1199b1a725c78960bcc2a344d869b80590d0f2bd005db15a572ce838383604051611b3093929190614e80565b60405180910390a1505050565b610108546001600160a01b03811690600160a81b900460ff16158015611b7d57506001600160a01b0381166000908152610105602052604090205460ff16155b611b995760405162461bcd60e51b8152600401610b2c90614e01565b611ba16128d4565b610108546001600160a01b03168015801590611bd657506001600160a01b0381166000908152610104602052604090205460ff165b611c2c5760405162461bcd60e51b815260206004820152602160248201527f546f6b656e4272696467653a20455448206973206e6f7420737570706f7274656044820152601960fa1b6064820152608401610b2c565b60008611611c8f5760405162461bcd60e51b815260206004820152602a60248201527f546f6b656e4272696467653a20616d6f756e74206d75737420626520677265616044820152690746572207468616e20360b41b6064820152608401610b2c565b85341015611caf5760405162461bcd60e51b8152600401610b2c90614d3f565b806001600160a01b031663d0e30db0876040518263ffffffff1660e01b81526004016000604051808303818588803b158015611cea57600080fd5b505af1158015611cfe573d6000803e3d6000fd5b5050506001600160a01b03831660009081526101036020526040812080548a9450909250611d2d908490614e44565b9091555060009050611d3d611f28565b90506000808212611d4e5781611d65565b611d5a8260001961502c565b611d65906001614e44565b9050611d8c8a611d758a84615079565b60008c8b8b8b8f34611d87919061502c565b612c9f565b6040518881526001600160a01b038a169033906000906000805160206156608339815191529060200160405180910390a4505050610d80600160c955565b611dd2612617565b61010854600160b01b900460ff168015611def5750610109544210155b611e4a5760405162461bcd60e51b815260206004820152602660248201527f546f6b656e4272696467653a20656d657267656e6379207769746864726177206044820152651b1bd8dad95960d21b6064820152608401610b2c565b6001600160a01b0383166000908152610103602052604081208054839290611e7390849061502c565b90915550611e8d90506001600160a01b03841683836126ef565b826001600160a01b03167f49507695f37b729944475cf3388760a14760fef784b7ab5ca8863a5f3f8be6bd8383604051611ec8929190614d74565b60405180910390a2505050565b611edd612617565b60ff80546001600160a01b0319166001600160a01b0383161790556040517f5db758e995a17ec1ad84bdef7e8c3293a0bd6179bcce400dff5d4c3d87db726b90610b67908390614851565b60008061010a60009054906101000a90046001600160a01b03166001600160a01b031663feaf968c6040518163ffffffff1660e01b815260040160a060405180830381865afa158015611f7f573d6000803e3d6000fd5b505050506040513d601f19601f82011682018060405250810190611fa391906150a7565b509195945050505050565b600054610100900460ff1615808015611fce5750600054600160ff909116105b80611fef5750611fdd3061336d565b158015611fef575060005460ff166001145b61200b5760405162461bcd60e51b8152600401610b2c906150f7565b6000805460ff19166001179055801561202e576000805461ff0019166101001790555b61203661337c565b61203e6133a3565b612047826133d2565b61204f613402565b612057613431565b80156113bd576000805461ff0019169055604051600181526000805160206156c0833981519152906020015b60405180910390a15050565b612097612617565b6001600160a01b03821660008181526101056020908152604091829020805460ff19168515159081179091558251938452908301527fb1656bd3b50ddb6b12ef259c86e9cb359952b53c4403cfb5a83e23c515a35e229101612083565b6120fc612617565b60fb546040516332fb62e760e21b81526001600160a01b039091169063cbed8b9c906121349088908890889088908890600401615145565b600060405180830381600087803b15801561214e57600080fd5b505af11580156111c7573d6000803e3d6000fd5b61ffff86166000908152610100602052604080822090516121869088908890614d2f565b90815260408051602092819003830190206001600160401b038716600090815292529020549050806122065760405162461bcd60e51b815260206004820152602360248201527f4e6f6e626c6f636b696e674c7a4170703a206e6f2073746f726564206d65737360448201526261676560e81b6064820152608401610b2c565b808383604051612217929190614d2f565b6040518091039020146122765760405162461bcd60e51b815260206004820152602160248201527f4e6f6e626c6f636b696e674c7a4170703a20696e76616c6964207061796c6f616044820152601960fa1b6064820152608401610b2c565b61ffff871660009081526101006020526040808220905161229a9089908990614d2f565b90815260408051602092819003830181206001600160401b038916600090815290845282902093909355601f88018290048202830182019052868252612332918991899089908190840183828082843760009201919091525050604080516020601f8a018190048102820181019092528881528a935091508890889081908401838280828437600092019190915250612d4192505050565b7fc264d91f3adc5588250e1551f547752ca0cfa8f6b530d243b9f9f4cab10ea8e58787878785604051612369959493929190615173565b60405180910390a150505050505050565b612382612617565b610108805460ff60b01b1916600160b01b83151502179055806123a65760006123b3565b6123b34262093a80614e44565b61010981905560408051831515815260208101929092527f27a37fc51e6c5d14309bbed3a54787c8788223b5d9cd5fe10605661665dd84159101610b67565b6123fa612617565b61ffff838116600081815260fd602090815260408083209487168084529482529182902085905581519283528201929092529081018290527f9d5c7c0b934da8fefa9c7760c98383778a12dfbfc0c3b3106518f43fb9508ac090606001611b30565b612464612617565b6101088054821515600160a01b0260ff60a01b199091161790556040517f1584ad594a70cbe1e6515592e1272a987d922b097ead875069cebe8b40c004a490610b6790831515815260200190565b6124ba612617565b61ffff8316600090815260fc602052604090206124d88284836151ae565b507ffa41487ad5d6728f0b19276fa1eddc16558578f5109fc39d2dc33c3230470dab838383604051611b3093929190614e80565b612514612617565b6001600160a01b0381166125795760405162461bcd60e51b815260206004820152602660248201527f4f776e61626c653a206e6577206f776e657220697320746865207a65726f206160448201526564647265737360d01b6064820152608401610b2c565b610fa881613629565b60fb54604051633d7b2f6f60e21b815261ffff808716600483015285166024820152306044820152606481018390526060916001600160a01b03169063f5ecbdbc90608401600060405180830381865afa1580156125e4573d6000803e3d6000fd5b505050506040513d6000823e601f3d908101601f1916820160405261260c9190810190615267565b90505b949350505050565b336126206118c2565b6001600160a01b03161461168d5760405162461bcd60e51b815260206004820181905260248201527f4f776e61626c653a2063616c6c6572206973206e6f7420746865206f776e65726044820152606401610b2c565b6000806126d95a60966366ad5c8a60e01b8989898960405160240161269e94939291906152dd565b60408051601f198184030181529190526020810180516001600160e01b03166001600160e01b0319909316929092179091523092919061367b565b9150915081611627576116278686868685613705565b6117618363a9059cbb60e01b848460405160240161270e929190614d74565b60408051601f198184030181529190526020810180516001600160e01b03166001600160e01b0319909316929092179091526137a3565b6000805160206156a0833981519152546001600160a01b031690565b610fa8612617565b7f4910fdfa16fed3260ed0e7147f7cc6da11a60208b5b9406d12a635614ffd91435460ff161561279c5761176183613878565b826001600160a01b03166352d1902d6040518163ffffffff1660e01b8152600401602060405180830381865afa9250505080156127f6575060408051601f3d908101601f191682019092526127f39181019061503f565b60015b6128595760405162461bcd60e51b815260206004820152602e60248201527f45524331393637557067726164653a206e657720696d706c656d656e7461746960448201526d6f6e206973206e6f74205555505360901b6064820152608401610b2c565b6000805160206156a083398151915281146128c85760405162461bcd60e51b815260206004820152602960248201527f45524331393637557067726164653a20756e737570706f727465642070726f786044820152681a58589b195555525160ba1b6064820152608401610b2c565b50611761838383613912565b600260c954036129265760405162461bcd60e51b815260206004820152601f60248201527f5265656e7472616e637947756172643a207265656e7472616e742063616c6c006044820152606401610b2c565b600260c955565b600080846001600160a01b03166370a08231306040518263ffffffff1660e01b815260040161295c9190614851565b602060405180830381865afa158015612979573d6000803e3d6000fd5b505050506040513d601f19601f8201168201806040525081019061299d919061503f565b90506129b46001600160a01b03861685308661393d565b6040516370a0823160e01b81526000906001600160a01b038716906370a08231906129e3903090600401614851565b602060405180830381865afa158015612a00573d6000803e3d6000fd5b505050506040513d601f19601f82011682018060405250810190612a24919061503f565b9050612a30828261502c565b9695505050505050565b600080836001600160a01b031663a8aa1b316040518163ffffffff1660e01b8152600401602060405180830381865afa158015612a7b573d6000803e3d6000fd5b505050506040513d601f19601f82011682018060405250810190612a9f919061531b565b90506001600160a01b038116612b055760405162461bcd60e51b815260206004820152602560248201527f546f6b656e42726967653a20746f6b656e2070616972206973206e6f7420637260448201526419585d195960da1b6064820152608401610b2c565b6000612b0f611f28565b90506000808212612b205781612b37565b612b2c8260001961502c565b612b37906001614e44565b90506000839050600080826001600160a01b0316630902f1ac6040518163ffffffff1660e01b8152600401606060405180830381865afa158015612b7f573d6000803e3d6000fd5b505050506040513d601f19601f82011682018060405250810190612ba3919061534f565b50915091506000896001600160a01b0316846001600160a01b0316630dfe16816040518163ffffffff1660e01b8152600401602060405180830381865afa158015612bf2573d6000803e3d6000fd5b505050506040513d601f19601f82011682018060405250810190612c16919061531b565b6001600160a01b031614612c5d57826001600160701b0316858a846001600160701b0316612c449190615079565b612c4e9190615079565b612c58919061539f565b612c91565b816001600160701b0316858a856001600160701b0316612c7d9190615079565b612c879190615079565b612c91919061539f565b9a9950505050505050505050565b612ca98383613137565b6000612cb6888888613207565b9050612d188982612cca6020890189614723565b612cda60408a0160208b01614723565b88888080601f0160208091040260200160405190810160405280939291908181526020018383808284376000920191909152508a9250613975915050565b5050610101805461ffff191661ffff9890981697909717909655505050505050565b600160c955565b61ffff84166000908152610107602052604090205460ff16612db15760405162461bcd60e51b8152602060048201526024808201527f546f6b656e4272696467653a20696e76616c696420736f7572636520636861696044820152631b881a5960e21b6064820152608401610b2c565b600080600080612dc085613afe565b93509350935093506000808215612df057610108546001600160a01b03169150612de986613c38565b9050612ed6565b8491506000826001600160a01b031663a8aa1b316040518163ffffffff1660e01b8152600401602060405180830381865afa158015612e33573d6000803e3d6000fd5b505050506040513d601f19601f82011682018060405250810190612e57919061531b565b90506001600160a01b038116612ec85760405162461bcd60e51b815260206004820152603060248201527f546f6b656e4272696467653a20746f6b656e4f75742068617320696e76616c6960448201526f19081b1a5c5d5a591a5d1e481c1bdbdb60821b6064820152608401610b2c565b612ed28784613c8a565b9150505b61010854600160a81b900460ff16158015612f0b57506001600160a01b0382166000908152610105602052604090205460ff16155b612f275760405162461bcd60e51b8152600401610b2c90614e01565b6001600160a01b0382166000908152610104602052604090205460ff16612f9c5760405162461bcd60e51b815260206004820152602360248201527f546f6b656e4272696467653a20746f6b656e206973206e6f7420737570706f726044820152621d195960ea1b6064820152608401610b2c565b6001600160a01b03821660009081526101036020526040902054818110156130125760405162461bcd60e51b815260206004820152602360248201527f546f6b656e4272696467653a20696e73756666696369656e74206c697175696460448201526269747960e81b6064820152608401610b2c565b61301c828261502c565b6001600160a01b03841660009081526101036020526040902055610102546130465781600061304f565b61304f82613e9d565b50610108549092506001600160a01b03848116911614801561306e5750835b156130bf576101085461308b906001600160a01b03168684613ecf565b6040518281526001600160a01b038616906000906000805160206156408339815191529060200160405180910390a361312a565b6001600160a01b038516156130d457846130d8565b61dead5b94506130ee6001600160a01b03841686846126ef565b846001600160a01b0316836001600160a01b03166000805160206156408339815191528460405161312191815260200190565b60405180910390a35b5050505050505050505050565b61010854600160a01b900460ff16801561315757506101015461ffff1615155b156131a657610101546113bd9061ffff16600084848080601f01602080910402602001604051908101604052809392919081815260200183838082843760009201829052509250613f5f915050565b80156113bd5760405162461bcd60e51b815260206004820152602a60248201527f546f6b656e4272696467653a205f61646170746572506172616d73206d7573746044820152691031329032b6b83a3c9760b11b6064820152608401610b2c565b606060006132148461402f565b905060006132218461402f565b60405160006020820152602181018890526041810184905260618101829052909150608101604051602081830303815290604052925050509392505050565b60608161326e81601f614e44565b10156132ad5760405162461bcd60e51b815260206004820152600e60248201526d736c6963655f6f766572666c6f7760901b6044820152606401610b2c565b6132b78284614e44565b845110156132fb5760405162461bcd60e51b8152602060048201526011602482015270736c6963655f6f75744f66426f756e647360781b6044820152606401610b2c565b60608215801561331a5760405191506000825260208201604052613364565b6040519150601f8416801560200281840101858101878315602002848b0101015b8183101561335357805183526020928301920161333b565b5050858452601f01601f1916604052505b50949350505050565b6001600160a01b03163b151590565b600054610100900460ff1661168d5760405162461bcd60e51b8152600401610b2c906153d7565b600054610100900460ff166133ca5760405162461bcd60e51b8152600401610b2c906153d7565b61168d61403b565b600054610100900460ff166133f95760405162461bcd60e51b8152600401610b2c906153d7565b610fa88161406b565b600054610100900460ff166134295760405162461bcd60e51b8152600401610b2c906153d7565b61168d61409b565b600054610100900460ff16158080156134515750600054600160ff909116105b8061347257506134603061336d565b158015613472575060005460ff166001145b61348e5760405162461bcd60e51b8152600401610b2c906150f7565b6000805460ff1916600117905580156134b1576000805461ff0019166101001790555b6101066020527fd1fe999288d0a7e8ed972caa3b05bca25eccd5b4e714d8ec2d4f2d8e2212621680546001600160a01b031990811673694aa1769357215de4fac081bf1f309adc325306179091557f5c4185f72335224d2cf1ca1428fc3b5b56133884156db2ad5f59d4b2ffef13c180548216732514895c72f50d8bd4b4f9b1110f0d6bd2c975261790557fde8c4e26ff4f8e9560afbccf153706b866627645b028d1ea07877fd698662dab8054821673e04676b9a9a2973bcb0d1478b5e1e9098bbb7f3d1790556201388160009081527f5337a075601bc8fa859e72e939688626da1ae8a471b1db80f8e6ae13dcf28bed805490921673d0d5e3db44de05e9f294bb0a3beeaf030de24ada179091556135c84690565b6000908152610106602052604090205461010a80546001600160a01b0319166001600160a01b03909216919091179055508015610fa8576000805461ff0019169055604051600181526000805160206156c083398151915290602001610b67565b609780546001600160a01b038381166001600160a01b0319831681179093556040519116919082907f8be0079c531659141344cd1fd0a4f28419497f9722a3daafe3b4186f6b6457e090600090a35050565b6000606060008060008661ffff166001600160401b038111156136a0576136a0614865565b6040519080825280601f01601f1916602001820160405280156136ca576020820181803683370190505b50905060008087516020890160008d8df191503d9250868311156136ec578692505b828152826000602083013e909890975095505050505050565b818051906020012061010060008761ffff1661ffff168152602001908152602001600020856040516137379190615422565b9081526040805191829003602090810183206001600160401b0388166000908152915220919091557fe183f33de2837795525b4792ca4cd60535bd77c53b7e7030060bfcf5734d6b0c90613794908790879087908790879061543e565b60405180910390a15050505050565b60006137f8826040518060400160405280602081526020017f5361666545524332303a206c6f772d6c6576656c2063616c6c206661696c6564815250856001600160a01b03166140c29092919063ffffffff16565b9050805160001480613819575080806020019051810190613819919061549c565b6117615760405162461bcd60e51b815260206004820152602a60248201527f5361666545524332303a204552433230206f7065726174696f6e20646964206e6044820152691bdd081cdd58d8d9595960b21b6064820152608401610b2c565b6138818161336d565b6138e35760405162461bcd60e51b815260206004820152602d60248201527f455243313936373a206e657720696d706c656d656e746174696f6e206973206e60448201526c1bdd08184818dbdb9d1c9858dd609a1b6064820152608401610b2c565b6000805160206156a083398151915280546001600160a01b0319166001600160a01b0392909216919091179055565b61391b836140d1565b6000825111806139285750805b15611761576139378383614111565b50505050565b6040516001600160a01b03808516602483015283166044820152606481018290526139379085906323b872dd60e01b9060840161270e565b61ffff8616600090815260fc60205260408120805461399390614cfb565b80601f01602080910402602001604051908101604052809291908181526020018280546139bf90614cfb565b8015613a0c5780601f106139e157610100808354040283529160200191613a0c565b820191906000526020600020905b8154815290600101906020018083116139ef57829003601f168201915b505050505090508051600003613a7d5760405162461bcd60e51b815260206004820152603060248201527f4c7a4170703a2064657374696e6174696f6e20636861696e206973206e6f742060448201526f61207472757374656420736f7572636560801b6064820152608401610b2c565b613a88878751614136565b60fb5460405162c5803160e81b81526001600160a01b039091169063c5803100908490613ac3908b9086908c908c908c908c906004016154b9565b6000604051808303818588803b158015613adc57600080fd5b505af1158015613af0573d6000803e3d6000fd5b505050505050505050505050565b6000806000808451606214613b615760405162461bcd60e51b815260206004820152602360248201527f546f6b656e4272696467653a20696e76616c6964207061796c6f6164206c656e6044820152620cee8d60eb1b6064820152608401610b2c565b600085600081518110613b7657613b76615513565b016020015160f81c6001811115613b8f57613b8f6153c1565b90506001816001811115613ba557613ba56153c1565b14613bf25760405162461bcd60e51b815260206004820181905260248201527f546f6b656e4272696467653a20756e6b6e6f776e207061636b657420747970656044820152606401610b2c565b60218601519450604186015193506061860151925085606181518110613c1a57613c1a615513565b602001015160f81c60f81b60f81c60ff166001149150509193509193565b600080613c43611f28565b90506000808212613c545781613c6b565b613c608260001961502c565b613c6b906001614e44565b905080613c8085670de0b6b3a7640000615079565b61260f919061539f565b600080826001600160a01b031663a8aa1b316040518163ffffffff1660e01b8152600401602060405180830381865afa158015613ccb573d6000803e3d6000fd5b505050506040513d601f19601f82011682018060405250810190613cef919061531b565b90506000613cfb611f28565b90506000808212613d0c5781613d23565b613d188260001961502c565b613d23906001614e44565b90506000839050600080826001600160a01b0316630902f1ac6040518163ffffffff1660e01b8152600401606060405180830381865afa158015613d6b573d6000803e3d6000fd5b505050506040513d601f19601f82011682018060405250810190613d8f919061534f565b50915091506000886001600160a01b0316846001600160a01b0316630dfe16816040518163ffffffff1660e01b8152600401602060405180830381865afa158015613dde573d6000803e3d6000fd5b505050506040513d601f19601f82011682018060405250810190613e02919061531b565b6001600160a01b031614613e495784826001600160701b0316846001600160701b03168c613e309190615079565b613e3a919061539f565b613e44919061539f565b613e7d565b84836001600160701b0316836001600160701b03168c613e699190615079565b613e73919061539f565b613e7d919061539f565b9050613e88896141a7565b613e9390600a61560d565b612c919082615079565b6000806127106101025484613eb29190615079565b613ebc919061539f565b9050613ec8818461502c565b9150915091565b604051632e1a7d4d60e01b8152600481018290526001600160a01b03841690632e1a7d4d90602401600060405180830381600087803b158015613f1157600080fd5b505af1158015613f25573d6000803e3d6000fd5b50506040516001600160a01b038516925083156108fc02915083906000818181858888f19350505050158015613937573d6000803e3d6000fd5b6000613f6a836142a5565b61ffff808716600090815260fd602090815260408083209389168352929052205490915080613fd85760405162461bcd60e51b815260206004820152601a602482015279131e905c1c0e881b5a5b91d85cd31a5b5a5d081b9bdd081cd95d60321b6044820152606401610b2c565b613fe28382614e44565b8210156116275760405162461bcd60e51b815260206004820152601b60248201527a4c7a4170703a20676173206c696d697420697320746f6f206c6f7760281b6044820152606401610b2c565b6001600160a01b031690565b600054610100900460ff166140625760405162461bcd60e51b8152600401610b2c906153d7565b61168d33613629565b600054610100900460ff166140925760405162461bcd60e51b8152600401610b2c906153d7565b610fa881614300565b600054610100900460ff16612d3a5760405162461bcd60e51b8152600401610b2c906153d7565b606061260f8484600085614338565b6140da81613878565b6040516001600160a01b038216907fbc7cd75a20ee27fd9adebab32041f755214dbc6bffa90cc0225b39da2e5c2d3b90600090a250565b6060611a1d83836040518060600160405280602781526020016156e060279139614413565b61ffff8216600090815260fe60205260408120549081900361415757506127105b808211156117615760405162461bcd60e51b815260206004820181905260248201527f4c7a4170703a207061796c6f61642073697a6520697320746f6f206c617267656044820152606401610b2c565b60408051600481526024810182526020810180516001600160e01b031663313ce56760e01b1790529051600091829182916001600160a01b038616916141ed9190615422565b600060405180830381855afa9150503d8060008114614228576040519150601f19603f3d011682016040523d82523d6000602084013e61422d565b606091505b5091509150816142915760405162461bcd60e51b815260206004820152602960248201527f546f6b656e4272696467653a206661696c656420746f2067657420746f6b656e60448201526820646563696d616c7360b81b6064820152608401610b2c565b8080602001905181019061260f919061561c565b60006022825110156142f85760405162461bcd60e51b815260206004820152601c60248201527b4c7a4170703a20696e76616c69642061646170746572506172616d7360201b6044820152606401610b2c565b506022015190565b600054610100900460ff166143275760405162461bcd60e51b8152600401610b2c906153d7565b61432f6133a3565b610fa881614481565b6060824710156143995760405162461bcd60e51b815260206004820152602660248201527f416464726573733a20696e73756666696369656e742062616c616e636520666f6044820152651c8818d85b1b60d21b6064820152608401610b2c565b600080866001600160a01b031685876040516143b59190615422565b60006040518083038185875af1925050503d80600081146143f2576040519150601f19603f3d011682016040523d82523d6000602084013e6143f7565b606091505b5091509150614408878383876144ca565b979650505050505050565b6060600080856001600160a01b0316856040516144309190615422565b600060405180830381855af49150503d806000811461446b576040519150601f19603f3d011682016040523d82523d6000602084013e614470565b606091505b5091509150612a30868383876144ca565b600054610100900460ff166144a85760405162461bcd60e51b8152600401610b2c906153d7565b60fb80546001600160a01b0319166001600160a01b0392909216919091179055565b60608315614537578251600003614530576144e48561336d565b6145305760405162461bcd60e51b815260206004820152601d60248201527f416464726573733a2063616c6c20746f206e6f6e2d636f6e74726163740000006044820152606401610b2c565b508161260f565b61260f838381511561454c5781518083602001fd5b8060405162461bcd60e51b8152600401610b2c9190614ab2565b60006020828403121561457857600080fd5b5035919050565b803561ffff8116811461459157600080fd5b919050565b60008083601f8401126145a857600080fd5b5081356001600160401b038111156145bf57600080fd5b6020830191508360208285010111156145d757600080fd5b9250929050565b80356001600160401b038116811461459157600080fd5b6000806000806000806080878903121561460e57600080fd5b6146178761457f565b955060208701356001600160401b038082111561463357600080fd5b61463f8a838b01614596565b909750955085915061465360408a016145de565b9450606089013591508082111561466957600080fd5b5061467689828a01614596565b979a9699509497509295939492505050565b60006020828403121561469a57600080fd5b611a1d8261457f565b600080604083850312156146b657600080fd5b6146bf8361457f565b946020939093013593505050565b6001600160a01b0381168114610fa857600080fd5b6000806000606084860312156146f757600080fd5b8335614702816146cd565b92506020840135614712816146cd565b929592945050506040919091013590565b60006020828403121561473557600080fd5b8135611a1d816146cd565b60006040828403121561475257600080fd5b50919050565b600080600080600080600080610100898b03121561477557600080fd5b61477e8961457f565b9750602089013561478e816146cd565b96506040890135955060608901356147a5816146cd565b945060808901356147b5816146cd565b93506147c48a60a08b01614740565b925060e08901356001600160401b038111156147df57600080fd5b6147eb8b828c01614596565b999c989b5096995094979396929594505050565b60008060006040848603121561481457600080fd5b61481d8461457f565b925060208401356001600160401b0381111561483857600080fd5b61484486828701614596565b9497909650939450505050565b6001600160a01b0391909116815260200190565b634e487b7160e01b600052604160045260246000fd5b604051601f8201601f191681016001600160401b03811182821017156148a3576148a3614865565b604052919050565b60006001600160401b038211156148c4576148c4614865565b50601f01601f191660200190565b600082601f8301126148e357600080fd5b81356148f66148f1826148ab565b61487b565b81815284602083860101111561490b57600080fd5b816020850160208301376000918101602001919091529392505050565b6000806040838503121561493b57600080fd5b8235614946816146cd565b915060208301356001600160401b0381111561496157600080fd5b61496d858286016148d2565b9150509250929050565b8015158114610fa857600080fd5b6000806040838503121561499857600080fd5b6149a18361457f565b915060208301356149b181614977565b809150509250929050565b6000806000606084860312156149d157600080fd5b6149da8461457f565b925060208401356001600160401b038111156149f557600080fd5b614a01868287016148d2565b925050614a10604085016145de565b90509250925092565b600060208284031215614a2b57600080fd5b8135611a1d81614977565b60008060408385031215614a4957600080fd5b614a528361457f565b915060208301356149b1816146cd565b60005b83811015614a7d578181015183820152602001614a65565b50506000910152565b60008151808452614a9e816020860160208601614a62565b601f01601f19169290920160200192915050565b602081526000611a1d6020830184614a86565b60008060008060808587031215614adb57600080fd5b614ae48561457f565b9350614af38660208701614740565b925060608501356001600160401b03811115614b0e57600080fd5b614b1a87828801614596565b95989497509550505050565b60008060408385031215614b3957600080fd5b614b428361457f565b9150614b506020840161457f565b90509250929050565b60008060408385031215614b6c57600080fd5b8235614a52816146cd565b60008060008060008060c08789031215614b9057600080fd5b614b998761457f565b95506020870135614ba9816146cd565b945060408701359350614bbf8860608901614740565b925060a08701356001600160401b03811115614bda57600080fd5b61467689828a01614596565b60008060408385031215614bf957600080fd5b82356149a1816146cd565b600080600080600060808688031215614c1c57600080fd5b614c258661457f565b9450614c336020870161457f565b93506040860135925060608601356001600160401b03811115614c5557600080fd5b614c6188828901614596565b969995985093965092949392505050565b600080600060608486031215614c8757600080fd5b614c908461457f565b9250614c9e6020850161457f565b9150604084013590509250925092565b60008060008060808587031215614cc457600080fd5b614ccd8561457f565b9350614cdb6020860161457f565b92506040850135614ceb816146cd565b9396929550929360600135925050565b600181811c90821680614d0f57607f821691505b60208210810361475257634e487b7160e01b600052602260045260246000fd5b8183823760009101908152919050565b6020808252601b908201527a0a8ded6cadc84e4d2c8ceca7440cccaca40dcdee840cadcdeeaced602b1b604082015260600190565b6001600160a01b03929092168252602082015260400190565b6020808252602c9082015260008051602061568083398151915260408201526b19195b1959d85d1958d85b1b60a21b606082015260800190565b6020808252602c9082015260008051602061568083398151915260408201526b6163746976652070726f787960a01b606082015260800190565b602080825260139082015272151bdad95b909c9a5919d94e881c185d5cd959606a1b604082015260600190565b634e487b7160e01b600052601160045260246000fd5b80820180821115611aae57611aae614e2e565b81835281816020850137506000828201602090810191909152601f909101601f19169091010190565b61ffff8416815260406020820152600061260c604083018486614e57565b601f82111561176157600081815260208120601f850160051c81016020861015614ec55750805b601f850160051c820191505b8181101561162757828155600101614ed1565b600019600383901b1c191660019190911b1790565b81516001600160401b03811115614f1257614f12614865565b614f2681614f208454614cfb565b84614e9e565b602080601f831160018114614f555760008415614f435750858301515b614f4d8582614ee4565b865550611627565b600085815260208120601f198616915b82811015614f8457888601518255948401946001909101908401614f65565b5085821015614fa25787850151600019600388901b60f8161c191681555b5050505050600190811b01905550565b61ffff871681526001600160a01b038616602082015260a060408201819052600090614fe090830187614a86565b85151560608401528281036080840152614ffb818587614e57565b9998505050505050505050565b6000806040838503121561501b57600080fd5b505080516020909101519092909150565b81810381811115611aae57611aae614e2e565b60006020828403121561505157600080fd5b5051919050565b8284823760609190911b6001600160601b0319169101908152601401919050565b8082028115828204841417611aae57611aae614e2e565b80516001600160501b038116811461459157600080fd5b600080600080600060a086880312156150bf57600080fd5b6150c886615090565b94506020860151935060408601519250606086015191506150eb60808701615090565b90509295509295909350565b6020808252602e908201527f496e697469616c697a61626c653a20636f6e747261637420697320616c72656160408201526d191e481a5b9a5d1a585b1a5e995960921b606082015260800190565b600061ffff808816835280871660208401525084604083015260806060830152614408608083018486614e57565b61ffff86168152608060208201526000615191608083018688614e57565b6001600160401b0394909416604083015250606001529392505050565b6001600160401b038311156151c5576151c5614865565b6151d9836151d38354614cfb565b83614e9e565b6000601f84116001811461520757600085156151f55750838201355b6151ff8682614ee4565b845550610def565b600083815260209020601f19861690835b828110156152385786850135825560209485019460019092019101615218565b50868210156152555760001960f88860031b161c19848701351681555b505060018560011b0183555050505050565b60006020828403121561527957600080fd5b81516001600160401b0381111561528f57600080fd5b8201601f810184136152a057600080fd5b80516152ae6148f1826148ab565b8181528560208385010111156152c357600080fd5b6152d4826020830160208601614a62565b95945050505050565b61ffff851681526080602082015260006152fa6080830186614a86565b6001600160401b038516604084015282810360608401526144088185614a86565b60006020828403121561532d57600080fd5b8151611a1d816146cd565b80516001600160701b038116811461459157600080fd5b60008060006060848603121561536457600080fd5b61536d84615338565b925061537b60208501615338565b9150604084015163ffffffff8116811461539457600080fd5b809150509250925092565b6000826153bc57634e487b7160e01b600052601260045260246000fd5b500490565b634e487b7160e01b600052602160045260246000fd5b6020808252602b908201527f496e697469616c697a61626c653a20636f6e7472616374206973206e6f74206960408201526a6e697469616c697a696e6760a81b606082015260800190565b60008251615434818460208701614a62565b9190910192915050565b61ffff8616815260a06020820152600061545b60a0830187614a86565b6001600160401b0386166040840152828103606084015261547c8186614a86565b905082810360808401526154908185614a86565b98975050505050505050565b6000602082840312156154ae57600080fd5b8151611a1d81614977565b61ffff8716815260c0602082015260006154d660c0830188614a86565b82810360408401526154e88188614a86565b6001600160a01b0387811660608601528616608085015283810360a08501529050614ffb8185614a86565b634e487b7160e01b600052603260045260246000fd5b600181815b8085111561556457816000190482111561554a5761554a614e2e565b8085161561555757918102915b93841c939080029061552e565b509250929050565b60008261557b57506001611aae565b8161558857506000611aae565b816001811461559e57600281146155a8576155c4565b6001915050611aae565b60ff8411156155b9576155b9614e2e565b50506001821b611aae565b5060208310610133831016604e8410600b84101617156155e7575081810a611aae565b6155f18383615529565b806000190482111561560557615605614e2e565b029392505050565b6000611a1d60ff84168361556c565b60006020828403121561562e57600080fd5b815160ff81168114611a1d57600080fdfefd19781f43410d9594fd4c02dd1d98dbe99099cbd222d5851a6e183c468d33ca358304737e16805ddc68ab8f04e14751a94bb8fd0a3fecc784b61d0c0789f46046756e6374696f6e206d7573742062652063616c6c6564207468726f75676820360894a13ba1a3210667c828492db98dca3e2076cc3735a920a3ca505d382bbc7f26b83ff96e1f2b6a682f133852f6798a09c465da95921460cefb3847402498416464726573733a206c6f772d6c6576656c2064656c65676174652063616c6c206661696c6564a26469706673582212205661ef782273257a460ae9d045cd7c64835a189237a6cd305170cdf3476eeb1f64736f6c63430008140033",
  "linkReferences": {},
  "deployedLinkReferences": {}
}