{
  "_format": "hh-sol-artifact-1",
  "contractName": "TokenBridge",
  "sourceName": "contracts/bridge/TokenBridge.sol",
  "abi": [
    {
      "inputs": [
        {
          "internalType": "address",
          "name": "_layerZeroEndpoint",
          "type": "address"
        }
      ],
      "stateMutability": "nonpayable",
      "type": "constructor"
    },
    {
      "anonymous": false,
      "inputs": [
        {
          "indexed": false,
          "internalType": "bool",
          "name": "enabled",
          "type": "bool"
        },
        {
          "indexed": false,
          "internalType": "uint256",
          "name": "unlockTime",
          "type": "uint256"
        }
      ],
      "name": "EnableEmergencyWithdraw",
      "type": "event"
    },
    {
      "anonymous": false,
      "inputs": [
        {
          "indexed": false,
          "internalType": "uint16",
          "name": "_srcChainId",
          "type": "uint16"
        },
        {
          "indexed": false,
          "internalType": "bytes",
          "name": "_srcAddress",
          "type": "bytes"
        },
        {
          "indexed": false,
          "internalType": "uint64",
          "name": "_nonce",
          "type": "uint64"
        },
        {
          "indexed": false,
          "internalType": "bytes",
          "name": "_payload",
          "type": "bytes"
        },
        {
          "indexed": false,
          "internalType": "bytes",
          "name": "_reason",
          "type": "bytes"
        }
      ],
      "name": "MessageFailed",
      "type": "event"
    },
    {
      "anonymous": false,
      "inputs": [
        {
          "indexed": true,
          "internalType": "address",
          "name": "previousOwner",
          "type": "address"
        },
        {
          "indexed": true,
          "internalType": "address",
          "name": "newOwner",
          "type": "address"
        }
      ],
      "name": "OwnershipTransferred",
      "type": "event"
    },
    {
      "anonymous": false,
      "inputs": [
        {
          "indexed": true,
          "internalType": "address",
          "name": "token",
          "type": "address"
        },
        {
          "indexed": true,
          "internalType": "address",
          "name": "to",
          "type": "address"
        },
        {
          "indexed": false,
          "internalType": "uint256",
          "name": "amountLD",
          "type": "uint256"
        }
      ],
      "name": "Receive",
      "type": "event"
    },
    {
      "anonymous": false,
      "inputs": [
        {
          "indexed": false,
          "internalType": "address",
          "name": "token",
          "type": "address"
        }
      ],
      "name": "RegisterToken",
      "type": "event"
    },
    {
      "anonymous": false,
      "inputs": [
        {
          "indexed": false,
          "internalType": "uint16",
          "name": "_srcChainId",
          "type": "uint16"
        },
        {
          "indexed": false,
          "internalType": "bytes",
          "name": "_srcAddress",
          "type": "bytes"
        },
        {
          "indexed": false,
          "internalType": "uint64",
          "name": "_nonce",
          "type": "uint64"
        },
        {
          "indexed": false,
          "internalType": "bytes32",
          "name": "_payloadHash",
          "type": "bytes32"
        }
      ],
      "name": "RetryMessageSuccess",
      "type": "event"
    },
    {
      "anonymous": false,
      "inputs": [
        {
          "indexed": true,
          "internalType": "address",
          "name": "token",
          "type": "address"
        },
        {
          "indexed": true,
          "internalType": "address",
          "name": "from",
          "type": "address"
        },
        {
          "indexed": true,
          "internalType": "address",
          "name": "to",
          "type": "address"
        },
        {
          "indexed": false,
          "internalType": "uint256",
          "name": "amountLD",
          "type": "uint256"
        }
      ],
      "name": "Send",
      "type": "event"
    },
    {
      "anonymous": false,
      "inputs": [
        {
          "indexed": false,
          "internalType": "uint16",
          "name": "aptosChainId",
          "type": "uint16"
        }
      ],
      "name": "SetAptosChainId",
      "type": "event"
    },
    {
      "anonymous": false,
      "inputs": [
        {
          "indexed": false,
          "internalType": "uint256",
          "name": "bridgeFeeBP",
          "type": "uint256"
        }
      ],
      "name": "SetBridgeBP",
      "type": "event"
    },
    {
      "anonymous": false,
      "inputs": [
        {
          "indexed": false,
          "internalType": "bool",
          "name": "paused",
          "type": "bool"
        }
      ],
      "name": "SetGlobalPause",
      "type": "event"
    },
    {
      "anonymous": false,
      "inputs": [
        {
          "indexed": false,
          "internalType": "uint16",
          "name": "localChainId",
          "type": "uint16"
        }
      ],
      "name": "SetLocalChainId",
      "type": "event"
    },
    {
      "anonymous": false,
      "inputs": [
        {
          "indexed": false,
          "internalType": "uint16",
          "name": "_dstChainId",
          "type": "uint16"
        },
        {
          "indexed": false,
          "internalType": "uint16",
          "name": "_type",
          "type": "uint16"
        },
        {
          "indexed": false,
          "internalType": "uint256",
          "name": "_minDstGas",
          "type": "uint256"
        }
      ],
      "name": "SetMinDstGas",
      "type": "event"
    },
    {
      "anonymous": false,
      "inputs": [
        {
          "indexed": false,
          "internalType": "address",
          "name": "precrime",
          "type": "address"
        }
      ],
      "name": "SetPrecrime",
      "type": "event"
    },
    {
      "anonymous": false,
      "inputs": [
        {
          "indexed": false,
          "internalType": "address",
          "name": "token",
          "type": "address"
        },
        {
          "indexed": false,
          "internalType": "bool",
          "name": "paused",
          "type": "bool"
        }
      ],
      "name": "SetTokenPause",
      "type": "event"
    },
    {
      "anonymous": false,
      "inputs": [
        {
          "indexed": false,
          "internalType": "uint16",
          "name": "_remoteChainId",
          "type": "uint16"
        },
        {
          "indexed": false,
          "internalType": "bytes",
          "name": "_path",
          "type": "bytes"
        }
      ],
      "name": "SetTrustedRemote",
      "type": "event"
    },
    {
      "anonymous": false,
      "inputs": [
        {
          "indexed": false,
          "internalType": "uint16",
          "name": "_remoteChainId",
          "type": "uint16"
        },
        {
          "indexed": false,
          "internalType": "bytes",
          "name": "_remoteAddress",
          "type": "bytes"
        }
      ],
      "name": "SetTrustedRemoteAddress",
      "type": "event"
    },
    {
      "anonymous": false,
      "inputs": [
        {
          "indexed": false,
          "internalType": "bool",
          "name": "useCustomAdapterParams",
          "type": "bool"
        }
      ],
      "name": "SetUseCustomAdapterParams",
      "type": "event"
    },
    {
      "anonymous": false,
      "inputs": [
        {
          "indexed": false,
          "internalType": "address",
          "name": "weth",
          "type": "address"
        }
      ],
      "name": "SetWETH",
      "type": "event"
    },
    {
      "anonymous": false,
      "inputs": [
        {
          "indexed": true,
          "internalType": "address",
          "name": "token",
          "type": "address"
        },
        {
          "indexed": false,
          "internalType": "address",
          "name": "to",
          "type": "address"
        },
        {
          "indexed": false,
          "internalType": "uint256",
          "name": "amountLD",
          "type": "uint256"
        }
      ],
      "name": "WithdrawFee",
      "type": "event"
    },
    {
      "anonymous": false,
      "inputs": [
        {
          "indexed": true,
          "internalType": "address",
          "name": "token",
          "type": "address"
        },
        {
          "indexed": false,
          "internalType": "address",
          "name": "to",
          "type": "address"
        },
        {
          "indexed": false,
          "internalType": "uint256",
          "name": "amountLD",
          "type": "uint256"
        }
      ],
      "name": "WithdrawTVL",
      "type": "event"
    },
    {
      "inputs": [],
      "name": "BP_DENOMINATOR",
      "outputs": [
        {
          "internalType": "uint256",
          "name": "",
          "type": "uint256"
        }
      ],
      "stateMutability": "view",
      "type": "function"
    },
    {
      "inputs": [],
      "name": "DEFAULT_PAYLOAD_SIZE_LIMIT",
      "outputs": [
        {
          "internalType": "uint256",
          "name": "",
          "type": "uint256"
        }
      ],
      "stateMutability": "view",
      "type": "function"
    },
    {
      "inputs": [],
      "name": "SHARED_DECIMALS",
      "outputs": [
        {
          "internalType": "uint8",
          "name": "",
          "type": "uint8"
        }
      ],
      "stateMutability": "view",
      "type": "function"
    },
    {
      "inputs": [
        {
          "internalType": "address",
          "name": "_token",
          "type": "address"
        }
      ],
      "name": "accruedFeeLD",
      "outputs": [
        {
          "internalType": "uint256",
          "name": "",
          "type": "uint256"
        }
      ],
      "stateMutability": "view",
      "type": "function"
    },
    {
      "inputs": [],
      "name": "aptosChainId",
      "outputs": [
        {
          "internalType": "uint16",
          "name": "",
          "type": "uint16"
        }
      ],
      "stateMutability": "view",
      "type": "function"
    },
    {
      "inputs": [],
      "name": "bridgeFeeBP",
      "outputs": [
        {
          "internalType": "uint256",
          "name": "",
          "type": "uint256"
        }
      ],
      "stateMutability": "view",
      "type": "function"
    },
    {
      "inputs": [],
      "name": "dataFeed",
      "outputs": [
        {
          "internalType": "contract AggregatorV3Interface",
          "name": "",
          "type": "address"
        }
      ],
      "stateMutability": "view",
      "type": "function"
    },
    {
      "inputs": [],
      "name": "emergencyWithdrawEnabled",
      "outputs": [
        {
          "internalType": "bool",
          "name": "",
          "type": "bool"
        }
      ],
      "stateMutability": "view",
      "type": "function"
    },
    {
      "inputs": [],
      "name": "emergencyWithdrawTime",
      "outputs": [
        {
          "internalType": "uint256",
          "name": "",
          "type": "uint256"
        }
      ],
      "stateMutability": "view",
      "type": "function"
    },
    {
      "inputs": [
        {
          "internalType": "uint16",
          "name": "",
          "type": "uint16"
        }
      ],
      "name": "enableChain",
      "outputs": [
        {
          "internalType": "bool",
          "name": "",
          "type": "bool"
        }
      ],
      "stateMutability": "view",
      "type": "function"
    },
    {
      "inputs": [
        {
          "internalType": "bool",
          "name": "enabled",
          "type": "bool"
        }
      ],
      "name": "enableEmergencyWithdraw",
      "outputs": [],
      "stateMutability": "nonpayable",
      "type": "function"
    },
    {
      "inputs": [
        {
          "internalType": "uint16",
          "name": "",
          "type": "uint16"
        },
        {
          "internalType": "bytes",
          "name": "",
          "type": "bytes"
        },
        {
          "internalType": "uint64",
          "name": "",
          "type": "uint64"
        }
      ],
      "name": "failedMessages",
      "outputs": [
        {
          "internalType": "bytes32",
          "name": "",
          "type": "bytes32"
        }
      ],
      "stateMutability": "view",
      "type": "function"
    },
    {
      "inputs": [
        {
          "internalType": "uint16",
          "name": "_srcChainId",
          "type": "uint16"
        },
        {
          "internalType": "bytes",
          "name": "_srcAddress",
          "type": "bytes"
        }
      ],
      "name": "forceResumeReceive",
      "outputs": [],
      "stateMutability": "nonpayable",
      "type": "function"
    },
    {
      "inputs": [],
      "name": "getChainID",
      "outputs": [
        {
          "internalType": "uint256",
          "name": "",
          "type": "uint256"
        }
      ],
      "stateMutability": "view",
      "type": "function"
    },
    {
      "inputs": [],
      "name": "getChainlinkDataFeedLatestAnswer",
      "outputs": [
        {
          "internalType": "int256",
          "name": "",
          "type": "int256"
        }
      ],
      "stateMutability": "view",
      "type": "function"
    },
    {
      "inputs": [
        {
          "internalType": "uint16",
          "name": "_version",
          "type": "uint16"
        },
        {
          "internalType": "uint16",
          "name": "_chainId",
          "type": "uint16"
        },
        {
          "internalType": "address",
          "name": "",
          "type": "address"
        },
        {
          "internalType": "uint256",
          "name": "_configType",
          "type": "uint256"
        }
      ],
      "name": "getConfig",
      "outputs": [
        {
          "internalType": "bytes",
          "name": "",
          "type": "bytes"
        }
      ],
      "stateMutability": "view",
      "type": "function"
    },
    {
      "inputs": [
        {
          "internalType": "uint16",
          "name": "_remoteChainId",
          "type": "uint16"
        }
      ],
      "name": "getTrustedRemoteAddress",
      "outputs": [
        {
          "internalType": "bytes",
          "name": "",
          "type": "bytes"
        }
      ],
      "stateMutability": "view",
      "type": "function"
    },
    {
      "inputs": [],
      "name": "globalPaused",
      "outputs": [
        {
          "internalType": "bool",
          "name": "",
          "type": "bool"
        }
      ],
      "stateMutability": "view",
      "type": "function"
    },
    {
      "inputs": [
        {
          "internalType": "uint16",
          "name": "_srcChainId",
          "type": "uint16"
        },
        {
          "internalType": "bytes",
          "name": "_srcAddress",
          "type": "bytes"
        }
      ],
      "name": "isTrustedRemote",
      "outputs": [
        {
          "internalType": "bool",
          "name": "",
          "type": "bool"
        }
      ],
      "stateMutability": "view",
      "type": "function"
    },
    {
      "inputs": [],
      "name": "lzEndpoint",
      "outputs": [
        {
          "internalType": "contract ILayerZeroEndpoint",
          "name": "",
          "type": "address"
        }
      ],
      "stateMutability": "view",
      "type": "function"
    },
    {
      "inputs": [
        {
          "internalType": "uint16",
          "name": "_srcChainId",
          "type": "uint16"
        },
        {
          "internalType": "bytes",
          "name": "_srcAddress",
          "type": "bytes"
        },
        {
          "internalType": "uint64",
          "name": "_nonce",
          "type": "uint64"
        },
        {
          "internalType": "bytes",
          "name": "_payload",
          "type": "bytes"
        }
      ],
      "name": "lzReceive",
      "outputs": [],
      "stateMutability": "nonpayable",
      "type": "function"
    },
    {
      "inputs": [
        {
          "internalType": "uint16",
          "name": "",
          "type": "uint16"
        },
        {
          "internalType": "uint16",
          "name": "",
          "type": "uint16"
        }
      ],
      "name": "minDstGasLookup",
      "outputs": [
        {
          "internalType": "uint256",
          "name": "",
          "type": "uint256"
        }
      ],
      "stateMutability": "view",
      "type": "function"
    },
    {
      "inputs": [
        {
          "internalType": "uint16",
          "name": "_srcChainId",
          "type": "uint16"
        },
        {
          "internalType": "bytes",
          "name": "_srcAddress",
          "type": "bytes"
        },
        {
          "internalType": "uint64",
          "name": "_nonce",
          "type": "uint64"
        },
        {
          "internalType": "bytes",
          "name": "_payload",
          "type": "bytes"
        }
      ],
      "name": "nonblockingLzReceive",
      "outputs": [],
      "stateMutability": "nonpayable",
      "type": "function"
    },
    {
      "inputs": [],
      "name": "owner",
      "outputs": [
        {
          "internalType": "address",
          "name": "",
          "type": "address"
        }
      ],
      "stateMutability": "view",
      "type": "function"
    },
    {
      "inputs": [
        {
          "internalType": "address",
          "name": "",
          "type": "address"
        }
      ],
      "name": "pausedTokens",
      "outputs": [
        {
          "internalType": "bool",
          "name": "",
          "type": "bool"
        }
      ],
      "stateMutability": "view",
      "type": "function"
    },
    {
      "inputs": [
        {
          "internalType": "uint16",
          "name": "",
          "type": "uint16"
        }
      ],
      "name": "payloadSizeLimitLookup",
      "outputs": [
        {
          "internalType": "uint256",
          "name": "",
          "type": "uint256"
        }
      ],
      "stateMutability": "view",
      "type": "function"
    },
    {
      "inputs": [],
      "name": "precrime",
      "outputs": [
        {
          "internalType": "address",
          "name": "",
          "type": "address"
        }
      ],
      "stateMutability": "view",
      "type": "function"
    },
    {
      "inputs": [
        {
          "internalType": "uint256",
          "name": "",
          "type": "uint256"
        }
      ],
      "name": "priceFeed",
      "outputs": [
        {
          "internalType": "address",
          "name": "",
          "type": "address"
        }
      ],
      "stateMutability": "view",
      "type": "function"
    },
    {
      "inputs": [
        {
          "internalType": "uint16",
          "name": "_toLzDestChain",
          "type": "uint16"
        },
        {
          "components": [
            {
              "internalType": "address payable",
              "name": "refundAddress",
              "type": "address"
            },
            {
              "internalType": "address",
              "name": "zroPaymentAddress",
              "type": "address"
            }
          ],
          "internalType": "struct LzLib.CallParams",
          "name": "_callParams",
          "type": "tuple"
        },
        {
          "internalType": "bytes",
          "name": "_adapterParams",
          "type": "bytes"
        }
      ],
      "name": "quoteForSend",
      "outputs": [
        {
          "internalType": "uint256",
          "name": "nativeFee",
          "type": "uint256"
        },
        {
          "internalType": "uint256",
          "name": "zroFee",
          "type": "uint256"
        }
      ],
      "stateMutability": "view",
      "type": "function"
    },
    {
      "inputs": [],
      "name": "renounceOwnership",
      "outputs": [],
      "stateMutability": "nonpayable",
      "type": "function"
    },
    {
      "inputs": [
        {
          "internalType": "uint16",
          "name": "_srcChainId",
          "type": "uint16"
        },
        {
          "internalType": "bytes",
          "name": "_srcAddress",
          "type": "bytes"
        },
        {
          "internalType": "uint64",
          "name": "_nonce",
          "type": "uint64"
        },
        {
          "internalType": "bytes",
          "name": "_payload",
          "type": "bytes"
        }
      ],
      "name": "retryMessage",
      "outputs": [],
      "stateMutability": "payable",
      "type": "function"
    },
    {
      "inputs": [
        {
          "internalType": "uint16",
          "name": "_toLzDestChain",
          "type": "uint16"
        },
        {
          "internalType": "address",
          "name": "_toAddress",
          "type": "address"
        },
        {
          "internalType": "uint256",
          "name": "_amountIn",
          "type": "uint256"
        },
        {
          "components": [
            {
              "internalType": "address payable",
              "name": "refundAddress",
              "type": "address"
            },
            {
              "internalType": "address",
              "name": "zroPaymentAddress",
              "type": "address"
            }
          ],
          "internalType": "struct LzLib.CallParams",
          "name": "_callParams",
          "type": "tuple"
        },
        {
          "internalType": "bytes",
          "name": "_adapterParams",
          "type": "bytes"
        }
      ],
      "name": "sendETHToDest",
      "outputs": [],
      "stateMutability": "payable",
      "type": "function"
    },
    {
      "inputs": [
        {
          "internalType": "uint16",
          "name": "_toLzDestChain",
          "type": "uint16"
        },
        {
          "internalType": "address",
          "name": "_tokenIn",
          "type": "address"
        },
        {
          "internalType": "uint256",
          "name": "_amountIn",
          "type": "uint256"
        },
        {
          "internalType": "address",
          "name": "_tokenOut",
          "type": "address"
        },
        {
          "internalType": "address",
          "name": "_toAddress",
          "type": "address"
        },
        {
          "components": [
            {
              "internalType": "address payable",
              "name": "refundAddress",
              "type": "address"
            },
            {
              "internalType": "address",
              "name": "zroPaymentAddress",
              "type": "address"
            }
          ],
          "internalType": "struct LzLib.CallParams",
          "name": "_callParams",
          "type": "tuple"
        },
        {
          "internalType": "bytes",
          "name": "_adapterParams",
          "type": "bytes"
        }
      ],
      "name": "sendTokenToDest",
      "outputs": [],
      "stateMutability": "payable",
      "type": "function"
    },
    {
      "inputs": [
        {
          "internalType": "uint256",
          "name": "_bridgeFeeBP",
          "type": "uint256"
        }
      ],
      "name": "setBridgeFeeBP",
      "outputs": [],
      "stateMutability": "nonpayable",
      "type": "function"
    },
    {
      "inputs": [
        {
          "internalType": "uint16",
          "name": "_version",
          "type": "uint16"
        },
        {
          "internalType": "uint16",
          "name": "_chainId",
          "type": "uint16"
        },
        {
          "internalType": "uint256",
          "name": "_configType",
          "type": "uint256"
        },
        {
          "internalType": "bytes",
          "name": "_config",
          "type": "bytes"
        }
      ],
      "name": "setConfig",
      "outputs": [],
      "stateMutability": "nonpayable",
      "type": "function"
    },
    {
      "inputs": [
        {
          "internalType": "uint16",
          "name": "_lzDestChainId",
          "type": "uint16"
        },
        {
          "internalType": "bool",
          "name": "enable",
          "type": "bool"
        }
      ],
      "name": "setEnableChain",
      "outputs": [],
      "stateMutability": "nonpayable",
      "type": "function"
    },
    {
      "inputs": [
        {
          "internalType": "bool",
          "name": "_paused",
          "type": "bool"
        }
      ],
      "name": "setGlobalPause",
      "outputs": [],
      "stateMutability": "nonpayable",
      "type": "function"
    },
    {
      "inputs": [
        {
          "internalType": "uint16",
          "name": "_dstChainId",
          "type": "uint16"
        },
        {
          "internalType": "uint16",
          "name": "_packetType",
          "type": "uint16"
        },
        {
          "internalType": "uint256",
          "name": "_minGas",
          "type": "uint256"
        }
      ],
      "name": "setMinDstGas",
      "outputs": [],
      "stateMutability": "nonpayable",
      "type": "function"
    },
    {
      "inputs": [
        {
          "internalType": "uint16",
          "name": "_dstChainId",
          "type": "uint16"
        },
        {
          "internalType": "uint256",
          "name": "_size",
          "type": "uint256"
        }
      ],
      "name": "setPayloadSizeLimit",
      "outputs": [],
      "stateMutability": "nonpayable",
      "type": "function"
    },
    {
      "inputs": [
        {
          "internalType": "address",
          "name": "_precrime",
          "type": "address"
        }
      ],
      "name": "setPrecrime",
      "outputs": [],
      "stateMutability": "nonpayable",
      "type": "function"
    },
    {
      "inputs": [
        {
          "internalType": "uint16",
          "name": "_version",
          "type": "uint16"
        }
      ],
      "name": "setReceiveVersion",
      "outputs": [],
      "stateMutability": "nonpayable",
      "type": "function"
    },
    {
      "inputs": [
        {
          "internalType": "uint16",
          "name": "_version",
          "type": "uint16"
        }
      ],
      "name": "setSendVersion",
      "outputs": [],
      "stateMutability": "nonpayable",
      "type": "function"
    },
    {
      "inputs": [
        {
          "internalType": "address",
          "name": "_token",
          "type": "address"
        },
        {
          "internalType": "bool",
          "name": "_paused",
          "type": "bool"
        }
      ],
      "name": "setTokenPause",
      "outputs": [],
      "stateMutability": "nonpayable",
      "type": "function"
    },
    {
      "inputs": [
        {
          "internalType": "uint16",
          "name": "_remoteChainId",
          "type": "uint16"
        },
        {
          "internalType": "bytes",
          "name": "_path",
          "type": "bytes"
        }
      ],
      "name": "setTrustedRemote",
      "outputs": [],
      "stateMutability": "nonpayable",
      "type": "function"
    },
    {
      "inputs": [
        {
          "internalType": "uint16",
          "name": "_remoteChainId",
          "type": "uint16"
        },
        {
          "internalType": "bytes",
          "name": "_remoteAddress",
          "type": "bytes"
        }
      ],
      "name": "setTrustedRemoteAddress",
      "outputs": [],
      "stateMutability": "nonpayable",
      "type": "function"
    },
    {
      "inputs": [
        {
          "internalType": "bool",
          "name": "_useCustomAdapterParams",
          "type": "bool"
        }
      ],
      "name": "setUseCustomAdapterParams",
      "outputs": [],
      "stateMutability": "nonpayable",
      "type": "function"
    },
    {
      "inputs": [
        {
          "internalType": "address",
          "name": "_weth",
          "type": "address"
        }
      ],
      "name": "setWETH",
      "outputs": [],
      "stateMutability": "nonpayable",
      "type": "function"
    },
    {
      "inputs": [
        {
          "internalType": "address",
          "name": "",
          "type": "address"
        }
      ],
      "name": "supportedTokens",
      "outputs": [
        {
          "internalType": "bool",
          "name": "",
          "type": "bool"
        }
      ],
      "stateMutability": "view",
      "type": "function"
    },
    {
      "inputs": [
        {
          "internalType": "address",
          "name": "newOwner",
          "type": "address"
        }
      ],
      "name": "transferOwnership",
      "outputs": [],
      "stateMutability": "nonpayable",
      "type": "function"
    },
    {
      "inputs": [
        {
          "internalType": "uint16",
          "name": "_lzDestChainId",
          "type": "uint16"
        },
        {
          "internalType": "address",
          "name": "_otherContract",
          "type": "address"
        }
      ],
      "name": "trustAddress",
      "outputs": [],
      "stateMutability": "nonpayable",
      "type": "function"
    },
    {
      "inputs": [
        {
          "internalType": "uint16",
          "name": "",
          "type": "uint16"
        }
      ],
      "name": "trustedRemoteLookup",
      "outputs": [
        {
          "internalType": "bytes",
          "name": "",
          "type": "bytes"
        }
      ],
      "stateMutability": "view",
      "type": "function"
    },
    {
      "inputs": [
        {
          "internalType": "address",
          "name": "",
          "type": "address"
        }
      ],
      "name": "tvlSDs",
      "outputs": [
        {
          "internalType": "uint256",
          "name": "",
          "type": "uint256"
        }
      ],
      "stateMutability": "view",
      "type": "function"
    },
    {
      "inputs": [],
      "name": "useCustomAdapterParams",
      "outputs": [
        {
          "internalType": "bool",
          "name": "",
          "type": "bool"
        }
      ],
      "stateMutability": "view",
      "type": "function"
    },
    {
      "inputs": [],
      "name": "weth",
      "outputs": [
        {
          "internalType": "address",
          "name": "",
          "type": "address"
        }
      ],
      "stateMutability": "view",
      "type": "function"
    },
    {
      "inputs": [
        {
          "internalType": "address",
          "name": "_token",
          "type": "address"
        },
        {
          "internalType": "address",
          "name": "_to",
          "type": "address"
        }
      ],
      "name": "withdrawEmergency",
      "outputs": [],
      "stateMutability": "nonpayable",
      "type": "function"
    },
    {
      "inputs": [
        {
          "internalType": "address",
          "name": "_token",
          "type": "address"
        },
        {
          "internalType": "address",
          "name": "_to",
          "type": "address"
        },
        {
          "internalType": "uint256",
          "name": "_amountLD",
          "type": "uint256"
        }
      ],
      "name": "withdrawFee",
      "outputs": [],
      "stateMutability": "nonpayable",
      "type": "function"
    },
    {
      "inputs": [
        {
          "internalType": "address",
          "name": "_token",
          "type": "address"
        },
        {
          "internalType": "address",
          "name": "_to",
          "type": "address"
        },
        {
          "internalType": "uint256",
          "name": "_amount",
          "type": "uint256"
        }
      ],
      "name": "withdrawTVL",
      "outputs": [],
      "stateMutability": "nonpayable",
      "type": "function"
    },
    {
      "stateMutability": "payable",
      "type": "receive"
    }
  ],
  "bytecode": "0x60a06040523480156200001157600080fd5b5060405162004dc438038062004dc48339810160408190526200003491620001f1565b80806200004133620001a1565b6001600160a01b0316608052506001600655600c6020527ffb98e46622adefef325416640ef2b1e72e0d2c55e51cbfedb22b5675cc55b73480546001600160a01b031990811673694aa1769357215de4fac081bf1f309adc325306179091557fccb2241f604186e1ec5a6ff9fcd294af6593a87ef0e0966dcb97d71c83541f4480548216732514895c72f50d8bd4b4f9b1110f0d6bd2c975261790557f054d17862611925f71b3a217e02944562e6baa5529fcff2221d750b631362f9e8054821673b8c458c957a6e6ca7cc53ed95bea548c52afaa241790556201388160009081527f682e17c39ff041a8b195e36fad201ca6cb181e8940a4d673578a46e98267ce46805490921673d0d5e3db44de05e9f294bb0a3beeaf030de24ada179091556200016a4690565b6000908152600c6020526040902054601080546001600160a01b0319166001600160a01b0390921691909117905550620002239050565b600080546001600160a01b038381166001600160a01b0319831681178455604051919092169283917f8be0079c531659141344cd1fd0a4f28419497f9722a3daafe3b4186f6b6457e09190a35050565b6000602082840312156200020457600080fd5b81516001600160a01b03811681146200021c57600080fd5b9392505050565b608051614b4d62000277600039600081816107b101528181610ae601528181610d3001528181610e6a015281816111ae015281816115e201528181611df4015281816122ae01526132630152614b4d6000f3fe6080604052600436106102885760003560e01c80620d5900146102945780621d3567146102b657806307e0db17146102d65780630df37483146102f65780631095b6d71461031657806310ddb1371461033657806325a9f792146103565780632db88ecf1461037f5780633bd0536b146103ad5780633d8b38f6146103c05780633f1f4fa4146103f05780633fc8cef31461041d57806342d65a8d1461044a578063564b81ef1461046a5780635747e69f1461047d57806359d91cd71461049e5780635b769f3c146104be5780635b8c41e6146104de57806361a552dc1461052d57806366ad5c8a1461054e57806368c4ac261461056e57806369a6b3db1461059e578063715018a6146105be57806373afbcaa146105d35780637533d788146105f35780637d5f5bd4146106205780638cfd8f5c146106555780638da5cb5b1461068d57806393f26a4c146106a2578063950c8a74146106c257806397167964146106e25780639e42ff90146107095780639f38369a14610729578063a2f27ae014610749578063a6c3d16514610769578063abe685cd14610789578063b353aaa71461079f578063b5f97073146107d3578063b790d7c114610809578063b90fc4a51461081c578063baf3292d1461083c578063bea4dfb51461085c578063c446183414610789578063cb8d3b1f14610871578063cbed8b9c14610891578063d1deba1f146108b1578063d71e409e146108c4578063de9b9488146108e4578063df2a5b3b146108fa578063df4bbc1c1461091a578063e3179c3e1461094a578063eab45d9c14610977578063eb8d72b714610997578063ed629c5c146109b7578063ee7a4596146109d8578063f2fde38b14610a08578063f5ecbdbc14610a2857600080fd5b3661028f57005b600080fd5b3480156102a057600080fd5b506102b46102af366004613b6d565b610a48565b005b3480156102c257600080fd5b506102b46102d1366004613bfc565b610ae3565b3480156102e257600080fd5b506102b46102f1366004613c8f565b610d0f565b34801561030257600080fd5b506102b4610311366004613caa565b610d98565b34801561032257600080fd5b506102b4610331366004613ce9565b610db7565b34801561034257600080fd5b506102b4610351366004613c8f565b610e49565b34801561036257600080fd5b5061036c60085481565b6040519081526020015b60405180910390f35b34801561038b57600080fd5b5060075461039a9061ffff1681565b60405161ffff9091168152602001610376565b6102b46103bb366004613d42565b610ea1565b3480156103cc57600080fd5b506103e06103db366004613de9565b6110c3565b6040519015158152602001610376565b3480156103fc57600080fd5b5061036c61040b366004613c8f565b60036020526000908152604090205481565b34801561042957600080fd5b50600e5461043d906001600160a01b031681565b6040516103769190613e3b565b34801561045657600080fd5b506102b4610465366004613de9565b61118f565b34801561047657600080fd5b504661036c565b34801561048957600080fd5b50600e546103e090600160b01b900460ff1681565b3480156104aa57600080fd5b506102b46104b9366004613e5d565b611215565b3480156104ca57600080fd5b506102b46104d9366004613e94565b611243565b3480156104ea57600080fd5b5061036c6104f9366004613f1e565b6005602090815260009384526040808520845180860184018051928152908401958401959095209452929052825290205481565b34801561053957600080fd5b50600e546103e090600160a81b900460ff1681565b34801561055a57600080fd5b506102b4610569366004613bfc565b6112f7565b34801561057a57600080fd5b506103e0610589366004613e94565b600a6020526000908152604090205460ff1681565b3480156105aa57600080fd5b506102b46105b9366004613fbe565b6113d3565b3480156105ca57600080fd5b506102b4611428565b3480156105df57600080fd5b506102b46105ee366004613fdb565b611432565b3480156105ff57600080fd5b5061061361060e366004613c8f565b611508565b6040516103769190614057565b34801561062c57600080fd5b5061064061063b36600461406a565b6115a2565b60408051928352602083019190915201610376565b34801561066157600080fd5b5061036c6106703660046140cb565b600260209081526000928352604080842090915290825290205481565b34801561069957600080fd5b5061043d611685565b3480156106ae57600080fd5b506102b46106bd3660046140fe565b611694565b3480156106ce57600080fd5b5060045461043d906001600160a01b031681565b3480156106ee57600080fd5b506106f7600681565b60405160ff9091168152602001610376565b34801561071557600080fd5b5060105461043d906001600160a01b031681565b34801561073557600080fd5b50610613610744366004613c8f565b6116d4565b34801561075557600080fd5b5061036c610764366004613e94565b6117ea565b34801561077557600080fd5b506102b4610784366004613de9565b611879565b34801561079557600080fd5b5061036c61271081565b3480156107ab57600080fd5b5061043d7f000000000000000000000000000000000000000000000000000000000000000081565b3480156107df57600080fd5b5061043d6107ee366004613b6d565b600c602052600090815260409020546001600160a01b031681565b6102b461081736600461411c565b611902565b34801561082857600080fd5b506102b4610837366004613ce9565b611b8a565b34801561084857600080fd5b506102b4610857366004613e94565b611c92565b34801561086857600080fd5b5061036c611ce5565b34801561087d57600080fd5b506102b461088c36600461418b565b611d6a565b34801561089d57600080fd5b506102b46108ac3660046141a9565b611dd5565b6102b46108bf366004613bfc565b611e5f565b3480156108d057600080fd5b506102b46108df366004613fbe565b612075565b3480156108f057600080fd5b5061036c600f5481565b34801561090657600080fd5b506102b4610915366004614217565b6120eb565b34801561092657600080fd5b506103e0610935366004613c8f565b600d6020526000908152604090205460ff1681565b34801561095657600080fd5b5061036c610965366004613e94565b60096020526000908152604090205481565b34801561098357600080fd5b506102b4610992366004613fbe565b612155565b3480156109a357600080fd5b506102b46109b2366004613de9565b6121aa565b3480156109c357600080fd5b50600e546103e090600160a01b900460ff1681565b3480156109e457600080fd5b506103e06109f3366004613e94565b600b6020526000908152604090205460ff1681565b348015610a1457600080fd5b506102b4610a23366004613e94565b612204565b348015610a3457600080fd5b50610613610a43366004614253565b61227d565b610a50612330565b612710811115610aa75760405162461bcd60e51b815260206004820152601e60248201527f546f6b656e4272696467653a2062726964676520666565203e2031303025000060448201526064015b60405180910390fd5b60088190556040518181527f9a749c8193bfd56b2b2a05c0bd18fbb0f69801a3fd6576c40b90537fd0fc3854906020015b60405180910390a150565b337f00000000000000000000000000000000000000000000000000000000000000006001600160a01b031614610b5b5760405162461bcd60e51b815260206004820152601e60248201527f4c7a4170703a20696e76616c696420656e64706f696e742063616c6c657200006044820152606401610a9e565b61ffff861660009081526001602052604081208054610b79906142a0565b80601f0160208091040260200160405190810160405280929190818152602001828054610ba5906142a0565b8015610bf25780601f10610bc757610100808354040283529160200191610bf2565b820191906000526020600020905b815481529060010190602001808311610bd557829003601f168201915b50505050509050805186869050148015610c0d575060008151115b8015610c35575080516020820120604051610c2b90889088906142d4565b6040518091039020145b610c905760405162461bcd60e51b815260206004820152602660248201527f4c7a4170703a20696e76616c696420736f757263652073656e64696e6720636f6044820152651b9d1c9858dd60d21b6064820152608401610a9e565b610d068787878080601f01602080910402602001604051908101604052809392919081815260200183838082843760009201919091525050604080516020601f8a018190048102820181019092528881528a93509150889088908190840183828082843760009201919091525061238f92505050565b50505050505050565b610d17612330565b6040516307e0db1760e01b815261ffff821660048201527f00000000000000000000000000000000000000000000000000000000000000006001600160a01b0316906307e0db17906024015b600060405180830381600087803b158015610d7d57600080fd5b505af1158015610d91573d6000803e3d6000fd5b5050505050565b610da0612330565b61ffff909116600090815260036020526040902055565b610dbf612330565b6000610dca846117ea565b905080821115610dec5760405162461bcd60e51b8152600401610a9e906142e4565b610e006001600160a01b0385168484612408565b836001600160a01b03167ff15a0a3784dea9b4fe33bc98e2450745e262d310237b2868ea8ef56967ff3ecb8484604051610e3b929190614319565b60405180910390a250505050565b610e51612330565b6040516310ddb13760e01b815261ffff821660048201527f00000000000000000000000000000000000000000000000000000000000000006001600160a01b0316906310ddb13790602401610d63565b600e548790600160a81b900460ff16158015610ed657506001600160a01b0381166000908152600b602052604090205460ff16155b610ef25760405162461bcd60e51b8152600401610a9e90614332565b610efa61245e565b6001600160a01b0388166000908152600a602052604090205460ff168015610f3a57506001600160a01b0386166000908152600a602052604090205460ff165b610faa5760405162461bcd60e51b815260206004820152603b60248201527f546f6b656e4272696467653a20696e70757420746f6b656e20616e64206f757460448201527a1c1d5d081d1bdad95b88185c99481b9bdd081cdd5c1c1bdc9d1959602a1b6064820152608401610a9e565b610fb58833896124b7565b96506000610fc389896125c4565b90506000881161102a5760405162461bcd60e51b815260206004820152602c60248201527f546f6b656e4272696467653a20616d6f756e74496e206d75737420626520677260448201526b06561746572207468616e20360a41b6064820152608401610a9e565b6001600160a01b038916600090815260096020526040812080548a9290611052908490614375565b9091555061106890508a82898989898934612829565b856001600160a01b0316336001600160a01b03168a6001600160a01b0316600080516020614af88339815191528b6040516110a591815260200190565b60405180910390a4506110b86001600655565b505050505050505050565b61ffff8316600090815260016020526040812080548291906110e4906142a0565b80601f0160208091040260200160405190810160405280929190818152602001828054611110906142a0565b801561115d5780601f106111325761010080835404028352916020019161115d565b820191906000526020600020905b81548152906001019060200180831161114057829003601f168201915b5050505050905083836040516111749291906142d4565b60405180910390208180519060200120149150509392505050565b611197612330565b6040516342d65a8d60e01b81526001600160a01b037f000000000000000000000000000000000000000000000000000000000000000016906342d65a8d906111e7908690869086906004016143b1565b600060405180830381600087803b15801561120157600080fd5b505af1158015610d06573d6000803e3d6000fd5b61121d612330565b61ffff919091166000908152600d60205260409020805460ff1916911515919091179055565b61124b612330565b6001600160a01b0381166112ac5760405162461bcd60e51b815260206004820152602260248201527f546f6b656e4272696467653a20696e76616c696420746f6b656e206164647265604482015261737360f01b6064820152608401610a9e565b600e80546001600160a01b0319166001600160a01b0383161790556040517fe390bcec6614d6b1f8ae47a4d9d46531ce328e3d293ecd6ddd015cb01eff030090610ad8908390613e3b565b3330146113555760405162461bcd60e51b815260206004820152602660248201527f4e6f6e626c6f636b696e674c7a4170703a2063616c6c6572206d7573742062656044820152650204c7a4170760d41b6064820152608401610a9e565b6113cb8686868080601f01602080910402602001604051908101604052809392919081815260200183838082843760009201919091525050604080516020601f8901819004810282018101909252878152899350915087908790819084018382808284376000920191909152506128a292505050565b505050505050565b6113db612330565b600e8054821515600160a81b0260ff60a81b199091161790556040517f5362d4bd13945e8d116b90d83a7050fa61ceb02bb79bfae783377adb46916d9490610ad890831515815260200190565b611430612330565b565b61143a612330565b61ffff82166000908152600d602052604090205460ff166114b45760405162461bcd60e51b815260206004820152602e60248201527f546f6b656e4272696467653a2074686973206465737420636861696e2069642060448201526d1a5cc81b9bdd08195b98589b195960921b6064820152608401610a9e565b6040516001600160601b0319606083811b8216602084015230901b16603482015260480160408051601f1981840301815291815261ffff8416600090815260016020522090611503908261442a565b505050565b60016020526000908152604090208054611521906142a0565b80601f016020809104026020016040519081016040528092919081815260200182805461154d906142a0565b801561159a5780601f1061156f5761010080835404028352916020019161159a565b820191906000526020600020905b81548152906001019060200180831161157d57829003601f168201915b505050505081565b6000806115af8484612c8e565b60006115be6000806000612d4a565b90506000806115d36040890160208a01613e94565b6001600160a01b0316141590507f00000000000000000000000000000000000000000000000000000000000000006001600160a01b03166340a7bb10893085858b8b6040518763ffffffff1660e01b8152600401611636969594939291906144e3565b6040805180830381865afa158015611652573d6000803e3d6000fd5b505050506040513d601f19601f820116820180604052508101906116769190614539565b93509350505094509492505050565b6000546001600160a01b031690565b61169c612330565b6116aa8282610331856117ea565b6001600160a01b0382166000908152600960205260409020546116d09083908390611b8a565b5050565b61ffff81166000908152600160205260408120805460609291906116f7906142a0565b80601f0160208091040260200160405190810160405280929190818152602001828054611723906142a0565b80156117705780601f1061174557610100808354040283529160200191611770565b820191906000526020600020905b81548152906001019060200180831161175357829003601f168201915b5050505050905080516000036117c85760405162461bcd60e51b815260206004820152601d60248201527f4c7a4170703a206e6f20747275737465642070617468207265636f72640000006044820152606401610a9e565b6117e36000601483516117db919061455d565b839190612da3565b9392505050565b6001600160a01b0381166000818152600960205260408082205490516370a0823160e01b8152919290916370a0823190611828903090600401613e3b565b602060405180830381865afa158015611845573d6000803e3d6000fd5b505050506040513d601f19601f820116820180604052508101906118699190614570565b611873919061455d565b92915050565b611881612330565b81813060405160200161189693929190614589565b60408051601f1981840301815291815261ffff85166000908152600160205220906118c1908261442a565b507f8c0400cfe2d1199b1a725c78960bcc2a344d869b80590d0f2bd005db15a572ce8383836040516118f5939291906143b1565b60405180910390a1505050565b600e546001600160a01b03811690600160a81b900460ff1615801561194057506001600160a01b0381166000908152600b602052604090205460ff16155b61195c5760405162461bcd60e51b8152600401610a9e90614332565b61196461245e565b600e546001600160a01b0316801580159061199757506001600160a01b0381166000908152600a602052604090205460ff165b6119ed5760405162461bcd60e51b815260206004820152602160248201527f546f6b656e4272696467653a20455448206973206e6f7420737570706f7274656044820152601960fa1b6064820152608401610a9e565b60008611611a505760405162461bcd60e51b815260206004820152602a60248201527f546f6b656e4272696467653a20616d6f756e74206d75737420626520677265616044820152690746572207468616e20360b41b6064820152608401610a9e565b85341015611a705760405162461bcd60e51b8152600401610a9e906142e4565b806001600160a01b031663d0e30db0876040518263ffffffff1660e01b81526004016000604051808303818588803b158015611aab57600080fd5b505af1158015611abf573d6000803e3d6000fd5b5050506001600160a01b038316600090815260096020526040812080548a9450909250611aed908490614375565b9091555060009050611afd611ce5565b90506000808212611b0e5781611b25565b611b1a8260001961455d565b611b25906001614375565b9050611b4c8a611b358a846145aa565b60008c8b8b8b8f34611b47919061455d565b612829565b6040518881526001600160a01b038a16903390600090600080516020614af88339815191529060200160405180910390a4505050610d066001600655565b611b92612330565b600e54600160b01b900460ff168015611bad5750600f544210155b611c085760405162461bcd60e51b815260206004820152602660248201527f546f6b656e4272696467653a20656d657267656e6379207769746864726177206044820152651b1bd8dad95960d21b6064820152608401610a9e565b6001600160a01b03831660009081526009602052604081208054839290611c3090849061455d565b90915550611c4a90506001600160a01b0384168383612408565b826001600160a01b03167f49507695f37b729944475cf3388760a14760fef784b7ab5ca8863a5f3f8be6bd8383604051611c85929190614319565b60405180910390a2505050565b611c9a612330565b600480546001600160a01b0319166001600160a01b0383161790556040517f5db758e995a17ec1ad84bdef7e8c3293a0bd6179bcce400dff5d4c3d87db726b90610ad8908390613e3b565b600080601060009054906101000a90046001600160a01b03166001600160a01b031663feaf968c6040518163ffffffff1660e01b815260040160a060405180830381865afa158015611d3b573d6000803e3d6000fd5b505050506040513d601f19601f82011682018060405250810190611d5f91906145d8565b509195945050505050565b611d72612330565b6001600160a01b0382166000818152600b6020908152604091829020805460ff19168515159081179091558251938452908301527fb1656bd3b50ddb6b12ef259c86e9cb359952b53c4403cfb5a83e23c515a35e22910160405180910390a15050565b611ddd612330565b6040516332fb62e760e21b81526001600160a01b037f0000000000000000000000000000000000000000000000000000000000000000169063cbed8b9c90611e319088908890889088908890600401614628565b600060405180830381600087803b158015611e4b57600080fd5b505af11580156110b8573d6000803e3d6000fd5b61ffff86166000908152600560205260408082209051611e8290889088906142d4565b90815260408051602092819003830190206001600160401b03871660009081529252902054905080611f025760405162461bcd60e51b815260206004820152602360248201527f4e6f6e626c6f636b696e674c7a4170703a206e6f2073746f726564206d65737360448201526261676560e81b6064820152608401610a9e565b808383604051611f139291906142d4565b604051809103902014611f725760405162461bcd60e51b815260206004820152602160248201527f4e6f6e626c6f636b696e674c7a4170703a20696e76616c6964207061796c6f616044820152601960fa1b6064820152608401610a9e565b61ffff87166000908152600560205260408082209051611f9590899089906142d4565b90815260408051602092819003830181206001600160401b038916600090815290845282902093909355601f8801829004820283018201905286825261202d918991899089908190840183828082843760009201919091525050604080516020601f8a018190048102820181019092528881528a9350915088908890819084018382808284376000920191909152506128a292505050565b7fc264d91f3adc5588250e1551f547752ca0cfa8f6b530d243b9f9f4cab10ea8e58787878785604051612064959493929190614656565b60405180910390a150505050505050565b61207d612330565b600e805460ff60b01b1916600160b01b83151502179055806120a05760006120ad565b6120ad4262093a80614375565b600f81905560408051831515815260208101929092527f27a37fc51e6c5d14309bbed3a54787c8788223b5d9cd5fe10605661665dd84159101610ad8565b6120f3612330565b61ffff83811660008181526002602090815260408083209487168084529482529182902085905581519283528201929092529081018290527f9d5c7c0b934da8fefa9c7760c98383778a12dfbfc0c3b3106518f43fb9508ac0906060016118f5565b61215d612330565b600e8054821515600160a01b0260ff60a01b199091161790556040517f1584ad594a70cbe1e6515592e1272a987d922b097ead875069cebe8b40c004a490610ad890831515815260200190565b6121b2612330565b61ffff831660009081526001602052604090206121d0828483614691565b507ffa41487ad5d6728f0b19276fa1eddc16558578f5109fc39d2dc33c3230470dab8383836040516118f5939291906143b1565b61220c612330565b6001600160a01b0381166122715760405162461bcd60e51b815260206004820152602660248201527f4f776e61626c653a206e6577206f776e657220697320746865207a65726f206160448201526564647265737360d01b6064820152608401610a9e565b61227a81612eb0565b50565b604051633d7b2f6f60e21b815261ffff808616600483015284166024820152306044820152606481018290526060907f00000000000000000000000000000000000000000000000000000000000000006001600160a01b03169063f5ecbdbc90608401600060405180830381865afa1580156122fd573d6000803e3d6000fd5b505050506040513d6000823e601f3d908101601f19168201604052612325919081019061474a565b90505b949350505050565b33612339611685565b6001600160a01b0316146114305760405162461bcd60e51b815260206004820181905260248201527f4f776e61626c653a2063616c6c6572206973206e6f7420746865206f776e65726044820152606401610a9e565b6000806123f25a60966366ad5c8a60e01b898989896040516024016123b794939291906147c0565b60408051601f198184030181529190526020810180516001600160e01b03166001600160e01b03199093169290921790915230929190612f00565b91509150816113cb576113cb8686868685612f8a565b6115038363a9059cbb60e01b8484604051602401612427929190614319565b60408051601f198184030181529190526020810180516001600160e01b03166001600160e01b031990931692909217909152613027565b6002600654036124b05760405162461bcd60e51b815260206004820152601f60248201527f5265656e7472616e637947756172643a207265656e7472616e742063616c6c006044820152606401610a9e565b6002600655565b600080846001600160a01b03166370a08231306040518263ffffffff1660e01b81526004016124e69190613e3b565b602060405180830381865afa158015612503573d6000803e3d6000fd5b505050506040513d601f19601f820116820180604052508101906125279190614570565b905061253e6001600160a01b0386168530866130fc565b6040516370a0823160e01b81526000906001600160a01b038716906370a082319061256d903090600401613e3b565b602060405180830381865afa15801561258a573d6000803e3d6000fd5b505050506040513d601f19601f820116820180604052508101906125ae9190614570565b90506125ba828261455d565b9695505050505050565b600080836001600160a01b031663a8aa1b316040518163ffffffff1660e01b8152600401602060405180830381865afa158015612605573d6000803e3d6000fd5b505050506040513d601f19601f8201168201806040525081019061262991906147fe565b90506001600160a01b03811661268f5760405162461bcd60e51b815260206004820152602560248201527f546f6b656e42726967653a20746f6b656e2070616972206973206e6f7420637260448201526419585d195960da1b6064820152608401610a9e565b6000612699611ce5565b905060008082126126aa57816126c1565b6126b68260001961455d565b6126c1906001614375565b90506000839050600080826001600160a01b0316630902f1ac6040518163ffffffff1660e01b8152600401606060405180830381865afa158015612709573d6000803e3d6000fd5b505050506040513d601f19601f8201168201806040525081019061272d9190614832565b50915091506000896001600160a01b0316846001600160a01b0316630dfe16816040518163ffffffff1660e01b8152600401602060405180830381865afa15801561277c573d6000803e3d6000fd5b505050506040513d601f19601f820116820180604052508101906127a091906147fe565b6001600160a01b0316146127e757826001600160701b0316858a846001600160701b03166127ce91906145aa565b6127d891906145aa565b6127e29190614882565b61281b565b816001600160701b0316858a856001600160701b031661280791906145aa565b61281191906145aa565b61281b9190614882565b9a9950505050505050505050565b6128338383612c8e565b6000612840888888612d4a565b90506110b889826128546020890189613e94565b61286460408a0160208b01613e94565b88888080601f0160208091040260200160405190810160405280939291908181526020018383808284376000920191909152508a925061313a915050565b61ffff84166000908152600d602052604090205460ff166129115760405162461bcd60e51b8152602060048201526024808201527f546f6b656e4272696467653a20696e76616c696420736f7572636520636861696044820152631b881a5960e21b6064820152608401610a9e565b600080600080612920856132df565b9350935093509350600080821561294f57600e546001600160a01b0316915061294886613419565b9050612a35565b8491506000826001600160a01b031663a8aa1b316040518163ffffffff1660e01b8152600401602060405180830381865afa158015612992573d6000803e3d6000fd5b505050506040513d601f19601f820116820180604052508101906129b691906147fe565b90506001600160a01b038116612a275760405162461bcd60e51b815260206004820152603060248201527f546f6b656e4272696467653a20746f6b656e4f75742068617320696e76616c6960448201526f19081b1a5c5d5a591a5d1e481c1bdbdb60821b6064820152608401610a9e565b612a31878461346b565b9150505b600e54600160a81b900460ff16158015612a6857506001600160a01b0382166000908152600b602052604090205460ff16155b612a845760405162461bcd60e51b8152600401610a9e90614332565b6001600160a01b0382166000908152600a602052604090205460ff16612af85760405162461bcd60e51b815260206004820152602360248201527f546f6b656e4272696467653a20746f6b656e206973206e6f7420737570706f726044820152621d195960ea1b6064820152608401610a9e565b6001600160a01b03821660009081526009602052604090205481811015612b6d5760405162461bcd60e51b815260206004820152602360248201527f546f6b656e4272696467653a20696e73756666696369656e74206c697175696460448201526269747960e81b6064820152608401610a9e565b612b77828261455d565b6001600160a01b038416600090815260096020526040902055600854612b9f57816000612ba8565b612ba88261367e565b50600e549092506001600160a01b038481169116148015612bc65750835b15612c1657600e54612be2906001600160a01b031686846136af565b6040518281526001600160a01b03861690600090600080516020614ad88339815191529060200160405180910390a3612c81565b6001600160a01b03851615612c2b5784612c2f565b61dead5b9450612c456001600160a01b0384168684612408565b846001600160a01b0316836001600160a01b0316600080516020614ad883398151915284604051612c7891815260200190565b60405180910390a35b5050505050505050505050565b600e54600160a01b900460ff1615612ce9576007546116d09061ffff16600084848080601f0160208091040260200160405190810160405280939291908181526020018383808284376000920182905250925061373f915050565b80156116d05760405162461bcd60e51b815260206004820152602a60248201527f546f6b656e4272696467653a205f61646170746572506172616d73206d7573746044820152691031329032b6b83a3c9760b11b6064820152608401610a9e565b60606000612d578461380f565b90506000612d648461380f565b60405160006020820152602181018890526041810184905260618101829052909150608101604051602081830303815290604052925050509392505050565b606081612db181601f614375565b1015612df05760405162461bcd60e51b815260206004820152600e60248201526d736c6963655f6f766572666c6f7760901b6044820152606401610a9e565b612dfa8284614375565b84511015612e3e5760405162461bcd60e51b8152602060048201526011602482015270736c6963655f6f75744f66426f756e647360781b6044820152606401610a9e565b606082158015612e5d5760405191506000825260208201604052612ea7565b6040519150601f8416801560200281840101858101878315602002848b0101015b81831015612e96578051835260209283019201612e7e565b5050858452601f01601f1916604052505b50949350505050565b600080546001600160a01b038381166001600160a01b0319831681178455604051919092169283917f8be0079c531659141344cd1fd0a4f28419497f9722a3daafe3b4186f6b6457e09190a35050565b6000606060008060008661ffff166001600160401b03811115612f2557612f25613eb1565b6040519080825280601f01601f191660200182016040528015612f4f576020820181803683370190505b50905060008087516020890160008d8df191503d925086831115612f71578692505b828152826000602083013e909890975095505050505050565b8180519060200120600560008761ffff1661ffff16815260200190815260200160002085604051612fbb91906148ba565b9081526040805191829003602090810183206001600160401b0388166000908152915220919091557fe183f33de2837795525b4792ca4cd60535bd77c53b7e7030060bfcf5734d6b0c9061301890879087908790879087906148d6565b60405180910390a15050505050565b600061307c826040518060400160405280602081526020017f5361666545524332303a206c6f772d6c6576656c2063616c6c206661696c6564815250856001600160a01b031661381b9092919063ffffffff16565b905080516000148061309d57508080602001905181019061309d9190614934565b6115035760405162461bcd60e51b815260206004820152602a60248201527f5361666545524332303a204552433230206f7065726174696f6e20646964206e6044820152691bdd081cdd58d8d9595960b21b6064820152608401610a9e565b6040516001600160a01b03808516602483015283166044820152606481018290526131349085906323b872dd60e01b90608401612427565b50505050565b61ffff861660009081526001602052604081208054613158906142a0565b80601f0160208091040260200160405190810160405280929190818152602001828054613184906142a0565b80156131d15780601f106131a6576101008083540402835291602001916131d1565b820191906000526020600020905b8154815290600101906020018083116131b457829003601f168201915b5050505050905080516000036132425760405162461bcd60e51b815260206004820152603060248201527f4c7a4170703a2064657374696e6174696f6e20636861696e206973206e6f742060448201526f61207472757374656420736f7572636560801b6064820152608401610a9e565b61324d87875161382a565b60405162c5803160e81b81526001600160a01b037f0000000000000000000000000000000000000000000000000000000000000000169063c58031009084906132a4908b9086908c908c908c908c90600401614951565b6000604051808303818588803b1580156132bd57600080fd5b505af11580156132d1573d6000803e3d6000fd5b505050505050505050505050565b60008060008084516055146133425760405162461bcd60e51b815260206004820152602360248201527f546f6b656e4272696467653a20696e76616c6964207061796c6f6164206c656e6044820152620cee8d60eb1b6064820152608401610a9e565b600085600081518110613357576133576149ab565b016020015160f81c6001811115613370576133706148a4565b90506001816001811115613386576133866148a4565b146133d35760405162461bcd60e51b815260206004820181905260248201527f546f6b656e4272696467653a20756e6b6e6f776e207061636b657420747970656044820152606401610a9e565b602186015194506041860151935060618601519250856061815181106133fb576133fb6149ab565b602001015160f81c60f81b60f81c60ff166001149150509193509193565b600080613424611ce5565b90506000808212613435578161344c565b6134418260001961455d565b61344c906001614375565b90508061346185670de0b6b3a76400006145aa565b6123289190614882565b600080826001600160a01b031663a8aa1b316040518163ffffffff1660e01b8152600401602060405180830381865afa1580156134ac573d6000803e3d6000fd5b505050506040513d601f19601f820116820180604052508101906134d091906147fe565b905060006134dc611ce5565b905060008082126134ed5781613504565b6134f98260001961455d565b613504906001614375565b90506000839050600080826001600160a01b0316630902f1ac6040518163ffffffff1660e01b8152600401606060405180830381865afa15801561354c573d6000803e3d6000fd5b505050506040513d601f19601f820116820180604052508101906135709190614832565b50915091506000886001600160a01b0316846001600160a01b0316630dfe16816040518163ffffffff1660e01b8152600401602060405180830381865afa1580156135bf573d6000803e3d6000fd5b505050506040513d601f19601f820116820180604052508101906135e391906147fe565b6001600160a01b03161461362a5784826001600160701b0316846001600160701b03168c61361191906145aa565b61361b9190614882565b6136259190614882565b61365e565b84836001600160701b0316836001600160701b03168c61364a91906145aa565b6136549190614882565b61365e9190614882565b90506136698961389b565b61367490600a614aa5565b61281b90826145aa565b6000806127106008548461369291906145aa565b61369c9190614882565b90506136a8818461455d565b9150915091565b604051632e1a7d4d60e01b8152600481018290526001600160a01b03841690632e1a7d4d90602401600060405180830381600087803b1580156136f157600080fd5b505af1158015613705573d6000803e3d6000fd5b50506040516001600160a01b038516925083156108fc02915083906000818181858888f19350505050158015613134573d6000803e3d6000fd5b600061374a83613999565b61ffff808716600090815260026020908152604080832093891683529290522054909150806137b85760405162461bcd60e51b815260206004820152601a602482015279131e905c1c0e881b5a5b91d85cd31a5b5a5d081b9bdd081cd95d60321b6044820152606401610a9e565b6137c28382614375565b8210156113cb5760405162461bcd60e51b815260206004820152601b60248201527a4c7a4170703a20676173206c696d697420697320746f6f206c6f7760281b6044820152606401610a9e565b6001600160a01b031690565b606061232884846000856139f4565b61ffff82166000908152600360205260408120549081900361384b57506127105b808211156115035760405162461bcd60e51b815260206004820181905260248201527f4c7a4170703a207061796c6f61642073697a6520697320746f6f206c617267656044820152606401610a9e565b60408051600481526024810182526020810180516001600160e01b031663313ce56760e01b1790529051600091829182916001600160a01b038616916138e191906148ba565b600060405180830381855afa9150503d806000811461391c576040519150601f19603f3d011682016040523d82523d6000602084013e613921565b606091505b5091509150816139855760405162461bcd60e51b815260206004820152602960248201527f546f6b656e4272696467653a206661696c656420746f2067657420746f6b656e60448201526820646563696d616c7360b81b6064820152608401610a9e565b808060200190518101906123289190614ab4565b60006022825110156139ec5760405162461bcd60e51b815260206004820152601c60248201527b4c7a4170703a20696e76616c69642061646170746572506172616d7360201b6044820152606401610a9e565b506022015190565b606082471015613a555760405162461bcd60e51b815260206004820152602660248201527f416464726573733a20696e73756666696369656e742062616c616e636520666f6044820152651c8818d85b1b60d21b6064820152608401610a9e565b600080866001600160a01b03168587604051613a7191906148ba565b60006040518083038185875af1925050503d8060008114613aae576040519150601f19603f3d011682016040523d82523d6000602084013e613ab3565b606091505b5091509150613ac487838387613acf565b979650505050505050565b60608315613b3e578251600003613b37576001600160a01b0385163b613b375760405162461bcd60e51b815260206004820152601d60248201527f416464726573733a2063616c6c20746f206e6f6e2d636f6e74726163740000006044820152606401610a9e565b5081612328565b6123288383815115613b535781518083602001fd5b8060405162461bcd60e51b8152600401610a9e9190614057565b600060208284031215613b7f57600080fd5b5035919050565b803561ffff81168114613b9857600080fd5b919050565b60008083601f840112613baf57600080fd5b5081356001600160401b03811115613bc657600080fd5b602083019150836020828501011115613bde57600080fd5b9250929050565b80356001600160401b0381168114613b9857600080fd5b60008060008060008060808789031215613c1557600080fd5b613c1e87613b86565b955060208701356001600160401b0380821115613c3a57600080fd5b613c468a838b01613b9d565b9097509550859150613c5a60408a01613be5565b94506060890135915080821115613c7057600080fd5b50613c7d89828a01613b9d565b979a9699509497509295939492505050565b600060208284031215613ca157600080fd5b6117e382613b86565b60008060408385031215613cbd57600080fd5b613cc683613b86565b946020939093013593505050565b6001600160a01b038116811461227a57600080fd5b600080600060608486031215613cfe57600080fd5b8335613d0981613cd4565b92506020840135613d1981613cd4565b929592945050506040919091013590565b600060408284031215613d3c57600080fd5b50919050565b600080600080600080600080610100898b031215613d5f57600080fd5b613d6889613b86565b97506020890135613d7881613cd4565b9650604089013595506060890135613d8f81613cd4565b94506080890135613d9f81613cd4565b9350613dae8a60a08b01613d2a565b925060e08901356001600160401b03811115613dc957600080fd5b613dd58b828c01613b9d565b999c989b5096995094979396929594505050565b600080600060408486031215613dfe57600080fd5b613e0784613b86565b925060208401356001600160401b03811115613e2257600080fd5b613e2e86828701613b9d565b9497909650939450505050565b6001600160a01b0391909116815260200190565b801515811461227a57600080fd5b60008060408385031215613e7057600080fd5b613e7983613b86565b91506020830135613e8981613e4f565b809150509250929050565b600060208284031215613ea657600080fd5b81356117e381613cd4565b634e487b7160e01b600052604160045260246000fd5b604051601f8201601f191681016001600160401b0381118282101715613eef57613eef613eb1565b604052919050565b60006001600160401b03821115613f1057613f10613eb1565b50601f01601f191660200190565b600080600060608486031215613f3357600080fd5b613f3c84613b86565b925060208401356001600160401b03811115613f5757600080fd5b8401601f81018613613f6857600080fd5b8035613f7b613f7682613ef7565b613ec7565b818152876020838501011115613f9057600080fd5b81602084016020830137600060208383010152809450505050613fb560408501613be5565b90509250925092565b600060208284031215613fd057600080fd5b81356117e381613e4f565b60008060408385031215613fee57600080fd5b613ff783613b86565b91506020830135613e8981613cd4565b60005b8381101561402257818101518382015260200161400a565b50506000910152565b60008151808452614043816020860160208601614007565b601f01601f19169290920160200192915050565b6020815260006117e3602083018461402b565b6000806000806080858703121561408057600080fd5b61408985613b86565b93506140988660208701613d2a565b925060608501356001600160401b038111156140b357600080fd5b6140bf87828801613b9d565b95989497509550505050565b600080604083850312156140de57600080fd5b6140e783613b86565b91506140f560208401613b86565b90509250929050565b6000806040838503121561411157600080fd5b8235613ff781613cd4565b60008060008060008060c0878903121561413557600080fd5b61413e87613b86565b9550602087013561414e81613cd4565b9450604087013593506141648860608901613d2a565b925060a08701356001600160401b0381111561417f57600080fd5b613c7d89828a01613b9d565b6000806040838503121561419e57600080fd5b8235613e7981613cd4565b6000806000806000608086880312156141c157600080fd5b6141ca86613b86565b94506141d860208701613b86565b93506040860135925060608601356001600160401b038111156141fa57600080fd5b61420688828901613b9d565b969995985093965092949392505050565b60008060006060848603121561422c57600080fd5b61423584613b86565b925061424360208501613b86565b9150604084013590509250925092565b6000806000806080858703121561426957600080fd5b61427285613b86565b935061428060208601613b86565b9250604085013561429081613cd4565b9396929550929360600135925050565b600181811c908216806142b457607f821691505b602082108103613d3c57634e487b7160e01b600052602260045260246000fd5b8183823760009101908152919050565b6020808252601b908201527a0a8ded6cadc84e4d2c8ceca7440cccaca40dcdee840cadcdeeaced602b1b604082015260600190565b6001600160a01b03929092168252602082015260400190565b602080825260139082015272151bdad95b909c9a5919d94e881c185d5cd959606a1b604082015260600190565b634e487b7160e01b600052601160045260246000fd5b808201808211156118735761187361435f565b81835281816020850137506000828201602090810191909152601f909101601f19169091010190565b61ffff84168152604060208201526000612325604083018486614388565b601f82111561150357600081815260208120601f850160051c810160208610156143f65750805b601f850160051c820191505b818110156113cb57828155600101614402565b600019600383901b1c191660019190911b1790565b81516001600160401b0381111561444357614443613eb1565b6144578161445184546142a0565b846143cf565b602080601f83116001811461448657600084156144745750858301515b61447e8582614415565b8655506113cb565b600085815260208120601f198616915b828110156144b557888601518255948401946001909101908401614496565b50858210156144d35787850151600019600388901b60f8161c191681555b5050505050600190811b01905550565b61ffff871681526001600160a01b038616602082015260a0604082018190526000906145119083018761402b565b8515156060840152828103608084015261452c818587614388565b9998505050505050505050565b6000806040838503121561454c57600080fd5b505080516020909101519092909150565b818103818111156118735761187361435f565b60006020828403121561458257600080fd5b5051919050565b8284823760609190911b6001600160601b0319169101908152601401919050565b80820281158282048414176118735761187361435f565b80516001600160501b0381168114613b9857600080fd5b600080600080600060a086880312156145f057600080fd5b6145f9866145c1565b945060208601519350604086015192506060860151915061461c608087016145c1565b90509295509295909350565b600061ffff808816835280871660208401525084604083015260806060830152613ac4608083018486614388565b61ffff86168152608060208201526000614674608083018688614388565b6001600160401b0394909416604083015250606001529392505050565b6001600160401b038311156146a8576146a8613eb1565b6146bc836146b683546142a0565b836143cf565b6000601f8411600181146146ea57600085156146d85750838201355b6146e28682614415565b845550610d91565b600083815260209020601f19861690835b8281101561471b57868501358255602094850194600190920191016146fb565b50868210156147385760001960f88860031b161c19848701351681555b505060018560011b0183555050505050565b60006020828403121561475c57600080fd5b81516001600160401b0381111561477257600080fd5b8201601f8101841361478357600080fd5b8051614791613f7682613ef7565b8181528560208385010111156147a657600080fd5b6147b7826020830160208601614007565b95945050505050565b61ffff851681526080602082015260006147dd608083018661402b565b6001600160401b03851660408401528281036060840152613ac4818561402b565b60006020828403121561481057600080fd5b81516117e381613cd4565b80516001600160701b0381168114613b9857600080fd5b60008060006060848603121561484757600080fd5b6148508461481b565b925061485e6020850161481b565b9150604084015163ffffffff8116811461487757600080fd5b809150509250925092565b60008261489f57634e487b7160e01b600052601260045260246000fd5b500490565b634e487b7160e01b600052602160045260246000fd5b600082516148cc818460208701614007565b9190910192915050565b61ffff8616815260a0602082015260006148f360a083018761402b565b6001600160401b03861660408401528281036060840152614914818661402b565b90508281036080840152614928818561402b565b98975050505050505050565b60006020828403121561494657600080fd5b81516117e381613e4f565b61ffff8716815260c06020820152600061496e60c083018861402b565b8281036040840152614980818861402b565b6001600160a01b0387811660608601528616608085015283810360a0850152905061452c818561402b565b634e487b7160e01b600052603260045260246000fd5b600181815b808511156149fc5781600019048211156149e2576149e261435f565b808516156149ef57918102915b93841c93908002906149c6565b509250929050565b600082614a1357506001611873565b81614a2057506000611873565b8160018114614a365760028114614a4057614a5c565b6001915050611873565b60ff841115614a5157614a5161435f565b50506001821b611873565b5060208310610133831016604e8410600b8410161715614a7f575081810a611873565b614a8983836149c1565b8060001904821115614a9d57614a9d61435f565b029392505050565b60006117e360ff841683614a04565b600060208284031215614ac657600080fd5b815160ff811681146117e357600080fdfefd19781f43410d9594fd4c02dd1d98dbe99099cbd222d5851a6e183c468d33ca358304737e16805ddc68ab8f04e14751a94bb8fd0a3fecc784b61d0c0789f460a264697066735822122034b519b344c804aa13043bf0d422a30a96fa5dd62643c60fd53b3e231fac3c7164736f6c63430008140033",
  "linkReferences": {},
  "deployedLinkReferences": {}
}