{
  "_format": "hh-sol-artifact-1",
  "contractName": "LegendToken",
  "sourceName": "contracts/token/LegendToken.sol",
  "abi": [
    {
      "anonymous": false,
      "inputs": [
        {
          "indexed": false,
          "internalType": "address",
          "name": "previousAdmin",
          "type": "address"
        },
        {
          "indexed": false,
          "internalType": "address",
          "name": "newAdmin",
          "type": "address"
        }
      ],
      "name": "AdminChanged",
      "type": "event"
    },
    {
      "anonymous": false,
      "inputs": [
        {
          "indexed": true,
          "internalType": "address",
          "name": "owner",
          "type": "address"
        },
        {
          "indexed": true,
          "internalType": "address",
          "name": "spender",
          "type": "address"
        },
        {
          "indexed": false,
          "internalType": "uint256",
          "name": "value",
          "type": "uint256"
        }
      ],
      "name": "Approval",
      "type": "event"
    },
    {
      "anonymous": false,
      "inputs": [
        {
          "indexed": true,
          "internalType": "address",
          "name": "beacon",
          "type": "address"
        }
      ],
      "name": "BeaconUpgraded",
      "type": "event"
    },
    {
      "anonymous": false,
      "inputs": [
        {
          "indexed": false,
          "internalType": "uint8",
          "name": "version",
          "type": "uint8"
        }
      ],
      "name": "Initialized",
      "type": "event"
    },
    {
      "anonymous": false,
      "inputs": [
        {
          "indexed": true,
          "internalType": "address",
          "name": "previousOwner",
          "type": "address"
        },
        {
          "indexed": true,
          "internalType": "address",
          "name": "newOwner",
          "type": "address"
        }
      ],
      "name": "OwnershipTransferred",
      "type": "event"
    },
    {
      "anonymous": false,
      "inputs": [
        {
          "indexed": true,
          "internalType": "address",
          "name": "from",
          "type": "address"
        },
        {
          "indexed": true,
          "internalType": "address",
          "name": "to",
          "type": "address"
        },
        {
          "indexed": false,
          "internalType": "uint256",
          "name": "value",
          "type": "uint256"
        }
      ],
      "name": "Transfer",
      "type": "event"
    },
    {
      "anonymous": false,
      "inputs": [
        {
          "indexed": true,
          "internalType": "address",
          "name": "implementation",
          "type": "address"
        }
      ],
      "name": "Upgraded",
      "type": "event"
    },
    {
      "inputs": [],
      "name": "PancakeSwapRouter",
      "outputs": [
        {
          "internalType": "contract IPancakeSwapRouter",
          "name": "",
          "type": "address"
        }
      ],
      "stateMutability": "view",
      "type": "function"
    },
    {
      "inputs": [],
      "name": "PancakeSwapV2Pair",
      "outputs": [
        {
          "internalType": "address",
          "name": "",
          "type": "address"
        }
      ],
      "stateMutability": "view",
      "type": "function"
    },
    {
      "inputs": [
        {
          "internalType": "uint256",
          "name": "ethAmount",
          "type": "uint256"
        }
      ],
      "name": "addLiquidity",
      "outputs": [],
      "stateMutability": "nonpayable",
      "type": "function"
    },
    {
      "inputs": [
        {
          "internalType": "address",
          "name": "owner",
          "type": "address"
        },
        {
          "internalType": "address",
          "name": "spender",
          "type": "address"
        }
      ],
      "name": "allowance",
      "outputs": [
        {
          "internalType": "uint256",
          "name": "",
          "type": "uint256"
        }
      ],
      "stateMutability": "view",
      "type": "function"
    },
    {
      "inputs": [
        {
          "internalType": "address",
          "name": "spender",
          "type": "address"
        },
        {
          "internalType": "uint256",
          "name": "amount",
          "type": "uint256"
        }
      ],
      "name": "approve",
      "outputs": [
        {
          "internalType": "bool",
          "name": "",
          "type": "bool"
        }
      ],
      "stateMutability": "nonpayable",
      "type": "function"
    },
    {
      "inputs": [
        {
          "internalType": "address",
          "name": "account",
          "type": "address"
        }
      ],
      "name": "balanceOf",
      "outputs": [
        {
          "internalType": "uint256",
          "name": "",
          "type": "uint256"
        }
      ],
      "stateMutability": "view",
      "type": "function"
    },
    {
      "inputs": [
        {
          "internalType": "uint256",
          "name": "amount",
          "type": "uint256"
        }
      ],
      "name": "burn",
      "outputs": [],
      "stateMutability": "nonpayable",
      "type": "function"
    },
    {
      "inputs": [],
      "name": "decimals",
      "outputs": [
        {
          "internalType": "uint8",
          "name": "",
          "type": "uint8"
        }
      ],
      "stateMutability": "view",
      "type": "function"
    },
    {
      "inputs": [
        {
          "internalType": "address",
          "name": "spender",
          "type": "address"
        },
        {
          "internalType": "uint256",
          "name": "subtractedValue",
          "type": "uint256"
        }
      ],
      "name": "decreaseAllowance",
      "outputs": [
        {
          "internalType": "bool",
          "name": "",
          "type": "bool"
        }
      ],
      "stateMutability": "nonpayable",
      "type": "function"
    },
    {
      "inputs": [],
      "name": "faucet",
      "outputs": [],
      "stateMutability": "nonpayable",
      "type": "function"
    },
    {
      "inputs": [
        {
          "internalType": "address",
          "name": "",
          "type": "address"
        }
      ],
      "name": "faucetedTime",
      "outputs": [
        {
          "internalType": "uint256",
          "name": "",
          "type": "uint256"
        }
      ],
      "stateMutability": "view",
      "type": "function"
    },
    {
      "inputs": [
        {
          "internalType": "address",
          "name": "spender",
          "type": "address"
        },
        {
          "internalType": "uint256",
          "name": "addedValue",
          "type": "uint256"
        }
      ],
      "name": "increaseAllowance",
      "outputs": [
        {
          "internalType": "bool",
          "name": "",
          "type": "bool"
        }
      ],
      "stateMutability": "nonpayable",
      "type": "function"
    },
    {
      "inputs": [
        {
          "internalType": "address",
          "name": "_router",
          "type": "address"
        },
        {
          "internalType": "string",
          "name": "tokenName",
          "type": "string"
        },
        {
          "internalType": "string",
          "name": "tokenSymbol",
          "type": "string"
        }
      ],
      "name": "initialize",
      "outputs": [],
      "stateMutability": "nonpayable",
      "type": "function"
    },
    {
      "inputs": [],
      "name": "leftTime",
      "outputs": [
        {
          "internalType": "uint256",
          "name": "",
          "type": "uint256"
        }
      ],
      "stateMutability": "view",
      "type": "function"
    },
    {
      "inputs": [],
      "name": "name",
      "outputs": [
        {
          "internalType": "string",
          "name": "",
          "type": "string"
        }
      ],
      "stateMutability": "view",
      "type": "function"
    },
    {
      "inputs": [],
      "name": "owner",
      "outputs": [
        {
          "internalType": "address",
          "name": "",
          "type": "address"
        }
      ],
      "stateMutability": "view",
      "type": "function"
    },
    {
      "inputs": [],
      "name": "pair",
      "outputs": [
        {
          "internalType": "address",
          "name": "",
          "type": "address"
        }
      ],
      "stateMutability": "view",
      "type": "function"
    },
    {
      "inputs": [],
      "name": "proxiableUUID",
      "outputs": [
        {
          "internalType": "bytes32",
          "name": "",
          "type": "bytes32"
        }
      ],
      "stateMutability": "view",
      "type": "function"
    },
    {
      "inputs": [],
      "name": "renounceOwnership",
      "outputs": [],
      "stateMutability": "nonpayable",
      "type": "function"
    },
    {
      "inputs": [],
      "name": "router",
      "outputs": [
        {
          "internalType": "address",
          "name": "",
          "type": "address"
        }
      ],
      "stateMutability": "view",
      "type": "function"
    },
    {
      "inputs": [
        {
          "internalType": "address",
          "name": "_router",
          "type": "address"
        }
      ],
      "name": "setInitialAddresses",
      "outputs": [],
      "stateMutability": "nonpayable",
      "type": "function"
    },
    {
      "inputs": [],
      "name": "symbol",
      "outputs": [
        {
          "internalType": "string",
          "name": "",
          "type": "string"
        }
      ],
      "stateMutability": "view",
      "type": "function"
    },
    {
      "inputs": [],
      "name": "totalSupply",
      "outputs": [
        {
          "internalType": "uint256",
          "name": "",
          "type": "uint256"
        }
      ],
      "stateMutability": "view",
      "type": "function"
    },
    {
      "inputs": [
        {
          "internalType": "address",
          "name": "recipient",
          "type": "address"
        },
        {
          "internalType": "uint256",
          "name": "amount",
          "type": "uint256"
        }
      ],
      "name": "transfer",
      "outputs": [
        {
          "internalType": "bool",
          "name": "",
          "type": "bool"
        }
      ],
      "stateMutability": "nonpayable",
      "type": "function"
    },
    {
      "inputs": [
        {
          "internalType": "address",
          "name": "sender",
          "type": "address"
        },
        {
          "internalType": "address",
          "name": "recipient",
          "type": "address"
        },
        {
          "internalType": "uint256",
          "name": "amount",
          "type": "uint256"
        }
      ],
      "name": "transferFrom",
      "outputs": [
        {
          "internalType": "bool",
          "name": "",
          "type": "bool"
        }
      ],
      "stateMutability": "nonpayable",
      "type": "function"
    },
    {
      "inputs": [
        {
          "internalType": "address",
          "name": "newOwner",
          "type": "address"
        }
      ],
      "name": "transferOwnership",
      "outputs": [],
      "stateMutability": "nonpayable",
      "type": "function"
    },
    {
      "inputs": [
        {
          "internalType": "address",
          "name": "newImplementation",
          "type": "address"
        }
      ],
      "name": "upgradeTo",
      "outputs": [],
      "stateMutability": "nonpayable",
      "type": "function"
    },
    {
      "inputs": [
        {
          "internalType": "address",
          "name": "newImplementation",
          "type": "address"
        },
        {
          "internalType": "bytes",
          "name": "data",
          "type": "bytes"
        }
      ],
      "name": "upgradeToAndCall",
      "outputs": [],
      "stateMutability": "payable",
      "type": "function"
    }
  ],
  "bytecode": "0x60a06040523060805234801561001457600080fd5b5060805161239061004c600039600081816107c101528181610801015281816108c9015281816109090152610a7701526123906000f3fe6080604052600436106101475760003560e01c806306fdde031461014c578063095ea7b31461017757806318160ddd146101a757806323b872dd146101c657806328ec13ee146101e6578063313ce567146102085780633659cfe61461022a578063395093511461024a578063405869d91461026a578063421ea58b1461029757806342966c68146102cf5780634f1ef286146102ef57806351c6590a1461030257806352d1902d1461032257806370a0823114610337578063715018a61461036d5780638da5cb5b14610382578063906571471461039757806395d89b41146103b7578063a457c2d7146103cc578063a8aa1b31146103ec578063a9059cbb1461040a578063c1258a401461042a578063d78317bf1461044a578063dd62ed3e1461045f578063de5f72fd146104a5578063f2fde38b146104ba578063f887ea40146104da575b600080fd5b34801561015857600080fd5b506101616104f8565b60405161016e9190611af1565b60405180910390f35b34801561018357600080fd5b50610197610192366004611b39565b61058a565b604051901515815260200161016e565b3480156101b357600080fd5b5060ce545b60405190815260200161016e565b3480156101d257600080fd5b506101976101e1366004611b65565b6105a1565b3480156101f257600080fd5b50610206610201366004611ba6565b61063b565b005b34801561021457600080fd5b5060cf5460405160ff909116815260200161016e565b34801561023657600080fd5b50610206610245366004611ba6565b6107b7565b34801561025657600080fd5b50610197610265366004611b39565b61087f565b34801561027657600080fd5b506101b8610285366004611ba6565b60cb6020526000908152604090205481565b3480156102a357600080fd5b5060cc546102b7906001600160a01b031681565b6040516001600160a01b03909116815260200161016e565b3480156102db57600080fd5b506102066102ea366004611bc3565b6108b5565b6102066102fd366004611c67565b6108bf565b34801561030e57600080fd5b5061020661031d366004611bc3565b610978565b34801561032e57600080fd5b506101b8610a6a565b34801561034357600080fd5b506101b8610352366004611ba6565b6001600160a01b0316600090815260c9602052604090205490565b34801561037957600080fd5b50610206610b18565b34801561038e57600080fd5b506102b7610b2c565b3480156103a357600080fd5b506102066103b2366004611cea565b610b3b565b3480156103c357600080fd5b50610161610c09565b3480156103d857600080fd5b506101976103e7366004611b39565b610c18565b3480156103f857600080fd5b5060cd546001600160a01b03166102b7565b34801561041657600080fd5b50610197610425366004611b39565b610c67565b34801561043657600080fd5b5060cd546102b7906001600160a01b031681565b34801561045657600080fd5b506101b8610ca5565b34801561046b57600080fd5b506101b861047a366004611d5f565b6001600160a01b03918216600090815260ca6020908152604080832093909416825291909152205490565b3480156104b157600080fd5b50610206610ce0565b3480156104c657600080fd5b506102066104d5366004611ba6565b610d80565b3480156104e657600080fd5b5060cc546001600160a01b03166102b7565b606060d1805461050790611d98565b80601f016020809104026020016040519081016040528092919081815260200182805461053390611d98565b80156105805780601f1061055557610100808354040283529160200191610580565b820191906000526020600020905b81548152906001019060200180831161056357829003601f168201915b5050505050905090565b6000610597338484610df6565b5060015b92915050565b6000826001600160a01b0381166105d35760405162461bcd60e51b81526004016105ca90611dd2565b60405180910390fd5b6105de858585610f1b565b610630853361062b8660405180606001604052806028815260200161221f602891396001600160a01b038b16600090815260ca60209081526040808320338452909152902054919061108f565b610df6565b506001949350505050565b6106436110c9565b60cc80546001600160a01b0319166001600160a01b0383169081179091556040805163c45a015560e01b8152905183929163c45a01559160048083019260209291908290030181865afa15801561069e573d6000803e3d6000fd5b505050506040513d601f19601f820116820180604052508101906106c29190611e02565b6001600160a01b031663c9c6539630836001600160a01b031663ad5c46486040518163ffffffff1660e01b8152600401602060405180830381865afa15801561070f573d6000803e3d6000fd5b505050506040513d601f19601f820116820180604052508101906107339190611e02565b6040518363ffffffff1660e01b8152600401610750929190611e1f565b6020604051808303816000875af115801561076f573d6000803e3d6000fd5b505050506040513d601f19601f820116820180604052508101906107939190611e02565b60cd80546001600160a01b0319166001600160a01b03929092169190911790555050565b6001600160a01b037f00000000000000000000000000000000000000000000000000000000000000001630036107ff5760405162461bcd60e51b81526004016105ca90611e39565b7f00000000000000000000000000000000000000000000000000000000000000006001600160a01b0316610831611128565b6001600160a01b0316146108575760405162461bcd60e51b81526004016105ca90611e73565b61086081611144565b6040805160008082526020820190925261087c9183919061114c565b50565b33600081815260ca602090815260408083206001600160a01b0387168452909152812054909161059791859061062b90866112bc565b61087c3382611320565b6001600160a01b037f00000000000000000000000000000000000000000000000000000000000000001630036109075760405162461bcd60e51b81526004016105ca90611e39565b7f00000000000000000000000000000000000000000000000000000000000000006001600160a01b0316610939611128565b6001600160a01b03161461095f5760405162461bcd60e51b81526004016105ca90611e73565b61096882611144565b6109748282600161114c565b5050565b6109806110c9565b33600090815260c9602052604081205461099c90600290611ec3565b60cc549091506109b79030906001600160a01b031683610df6565b60cc546001600160a01b031663f305d7198330846000806109d6610b2c565b60405160e088901b6001600160e01b03191681526001600160a01b03958616600482015260248101949094526044840192909252606483015290911660848201524260a482015260c40160606040518083038185885af1158015610a3e573d6000803e3d6000fd5b50505050506040513d601f19601f82011682018060405250810190610a639190611ee5565b5050505050565b6000306001600160a01b037f00000000000000000000000000000000000000000000000000000000000000001614610b055760405162461bcd60e51b815260206004820152603860248201527f555550535570677261646561626c653a206d757374206e6f742062652063616c6044820152771b1959081d1a1c9bdd59da0819195b1959d85d1958d85b1b60421b60648201526084016105ca565b5060008051602061226783398151915290565b610b206110c9565b610b2a600061141a565b565b6097546001600160a01b031690565b600054610100900460ff1615808015610b5b5750600054600160ff909116105b80610b7c5750610b6a3061146c565b158015610b7c575060005460ff166001145b610b985760405162461bcd60e51b81526004016105ca90611f13565b6000805460ff191660011790558015610bbb576000805461ff0019166101001790555b610bc361147b565b610bce8484846114aa565b8015610c03576000805461ff001916905560405160018152600080516020612287833981519152906020015b60405180910390a15b50505050565b606060d0805461050790611d98565b6000610597338461062b856040518060600160405280602581526020016123146025913933600090815260ca602090815260408083206001600160a01b038d168452909152902054919061108f565b6000826001600160a01b038116610c905760405162461bcd60e51b81526004016105ca90611dd2565b610c9b338585610f1b565b5060019392505050565b33600090815260cb6020526040812054610e10906103e890610cc79042611f61565b610cd19190611ec3565b610cdb9190611ec3565b905090565b33600090815260cb6020526040902054610cfd4262015180611f74565b8110610d445760405162461bcd60e51b8152602060048201526016602482015275151bdad95b88185b1c9958591e481c1c9bdc1bdcd95960521b60448201526064016105ca565b60cf54610d6b903390610d5b9060ff16600a61206b565b610d6690600a61207a565b611753565b5033600090815260cb60205260409020429055565b610d886110c9565b6001600160a01b038116610ded5760405162461bcd60e51b815260206004820152602660248201527f4f776e61626c653a206e6577206f776e657220697320746865207a65726f206160448201526564647265737360d01b60648201526084016105ca565b61087c8161141a565b6001600160a01b038316610e585760405162461bcd60e51b8152602060048201526024808201527f42455032303a20617070726f76652066726f6d20746865207a65726f206164646044820152637265737360e01b60648201526084016105ca565b6001600160a01b038216610eb95760405162461bcd60e51b815260206004820152602260248201527f42455032303a20617070726f766520746f20746865207a65726f206164647265604482015261737360f01b60648201526084016105ca565b6001600160a01b03838116600081815260ca602090815260408083209487168084529482529182902085905590518481527f8c5be1e5ebec7d5bd14f71427d1e84f3dd0314c0f7b2291e5b200ac8c7c3b92591015b60405180910390a3505050565b6001600160a01b038316610f7f5760405162461bcd60e51b815260206004820152602560248201527f42455032303a207472616e736665722066726f6d20746865207a65726f206164604482015264647265737360d81b60648201526084016105ca565b6001600160a01b038216610fe15760405162461bcd60e51b815260206004820152602360248201527f42455032303a207472616e7366657220746f20746865207a65726f206164647260448201526265737360e81b60648201526084016105ca565b61101e816040518060600160405280602681526020016122ce602691396001600160a01b038616600090815260c96020526040902054919061108f565b6001600160a01b03808516600090815260c96020526040808220939093559084168152205461104d90826112bc565b6001600160a01b03808416600081815260c9602052604090819020939093559151908516906000805160206122f483398151915290610f0e9085815260200190565b600081848411156110b35760405162461bcd60e51b81526004016105ca9190611af1565b5060006110c08486611f61565b95945050505050565b336110d2610b2c565b6001600160a01b031614610b2a5760405162461bcd60e51b815260206004820181905260248201527f4f776e61626c653a2063616c6c6572206973206e6f7420746865206f776e657260448201526064016105ca565b600080516020612267833981519152546001600160a01b031690565b61087c6110c9565b7f4910fdfa16fed3260ed0e7147f7cc6da11a60208b5b9406d12a635614ffd91435460ff16156111845761117f8361181b565b505050565b826001600160a01b03166352d1902d6040518163ffffffff1660e01b8152600401602060405180830381865afa9250505080156111de575060408051601f3d908101601f191682019092526111db91810190612091565b60015b6112415760405162461bcd60e51b815260206004820152602e60248201527f45524331393637557067726164653a206e657720696d706c656d656e7461746960448201526d6f6e206973206e6f74205555505360901b60648201526084016105ca565b60008051602061226783398151915281146112b05760405162461bcd60e51b815260206004820152602960248201527f45524331393637557067726164653a20756e737570706f727465642070726f786044820152681a58589b195555525160ba1b60648201526084016105ca565b5061117f8383836118b5565b6000806112c98385611f74565b9050838110156113195760405162461bcd60e51b815260206004820152601b60248201527a536166654d6174683a206164646974696f6e206f766572666c6f7760281b60448201526064016105ca565b9392505050565b6001600160a01b0382166113805760405162461bcd60e51b815260206004820152602160248201527f42455032303a206275726e2066726f6d20746865207a65726f206164647265736044820152607360f81b60648201526084016105ca565b6113bd81604051806060016040528060228152602001612339602291396001600160a01b038516600090815260c96020526040902054919061108f565b6001600160a01b038316600090815260c9602052604090205560ce546113e390826118da565b60ce556040518181526000906001600160a01b038416906000805160206122f4833981519152906020015b60405180910390a35050565b609780546001600160a01b038381166001600160a01b0319831681179093556040519116919082907f8be0079c531659141344cd1fd0a4f28419497f9722a3daafe3b4186f6b6457e090600090a35050565b6001600160a01b03163b151590565b600054610100900460ff166114a25760405162461bcd60e51b81526004016105ca906120aa565b610b2a61191c565b600054610100900460ff16158080156114ca5750600054600160ff909116105b806114eb57506114d93061146c565b1580156114eb575060005460ff166001145b6115075760405162461bcd60e51b81526004016105ca90611f13565b6000805460ff19166001179055801561152a576000805461ff0019166101001790555b60d16115368482612143565b5060d06115438382612143565b5060cf805460ff1916601217905568327cb2734119d3b7a9601e1b60ce81905533600081815260c9602052604080822084905551919290916000805160206122f4833981519152916115989190815260200190565b60405180910390a360cc80546001600160a01b0319166001600160a01b0386169081179091556040805163c45a015560e01b8152905163c45a0155916004808201926020929091908290030181865afa1580156115f9573d6000803e3d6000fd5b505050506040513d601f19601f8201168201806040525081019061161d9190611e02565b6001600160a01b031663c9c653963060cc60009054906101000a90046001600160a01b03166001600160a01b031663ad5c46486040518163ffffffff1660e01b8152600401602060405180830381865afa15801561167f573d6000803e3d6000fd5b505050506040513d601f19601f820116820180604052508101906116a39190611e02565b6040518363ffffffff1660e01b81526004016116c0929190611e1f565b6020604051808303816000875af11580156116df573d6000803e3d6000fd5b505050506040513d601f19601f820116820180604052508101906117039190611e02565b60cd80546001600160a01b0319166001600160a01b03929092169190911790558015610c03576000805461ff00191690556040516001815260008051602061228783398151915290602001610bfa565b6001600160a01b0382166117a95760405162461bcd60e51b815260206004820152601f60248201527f42455032303a206d696e7420746f20746865207a65726f20616464726573730060448201526064016105ca565b60ce546117b690826112bc565b60ce556001600160a01b038216600090815260c960205260409020546117dc90826112bc565b6001600160a01b038316600081815260c960205260408082209390935591519091906000805160206122f48339815191529061140e9085815260200190565b6118248161146c565b6118865760405162461bcd60e51b815260206004820152602d60248201527f455243313936373a206e657720696d706c656d656e746174696f6e206973206e60448201526c1bdd08184818dbdb9d1c9858dd609a1b60648201526084016105ca565b60008051602061226783398151915280546001600160a01b0319166001600160a01b0392909216919091179055565b6118be8361194c565b6000825111806118cb5750805b1561117f57610c03838361198c565b600061131983836040518060400160405280601e81526020017f536166654d6174683a207375627472616374696f6e206f766572666c6f77000081525061108f565b600054610100900460ff166119435760405162461bcd60e51b81526004016105ca906120aa565b610b2a3361141a565b6119558161181b565b6040516001600160a01b038216907fbc7cd75a20ee27fd9adebab32041f755214dbc6bffa90cc0225b39da2e5c2d3b90600090a250565b606061131983836040518060600160405280602781526020016122a7602791396060600080856001600160a01b0316856040516119c99190612202565b600060405180830381855af49150503d8060008114611a04576040519150601f19603f3d011682016040523d82523d6000602084013e611a09565b606091505b5091509150611a1a86838387611a24565b9695505050505050565b60608315611a91578251600003611a8a57611a3e8561146c565b611a8a5760405162461bcd60e51b815260206004820152601d60248201527f416464726573733a2063616c6c20746f206e6f6e2d636f6e747261637400000060448201526064016105ca565b5081611a9b565b611a9b8383611aa3565b949350505050565b815115611ab35781518083602001fd5b8060405162461bcd60e51b81526004016105ca9190611af1565b60005b83811015611ae8578181015183820152602001611ad0565b50506000910152565b6020815260008251806020840152611b10816040850160208701611acd565b601f01601f19169190910160400192915050565b6001600160a01b038116811461087c57600080fd5b60008060408385031215611b4c57600080fd5b8235611b5781611b24565b946020939093013593505050565b600080600060608486031215611b7a57600080fd5b8335611b8581611b24565b92506020840135611b9581611b24565b929592945050506040919091013590565b600060208284031215611bb857600080fd5b813561131981611b24565b600060208284031215611bd557600080fd5b5035919050565b634e487b7160e01b600052604160045260246000fd5b60006001600160401b0380841115611c0c57611c0c611bdc565b604051601f8501601f19908116603f01168101908282118183101715611c3457611c34611bdc565b81604052809350858152868686011115611c4d57600080fd5b858560208301376000602087830101525050509392505050565b60008060408385031215611c7a57600080fd5b8235611c8581611b24565b915060208301356001600160401b03811115611ca057600080fd5b8301601f81018513611cb157600080fd5b611cc085823560208401611bf2565b9150509250929050565b600082601f830112611cdb57600080fd5b61131983833560208501611bf2565b600080600060608486031215611cff57600080fd5b8335611d0a81611b24565b925060208401356001600160401b0380821115611d2657600080fd5b611d3287838801611cca565b93506040860135915080821115611d4857600080fd5b50611d5586828701611cca565b9150509250925092565b60008060408385031215611d7257600080fd5b8235611d7d81611b24565b91506020830135611d8d81611b24565b809150509250929050565b600181811c90821680611dac57607f821691505b602082108103611dcc57634e487b7160e01b600052602260045260246000fd5b50919050565b602080825260169082015275526563697069656e74207a65726f206164647265737360501b604082015260600190565b600060208284031215611e1457600080fd5b815161131981611b24565b6001600160a01b0392831681529116602082015260400190565b6020808252602c9082015260008051602061224783398151915260408201526b19195b1959d85d1958d85b1b60a21b606082015260800190565b6020808252602c9082015260008051602061224783398151915260408201526b6163746976652070726f787960a01b606082015260800190565b634e487b7160e01b600052601160045260246000fd5b600082611ee057634e487b7160e01b600052601260045260246000fd5b500490565b600080600060608486031215611efa57600080fd5b8351925060208401519150604084015190509250925092565b6020808252602e908201527f496e697469616c697a61626c653a20636f6e747261637420697320616c72656160408201526d191e481a5b9a5d1a585b1a5e995960921b606082015260800190565b8181038181111561059b5761059b611ead565b8082018082111561059b5761059b611ead565b600181815b80851115611fc2578160001904821115611fa857611fa8611ead565b80851615611fb557918102915b93841c9390800290611f8c565b509250929050565b600082611fd95750600161059b565b81611fe65750600061059b565b8160018114611ffc576002811461200657612022565b600191505061059b565b60ff84111561201757612017611ead565b50506001821b61059b565b5060208310610133831016604e8410600b8410161715612045575081810a61059b565b61204f8383611f87565b806000190482111561206357612063611ead565b029392505050565b600061131960ff841683611fca565b808202811582820484141761059b5761059b611ead565b6000602082840312156120a357600080fd5b5051919050565b6020808252602b908201527f496e697469616c697a61626c653a20636f6e7472616374206973206e6f74206960408201526a6e697469616c697a696e6760a81b606082015260800190565b601f82111561117f57600081815260208120601f850160051c8101602086101561211c5750805b601f850160051c820191505b8181101561213b57828155600101612128565b505050505050565b81516001600160401b0381111561215c5761215c611bdc565b6121708161216a8454611d98565b846120f5565b602080601f8311600181146121a5576000841561218d5750858301515b600019600386901b1c1916600185901b17855561213b565b600085815260208120601f198616915b828110156121d4578886015182559484019460019091019084016121b5565b50858210156121f25787850151600019600388901b60f8161c191681555b5050505050600190811b01905550565b60008251612214818460208701611acd565b919091019291505056fe42455032303a207472616e7366657220616d6f756e74206578636565647320616c6c6f77616e636546756e6374696f6e206d7573742062652063616c6c6564207468726f75676820360894a13ba1a3210667c828492db98dca3e2076cc3735a920a3ca505d382bbc7f26b83ff96e1f2b6a682f133852f6798a09c465da95921460cefb3847402498416464726573733a206c6f772d6c6576656c2064656c65676174652063616c6c206661696c656442455032303a207472616e7366657220616d6f756e7420657863656564732062616c616e6365ddf252ad1be2c89b69c2b068fc378daa952ba7f163c4a11628f55a4df523b3ef42455032303a2064656372656173656420616c6c6f77616e63652062656c6f77207a65726f42455032303a206275726e20616d6f756e7420657863656564732062616c616e6365a26469706673582212204f29c33d623037f846c1311d8ead697d57811d564f720a5ad309addec932caed64736f6c63430008140033",
  "linkReferences": {},
  "deployedLinkReferences": {}
}