{
  "_format": "hh-sol-artifact-1",
  "contractName": "LegendToken",
  "sourceName": "contracts/token/LegendToken.sol",
  "abi": [
    {
      "anonymous": false,
      "inputs": [
        {
          "indexed": false,
          "internalType": "address",
          "name": "previousAdmin",
          "type": "address"
        },
        {
          "indexed": false,
          "internalType": "address",
          "name": "newAdmin",
          "type": "address"
        }
      ],
      "name": "AdminChanged",
      "type": "event"
    },
    {
      "anonymous": false,
      "inputs": [
        {
          "indexed": true,
          "internalType": "address",
          "name": "owner",
          "type": "address"
        },
        {
          "indexed": true,
          "internalType": "address",
          "name": "spender",
          "type": "address"
        },
        {
          "indexed": false,
          "internalType": "uint256",
          "name": "value",
          "type": "uint256"
        }
      ],
      "name": "Approval",
      "type": "event"
    },
    {
      "anonymous": false,
      "inputs": [
        {
          "indexed": true,
          "internalType": "address",
          "name": "beacon",
          "type": "address"
        }
      ],
      "name": "BeaconUpgraded",
      "type": "event"
    },
    {
      "anonymous": false,
      "inputs": [
        {
          "indexed": false,
          "internalType": "uint8",
          "name": "version",
          "type": "uint8"
        }
      ],
      "name": "Initialized",
      "type": "event"
    },
    {
      "anonymous": false,
      "inputs": [
        {
          "indexed": true,
          "internalType": "address",
          "name": "previousOwner",
          "type": "address"
        },
        {
          "indexed": true,
          "internalType": "address",
          "name": "newOwner",
          "type": "address"
        }
      ],
      "name": "OwnershipTransferred",
      "type": "event"
    },
    {
      "anonymous": false,
      "inputs": [
        {
          "indexed": true,
          "internalType": "address",
          "name": "from",
          "type": "address"
        },
        {
          "indexed": true,
          "internalType": "address",
          "name": "to",
          "type": "address"
        },
        {
          "indexed": false,
          "internalType": "uint256",
          "name": "value",
          "type": "uint256"
        }
      ],
      "name": "Transfer",
      "type": "event"
    },
    {
      "anonymous": false,
      "inputs": [
        {
          "indexed": true,
          "internalType": "address",
          "name": "implementation",
          "type": "address"
        }
      ],
      "name": "Upgraded",
      "type": "event"
    },
    {
      "inputs": [],
      "name": "PancakeSwapRouter",
      "outputs": [
        {
          "internalType": "contract IPancakeSwapRouter",
          "name": "",
          "type": "address"
        }
      ],
      "stateMutability": "view",
      "type": "function"
    },
    {
      "inputs": [],
      "name": "PancakeSwapV2Pair",
      "outputs": [
        {
          "internalType": "address",
          "name": "",
          "type": "address"
        }
      ],
      "stateMutability": "view",
      "type": "function"
    },
    {
      "inputs": [
        {
          "internalType": "uint256",
          "name": "ethAmount",
          "type": "uint256"
        }
      ],
      "name": "addLiquidity",
      "outputs": [],
      "stateMutability": "nonpayable",
      "type": "function"
    },
    {
      "inputs": [
        {
          "internalType": "address",
          "name": "owner",
          "type": "address"
        },
        {
          "internalType": "address",
          "name": "spender",
          "type": "address"
        }
      ],
      "name": "allowance",
      "outputs": [
        {
          "internalType": "uint256",
          "name": "",
          "type": "uint256"
        }
      ],
      "stateMutability": "view",
      "type": "function"
    },
    {
      "inputs": [
        {
          "internalType": "address",
          "name": "spender",
          "type": "address"
        },
        {
          "internalType": "uint256",
          "name": "amount",
          "type": "uint256"
        }
      ],
      "name": "approve",
      "outputs": [
        {
          "internalType": "bool",
          "name": "",
          "type": "bool"
        }
      ],
      "stateMutability": "nonpayable",
      "type": "function"
    },
    {
      "inputs": [
        {
          "internalType": "address",
          "name": "account",
          "type": "address"
        }
      ],
      "name": "balanceOf",
      "outputs": [
        {
          "internalType": "uint256",
          "name": "",
          "type": "uint256"
        }
      ],
      "stateMutability": "view",
      "type": "function"
    },
    {
      "inputs": [
        {
          "internalType": "uint256",
          "name": "amount",
          "type": "uint256"
        }
      ],
      "name": "burn",
      "outputs": [],
      "stateMutability": "nonpayable",
      "type": "function"
    },
    {
      "inputs": [],
      "name": "decimals",
      "outputs": [
        {
          "internalType": "uint8",
          "name": "",
          "type": "uint8"
        }
      ],
      "stateMutability": "view",
      "type": "function"
    },
    {
      "inputs": [
        {
          "internalType": "address",
          "name": "spender",
          "type": "address"
        },
        {
          "internalType": "uint256",
          "name": "subtractedValue",
          "type": "uint256"
        }
      ],
      "name": "decreaseAllowance",
      "outputs": [
        {
          "internalType": "bool",
          "name": "",
          "type": "bool"
        }
      ],
      "stateMutability": "nonpayable",
      "type": "function"
    },
    {
      "inputs": [],
      "name": "faucet",
      "outputs": [],
      "stateMutability": "nonpayable",
      "type": "function"
    },
    {
      "inputs": [
        {
          "internalType": "address",
          "name": "",
          "type": "address"
        }
      ],
      "name": "faucetedTime",
      "outputs": [
        {
          "internalType": "uint256",
          "name": "",
          "type": "uint256"
        }
      ],
      "stateMutability": "view",
      "type": "function"
    },
    {
      "inputs": [
        {
          "internalType": "address",
          "name": "spender",
          "type": "address"
        },
        {
          "internalType": "uint256",
          "name": "addedValue",
          "type": "uint256"
        }
      ],
      "name": "increaseAllowance",
      "outputs": [
        {
          "internalType": "bool",
          "name": "",
          "type": "bool"
        }
      ],
      "stateMutability": "nonpayable",
      "type": "function"
    },
    {
      "inputs": [
        {
          "internalType": "address",
          "name": "_router",
          "type": "address"
        },
        {
          "internalType": "string",
          "name": "tokenName",
          "type": "string"
        },
        {
          "internalType": "string",
          "name": "tokenSymbol",
          "type": "string"
        }
      ],
      "name": "initialize",
      "outputs": [],
      "stateMutability": "nonpayable",
      "type": "function"
    },
    {
      "inputs": [],
      "name": "leftTime",
      "outputs": [
        {
          "internalType": "uint256",
          "name": "",
          "type": "uint256"
        }
      ],
      "stateMutability": "view",
      "type": "function"
    },
    {
      "inputs": [],
      "name": "name",
      "outputs": [
        {
          "internalType": "string",
          "name": "",
          "type": "string"
        }
      ],
      "stateMutability": "view",
      "type": "function"
    },
    {
      "inputs": [],
      "name": "owner",
      "outputs": [
        {
          "internalType": "address",
          "name": "",
          "type": "address"
        }
      ],
      "stateMutability": "view",
      "type": "function"
    },
    {
      "inputs": [],
      "name": "proxiableUUID",
      "outputs": [
        {
          "internalType": "bytes32",
          "name": "",
          "type": "bytes32"
        }
      ],
      "stateMutability": "view",
      "type": "function"
    },
    {
      "inputs": [],
      "name": "renounceOwnership",
      "outputs": [],
      "stateMutability": "nonpayable",
      "type": "function"
    },
    {
      "inputs": [
        {
          "internalType": "address",
          "name": "_router",
          "type": "address"
        }
      ],
      "name": "setInitialAddresses",
      "outputs": [],
      "stateMutability": "nonpayable",
      "type": "function"
    },
    {
      "inputs": [],
      "name": "symbol",
      "outputs": [
        {
          "internalType": "string",
          "name": "",
          "type": "string"
        }
      ],
      "stateMutability": "view",
      "type": "function"
    },
    {
      "inputs": [],
      "name": "totalSupply",
      "outputs": [
        {
          "internalType": "uint256",
          "name": "",
          "type": "uint256"
        }
      ],
      "stateMutability": "view",
      "type": "function"
    },
    {
      "inputs": [
        {
          "internalType": "address",
          "name": "recipient",
          "type": "address"
        },
        {
          "internalType": "uint256",
          "name": "amount",
          "type": "uint256"
        }
      ],
      "name": "transfer",
      "outputs": [
        {
          "internalType": "bool",
          "name": "",
          "type": "bool"
        }
      ],
      "stateMutability": "nonpayable",
      "type": "function"
    },
    {
      "inputs": [
        {
          "internalType": "address",
          "name": "sender",
          "type": "address"
        },
        {
          "internalType": "address",
          "name": "recipient",
          "type": "address"
        },
        {
          "internalType": "uint256",
          "name": "amount",
          "type": "uint256"
        }
      ],
      "name": "transferFrom",
      "outputs": [
        {
          "internalType": "bool",
          "name": "",
          "type": "bool"
        }
      ],
      "stateMutability": "nonpayable",
      "type": "function"
    },
    {
      "inputs": [
        {
          "internalType": "address",
          "name": "newOwner",
          "type": "address"
        }
      ],
      "name": "transferOwnership",
      "outputs": [],
      "stateMutability": "nonpayable",
      "type": "function"
    },
    {
      "inputs": [
        {
          "internalType": "address",
          "name": "newImplementation",
          "type": "address"
        }
      ],
      "name": "upgradeTo",
      "outputs": [],
      "stateMutability": "nonpayable",
      "type": "function"
    },
    {
      "inputs": [
        {
          "internalType": "address",
          "name": "newImplementation",
          "type": "address"
        },
        {
          "internalType": "bytes",
          "name": "data",
          "type": "bytes"
        }
      ],
      "name": "upgradeToAndCall",
      "outputs": [],
      "stateMutability": "payable",
      "type": "function"
    }
  ],
  "bytecode": "0x60a06040523060805234801561001457600080fd5b5060805161232c61004c600039600081816107590152818161079901528181610861015281816108a10152610a0a015261232c6000f3fe6080604052600436106101315760003560e01c806306fdde0314610136578063095ea7b31461016157806318160ddd1461019157806323b872dd146101b057806328ec13ee146101d0578063313ce567146101f25780633659cfe6146102145780633950935114610234578063405869d914610254578063421ea58b1461028157806342966c68146102b95780634f1ef286146102d957806351c6590a146102ec57806352d1902d1461030c57806370a0823114610321578063715018a6146103415780638da5cb5b14610356578063906571471461036b57806395d89b411461038b578063a457c2d7146103a0578063a9059cbb146103c0578063c1258a40146103e0578063d78317bf14610400578063dd62ed3e14610415578063de5f72fd1461045b578063f2fde38b14610470575b600080fd5b34801561014257600080fd5b5061014b610490565b6040516101589190611a8d565b60405180910390f35b34801561016d57600080fd5b5061018161017c366004611ad5565b610522565b6040519015158152602001610158565b34801561019d57600080fd5b5060ce545b604051908152602001610158565b3480156101bc57600080fd5b506101816101cb366004611b01565b610539565b3480156101dc57600080fd5b506101f06101eb366004611b42565b6105d3565b005b3480156101fe57600080fd5b5060cf5460405160ff9091168152602001610158565b34801561022057600080fd5b506101f061022f366004611b42565b61074f565b34801561024057600080fd5b5061018161024f366004611ad5565b610817565b34801561026057600080fd5b506101a261026f366004611b42565b60cb6020526000908152604090205481565b34801561028d57600080fd5b5060cc546102a1906001600160a01b031681565b6040516001600160a01b039091168152602001610158565b3480156102c557600080fd5b506101f06102d4366004611b5f565b61084d565b6101f06102e7366004611c03565b610857565b3480156102f857600080fd5b506101f0610307366004611b5f565b610910565b34801561031857600080fd5b506101a26109fd565b34801561032d57600080fd5b506101a261033c366004611b42565b610aab565b34801561034d57600080fd5b506101f0610ac6565b34801561036257600080fd5b506102a1610ada565b34801561037757600080fd5b506101f0610386366004611c86565b610ae9565b34801561039757600080fd5b5061014b610bb7565b3480156103ac57600080fd5b506101816103bb366004611ad5565b610bc6565b3480156103cc57600080fd5b506101816103db366004611ad5565b610c15565b3480156103ec57600080fd5b5060cd546102a1906001600160a01b031681565b34801561040c57600080fd5b506101a2610c53565b34801561042157600080fd5b506101a2610430366004611cfb565b6001600160a01b03918216600090815260ca6020908152604080832093909416825291909152205490565b34801561046757600080fd5b506101f0610c8e565b34801561047c57600080fd5b506101f061048b366004611b42565b610d2e565b606060d1805461049f90611d34565b80601f01602080910402602001604051908101604052809291908181526020018280546104cb90611d34565b80156105185780601f106104ed57610100808354040283529160200191610518565b820191906000526020600020905b8154815290600101906020018083116104fb57829003601f168201915b5050505050905090565b600061052f338484610da4565b5060015b92915050565b6000826001600160a01b03811661056b5760405162461bcd60e51b815260040161056290611d6e565b60405180910390fd5b610576858585610ec9565b6105c885336105c3866040518060600160405280602881526020016121bb602891396001600160a01b038b16600090815260ca60209081526040808320338452909152902054919061103d565b610da4565b506001949350505050565b6105db611077565b60cc80546001600160a01b0319166001600160a01b0383169081179091556040805163c45a015560e01b8152905183929163c45a01559160048083019260209291908290030181865afa158015610636573d6000803e3d6000fd5b505050506040513d601f19601f8201168201806040525081019061065a9190611d9e565b6001600160a01b031663c9c6539630836001600160a01b031663ad5c46486040518163ffffffff1660e01b8152600401602060405180830381865afa1580156106a7573d6000803e3d6000fd5b505050506040513d601f19601f820116820180604052508101906106cb9190611d9e565b6040518363ffffffff1660e01b81526004016106e8929190611dbb565b6020604051808303816000875af1158015610707573d6000803e3d6000fd5b505050506040513d601f19601f8201168201806040525081019061072b9190611d9e565b60cd80546001600160a01b0319166001600160a01b03929092169190911790555050565b6001600160a01b037f00000000000000000000000000000000000000000000000000000000000000001630036107975760405162461bcd60e51b815260040161056290611dd5565b7f00000000000000000000000000000000000000000000000000000000000000006001600160a01b03166107c96110d6565b6001600160a01b0316146107ef5760405162461bcd60e51b815260040161056290611e0f565b6107f8816110f2565b60408051600080825260208201909252610814918391906110fa565b50565b33600081815260ca602090815260408083206001600160a01b0387168452909152812054909161052f9185906105c3908661126a565b61081433826112ce565b6001600160a01b037f000000000000000000000000000000000000000000000000000000000000000016300361089f5760405162461bcd60e51b815260040161056290611dd5565b7f00000000000000000000000000000000000000000000000000000000000000006001600160a01b03166108d16110d6565b6001600160a01b0316146108f75760405162461bcd60e51b815260040161056290611e0f565b610900826110f2565b61090c828260016110fa565b5050565b610918611077565b6000600261092533610aab565b61092f9190611e5f565b60cc5490915061094a9030906001600160a01b031683610da4565b60cc546001600160a01b031663f305d719833084600080610969610ada565b60405160e088901b6001600160e01b03191681526001600160a01b03958616600482015260248101949094526044840192909252606483015290911660848201524260a482015260c40160606040518083038185885af11580156109d1573d6000803e3d6000fd5b50505050506040513d601f19601f820116820180604052508101906109f69190611e81565b5050505050565b6000306001600160a01b037f00000000000000000000000000000000000000000000000000000000000000001614610a985760405162461bcd60e51b815260206004820152603860248201527f555550535570677261646561626c653a206d757374206e6f742062652063616c6044820152771b1959081d1a1c9bdd59da0819195b1959d85d1958d85b1b60421b6064820152608401610562565b5060008051602061220383398151915290565b6001600160a01b0316600090815260c9602052604090205490565b610ace611077565b610ad860006113c8565b565b6097546001600160a01b031690565b600054610100900460ff1615808015610b095750600054600160ff909116105b80610b2a5750610b183061141a565b158015610b2a575060005460ff166001145b610b465760405162461bcd60e51b815260040161056290611eaf565b6000805460ff191660011790558015610b69576000805461ff0019166101001790555b610b71611429565b610b7c848484611458565b8015610bb1576000805461ff001916905560405160018152600080516020612223833981519152906020015b60405180910390a15b50505050565b606060d0805461049f90611d34565b600061052f33846105c3856040518060600160405280602581526020016122b06025913933600090815260ca602090815260408083206001600160a01b038d168452909152902054919061103d565b6000826001600160a01b038116610c3e5760405162461bcd60e51b815260040161056290611d6e565b610c49338585610ec9565b5060019392505050565b33600090815260cb6020526040812054610e10906103e890610c759042611efd565b610c7f9190611e5f565b610c899190611e5f565b905090565b33600090815260cb6020526040902054610cab4262015180611f10565b8110610cf25760405162461bcd60e51b8152602060048201526016602482015275151bdad95b88185b1c9958591e481c1c9bdc1bdcd95960521b6044820152606401610562565b60cf54610d19903390610d099060ff16600a612007565b610d1490600a612016565b6116ef565b5033600090815260cb60205260409020429055565b610d36611077565b6001600160a01b038116610d9b5760405162461bcd60e51b815260206004820152602660248201527f4f776e61626c653a206e6577206f776e657220697320746865207a65726f206160448201526564647265737360d01b6064820152608401610562565b610814816113c8565b6001600160a01b038316610e065760405162461bcd60e51b8152602060048201526024808201527f42455032303a20617070726f76652066726f6d20746865207a65726f206164646044820152637265737360e01b6064820152608401610562565b6001600160a01b038216610e675760405162461bcd60e51b815260206004820152602260248201527f42455032303a20617070726f766520746f20746865207a65726f206164647265604482015261737360f01b6064820152608401610562565b6001600160a01b03838116600081815260ca602090815260408083209487168084529482529182902085905590518481527f8c5be1e5ebec7d5bd14f71427d1e84f3dd0314c0f7b2291e5b200ac8c7c3b92591015b60405180910390a3505050565b6001600160a01b038316610f2d5760405162461bcd60e51b815260206004820152602560248201527f42455032303a207472616e736665722066726f6d20746865207a65726f206164604482015264647265737360d81b6064820152608401610562565b6001600160a01b038216610f8f5760405162461bcd60e51b815260206004820152602360248201527f42455032303a207472616e7366657220746f20746865207a65726f206164647260448201526265737360e81b6064820152608401610562565b610fcc8160405180606001604052806026815260200161226a602691396001600160a01b038616600090815260c96020526040902054919061103d565b6001600160a01b03808516600090815260c960205260408082209390935590841681522054610ffb908261126a565b6001600160a01b03808416600081815260c96020526040908190209390935591519085169060008051602061229083398151915290610ebc9085815260200190565b600081848411156110615760405162461bcd60e51b81526004016105629190611a8d565b50600061106e8486611efd565b95945050505050565b33611080610ada565b6001600160a01b031614610ad85760405162461bcd60e51b815260206004820181905260248201527f4f776e61626c653a2063616c6c6572206973206e6f7420746865206f776e65726044820152606401610562565b600080516020612203833981519152546001600160a01b031690565b610814611077565b7f4910fdfa16fed3260ed0e7147f7cc6da11a60208b5b9406d12a635614ffd91435460ff16156111325761112d836117b7565b505050565b826001600160a01b03166352d1902d6040518163ffffffff1660e01b8152600401602060405180830381865afa92505050801561118c575060408051601f3d908101601f191682019092526111899181019061202d565b60015b6111ef5760405162461bcd60e51b815260206004820152602e60248201527f45524331393637557067726164653a206e657720696d706c656d656e7461746960448201526d6f6e206973206e6f74205555505360901b6064820152608401610562565b600080516020612203833981519152811461125e5760405162461bcd60e51b815260206004820152602960248201527f45524331393637557067726164653a20756e737570706f727465642070726f786044820152681a58589b195555525160ba1b6064820152608401610562565b5061112d838383611851565b6000806112778385611f10565b9050838110156112c75760405162461bcd60e51b815260206004820152601b60248201527a536166654d6174683a206164646974696f6e206f766572666c6f7760281b6044820152606401610562565b9392505050565b6001600160a01b03821661132e5760405162461bcd60e51b815260206004820152602160248201527f42455032303a206275726e2066726f6d20746865207a65726f206164647265736044820152607360f81b6064820152608401610562565b61136b816040518060600160405280602281526020016122d5602291396001600160a01b038516600090815260c96020526040902054919061103d565b6001600160a01b038316600090815260c9602052604090205560ce546113919082611876565b60ce556040518181526000906001600160a01b03841690600080516020612290833981519152906020015b60405180910390a35050565b609780546001600160a01b038381166001600160a01b0319831681179093556040519116919082907f8be0079c531659141344cd1fd0a4f28419497f9722a3daafe3b4186f6b6457e090600090a35050565b6001600160a01b03163b151590565b600054610100900460ff166114505760405162461bcd60e51b815260040161056290612046565b610ad86118b8565b600054610100900460ff16158080156114785750600054600160ff909116105b8061149957506114873061141a565b158015611499575060005460ff166001145b6114b55760405162461bcd60e51b815260040161056290611eaf565b6000805460ff1916600117905580156114d8576000805461ff0019166101001790555b60d16114e484826120df565b5060d06114f183826120df565b5060cf805460ff1916601217905568327cb2734119d3b7a9601e1b60ce81905533600081815260c960205260408082208490555191929091600080516020612290833981519152916115469190815260200190565b60405180910390a360cc80546001600160a01b0319166001600160a01b0386169081179091556040805163c45a015560e01b8152905186929163c45a01559160048083019260209291908290030181865afa1580156115a9573d6000803e3d6000fd5b505050506040513d601f19601f820116820180604052508101906115cd9190611d9e565b6001600160a01b031663c9c6539630836001600160a01b031663ad5c46486040518163ffffffff1660e01b8152600401602060405180830381865afa15801561161a573d6000803e3d6000fd5b505050506040513d601f19601f8201168201806040525081019061163e9190611d9e565b6040518363ffffffff1660e01b815260040161165b929190611dbb565b6020604051808303816000875af115801561167a573d6000803e3d6000fd5b505050506040513d601f19601f8201168201806040525081019061169e9190611d9e565b60cd80546001600160a01b0319166001600160a01b0392909216919091179055508015610bb1576000805461ff00191690556040516001815260008051602061222383398151915290602001610ba8565b6001600160a01b0382166117455760405162461bcd60e51b815260206004820152601f60248201527f42455032303a206d696e7420746f20746865207a65726f2061646472657373006044820152606401610562565b60ce54611752908261126a565b60ce556001600160a01b038216600090815260c96020526040902054611778908261126a565b6001600160a01b038316600081815260c96020526040808220939093559151909190600080516020612290833981519152906113bc9085815260200190565b6117c08161141a565b6118225760405162461bcd60e51b815260206004820152602d60248201527f455243313936373a206e657720696d706c656d656e746174696f6e206973206e60448201526c1bdd08184818dbdb9d1c9858dd609a1b6064820152608401610562565b60008051602061220383398151915280546001600160a01b0319166001600160a01b0392909216919091179055565b61185a836118e8565b6000825111806118675750805b1561112d57610bb18383611928565b60006112c783836040518060400160405280601e81526020017f536166654d6174683a207375627472616374696f6e206f766572666c6f77000081525061103d565b600054610100900460ff166118df5760405162461bcd60e51b815260040161056290612046565b610ad8336113c8565b6118f1816117b7565b6040516001600160a01b038216907fbc7cd75a20ee27fd9adebab32041f755214dbc6bffa90cc0225b39da2e5c2d3b90600090a250565b60606112c78383604051806060016040528060278152602001612243602791396060600080856001600160a01b031685604051611965919061219e565b600060405180830381855af49150503d80600081146119a0576040519150601f19603f3d011682016040523d82523d6000602084013e6119a5565b606091505b50915091506119b6868383876119c0565b9695505050505050565b60608315611a2d578251600003611a26576119da8561141a565b611a265760405162461bcd60e51b815260206004820152601d60248201527f416464726573733a2063616c6c20746f206e6f6e2d636f6e74726163740000006044820152606401610562565b5081611a37565b611a378383611a3f565b949350505050565b815115611a4f5781518083602001fd5b8060405162461bcd60e51b81526004016105629190611a8d565b60005b83811015611a84578181015183820152602001611a6c565b50506000910152565b6020815260008251806020840152611aac816040850160208701611a69565b601f01601f19169190910160400192915050565b6001600160a01b038116811461081457600080fd5b60008060408385031215611ae857600080fd5b8235611af381611ac0565b946020939093013593505050565b600080600060608486031215611b1657600080fd5b8335611b2181611ac0565b92506020840135611b3181611ac0565b929592945050506040919091013590565b600060208284031215611b5457600080fd5b81356112c781611ac0565b600060208284031215611b7157600080fd5b5035919050565b634e487b7160e01b600052604160045260246000fd5b60006001600160401b0380841115611ba857611ba8611b78565b604051601f8501601f19908116603f01168101908282118183101715611bd057611bd0611b78565b81604052809350858152868686011115611be957600080fd5b858560208301376000602087830101525050509392505050565b60008060408385031215611c1657600080fd5b8235611c2181611ac0565b915060208301356001600160401b03811115611c3c57600080fd5b8301601f81018513611c4d57600080fd5b611c5c85823560208401611b8e565b9150509250929050565b600082601f830112611c7757600080fd5b6112c783833560208501611b8e565b600080600060608486031215611c9b57600080fd5b8335611ca681611ac0565b925060208401356001600160401b0380821115611cc257600080fd5b611cce87838801611c66565b93506040860135915080821115611ce457600080fd5b50611cf186828701611c66565b9150509250925092565b60008060408385031215611d0e57600080fd5b8235611d1981611ac0565b91506020830135611d2981611ac0565b809150509250929050565b600181811c90821680611d4857607f821691505b602082108103611d6857634e487b7160e01b600052602260045260246000fd5b50919050565b602080825260169082015275526563697069656e74207a65726f206164647265737360501b604082015260600190565b600060208284031215611db057600080fd5b81516112c781611ac0565b6001600160a01b0392831681529116602082015260400190565b6020808252602c908201526000805160206121e383398151915260408201526b19195b1959d85d1958d85b1b60a21b606082015260800190565b6020808252602c908201526000805160206121e383398151915260408201526b6163746976652070726f787960a01b606082015260800190565b634e487b7160e01b600052601160045260246000fd5b600082611e7c57634e487b7160e01b600052601260045260246000fd5b500490565b600080600060608486031215611e9657600080fd5b8351925060208401519150604084015190509250925092565b6020808252602e908201527f496e697469616c697a61626c653a20636f6e747261637420697320616c72656160408201526d191e481a5b9a5d1a585b1a5e995960921b606082015260800190565b8181038181111561053357610533611e49565b8082018082111561053357610533611e49565b600181815b80851115611f5e578160001904821115611f4457611f44611e49565b80851615611f5157918102915b93841c9390800290611f28565b509250929050565b600082611f7557506001610533565b81611f8257506000610533565b8160018114611f985760028114611fa257611fbe565b6001915050610533565b60ff841115611fb357611fb3611e49565b50506001821b610533565b5060208310610133831016604e8410600b8410161715611fe1575081810a610533565b611feb8383611f23565b8060001904821115611fff57611fff611e49565b029392505050565b60006112c760ff841683611f66565b808202811582820484141761053357610533611e49565b60006020828403121561203f57600080fd5b5051919050565b6020808252602b908201527f496e697469616c697a61626c653a20636f6e7472616374206973206e6f74206960408201526a6e697469616c697a696e6760a81b606082015260800190565b601f82111561112d57600081815260208120601f850160051c810160208610156120b85750805b601f850160051c820191505b818110156120d7578281556001016120c4565b505050505050565b81516001600160401b038111156120f8576120f8611b78565b61210c816121068454611d34565b84612091565b602080601f83116001811461214157600084156121295750858301515b600019600386901b1c1916600185901b1785556120d7565b600085815260208120601f198616915b8281101561217057888601518255948401946001909101908401612151565b508582101561218e5787850151600019600388901b60f8161c191681555b5050505050600190811b01905550565b600082516121b0818460208701611a69565b919091019291505056fe42455032303a207472616e7366657220616d6f756e74206578636565647320616c6c6f77616e636546756e6374696f6e206d7573742062652063616c6c6564207468726f75676820360894a13ba1a3210667c828492db98dca3e2076cc3735a920a3ca505d382bbc7f26b83ff96e1f2b6a682f133852f6798a09c465da95921460cefb3847402498416464726573733a206c6f772d6c6576656c2064656c65676174652063616c6c206661696c656442455032303a207472616e7366657220616d6f756e7420657863656564732062616c616e6365ddf252ad1be2c89b69c2b068fc378daa952ba7f163c4a11628f55a4df523b3ef42455032303a2064656372656173656420616c6c6f77616e63652062656c6f77207a65726f42455032303a206275726e20616d6f756e7420657863656564732062616c616e6365a2646970667358221220392ee814aee71bf1848e9273daf56b0442a2157aa8cf81fa69e9994bbb7ec65a64736f6c63430008140033",
  "linkReferences": {},
  "deployedLinkReferences": {}
}