{
  "_format": "hh-sol-artifact-1",
  "contractName": "DataConsumerV3",
  "sourceName": "contracts/bridge/ChainLinkTest.sol",
  "abi": [
    {
      "inputs": [],
      "stateMutability": "nonpayable",
      "type": "constructor"
    },
    {
      "inputs": [],
      "name": "getChainID",
      "outputs": [
        {
          "internalType": "uint256",
          "name": "",
          "type": "uint256"
        }
      ],
      "stateMutability": "view",
      "type": "function"
    },
    {
      "inputs": [],
      "name": "getChainlinkDataFeedLatestAnswer",
      "outputs": [
        {
          "internalType": "int256",
          "name": "",
          "type": "int256"
        }
      ],
      "stateMutability": "view",
      "type": "function"
    }
  ],
  "bytecode": "0x608060405234801561001057600080fd5b504661001b81610047565b50600080546001600160a01b03191673694aa1769357215de4fac081bf1f309adc3253061790556100c7565b6100908160405160240161005d91815260200190565b60408051601f198184030181529190526020810180516001600160e01b0390811663f82c50f160e01b1790915261009316565b50565b610090816100a660201b6100cb1760201c565b60006a636f6e736f6c652e6c6f679050600080835160208501845afa505050565b6101ae806100d66000396000f3fe608060405234801561001057600080fd5b50600436106100365760003560e01c8063564b81ef1461003b578063bea4dfb51461004f575b600080fd5b465b60405190815260200160405180910390f35b61003d6000805460408051633fabe5a360e21b8152905183926001600160a01b03169163feaf968c9160048083019260a09291908290030181865afa15801561009c573d6000803e3d6000fd5b505050506040513d601f19601f820116820180604052508101906100c09190610112565b509195945050505050565b60006a636f6e736f6c652e6c6f679050600080835160208501845afa505050565b6100f4610162565b565b80516001600160501b038116811461010d57600080fd5b919050565b600080600080600060a0868803121561012a57600080fd5b610133866100f6565b9450602086015193506040860151925060608601519150610156608087016100f6565b90509295509295909350565b634e487b7160e01b600052605160045260246000fdfea2646970667358221220caa656d7add0153669e18cecfa90e7af3c72480d9df70b74c9598b58fa44cd6164736f6c63430008140033",
  "linkReferences": {},
  "deployedLinkReferences": {}
}