{
  "_format": "hh-sol-artifact-1",
  "contractName": "RavaNFT",
  "sourceName": "contracts/market/RavaNFT.sol",
  "abi": [
    {
      "inputs": [
        {
          "internalType": "string",
          "name": "_baseTokenURI",
          "type": "string"
        }
      ],
      "stateMutability": "nonpayable",
      "type": "constructor"
    },
    {
      "anonymous": false,
      "inputs": [
        {
          "indexed": true,
          "internalType": "address",
          "name": "owner",
          "type": "address"
        },
        {
          "indexed": true,
          "internalType": "address",
          "name": "approved",
          "type": "address"
        },
        {
          "indexed": true,
          "internalType": "uint256",
          "name": "tokenId",
          "type": "uint256"
        }
      ],
      "name": "Approval",
      "type": "event"
    },
    {
      "anonymous": false,
      "inputs": [
        {
          "indexed": true,
          "internalType": "address",
          "name": "owner",
          "type": "address"
        },
        {
          "indexed": true,
          "internalType": "address",
          "name": "operator",
          "type": "address"
        },
        {
          "indexed": false,
          "internalType": "bool",
          "name": "approved",
          "type": "bool"
        }
      ],
      "name": "ApprovalForAll",
      "type": "event"
    },
    {
      "anonymous": false,
      "inputs": [
        {
          "indexed": true,
          "internalType": "address",
          "name": "previousOwner",
          "type": "address"
        },
        {
          "indexed": true,
          "internalType": "address",
          "name": "newOwner",
          "type": "address"
        }
      ],
      "name": "OwnershipTransferred",
      "type": "event"
    },
    {
      "anonymous": false,
      "inputs": [
        {
          "indexed": true,
          "internalType": "address",
          "name": "from",
          "type": "address"
        },
        {
          "indexed": true,
          "internalType": "address",
          "name": "to",
          "type": "address"
        },
        {
          "indexed": true,
          "internalType": "uint256",
          "name": "tokenId",
          "type": "uint256"
        }
      ],
      "name": "Transfer",
      "type": "event"
    },
    {
      "inputs": [
        {
          "internalType": "address",
          "name": "to",
          "type": "address"
        },
        {
          "internalType": "uint256",
          "name": "tokenId",
          "type": "uint256"
        }
      ],
      "name": "approve",
      "outputs": [],
      "stateMutability": "nonpayable",
      "type": "function"
    },
    {
      "inputs": [
        {
          "internalType": "address",
          "name": "owner",
          "type": "address"
        }
      ],
      "name": "balanceOf",
      "outputs": [
        {
          "internalType": "uint256",
          "name": "",
          "type": "uint256"
        }
      ],
      "stateMutability": "view",
      "type": "function"
    },
    {
      "inputs": [],
      "name": "baseTokenURI",
      "outputs": [
        {
          "internalType": "string",
          "name": "",
          "type": "string"
        }
      ],
      "stateMutability": "view",
      "type": "function"
    },
    {
      "inputs": [
        {
          "internalType": "uint256",
          "name": "collectionId",
          "type": "uint256"
        }
      ],
      "name": "collectionURI",
      "outputs": [
        {
          "internalType": "string",
          "name": "",
          "type": "string"
        }
      ],
      "stateMutability": "view",
      "type": "function"
    },
    {
      "inputs": [
        {
          "internalType": "string",
          "name": "_colName",
          "type": "string"
        },
        {
          "internalType": "string",
          "name": "_collectionUri",
          "type": "string"
        },
        {
          "internalType": "uint256",
          "name": "_maxSupply",
          "type": "uint256"
        },
        {
          "internalType": "uint256",
          "name": "_maxPerMint",
          "type": "uint256"
        }
      ],
      "name": "createCollection",
      "outputs": [],
      "stateMutability": "nonpayable",
      "type": "function"
    },
    {
      "inputs": [
        {
          "internalType": "uint256",
          "name": "tokenId",
          "type": "uint256"
        }
      ],
      "name": "getApproved",
      "outputs": [
        {
          "internalType": "address",
          "name": "",
          "type": "address"
        }
      ],
      "stateMutability": "view",
      "type": "function"
    },
    {
      "inputs": [
        {
          "internalType": "address",
          "name": "owner",
          "type": "address"
        },
        {
          "internalType": "address",
          "name": "operator",
          "type": "address"
        }
      ],
      "name": "isApprovedForAll",
      "outputs": [
        {
          "internalType": "bool",
          "name": "",
          "type": "bool"
        }
      ],
      "stateMutability": "view",
      "type": "function"
    },
    {
      "inputs": [
        {
          "internalType": "uint256",
          "name": "collectionId",
          "type": "uint256"
        },
        {
          "internalType": "uint256",
          "name": "_count",
          "type": "uint256"
        }
      ],
      "name": "mintNFTs",
      "outputs": [],
      "stateMutability": "nonpayable",
      "type": "function"
    },
    {
      "inputs": [],
      "name": "name",
      "outputs": [
        {
          "internalType": "string",
          "name": "",
          "type": "string"
        }
      ],
      "stateMutability": "view",
      "type": "function"
    },
    {
      "inputs": [],
      "name": "owner",
      "outputs": [
        {
          "internalType": "address",
          "name": "",
          "type": "address"
        }
      ],
      "stateMutability": "view",
      "type": "function"
    },
    {
      "inputs": [
        {
          "internalType": "uint256",
          "name": "tokenId",
          "type": "uint256"
        }
      ],
      "name": "ownerOf",
      "outputs": [
        {
          "internalType": "address",
          "name": "",
          "type": "address"
        }
      ],
      "stateMutability": "view",
      "type": "function"
    },
    {
      "inputs": [],
      "name": "renounceOwnership",
      "outputs": [],
      "stateMutability": "nonpayable",
      "type": "function"
    },
    {
      "inputs": [
        {
          "internalType": "address",
          "name": "from",
          "type": "address"
        },
        {
          "internalType": "address",
          "name": "to",
          "type": "address"
        },
        {
          "internalType": "uint256",
          "name": "tokenId",
          "type": "uint256"
        }
      ],
      "name": "safeTransferFrom",
      "outputs": [],
      "stateMutability": "nonpayable",
      "type": "function"
    },
    {
      "inputs": [
        {
          "internalType": "address",
          "name": "from",
          "type": "address"
        },
        {
          "internalType": "address",
          "name": "to",
          "type": "address"
        },
        {
          "internalType": "uint256",
          "name": "tokenId",
          "type": "uint256"
        },
        {
          "internalType": "bytes",
          "name": "data",
          "type": "bytes"
        }
      ],
      "name": "safeTransferFrom",
      "outputs": [],
      "stateMutability": "nonpayable",
      "type": "function"
    },
    {
      "inputs": [
        {
          "internalType": "address",
          "name": "operator",
          "type": "address"
        },
        {
          "internalType": "bool",
          "name": "approved",
          "type": "bool"
        }
      ],
      "name": "setApprovalForAll",
      "outputs": [],
      "stateMutability": "nonpayable",
      "type": "function"
    },
    {
      "inputs": [
        {
          "internalType": "string",
          "name": "_baseTokenURI",
          "type": "string"
        }
      ],
      "name": "setBaseURI",
      "outputs": [],
      "stateMutability": "nonpayable",
      "type": "function"
    },
    {
      "inputs": [
        {
          "internalType": "uint256",
          "name": "collectionId",
          "type": "uint256"
        },
        {
          "internalType": "string",
          "name": "cltUri",
          "type": "string"
        }
      ],
      "name": "setCollectionURI",
      "outputs": [],
      "stateMutability": "nonpayable",
      "type": "function"
    },
    {
      "inputs": [
        {
          "internalType": "bytes4",
          "name": "interfaceId",
          "type": "bytes4"
        }
      ],
      "name": "supportsInterface",
      "outputs": [
        {
          "internalType": "bool",
          "name": "",
          "type": "bool"
        }
      ],
      "stateMutability": "view",
      "type": "function"
    },
    {
      "inputs": [],
      "name": "symbol",
      "outputs": [
        {
          "internalType": "string",
          "name": "",
          "type": "string"
        }
      ],
      "stateMutability": "view",
      "type": "function"
    },
    {
      "inputs": [
        {
          "internalType": "uint256",
          "name": "index",
          "type": "uint256"
        }
      ],
      "name": "tokenByIndex",
      "outputs": [
        {
          "internalType": "uint256",
          "name": "",
          "type": "uint256"
        }
      ],
      "stateMutability": "view",
      "type": "function"
    },
    {
      "inputs": [
        {
          "internalType": "address",
          "name": "owner",
          "type": "address"
        },
        {
          "internalType": "uint256",
          "name": "index",
          "type": "uint256"
        }
      ],
      "name": "tokenOfOwnerByIndex",
      "outputs": [
        {
          "internalType": "uint256",
          "name": "",
          "type": "uint256"
        }
      ],
      "stateMutability": "view",
      "type": "function"
    },
    {
      "inputs": [
        {
          "internalType": "uint256",
          "name": "tokenId",
          "type": "uint256"
        }
      ],
      "name": "tokenURI",
      "outputs": [
        {
          "internalType": "string",
          "name": "",
          "type": "string"
        }
      ],
      "stateMutability": "view",
      "type": "function"
    },
    {
      "inputs": [
        {
          "internalType": "address",
          "name": "_owner",
          "type": "address"
        }
      ],
      "name": "tokensOfOwner",
      "outputs": [
        {
          "internalType": "uint256[]",
          "name": "",
          "type": "uint256[]"
        }
      ],
      "stateMutability": "view",
      "type": "function"
    },
    {
      "inputs": [],
      "name": "totalSupply",
      "outputs": [
        {
          "internalType": "uint256",
          "name": "",
          "type": "uint256"
        }
      ],
      "stateMutability": "view",
      "type": "function"
    },
    {
      "inputs": [
        {
          "internalType": "address",
          "name": "from",
          "type": "address"
        },
        {
          "internalType": "address",
          "name": "to",
          "type": "address"
        },
        {
          "internalType": "uint256",
          "name": "tokenId",
          "type": "uint256"
        }
      ],
      "name": "transferFrom",
      "outputs": [],
      "stateMutability": "nonpayable",
      "type": "function"
    },
    {
      "inputs": [
        {
          "internalType": "address",
          "name": "newOwner",
          "type": "address"
        }
      ],
      "name": "transferOwnership",
      "outputs": [],
      "stateMutability": "nonpayable",
      "type": "function"
    },
    {
      "inputs": [],
      "name": "withdraw",
      "outputs": [],
      "stateMutability": "payable",
      "type": "function"
    }
  ],
  "bytecode": "0x60806040523480156200001157600080fd5b50604051620027753803806200277583398101604081905262000034916200017b565b60405180604001604052806008815260200167149055904813919560c21b815250604051806040016040528060048152602001631495919560e21b8152508160009081620000839190620002c2565b506001620000928282620002c2565b505050620000af620000a9620000e960201b60201c565b620000ed565b80604051602001620000c291906200038e565b604051602081830303815290604052600d9081620000e19190620002c2565b5050620003b5565b3390565b600a80546001600160a01b038381166001600160a01b0319831681179093556040519116919082907f8be0079c531659141344cd1fd0a4f28419497f9722a3daafe3b4186f6b6457e090600090a35050565b634e487b7160e01b600052604160045260246000fd5b60005b838110156200017257818101518382015260200162000158565b50506000910152565b6000602082840312156200018e57600080fd5b81516001600160401b0380821115620001a657600080fd5b818401915084601f830112620001bb57600080fd5b815181811115620001d057620001d06200013f565b604051601f8201601f19908116603f01168101908382118183101715620001fb57620001fb6200013f565b816040528281528760208487010111156200021557600080fd5b6200022883602083016020880162000155565b979650505050505050565b600181811c908216806200024857607f821691505b6020821081036200026957634e487b7160e01b600052602260045260246000fd5b50919050565b601f821115620002bd57600081815260208120601f850160051c81016020861015620002985750805b601f850160051c820191505b81811015620002b957828155600101620002a4565b5050505b505050565b81516001600160401b03811115620002de57620002de6200013f565b620002f681620002ef845462000233565b846200026f565b602080601f8311600181146200032e5760008415620003155750858301515b600019600386901b1c1916600185901b178555620002b9565b600085815260208120601f198616915b828110156200035f578886015182559484019460019091019084016200033e565b50858210156200037e5787850151600019600388901b60f8161c191681555b5050505050600190811b01905550565b60008251620003a281846020870162000155565b602f60f81b920191825250600101919050565b6123b080620003c56000396000f3fe60806040526004361061013c5760003560e01c806301ffc9a71461014157806306fdde0314610176578063081812fc14610198578063095ea7b3146101d05780631771c96c146101f257806318160ddd1461021257806323b872dd1461023157806327f054aa146102515780632f745c59146102715780633ccfd60b1461029157806342842e0e146102995780634f6ccce7146102b957806355f804b3146102d95780636352211e146102f957806370a0823114610319578063715018a6146103395780638286a1661461034e5780638462151c1461036e5780638da5cb5b1461039b57806395d89b41146103b0578063a22cb465146103c5578063b79bef4a146103e5578063b88d4fde14610405578063c87b56dd14610425578063d547cfb714610445578063e985e9c51461045a578063f2fde38b1461047a575b600080fd5b34801561014d57600080fd5b5061016161015c366004611abd565b61049a565b60405190151581526020015b60405180910390f35b34801561018257600080fd5b5061018b6104c5565b60405161016d9190611b2a565b3480156101a457600080fd5b506101b86101b3366004611b3d565b610557565b6040516001600160a01b03909116815260200161016d565b3480156101dc57600080fd5b506101f06101eb366004611b72565b61057e565b005b3480156101fe57600080fd5b5061018b61020d366004611b3d565b610698565b34801561021e57600080fd5b506008545b60405190815260200161016d565b34801561023d57600080fd5b506101f061024c366004611b9c565b610740565b34801561025d57600080fd5b506101f061026c366004611c83565b610771565b34801561027d57600080fd5b5061022361028c366004611b72565b61079b565b6101f0610831565b3480156102a557600080fd5b506101f06102b4366004611b9c565b610912565b3480156102c557600080fd5b506102236102d4366004611b3d565b61092d565b3480156102e557600080fd5b506101f06102f4366004611cc9565b6109c0565b34801561030557600080fd5b506101b8610314366004611b3d565b6109f6565b34801561032557600080fd5b50610223610334366004611cfd565b610a2a565b34801561034557600080fd5b506101f0610ab0565b34801561035a57600080fd5b506101f0610369366004611d18565b610ac4565b34801561037a57600080fd5b5061038e610389366004611cfd565b610bd4565b60405161016d9190611d3a565b3480156103a757600080fd5b506101b8610c75565b3480156103bc57600080fd5b5061018b610c84565b3480156103d157600080fd5b506101f06103e0366004611d7e565b610c93565b3480156103f157600080fd5b506101f0610400366004611dba565b610c9e565b34801561041157600080fd5b506101f0610420366004611e2d565b610dfe565b34801561043157600080fd5b5061018b610440366004611b3d565b610e30565b34801561045157600080fd5b5061018b610e64565b34801561046657600080fd5b50610161610475366004611ea8565b610ef2565b34801561048657600080fd5b506101f0610495366004611cfd565b610f20565b60006001600160e01b0319821663780e9d6360e01b14806104bf57506104bf82610f99565b92915050565b6060600080546104d490611edb565b80601f016020809104026020016040519081016040528092919081815260200182805461050090611edb565b801561054d5780601f106105225761010080835404028352916020019161054d565b820191906000526020600020905b81548152906001019060200180831161053057829003601f168201915b5050505050905090565b600061056282610fe9565b506000908152600460205260409020546001600160a01b031690565b6000610589826109f6565b9050806001600160a01b0316836001600160a01b0316036105fb5760405162461bcd60e51b815260206004820152602160248201527f4552433732313a20617070726f76616c20746f2063757272656e74206f776e656044820152603960f91b60648201526084015b60405180910390fd5b336001600160a01b038216148061061757506106178133610ef2565b6106895760405162461bcd60e51b815260206004820152603d60248201527f4552433732313a20617070726f76652063616c6c6572206973206e6f7420746f60448201527f6b656e206f776e6572206f7220617070726f76656420666f7220616c6c00000060648201526084016105f2565b610693838361100e565b505050565b6000818152600e6020526040902060018101805460609291906106ba90611edb565b80601f01602080910402602001604051908101604052809291908181526020018280546106e690611edb565b80156107335780601f1061070857610100808354040283529160200191610733565b820191906000526020600020905b81548152906001019060200180831161071657829003601f168201915b5050505050915050919050565b61074a338261107c565b6107665760405162461bcd60e51b81526004016105f290611f15565b6106938383836110db565b61077961123a565b6000828152600e60205260409020600181016107958382611fb0565b50505050565b60006107a683610a2a565b82106108085760405162461bcd60e51b815260206004820152602b60248201527f455243373231456e756d657261626c653a206f776e657220696e646578206f7560448201526a74206f6620626f756e647360a81b60648201526084016105f2565b506001600160a01b03919091166000908152600660209081526040808320938352929052205490565b61083961123a565b47806108835760405162461bcd60e51b81526020600482015260196024820152784e6f206574686572206c65667420746f20776974686472617760381b60448201526064016105f2565b604051600090339083908381818185875af1925050503d80600081146108c5576040519150601f19603f3d011682016040523d82523d6000602084013e6108ca565b606091505b505090508061090e5760405162461bcd60e51b815260206004820152601060248201526f2a3930b739b332b9103330b4b632b21760811b60448201526064016105f2565b5050565b61069383838360405180602001604052806000815250610dfe565b600061093860085490565b821061099b5760405162461bcd60e51b815260206004820152602c60248201527f455243373231456e756d657261626c653a20676c6f62616c20696e646578206f60448201526b7574206f6620626f756e647360a01b60648201526084016105f2565b600882815481106109ae576109ae61206f565b90600052602060002001549050919050565b6109c861123a565b806040516020016109d99190612085565b604051602081830303815290604052600d908161090e9190611fb0565b600080610a0283611299565b90506001600160a01b0381166104bf5760405162461bcd60e51b81526004016105f2906120aa565b60006001600160a01b038216610a945760405162461bcd60e51b815260206004820152602960248201527f4552433732313a2061646472657373207a65726f206973206e6f7420612076616044820152683634b21037bbb732b960b91b60648201526084016105f2565b506001600160a01b031660009081526003602052604090205490565b610ab861123a565b610ac260006112b4565b565b610acc61123a565b6000610ad7600b5490565b6000848152600e60205260409020600281015491925090610af88385611306565b1115610b395760405162461bcd60e51b815260206004820152601060248201526f4e6f7420656e6f756768204e4654732160801b60448201526064016105f2565b600083118015610b4d575080600301548311155b610ba75760405162461bcd60e51b815260206004820152602560248201527f43616e6e6f74206d696e7420737065636966696564206e756d626572206f662060448201526427232a399760d91b60648201526084016105f2565b60005b83811015610bcd57610bbb85611319565b80610bc5816120f2565b915050610baa565b5050505050565b60606000610be183610a2a565b90506000816001600160401b03811115610bfd57610bfd611bd8565b604051908082528060200260200182016040528015610c26578160200160208202803683370190505b50905060005b82811015610c6d57610c3e858261079b565b828281518110610c5057610c5061206f565b602090810291909101015280610c65816120f2565b915050610c2c565b509392505050565b600a546001600160a01b031690565b6060600180546104d490611edb565b61090e338383611378565b610ca661123a565b6000845111610d035760405162461bcd60e51b8152602060048201526024808201527f524156415f4e46543a20636f6c6c656374696f6e206e616d6520697320696e76604482015263185b1a5960e21b60648201526084016105f2565b60008211610d675760405162461bcd60e51b815260206004820152602b60248201527f524156415f4e46543a206d617820737570706c79206d7573742062652067726560448201526a061746572207468616e20360ac1b60648201526084016105f2565b6040518060a001604052808581526020018481526020018381526020018281526020016000815250600e6000610d9c600c5490565b8152602081019190915260400160002081518190610dba9082611fb0565b5060208201516001820190610dcf9082611fb0565b506040820151600282015560608201516003820155608090910151600490910155610795600c80546001019055565b610e08338361107c565b610e245760405162461bcd60e51b81526004016105f290611f15565b61079584848484611442565b6060600d610e3d83611475565b604051602001610e4e92919061210b565b6040516020818303038152906040529050919050565b600d8054610e7190611edb565b80601f0160208091040260200160405190810160405280929190818152602001828054610e9d90611edb565b8015610eea5780601f10610ebf57610100808354040283529160200191610eea565b820191906000526020600020905b815481529060010190602001808311610ecd57829003601f168201915b505050505081565b6001600160a01b03918216600090815260056020908152604080832093909416825291909152205460ff1690565b610f2861123a565b6001600160a01b038116610f8d5760405162461bcd60e51b815260206004820152602660248201527f4f776e61626c653a206e6577206f776e657220697320746865207a65726f206160448201526564647265737360d01b60648201526084016105f2565b610f96816112b4565b50565b60006001600160e01b031982166380ac58cd60e01b1480610fca57506001600160e01b03198216635b5e139f60e01b145b806104bf57506301ffc9a760e01b6001600160e01b03198316146104bf565b610ff281611576565b610f965760405162461bcd60e51b81526004016105f2906120aa565b600081815260046020526040902080546001600160a01b0319166001600160a01b0384169081179091558190611043826109f6565b6001600160a01b03167f8c5be1e5ebec7d5bd14f71427d1e84f3dd0314c0f7b2291e5b200ac8c7c3b92560405160405180910390a45050565b600080611088836109f6565b9050806001600160a01b0316846001600160a01b031614806110af57506110af8185610ef2565b806110d35750836001600160a01b03166110c884610557565b6001600160a01b0316145b949350505050565b826001600160a01b03166110ee826109f6565b6001600160a01b0316146111145760405162461bcd60e51b81526004016105f2906121a2565b6001600160a01b0382166111765760405162461bcd60e51b8152602060048201526024808201527f4552433732313a207472616e7366657220746f20746865207a65726f206164646044820152637265737360e01b60648201526084016105f2565b6111838383836001611593565b826001600160a01b0316611196826109f6565b6001600160a01b0316146111bc5760405162461bcd60e51b81526004016105f2906121a2565b600081815260046020908152604080832080546001600160a01b03199081169091556001600160a01b03878116808652600385528386208054600019019055908716808652838620805460010190558686526002909452828520805490921684179091559051849360008051602061235b83398151915291a4505050565b33611243610c75565b6001600160a01b031614610ac25760405162461bcd60e51b815260206004820181905260248201527f4f776e61626c653a2063616c6c6572206973206e6f7420746865206f776e657260448201526064016105f2565b6000908152600260205260409020546001600160a01b031690565b600a80546001600160a01b038381166001600160a01b0319831681179093556040519116919082907f8be0079c531659141344cd1fd0a4f28419497f9722a3daafe3b4186f6b6457e090600090a35050565b600061131282846121e7565b9392505050565b6000611324600b5490565b905061133033826116c0565b6000828152600e6020526040812060048101805491926001926113549084906121e7565b90915550506000828152600f60205260409020839055610693600b80546001019055565b816001600160a01b0316836001600160a01b0316036113d55760405162461bcd60e51b815260206004820152601960248201527822a9219b99189d1030b8383937bb32903a379031b0b63632b960391b60448201526064016105f2565b6001600160a01b03838116600081815260056020908152604080832094871680845294825291829020805460ff191686151590811790915591519182527f17307eab39ab6107e8899845ad3d59bd9653f200f220920489ca2b5937696c31910160405180910390a3505050565b61144d8484846110db565b611459848484846116da565b6107955760405162461bcd60e51b81526004016105f2906121fa565b60608160000361149c5750506040805180820190915260018152600360fc1b602082015290565b8160005b81156114c657806114b0816120f2565b91506114bf9050600a83612262565b91506114a0565b6000816001600160401b038111156114e0576114e0611bd8565b6040519080825280601f01601f19166020018201604052801561150a576020820181803683370190505b5090505b84156110d3578161151e81612276565b925061152d9050600a8661228d565b6115389060306121e7565b60f81b81838151811061154d5761154d61206f565b60200101906001600160f81b031916908160001a90535061156f600a86612262565b945061150e565b60008061158283611299565b6001600160a01b0316141592915050565b60018111156116025760405162461bcd60e51b815260206004820152603560248201527f455243373231456e756d657261626c653a20636f6e7365637574697665207472604482015274185b9cd9995c9cc81b9bdd081cdd5c1c1bdc9d1959605a1b60648201526084016105f2565b816001600160a01b03851661165e5761165981600880546000838152600960205260408120829055600182018355919091527ff3f7a9fe364faab93b216da50a3214154f22a0a2b415b23a84c8169e8b636ee30155565b611681565b836001600160a01b0316856001600160a01b0316146116815761168185826117db565b6001600160a01b03841661169d5761169881611878565b610bcd565b846001600160a01b0316846001600160a01b031614610bcd57610bcd8482611927565b61090e82826040518060200160405280600081525061196b565b60006001600160a01b0384163b156117d057604051630a85bd0160e11b81526001600160a01b0385169063150b7a029061171e9033908990889088906004016122a1565b6020604051808303816000875af1925050508015611759575060408051601f3d908101601f19168201909252611756918101906122de565b60015b6117b6573d808015611787576040519150601f19603f3d011682016040523d82523d6000602084013e61178c565b606091505b5080516000036117ae5760405162461bcd60e51b81526004016105f2906121fa565b805181602001fd5b6001600160e01b031916630a85bd0160e11b1490506110d3565b506001949350505050565b600060016117e884610a2a565b6117f291906122fb565b600083815260076020526040902054909150808214611845576001600160a01b03841660009081526006602090815260408083208584528252808320548484528184208190558352600790915290208190555b5060009182526007602090815260408084208490556001600160a01b039094168352600681528383209183525290812055565b60085460009061188a906001906122fb565b600083815260096020526040812054600880549394509092849081106118b2576118b261206f565b9060005260206000200154905080600883815481106118d3576118d361206f565b600091825260208083209091019290925582815260099091526040808220849055858252812055600880548061190b5761190b61230e565b6001900381819060005260206000200160009055905550505050565b600061193283610a2a565b6001600160a01b039093166000908152600660209081526040808320868452825280832085905593825260079052919091209190915550565b611975838361199e565b61198260008484846116da565b6106935760405162461bcd60e51b81526004016105f2906121fa565b6001600160a01b0382166119f45760405162461bcd60e51b815260206004820181905260248201527f4552433732313a206d696e7420746f20746865207a65726f206164647265737360448201526064016105f2565b6119fd81611576565b15611a1a5760405162461bcd60e51b81526004016105f290612324565b611a28600083836001611593565b611a3181611576565b15611a4e5760405162461bcd60e51b81526004016105f290612324565b6001600160a01b038216600081815260036020908152604080832080546001019055848352600290915280822080546001600160a01b03191684179055518392919060008051602061235b833981519152908290a45050565b6001600160e01b031981168114610f9657600080fd5b600060208284031215611acf57600080fd5b813561131281611aa7565b60005b83811015611af5578181015183820152602001611add565b50506000910152565b60008151808452611b16816020860160208601611ada565b601f01601f19169290920160200192915050565b6020815260006113126020830184611afe565b600060208284031215611b4f57600080fd5b5035919050565b80356001600160a01b0381168114611b6d57600080fd5b919050565b60008060408385031215611b8557600080fd5b611b8e83611b56565b946020939093013593505050565b600080600060608486031215611bb157600080fd5b611bba84611b56565b9250611bc860208501611b56565b9150604084013590509250925092565b634e487b7160e01b600052604160045260246000fd5b60006001600160401b0380841115611c0857611c08611bd8565b604051601f8501601f19908116603f01168101908282118183101715611c3057611c30611bd8565b81604052809350858152868686011115611c4957600080fd5b858560208301376000602087830101525050509392505050565b600082601f830112611c7457600080fd5b61131283833560208501611bee565b60008060408385031215611c9657600080fd5b8235915060208301356001600160401b03811115611cb357600080fd5b611cbf85828601611c63565b9150509250929050565b600060208284031215611cdb57600080fd5b81356001600160401b03811115611cf157600080fd5b6110d384828501611c63565b600060208284031215611d0f57600080fd5b61131282611b56565b60008060408385031215611d2b57600080fd5b50508035926020909101359150565b6020808252825182820181905260009190848201906040850190845b81811015611d7257835183529284019291840191600101611d56565b50909695505050505050565b60008060408385031215611d9157600080fd5b611d9a83611b56565b915060208301358015158114611daf57600080fd5b809150509250929050565b60008060008060808587031215611dd057600080fd5b84356001600160401b0380821115611de757600080fd5b611df388838901611c63565b95506020870135915080821115611e0957600080fd5b50611e1687828801611c63565b949794965050505060408301359260600135919050565b60008060008060808587031215611e4357600080fd5b611e4c85611b56565b9350611e5a60208601611b56565b92506040850135915060608501356001600160401b03811115611e7c57600080fd5b8501601f81018713611e8d57600080fd5b611e9c87823560208401611bee565b91505092959194509250565b60008060408385031215611ebb57600080fd5b611ec483611b56565b9150611ed260208401611b56565b90509250929050565b600181811c90821680611eef57607f821691505b602082108103611f0f57634e487b7160e01b600052602260045260246000fd5b50919050565b6020808252602d908201527f4552433732313a2063616c6c6572206973206e6f7420746f6b656e206f776e6560408201526c1c881bdc88185c1c1c9bdd9959609a1b606082015260800190565b601f82111561069357600081815260208120601f850160051c81016020861015611f895750805b601f850160051c820191505b81811015611fa857828155600101611f95565b505050505050565b81516001600160401b03811115611fc957611fc9611bd8565b611fdd81611fd78454611edb565b84611f62565b602080601f8311600181146120125760008415611ffa5750858301515b600019600386901b1c1916600185901b178555611fa8565b600085815260208120601f198616915b8281101561204157888601518255948401946001909101908401612022565b508582101561205f5787850151600019600388901b60f8161c191681555b5050505050600190811b01905550565b634e487b7160e01b600052603260045260246000fd5b60008251612097818460208701611ada565b602f60f81b920191825250600101919050565b602080825260189082015277115490cdcc8c4e881a5b9d985b1a59081d1bdad95b88125160421b604082015260600190565b634e487b7160e01b600052601160045260246000fd5b600060018201612104576121046120dc565b5060010190565b600080845461211981611edb565b60018281168015612131576001811461214657612175565b60ff1984168752821515830287019450612175565b8860005260208060002060005b8581101561216c5781548a820152908401908201612153565b50505082870194505b505050508351612189818360208801611ada565b64173539b7b760d91b9101908152600501949350505050565b60208082526025908201527f4552433732313a207472616e736665722066726f6d20696e636f72726563742060408201526437bbb732b960d91b606082015260800190565b808201808211156104bf576104bf6120dc565b60208082526032908201527f4552433732313a207472616e7366657220746f206e6f6e20455243373231526560408201527131b2b4bb32b91034b6b83632b6b2b73a32b960711b606082015260800190565b634e487b7160e01b600052601260045260246000fd5b6000826122715761227161224c565b500490565b600081612285576122856120dc565b506000190190565b60008261229c5761229c61224c565b500690565b6001600160a01b03858116825284166020820152604081018390526080606082018190526000906122d490830184611afe565b9695505050505050565b6000602082840312156122f057600080fd5b815161131281611aa7565b818103818111156104bf576104bf6120dc565b634e487b7160e01b600052603160045260246000fd5b6020808252601c908201527b115490cdcc8c4e881d1bdad95b88185b1c9958591e481b5a5b9d195960221b60408201526060019056feddf252ad1be2c89b69c2b068fc378daa952ba7f163c4a11628f55a4df523b3efa26469706673582212204daae027df43fbc685ec4e57b3c6aa840aa8e445733d1a39aa478003da3a78f964736f6c63430008140033",
  "linkReferences": {},
  "deployedLinkReferences": {}
}