{
  "_format": "hh-sol-artifact-1",
  "contractName": "RavaNFT",
  "sourceName": "contracts/market/RavaNFT.sol",
  "abi": [
    {
      "inputs": [],
      "stateMutability": "nonpayable",
      "type": "constructor"
    },
    {
      "anonymous": false,
      "inputs": [
        {
          "indexed": true,
          "internalType": "address",
          "name": "account",
          "type": "address"
        },
        {
          "indexed": true,
          "internalType": "address",
          "name": "operator",
          "type": "address"
        },
        {
          "indexed": false,
          "internalType": "bool",
          "name": "approved",
          "type": "bool"
        }
      ],
      "name": "ApprovalForAll",
      "type": "event"
    },
    {
      "anonymous": false,
      "inputs": [
        {
          "indexed": true,
          "internalType": "uint256",
          "name": "id",
          "type": "uint256"
        },
        {
          "indexed": true,
          "internalType": "address",
          "name": "minter",
          "type": "address"
        },
        {
          "indexed": false,
          "internalType": "enum RavaNFT.TYPE",
          "name": "_type",
          "type": "uint8"
        }
      ],
      "name": "FreeItemMinted",
      "type": "event"
    },
    {
      "anonymous": false,
      "inputs": [
        {
          "indexed": true,
          "internalType": "address",
          "name": "previousOwner",
          "type": "address"
        },
        {
          "indexed": true,
          "internalType": "address",
          "name": "newOwner",
          "type": "address"
        }
      ],
      "name": "OwnershipTransferred",
      "type": "event"
    },
    {
      "anonymous": false,
      "inputs": [
        {
          "indexed": true,
          "internalType": "address",
          "name": "operator",
          "type": "address"
        },
        {
          "indexed": true,
          "internalType": "address",
          "name": "from",
          "type": "address"
        },
        {
          "indexed": true,
          "internalType": "address",
          "name": "to",
          "type": "address"
        },
        {
          "indexed": false,
          "internalType": "uint256[]",
          "name": "ids",
          "type": "uint256[]"
        },
        {
          "indexed": false,
          "internalType": "uint256[]",
          "name": "values",
          "type": "uint256[]"
        }
      ],
      "name": "TransferBatch",
      "type": "event"
    },
    {
      "anonymous": false,
      "inputs": [
        {
          "indexed": true,
          "internalType": "address",
          "name": "operator",
          "type": "address"
        },
        {
          "indexed": true,
          "internalType": "address",
          "name": "from",
          "type": "address"
        },
        {
          "indexed": true,
          "internalType": "address",
          "name": "to",
          "type": "address"
        },
        {
          "indexed": false,
          "internalType": "uint256",
          "name": "id",
          "type": "uint256"
        },
        {
          "indexed": false,
          "internalType": "uint256",
          "name": "value",
          "type": "uint256"
        }
      ],
      "name": "TransferSingle",
      "type": "event"
    },
    {
      "anonymous": false,
      "inputs": [
        {
          "indexed": false,
          "internalType": "string",
          "name": "value",
          "type": "string"
        },
        {
          "indexed": true,
          "internalType": "uint256",
          "name": "id",
          "type": "uint256"
        }
      ],
      "name": "URI",
      "type": "event"
    },
    {
      "inputs": [],
      "name": "auctionAddress",
      "outputs": [
        {
          "internalType": "address",
          "name": "",
          "type": "address"
        }
      ],
      "stateMutability": "view",
      "type": "function"
    },
    {
      "inputs": [
        {
          "internalType": "address",
          "name": "account",
          "type": "address"
        },
        {
          "internalType": "uint256",
          "name": "id",
          "type": "uint256"
        }
      ],
      "name": "balanceOf",
      "outputs": [
        {
          "internalType": "uint256",
          "name": "",
          "type": "uint256"
        }
      ],
      "stateMutability": "view",
      "type": "function"
    },
    {
      "inputs": [
        {
          "internalType": "address[]",
          "name": "accounts",
          "type": "address[]"
        },
        {
          "internalType": "uint256[]",
          "name": "ids",
          "type": "uint256[]"
        }
      ],
      "name": "balanceOfBatch",
      "outputs": [
        {
          "internalType": "uint256[]",
          "name": "",
          "type": "uint256[]"
        }
      ],
      "stateMutability": "view",
      "type": "function"
    },
    {
      "inputs": [],
      "name": "buyAndSellAddress",
      "outputs": [
        {
          "internalType": "address",
          "name": "",
          "type": "address"
        }
      ],
      "stateMutability": "view",
      "type": "function"
    },
    {
      "inputs": [
        {
          "internalType": "address",
          "name": "_buyAndSellAddress",
          "type": "address"
        },
        {
          "internalType": "address",
          "name": "_auctionAddress",
          "type": "address"
        }
      ],
      "name": "changeBuyAndSellAddress",
      "outputs": [],
      "stateMutability": "nonpayable",
      "type": "function"
    },
    {
      "inputs": [
        {
          "internalType": "address",
          "name": "_newOwner",
          "type": "address"
        },
        {
          "internalType": "uint256",
          "name": "_itemId",
          "type": "uint256"
        }
      ],
      "name": "changeOwner",
      "outputs": [],
      "stateMutability": "nonpayable",
      "type": "function"
    },
    {
      "inputs": [
        {
          "internalType": "uint256",
          "name": "_itemId",
          "type": "uint256"
        }
      ],
      "name": "changeState",
      "outputs": [],
      "stateMutability": "nonpayable",
      "type": "function"
    },
    {
      "inputs": [
        {
          "internalType": "enum RavaNFT.TYPE",
          "name": "itemType",
          "type": "uint8"
        }
      ],
      "name": "getFreeItem",
      "outputs": [],
      "stateMutability": "nonpayable",
      "type": "function"
    },
    {
      "inputs": [
        {
          "internalType": "uint256",
          "name": "_itemId",
          "type": "uint256"
        }
      ],
      "name": "getItemDetails",
      "outputs": [
        {
          "components": [
            {
              "internalType": "uint256",
              "name": "id",
              "type": "uint256"
            },
            {
              "internalType": "address",
              "name": "owner",
              "type": "address"
            },
            {
              "internalType": "enum RavaNFT.TYPE",
              "name": "_type",
              "type": "uint8"
            },
            {
              "internalType": "bool",
              "name": "onSell",
              "type": "bool"
            }
          ],
          "internalType": "struct RavaNFT.ITEM",
          "name": "",
          "type": "tuple"
        }
      ],
      "stateMutability": "view",
      "type": "function"
    },
    {
      "inputs": [
        {
          "internalType": "uint256",
          "name": "_choice",
          "type": "uint256"
        }
      ],
      "name": "getType",
      "outputs": [
        {
          "internalType": "enum RavaNFT.TYPE",
          "name": "",
          "type": "uint8"
        }
      ],
      "stateMutability": "pure",
      "type": "function"
    },
    {
      "inputs": [
        {
          "internalType": "address",
          "name": "_user",
          "type": "address"
        }
      ],
      "name": "getUserInventory",
      "outputs": [
        {
          "components": [
            {
              "internalType": "uint256",
              "name": "id",
              "type": "uint256"
            },
            {
              "internalType": "address",
              "name": "owner",
              "type": "address"
            },
            {
              "internalType": "enum RavaNFT.TYPE",
              "name": "_type",
              "type": "uint8"
            },
            {
              "internalType": "bool",
              "name": "onSell",
              "type": "bool"
            }
          ],
          "internalType": "struct RavaNFT.ITEM[]",
          "name": "",
          "type": "tuple[]"
        }
      ],
      "stateMutability": "view",
      "type": "function"
    },
    {
      "inputs": [
        {
          "internalType": "address",
          "name": "account",
          "type": "address"
        },
        {
          "internalType": "address",
          "name": "operator",
          "type": "address"
        }
      ],
      "name": "isApprovedForAll",
      "outputs": [
        {
          "internalType": "bool",
          "name": "",
          "type": "bool"
        }
      ],
      "stateMutability": "view",
      "type": "function"
    },
    {
      "inputs": [],
      "name": "owner",
      "outputs": [
        {
          "internalType": "address",
          "name": "",
          "type": "address"
        }
      ],
      "stateMutability": "view",
      "type": "function"
    },
    {
      "inputs": [],
      "name": "renounceOwnership",
      "outputs": [],
      "stateMutability": "nonpayable",
      "type": "function"
    },
    {
      "inputs": [
        {
          "internalType": "address",
          "name": "from",
          "type": "address"
        },
        {
          "internalType": "address",
          "name": "to",
          "type": "address"
        },
        {
          "internalType": "uint256[]",
          "name": "ids",
          "type": "uint256[]"
        },
        {
          "internalType": "uint256[]",
          "name": "amounts",
          "type": "uint256[]"
        },
        {
          "internalType": "bytes",
          "name": "data",
          "type": "bytes"
        }
      ],
      "name": "safeBatchTransferFrom",
      "outputs": [],
      "stateMutability": "nonpayable",
      "type": "function"
    },
    {
      "inputs": [
        {
          "internalType": "address",
          "name": "from",
          "type": "address"
        },
        {
          "internalType": "address",
          "name": "to",
          "type": "address"
        },
        {
          "internalType": "uint256",
          "name": "id",
          "type": "uint256"
        },
        {
          "internalType": "uint256",
          "name": "amount",
          "type": "uint256"
        },
        {
          "internalType": "bytes",
          "name": "data",
          "type": "bytes"
        }
      ],
      "name": "safeTransferFrom",
      "outputs": [],
      "stateMutability": "nonpayable",
      "type": "function"
    },
    {
      "inputs": [
        {
          "internalType": "address",
          "name": "operator",
          "type": "address"
        },
        {
          "internalType": "bool",
          "name": "approved",
          "type": "bool"
        }
      ],
      "name": "setApprovalForAll",
      "outputs": [],
      "stateMutability": "nonpayable",
      "type": "function"
    },
    {
      "inputs": [
        {
          "internalType": "bytes4",
          "name": "interfaceId",
          "type": "bytes4"
        }
      ],
      "name": "supportsInterface",
      "outputs": [
        {
          "internalType": "bool",
          "name": "",
          "type": "bool"
        }
      ],
      "stateMutability": "view",
      "type": "function"
    },
    {
      "inputs": [],
      "name": "totalItemsMinted",
      "outputs": [
        {
          "internalType": "uint256",
          "name": "",
          "type": "uint256"
        }
      ],
      "stateMutability": "view",
      "type": "function"
    },
    {
      "inputs": [
        {
          "internalType": "address",
          "name": "newOwner",
          "type": "address"
        }
      ],
      "name": "transferOwnership",
      "outputs": [],
      "stateMutability": "nonpayable",
      "type": "function"
    },
    {
      "inputs": [
        {
          "internalType": "uint256",
          "name": "",
          "type": "uint256"
        }
      ],
      "name": "uri",
      "outputs": [
        {
          "internalType": "string",
          "name": "",
          "type": "string"
        }
      ],
      "stateMutability": "view",
      "type": "function"
    }
  ],
  "bytecode": "0x60806040523480156200001157600080fd5b506040518060800160405280605e815260200162001f8d605e9139620000378162000049565b5062000043336200005b565b6200021e565b600262000057828262000152565b5050565b600380546001600160a01b038381166001600160a01b0319831681179093556040519116919082907f8be0079c531659141344cd1fd0a4f28419497f9722a3daafe3b4186f6b6457e090600090a35050565b634e487b7160e01b600052604160045260246000fd5b600181811c90821680620000d857607f821691505b602082108103620000f957634e487b7160e01b600052602260045260246000fd5b50919050565b601f8211156200014d57600081815260208120601f850160051c81016020861015620001285750805b601f850160051c820191505b81811015620001495782815560010162000134565b5050505b505050565b81516001600160401b038111156200016e576200016e620000ad565b62000186816200017f8454620000c3565b84620000ff565b602080601f831160018114620001be5760008415620001a55750858301515b600019600386901b1c1916600185901b17855562000149565b600085815260208120601f198616915b82811015620001ef57888601518255948401946001909101908401620001ce565b50858210156200020e5787850151600019600388901b60f8161c191681555b5050505050600190811b01905550565b611d5f806200022e6000396000f3fe608060405234801561001057600080fd5b50600436106101065760003560e01c8062fdd58e1461010b57806301ffc9a7146101315780630b3e4940146101545780630e89341c1461015c5780632eb2c2d61461017c5780634036ab78146101915780634e1273f4146101b15780635476ea9e146101d157806356df3db1146101fc5780635714cc8e1461020f578063715018a61461022f57806373004ca0146102375780637a6dc80d146102575780638da5cb5b1461026a5780639854557c146102725780639b0e17f914610285578063a22cb46514610298578063b00741cb146102ab578063e985e9c5146102be578063f242432a146102fa578063f2fde38b1461030d575b600080fd5b61011e6101193660046113d1565b610320565b6040519081526020015b60405180910390f35b61014461013f366004611411565b6103b9565b6040519015158152602001610128565b60045461011e565b61016f61016a366004611435565b610409565b6040516101289190611494565b61018f61018a3660046115f0565b61049d565b005b6101a461019f366004611435565b6104e9565b60405161012891906116d1565b6101c46101bf3660046116df565b610528565b60405161012891906117e4565b6006546101e4906001600160a01b031681565b6040516001600160a01b039091168152602001610128565b61018f61020a3660046113d1565b610651565b61022261021d3660046117f7565b6106c1565b604051610128919061184a565b61018f61086a565b61024a610245366004611435565b61087e565b6040516101289190611898565b61018f6102653660046118a6565b61090e565b6101e4610944565b61018f6102803660046118d9565b610953565b6005546101e4906001600160a01b031681565b61018f6102a63660046118fa565b610a50565b61018f6102b9366004611435565b610a5f565b6101446102cc3660046118a6565b6001600160a01b03918216600090815260016020908152604080832093909416825291909152205460ff1690565b61018f610308366004611936565b610ace565b61018f61031b3660046117f7565b610b13565b60006001600160a01b0383166103905760405162461bcd60e51b815260206004820152602a60248201527f455243313135353a2061646472657373207a65726f206973206e6f742061207660448201526930b634b21037bbb732b960b11b60648201526084015b60405180910390fd5b506000818152602081815260408083206001600160a01b03861684529091529020545b92915050565b60006001600160e01b03198216636cdb3d1360e11b14806103ea57506001600160e01b031982166303a24d0760e21b145b806103b357506301ffc9a760e01b6001600160e01b03198316146103b3565b6060600280546104189061199a565b80601f01602080910402602001604051908101604052809291908181526020018280546104449061199a565b80156104915780601f1061046657610100808354040283529160200191610491565b820191906000526020600020905b81548152906001019060200180831161047457829003601f168201915b50505050509050919050565b6001600160a01b0385163314806104b957506104b985336102cc565b6104d55760405162461bcd60e51b8152600401610387906119d4565b6104e28585858585610b8c565b5050505050565b6000816001036104fb57506001919050565b8160020361050b57506002919050565b8160030361051b57506003919050565b506000919050565b919050565b6060815183511461058d5760405162461bcd60e51b815260206004820152602960248201527f455243313135353a206163636f756e747320616e6420696473206c656e677468604482015268040dad2e6dac2e8c6d60bb1b6064820152608401610387565b600083516001600160401b038111156105a8576105a86114a7565b6040519080825280602002602001820160405280156105d1578160200160208202803683370190505b50905060005b84518110156106495761061c8582815181106105f5576105f5611a22565b602002602001015185838151811061060f5761060f611a22565b6020026020010151610320565b82828151811061062e5761062e611a22565b602090810291909101015261064281611a4e565b90506105d7565b509392505050565b6005546001600160a01b031633148061067457506006546001600160a01b031633145b6106905760405162461bcd60e51b815260040161038790611a67565b600090815260076020526040902060010180546001600160a01b0319166001600160a01b0392909216919091179055565b606060008060015b6004548111610716576000818152600760205260409020600101546001600160a01b0380871691160361070457610701600184611a8c565b92505b8061070e81611a4e565b9150506106c9565b506000826001600160401b03811115610731576107316114a7565b60405190808252806020026020018201604052801561076a57816020015b610757611392565b81526020019060019003908161074f5790505b50905060015b6004548111610861576000818152600760205260409020600101546001600160a01b0380881691160361084f5760008181526007602090815260409182902082516080810184528154815260018201546001600160a01b03811693820193909352909290918391830190600160a01b900460ff1660038111156107f5576107f5611699565b600381111561080657610806611699565b815260019190910154600160a81b900460ff161515602090910152835184908690811061083557610835611a22565b602090810291909101015261084b600185611a8c565b9350505b8061085981611a4e565b915050610770565b50949350505050565b610872610d69565b61087c6000610dc8565b565b610886611392565b60008281526007602090815260409182902082516080810184528154815260018201546001600160a01b0381169382019390935292909190830190600160a01b900460ff1660038111156108dc576108dc611699565b60038111156108ed576108ed611699565b815260019190910154600160a81b900460ff16151560209091015292915050565b610916610d69565b600580546001600160a01b039384166001600160a01b03199182161790915560068054929093169116179055565b6003546001600160a01b031690565b61095b610d69565b6004805490600061096b83611a4e565b90915550506004546000818152600760205260409020908155600101805482919060ff60a01b1916600160a01b8360038111156109aa576109aa611699565b0217905550600480546000908152600760209081526040808320600190810180546001600160a01b03191633908117909155855485528285208201805460ff60a81b1916905594548251938401909252928252610a0993929091610e1a565b336001600160a01b03166004547fe08057845702d3ed8894f069b38f39233b32499d21bfd77e3687a23c22f583bc83604051610a4591906116d1565b60405180910390a350565b610a5b338383610f1c565b5050565b6005546001600160a01b0316331480610a8257506006546001600160a01b031633145b610a9e5760405162461bcd60e51b815260040161038790611a67565b6000908152600760205260409020600101805460ff60a81b198116600160a81b9182900460ff1615909102179055565b6001600160a01b038516331480610aea5750610aea85336102cc565b610b065760405162461bcd60e51b8152600401610387906119d4565b6104e28585858585610ffc565b610b1b610d69565b6001600160a01b038116610b805760405162461bcd60e51b815260206004820152602660248201527f4f776e61626c653a206e6577206f776e657220697320746865207a65726f206160448201526564647265737360d01b6064820152608401610387565b610b8981610dc8565b50565b8151835114610bee5760405162461bcd60e51b815260206004820152602860248201527f455243313135353a2069647320616e6420616d6f756e7473206c656e677468206044820152670dad2e6dac2e8c6d60c31b6064820152608401610387565b6001600160a01b038416610c145760405162461bcd60e51b815260040161038790611a9f565b3360005b8451811015610cfb576000858281518110610c3557610c35611a22565b602002602001015190506000858381518110610c5357610c53611a22565b602090810291909101810151600084815280835260408082206001600160a01b038e168352909352919091205490915081811015610ca35760405162461bcd60e51b815260040161038790611ae4565b6000838152602081815260408083206001600160a01b038e8116855292528083208585039055908b16825281208054849290610ce0908490611a8c565b9250508190555050505080610cf490611a4e565b9050610c18565b50846001600160a01b0316866001600160a01b0316826001600160a01b03167f4a39dc06d4c0dbc64b70af90fd698a233a518aa5d07e595d983b8c0526c8f7fb8787604051610d4b929190611b2e565b60405180910390a4610d61818787878787611114565b505050505050565b33610d72610944565b6001600160a01b03161461087c5760405162461bcd60e51b815260206004820181905260248201527f4f776e61626c653a2063616c6c6572206973206e6f7420746865206f776e65726044820152606401610387565b600380546001600160a01b038381166001600160a01b0319831681179093556040519116919082907f8be0079c531659141344cd1fd0a4f28419497f9722a3daafe3b4186f6b6457e090600090a35050565b6001600160a01b038416610e7a5760405162461bcd60e51b815260206004820152602160248201527f455243313135353a206d696e7420746f20746865207a65726f206164647265736044820152607360f81b6064820152608401610387565b336000610e8685611276565b90506000610e9385611276565b90506000868152602081815260408083206001600160a01b038b16845290915281208054879290610ec5908490611a8c565b909155505060408051878152602081018790526001600160a01b03808a169260009291871691600080516020611d0a833981519152910160405180910390a4610f13836000898989896112c1565b50505050505050565b816001600160a01b0316836001600160a01b031603610f8f5760405162461bcd60e51b815260206004820152602960248201527f455243313135353a2073657474696e6720617070726f76616c20737461747573604482015268103337b91039b2b63360b91b6064820152608401610387565b6001600160a01b03838116600081815260016020908152604080832094871680845294825291829020805460ff191686151590811790915591519182527f17307eab39ab6107e8899845ad3d59bd9653f200f220920489ca2b5937696c31910160405180910390a3505050565b6001600160a01b0384166110225760405162461bcd60e51b815260040161038790611a9f565b33600061102e85611276565b9050600061103b85611276565b90506000868152602081815260408083206001600160a01b038c1684529091529020548581101561107e5760405162461bcd60e51b815260040161038790611ae4565b6000878152602081815260408083206001600160a01b038d8116855292528083208985039055908a168252812080548892906110bb908490611a8c565b909155505060408051888152602081018890526001600160a01b03808b16928c82169291881691600080516020611d0a833981519152910160405180910390a4611109848a8a8a8a8a6112c1565b505050505050505050565b611126846001600160a01b0316611383565b15610d615760405163bc197c8160e01b81526001600160a01b0385169063bc197c819061115f9089908990889088908890600401611b5c565b6020604051808303816000875af192505050801561119a575060408051601f3d908101601f1916820190925261119791810190611bba565b60015b611246576111a6611bd7565b806308c379a0036111df57506111ba611bf3565b806111c557506111e1565b8060405162461bcd60e51b81526004016103879190611494565b505b60405162461bcd60e51b815260206004820152603460248201527f455243313135353a207472616e7366657220746f206e6f6e2d455243313135356044820152732932b1b2b4bb32b91034b6b83632b6b2b73a32b960611b6064820152608401610387565b6001600160e01b0319811663bc197c8160e01b14610f135760405162461bcd60e51b815260040161038790611c7c565b604080516001808252818301909252606091600091906020808301908036833701905050905082816000815181106112b0576112b0611a22565b602090810291909101015292915050565b6112d3846001600160a01b0316611383565b15610d615760405163f23a6e6160e01b81526001600160a01b0385169063f23a6e619061130c9089908990889088908890600401611cc4565b6020604051808303816000875af1925050508015611347575060408051601f3d908101601f1916820190925261134491810190611bba565b60015b611353576111a6611bd7565b6001600160e01b0319811663f23a6e6160e01b14610f135760405162461bcd60e51b815260040161038790611c7c565b6001600160a01b03163b151590565b6040805160808101825260008082526020820181905290918201908152600060209091015290565b80356001600160a01b038116811461052357600080fd5b600080604083850312156113e457600080fd5b6113ed836113ba565b946020939093013593505050565b6001600160e01b031981168114610b8957600080fd5b60006020828403121561142357600080fd5b813561142e816113fb565b9392505050565b60006020828403121561144757600080fd5b5035919050565b6000815180845260005b8181101561147457602081850181015186830182015201611458565b506000602082860101526020601f19601f83011685010191505092915050565b60208152600061142e602083018461144e565b634e487b7160e01b600052604160045260246000fd5b601f8201601f191681016001600160401b03811182821017156114e2576114e26114a7565b6040525050565b60006001600160401b03821115611502576115026114a7565b5060051b60200190565b600082601f83011261151d57600080fd5b8135602061152a826114e9565b60405161153782826114bd565b83815260059390931b850182019282810191508684111561155757600080fd5b8286015b84811015611572578035835291830191830161155b565b509695505050505050565b600082601f83011261158e57600080fd5b81356001600160401b038111156115a7576115a76114a7565b6040516115be601f8301601f1916602001826114bd565b8181528460208386010111156115d357600080fd5b816020850160208301376000918101602001919091529392505050565b600080600080600060a0868803121561160857600080fd5b611611866113ba565b945061161f602087016113ba565b935060408601356001600160401b038082111561163b57600080fd5b61164789838a0161150c565b9450606088013591508082111561165d57600080fd5b61166989838a0161150c565b9350608088013591508082111561167f57600080fd5b5061168c8882890161157d565b9150509295509295909350565b634e487b7160e01b600052602160045260246000fd5b600481106116cd57634e487b7160e01b600052602160045260246000fd5b9052565b602081016103b382846116af565b600080604083850312156116f257600080fd5b82356001600160401b038082111561170957600080fd5b818501915085601f83011261171d57600080fd5b8135602061172a826114e9565b60405161173782826114bd565b83815260059390931b850182019282810191508984111561175757600080fd5b948201945b8386101561177c5761176d866113ba565b8252948201949082019061175c565b9650508601359250508082111561179257600080fd5b5061179f8582860161150c565b9150509250929050565b600081518084526020808501945080840160005b838110156117d9578151875295820195908201906001016117bd565b509495945050505050565b60208152600061142e60208301846117a9565b60006020828403121561180957600080fd5b61142e826113ba565b805182526020808201516001600160a01b0316908301526040808201519061183c908401826116af565b506060908101511515910152565b6020808252825182820181905260009190848201906040850190845b8181101561188c57611879838551611812565b9284019260809290920191600101611866565b50909695505050505050565b608081016103b38284611812565b600080604083850312156118b957600080fd5b6118c2836113ba565b91506118d0602084016113ba565b90509250929050565b6000602082840312156118eb57600080fd5b81356004811061142e57600080fd5b6000806040838503121561190d57600080fd5b611916836113ba565b91506020830135801515811461192b57600080fd5b809150509250929050565b600080600080600060a0868803121561194e57600080fd5b611957866113ba565b9450611965602087016113ba565b9350604086013592506060860135915060808601356001600160401b0381111561198e57600080fd5b61168c8882890161157d565b600181811c908216806119ae57607f821691505b6020821081036119ce57634e487b7160e01b600052602260045260246000fd5b50919050565b6020808252602e908201527f455243313135353a2063616c6c6572206973206e6f7420746f6b656e206f776e60408201526d195c881bdc88185c1c1c9bdd995960921b606082015260800190565b634e487b7160e01b600052603260045260246000fd5b634e487b7160e01b600052601160045260246000fd5b600060018201611a6057611a60611a38565b5060010190565b6020808252600b908201526a1b9bdd08185b1b1bddd95960aa1b604082015260600190565b808201808211156103b3576103b3611a38565b60208082526025908201527f455243313135353a207472616e7366657220746f20746865207a65726f206164604082015264647265737360d81b606082015260800190565b6020808252602a908201527f455243313135353a20696e73756666696369656e742062616c616e636520666f60408201526939103a3930b739b332b960b11b606082015260800190565b604081526000611b4160408301856117a9565b8281036020840152611b5381856117a9565b95945050505050565b6001600160a01b0386811682528516602082015260a060408201819052600090611b88908301866117a9565b8281036060840152611b9a81866117a9565b90508281036080840152611bae818561144e565b98975050505050505050565b600060208284031215611bcc57600080fd5b815161142e816113fb565b600060033d1115611bf05760046000803e5060005160e01c5b90565b600060443d1015611c015790565b6040516003193d81016004833e81513d6001600160401b038083116024840183101715611c3057505050505090565b8285019150815181811115611c485750505050505090565b843d8701016020828501011115611c625750505050505090565b611c71602082860101876114bd565b509095945050505050565b60208082526028908201527f455243313135353a204552433131353552656365697665722072656a656374656040820152676420746f6b656e7360c01b606082015260800190565b6001600160a01b03868116825285166020820152604081018490526060810183905260a060808201819052600090611cfe9083018461144e565b97965050505050505056fec3d58168c5ae7397731d063d5bbf3d657854427343f4c083240f7aacaa2d0f62a2646970667358221220e08db592873a40178d7576830df1d1d9f778bcdec1bce5a146b391260cf52dca64736f6c6343000814003368747470733a2f2f676174657761792e70696e6174612e636c6f75642f697066732f516d525172313569593938646a376b62666e334739756f5876655362766f39327264757470736a316b74784259332f7b6974656d49647d2e6a736f6e",
  "linkReferences": {},
  "deployedLinkReferences": {}
}