{
  "_format": "hh-sol-artifact-1",
  "contractName": "RavaNFT",
  "sourceName": "contracts/market/RavaNFT.sol",
  "abi": [
    {
      "inputs": [
        {
          "internalType": "string",
          "name": "_name",
          "type": "string"
        },
        {
          "internalType": "string",
          "name": "_symbol",
          "type": "string"
        },
        {
          "internalType": "string",
          "name": "_baseURI",
          "type": "string"
        }
      ],
      "stateMutability": "nonpayable",
      "type": "constructor"
    },
    {
      "anonymous": false,
      "inputs": [
        {
          "indexed": true,
          "internalType": "address",
          "name": "account",
          "type": "address"
        },
        {
          "indexed": true,
          "internalType": "address",
          "name": "operator",
          "type": "address"
        },
        {
          "indexed": false,
          "internalType": "bool",
          "name": "approved",
          "type": "bool"
        }
      ],
      "name": "ApprovalForAll",
      "type": "event"
    },
    {
      "anonymous": false,
      "inputs": [
        {
          "indexed": true,
          "internalType": "uint256",
          "name": "id",
          "type": "uint256"
        },
        {
          "indexed": true,
          "internalType": "address",
          "name": "minter",
          "type": "address"
        },
        {
          "indexed": false,
          "internalType": "enum IRavaNFT.TYPE",
          "name": "_type",
          "type": "uint8"
        }
      ],
      "name": "FreeItemMinted",
      "type": "event"
    },
    {
      "anonymous": false,
      "inputs": [
        {
          "indexed": true,
          "internalType": "address",
          "name": "previousOwner",
          "type": "address"
        },
        {
          "indexed": true,
          "internalType": "address",
          "name": "newOwner",
          "type": "address"
        }
      ],
      "name": "OwnershipTransferred",
      "type": "event"
    },
    {
      "anonymous": false,
      "inputs": [
        {
          "indexed": true,
          "internalType": "address",
          "name": "operator",
          "type": "address"
        },
        {
          "indexed": true,
          "internalType": "address",
          "name": "from",
          "type": "address"
        },
        {
          "indexed": true,
          "internalType": "address",
          "name": "to",
          "type": "address"
        },
        {
          "indexed": false,
          "internalType": "uint256[]",
          "name": "ids",
          "type": "uint256[]"
        },
        {
          "indexed": false,
          "internalType": "uint256[]",
          "name": "values",
          "type": "uint256[]"
        }
      ],
      "name": "TransferBatch",
      "type": "event"
    },
    {
      "anonymous": false,
      "inputs": [
        {
          "indexed": true,
          "internalType": "address",
          "name": "operator",
          "type": "address"
        },
        {
          "indexed": true,
          "internalType": "address",
          "name": "from",
          "type": "address"
        },
        {
          "indexed": true,
          "internalType": "address",
          "name": "to",
          "type": "address"
        },
        {
          "indexed": false,
          "internalType": "uint256",
          "name": "id",
          "type": "uint256"
        },
        {
          "indexed": false,
          "internalType": "uint256",
          "name": "value",
          "type": "uint256"
        }
      ],
      "name": "TransferSingle",
      "type": "event"
    },
    {
      "anonymous": false,
      "inputs": [
        {
          "indexed": false,
          "internalType": "string",
          "name": "value",
          "type": "string"
        },
        {
          "indexed": true,
          "internalType": "uint256",
          "name": "id",
          "type": "uint256"
        }
      ],
      "name": "URI",
      "type": "event"
    },
    {
      "inputs": [],
      "name": "auctionAddress",
      "outputs": [
        {
          "internalType": "address",
          "name": "",
          "type": "address"
        }
      ],
      "stateMutability": "view",
      "type": "function"
    },
    {
      "inputs": [
        {
          "internalType": "address",
          "name": "account",
          "type": "address"
        },
        {
          "internalType": "uint256",
          "name": "id",
          "type": "uint256"
        }
      ],
      "name": "balanceOf",
      "outputs": [
        {
          "internalType": "uint256",
          "name": "",
          "type": "uint256"
        }
      ],
      "stateMutability": "view",
      "type": "function"
    },
    {
      "inputs": [
        {
          "internalType": "address[]",
          "name": "accounts",
          "type": "address[]"
        },
        {
          "internalType": "uint256[]",
          "name": "ids",
          "type": "uint256[]"
        }
      ],
      "name": "balanceOfBatch",
      "outputs": [
        {
          "internalType": "uint256[]",
          "name": "",
          "type": "uint256[]"
        }
      ],
      "stateMutability": "view",
      "type": "function"
    },
    {
      "inputs": [],
      "name": "buyAndSellAddress",
      "outputs": [
        {
          "internalType": "address",
          "name": "",
          "type": "address"
        }
      ],
      "stateMutability": "view",
      "type": "function"
    },
    {
      "inputs": [
        {
          "internalType": "address",
          "name": "_buyAndSellAddress",
          "type": "address"
        },
        {
          "internalType": "address",
          "name": "_auctionAddress",
          "type": "address"
        }
      ],
      "name": "changeBuyAndSellAddress",
      "outputs": [],
      "stateMutability": "nonpayable",
      "type": "function"
    },
    {
      "inputs": [
        {
          "internalType": "address",
          "name": "_newOwner",
          "type": "address"
        },
        {
          "internalType": "uint256",
          "name": "_itemId",
          "type": "uint256"
        }
      ],
      "name": "changeOwner",
      "outputs": [],
      "stateMutability": "nonpayable",
      "type": "function"
    },
    {
      "inputs": [
        {
          "internalType": "uint256",
          "name": "_itemId",
          "type": "uint256"
        }
      ],
      "name": "changeState",
      "outputs": [],
      "stateMutability": "nonpayable",
      "type": "function"
    },
    {
      "inputs": [
        {
          "internalType": "enum IRavaNFT.TYPE",
          "name": "itemType",
          "type": "uint8"
        }
      ],
      "name": "createNFTItem",
      "outputs": [],
      "stateMutability": "nonpayable",
      "type": "function"
    },
    {
      "inputs": [
        {
          "internalType": "uint256",
          "name": "_itemId",
          "type": "uint256"
        }
      ],
      "name": "getItemDetails",
      "outputs": [
        {
          "components": [
            {
              "internalType": "uint256",
              "name": "id",
              "type": "uint256"
            },
            {
              "internalType": "address",
              "name": "owner",
              "type": "address"
            },
            {
              "internalType": "enum IRavaNFT.TYPE",
              "name": "_type",
              "type": "uint8"
            },
            {
              "internalType": "bool",
              "name": "onSell",
              "type": "bool"
            }
          ],
          "internalType": "struct IRavaNFT.ITEM",
          "name": "",
          "type": "tuple"
        }
      ],
      "stateMutability": "view",
      "type": "function"
    },
    {
      "inputs": [
        {
          "internalType": "uint256",
          "name": "_choice",
          "type": "uint256"
        }
      ],
      "name": "getType",
      "outputs": [
        {
          "internalType": "enum IRavaNFT.TYPE",
          "name": "",
          "type": "uint8"
        }
      ],
      "stateMutability": "pure",
      "type": "function"
    },
    {
      "inputs": [
        {
          "internalType": "address",
          "name": "_user",
          "type": "address"
        }
      ],
      "name": "getUserInventory",
      "outputs": [
        {
          "components": [
            {
              "internalType": "uint256",
              "name": "id",
              "type": "uint256"
            },
            {
              "internalType": "address",
              "name": "owner",
              "type": "address"
            },
            {
              "internalType": "enum IRavaNFT.TYPE",
              "name": "_type",
              "type": "uint8"
            },
            {
              "internalType": "bool",
              "name": "onSell",
              "type": "bool"
            }
          ],
          "internalType": "struct IRavaNFT.ITEM[]",
          "name": "",
          "type": "tuple[]"
        }
      ],
      "stateMutability": "view",
      "type": "function"
    },
    {
      "inputs": [
        {
          "internalType": "address",
          "name": "account",
          "type": "address"
        },
        {
          "internalType": "address",
          "name": "operator",
          "type": "address"
        }
      ],
      "name": "isApprovedForAll",
      "outputs": [
        {
          "internalType": "bool",
          "name": "",
          "type": "bool"
        }
      ],
      "stateMutability": "view",
      "type": "function"
    },
    {
      "inputs": [],
      "name": "name",
      "outputs": [
        {
          "internalType": "string",
          "name": "",
          "type": "string"
        }
      ],
      "stateMutability": "view",
      "type": "function"
    },
    {
      "inputs": [],
      "name": "owner",
      "outputs": [
        {
          "internalType": "address",
          "name": "",
          "type": "address"
        }
      ],
      "stateMutability": "view",
      "type": "function"
    },
    {
      "inputs": [],
      "name": "renounceOwnership",
      "outputs": [],
      "stateMutability": "nonpayable",
      "type": "function"
    },
    {
      "inputs": [
        {
          "internalType": "address",
          "name": "from",
          "type": "address"
        },
        {
          "internalType": "address",
          "name": "to",
          "type": "address"
        },
        {
          "internalType": "uint256[]",
          "name": "ids",
          "type": "uint256[]"
        },
        {
          "internalType": "uint256[]",
          "name": "amounts",
          "type": "uint256[]"
        },
        {
          "internalType": "bytes",
          "name": "data",
          "type": "bytes"
        }
      ],
      "name": "safeBatchTransferFrom",
      "outputs": [],
      "stateMutability": "nonpayable",
      "type": "function"
    },
    {
      "inputs": [
        {
          "internalType": "address",
          "name": "from",
          "type": "address"
        },
        {
          "internalType": "address",
          "name": "to",
          "type": "address"
        },
        {
          "internalType": "uint256",
          "name": "id",
          "type": "uint256"
        },
        {
          "internalType": "uint256",
          "name": "amount",
          "type": "uint256"
        },
        {
          "internalType": "bytes",
          "name": "data",
          "type": "bytes"
        }
      ],
      "name": "safeTransferFrom",
      "outputs": [],
      "stateMutability": "nonpayable",
      "type": "function"
    },
    {
      "inputs": [
        {
          "internalType": "address",
          "name": "operator",
          "type": "address"
        },
        {
          "internalType": "bool",
          "name": "approved",
          "type": "bool"
        }
      ],
      "name": "setApprovalForAll",
      "outputs": [],
      "stateMutability": "nonpayable",
      "type": "function"
    },
    {
      "inputs": [
        {
          "internalType": "bytes4",
          "name": "interfaceId",
          "type": "bytes4"
        }
      ],
      "name": "supportsInterface",
      "outputs": [
        {
          "internalType": "bool",
          "name": "",
          "type": "bool"
        }
      ],
      "stateMutability": "view",
      "type": "function"
    },
    {
      "inputs": [],
      "name": "symbol",
      "outputs": [
        {
          "internalType": "string",
          "name": "",
          "type": "string"
        }
      ],
      "stateMutability": "view",
      "type": "function"
    },
    {
      "inputs": [],
      "name": "totalItemsMinted",
      "outputs": [
        {
          "internalType": "uint256",
          "name": "",
          "type": "uint256"
        }
      ],
      "stateMutability": "view",
      "type": "function"
    },
    {
      "inputs": [
        {
          "internalType": "address",
          "name": "newOwner",
          "type": "address"
        }
      ],
      "name": "transferOwnership",
      "outputs": [],
      "stateMutability": "nonpayable",
      "type": "function"
    },
    {
      "inputs": [
        {
          "internalType": "uint256",
          "name": "_tokenId",
          "type": "uint256"
        }
      ],
      "name": "uri",
      "outputs": [
        {
          "internalType": "string",
          "name": "",
          "type": "string"
        }
      ],
      "stateMutability": "view",
      "type": "function"
    }
  ],
  "bytecode": "0x60806040523480156200001157600080fd5b5060405162002417380380620024178339810160408190526200003491620001b9565b6040805160208101909152600081526200004e8162000090565b506200005a33620000a2565b6007620000688482620002d9565b506008620000778382620002d9565b506009620000868282620002d9565b50505050620003a5565b60026200009e8282620002d9565b5050565b600380546001600160a01b038381166001600160a01b0319831681179093556040519116919082907f8be0079c531659141344cd1fd0a4f28419497f9722a3daafe3b4186f6b6457e090600090a35050565b634e487b7160e01b600052604160045260246000fd5b600082601f8301126200011c57600080fd5b81516001600160401b0380821115620001395762000139620000f4565b604051601f8301601f19908116603f01168101908282118183101715620001645762000164620000f4565b816040528381526020925086838588010111156200018157600080fd5b600091505b83821015620001a5578582018301518183018401529082019062000186565b600093810190920192909252949350505050565b600080600060608486031215620001cf57600080fd5b83516001600160401b0380821115620001e757600080fd5b620001f5878388016200010a565b945060208601519150808211156200020c57600080fd5b6200021a878388016200010a565b935060408601519150808211156200023157600080fd5b5062000240868287016200010a565b9150509250925092565b600181811c908216806200025f57607f821691505b6020821081036200028057634e487b7160e01b600052602260045260246000fd5b50919050565b601f821115620002d457600081815260208120601f850160051c81016020861015620002af5750805b601f850160051c820191505b81811015620002d057828155600101620002bb565b5050505b505050565b81516001600160401b03811115620002f557620002f5620000f4565b6200030d816200030684546200024a565b8462000286565b602080601f8311600181146200034557600084156200032c5750858301515b600019600386901b1c1916600185901b178555620002d0565b600085815260208120601f198616915b82811015620003765788860151825594840194600190910190840162000355565b5085821015620003955787850151600019600388901b60f8161c191681555b5050505050600190811b01905550565b61206280620003b56000396000f3fe608060405234801561001057600080fd5b506004361061011c5760003560e01c8062fdd58e1461012157806301ffc9a71461014757806306fdde031461016a5780630b3e49401461017f5780630e89341c146101875780632eb2c2d61461019a5780634036ab78146101af5780634e1273f4146101cf5780635476ea9e146101ef57806356df3db11461021a5780635714cc8e1461022d578063715018a61461024d57806373004ca0146102555780637a6dc80d146102755780638da5cb5b1461028857806395d89b41146102905780639b0e17f914610298578063a22cb465146102ab578063b00741cb146102be578063c4ffe075146102d1578063e985e9c5146102e4578063f242432a14610320578063f2fde38b14610333575b600080fd5b61013461012f366004611584565b610346565b6040519081526020015b60405180910390f35b61015a6101553660046115c4565b6103df565b604051901515815260200161013e565b61017261042f565b60405161013e9190611638565b600454610134565b61017261019536600461164b565b6104bd565b6101ad6101a83660046117ad565b6104f1565b005b6101c26101bd36600461164b565b61053d565b60405161013e919061188e565b6101e26101dd36600461189c565b6105ac565b60405161013e91906119a1565b600654610202906001600160a01b031681565b6040516001600160a01b03909116815260200161013e565b6101ad610228366004611584565b6106d5565b61024061023b3660046119b4565b610745565b60405161013e9190611a07565b6101ad6108ee565b61026861026336600461164b565b610902565b60405161013e9190611a55565b6101ad610283366004611a63565b610992565b6102026109c8565b6101726109d7565b600554610202906001600160a01b031681565b6101ad6102b9366004611a96565b6109e4565b6101ad6102cc36600461164b565b6109f3565b6101ad6102df366004611ad2565b610a62565b61015a6102f2366004611a63565b6001600160a01b03918216600090815260016020908152604080832093909416825291909152205460ff1690565b6101ad61032e366004611af3565b610b5f565b6101ad6103413660046119b4565b610ba4565b60006001600160a01b0383166103b65760405162461bcd60e51b815260206004820152602a60248201527f455243313135353a2061646472657373207a65726f206973206e6f742061207660448201526930b634b21037bbb732b960b11b60648201526084015b60405180910390fd5b506000818152602081815260408083206001600160a01b03861684529091529020545b92915050565b60006001600160e01b03198216636cdb3d1360e11b148061041057506001600160e01b031982166303a24d0760e21b145b806103d957506301ffc9a760e01b6001600160e01b03198316146103d9565b6007805461043c90611b57565b80601f016020809104026020016040519081016040528092919081815260200182805461046890611b57565b80156104b55780601f1061048a576101008083540402835291602001916104b5565b820191906000526020600020905b81548152906001019060200180831161049857829003601f168201915b505050505081565b606060096104ca83610c1d565b6040516020016104db929190611bad565b6040516020818303038152906040529050919050565b6001600160a01b03851633148061050d575061050d85336102f2565b6105295760405162461bcd60e51b81526004016103ad90611c7b565b6105368585858585610d3f565b5050505050565b60008160010361054f57506001919050565b8160020361055f57506002919050565b8160030361056f57506003919050565b8160040361057f57506004919050565b8160050361058f57506005919050565b8160060361059f57506006919050565b506000919050565b919050565b606081518351146106115760405162461bcd60e51b815260206004820152602960248201527f455243313135353a206163636f756e747320616e6420696473206c656e677468604482015268040dad2e6dac2e8c6d60bb1b60648201526084016103ad565b600083516001600160401b0381111561062c5761062c611664565b604051908082528060200260200182016040528015610655578160200160208202803683370190505b50905060005b84518110156106cd576106a085828151811061067957610679611cc9565b602002602001015185838151811061069357610693611cc9565b6020026020010151610346565b8282815181106106b2576106b2611cc9565b60209081029190910101526106c681611cf5565b905061065b565b509392505050565b6005546001600160a01b03163314806106f857506006546001600160a01b031633145b6107145760405162461bcd60e51b81526004016103ad90611d0e565b6000908152600a6020526040902060010180546001600160a01b0319166001600160a01b0392909216919091179055565b606060008060015b600454811161079a576000818152600a60205260409020600101546001600160a01b0380871691160361078857610785600184611d33565b92505b8061079281611cf5565b91505061074d565b506000826001600160401b038111156107b5576107b5611664565b6040519080825280602002602001820160405280156107ee57816020015b6107db611545565b8152602001906001900390816107d35790505b50905060015b60045481116108e5576000818152600a60205260409020600101546001600160a01b038088169116036108d3576000818152600a602090815260409182902082516080810184528154815260018201546001600160a01b03811693820193909352909290918391830190600160a01b900460ff16600681111561087957610879611856565b600681111561088a5761088a611856565b815260019190910154600160a81b900460ff16151560209091015283518490869081106108b9576108b9611cc9565b60209081029190910101526108cf600185611d33565b9350505b806108dd81611cf5565b9150506107f4565b50949350505050565b6108f6610f1c565b6109006000610f7b565b565b61090a611545565b6000828152600a602090815260409182902082516080810184528154815260018201546001600160a01b0381169382019390935292909190830190600160a01b900460ff16600681111561096057610960611856565b600681111561097157610971611856565b815260019190910154600160a81b900460ff16151560209091015292915050565b61099a610f1c565b600580546001600160a01b039384166001600160a01b03199182161790915560068054929093169116179055565b6003546001600160a01b031690565b6008805461043c90611b57565b6109ef338383610fcd565b5050565b6005546001600160a01b0316331480610a1657506006546001600160a01b031633145b610a325760405162461bcd60e51b81526004016103ad90611d0e565b6000908152600a60205260409020600101805460ff60a81b198116600160a81b9182900460ff1615909102179055565b610a6a610f1c565b60048054906000610a7a83611cf5565b90915550506004546000818152600a60205260409020908155600101805482919060ff60a01b1916600160a01b836006811115610ab957610ab9611856565b0217905550600480546000908152600a60209081526040808320600190810180546001600160a01b03191633908117909155855485528285208201805460ff60a81b1916905594548251938401909252928252610b18939290916110ad565b336001600160a01b03166004547fe08057845702d3ed8894f069b38f39233b32499d21bfd77e3687a23c22f583bc83604051610b54919061188e565b60405180910390a350565b6001600160a01b038516331480610b7b5750610b7b85336102f2565b610b975760405162461bcd60e51b81526004016103ad90611c7b565b61053685858585856111af565b610bac610f1c565b6001600160a01b038116610c115760405162461bcd60e51b815260206004820152602660248201527f4f776e61626c653a206e6577206f776e657220697320746865207a65726f206160448201526564647265737360d01b60648201526084016103ad565b610c1a81610f7b565b50565b606081600003610c445750506040805180820190915260018152600360fc1b602082015290565b8160005b8115610c6e5780610c5881611cf5565b9150610c679050600a83611d46565b9150610c48565b6000816001600160401b03811115610c8857610c88611664565b6040519080825280601f01601f191660200182016040528015610cb2576020820181803683370190505b509050815b85156108e557610cc8600182611d68565b90506000610cd7600a88611d46565b610ce290600a611d7b565b610cec9088611d68565b610cf7906030611d92565b905060008160f81b905080848481518110610d1457610d14611cc9565b60200101906001600160f81b031916908160001a905350610d36600a89611d46565b97505050610cb7565b8151835114610da15760405162461bcd60e51b815260206004820152602860248201527f455243313135353a2069647320616e6420616d6f756e7473206c656e677468206044820152670dad2e6dac2e8c6d60c31b60648201526084016103ad565b6001600160a01b038416610dc75760405162461bcd60e51b81526004016103ad90611dab565b3360005b8451811015610eae576000858281518110610de857610de8611cc9565b602002602001015190506000858381518110610e0657610e06611cc9565b602090810291909101810151600084815280835260408082206001600160a01b038e168352909352919091205490915081811015610e565760405162461bcd60e51b81526004016103ad90611df0565b6000838152602081815260408083206001600160a01b038e8116855292528083208585039055908b16825281208054849290610e93908490611d33565b9250508190555050505080610ea790611cf5565b9050610dcb565b50846001600160a01b0316866001600160a01b0316826001600160a01b03167f4a39dc06d4c0dbc64b70af90fd698a233a518aa5d07e595d983b8c0526c8f7fb8787604051610efe929190611e3a565b60405180910390a4610f148187878787876112c7565b505050505050565b33610f256109c8565b6001600160a01b0316146109005760405162461bcd60e51b815260206004820181905260248201527f4f776e61626c653a2063616c6c6572206973206e6f7420746865206f776e657260448201526064016103ad565b600380546001600160a01b038381166001600160a01b0319831681179093556040519116919082907f8be0079c531659141344cd1fd0a4f28419497f9722a3daafe3b4186f6b6457e090600090a35050565b816001600160a01b0316836001600160a01b0316036110405760405162461bcd60e51b815260206004820152602960248201527f455243313135353a2073657474696e6720617070726f76616c20737461747573604482015268103337b91039b2b63360b91b60648201526084016103ad565b6001600160a01b03838116600081815260016020908152604080832094871680845294825291829020805460ff191686151590811790915591519182527f17307eab39ab6107e8899845ad3d59bd9653f200f220920489ca2b5937696c31910160405180910390a3505050565b6001600160a01b03841661110d5760405162461bcd60e51b815260206004820152602160248201527f455243313135353a206d696e7420746f20746865207a65726f206164647265736044820152607360f81b60648201526084016103ad565b33600061111985611429565b9050600061112685611429565b90506000868152602081815260408083206001600160a01b038b16845290915281208054879290611158908490611d33565b909155505060408051878152602081018790526001600160a01b03808a16926000929187169160008051602061200d833981519152910160405180910390a46111a683600089898989611474565b50505050505050565b6001600160a01b0384166111d55760405162461bcd60e51b81526004016103ad90611dab565b3360006111e185611429565b905060006111ee85611429565b90506000868152602081815260408083206001600160a01b038c168452909152902054858110156112315760405162461bcd60e51b81526004016103ad90611df0565b6000878152602081815260408083206001600160a01b038d8116855292528083208985039055908a1682528120805488929061126e908490611d33565b909155505060408051888152602081018890526001600160a01b03808b16928c8216929188169160008051602061200d833981519152910160405180910390a46112bc848a8a8a8a8a611474565b505050505050505050565b6112d9846001600160a01b0316611536565b15610f145760405163bc197c8160e01b81526001600160a01b0385169063bc197c81906113129089908990889088908890600401611e5f565b6020604051808303816000875af192505050801561134d575060408051601f3d908101601f1916820190925261134a91810190611ebd565b60015b6113f957611359611eda565b806308c379a003611392575061136d611ef6565b806113785750611394565b8060405162461bcd60e51b81526004016103ad9190611638565b505b60405162461bcd60e51b815260206004820152603460248201527f455243313135353a207472616e7366657220746f206e6f6e2d455243313135356044820152732932b1b2b4bb32b91034b6b83632b6b2b73a32b960611b60648201526084016103ad565b6001600160e01b0319811663bc197c8160e01b146111a65760405162461bcd60e51b81526004016103ad90611f7f565b6040805160018082528183019092526060916000919060208083019080368337019050509050828160008151811061146357611463611cc9565b602090810291909101015292915050565b611486846001600160a01b0316611536565b15610f145760405163f23a6e6160e01b81526001600160a01b0385169063f23a6e61906114bf9089908990889088908890600401611fc7565b6020604051808303816000875af19250505080156114fa575060408051601f3d908101601f191682019092526114f791810190611ebd565b60015b61150657611359611eda565b6001600160e01b0319811663f23a6e6160e01b146111a65760405162461bcd60e51b81526004016103ad90611f7f565b6001600160a01b03163b151590565b6040805160808101825260008082526020820181905290918201908152600060209091015290565b80356001600160a01b03811681146105a757600080fd5b6000806040838503121561159757600080fd5b6115a08361156d565b946020939093013593505050565b6001600160e01b031981168114610c1a57600080fd5b6000602082840312156115d657600080fd5b81356115e1816115ae565b9392505050565b60005b838110156116035781810151838201526020016115eb565b50506000910152565b600081518084526116248160208601602086016115e8565b601f01601f19169290920160200192915050565b6020815260006115e1602083018461160c565b60006020828403121561165d57600080fd5b5035919050565b634e487b7160e01b600052604160045260246000fd5b601f8201601f191681016001600160401b038111828210171561169f5761169f611664565b6040525050565b60006001600160401b038211156116bf576116bf611664565b5060051b60200190565b600082601f8301126116da57600080fd5b813560206116e7826116a6565b6040516116f4828261167a565b83815260059390931b850182019282810191508684111561171457600080fd5b8286015b8481101561172f5780358352918301918301611718565b509695505050505050565b600082601f83011261174b57600080fd5b81356001600160401b0381111561176457611764611664565b60405161177b601f8301601f19166020018261167a565b81815284602083860101111561179057600080fd5b816020850160208301376000918101602001919091529392505050565b600080600080600060a086880312156117c557600080fd5b6117ce8661156d565b94506117dc6020870161156d565b935060408601356001600160401b03808211156117f857600080fd5b61180489838a016116c9565b9450606088013591508082111561181a57600080fd5b61182689838a016116c9565b9350608088013591508082111561183c57600080fd5b506118498882890161173a565b9150509295509295909350565b634e487b7160e01b600052602160045260246000fd5b6007811061188a57634e487b7160e01b600052602160045260246000fd5b9052565b602081016103d9828461186c565b600080604083850312156118af57600080fd5b82356001600160401b03808211156118c657600080fd5b818501915085601f8301126118da57600080fd5b813560206118e7826116a6565b6040516118f4828261167a565b83815260059390931b850182019282810191508984111561191457600080fd5b948201945b838610156119395761192a8661156d565b82529482019490820190611919565b9650508601359250508082111561194f57600080fd5b5061195c858286016116c9565b9150509250929050565b600081518084526020808501945080840160005b838110156119965781518752958201959082019060010161197a565b509495945050505050565b6020815260006115e16020830184611966565b6000602082840312156119c657600080fd5b6115e18261156d565b805182526020808201516001600160a01b031690830152604080820151906119f99084018261186c565b506060908101511515910152565b6020808252825182820181905260009190848201906040850190845b81811015611a4957611a368385516119cf565b9284019260809290920191600101611a23565b50909695505050505050565b608081016103d982846119cf565b60008060408385031215611a7657600080fd5b611a7f8361156d565b9150611a8d6020840161156d565b90509250929050565b60008060408385031215611aa957600080fd5b611ab28361156d565b915060208301358015158114611ac757600080fd5b809150509250929050565b600060208284031215611ae457600080fd5b8135600781106115e157600080fd5b600080600080600060a08688031215611b0b57600080fd5b611b148661156d565b9450611b226020870161156d565b9350604086013592506060860135915060808601356001600160401b03811115611b4b57600080fd5b6118498882890161173a565b600181811c90821680611b6b57607f821691505b602082108103611b8b57634e487b7160e01b600052602260045260246000fd5b50919050565b60008151611ba38185602086016115e8565b9290920192915050565b600080845481600182811c915080831680611bc957607f831692505b60208084108203611be857634e487b7160e01b86526022600452602486fd5b818015611bfc5760018114611c1157611c3e565b60ff1986168952841515850289019650611c3e565b60008b81526020902060005b86811015611c365781548b820152908501908301611c1d565b505084890196505b505050505050611c72611c61611c5b83602f60f81b815260010190565b86611b91565b64173539b7b760d91b815260050190565b95945050505050565b6020808252602e908201527f455243313135353a2063616c6c6572206973206e6f7420746f6b656e206f776e60408201526d195c881bdc88185c1c1c9bdd995960921b606082015260800190565b634e487b7160e01b600052603260045260246000fd5b634e487b7160e01b600052601160045260246000fd5b600060018201611d0757611d07611cdf565b5060010190565b6020808252600b908201526a1b9bdd08185b1b1bddd95960aa1b604082015260600190565b808201808211156103d9576103d9611cdf565b600082611d6357634e487b7160e01b600052601260045260246000fd5b500490565b818103818111156103d9576103d9611cdf565b80820281158282048414176103d9576103d9611cdf565b60ff81811683821601908111156103d9576103d9611cdf565b60208082526025908201527f455243313135353a207472616e7366657220746f20746865207a65726f206164604082015264647265737360d81b606082015260800190565b6020808252602a908201527f455243313135353a20696e73756666696369656e742062616c616e636520666f60408201526939103a3930b739b332b960b11b606082015260800190565b604081526000611e4d6040830185611966565b8281036020840152611c728185611966565b6001600160a01b0386811682528516602082015260a060408201819052600090611e8b90830186611966565b8281036060840152611e9d8186611966565b90508281036080840152611eb1818561160c565b98975050505050505050565b600060208284031215611ecf57600080fd5b81516115e1816115ae565b600060033d1115611ef35760046000803e5060005160e01c5b90565b600060443d1015611f045790565b6040516003193d81016004833e81513d6001600160401b038083116024840183101715611f3357505050505090565b8285019150815181811115611f4b5750505050505090565b843d8701016020828501011115611f655750505050505090565b611f746020828601018761167a565b509095945050505050565b60208082526028908201527f455243313135353a204552433131353552656365697665722072656a656374656040820152676420746f6b656e7360c01b606082015260800190565b6001600160a01b03868116825285166020820152604081018490526060810183905260a0608082018190526000906120019083018461160c565b97965050505050505056fec3d58168c5ae7397731d063d5bbf3d657854427343f4c083240f7aacaa2d0f62a26469706673582212202542e5e5f2b81db6cfd2b140ee3e0cd50838902304ac703e681e750f2986664964736f6c63430008140033",
  "linkReferences": {},
  "deployedLinkReferences": {}
}