{
  "_format": "hh-sol-artifact-1",
  "contractName": "PancakeSwapRouter",
  "sourceName": "contracts/libs/dexRouter.sol",
  "abi": [
    {
      "inputs": [
        {
          "internalType": "address",
          "name": "_factory",
          "type": "address"
        },
        {
          "internalType": "address",
          "name": "_WETH",
          "type": "address"
        }
      ],
      "stateMutability": "nonpayable",
      "type": "constructor"
    },
    {
      "inputs": [],
      "name": "WETH",
      "outputs": [
        {
          "internalType": "address",
          "name": "",
          "type": "address"
        }
      ],
      "stateMutability": "view",
      "type": "function"
    },
    {
      "inputs": [],
      "name": "WETHAddr",
      "outputs": [
        {
          "internalType": "address",
          "name": "",
          "type": "address"
        }
      ],
      "stateMutability": "view",
      "type": "function"
    },
    {
      "inputs": [
        {
          "internalType": "address",
          "name": "tokenA",
          "type": "address"
        },
        {
          "internalType": "address",
          "name": "tokenB",
          "type": "address"
        },
        {
          "internalType": "uint256",
          "name": "amountADesired",
          "type": "uint256"
        },
        {
          "internalType": "uint256",
          "name": "amountBDesired",
          "type": "uint256"
        },
        {
          "internalType": "uint256",
          "name": "amountAMin",
          "type": "uint256"
        },
        {
          "internalType": "uint256",
          "name": "amountBMin",
          "type": "uint256"
        },
        {
          "internalType": "address",
          "name": "to",
          "type": "address"
        },
        {
          "internalType": "uint256",
          "name": "deadline",
          "type": "uint256"
        }
      ],
      "name": "addLiquidity",
      "outputs": [
        {
          "internalType": "uint256",
          "name": "amountA",
          "type": "uint256"
        },
        {
          "internalType": "uint256",
          "name": "amountB",
          "type": "uint256"
        },
        {
          "internalType": "uint256",
          "name": "liquidity",
          "type": "uint256"
        }
      ],
      "stateMutability": "nonpayable",
      "type": "function"
    },
    {
      "inputs": [
        {
          "internalType": "address",
          "name": "token",
          "type": "address"
        },
        {
          "internalType": "uint256",
          "name": "amountTokenDesired",
          "type": "uint256"
        },
        {
          "internalType": "uint256",
          "name": "amountTokenMin",
          "type": "uint256"
        },
        {
          "internalType": "uint256",
          "name": "amountETHMin",
          "type": "uint256"
        },
        {
          "internalType": "address",
          "name": "to",
          "type": "address"
        },
        {
          "internalType": "uint256",
          "name": "deadline",
          "type": "uint256"
        }
      ],
      "name": "addLiquidityETH",
      "outputs": [
        {
          "internalType": "uint256",
          "name": "amountToken",
          "type": "uint256"
        },
        {
          "internalType": "uint256",
          "name": "amountETH",
          "type": "uint256"
        },
        {
          "internalType": "uint256",
          "name": "liquidity",
          "type": "uint256"
        }
      ],
      "stateMutability": "payable",
      "type": "function"
    },
    {
      "inputs": [],
      "name": "factory",
      "outputs": [
        {
          "internalType": "address",
          "name": "",
          "type": "address"
        }
      ],
      "stateMutability": "view",
      "type": "function"
    },
    {
      "inputs": [],
      "name": "factoryAddr",
      "outputs": [
        {
          "internalType": "address",
          "name": "",
          "type": "address"
        }
      ],
      "stateMutability": "view",
      "type": "function"
    },
    {
      "inputs": [
        {
          "internalType": "uint256",
          "name": "amountOut",
          "type": "uint256"
        },
        {
          "internalType": "uint256",
          "name": "reserveIn",
          "type": "uint256"
        },
        {
          "internalType": "uint256",
          "name": "reserveOut",
          "type": "uint256"
        }
      ],
      "name": "getAmountIn",
      "outputs": [
        {
          "internalType": "uint256",
          "name": "amountIn",
          "type": "uint256"
        }
      ],
      "stateMutability": "pure",
      "type": "function"
    },
    {
      "inputs": [
        {
          "internalType": "uint256",
          "name": "amountIn",
          "type": "uint256"
        },
        {
          "internalType": "uint256",
          "name": "reserveIn",
          "type": "uint256"
        },
        {
          "internalType": "uint256",
          "name": "reserveOut",
          "type": "uint256"
        }
      ],
      "name": "getAmountOut",
      "outputs": [
        {
          "internalType": "uint256",
          "name": "amountOut",
          "type": "uint256"
        }
      ],
      "stateMutability": "pure",
      "type": "function"
    },
    {
      "inputs": [
        {
          "internalType": "uint256",
          "name": "amountOut",
          "type": "uint256"
        },
        {
          "internalType": "address[]",
          "name": "path",
          "type": "address[]"
        }
      ],
      "name": "getAmountsIn",
      "outputs": [
        {
          "internalType": "uint256[]",
          "name": "amounts",
          "type": "uint256[]"
        }
      ],
      "stateMutability": "view",
      "type": "function"
    },
    {
      "inputs": [
        {
          "internalType": "uint256",
          "name": "amountIn",
          "type": "uint256"
        },
        {
          "internalType": "address[]",
          "name": "path",
          "type": "address[]"
        }
      ],
      "name": "getAmountsOut",
      "outputs": [
        {
          "internalType": "uint256[]",
          "name": "amounts",
          "type": "uint256[]"
        }
      ],
      "stateMutability": "view",
      "type": "function"
    },
    {
      "inputs": [
        {
          "internalType": "uint256",
          "name": "amountA",
          "type": "uint256"
        },
        {
          "internalType": "uint256",
          "name": "reserveA",
          "type": "uint256"
        },
        {
          "internalType": "uint256",
          "name": "reserveB",
          "type": "uint256"
        }
      ],
      "name": "quote",
      "outputs": [
        {
          "internalType": "uint256",
          "name": "amountB",
          "type": "uint256"
        }
      ],
      "stateMutability": "pure",
      "type": "function"
    },
    {
      "inputs": [
        {
          "internalType": "address",
          "name": "tokenA",
          "type": "address"
        },
        {
          "internalType": "address",
          "name": "tokenB",
          "type": "address"
        },
        {
          "internalType": "uint256",
          "name": "liquidity",
          "type": "uint256"
        },
        {
          "internalType": "uint256",
          "name": "amountAMin",
          "type": "uint256"
        },
        {
          "internalType": "uint256",
          "name": "amountBMin",
          "type": "uint256"
        },
        {
          "internalType": "address",
          "name": "to",
          "type": "address"
        },
        {
          "internalType": "uint256",
          "name": "deadline",
          "type": "uint256"
        }
      ],
      "name": "removeLiquidity",
      "outputs": [
        {
          "internalType": "uint256",
          "name": "amountA",
          "type": "uint256"
        },
        {
          "internalType": "uint256",
          "name": "amountB",
          "type": "uint256"
        }
      ],
      "stateMutability": "nonpayable",
      "type": "function"
    },
    {
      "inputs": [
        {
          "internalType": "address",
          "name": "token",
          "type": "address"
        },
        {
          "internalType": "uint256",
          "name": "liquidity",
          "type": "uint256"
        },
        {
          "internalType": "uint256",
          "name": "amountTokenMin",
          "type": "uint256"
        },
        {
          "internalType": "uint256",
          "name": "amountETHMin",
          "type": "uint256"
        },
        {
          "internalType": "address",
          "name": "to",
          "type": "address"
        },
        {
          "internalType": "uint256",
          "name": "deadline",
          "type": "uint256"
        }
      ],
      "name": "removeLiquidityETH",
      "outputs": [
        {
          "internalType": "uint256",
          "name": "amountToken",
          "type": "uint256"
        },
        {
          "internalType": "uint256",
          "name": "amountETH",
          "type": "uint256"
        }
      ],
      "stateMutability": "nonpayable",
      "type": "function"
    },
    {
      "inputs": [
        {
          "internalType": "address",
          "name": "token",
          "type": "address"
        },
        {
          "internalType": "uint256",
          "name": "liquidity",
          "type": "uint256"
        },
        {
          "internalType": "uint256",
          "name": "amountTokenMin",
          "type": "uint256"
        },
        {
          "internalType": "uint256",
          "name": "amountETHMin",
          "type": "uint256"
        },
        {
          "internalType": "address",
          "name": "to",
          "type": "address"
        },
        {
          "internalType": "uint256",
          "name": "deadline",
          "type": "uint256"
        }
      ],
      "name": "removeLiquidityETHSupportingFeeOnTransferTokens",
      "outputs": [
        {
          "internalType": "uint256",
          "name": "amountETH",
          "type": "uint256"
        }
      ],
      "stateMutability": "nonpayable",
      "type": "function"
    },
    {
      "inputs": [
        {
          "internalType": "address",
          "name": "token",
          "type": "address"
        },
        {
          "internalType": "uint256",
          "name": "liquidity",
          "type": "uint256"
        },
        {
          "internalType": "uint256",
          "name": "amountTokenMin",
          "type": "uint256"
        },
        {
          "internalType": "uint256",
          "name": "amountETHMin",
          "type": "uint256"
        },
        {
          "internalType": "address",
          "name": "to",
          "type": "address"
        },
        {
          "internalType": "uint256",
          "name": "deadline",
          "type": "uint256"
        },
        {
          "internalType": "bool",
          "name": "approveMax",
          "type": "bool"
        },
        {
          "internalType": "uint8",
          "name": "v",
          "type": "uint8"
        },
        {
          "internalType": "bytes32",
          "name": "r",
          "type": "bytes32"
        },
        {
          "internalType": "bytes32",
          "name": "s",
          "type": "bytes32"
        }
      ],
      "name": "removeLiquidityETHWithPermit",
      "outputs": [
        {
          "internalType": "uint256",
          "name": "amountToken",
          "type": "uint256"
        },
        {
          "internalType": "uint256",
          "name": "amountETH",
          "type": "uint256"
        }
      ],
      "stateMutability": "nonpayable",
      "type": "function"
    },
    {
      "inputs": [
        {
          "internalType": "address",
          "name": "token",
          "type": "address"
        },
        {
          "internalType": "uint256",
          "name": "liquidity",
          "type": "uint256"
        },
        {
          "internalType": "uint256",
          "name": "amountTokenMin",
          "type": "uint256"
        },
        {
          "internalType": "uint256",
          "name": "amountETHMin",
          "type": "uint256"
        },
        {
          "internalType": "address",
          "name": "to",
          "type": "address"
        },
        {
          "internalType": "uint256",
          "name": "deadline",
          "type": "uint256"
        },
        {
          "internalType": "bool",
          "name": "approveMax",
          "type": "bool"
        },
        {
          "internalType": "uint8",
          "name": "v",
          "type": "uint8"
        },
        {
          "internalType": "bytes32",
          "name": "r",
          "type": "bytes32"
        },
        {
          "internalType": "bytes32",
          "name": "s",
          "type": "bytes32"
        }
      ],
      "name": "removeLiquidityETHWithPermitSupportingFeeOnTransferTokens",
      "outputs": [
        {
          "internalType": "uint256",
          "name": "amountETH",
          "type": "uint256"
        }
      ],
      "stateMutability": "nonpayable",
      "type": "function"
    },
    {
      "inputs": [
        {
          "internalType": "address",
          "name": "tokenA",
          "type": "address"
        },
        {
          "internalType": "address",
          "name": "tokenB",
          "type": "address"
        },
        {
          "internalType": "uint256",
          "name": "liquidity",
          "type": "uint256"
        },
        {
          "internalType": "uint256",
          "name": "amountAMin",
          "type": "uint256"
        },
        {
          "internalType": "uint256",
          "name": "amountBMin",
          "type": "uint256"
        },
        {
          "internalType": "address",
          "name": "to",
          "type": "address"
        },
        {
          "internalType": "uint256",
          "name": "deadline",
          "type": "uint256"
        },
        {
          "internalType": "bool",
          "name": "approveMax",
          "type": "bool"
        },
        {
          "internalType": "uint8",
          "name": "v",
          "type": "uint8"
        },
        {
          "internalType": "bytes32",
          "name": "r",
          "type": "bytes32"
        },
        {
          "internalType": "bytes32",
          "name": "s",
          "type": "bytes32"
        }
      ],
      "name": "removeLiquidityWithPermit",
      "outputs": [
        {
          "internalType": "uint256",
          "name": "amountA",
          "type": "uint256"
        },
        {
          "internalType": "uint256",
          "name": "amountB",
          "type": "uint256"
        }
      ],
      "stateMutability": "nonpayable",
      "type": "function"
    },
    {
      "inputs": [
        {
          "internalType": "uint256",
          "name": "amountOut",
          "type": "uint256"
        },
        {
          "internalType": "address[]",
          "name": "path",
          "type": "address[]"
        },
        {
          "internalType": "address",
          "name": "to",
          "type": "address"
        },
        {
          "internalType": "uint256",
          "name": "deadline",
          "type": "uint256"
        }
      ],
      "name": "swapETHForExactTokens",
      "outputs": [
        {
          "internalType": "uint256[]",
          "name": "amounts",
          "type": "uint256[]"
        }
      ],
      "stateMutability": "payable",
      "type": "function"
    },
    {
      "inputs": [
        {
          "internalType": "uint256",
          "name": "amountOutMin",
          "type": "uint256"
        },
        {
          "internalType": "address[]",
          "name": "path",
          "type": "address[]"
        },
        {
          "internalType": "address",
          "name": "to",
          "type": "address"
        },
        {
          "internalType": "uint256",
          "name": "deadline",
          "type": "uint256"
        }
      ],
      "name": "swapExactETHForTokens",
      "outputs": [
        {
          "internalType": "uint256[]",
          "name": "amounts",
          "type": "uint256[]"
        }
      ],
      "stateMutability": "payable",
      "type": "function"
    },
    {
      "inputs": [
        {
          "internalType": "uint256",
          "name": "amountOutMin",
          "type": "uint256"
        },
        {
          "internalType": "address[]",
          "name": "path",
          "type": "address[]"
        },
        {
          "internalType": "address",
          "name": "to",
          "type": "address"
        },
        {
          "internalType": "uint256",
          "name": "deadline",
          "type": "uint256"
        }
      ],
      "name": "swapExactETHForTokensSupportingFeeOnTransferTokens",
      "outputs": [],
      "stateMutability": "payable",
      "type": "function"
    },
    {
      "inputs": [
        {
          "internalType": "uint256",
          "name": "amountIn",
          "type": "uint256"
        },
        {
          "internalType": "uint256",
          "name": "amountOutMin",
          "type": "uint256"
        },
        {
          "internalType": "address[]",
          "name": "path",
          "type": "address[]"
        },
        {
          "internalType": "address",
          "name": "to",
          "type": "address"
        },
        {
          "internalType": "uint256",
          "name": "deadline",
          "type": "uint256"
        }
      ],
      "name": "swapExactTokensForETH",
      "outputs": [
        {
          "internalType": "uint256[]",
          "name": "amounts",
          "type": "uint256[]"
        }
      ],
      "stateMutability": "nonpayable",
      "type": "function"
    },
    {
      "inputs": [
        {
          "internalType": "uint256",
          "name": "amountIn",
          "type": "uint256"
        },
        {
          "internalType": "uint256",
          "name": "amountOutMin",
          "type": "uint256"
        },
        {
          "internalType": "address[]",
          "name": "path",
          "type": "address[]"
        },
        {
          "internalType": "address",
          "name": "to",
          "type": "address"
        },
        {
          "internalType": "uint256",
          "name": "deadline",
          "type": "uint256"
        }
      ],
      "name": "swapExactTokensForETHSupportingFeeOnTransferTokens",
      "outputs": [],
      "stateMutability": "nonpayable",
      "type": "function"
    },
    {
      "inputs": [
        {
          "internalType": "uint256",
          "name": "amountIn",
          "type": "uint256"
        },
        {
          "internalType": "uint256",
          "name": "amountOutMin",
          "type": "uint256"
        },
        {
          "internalType": "address[]",
          "name": "path",
          "type": "address[]"
        },
        {
          "internalType": "address",
          "name": "to",
          "type": "address"
        },
        {
          "internalType": "uint256",
          "name": "deadline",
          "type": "uint256"
        }
      ],
      "name": "swapExactTokensForTokens",
      "outputs": [
        {
          "internalType": "uint256[]",
          "name": "amounts",
          "type": "uint256[]"
        }
      ],
      "stateMutability": "nonpayable",
      "type": "function"
    },
    {
      "inputs": [
        {
          "internalType": "uint256",
          "name": "amountIn",
          "type": "uint256"
        },
        {
          "internalType": "uint256",
          "name": "amountOutMin",
          "type": "uint256"
        },
        {
          "internalType": "address[]",
          "name": "path",
          "type": "address[]"
        },
        {
          "internalType": "address",
          "name": "to",
          "type": "address"
        },
        {
          "internalType": "uint256",
          "name": "deadline",
          "type": "uint256"
        }
      ],
      "name": "swapExactTokensForTokensSupportingFeeOnTransferTokens",
      "outputs": [],
      "stateMutability": "nonpayable",
      "type": "function"
    },
    {
      "inputs": [
        {
          "internalType": "uint256",
          "name": "amountOut",
          "type": "uint256"
        },
        {
          "internalType": "uint256",
          "name": "amountInMax",
          "type": "uint256"
        },
        {
          "internalType": "address[]",
          "name": "path",
          "type": "address[]"
        },
        {
          "internalType": "address",
          "name": "to",
          "type": "address"
        },
        {
          "internalType": "uint256",
          "name": "deadline",
          "type": "uint256"
        }
      ],
      "name": "swapTokensForExactETH",
      "outputs": [
        {
          "internalType": "uint256[]",
          "name": "amounts",
          "type": "uint256[]"
        }
      ],
      "stateMutability": "nonpayable",
      "type": "function"
    },
    {
      "inputs": [
        {
          "internalType": "uint256",
          "name": "amountOut",
          "type": "uint256"
        },
        {
          "internalType": "uint256",
          "name": "amountInMax",
          "type": "uint256"
        },
        {
          "internalType": "address[]",
          "name": "path",
          "type": "address[]"
        },
        {
          "internalType": "address",
          "name": "to",
          "type": "address"
        },
        {
          "internalType": "uint256",
          "name": "deadline",
          "type": "uint256"
        }
      ],
      "name": "swapTokensForExactTokens",
      "outputs": [
        {
          "internalType": "uint256[]",
          "name": "amounts",
          "type": "uint256[]"
        }
      ],
      "stateMutability": "nonpayable",
      "type": "function"
    },
    {
      "stateMutability": "payable",
      "type": "receive"
    }
  ],
  "bytecode": "0x60806040523480156200001157600080fd5b5060405162003d0738038062003d07833981016040819052620000349162000083565b600080546001600160a01b039384166001600160a01b03199182161790915560018054929093169116179055620000bb565b80516001600160a01b03811681146200007e57600080fd5b919050565b600080604083850312156200009757600080fd5b620000a28362000066565b9150620000b26020840162000066565b90509250929050565b613c3c80620000cb6000396000f3fe6080604052600436106101355760003560e01c806302751cec1461015b578063054d50d41461019557806318cbafe5146101c35780631f00ca74146101f05780632195995c1461021057806338ed1739146102305780634a25d94a146102505780635b0d5984146102705780635c11d79514610290578063791ac947146102b05780637ff36ab5146102d057806385f8c259146102e35780638803dbee14610303578063963671be14610323578063abdc380814610350578063ad5c464814610370578063ad615dec1461038e578063af2979eb146103ae578063b6f9de95146103ce578063baa2abde146103e1578063c45a015514610401578063d06ca61f1461041f578063ded9382a1461043f578063e8e337001461045f578063f305d7191461049a578063fb3bdb41146104ad57600080fd5b36610156576001546001600160a01b03163314610154576101546131aa565b005b600080fd5b34801561016757600080fd5b5061017b6101763660046131e8565b6104c0565b604080519283526020830191909152015b60405180910390f35b3480156101a157600080fd5b506101b56101b0366004613246565b61058d565b60405190815260200161018c565b3480156101cf57600080fd5b506101e36101de3660046132b6565b6105a2565b60405161018c9190613328565b3480156101fc57600080fd5b506101e361020b366004613382565b610874565b34801561021c57600080fd5b5061017b61022b366004613471565b610897565b34801561023c57600080fd5b506101e361024b3660046132b6565b61095c565b34801561025c57600080fd5b506101e361026b3660046132b6565b610a66565b34801561027c57600080fd5b506101b561028b36600461351b565b610b75565b34801561029c57600080fd5b506101546102ab3660046132b6565b610c35565b3480156102bc57600080fd5b506101546102cb3660046132b6565b610e83565b6101e36102de3660046135b1565b61105a565b3480156102ef57600080fd5b506101b56102fe366004613246565b6112dd565b34801561030f57600080fd5b506101e361031e3660046132b6565b6112ea565b34801561032f57600080fd5b50600054610343906001600160a01b031681565b60405161018c9190613617565b34801561035c57600080fd5b50600154610343906001600160a01b031681565b34801561037c57600080fd5b506001546001600160a01b0316610343565b34801561039a57600080fd5b506101b56103a9366004613246565b611393565b3480156103ba57600080fd5b506101b56103c93660046131e8565b6113a0565b6101546103dc3660046135b1565b6114c5565b3480156103ed57600080fd5b5061017b6103fc36600461362b565b61177e565b34801561040d57600080fd5b506000546001600160a01b0316610343565b34801561042b57600080fd5b506101e361043a366004613382565b61192e565b34801561044b57600080fd5b5061017b61045a36600461351b565b611948565b34801561046b57600080fd5b5061047f61047a36600461369d565b611a23565b6040805193845260208401929092529082015260600161018c565b61047f6104a83660046131e8565b611b11565b6101e36104bb3660046135b1565b611d0a565b60008082428110156104ed5760405162461bcd60e51b81526004016104e490613719565b60405180910390fd5b600154610509908a906001600160a01b03168a8a8a308a61177e565b9093509150610519898685611fc3565b600154604051632e1a7d4d60e01b8152600481018490526001600160a01b0390911690632e1a7d4d90602401600060405180830381600087803b15801561055f57600080fd5b505af1158015610573573d6000803e3d6000fd5b5050505061058185836120e0565b50965096945050505050565b600061059a8484846121ae565b949350505050565b606081428110156105c55760405162461bcd60e51b81526004016104e490613719565b600180546001600160a01b031690879087906105e19082613763565b8181106105f0576105f0613776565b9050602002016020810190610605919061378c565b6001600160a01b03161461062b5760405162461bcd60e51b81526004016104e4906137b0565b6000546040805160208089028281018201909352888252610675936001600160a01b0316928c92918b918b9182919085019084908082843760009201919091525061227c92505050565b91508682600184516106879190613763565b8151811061069757610697613776565b602002602001015110156106bd5760405162461bcd60e51b81526004016104e4906137e7565b61076f868660008181106106d3576106d3613776565b90506020020160208101906106e8919061378c565b60008054339161074f916001600160a01b0316908b908b908161070d5761070d613776565b9050602002016020810190610722919061378c565b8b8b600181811061073557610735613776565b905060200201602081019061074a919061378c565b6123d6565b8560008151811061076257610762613776565b60200260200101516124e0565b6107ae8287878080602002602001604051908101604052809392919081815260200183836020028082843760009201919091525030925061260c915050565b6001805483516001600160a01b0390911691632e1a7d4d9185916107d191613763565b815181106107e1576107e1613776565b60200260200101516040518263ffffffff1660e01b815260040161080791815260200190565b600060405180830381600087803b15801561082157600080fd5b505af1158015610835573d6000803e3d6000fd5b5050505061086984836001855161084c9190613763565b8151811061085c5761085c613776565b60200260200101516120e0565b509695505050505050565b60005460609061088e906001600160a01b031684846127ed565b90505b92915050565b60008054819081906108b3906001600160a01b03168f8f6123d6565b90506000876108c2578c6108c6565b6000195b60405163d505accf60e01b81529091506001600160a01b0383169063d505accf90610901903390309086908f908e908e908e90600401613822565b600060405180830381600087803b15801561091b57600080fd5b505af115801561092f573d6000803e3d6000fd5b505050506109428f8f8f8f8f8f8f61177e565b809450819550505050509b509b9950505050505050505050565b6060814281101561097f5760405162461bcd60e51b81526004016104e490613719565b60005460408051602080890282810182019093528882526109c9936001600160a01b0316928c92918b918b9182919085019084908082843760009201919091525061227c92505050565b91508682600184516109db9190613763565b815181106109eb576109eb613776565b60200260200101511015610a115760405162461bcd60e51b81526004016104e4906137e7565b610a27868660008181106106d3576106d3613776565b6108698287878080602002602001604051908101604052809392919081815260200183836020028082843760009201919091525089925061260c915050565b60608142811015610a895760405162461bcd60e51b81526004016104e490613719565b600180546001600160a01b03169087908790610aa59082613763565b818110610ab457610ab4613776565b9050602002016020810190610ac9919061378c565b6001600160a01b031614610aef5760405162461bcd60e51b81526004016104e4906137b0565b6000546040805160208089028281018201909352888252610b39936001600160a01b0316928c92918b918b918291908501908490808284376000920191909152506127ed92505050565b91508682600081518110610b4f57610b4f613776565b602002602001015111156106bd5760405162461bcd60e51b81526004016104e490613863565b600080546001548291610b96916001600160a01b03918216918f91166123d6565b9050600086610ba5578b610ba9565b6000195b60405163d505accf60e01b81529091506001600160a01b0383169063d505accf90610be4903390309086908e908d908d908d90600401613822565b600060405180830381600087803b158015610bfe57600080fd5b505af1158015610c12573d6000803e3d6000fd5b50505050610c248d8d8d8d8d8d6113a0565b9d9c50505050505050505050505050565b8042811015610c565760405162461bcd60e51b81526004016104e490613719565b610cd485856000818110610c6c57610c6c613776565b9050602002016020810190610c81919061378c565b600080543391610cce916001600160a01b0316908a908a9081610ca657610ca6613776565b9050602002016020810190610cbb919061378c565b8a8a600181811061073557610735613776565b8a6124e0565b60008585610ce3600182613763565b818110610cf257610cf2613776565b9050602002016020810190610d07919061378c565b6001600160a01b03166370a08231856040518263ffffffff1660e01b8152600401610d329190613617565b602060405180830381865afa158015610d4f573d6000803e3d6000fd5b505050506040513d601f19601f82011682018060405250810190610d7391906138ac565b9050610db386868080602002602001604051908101604052809392919081815260200183836020028082843760009201919091525088925061293d915050565b86610e5b828888610dc5600182613763565b818110610dd457610dd4613776565b9050602002016020810190610de9919061378c565b6001600160a01b03166370a08231886040518263ffffffff1660e01b8152600401610e149190613617565b602060405180830381865afa158015610e31573d6000803e3d6000fd5b505050506040513d601f19601f82011682018060405250810190610e5591906138ac565b90612ba8565b1015610e795760405162461bcd60e51b81526004016104e4906137e7565b5050505050505050565b8042811015610ea45760405162461bcd60e51b81526004016104e490613719565b600180546001600160a01b03169086908690610ec09082613763565b818110610ecf57610ecf613776565b9050602002016020810190610ee4919061378c565b6001600160a01b031614610f0a5760405162461bcd60e51b81526004016104e4906137b0565b610f2085856000818110610c6c57610c6c613776565b610f5e85858080602002602001604051908101604052809392919081815260200183836020028082843760009201919091525030925061293d915050565b6001546040516370a0823160e01b81526000916001600160a01b0316906370a0823190610f8f903090600401613617565b602060405180830381865afa158015610fac573d6000803e3d6000fd5b505050506040513d601f19601f82011682018060405250810190610fd091906138ac565b905086811015610ff25760405162461bcd60e51b81526004016104e4906137e7565b600154604051632e1a7d4d60e01b8152600481018390526001600160a01b0390911690632e1a7d4d90602401600060405180830381600087803b15801561103857600080fd5b505af115801561104c573d6000803e3d6000fd5b50505050610e7984826120e0565b6060814281101561107d5760405162461bcd60e51b81526004016104e490613719565b6001546001600160a01b0316868660008161109a5761109a613776565b90506020020160208101906110af919061378c565b6001600160a01b0316146110d55760405162461bcd60e51b81526004016104e4906137b0565b600054604080516020808902828101820190935288825261111f936001600160a01b0316923492918b918b9182919085019084908082843760009201919091525061227c92505050565b91508682600184516111319190613763565b8151811061114157611141613776565b602002602001015110156111675760405162461bcd60e51b81526004016104e4906137e7565b60015482516001600160a01b039091169063d0e30db090849060009061118f5761118f613776565b60200260200101516040518263ffffffff1660e01b81526004016000604051808303818588803b1580156111c257600080fd5b505af11580156111d6573d6000803e3d6000fd5b5050600154600080546001600160a01b03928316955063a9059cbb945061120d9350909116908a908a9081610ca657610ca6613776565b8460008151811061122057611220613776565b60200260200101516040518363ffffffff1660e01b81526004016112459291906138c5565b6020604051808303816000875af1158015611264573d6000803e3d6000fd5b505050506040513d601f19601f8201168201806040525081019061128891906138de565b611294576112946131aa565b6112d38287878080602002602001604051908101604052809392919081815260200183836020028082843760009201919091525089925061260c915050565b5095945050505050565b600061059a848484612bfe565b6060814281101561130d5760405162461bcd60e51b81526004016104e490613719565b6000546040805160208089028281018201909352888252611357936001600160a01b0316928c92918b918b918291908501908490808284376000920191909152506127ed92505050565b9150868260008151811061136d5761136d613776565b60200260200101511115610a115760405162461bcd60e51b81526004016104e490613863565b600061059a848484612cc7565b600081428110156113c35760405162461bcd60e51b81526004016104e490613719565b6001546113df9089906001600160a01b0316898989308961177e565b6040516370a0823160e01b815290935061145d9150899086906001600160a01b038316906370a0823190611417903090600401613617565b602060405180830381865afa158015611434573d6000803e3d6000fd5b505050506040513d601f19601f8201168201806040525081019061145891906138ac565b611fc3565b600154604051632e1a7d4d60e01b8152600481018490526001600160a01b0390911690632e1a7d4d90602401600060405180830381600087803b1580156114a357600080fd5b505af11580156114b7573d6000803e3d6000fd5b5050505061086984836120e0565b80428110156114e65760405162461bcd60e51b81526004016104e490613719565b6001546001600160a01b0316858560008161150357611503613776565b9050602002016020810190611518919061378c565b6001600160a01b03161461153e5760405162461bcd60e51b81526004016104e4906137b0565b60015460408051630d0e30db60e41b8152905134926001600160a01b03169163d0e30db091849160048082019260009290919082900301818588803b15801561158657600080fd5b505af115801561159a573d6000803e3d6000fd5b5050600154600080546001600160a01b03928316955063a9059cbb94506115d19350909116908a908a9081610ca657610ca6613776565b836040518363ffffffff1660e01b81526004016115ef9291906138c5565b6020604051808303816000875af115801561160e573d6000803e3d6000fd5b505050506040513d601f19601f8201168201806040525081019061163291906138de565b61163e5761163e6131aa565b6000868661164d600182613763565b81811061165c5761165c613776565b9050602002016020810190611671919061378c565b6001600160a01b03166370a08231866040518263ffffffff1660e01b815260040161169c9190613617565b602060405180830381865afa1580156116b9573d6000803e3d6000fd5b505050506040513d601f19601f820116820180604052508101906116dd91906138ac565b905061171d87878080602002602001604051908101604052809392919081815260200183836020028082843760009201919091525089925061293d915050565b87610e5b82898961172f600182613763565b81811061173e5761173e613776565b9050602002016020810190611753919061378c565b6001600160a01b03166370a08231896040518263ffffffff1660e01b8152600401610e149190613617565b60008082428110156117a25760405162461bcd60e51b81526004016104e490613719565b600080546117ba906001600160a01b03168c8c6123d6565b6040516323b872dd60e01b81529091506001600160a01b038216906323b872dd906117ed90339085908e906004016138fb565b6020604051808303816000875af115801561180c573d6000803e3d6000fd5b505050506040513d601f19601f8201168201806040525081019061183091906138de565b50600080826001600160a01b03166389afcb44896040518263ffffffff1660e01b81526004016118609190613617565b60408051808303816000875af115801561187e573d6000803e3d6000fd5b505050506040513d601f19601f820116820180604052508101906118a2919061391f565b9150915060006118b28e8e612d57565b509050806001600160a01b03168e6001600160a01b0316146118d55781836118d8565b82825b90975095508a8710156118fd5760405162461bcd60e51b81526004016104e490613943565b8986101561191d5760405162461bcd60e51b81526004016104e490613979565b505050505097509795505050505050565b60005460609061088e906001600160a01b0316848461227c565b600080600061198060008054906101000a90046001600160a01b03168e600160009054906101000a90046001600160a01b03166123d6565b905060008761198f578c611993565b6000195b60405163d505accf60e01b81529091506001600160a01b0383169063d505accf906119ce903390309086908f908e908e908e90600401613822565b600060405180830381600087803b1580156119e857600080fd5b505af11580156119fc573d6000803e3d6000fd5b50505050611a0e8e8e8e8e8e8e6104c0565b909f909e509c50505050505050505050505050565b60008060008342811015611a495760405162461bcd60e51b81526004016104e490613719565b611a578c8c8c8c8c8c612e50565b6000805492965090945090611a76906001600160a01b03168e8e6123d6565b9050611a848d3383886124e0565b611a908c3383876124e0565b6040516335313c2160e11b81526001600160a01b03821690636a62784290611abc908a90600401613617565b6020604051808303816000875af1158015611adb573d6000803e3d6000fd5b505050506040513d601f19601f82011682018060405250810190611aff91906138ac565b92505050985098509895505050505050565b60008060008342811015611b375760405162461bcd60e51b81526004016104e490613719565b600154611b52908b906001600160a01b03168b348c8c612e50565b6000805460015493975091955091611b78916001600160a01b03908116918e91166123d6565b9050611b868b3383886124e0565b600160009054906101000a90046001600160a01b03166001600160a01b031663d0e30db0856040518263ffffffff1660e01b81526004016000604051808303818588803b158015611bd657600080fd5b505af1158015611bea573d6000803e3d6000fd5b505060015460405163a9059cbb60e01b81526001600160a01b03909116935063a9059cbb9250611c219150849088906004016138c5565b6020604051808303816000875af1158015611c40573d6000803e3d6000fd5b505050506040513d601f19601f82011682018060405250810190611c6491906138de565b611c7057611c706131aa565b6040516335313c2160e11b81526001600160a01b03821690636a62784290611c9c908a90600401613617565b6020604051808303816000875af1158015611cbb573d6000803e3d6000fd5b505050506040513d601f19601f82011682018060405250810190611cdf91906138ac565b925083341115611cfc57611cfc33611cf78634613763565b6120e0565b505096509650969350505050565b60608142811015611d2d5760405162461bcd60e51b81526004016104e490613719565b6001546001600160a01b03168686600081611d4a57611d4a613776565b9050602002016020810190611d5f919061378c565b6001600160a01b031614611d855760405162461bcd60e51b81526004016104e4906137b0565b6000546040805160208089028281018201909352888252611dcf936001600160a01b0316928b92918b918b918291908501908490808284376000920191909152506127ed92505050565b91503482600081518110611de557611de5613776565b60200260200101511115611e0b5760405162461bcd60e51b81526004016104e490613863565b60015482516001600160a01b039091169063d0e30db0908490600090611e3357611e33613776565b60200260200101516040518263ffffffff1660e01b81526004016000604051808303818588803b158015611e6657600080fd5b505af1158015611e7a573d6000803e3d6000fd5b5050600154600080546001600160a01b03928316955063a9059cbb9450611eb19350909116908a908a9081610ca657610ca6613776565b84600081518110611ec457611ec4613776565b60200260200101516040518363ffffffff1660e01b8152600401611ee99291906138c5565b6020604051808303816000875af1158015611f08573d6000803e3d6000fd5b505050506040513d601f19601f82011682018060405250810190611f2c91906138de565b611f3857611f386131aa565b611f778287878080602002602001604051908101604052809392919081815260200183836020028082843760009201919091525089925061260c915050565b81600081518110611f8a57611f8a613776565b60200260200101513411156112d3576112d33383600081518110611fb057611fb0613776565b602002602001015134611cf79190613763565b600080846001600160a01b031663a9059cbb8585604051602401611fe89291906138c5565b6040516020818303038152906040529060e01b6020820180516001600160e01b03838183161783525050505060405161202191906139d3565b6000604051808303816000865af19150503d806000811461205e576040519150601f19603f3d011682016040523d82523d6000602084013e612063565b606091505b509150915081801561208d57508051158061208d57508080602001905181019061208d91906138de565b6120d95760405162461bcd60e51b815260206004820152601f60248201527f5472616e7366657248656c7065723a205452414e534645525f4641494c45440060448201526064016104e4565b5050505050565b604080516000808252602082019092526001600160a01b03841690839060405161210a91906139d3565b60006040518083038185875af1925050503d8060008114612147576040519150601f19603f3d011682016040523d82523d6000602084013e61214c565b606091505b50509050806121a95760405162461bcd60e51b815260206004820152602360248201527f5472616e7366657248656c7065723a204554485f5452414e534645525f46414960448201526213115160ea1b60648201526084016104e4565b505050565b60008084116122035760405162461bcd60e51b815260206004820152602d6024820152600080516020613bc783398151915260448201526c17d25394155517d05353d55395609a1b60648201526084016104e4565b6000831180156122135750600082115b61222f5760405162461bcd60e51b81526004016104e4906139ef565b600061223d856103e561301e565b9050600061224b828561301e565b905060006122658361225f886103e861301e565b90613085565b90506122718183613a27565b979650505050505050565b60606002825110156122a05760405162461bcd60e51b81526004016104e490613a49565b81516001600160401b038111156122b9576122b961336c565b6040519080825280602002602001820160405280156122e2578160200160208202803683370190505b50905082816000815181106122f9576122f9613776565b60200260200101818152505060005b600183516123169190613763565b8110156123ce576000806123698786858151811061233657612336613776565b60200260200101518786600161234c9190613a7e565b8151811061235c5761235c613776565b60200260200101516130da565b9150915061239184848151811061238257612382613776565b602002602001015183836121ae565b8461239d856001613a7e565b815181106123ad576123ad613776565b602002602001018181525050505080806123c690613a91565b915050612308565b509392505050565b60008060006123e58585612d57565b6040516001600160601b0319606084811b8216602084015283901b1660348201529193509150869060480160405160208183030381529060405280519060200120876001600160a01b031663e8ecb23e6040518163ffffffff1660e01b8152600401602060405180830381865afa158015612464573d6000803e3d6000fd5b505050506040513d601f19601f8201168201806040525081019061248891906138ac565b6040516001600160f81b0319602082015260609390931b6001600160601b03191660218401526035830191909152605582015260750160408051601f1981840301815291905280516020909101209695505050505050565b600080856001600160a01b03166323b872dd868686604051602401612507939291906138fb565b6040516020818303038152906040529060e01b6020820180516001600160e01b03838183161783525050505060405161254091906139d3565b6000604051808303816000865af19150503d806000811461257d576040519150601f19603f3d011682016040523d82523d6000602084013e612582565b606091505b50915091508180156125ac5750805115806125ac5750808060200190518101906125ac91906138de565b6126045760405162461bcd60e51b8152602060048201526024808201527f5472616e7366657248656c7065723a205452414e534645525f46524f4d5f46416044820152631253115160e21b60648201526084016104e4565b505050505050565b60005b6001835161261d9190613763565b8110156127e75760008084838151811061263957612639613776565b60200260200101518584600161264f9190613a7e565b8151811061265f5761265f613776565b60200260200101519150915060006126778383612d57565b509050600087612688866001613a7e565b8151811061269857612698613776565b60200260200101519050600080836001600160a01b0316866001600160a01b0316146126c6578260006126ca565b6000835b91509150600060028a516126de9190613763565b88106126ea5788612724565b600054612724906001600160a01b0316878c6127078c6002613a7e565b8151811061271757612717613776565b60200260200101516123d6565b60005490915061273e906001600160a01b031688886123d6565b6001600160a01b031663022c0d9f84848460006040519080825280601f01601f19166020018201604052801561277b576020820181803683370190505b506040518563ffffffff1660e01b815260040161279b9493929190613aaa565b600060405180830381600087803b1580156127b557600080fd5b505af11580156127c9573d6000803e3d6000fd5b505050505050505050505080806127df90613a91565b91505061260f565b50505050565b60606002825110156128115760405162461bcd60e51b81526004016104e490613a49565b81516001600160401b0381111561282a5761282a61336c565b604051908082528060200260200182016040528015612853578160200160208202803683370190505b5090508281600183516128669190613763565b8151811061287657612876613776565b6020026020010181815250506000600183516128929190613763565b90505b80156123ce576000806128d887866128ae600187613763565b815181106128be576128be613776565b602002602001015187868151811061235c5761235c613776565b915091506129008484815181106128f1576128f1613776565b60200260200101518383612bfe565b8461290c600186613763565b8151811061291c5761291c613776565b6020026020010181815250505050808061293590613afa565b915050612895565b60005b6001835161294e9190613763565b8110156121a95760008084838151811061296a5761296a613776565b6020026020010151858460016129809190613a7e565b8151811061299057612990613776565b60200260200101519150915060006129a88383612d57565b5060008054919250906129c5906001600160a01b031685856123d6565b9050600080600080846001600160a01b0316630902f1ac6040518163ffffffff1660e01b8152600401606060405180830381865afa158015612a0b573d6000803e3d6000fd5b505050506040513d601f19601f82011682018060405250810190612a2f9190613b28565b506001600160701b031691506001600160701b03169150600080876001600160a01b03168a6001600160a01b031614612a69578284612a6c565b83835b91509150612aa0828b6001600160a01b03166370a082318a6040518263ffffffff1660e01b8152600401610e149190613617565b9550612aad8683836121ae565b945050505050600080856001600160a01b0316886001600160a01b031614612ad757826000612adb565b6000835b91509150600060028c51612aef9190613763565b8a10612afb578a612b18565b600054612b18906001600160a01b0316898e6127078e6002613a7e565b6040805160008152602081019182905263022c0d9f60e01b9091529091506001600160a01b0387169063022c0d9f90612b5a9086908690869060248101613aaa565b600060405180830381600087803b158015612b7457600080fd5b505af1158015612b88573d6000803e3d6000fd5b505050505050505050505050508080612ba090613a91565b915050612940565b600082612bb58382613763565b91508111156108915760405162461bcd60e51b815260206004820152601560248201527464732d6d6174682d7375622d756e646572666c6f7760581b60448201526064016104e4565b6000808411612c545760405162461bcd60e51b815260206004820152602e6024820152600080516020613bc783398151915260448201526d17d3d55514155517d05353d5539560921b60648201526084016104e4565b600083118015612c645750600082115b612c805760405162461bcd60e51b81526004016104e4906139ef565b6000612c986103e8612c92868861301e565b9061301e565b90506000612cac6103e5612c928689612ba8565b9050612cbd600161225f8385613a27565b9695505050505050565b6000808411612d165760405162461bcd60e51b81526020600482015260276024820152600080516020613bc783398151915260448201526617d05353d5539560ca1b60648201526084016104e4565b600083118015612d265750600082115b612d425760405162461bcd60e51b81526004016104e4906139ef565b82612d4d858461301e565b61059a9190613a27565b600080826001600160a01b0316846001600160a01b031603612dcb5760405162461bcd60e51b815260206004820152602760248201527f50616e63616b65537761704c6962726172793a204944454e544943414c5f41446044820152664452455353455360c81b60648201526084016104e4565b826001600160a01b0316846001600160a01b031610612deb578284612dee565b83835b90925090506001600160a01b038216612e495760405162461bcd60e51b815260206004820181905260248201527f50616e63616b65537761704c6962726172793a205a45524f5f4144445245535360448201526064016104e4565b9250929050565b6000805460405163e6a4390560e01b8152829182916001600160a01b039091169063e6a4390590612e87908c908c90600401613b78565b602060405180830381865afa158015612ea4573d6000803e3d6000fd5b505050506040513d601f19601f82011682018060405250810190612ec89190613b92565b6001600160a01b031603612f4d576000546040516364e329cb60e11b81526001600160a01b039091169063c9c6539690612f08908b908b90600401613b78565b6020604051808303816000875af1158015612f27573d6000803e3d6000fd5b505050506040513d601f19601f82011682018060405250810190612f4b9190613b92565b505b600080548190612f67906001600160a01b03168b8b6130da565b91509150816000148015612f79575080155b15612f8957879350869250613011565b6000612f96898484612cc7565b9050878111612fca5785811015612fbf5760405162461bcd60e51b81526004016104e490613979565b88945092508261300f565b6000612fd7898486612cc7565b905089811115612fe957612fe96131aa565b878110156130095760405162461bcd60e51b81526004016104e490613943565b94508793505b505b5050965096945050505050565b6000811580613042575082826130348183613baf565b92506130409083613a27565b145b6108915760405162461bcd60e51b815260206004820152601460248201527364732d6d6174682d6d756c2d6f766572666c6f7760601b60448201526064016104e4565b6000826130928382613a7e565b91508110156108915760405162461bcd60e51b815260206004820152601460248201527364732d6d6174682d6164642d6f766572666c6f7760601b60448201526064016104e4565b60008060006130e98585612d57565b50905060006130f98787876123d6565b9050600080826001600160a01b0316630902f1ac6040518163ffffffff1660e01b8152600401606060405180830381865afa15801561313c573d6000803e3d6000fd5b505050506040513d601f19601f820116820180604052508101906131609190613b28565b506001600160701b031691506001600160701b03169150836001600160a01b0316886001600160a01b03161461319757808261319a565b81815b909a909950975050505050505050565b634e487b7160e01b600052600160045260246000fd5b6001600160a01b03811681146131d557600080fd5b50565b80356131e3816131c0565b919050565b60008060008060008060c0878903121561320157600080fd5b863561320c816131c0565b95506020870135945060408701359350606087013592506080870135613231816131c0565b8092505060a087013590509295509295509295565b60008060006060848603121561325b57600080fd5b505081359360208301359350604090920135919050565b60008083601f84011261328457600080fd5b5081356001600160401b0381111561329b57600080fd5b6020830191508360208260051b8501011115612e4957600080fd5b60008060008060008060a087890312156132cf57600080fd5b863595506020870135945060408701356001600160401b038111156132f357600080fd5b6132ff89828a01613272565b9095509350506060870135613313816131c0565b80925050608087013590509295509295509295565b6020808252825182820181905260009190848201906040850190845b8181101561336057835183529284019291840191600101613344565b50909695505050505050565b634e487b7160e01b600052604160045260246000fd5b6000806040838503121561339557600080fd5b823591506020808401356001600160401b03808211156133b457600080fd5b818601915086601f8301126133c857600080fd5b8135818111156133da576133da61336c565b8060051b604051601f19603f830116810181811085821117156133ff576133ff61336c565b60405291825284820192508381018501918983111561341d57600080fd5b938501935b8285101561344257613433856131d8565b84529385019392850192613422565b8096505050505050509250929050565b80151581146131d557600080fd5b803560ff811681146131e357600080fd5b60008060008060008060008060008060006101608c8e03121561349357600080fd5b8b3561349e816131c0565b9a5060208c01356134ae816131c0565b995060408c0135985060608c0135975060808c0135965060a08c01356134d3816131c0565b955060c08c0135945060e08c01356134ea81613452565b93506134f96101008d01613460565b92506101208c013591506101408c013590509295989b509295989b9093969950565b6000806000806000806000806000806101408b8d03121561353b57600080fd5b8a35613546816131c0565b995060208b0135985060408b0135975060608b0135965060808b013561356b816131c0565b955060a08b0135945060c08b013561358281613452565b935061359060e08c01613460565b92506101008b013591506101208b013590509295989b9194979a5092959850565b6000806000806000608086880312156135c957600080fd5b8535945060208601356001600160401b038111156135e657600080fd5b6135f288828901613272565b9095509350506040860135613606816131c0565b949793965091946060013592915050565b6001600160a01b0391909116815260200190565b600080600080600080600060e0888a03121561364657600080fd5b8735613651816131c0565b96506020880135613661816131c0565b955060408801359450606088013593506080880135925060a0880135613686816131c0565b8092505060c0880135905092959891949750929550565b600080600080600080600080610100898b0312156136ba57600080fd5b88356136c5816131c0565b975060208901356136d5816131c0565b965060408901359550606089013594506080890135935060a0890135925060c0890135613701816131c0565b8092505060e089013590509295985092959890939650565b6020808252601a908201527914185b98d85ad954ddd85c149bdd5d195c8e881156141254915160321b604082015260600190565b634e487b7160e01b600052601160045260246000fd5b818103818111156108915761089161374d565b634e487b7160e01b600052603260045260246000fd5b60006020828403121561379e57600080fd5b81356137a9816131c0565b9392505050565b6020808252601f908201527f50616e63616b6553776170526f757465723a20494e56414c49445f5041544800604082015260600190565b6020808252602d90820152600080516020613be783398151915260408201526c13d55514155517d05353d55395609a1b606082015260800190565b6001600160a01b0397881681529590961660208601526040850193909352606084019190915260ff16608083015260a082015260c081019190915260e00190565b60208082526029908201527f50616e63616b6553776170526f757465723a204558434553534956455f494e50604082015268155517d05353d5539560ba1b606082015260800190565b6000602082840312156138be57600080fd5b5051919050565b6001600160a01b03929092168252602082015260400190565b6000602082840312156138f057600080fd5b81516137a981613452565b6001600160a01b039384168152919092166020820152604081019190915260600190565b6000806040838503121561393257600080fd5b505080516020909101519092909150565b6020808252602890820152600080516020613be78339815191526040820152671057d05353d5539560c21b606082015260800190565b6020808252602890820152600080516020613be78339815191526040820152671097d05353d5539560c21b606082015260800190565b60005b838110156139ca5781810151838201526020016139b2565b50506000910152565b600082516139e58184602087016139af565b9190910192915050565b6020808252602a90820152600080516020613bc78339815191526040820152695f4c495155494449545960b01b606082015260800190565b600082613a4457634e487b7160e01b600052601260045260246000fd5b500490565b6020808252818101527f50616e63616b65537761704c6962726172793a20494e56414c49445f50415448604082015260600190565b808201808211156108915761089161374d565b600060018201613aa357613aa361374d565b5060010190565b84815283602082015260018060a01b03831660408201526080606082015260008251806080840152613ae38160a08501602087016139af565b601f01601f19169190910160a00195945050505050565b600081613b0957613b0961374d565b506000190190565b80516001600160701b03811681146131e357600080fd5b600080600060608486031215613b3d57600080fd5b613b4684613b11565b9250613b5460208501613b11565b9150604084015163ffffffff81168114613b6d57600080fd5b809150509250925092565b6001600160a01b0392831681529116602082015260400190565b600060208284031215613ba457600080fd5b81516137a9816131c0565b80820281158282048414176108915761089161374d56fe50616e63616b65537761704c6962726172793a20494e53554646494349454e5450616e63616b6553776170526f757465723a20494e53554646494349454e545fa2646970667358221220d3ec6b59985598a7ebbb66c8b02785d50123af70abd12dd970db5575f9ea62c264736f6c63430008140033",
  "linkReferences": {},
  "deployedLinkReferences": {}
}