{
	"data": {
		"bytecode": {
			"linkReferences": {},
			"object": "60a060405234801562000010575f80fd5b506040516200689938038062006899833981810160405281019062000036919062000282565b8180335f73ffffffffffffffffffffffffffffffffffffffff168173ffffffffffffffffffffffffffffffffffffffff1603620000ac575f6040517f1e4fbdf7000000000000000000000000000000000000000000000000000000008152600401620000a39190620002d8565b60405180910390fd5b620000bd816200012060201b60201c565b508073ffffffffffffffffffffffffffffffffffffffff1660808173ffffffffffffffffffffffffffffffffffffffff1681525050505060016006819055508060075f6101000a81548161ffff021916908361ffff1602179055505050620002f3565b5f805f9054906101000a900473ffffffffffffffffffffffffffffffffffffffff169050815f806101000a81548173ffffffffffffffffffffffffffffffffffffffff021916908373ffffffffffffffffffffffffffffffffffffffff1602179055508173ffffffffffffffffffffffffffffffffffffffff168173ffffffffffffffffffffffffffffffffffffffff167f8be0079c531659141344cd1fd0a4f28419497f9722a3daafe3b4186f6b6457e060405160405180910390a35050565b5f80fd5b5f73ffffffffffffffffffffffffffffffffffffffff82169050919050565b5f6200021082620001e5565b9050919050565b620002228162000204565b81146200022d575f80fd5b50565b5f81519050620002408162000217565b92915050565b5f61ffff82169050919050565b6200025e8162000246565b811462000269575f80fd5b50565b5f815190506200027c8162000253565b92915050565b5f80604083850312156200029b576200029a620001e1565b5b5f620002aa8582860162000230565b9250506020620002bd858286016200026c565b9150509250929050565b620002d28162000204565b82525050565b5f602082019050620002ed5f830184620002c7565b92915050565b608051616555620003445f395f8181610ac101528181610d1701528181611012015281816111c5015281816112b501528181611b8201528181611ffb01528181612494015261391b01526165555ff3fe608060405260043610610264575f3560e01c80638da5cb5b11610143578063ca23bb4c116100b5578063e3179c3e11610079578063e3179c3e14610903578063eb8d72b71461093f578063ed629c5c14610967578063ee7a459614610991578063f2fde38b146109cd578063f5ecbdbc146109f557610264565b8063ca23bb4c14610851578063cbed8b9c1461086d578063d1deba1f14610895578063de9b9488146108b1578063df2a5b3b146108db57610264565b8063a2f27ae011610107578063a2f27ae014610747578063a6c3d16514610783578063abe685cd146107ab578063b353aaa7146107d5578063baf3292d146107ff578063c44618341461082757610264565b80638da5cb5b1461065157806392cc13c51461067b578063950c8a74146106b757806397167964146106e15780639f38369a1461070b57610264565b806342d65a8d116101dc57806366ad5c8a116101a057806366ad5c8a1461054357806368c4ac261461056b578063715018a6146105a75780637533d788146105bd57806376a9099a146105f95780638cfd8f5c1461061557610264565b806342d65a8d1461044e578063468b9668146104765780635747e69f146104b35780635b8c41e6146104dd57806361a552dc1461051957610264565b806310ddb1371161022e57806310ddb1371461033057806325a9f792146103585780632db88ecf146103825780633d8b38f6146103ac5780633f1f4fa4146103e85780633fc8cef31461042457610264565b80620d5900146102685780621d35671461029057806307e0db17146102b857806309824a80146102e05780630df3748314610308575b5f80fd5b348015610273575f80fd5b5061028e60048036038101906102899190613d00565b610a31565b005b34801561029b575f80fd5b506102b660048036038101906102b19190613e00565b610abf565b005b3480156102c3575f80fd5b506102de60048036038101906102d99190613ea3565b610d0d565b005b3480156102eb575f80fd5b5061030660048036038101906103019190613f28565b610d9e565b005b348015610313575f80fd5b5061032e60048036038101906103299190613f53565b610fde565b005b34801561033b575f80fd5b5061035660048036038101906103519190613ea3565b611008565b005b348015610363575f80fd5b5061036c611099565b6040516103799190613fa0565b60405180910390f35b34801561038d575f80fd5b5061039661109f565b6040516103a39190613fc8565b60405180910390f35b3480156103b7575f80fd5b506103d260048036038101906103cd9190613fe1565b6110b2565b6040516103df9190614058565b60405180910390f35b3480156103f3575f80fd5b5061040e60048036038101906104099190613ea3565b611181565b60405161041b9190613fa0565b60405180910390f35b34801561042f575f80fd5b50610438611196565b6040516104459190614080565b60405180910390f35b348015610459575f80fd5b50610474600480360381019061046f9190613fe1565b6111bb565b005b348015610481575f80fd5b5061049c600480360381019061049791906140bb565b611252565b6040516104aa929190614118565b60405180910390f35b3480156104be575f80fd5b506104c7611371565b6040516104d49190614058565b60405180910390f35b3480156104e8575f80fd5b5061050360048036038101906104fe9190614277565b611384565b60405161051091906142fb565b60405180910390f35b348015610524575f80fd5b5061052d6113c7565b60405161053a9190614058565b60405180910390f35b34801561054e575f80fd5b5061056960048036038101906105649190613e00565b6113da565b005b348015610576575f80fd5b50610591600480360381019061058c9190613f28565b6114e9565b60405161059e9190614058565b60405180910390f35b3480156105b2575f80fd5b506105bb611506565b005b3480156105c8575f80fd5b506105e360048036038101906105de9190613ea3565b611519565b6040516105f0919061438e565b60405180910390f35b610613600480360381019061060e91906143d8565b6115b4565b005b348015610620575f80fd5b5061063b6004803603810190610636919061446e565b611867565b6040516106489190613fa0565b60405180910390f35b34801561065c575f80fd5b50610665611887565b6040516106729190614080565b60405180910390f35b348015610686575f80fd5b506106a1600480360381019061069c9190613f28565b6118ae565b6040516106ae9190613fa0565b60405180910390f35b3480156106c2575f80fd5b506106cb6118c3565b6040516106d89190614080565b60405180910390f35b3480156106ec575f80fd5b506106f56118e8565b60405161070291906144c7565b60405180910390f35b348015610716575f80fd5b50610731600480360381019061072c9190613ea3565b6118ed565b60405161073e919061438e565b60405180910390f35b348015610752575f80fd5b5061076d60048036038101906107689190613f28565b6119ff565b60405161077a9190613fa0565b60405180910390f35b34801561078e575f80fd5b506107a960048036038101906107a49190613fe1565b611ae8565b005b3480156107b6575f80fd5b506107bf611b7a565b6040516107cc9190613fa0565b60405180910390f35b3480156107e0575f80fd5b506107e9611b80565b6040516107f6919061453b565b60405180910390f35b34801561080a575f80fd5b5061082560048036038101906108209190613f28565b611ba4565b005b348015610832575f80fd5b5061083b611c26565b6040516108489190613fa0565b60405180910390f35b61086b60048036038101906108669190614554565b611c2c565b005b348015610878575f80fd5b50610893600480360381019061088e91906145d8565b611ff1565b005b6108af60048036038101906108aa9190613e00565b61208e565b005b3480156108bc575f80fd5b506108c56122c4565b6040516108d29190613fa0565b60405180910390f35b3480156108e6575f80fd5b5061090160048036038101906108fc919061465c565b6122ca565b005b34801561090e575f80fd5b5061092960048036038101906109249190613f28565b612347565b60405161093691906146bb565b60405180910390f35b34801561094a575f80fd5b5061096560048036038101906109609190613fe1565b61236b565b005b348015610972575f80fd5b5061097b6123dc565b6040516109889190614058565b60405180910390f35b34801561099c575f80fd5b506109b760048036038101906109b29190613f28565b6123ef565b6040516109c49190614058565b60405180910390f35b3480156109d8575f80fd5b506109f360048036038101906109ee9190613f28565b61240c565b005b348015610a00575f80fd5b50610a1b6004803603810190610a1691906146d4565b612490565b604051610a28919061438e565b60405180910390f35b610a3961253d565b612710811115610a7e576040517f08c379a0000000000000000000000000000000000000000000000000000000008152600401610a7590614792565b60405180910390fd5b806008819055507f9a749c8193bfd56b2b2a05c0bd18fbb0f69801a3fd6576c40b90537fd0fc385481604051610ab49190613fa0565b60405180910390a150565b7f000000000000000000000000000000000000000000000000000000000000000073ffffffffffffffffffffffffffffffffffffffff16610afe6125c4565b73ffffffffffffffffffffffffffffffffffffffff1614610b54576040517f08c379a0000000000000000000000000000000000000000000000000000000008152600401610b4b906147fa565b60405180910390fd5b5f60015f8861ffff1661ffff1681526020019081526020015f208054610b7990614845565b80601f0160208091040260200160405190810160405280929190818152602001828054610ba590614845565b8015610bf05780601f10610bc757610100808354040283529160200191610bf0565b820191905f5260205f20905b815481529060010190602001808311610bd357829003601f168201915b50505050509050805186869050148015610c0a57505f8151115b8015610c33575080805190602001208686604051610c299291906148a3565b6040518091039020145b610c72576040517f08c379a0000000000000000000000000000000000000000000000000000000008152600401610c699061492b565b60405180910390fd5b610d048787878080601f0160208091040260200160405190810160405280939291908181526020018383808284375f81840152601f19601f820116905080830192505050505050508686868080601f0160208091040260200160405190810160405280939291908181526020018383808284375f81840152601f19601f820116905080830192505050505050506125cb565b50505050505050565b610d1561253d565b7f000000000000000000000000000000000000000000000000000000000000000073ffffffffffffffffffffffffffffffffffffffff166307e0db17826040518263ffffffff1660e01b8152600401610d6e9190613fc8565b5f604051808303815f87803b158015610d85575f80fd5b505af1158015610d97573d5f803e3d5ffd5b5050505050565b610da661253d565b5f73ffffffffffffffffffffffffffffffffffffffff168173ffffffffffffffffffffffffffffffffffffffff1603610e14576040517f08c379a0000000000000000000000000000000000000000000000000000000008152600401610e0b906149b9565b60405180910390fd5b600a5f8273ffffffffffffffffffffffffffffffffffffffff1673ffffffffffffffffffffffffffffffffffffffff1681526020019081526020015f205f9054906101000a900460ff1615610e9e576040517f08c379a0000000000000000000000000000000000000000000000000000000008152600401610e9590614a47565b60405180910390fd5b5f610ea882612695565b9050600660ff168160ff161015610ef4576040517f08c379a0000000000000000000000000000000000000000000000000000000008152600401610eeb90614ad5565b60405180910390fd5b6001600a5f8473ffffffffffffffffffffffffffffffffffffffff1673ffffffffffffffffffffffffffffffffffffffff1681526020019081526020015f205f6101000a81548160ff021916908315150217905550600681610f569190614b20565b600a610f629190614c83565b600c5f8473ffffffffffffffffffffffffffffffffffffffff1673ffffffffffffffffffffffffffffffffffffffff1681526020019081526020015f20819055507ff7fe8023cb2e36bde1d59a88ac5763a8c11be6d25e6819f71bb7e23e5bf0dc1682604051610fd29190614080565b60405180910390a15050565b610fe661253d565b8060035f8461ffff1661ffff1681526020019081526020015f20819055505050565b61101061253d565b7f000000000000000000000000000000000000000000000000000000000000000073ffffffffffffffffffffffffffffffffffffffff166310ddb137826040518263ffffffff1660e01b81526004016110699190613fc8565b5f604051808303815f87803b158015611080575f80fd5b505af1158015611092573d5f803e3d5ffd5b5050505050565b60085481565b60075f9054906101000a900461ffff1681565b5f8060015f8661ffff1661ffff1681526020019081526020015f2080546110d890614845565b80601f016020809104026020016040519081016040528092919081815260200182805461110490614845565b801561114f5780601f106111265761010080835404028352916020019161114f565b820191905f5260205f20905b81548152906001019060200180831161113257829003601f168201915b5050505050905083836040516111669291906148a3565b60405180910390208180519060200120149150509392505050565b6003602052805f5260405f205f915090505481565b600d5f9054906101000a900473ffffffffffffffffffffffffffffffffffffffff1681565b6111c361253d565b7f000000000000000000000000000000000000000000000000000000000000000073ffffffffffffffffffffffffffffffffffffffff166342d65a8d8484846040518463ffffffff1660e01b815260040161122093929190614cf9565b5f604051808303815f87803b158015611237575f80fd5b505af1158015611249573d5f803e3d5ffd5b50505050505050565b5f8061125e84846127de565b5f61126c5f805f1b5f6128b2565b90505f8073ffffffffffffffffffffffffffffffffffffffff168760200160208101906112999190613f28565b73ffffffffffffffffffffffffffffffffffffffff16141590507f000000000000000000000000000000000000000000000000000000000000000073ffffffffffffffffffffffffffffffffffffffff166340a7bb1060075f9054906101000a900461ffff163085858b8b6040518763ffffffff1660e01b815260040161132596959493929190614d29565b6040805180830381865afa15801561133f573d5f803e3d5ffd5b505050506040513d601f19601f820116820180604052508101906113639190614d9e565b935093505050935093915050565b600d60169054906101000a900460ff1681565b6005602052825f5260405f2082805160208101820180518482526020830160208501208183528095505050505050602052805f5260405f205f9250925050505481565b600d60159054906101000a900460ff1681565b3073ffffffffffffffffffffffffffffffffffffffff166113f96125c4565b73ffffffffffffffffffffffffffffffffffffffff161461144f576040517f08c379a000000000000000000000000000000000000000000000000000000000815260040161144690614e4c565b60405180910390fd5b6114e18686868080601f0160208091040260200160405190810160405280939291908181526020018383808284375f81840152601f19601f820116905080830192505050505050508585858080601f0160208091040260200160405190810160405280939291908181526020018383808284375f81840152601f19601f82011690508083019250505050505050612902565b505050505050565b600a602052805f5260405f205f915054906101000a900460ff1681565b61150e61253d565b6115175f612db1565b565b6001602052805f5260405f205f91509050805461153590614845565b80601f016020809104026020016040519081016040528092919081815260200182805461156190614845565b80156115ac5780601f10611583576101008083540402835291602001916115ac565b820191905f5260205f20905b81548152906001019060200180831161158f57829003601f168201915b505050505081565b85600d60159054906101000a900460ff161580156116195750600b5f8273ffffffffffffffffffffffffffffffffffffffff1673ffffffffffffffffffffffffffffffffffffffff1681526020019081526020015f205f9054906101000a900460ff16155b611658576040517f08c379a000000000000000000000000000000000000000000000000000000000815260040161164f90614eb4565b60405180910390fd5b611660612e72565b600a5f8873ffffffffffffffffffffffffffffffffffffffff1673ffffffffffffffffffffffffffffffffffffffff1681526020019081526020015f205f9054906101000a900460ff166116e9576040517f08c379a00000000000000000000000000000000000000000000000000000000081526004016116e090614f42565b60405180910390fd5b6116f38786612ec1565b9450611700873387612edd565b94505f61170d8887613018565b90505f8167ffffffffffffffff161161175b576040517f08c379a000000000000000000000000000000000000000000000000000000000815260040161175290614fd0565b60405180910390fd5b8060095f8a73ffffffffffffffffffffffffffffffffffffffff1673ffffffffffffffffffffffffffffffffffffffff1681526020019081526020015f205f8282829054906101000a900467ffffffffffffffff166117ba9190614fee565b92506101000a81548167ffffffffffffffff021916908367ffffffffffffffff1602179055506117ef888883888888346130bc565b863373ffffffffffffffffffffffffffffffffffffffff168973ffffffffffffffffffffffffffffffffffffffff167fbe6ff12fec5087498d44bc85f1a83235a630944a1e2d5a7938afe810370a58678960405161184d9190613fa0565b60405180910390a45061185e613161565b50505050505050565b6002602052815f5260405f20602052805f5260405f205f91509150505481565b5f805f9054906101000a900473ffffffffffffffffffffffffffffffffffffffff16905090565b600c602052805f5260405f205f915090505481565b60045f9054906101000a900473ffffffffffffffffffffffffffffffffffffffff1681565b600681565b60605f60015f8461ffff1661ffff1681526020019081526020015f20805461191490614845565b80601f016020809104026020016040519081016040528092919081815260200182805461194090614845565b801561198b5780601f106119625761010080835404028352916020019161198b565b820191905f5260205f20905b81548152906001019060200180831161196e57829003601f168201915b505050505090505f8151036119d5576040517f08c379a00000000000000000000000000000000000000000000000000000000081526004016119cc90615073565b60405180910390fd5b6119f75f601483516119e79190615091565b8361316b9092919063ffffffff16565b915050919050565b5f80611a5b8360095f8673ffffffffffffffffffffffffffffffffffffffff1673ffffffffffffffffffffffffffffffffffffffff1681526020019081526020015f205f9054906101000a900467ffffffffffffffff16613287565b9050808373ffffffffffffffffffffffffffffffffffffffff166370a08231306040518263ffffffff1660e01b8152600401611a979190614080565b602060405180830381865afa158015611ab2573d5f803e3d5ffd5b505050506040513d601f19601f82011682018060405250810190611ad691906150c4565b611ae09190615091565b915050919050565b611af061253d565b818130604051602001611b0593929190615134565b60405160208183030381529060405260015f8561ffff1661ffff1681526020019081526020015f209081611b3991906152f1565b507f8c0400cfe2d1199b1a725c78960bcc2a344d869b80590d0f2bd005db15a572ce838383604051611b6d93929190614cf9565b60405180910390a1505050565b61271081565b7f000000000000000000000000000000000000000000000000000000000000000081565b611bac61253d565b8060045f6101000a81548173ffffffffffffffffffffffffffffffffffffffff021916908373ffffffffffffffffffffffffffffffffffffffff1602179055507f5db758e995a17ec1ad84bdef7e8c3293a0bd6179bcce400dff5d4c3d87db726b81604051611c1b9190614080565b60405180910390a150565b61271081565b600d5f9054906101000a900473ffffffffffffffffffffffffffffffffffffffff16600d60159054906101000a900460ff16158015611cb25750600b5f8273ffffffffffffffffffffffffffffffffffffffff1673ffffffffffffffffffffffffffffffffffffffff1681526020019081526020015f205f9054906101000a900460ff16155b611cf1576040517f08c379a0000000000000000000000000000000000000000000000000000000008152600401611ce890614eb4565b60405180910390fd5b611cf9612e72565b5f600d5f9054906101000a900473ffffffffffffffffffffffffffffffffffffffff1690505f73ffffffffffffffffffffffffffffffffffffffff168173ffffffffffffffffffffffffffffffffffffffff1614158015611da05750600a5f8273ffffffffffffffffffffffffffffffffffffffff1673ffffffffffffffffffffffffffffffffffffffff1681526020019081526020015f205f9054906101000a900460ff165b611ddf576040517f08c379a0000000000000000000000000000000000000000000000000000000008152600401611dd690615430565b60405180910390fd5b611de98187612ec1565b95505f8611611e2d576040517f08c379a0000000000000000000000000000000000000000000000000000000008152600401611e24906154be565b60405180910390fd5b85341015611e70576040517f08c379a0000000000000000000000000000000000000000000000000000000008152600401611e6790615526565b60405180910390fd5b8073ffffffffffffffffffffffffffffffffffffffff1663d0e30db0876040518263ffffffff1660e01b81526004015f604051808303818588803b158015611eb6575f80fd5b505af1158015611ec8573d5f803e3d5ffd5b50505050505f611ed88288613018565b90508060095f8473ffffffffffffffffffffffffffffffffffffffff1673ffffffffffffffffffffffffffffffffffffffff1681526020019081526020015f205f8282829054906101000a900467ffffffffffffffff16611f399190614fee565b92506101000a81548167ffffffffffffffff021916908367ffffffffffffffff160217905550611f798289838989898d34611f749190615091565b6130bc565b873373ffffffffffffffffffffffffffffffffffffffff165f73ffffffffffffffffffffffffffffffffffffffff167fbe6ff12fec5087498d44bc85f1a83235a630944a1e2d5a7938afe810370a58678a604051611fd79190613fa0565b60405180910390a45050611fe9613161565b505050505050565b611ff961253d565b7f000000000000000000000000000000000000000000000000000000000000000073ffffffffffffffffffffffffffffffffffffffff1663cbed8b9c86868686866040518663ffffffff1660e01b815260040161205a959493929190615544565b5f604051808303815f87803b158015612071575f80fd5b505af1158015612083573d5f803e3d5ffd5b505050505050505050565b5f60055f8861ffff1661ffff1681526020019081526020015f2086866040516120b89291906148a3565b90815260200160405180910390205f8567ffffffffffffffff1667ffffffffffffffff1681526020019081526020015f205490505f801b8103612130576040517f08c379a000000000000000000000000000000000000000000000000000000000815260040161212790615600565b60405180910390fd5b8083836040516121419291906148a3565b604051809103902014612189576040517f08c379a00000000000000000000000000000000000000000000000000000000081526004016121809061568e565b60405180910390fd5b5f801b60055f8961ffff1661ffff1681526020019081526020015f2087876040516121b59291906148a3565b90815260200160405180910390205f8667ffffffffffffffff1667ffffffffffffffff1681526020019081526020015f208190555061227c8787878080601f0160208091040260200160405190810160405280939291908181526020018383808284375f81840152601f19601f820116905080830192505050505050508686868080601f0160208091040260200160405190810160405280939291908181526020018383808284375f81840152601f19601f82011690508083019250505050505050612902565b7fc264d91f3adc5588250e1551f547752ca0cfa8f6b530d243b9f9f4cab10ea8e587878787856040516122b39594939291906156ac565b60405180910390a150505050505050565b600e5481565b6122d261253d565b8060025f8561ffff1661ffff1681526020019081526020015f205f8461ffff1661ffff1681526020019081526020015f20819055507f9d5c7c0b934da8fefa9c7760c98383778a12dfbfc0c3b3106518f43fb9508ac083838360405161233a939291906156f8565b60405180910390a1505050565b6009602052805f5260405f205f915054906101000a900467ffffffffffffffff1681565b61237361253d565b818160015f8661ffff1661ffff1681526020019081526020015f20918261239b929190615737565b507ffa41487ad5d6728f0b19276fa1eddc16558578f5109fc39d2dc33c3230470dab8383836040516123cf93929190614cf9565b60405180910390a1505050565b600d60149054906101000a900460ff1681565b600b602052805f5260405f205f915054906101000a900460ff1681565b61241461253d565b5f73ffffffffffffffffffffffffffffffffffffffff168173ffffffffffffffffffffffffffffffffffffffff1603612484575f6040517f1e4fbdf700000000000000000000000000000000000000000000000000000000815260040161247b9190614080565b60405180910390fd5b61248d81612db1565b50565b60607f000000000000000000000000000000000000000000000000000000000000000073ffffffffffffffffffffffffffffffffffffffff1663f5ecbdbc868630866040518563ffffffff1660e01b81526004016124f19493929190615804565b5f60405180830381865afa15801561250b573d5f803e3d5ffd5b505050506040513d5f823e3d601f19601f8201168201806040525081019061253391906158b5565b9050949350505050565b6125456125c4565b73ffffffffffffffffffffffffffffffffffffffff16612563611887565b73ffffffffffffffffffffffffffffffffffffffff16146125c2576125866125c4565b6040517f118cdaa70000000000000000000000000000000000000000000000000000000081526004016125b99190614080565b60405180910390fd5b565b5f33905090565b5f806126765a60966366ad5c8a60e01b898989896040516024016125f294939291906158fc565b604051602081830303815290604052907bffffffffffffffffffffffffffffffffffffffffffffffffffffffff19166020820180517bffffffffffffffffffffffffffffffffffffffffffffffffffffffff83818316178352505050503073ffffffffffffffffffffffffffffffffffffffff166132e3909392919063ffffffff16565b915091508161268d5761268c8686868685613375565b5b505050505050565b5f805f8373ffffffffffffffffffffffffffffffffffffffff166040516024016040516020818303038152906040527f313ce567000000000000000000000000000000000000000000000000000000007bffffffffffffffffffffffffffffffffffffffffffffffffffffffff19166020820180517bffffffffffffffffffffffffffffffffffffffffffffffffffffffff838183161783525050505060405161273f919061597d565b5f60405180830381855afa9150503d805f8114612777576040519150601f19603f3d011682016040523d82523d5f602084013e61277c565b606091505b5091509150816127c1576040517f08c379a00000000000000000000000000000000000000000000000000000000081526004016127b890615a03565b60405180910390fd5b808060200190518101906127d59190615a4b565b92505050919050565b600d60149054906101000a900460ff16156128685761286360075f9054906101000a900461ffff165f600181111561281957612818615a76565b5b84848080601f0160208091040260200160405190810160405280939291908181526020018383808284375f81840152601f19601f820116905080830192505050505050505f61341f565b6128ae565b5f82829050146128ad576040517f08c379a00000000000000000000000000000000000000000000000000000000081526004016128a490615b13565b60405180910390fd5b5b5050565b60605f6128be856134f7565b90505f60018111156128d3576128d2615a76565b5b8185856040516020016128e99493929190615bb9565b6040516020818303038152906040529150509392505050565b60075f9054906101000a900461ffff1661ffff168461ffff161461295b576040517f08c379a000000000000000000000000000000000000000000000000000000000815260040161295290615c76565b60405180910390fd5b5f805f8061296885613518565b9350935093509350600d60159054906101000a900460ff161580156129d45750600b5f8573ffffffffffffffffffffffffffffffffffffffff1673ffffffffffffffffffffffffffffffffffffffff1681526020019081526020015f205f9054906101000a900460ff16155b612a13576040517f08c379a0000000000000000000000000000000000000000000000000000000008152600401612a0a90614eb4565b60405180910390fd5b600a5f8573ffffffffffffffffffffffffffffffffffffffff1673ffffffffffffffffffffffffffffffffffffffff1681526020019081526020015f205f9054906101000a900460ff16612a9c576040517f08c379a0000000000000000000000000000000000000000000000000000000008152600401612a9390614f42565b60405180910390fd5b5f60095f8673ffffffffffffffffffffffffffffffffffffffff1673ffffffffffffffffffffffffffffffffffffffff1681526020019081526020015f205f9054906101000a900467ffffffffffffffff1690508267ffffffffffffffff168167ffffffffffffffff161015612b47576040517f08c379a0000000000000000000000000000000000000000000000000000000008152600401612b3e90615d04565b60405180910390fd5b8281612b539190615d22565b60095f8773ffffffffffffffffffffffffffffffffffffffff1673ffffffffffffffffffffffffffffffffffffffff1681526020019081526020015f205f6101000a81548167ffffffffffffffff021916908367ffffffffffffffff1602179055505f612bc08685613287565b90505f60085411612bd257805f612bdc565b612bdb81613646565b5b5080915050600d5f9054906101000a900473ffffffffffffffffffffffffffffffffffffffff1673ffffffffffffffffffffffffffffffffffffffff168673ffffffffffffffffffffffffffffffffffffffff16148015612c3a5750825b15612cd557612c6b600d5f9054906101000a900473ffffffffffffffffffffffffffffffffffffffff168683613678565b8473ffffffffffffffffffffffffffffffffffffffff165f73ffffffffffffffffffffffffffffffffffffffff167ffd19781f43410d9594fd4c02dd1d98dbe99099cbd222d5851a6e183c468d33ca83604051612cc89190613fa0565b60405180910390a3612da5565b5f73ffffffffffffffffffffffffffffffffffffffff168573ffffffffffffffffffffffffffffffffffffffff1614612d0e5784612d12565b61dead5b9450612d3f85828873ffffffffffffffffffffffffffffffffffffffff166137279092919063ffffffff16565b8473ffffffffffffffffffffffffffffffffffffffff168673ffffffffffffffffffffffffffffffffffffffff167ffd19781f43410d9594fd4c02dd1d98dbe99099cbd222d5851a6e183c468d33ca83604051612d9c9190613fa0565b60405180910390a35b50505050505050505050565b5f805f9054906101000a900473ffffffffffffffffffffffffffffffffffffffff169050815f806101000a81548173ffffffffffffffffffffffffffffffffffffffff021916908373ffffffffffffffffffffffffffffffffffffffff1602179055508173ffffffffffffffffffffffffffffffffffffffff168173ffffffffffffffffffffffffffffffffffffffff167f8be0079c531659141344cd1fd0a4f28419497f9722a3daafe3b4186f6b6457e060405160405180910390a35050565b600260065403612eb7576040517f08c379a0000000000000000000000000000000000000000000000000000000008152600401612eae90615da7565b60405180910390fd5b6002600681905550565b5f612ed583612ed08585613018565b613287565b905092915050565b5f808473ffffffffffffffffffffffffffffffffffffffff166370a08231306040518263ffffffff1660e01b8152600401612f189190614080565b602060405180830381865afa158015612f33573d5f803e3d5ffd5b505050506040513d601f19601f82011682018060405250810190612f5791906150c4565b9050612f868430858873ffffffffffffffffffffffffffffffffffffffff166137a6909392919063ffffffff16565b5f8573ffffffffffffffffffffffffffffffffffffffff166370a08231306040518263ffffffff1660e01b8152600401612fc09190614080565b602060405180830381865afa158015612fdb573d5f803e3d5ffd5b505050506040513d601f19601f82011682018060405250810190612fff91906150c4565b9050818161300d9190615091565b925050509392505050565b5f80600c5f8573ffffffffffffffffffffffffffffffffffffffff1673ffffffffffffffffffffffffffffffffffffffff1681526020019081526020015f2054836130639190615df2565b905067ffffffffffffffff80168111156130b2576040517f08c379a00000000000000000000000000000000000000000000000000000000081526004016130a990615e6c565b60405180910390fd5b8091505092915050565b6130c683836127de565b5f6130d28888886128b2565b905061315760075f9054906101000a900461ffff1682875f0160208101906130fa9190615ec5565b88602001602081019061310d9190613f28565b88888080601f0160208091040260200160405190810160405280939291908181526020018383808284375f81840152601f19601f8201169050808301925050505050505087613828565b5050505050505050565b6001600681905550565b606081601f8361317b9190615ef0565b10156131bc576040517f08c379a00000000000000000000000000000000000000000000000000000000081526004016131b390615f6d565b60405180910390fd5b81836131c89190615ef0565b8451101561320b576040517f08c379a000000000000000000000000000000000000000000000000000000000815260040161320290615fd5565b60405180910390fd5b606082155f811461322a5760405191505f82526020820160405261327b565b6040519150601f8416801560200281840101858101878315602002848b0101015b81831015613268578051835260208301925060208101905061324b565b50868552601f19601f8301166040525050505b50809150509392505050565b5f600c5f8473ffffffffffffffffffffffffffffffffffffffff1673ffffffffffffffffffffffffffffffffffffffff1681526020019081526020015f20548267ffffffffffffffff166132db9190615ff3565b905092915050565b5f60605f805f8661ffff1667ffffffffffffffff81111561330757613306614153565b5b6040519080825280601f01601f1916602001820160405280156133395781602001600182028036833780820191505090505b5090505f808751602089015f8d8df191503d925086831115613359578692505b828152825f602083013e81819450945050505094509492505050565b818051906020012060055f8761ffff1661ffff1681526020019081526020015f20856040516133a4919061597d565b90815260200160405180910390205f8567ffffffffffffffff1667ffffffffffffffff1681526020019081526020015f20819055507fe183f33de2837795525b4792ca4cd60535bd77c53b7e7030060bfcf5734d6b0c8585858585604051613410959493929190616034565b60405180910390a15050505050565b5f613429836139b4565b90505f60025f8761ffff1661ffff1681526020019081526020015f205f8661ffff1661ffff1681526020019081526020015f205490505f81116134a1576040517f08c379a0000000000000000000000000000000000000000000000000000000008152600401613498906160e4565b60405180910390fd5b82816134ad9190615ef0565b8210156134ef576040517f08c379a00000000000000000000000000000000000000000000000000000000081526004016134e69061614c565b60405180910390fd5b505050505050565b5f8173ffffffffffffffffffffffffffffffffffffffff165f1b9050919050565b5f805f80604a855114613560576040517f08c379a0000000000000000000000000000000000000000000000000000000008152600401613557906161da565b60405180910390fd5b5f855f81518110613574576135736161f8565b5b602001015160f81c60f81b60f81c60ff16600181111561359757613596615a76565b5b90506001808111156135ac576135ab615a76565b5b8160018111156135bf576135be615a76565b5b146135ff576040517f08c379a00000000000000000000000000000000000000000000000000000000081526004016135f69061626f565b60405180910390fd5b60218601519450604186015193506049860151925060018660498151811061362a576136296161f8565b5b602001015160f81c60f81b60f81c60ff16149150509193509193565b5f80612710600854846136599190615ff3565b6136639190615df2565b905080836136719190615091565b9150915091565b8273ffffffffffffffffffffffffffffffffffffffff16632e1a7d4d826040518263ffffffff1660e01b81526004016136b19190613fa0565b5f604051808303815f87803b1580156136c8575f80fd5b505af11580156136da573d5f803e3d5ffd5b505050508173ffffffffffffffffffffffffffffffffffffffff166108fc8290811502906040515f60405180830381858888f19350505050158015613721573d5f803e3d5ffd5b50505050565b6137a1838473ffffffffffffffffffffffffffffffffffffffff1663a9059cbb858560405160240161375a92919061628d565b604051602081830303815290604052915060e01b6020820180517bffffffffffffffffffffffffffffffffffffffffffffffffffffffff8381831617835250505050613a06565b505050565b613822848573ffffffffffffffffffffffffffffffffffffffff166323b872dd8686866040516024016137db939291906162b4565b604051602081830303815290604052915060e01b6020820180517bffffffffffffffffffffffffffffffffffffffffffffffffffffffff8381831617835250505050613a06565b50505050565b5f60015f8861ffff1661ffff1681526020019081526020015f20805461384d90614845565b80601f016020809104026020016040519081016040528092919081815260200182805461387990614845565b80156138c45780601f1061389b576101008083540402835291602001916138c4565b820191905f5260205f20905b8154815290600101906020018083116138a757829003601f168201915b505050505090505f81510361390e576040517f08c379a000000000000000000000000000000000000000000000000000000000815260040161390590616359565b60405180910390fd5b613919878751613a9b565b7f000000000000000000000000000000000000000000000000000000000000000073ffffffffffffffffffffffffffffffffffffffff1663c58031008389848a8a8a8a6040518863ffffffff1660e01b815260040161397d96959493929190616386565b5f604051808303818588803b158015613994575f80fd5b505af11580156139a6573d5f803e3d5ffd5b505050505050505050505050565b5f6022825110156139fa576040517f08c379a00000000000000000000000000000000000000000000000000000000081526004016139f190616444565b60405180910390fd5b60228201519050919050565b5f613a30828473ffffffffffffffffffffffffffffffffffffffff16613b0d90919063ffffffff16565b90505f815114158015613a54575080806020019051810190613a52919061648c565b155b15613a9657826040517f5274afe7000000000000000000000000000000000000000000000000000000008152600401613a8d9190614080565b60405180910390fd5b505050565b5f60035f8461ffff1661ffff1681526020019081526020015f205490505f8103613ac55761271090505b80821115613b08576040517f08c379a0000000000000000000000000000000000000000000000000000000008152600401613aff90616501565b60405180910390fd5b505050565b6060613b1a83835f613b22565b905092915050565b606081471015613b6957306040517fcd786059000000000000000000000000000000000000000000000000000000008152600401613b609190614080565b60405180910390fd5b5f808573ffffffffffffffffffffffffffffffffffffffff168486604051613b91919061597d565b5f6040518083038185875af1925050503d805f8114613bcb576040519150601f19603f3d011682016040523d82523d5f602084013e613bd0565b606091505b5091509150613be0868383613beb565b925050509392505050565b606082613c0057613bfb82613c78565b613c70565b5f8251148015613c2657505f8473ffffffffffffffffffffffffffffffffffffffff163b145b15613c6857836040517f9996b315000000000000000000000000000000000000000000000000000000008152600401613c5f9190614080565b60405180910390fd5b819050613c71565b5b9392505050565b5f81511115613c8a5780518082602001fd5b6040517f1425ea4200000000000000000000000000000000000000000000000000000000815260040160405180910390fd5b5f604051905090565b5f80fd5b5f80fd5b5f819050919050565b613cdf81613ccd565b8114613ce9575f80fd5b50565b5f81359050613cfa81613cd6565b92915050565b5f60208284031215613d1557613d14613cc5565b5b5f613d2284828501613cec565b91505092915050565b5f61ffff82169050919050565b613d4181613d2b565b8114613d4b575f80fd5b50565b5f81359050613d5c81613d38565b92915050565b5f80fd5b5f80fd5b5f80fd5b5f8083601f840112613d8357613d82613d62565b5b8235905067ffffffffffffffff811115613da057613d9f613d66565b5b602083019150836001820283011115613dbc57613dbb613d6a565b5b9250929050565b5f67ffffffffffffffff82169050919050565b613ddf81613dc3565b8114613de9575f80fd5b50565b5f81359050613dfa81613dd6565b92915050565b5f805f805f8060808789031215613e1a57613e19613cc5565b5b5f613e2789828a01613d4e565b965050602087013567ffffffffffffffff811115613e4857613e47613cc9565b5b613e5489828a01613d6e565b95509550506040613e6789828a01613dec565b935050606087013567ffffffffffffffff811115613e8857613e87613cc9565b5b613e9489828a01613d6e565b92509250509295509295509295565b5f60208284031215613eb857613eb7613cc5565b5b5f613ec584828501613d4e565b91505092915050565b5f73ffffffffffffffffffffffffffffffffffffffff82169050919050565b5f613ef782613ece565b9050919050565b613f0781613eed565b8114613f11575f80fd5b50565b5f81359050613f2281613efe565b92915050565b5f60208284031215613f3d57613f3c613cc5565b5b5f613f4a84828501613f14565b91505092915050565b5f8060408385031215613f6957613f68613cc5565b5b5f613f7685828601613d4e565b9250506020613f8785828601613cec565b9150509250929050565b613f9a81613ccd565b82525050565b5f602082019050613fb35f830184613f91565b92915050565b613fc281613d2b565b82525050565b5f602082019050613fdb5f830184613fb9565b92915050565b5f805f60408486031215613ff857613ff7613cc5565b5b5f61400586828701613d4e565b935050602084013567ffffffffffffffff81111561402657614025613cc9565b5b61403286828701613d6e565b92509250509250925092565b5f8115159050919050565b6140528161403e565b82525050565b5f60208201905061406b5f830184614049565b92915050565b61407a81613eed565b82525050565b5f6020820190506140935f830184614071565b92915050565b5f80fd5b5f604082840312156140b2576140b1614099565b5b81905092915050565b5f805f606084860312156140d2576140d1613cc5565b5b5f6140df8682870161409d565b935050604084013567ffffffffffffffff811115614100576140ff613cc9565b5b61410c86828701613d6e565b92509250509250925092565b5f60408201905061412b5f830185613f91565b6141386020830184613f91565b9392505050565b5f80fd5b5f601f19601f8301169050919050565b7f4e487b71000000000000000000000000000000000000000000000000000000005f52604160045260245ffd5b61418982614143565b810181811067ffffffffffffffff821117156141a8576141a7614153565b5b80604052505050565b5f6141ba613cbc565b90506141c68282614180565b919050565b5f67ffffffffffffffff8211156141e5576141e4614153565b5b6141ee82614143565b9050602081019050919050565b828183375f83830152505050565b5f61421b614216846141cb565b6141b1565b9050828152602081018484840111156142375761423661413f565b5b6142428482856141fb565b509392505050565b5f82601f83011261425e5761425d613d62565b5b813561426e848260208601614209565b91505092915050565b5f805f6060848603121561428e5761428d613cc5565b5b5f61429b86828701613d4e565b935050602084013567ffffffffffffffff8111156142bc576142bb613cc9565b5b6142c88682870161424a565b92505060406142d986828701613dec565b9150509250925092565b5f819050919050565b6142f5816142e3565b82525050565b5f60208201905061430e5f8301846142ec565b92915050565b5f81519050919050565b5f82825260208201905092915050565b5f5b8381101561434b578082015181840152602081019050614330565b5f8484015250505050565b5f61436082614314565b61436a818561431e565b935061437a81856020860161432e565b61438381614143565b840191505092915050565b5f6020820190508181035f8301526143a68184614356565b905092915050565b6143b7816142e3565b81146143c1575f80fd5b50565b5f813590506143d2816143ae565b92915050565b5f805f805f8060c087890312156143f2576143f1613cc5565b5b5f6143ff89828a01613f14565b965050602061441089828a016143c4565b955050604061442189828a01613cec565b945050606061443289828a0161409d565b93505060a087013567ffffffffffffffff81111561445357614452613cc9565b5b61445f89828a01613d6e565b92509250509295509295509295565b5f806040838503121561448457614483613cc5565b5b5f61449185828601613d4e565b92505060206144a285828601613d4e565b9150509250929050565b5f60ff82169050919050565b6144c1816144ac565b82525050565b5f6020820190506144da5f8301846144b8565b92915050565b5f819050919050565b5f6145036144fe6144f984613ece565b6144e0565b613ece565b9050919050565b5f614514826144e9565b9050919050565b5f6145258261450a565b9050919050565b6145358161451b565b82525050565b5f60208201905061454e5f83018461452c565b92915050565b5f805f805f60a0868803121561456d5761456c613cc5565b5b5f61457a888289016143c4565b955050602061458b88828901613cec565b945050604061459c8882890161409d565b935050608086013567ffffffffffffffff8111156145bd576145bc613cc9565b5b6145c988828901613d6e565b92509250509295509295909350565b5f805f805f608086880312156145f1576145f0613cc5565b5b5f6145fe88828901613d4e565b955050602061460f88828901613d4e565b945050604061462088828901613cec565b935050606086013567ffffffffffffffff81111561464157614640613cc9565b5b61464d88828901613d6e565b92509250509295509295909350565b5f805f6060848603121561467357614672613cc5565b5b5f61468086828701613d4e565b935050602061469186828701613d4e565b92505060406146a286828701613cec565b9150509250925092565b6146b581613dc3565b82525050565b5f6020820190506146ce5f8301846146ac565b92915050565b5f805f80608085870312156146ec576146eb613cc5565b5b5f6146f987828801613d4e565b945050602061470a87828801613d4e565b935050604061471b87828801613f14565b925050606061472c87828801613cec565b91505092959194509250565b5f82825260208201905092915050565b7f546f6b656e4272696467653a2062726964676520666565203e203130302500005f82015250565b5f61477c601e83614738565b915061478782614748565b602082019050919050565b5f6020820190508181035f8301526147a981614770565b9050919050565b7f4c7a4170703a20696e76616c696420656e64706f696e742063616c6c657200005f82015250565b5f6147e4601e83614738565b91506147ef826147b0565b602082019050919050565b5f6020820190508181035f830152614811816147d8565b9050919050565b7f4e487b71000000000000000000000000000000000000000000000000000000005f52602260045260245ffd5b5f600282049050600182168061485c57607f821691505b60208210810361486f5761486e614818565b5b50919050565b5f81905092915050565b5f61488a8385614875565b93506148978385846141fb565b82840190509392505050565b5f6148af82848661487f565b91508190509392505050565b7f4c7a4170703a20696e76616c696420736f757263652073656e64696e6720636f5f8201527f6e74726163740000000000000000000000000000000000000000000000000000602082015250565b5f614915602683614738565b9150614920826148bb565b604082019050919050565b5f6020820190508181035f83015261494281614909565b9050919050565b7f546f6b656e4272696467653a20696e76616c696420746f6b656e2061646472655f8201527f7373000000000000000000000000000000000000000000000000000000000000602082015250565b5f6149a3602283614738565b91506149ae82614949565b604082019050919050565b5f6020820190508181035f8301526149d081614997565b9050919050565b7f546f6b656e4272696467653a20746f6b656e20616c72656164792072656769735f8201527f7465726564000000000000000000000000000000000000000000000000000000602082015250565b5f614a31602583614738565b9150614a3c826149d7565b604082019050919050565b5f6020820190508181035f830152614a5e81614a25565b9050919050565b7f546f6b656e4272696467653a20646563696d616c73206d757374206265203e3d5f8201527f205348415245445f444543494d414c5300000000000000000000000000000000602082015250565b5f614abf603083614738565b9150614aca82614a65565b604082019050919050565b5f6020820190508181035f830152614aec81614ab3565b9050919050565b7f4e487b71000000000000000000000000000000000000000000000000000000005f52601160045260245ffd5b5f614b2a826144ac565b9150614b35836144ac565b9250828203905060ff811115614b4e57614b4d614af3565b5b92915050565b5f8160011c9050919050565b5f808291508390505b6001851115614ba957808604811115614b8557614b84614af3565b5b6001851615614b945780820291505b8081029050614ba285614b54565b9450614b69565b94509492505050565b5f82614bc15760019050614c7c565b81614bce575f9050614c7c565b8160018114614be45760028114614bee57614c1d565b6001915050614c7c565b60ff841115614c0057614bff614af3565b5b8360020a915084821115614c1757614c16614af3565b5b50614c7c565b5060208310610133831016604e8410600b8410161715614c525782820a905083811115614c4d57614c4c614af3565b5b614c7c565b614c5f8484846001614b60565b92509050818404811115614c7657614c75614af3565b5b81810290505b9392505050565b5f614c8d82613ccd565b9150614c98836144ac565b9250614cc57fffffffffffffffffffffffffffffffffffffffffffffffffffffffffffffffff8484614bb2565b905092915050565b5f614cd8838561431e565b9350614ce58385846141fb565b614cee83614143565b840190509392505050565b5f604082019050614d0c5f830186613fb9565b8181036020830152614d1f818486614ccd565b9050949350505050565b5f60a082019050614d3c5f830189613fb9565b614d496020830188614071565b8181036040830152614d5b8187614356565b9050614d6a6060830186614049565b8181036080830152614d7d818486614ccd565b9050979650505050505050565b5f81519050614d9881613cd6565b92915050565b5f8060408385031215614db457614db3613cc5565b5b5f614dc185828601614d8a565b9250506020614dd285828601614d8a565b9150509250929050565b7f4e6f6e626c6f636b696e674c7a4170703a2063616c6c6572206d7573742062655f8201527f204c7a4170700000000000000000000000000000000000000000000000000000602082015250565b5f614e36602683614738565b9150614e4182614ddc565b604082019050919050565b5f6020820190508181035f830152614e6381614e2a565b9050919050565b7f546f6b656e4272696467653a20706175736564000000000000000000000000005f82015250565b5f614e9e601383614738565b9150614ea982614e6a565b602082019050919050565b5f6020820190508181035f830152614ecb81614e92565b9050919050565b7f546f6b656e4272696467653a20746f6b656e206973206e6f7420737570706f725f8201527f7465640000000000000000000000000000000000000000000000000000000000602082015250565b5f614f2c602383614738565b9150614f3782614ed2565b604082019050919050565b5f6020820190508181035f830152614f5981614f20565b9050919050565b7f546f6b656e4272696467653a20616d6f756e745344206d7573742062652067725f8201527f6561746572207468616e20300000000000000000000000000000000000000000602082015250565b5f614fba602c83614738565b9150614fc582614f60565b604082019050919050565b5f6020820190508181035f830152614fe781614fae565b9050919050565b5f614ff882613dc3565b915061500383613dc3565b9250828201905067ffffffffffffffff81111561502357615022614af3565b5b92915050565b7f4c7a4170703a206e6f20747275737465642070617468207265636f72640000005f82015250565b5f61505d601d83614738565b915061506882615029565b602082019050919050565b5f6020820190508181035f83015261508a81615051565b9050919050565b5f61509b82613ccd565b91506150a683613ccd565b92508282039050818111156150be576150bd614af3565b5b92915050565b5f602082840312156150d9576150d8613cc5565b5b5f6150e684828501614d8a565b91505092915050565b5f8160601b9050919050565b5f615105826150ef565b9050919050565b5f615116826150fb565b9050919050565b61512e61512982613eed565b61510c565b82525050565b5f61514082858761487f565b915061514c828461511d565b601482019150819050949350505050565b5f819050815f5260205f209050919050565b5f6020601f8301049050919050565b5f82821b905092915050565b5f600883026151b97fffffffffffffffffffffffffffffffffffffffffffffffffffffffffffffffff8261517e565b6151c3868361517e565b95508019841693508086168417925050509392505050565b5f6151f56151f06151eb84613ccd565b6144e0565b613ccd565b9050919050565b5f819050919050565b61520e836151db565b61522261521a826151fc565b84845461518a565b825550505050565b5f90565b61523661522a565b615241818484615205565b505050565b5b81811015615264576152595f8261522e565b600181019050615247565b5050565b601f8211156152a95761527a8161515d565b6152838461516f565b81016020851015615292578190505b6152a661529e8561516f565b830182615246565b50505b505050565b5f82821c905092915050565b5f6152c95f19846008026152ae565b1980831691505092915050565b5f6152e183836152ba565b9150826002028217905092915050565b6152fa82614314565b67ffffffffffffffff81111561531357615312614153565b5b61531d8254614845565b615328828285615268565b5f60209050601f831160018114615359575f8415615347578287015190505b61535185826152d6565b8655506153b8565b601f1984166153678661515d565b5f5b8281101561538e57848901518255600182019150602085019450602081019050615369565b868310156153ab57848901516153a7601f8916826152ba565b8355505b6001600288020188555050505b505050505050565b7f546f6b656e4272696467653a20455448206973206e6f7420737570706f7274655f8201527f6400000000000000000000000000000000000000000000000000000000000000602082015250565b5f61541a602183614738565b9150615425826153c0565b604082019050919050565b5f6020820190508181035f8301526154478161540e565b9050919050565b7f546f6b656e4272696467653a20616d6f756e74206d75737420626520677265615f8201527f746572207468616e203000000000000000000000000000000000000000000000602082015250565b5f6154a8602a83614738565b91506154b38261544e565b604082019050919050565b5f6020820190508181035f8301526154d58161549c565b9050919050565b7f546f6b656e4272696467653a20666565206e6f7420656e6f75676800000000005f82015250565b5f615510601b83614738565b915061551b826154dc565b602082019050919050565b5f6020820190508181035f83015261553d81615504565b9050919050565b5f6080820190506155575f830188613fb9565b6155646020830187613fb9565b6155716040830186613f91565b8181036060830152615584818486614ccd565b90509695505050505050565b7f4e6f6e626c6f636b696e674c7a4170703a206e6f2073746f726564206d6573735f8201527f6167650000000000000000000000000000000000000000000000000000000000602082015250565b5f6155ea602383614738565b91506155f582615590565b604082019050919050565b5f6020820190508181035f830152615617816155de565b9050919050565b7f4e6f6e626c6f636b696e674c7a4170703a20696e76616c6964207061796c6f615f8201527f6400000000000000000000000000000000000000000000000000000000000000602082015250565b5f615678602183614738565b91506156838261561e565b604082019050919050565b5f6020820190508181035f8301526156a58161566c565b9050919050565b5f6080820190506156bf5f830188613fb9565b81810360208301526156d2818688614ccd565b90506156e160408301856146ac565b6156ee60608301846142ec565b9695505050505050565b5f60608201905061570b5f830186613fb9565b6157186020830185613fb9565b6157256040830184613f91565b949350505050565b5f82905092915050565b615741838361572d565b67ffffffffffffffff81111561575a57615759614153565b5b6157648254614845565b61576f828285615268565b5f601f83116001811461579c575f841561578a578287013590505b61579485826152d6565b8655506157fb565b601f1984166157aa8661515d565b5f5b828110156157d1578489013582556001820191506020850194506020810190506157ac565b868310156157ee57848901356157ea601f8916826152ba565b8355505b6001600288020188555050505b50505050505050565b5f6080820190506158175f830187613fb9565b6158246020830186613fb9565b6158316040830185614071565b61583e6060830184613f91565b95945050505050565b5f615859615854846141cb565b6141b1565b9050828152602081018484840111156158755761587461413f565b5b61588084828561432e565b509392505050565b5f82601f83011261589c5761589b613d62565b5b81516158ac848260208601615847565b91505092915050565b5f602082840312156158ca576158c9613cc5565b5b5f82015167ffffffffffffffff8111156158e7576158e6613cc9565b5b6158f384828501615888565b91505092915050565b5f60808201905061590f5f830187613fb9565b81810360208301526159218186614356565b905061593060408301856146ac565b81810360608301526159428184614356565b905095945050505050565b5f61595782614314565b6159618185614875565b935061597181856020860161432e565b80840191505092915050565b5f615988828461594d565b915081905092915050565b7f546f6b656e4272696467653a206661696c656420746f2067657420746f6b656e5f8201527f20646563696d616c730000000000000000000000000000000000000000000000602082015250565b5f6159ed602983614738565b91506159f882615993565b604082019050919050565b5f6020820190508181035f830152615a1a816159e1565b9050919050565b615a2a816144ac565b8114615a34575f80fd5b50565b5f81519050615a4581615a21565b92915050565b5f60208284031215615a6057615a5f613cc5565b5b5f615a6d84828501615a37565b91505092915050565b7f4e487b71000000000000000000000000000000000000000000000000000000005f52602160045260245ffd5b7f546f6b656e4272696467653a205f61646170746572506172616d73206d7573745f8201527f20626520656d7074792e00000000000000000000000000000000000000000000602082015250565b5f615afd602a83614738565b9150615b0882615aa3565b604082019050919050565b5f6020820190508181035f830152615b2a81615af1565b9050919050565b5f8160f81b9050919050565b5f615b4782615b31565b9050919050565b615b5f615b5a826144ac565b615b3d565b82525050565b5f819050919050565b615b7f615b7a826142e3565b615b65565b82525050565b5f8160c01b9050919050565b5f615b9b82615b85565b9050919050565b615bb3615bae82613dc3565b615b91565b82525050565b5f615bc48287615b4e565b600182019150615bd48286615b6e565b602082019150615be48285615b6e565b602082019150615bf48284615ba2565b60088201915081905095945050505050565b7f546f6b656e4272696467653a20696e76616c696420736f7572636520636861695f8201527f6e20696400000000000000000000000000000000000000000000000000000000602082015250565b5f615c60602483614738565b9150615c6b82615c06565b604082019050919050565b5f6020820190508181035f830152615c8d81615c54565b9050919050565b7f546f6b656e4272696467653a20696e73756666696369656e74206c69717569645f8201527f6974790000000000000000000000000000000000000000000000000000000000602082015250565b5f615cee602383614738565b9150615cf982615c94565b604082019050919050565b5f6020820190508181035f830152615d1b81615ce2565b9050919050565b5f615d2c82613dc3565b9150615d3783613dc3565b9250828203905067ffffffffffffffff811115615d5757615d56614af3565b5b92915050565b7f5265656e7472616e637947756172643a207265656e7472616e742063616c6c005f82015250565b5f615d91601f83614738565b9150615d9c82615d5d565b602082019050919050565b5f6020820190508181035f830152615dbe81615d85565b9050919050565b7f4e487b71000000000000000000000000000000000000000000000000000000005f52601260045260245ffd5b5f615dfc82613ccd565b9150615e0783613ccd565b925082615e1757615e16615dc5565b5b828204905092915050565b7f546f6b656e4272696467653a20616d6f756e745344206f766572666c6f7700005f82015250565b5f615e56601e83614738565b9150615e6182615e22565b602082019050919050565b5f6020820190508181035f830152615e8381615e4a565b9050919050565b5f615e9482613ece565b9050919050565b615ea481615e8a565b8114615eae575f80fd5b50565b5f81359050615ebf81615e9b565b92915050565b5f60208284031215615eda57615ed9613cc5565b5b5f615ee784828501615eb1565b91505092915050565b5f615efa82613ccd565b9150615f0583613ccd565b9250828201905080821115615f1d57615f1c614af3565b5b92915050565b7f736c6963655f6f766572666c6f770000000000000000000000000000000000005f82015250565b5f615f57600e83614738565b9150615f6282615f23565b602082019050919050565b5f6020820190508181035f830152615f8481615f4b565b9050919050565b7f736c6963655f6f75744f66426f756e64730000000000000000000000000000005f82015250565b5f615fbf601183614738565b9150615fca82615f8b565b602082019050919050565b5f6020820190508181035f830152615fec81615fb3565b9050919050565b5f615ffd82613ccd565b915061600883613ccd565b925082820261601681613ccd565b9150828204841483151761602d5761602c614af3565b5b5092915050565b5f60a0820190506160475f830188613fb9565b81810360208301526160598187614356565b905061606860408301866146ac565b818103606083015261607a8185614356565b9050818103608083015261608e8184614356565b90509695505050505050565b7f4c7a4170703a206d696e4761734c696d6974206e6f74207365740000000000005f82015250565b5f6160ce601a83614738565b91506160d98261609a565b602082019050919050565b5f6020820190508181035f8301526160fb816160c2565b9050919050565b7f4c7a4170703a20676173206c696d697420697320746f6f206c6f7700000000005f82015250565b5f616136601b83614738565b915061614182616102565b602082019050919050565b5f6020820190508181035f8301526161638161612a565b9050919050565b7f546f6b656e4272696467653a20696e76616c6964207061796c6f6164206c656e5f8201527f6774680000000000000000000000000000000000000000000000000000000000602082015250565b5f6161c4602383614738565b91506161cf8261616a565b604082019050919050565b5f6020820190508181035f8301526161f1816161b8565b9050919050565b7f4e487b71000000000000000000000000000000000000000000000000000000005f52603260045260245ffd5b7f546f6b656e4272696467653a20756e6b6e6f776e207061636b657420747970655f82015250565b5f616259602083614738565b915061626482616225565b602082019050919050565b5f6020820190508181035f8301526162868161624d565b9050919050565b5f6040820190506162a05f830185614071565b6162ad6020830184613f91565b9392505050565b5f6060820190506162c75f830186614071565b6162d46020830185614071565b6162e16040830184613f91565b949350505050565b7f4c7a4170703a2064657374696e6174696f6e20636861696e206973206e6f74205f8201527f61207472757374656420736f7572636500000000000000000000000000000000602082015250565b5f616343603083614738565b915061634e826162e9565b604082019050919050565b5f6020820190508181035f83015261637081616337565b9050919050565b61638081615e8a565b82525050565b5f60c0820190506163995f830189613fb9565b81810360208301526163ab8188614356565b905081810360408301526163bf8187614356565b90506163ce6060830186616377565b6163db6080830185614071565b81810360a08301526163ed8184614356565b9050979650505050505050565b7f4c7a4170703a20696e76616c69642061646170746572506172616d73000000005f82015250565b5f61642e601c83614738565b9150616439826163fa565b602082019050919050565b5f6020820190508181035f83015261645b81616422565b9050919050565b61646b8161403e565b8114616475575f80fd5b50565b5f8151905061648681616462565b92915050565b5f602082840312156164a1576164a0613cc5565b5b5f6164ae84828501616478565b91505092915050565b7f4c7a4170703a207061796c6f61642073697a6520697320746f6f206c617267655f82015250565b5f6164eb602083614738565b91506164f6826164b7565b602082019050919050565b5f6020820190508181035f830152616518816164df565b905091905056fea26469706673582212207106bfc4370e3a12479a768174e43bd173fd6a39d2160124d8f4860fad47aa3d64736f6c63430008140033",
			"opcodes": "PUSH1 0xA0 PUSH1 0x40 MSTORE CALLVALUE DUP1 ISZERO PUSH3 0x10 JUMPI PUSH0 DUP1 REVERT JUMPDEST POP PUSH1 0x40 MLOAD PUSH3 0x6899 CODESIZE SUB DUP1 PUSH3 0x6899 DUP4 CODECOPY DUP2 DUP2 ADD PUSH1 0x40 MSTORE DUP2 ADD SWAP1 PUSH3 0x36 SWAP2 SWAP1 PUSH3 0x282 JUMP JUMPDEST DUP2 DUP1 CALLER PUSH0 PUSH20 0xFFFFFFFFFFFFFFFFFFFFFFFFFFFFFFFFFFFFFFFF AND DUP2 PUSH20 0xFFFFFFFFFFFFFFFFFFFFFFFFFFFFFFFFFFFFFFFF AND SUB PUSH3 0xAC JUMPI PUSH0 PUSH1 0x40 MLOAD PUSH32 0x1E4FBDF700000000000000000000000000000000000000000000000000000000 DUP2 MSTORE PUSH1 0x4 ADD PUSH3 0xA3 SWAP2 SWAP1 PUSH3 0x2D8 JUMP JUMPDEST PUSH1 0x40 MLOAD DUP1 SWAP2 SUB SWAP1 REVERT JUMPDEST PUSH3 0xBD DUP2 PUSH3 0x120 PUSH1 0x20 SHL PUSH1 0x20 SHR JUMP JUMPDEST POP DUP1 PUSH20 0xFFFFFFFFFFFFFFFFFFFFFFFFFFFFFFFFFFFFFFFF AND PUSH1 0x80 DUP2 PUSH20 0xFFFFFFFFFFFFFFFFFFFFFFFFFFFFFFFFFFFFFFFF AND DUP2 MSTORE POP POP POP POP PUSH1 0x1 PUSH1 0x6 DUP2 SWAP1 SSTORE POP DUP1 PUSH1 0x7 PUSH0 PUSH2 0x100 EXP DUP2 SLOAD DUP2 PUSH2 0xFFFF MUL NOT AND SWAP1 DUP4 PUSH2 0xFFFF AND MUL OR SWAP1 SSTORE POP POP POP PUSH3 0x2F3 JUMP JUMPDEST PUSH0 DUP1 PUSH0 SWAP1 SLOAD SWAP1 PUSH2 0x100 EXP SWAP1 DIV PUSH20 0xFFFFFFFFFFFFFFFFFFFFFFFFFFFFFFFFFFFFFFFF AND SWAP1 POP DUP2 PUSH0 DUP1 PUSH2 0x100 EXP DUP2 SLOAD DUP2 PUSH20 0xFFFFFFFFFFFFFFFFFFFFFFFFFFFFFFFFFFFFFFFF MUL NOT AND SWAP1 DUP4 PUSH20 0xFFFFFFFFFFFFFFFFFFFFFFFFFFFFFFFFFFFFFFFF AND MUL OR SWAP1 SSTORE POP DUP2 PUSH20 0xFFFFFFFFFFFFFFFFFFFFFFFFFFFFFFFFFFFFFFFF AND DUP2 PUSH20 0xFFFFFFFFFFFFFFFFFFFFFFFFFFFFFFFFFFFFFFFF AND PUSH32 0x8BE0079C531659141344CD1FD0A4F28419497F9722A3DAAFE3B4186F6B6457E0 PUSH1 0x40 MLOAD PUSH1 0x40 MLOAD DUP1 SWAP2 SUB SWAP1 LOG3 POP POP JUMP JUMPDEST PUSH0 DUP1 REVERT JUMPDEST PUSH0 PUSH20 0xFFFFFFFFFFFFFFFFFFFFFFFFFFFFFFFFFFFFFFFF DUP3 AND SWAP1 POP SWAP2 SWAP1 POP JUMP JUMPDEST PUSH0 PUSH3 0x210 DUP3 PUSH3 0x1E5 JUMP JUMPDEST SWAP1 POP SWAP2 SWAP1 POP JUMP JUMPDEST PUSH3 0x222 DUP2 PUSH3 0x204 JUMP JUMPDEST DUP2 EQ PUSH3 0x22D JUMPI PUSH0 DUP1 REVERT JUMPDEST POP JUMP JUMPDEST PUSH0 DUP2 MLOAD SWAP1 POP PUSH3 0x240 DUP2 PUSH3 0x217 JUMP JUMPDEST SWAP3 SWAP2 POP POP JUMP JUMPDEST PUSH0 PUSH2 0xFFFF DUP3 AND SWAP1 POP SWAP2 SWAP1 POP JUMP JUMPDEST PUSH3 0x25E DUP2 PUSH3 0x246 JUMP JUMPDEST DUP2 EQ PUSH3 0x269 JUMPI PUSH0 DUP1 REVERT JUMPDEST POP JUMP JUMPDEST PUSH0 DUP2 MLOAD SWAP1 POP PUSH3 0x27C DUP2 PUSH3 0x253 JUMP JUMPDEST SWAP3 SWAP2 POP POP JUMP JUMPDEST PUSH0 DUP1 PUSH1 0x40 DUP4 DUP6 SUB SLT ISZERO PUSH3 0x29B JUMPI PUSH3 0x29A PUSH3 0x1E1 JUMP JUMPDEST JUMPDEST PUSH0 PUSH3 0x2AA DUP6 DUP3 DUP7 ADD PUSH3 0x230 JUMP JUMPDEST SWAP3 POP POP PUSH1 0x20 PUSH3 0x2BD DUP6 DUP3 DUP7 ADD PUSH3 0x26C JUMP JUMPDEST SWAP2 POP POP SWAP3 POP SWAP3 SWAP1 POP JUMP JUMPDEST PUSH3 0x2D2 DUP2 PUSH3 0x204 JUMP JUMPDEST DUP3 MSTORE POP POP JUMP JUMPDEST PUSH0 PUSH1 0x20 DUP3 ADD SWAP1 POP PUSH3 0x2ED PUSH0 DUP4 ADD DUP5 PUSH3 0x2C7 JUMP JUMPDEST SWAP3 SWAP2 POP POP JUMP JUMPDEST PUSH1 0x80 MLOAD PUSH2 0x6555 PUSH3 0x344 PUSH0 CODECOPY PUSH0 DUP2 DUP2 PUSH2 0xAC1 ADD MSTORE DUP2 DUP2 PUSH2 0xD17 ADD MSTORE DUP2 DUP2 PUSH2 0x1012 ADD MSTORE DUP2 DUP2 PUSH2 0x11C5 ADD MSTORE DUP2 DUP2 PUSH2 0x12B5 ADD MSTORE DUP2 DUP2 PUSH2 0x1B82 ADD MSTORE DUP2 DUP2 PUSH2 0x1FFB ADD MSTORE DUP2 DUP2 PUSH2 0x2494 ADD MSTORE PUSH2 0x391B ADD MSTORE PUSH2 0x6555 PUSH0 RETURN INVALID PUSH1 0x80 PUSH1 0x40 MSTORE PUSH1 0x4 CALLDATASIZE LT PUSH2 0x264 JUMPI PUSH0 CALLDATALOAD PUSH1 0xE0 SHR DUP1 PUSH4 0x8DA5CB5B GT PUSH2 0x143 JUMPI DUP1 PUSH4 0xCA23BB4C GT PUSH2 0xB5 JUMPI DUP1 PUSH4 0xE3179C3E GT PUSH2 0x79 JUMPI DUP1 PUSH4 0xE3179C3E EQ PUSH2 0x903 JUMPI DUP1 PUSH4 0xEB8D72B7 EQ PUSH2 0x93F JUMPI DUP1 PUSH4 0xED629C5C EQ PUSH2 0x967 JUMPI DUP1 PUSH4 0xEE7A4596 EQ PUSH2 0x991 JUMPI DUP1 PUSH4 0xF2FDE38B EQ PUSH2 0x9CD JUMPI DUP1 PUSH4 0xF5ECBDBC EQ PUSH2 0x9F5 JUMPI PUSH2 0x264 JUMP JUMPDEST DUP1 PUSH4 0xCA23BB4C EQ PUSH2 0x851 JUMPI DUP1 PUSH4 0xCBED8B9C EQ PUSH2 0x86D JUMPI DUP1 PUSH4 0xD1DEBA1F EQ PUSH2 0x895 JUMPI DUP1 PUSH4 0xDE9B9488 EQ PUSH2 0x8B1 JUMPI DUP1 PUSH4 0xDF2A5B3B EQ PUSH2 0x8DB JUMPI PUSH2 0x264 JUMP JUMPDEST DUP1 PUSH4 0xA2F27AE0 GT PUSH2 0x107 JUMPI DUP1 PUSH4 0xA2F27AE0 EQ PUSH2 0x747 JUMPI DUP1 PUSH4 0xA6C3D165 EQ PUSH2 0x783 JUMPI DUP1 PUSH4 0xABE685CD EQ PUSH2 0x7AB JUMPI DUP1 PUSH4 0xB353AAA7 EQ PUSH2 0x7D5 JUMPI DUP1 PUSH4 0xBAF3292D EQ PUSH2 0x7FF JUMPI DUP1 PUSH4 0xC4461834 EQ PUSH2 0x827 JUMPI PUSH2 0x264 JUMP JUMPDEST DUP1 PUSH4 0x8DA5CB5B EQ PUSH2 0x651 JUMPI DUP1 PUSH4 0x92CC13C5 EQ PUSH2 0x67B JUMPI DUP1 PUSH4 0x950C8A74 EQ PUSH2 0x6B7 JUMPI DUP1 PUSH4 0x97167964 EQ PUSH2 0x6E1 JUMPI DUP1 PUSH4 0x9F38369A EQ PUSH2 0x70B JUMPI PUSH2 0x264 JUMP JUMPDEST DUP1 PUSH4 0x42D65A8D GT PUSH2 0x1DC JUMPI DUP1 PUSH4 0x66AD5C8A GT PUSH2 0x1A0 JUMPI DUP1 PUSH4 0x66AD5C8A EQ PUSH2 0x543 JUMPI DUP1 PUSH4 0x68C4AC26 EQ PUSH2 0x56B JUMPI DUP1 PUSH4 0x715018A6 EQ PUSH2 0x5A7 JUMPI DUP1 PUSH4 0x7533D788 EQ PUSH2 0x5BD JUMPI DUP1 PUSH4 0x76A9099A EQ PUSH2 0x5F9 JUMPI DUP1 PUSH4 0x8CFD8F5C EQ PUSH2 0x615 JUMPI PUSH2 0x264 JUMP JUMPDEST DUP1 PUSH4 0x42D65A8D EQ PUSH2 0x44E JUMPI DUP1 PUSH4 0x468B9668 EQ PUSH2 0x476 JUMPI DUP1 PUSH4 0x5747E69F EQ PUSH2 0x4B3 JUMPI DUP1 PUSH4 0x5B8C41E6 EQ PUSH2 0x4DD JUMPI DUP1 PUSH4 0x61A552DC EQ PUSH2 0x519 JUMPI PUSH2 0x264 JUMP JUMPDEST DUP1 PUSH4 0x10DDB137 GT PUSH2 0x22E JUMPI DUP1 PUSH4 0x10DDB137 EQ PUSH2 0x330 JUMPI DUP1 PUSH4 0x25A9F792 EQ PUSH2 0x358 JUMPI DUP1 PUSH4 0x2DB88ECF EQ PUSH2 0x382 JUMPI DUP1 PUSH4 0x3D8B38F6 EQ PUSH2 0x3AC JUMPI DUP1 PUSH4 0x3F1F4FA4 EQ PUSH2 0x3E8 JUMPI DUP1 PUSH4 0x3FC8CEF3 EQ PUSH2 0x424 JUMPI PUSH2 0x264 JUMP JUMPDEST DUP1 PUSH3 0xD5900 EQ PUSH2 0x268 JUMPI DUP1 PUSH3 0x1D3567 EQ PUSH2 0x290 JUMPI DUP1 PUSH4 0x7E0DB17 EQ PUSH2 0x2B8 JUMPI DUP1 PUSH4 0x9824A80 EQ PUSH2 0x2E0 JUMPI DUP1 PUSH4 0xDF37483 EQ PUSH2 0x308 JUMPI JUMPDEST PUSH0 DUP1 REVERT JUMPDEST CALLVALUE DUP1 ISZERO PUSH2 0x273 JUMPI PUSH0 DUP1 REVERT JUMPDEST POP PUSH2 0x28E PUSH1 0x4 DUP1 CALLDATASIZE SUB DUP2 ADD SWAP1 PUSH2 0x289 SWAP2 SWAP1 PUSH2 0x3D00 JUMP JUMPDEST PUSH2 0xA31 JUMP JUMPDEST STOP JUMPDEST CALLVALUE DUP1 ISZERO PUSH2 0x29B JUMPI PUSH0 DUP1 REVERT JUMPDEST POP PUSH2 0x2B6 PUSH1 0x4 DUP1 CALLDATASIZE SUB DUP2 ADD SWAP1 PUSH2 0x2B1 SWAP2 SWAP1 PUSH2 0x3E00 JUMP JUMPDEST PUSH2 0xABF JUMP JUMPDEST STOP JUMPDEST CALLVALUE DUP1 ISZERO PUSH2 0x2C3 JUMPI PUSH0 DUP1 REVERT JUMPDEST POP PUSH2 0x2DE PUSH1 0x4 DUP1 CALLDATASIZE SUB DUP2 ADD SWAP1 PUSH2 0x2D9 SWAP2 SWAP1 PUSH2 0x3EA3 JUMP JUMPDEST PUSH2 0xD0D JUMP JUMPDEST STOP JUMPDEST CALLVALUE DUP1 ISZERO PUSH2 0x2EB JUMPI PUSH0 DUP1 REVERT JUMPDEST POP PUSH2 0x306 PUSH1 0x4 DUP1 CALLDATASIZE SUB DUP2 ADD SWAP1 PUSH2 0x301 SWAP2 SWAP1 PUSH2 0x3F28 JUMP JUMPDEST PUSH2 0xD9E JUMP JUMPDEST STOP JUMPDEST CALLVALUE DUP1 ISZERO PUSH2 0x313 JUMPI PUSH0 DUP1 REVERT JUMPDEST POP PUSH2 0x32E PUSH1 0x4 DUP1 CALLDATASIZE SUB DUP2 ADD SWAP1 PUSH2 0x329 SWAP2 SWAP1 PUSH2 0x3F53 JUMP JUMPDEST PUSH2 0xFDE JUMP JUMPDEST STOP JUMPDEST CALLVALUE DUP1 ISZERO PUSH2 0x33B JUMPI PUSH0 DUP1 REVERT JUMPDEST POP PUSH2 0x356 PUSH1 0x4 DUP1 CALLDATASIZE SUB DUP2 ADD SWAP1 PUSH2 0x351 SWAP2 SWAP1 PUSH2 0x3EA3 JUMP JUMPDEST PUSH2 0x1008 JUMP JUMPDEST STOP JUMPDEST CALLVALUE DUP1 ISZERO PUSH2 0x363 JUMPI PUSH0 DUP1 REVERT JUMPDEST POP PUSH2 0x36C PUSH2 0x1099 JUMP JUMPDEST PUSH1 0x40 MLOAD PUSH2 0x379 SWAP2 SWAP1 PUSH2 0x3FA0 JUMP JUMPDEST PUSH1 0x40 MLOAD DUP1 SWAP2 SUB SWAP1 RETURN JUMPDEST CALLVALUE DUP1 ISZERO PUSH2 0x38D JUMPI PUSH0 DUP1 REVERT JUMPDEST POP PUSH2 0x396 PUSH2 0x109F JUMP JUMPDEST PUSH1 0x40 MLOAD PUSH2 0x3A3 SWAP2 SWAP1 PUSH2 0x3FC8 JUMP JUMPDEST PUSH1 0x40 MLOAD DUP1 SWAP2 SUB SWAP1 RETURN JUMPDEST CALLVALUE DUP1 ISZERO PUSH2 0x3B7 JUMPI PUSH0 DUP1 REVERT JUMPDEST POP PUSH2 0x3D2 PUSH1 0x4 DUP1 CALLDATASIZE SUB DUP2 ADD SWAP1 PUSH2 0x3CD SWAP2 SWAP1 PUSH2 0x3FE1 JUMP JUMPDEST PUSH2 0x10B2 JUMP JUMPDEST PUSH1 0x40 MLOAD PUSH2 0x3DF SWAP2 SWAP1 PUSH2 0x4058 JUMP JUMPDEST PUSH1 0x40 MLOAD DUP1 SWAP2 SUB SWAP1 RETURN JUMPDEST CALLVALUE DUP1 ISZERO PUSH2 0x3F3 JUMPI PUSH0 DUP1 REVERT JUMPDEST POP PUSH2 0x40E PUSH1 0x4 DUP1 CALLDATASIZE SUB DUP2 ADD SWAP1 PUSH2 0x409 SWAP2 SWAP1 PUSH2 0x3EA3 JUMP JUMPDEST PUSH2 0x1181 JUMP JUMPDEST PUSH1 0x40 MLOAD PUSH2 0x41B SWAP2 SWAP1 PUSH2 0x3FA0 JUMP JUMPDEST PUSH1 0x40 MLOAD DUP1 SWAP2 SUB SWAP1 RETURN JUMPDEST CALLVALUE DUP1 ISZERO PUSH2 0x42F JUMPI PUSH0 DUP1 REVERT JUMPDEST POP PUSH2 0x438 PUSH2 0x1196 JUMP JUMPDEST PUSH1 0x40 MLOAD PUSH2 0x445 SWAP2 SWAP1 PUSH2 0x4080 JUMP JUMPDEST PUSH1 0x40 MLOAD DUP1 SWAP2 SUB SWAP1 RETURN JUMPDEST CALLVALUE DUP1 ISZERO PUSH2 0x459 JUMPI PUSH0 DUP1 REVERT JUMPDEST POP PUSH2 0x474 PUSH1 0x4 DUP1 CALLDATASIZE SUB DUP2 ADD SWAP1 PUSH2 0x46F SWAP2 SWAP1 PUSH2 0x3FE1 JUMP JUMPDEST PUSH2 0x11BB JUMP JUMPDEST STOP JUMPDEST CALLVALUE DUP1 ISZERO PUSH2 0x481 JUMPI PUSH0 DUP1 REVERT JUMPDEST POP PUSH2 0x49C PUSH1 0x4 DUP1 CALLDATASIZE SUB DUP2 ADD SWAP1 PUSH2 0x497 SWAP2 SWAP1 PUSH2 0x40BB JUMP JUMPDEST PUSH2 0x1252 JUMP JUMPDEST PUSH1 0x40 MLOAD PUSH2 0x4AA SWAP3 SWAP2 SWAP1 PUSH2 0x4118 JUMP JUMPDEST PUSH1 0x40 MLOAD DUP1 SWAP2 SUB SWAP1 RETURN JUMPDEST CALLVALUE DUP1 ISZERO PUSH2 0x4BE JUMPI PUSH0 DUP1 REVERT JUMPDEST POP PUSH2 0x4C7 PUSH2 0x1371 JUMP JUMPDEST PUSH1 0x40 MLOAD PUSH2 0x4D4 SWAP2 SWAP1 PUSH2 0x4058 JUMP JUMPDEST PUSH1 0x40 MLOAD DUP1 SWAP2 SUB SWAP1 RETURN JUMPDEST CALLVALUE DUP1 ISZERO PUSH2 0x4E8 JUMPI PUSH0 DUP1 REVERT JUMPDEST POP PUSH2 0x503 PUSH1 0x4 DUP1 CALLDATASIZE SUB DUP2 ADD SWAP1 PUSH2 0x4FE SWAP2 SWAP1 PUSH2 0x4277 JUMP JUMPDEST PUSH2 0x1384 JUMP JUMPDEST PUSH1 0x40 MLOAD PUSH2 0x510 SWAP2 SWAP1 PUSH2 0x42FB JUMP JUMPDEST PUSH1 0x40 MLOAD DUP1 SWAP2 SUB SWAP1 RETURN JUMPDEST CALLVALUE DUP1 ISZERO PUSH2 0x524 JUMPI PUSH0 DUP1 REVERT JUMPDEST POP PUSH2 0x52D PUSH2 0x13C7 JUMP JUMPDEST PUSH1 0x40 MLOAD PUSH2 0x53A SWAP2 SWAP1 PUSH2 0x4058 JUMP JUMPDEST PUSH1 0x40 MLOAD DUP1 SWAP2 SUB SWAP1 RETURN JUMPDEST CALLVALUE DUP1 ISZERO PUSH2 0x54E JUMPI PUSH0 DUP1 REVERT JUMPDEST POP PUSH2 0x569 PUSH1 0x4 DUP1 CALLDATASIZE SUB DUP2 ADD SWAP1 PUSH2 0x564 SWAP2 SWAP1 PUSH2 0x3E00 JUMP JUMPDEST PUSH2 0x13DA JUMP JUMPDEST STOP JUMPDEST CALLVALUE DUP1 ISZERO PUSH2 0x576 JUMPI PUSH0 DUP1 REVERT JUMPDEST POP PUSH2 0x591 PUSH1 0x4 DUP1 CALLDATASIZE SUB DUP2 ADD SWAP1 PUSH2 0x58C SWAP2 SWAP1 PUSH2 0x3F28 JUMP JUMPDEST PUSH2 0x14E9 JUMP JUMPDEST PUSH1 0x40 MLOAD PUSH2 0x59E SWAP2 SWAP1 PUSH2 0x4058 JUMP JUMPDEST PUSH1 0x40 MLOAD DUP1 SWAP2 SUB SWAP1 RETURN JUMPDEST CALLVALUE DUP1 ISZERO PUSH2 0x5B2 JUMPI PUSH0 DUP1 REVERT JUMPDEST POP PUSH2 0x5BB PUSH2 0x1506 JUMP JUMPDEST STOP JUMPDEST CALLVALUE DUP1 ISZERO PUSH2 0x5C8 JUMPI PUSH0 DUP1 REVERT JUMPDEST POP PUSH2 0x5E3 PUSH1 0x4 DUP1 CALLDATASIZE SUB DUP2 ADD SWAP1 PUSH2 0x5DE SWAP2 SWAP1 PUSH2 0x3EA3 JUMP JUMPDEST PUSH2 0x1519 JUMP JUMPDEST PUSH1 0x40 MLOAD PUSH2 0x5F0 SWAP2 SWAP1 PUSH2 0x438E JUMP JUMPDEST PUSH1 0x40 MLOAD DUP1 SWAP2 SUB SWAP1 RETURN JUMPDEST PUSH2 0x613 PUSH1 0x4 DUP1 CALLDATASIZE SUB DUP2 ADD SWAP1 PUSH2 0x60E SWAP2 SWAP1 PUSH2 0x43D8 JUMP JUMPDEST PUSH2 0x15B4 JUMP JUMPDEST STOP JUMPDEST CALLVALUE DUP1 ISZERO PUSH2 0x620 JUMPI PUSH0 DUP1 REVERT JUMPDEST POP PUSH2 0x63B PUSH1 0x4 DUP1 CALLDATASIZE SUB DUP2 ADD SWAP1 PUSH2 0x636 SWAP2 SWAP1 PUSH2 0x446E JUMP JUMPDEST PUSH2 0x1867 JUMP JUMPDEST PUSH1 0x40 MLOAD PUSH2 0x648 SWAP2 SWAP1 PUSH2 0x3FA0 JUMP JUMPDEST PUSH1 0x40 MLOAD DUP1 SWAP2 SUB SWAP1 RETURN JUMPDEST CALLVALUE DUP1 ISZERO PUSH2 0x65C JUMPI PUSH0 DUP1 REVERT JUMPDEST POP PUSH2 0x665 PUSH2 0x1887 JUMP JUMPDEST PUSH1 0x40 MLOAD PUSH2 0x672 SWAP2 SWAP1 PUSH2 0x4080 JUMP JUMPDEST PUSH1 0x40 MLOAD DUP1 SWAP2 SUB SWAP1 RETURN JUMPDEST CALLVALUE DUP1 ISZERO PUSH2 0x686 JUMPI PUSH0 DUP1 REVERT JUMPDEST POP PUSH2 0x6A1 PUSH1 0x4 DUP1 CALLDATASIZE SUB DUP2 ADD SWAP1 PUSH2 0x69C SWAP2 SWAP1 PUSH2 0x3F28 JUMP JUMPDEST PUSH2 0x18AE JUMP JUMPDEST PUSH1 0x40 MLOAD PUSH2 0x6AE SWAP2 SWAP1 PUSH2 0x3FA0 JUMP JUMPDEST PUSH1 0x40 MLOAD DUP1 SWAP2 SUB SWAP1 RETURN JUMPDEST CALLVALUE DUP1 ISZERO PUSH2 0x6C2 JUMPI PUSH0 DUP1 REVERT JUMPDEST POP PUSH2 0x6CB PUSH2 0x18C3 JUMP JUMPDEST PUSH1 0x40 MLOAD PUSH2 0x6D8 SWAP2 SWAP1 PUSH2 0x4080 JUMP JUMPDEST PUSH1 0x40 MLOAD DUP1 SWAP2 SUB SWAP1 RETURN JUMPDEST CALLVALUE DUP1 ISZERO PUSH2 0x6EC JUMPI PUSH0 DUP1 REVERT JUMPDEST POP PUSH2 0x6F5 PUSH2 0x18E8 JUMP JUMPDEST PUSH1 0x40 MLOAD PUSH2 0x702 SWAP2 SWAP1 PUSH2 0x44C7 JUMP JUMPDEST PUSH1 0x40 MLOAD DUP1 SWAP2 SUB SWAP1 RETURN JUMPDEST CALLVALUE DUP1 ISZERO PUSH2 0x716 JUMPI PUSH0 DUP1 REVERT JUMPDEST POP PUSH2 0x731 PUSH1 0x4 DUP1 CALLDATASIZE SUB DUP2 ADD SWAP1 PUSH2 0x72C SWAP2 SWAP1 PUSH2 0x3EA3 JUMP JUMPDEST PUSH2 0x18ED JUMP JUMPDEST PUSH1 0x40 MLOAD PUSH2 0x73E SWAP2 SWAP1 PUSH2 0x438E JUMP JUMPDEST PUSH1 0x40 MLOAD DUP1 SWAP2 SUB SWAP1 RETURN JUMPDEST CALLVALUE DUP1 ISZERO PUSH2 0x752 JUMPI PUSH0 DUP1 REVERT JUMPDEST POP PUSH2 0x76D PUSH1 0x4 DUP1 CALLDATASIZE SUB DUP2 ADD SWAP1 PUSH2 0x768 SWAP2 SWAP1 PUSH2 0x3F28 JUMP JUMPDEST PUSH2 0x19FF JUMP JUMPDEST PUSH1 0x40 MLOAD PUSH2 0x77A SWAP2 SWAP1 PUSH2 0x3FA0 JUMP JUMPDEST PUSH1 0x40 MLOAD DUP1 SWAP2 SUB SWAP1 RETURN JUMPDEST CALLVALUE DUP1 ISZERO PUSH2 0x78E JUMPI PUSH0 DUP1 REVERT JUMPDEST POP PUSH2 0x7A9 PUSH1 0x4 DUP1 CALLDATASIZE SUB DUP2 ADD SWAP1 PUSH2 0x7A4 SWAP2 SWAP1 PUSH2 0x3FE1 JUMP JUMPDEST PUSH2 0x1AE8 JUMP JUMPDEST STOP JUMPDEST CALLVALUE DUP1 ISZERO PUSH2 0x7B6 JUMPI PUSH0 DUP1 REVERT JUMPDEST POP PUSH2 0x7BF PUSH2 0x1B7A JUMP JUMPDEST PUSH1 0x40 MLOAD PUSH2 0x7CC SWAP2 SWAP1 PUSH2 0x3FA0 JUMP JUMPDEST PUSH1 0x40 MLOAD DUP1 SWAP2 SUB SWAP1 RETURN JUMPDEST CALLVALUE DUP1 ISZERO PUSH2 0x7E0 JUMPI PUSH0 DUP1 REVERT JUMPDEST POP PUSH2 0x7E9 PUSH2 0x1B80 JUMP JUMPDEST PUSH1 0x40 MLOAD PUSH2 0x7F6 SWAP2 SWAP1 PUSH2 0x453B JUMP JUMPDEST PUSH1 0x40 MLOAD DUP1 SWAP2 SUB SWAP1 RETURN JUMPDEST CALLVALUE DUP1 ISZERO PUSH2 0x80A JUMPI PUSH0 DUP1 REVERT JUMPDEST POP PUSH2 0x825 PUSH1 0x4 DUP1 CALLDATASIZE SUB DUP2 ADD SWAP1 PUSH2 0x820 SWAP2 SWAP1 PUSH2 0x3F28 JUMP JUMPDEST PUSH2 0x1BA4 JUMP JUMPDEST STOP JUMPDEST CALLVALUE DUP1 ISZERO PUSH2 0x832 JUMPI PUSH0 DUP1 REVERT JUMPDEST POP PUSH2 0x83B PUSH2 0x1C26 JUMP JUMPDEST PUSH1 0x40 MLOAD PUSH2 0x848 SWAP2 SWAP1 PUSH2 0x3FA0 JUMP JUMPDEST PUSH1 0x40 MLOAD DUP1 SWAP2 SUB SWAP1 RETURN JUMPDEST PUSH2 0x86B PUSH1 0x4 DUP1 CALLDATASIZE SUB DUP2 ADD SWAP1 PUSH2 0x866 SWAP2 SWAP1 PUSH2 0x4554 JUMP JUMPDEST PUSH2 0x1C2C JUMP JUMPDEST STOP JUMPDEST CALLVALUE DUP1 ISZERO PUSH2 0x878 JUMPI PUSH0 DUP1 REVERT JUMPDEST POP PUSH2 0x893 PUSH1 0x4 DUP1 CALLDATASIZE SUB DUP2 ADD SWAP1 PUSH2 0x88E SWAP2 SWAP1 PUSH2 0x45D8 JUMP JUMPDEST PUSH2 0x1FF1 JUMP JUMPDEST STOP JUMPDEST PUSH2 0x8AF PUSH1 0x4 DUP1 CALLDATASIZE SUB DUP2 ADD SWAP1 PUSH2 0x8AA SWAP2 SWAP1 PUSH2 0x3E00 JUMP JUMPDEST PUSH2 0x208E JUMP JUMPDEST STOP JUMPDEST CALLVALUE DUP1 ISZERO PUSH2 0x8BC JUMPI PUSH0 DUP1 REVERT JUMPDEST POP PUSH2 0x8C5 PUSH2 0x22C4 JUMP JUMPDEST PUSH1 0x40 MLOAD PUSH2 0x8D2 SWAP2 SWAP1 PUSH2 0x3FA0 JUMP JUMPDEST PUSH1 0x40 MLOAD DUP1 SWAP2 SUB SWAP1 RETURN JUMPDEST CALLVALUE DUP1 ISZERO PUSH2 0x8E6 JUMPI PUSH0 DUP1 REVERT JUMPDEST POP PUSH2 0x901 PUSH1 0x4 DUP1 CALLDATASIZE SUB DUP2 ADD SWAP1 PUSH2 0x8FC SWAP2 SWAP1 PUSH2 0x465C JUMP JUMPDEST PUSH2 0x22CA JUMP JUMPDEST STOP JUMPDEST CALLVALUE DUP1 ISZERO PUSH2 0x90E JUMPI PUSH0 DUP1 REVERT JUMPDEST POP PUSH2 0x929 PUSH1 0x4 DUP1 CALLDATASIZE SUB DUP2 ADD SWAP1 PUSH2 0x924 SWAP2 SWAP1 PUSH2 0x3F28 JUMP JUMPDEST PUSH2 0x2347 JUMP JUMPDEST PUSH1 0x40 MLOAD PUSH2 0x936 SWAP2 SWAP1 PUSH2 0x46BB JUMP JUMPDEST PUSH1 0x40 MLOAD DUP1 SWAP2 SUB SWAP1 RETURN JUMPDEST CALLVALUE DUP1 ISZERO PUSH2 0x94A JUMPI PUSH0 DUP1 REVERT JUMPDEST POP PUSH2 0x965 PUSH1 0x4 DUP1 CALLDATASIZE SUB DUP2 ADD SWAP1 PUSH2 0x960 SWAP2 SWAP1 PUSH2 0x3FE1 JUMP JUMPDEST PUSH2 0x236B JUMP JUMPDEST STOP JUMPDEST CALLVALUE DUP1 ISZERO PUSH2 0x972 JUMPI PUSH0 DUP1 REVERT JUMPDEST POP PUSH2 0x97B PUSH2 0x23DC JUMP JUMPDEST PUSH1 0x40 MLOAD PUSH2 0x988 SWAP2 SWAP1 PUSH2 0x4058 JUMP JUMPDEST PUSH1 0x40 MLOAD DUP1 SWAP2 SUB SWAP1 RETURN JUMPDEST CALLVALUE DUP1 ISZERO PUSH2 0x99C JUMPI PUSH0 DUP1 REVERT JUMPDEST POP PUSH2 0x9B7 PUSH1 0x4 DUP1 CALLDATASIZE SUB DUP2 ADD SWAP1 PUSH2 0x9B2 SWAP2 SWAP1 PUSH2 0x3F28 JUMP JUMPDEST PUSH2 0x23EF JUMP JUMPDEST PUSH1 0x40 MLOAD PUSH2 0x9C4 SWAP2 SWAP1 PUSH2 0x4058 JUMP JUMPDEST PUSH1 0x40 MLOAD DUP1 SWAP2 SUB SWAP1 RETURN JUMPDEST CALLVALUE DUP1 ISZERO PUSH2 0x9D8 JUMPI PUSH0 DUP1 REVERT JUMPDEST POP PUSH2 0x9F3 PUSH1 0x4 DUP1 CALLDATASIZE SUB DUP2 ADD SWAP1 PUSH2 0x9EE SWAP2 SWAP1 PUSH2 0x3F28 JUMP JUMPDEST PUSH2 0x240C JUMP JUMPDEST STOP JUMPDEST CALLVALUE DUP1 ISZERO PUSH2 0xA00 JUMPI PUSH0 DUP1 REVERT JUMPDEST POP PUSH2 0xA1B PUSH1 0x4 DUP1 CALLDATASIZE SUB DUP2 ADD SWAP1 PUSH2 0xA16 SWAP2 SWAP1 PUSH2 0x46D4 JUMP JUMPDEST PUSH2 0x2490 JUMP JUMPDEST PUSH1 0x40 MLOAD PUSH2 0xA28 SWAP2 SWAP1 PUSH2 0x438E JUMP JUMPDEST PUSH1 0x40 MLOAD DUP1 SWAP2 SUB SWAP1 RETURN JUMPDEST PUSH2 0xA39 PUSH2 0x253D JUMP JUMPDEST PUSH2 0x2710 DUP2 GT ISZERO PUSH2 0xA7E JUMPI PUSH1 0x40 MLOAD PUSH32 0x8C379A000000000000000000000000000000000000000000000000000000000 DUP2 MSTORE PUSH1 0x4 ADD PUSH2 0xA75 SWAP1 PUSH2 0x4792 JUMP JUMPDEST PUSH1 0x40 MLOAD DUP1 SWAP2 SUB SWAP1 REVERT JUMPDEST DUP1 PUSH1 0x8 DUP2 SWAP1 SSTORE POP PUSH32 0x9A749C8193BFD56B2B2A05C0BD18FBB0F69801A3FD6576C40B90537FD0FC3854 DUP2 PUSH1 0x40 MLOAD PUSH2 0xAB4 SWAP2 SWAP1 PUSH2 0x3FA0 JUMP JUMPDEST PUSH1 0x40 MLOAD DUP1 SWAP2 SUB SWAP1 LOG1 POP JUMP JUMPDEST PUSH32 0x0 PUSH20 0xFFFFFFFFFFFFFFFFFFFFFFFFFFFFFFFFFFFFFFFF AND PUSH2 0xAFE PUSH2 0x25C4 JUMP JUMPDEST PUSH20 0xFFFFFFFFFFFFFFFFFFFFFFFFFFFFFFFFFFFFFFFF AND EQ PUSH2 0xB54 JUMPI PUSH1 0x40 MLOAD PUSH32 0x8C379A000000000000000000000000000000000000000000000000000000000 DUP2 MSTORE PUSH1 0x4 ADD PUSH2 0xB4B SWAP1 PUSH2 0x47FA JUMP JUMPDEST PUSH1 0x40 MLOAD DUP1 SWAP2 SUB SWAP1 REVERT JUMPDEST PUSH0 PUSH1 0x1 PUSH0 DUP9 PUSH2 0xFFFF AND PUSH2 0xFFFF AND DUP2 MSTORE PUSH1 0x20 ADD SWAP1 DUP2 MSTORE PUSH1 0x20 ADD PUSH0 KECCAK256 DUP1 SLOAD PUSH2 0xB79 SWAP1 PUSH2 0x4845 JUMP JUMPDEST DUP1 PUSH1 0x1F ADD PUSH1 0x20 DUP1 SWAP2 DIV MUL PUSH1 0x20 ADD PUSH1 0x40 MLOAD SWAP1 DUP2 ADD PUSH1 0x40 MSTORE DUP1 SWAP3 SWAP2 SWAP1 DUP2 DUP2 MSTORE PUSH1 0x20 ADD DUP3 DUP1 SLOAD PUSH2 0xBA5 SWAP1 PUSH2 0x4845 JUMP JUMPDEST DUP1 ISZERO PUSH2 0xBF0 JUMPI DUP1 PUSH1 0x1F LT PUSH2 0xBC7 JUMPI PUSH2 0x100 DUP1 DUP4 SLOAD DIV MUL DUP4 MSTORE SWAP2 PUSH1 0x20 ADD SWAP2 PUSH2 0xBF0 JUMP JUMPDEST DUP3 ADD SWAP2 SWAP1 PUSH0 MSTORE PUSH1 0x20 PUSH0 KECCAK256 SWAP1 JUMPDEST DUP2 SLOAD DUP2 MSTORE SWAP1 PUSH1 0x1 ADD SWAP1 PUSH1 0x20 ADD DUP1 DUP4 GT PUSH2 0xBD3 JUMPI DUP3 SWAP1 SUB PUSH1 0x1F AND DUP3 ADD SWAP2 JUMPDEST POP POP POP POP POP SWAP1 POP DUP1 MLOAD DUP7 DUP7 SWAP1 POP EQ DUP1 ISZERO PUSH2 0xC0A JUMPI POP PUSH0 DUP2 MLOAD GT JUMPDEST DUP1 ISZERO PUSH2 0xC33 JUMPI POP DUP1 DUP1 MLOAD SWAP1 PUSH1 0x20 ADD KECCAK256 DUP7 DUP7 PUSH1 0x40 MLOAD PUSH2 0xC29 SWAP3 SWAP2 SWAP1 PUSH2 0x48A3 JUMP JUMPDEST PUSH1 0x40 MLOAD DUP1 SWAP2 SUB SWAP1 KECCAK256 EQ JUMPDEST PUSH2 0xC72 JUMPI PUSH1 0x40 MLOAD PUSH32 0x8C379A000000000000000000000000000000000000000000000000000000000 DUP2 MSTORE PUSH1 0x4 ADD PUSH2 0xC69 SWAP1 PUSH2 0x492B JUMP JUMPDEST PUSH1 0x40 MLOAD DUP1 SWAP2 SUB SWAP1 REVERT JUMPDEST PUSH2 0xD04 DUP8 DUP8 DUP8 DUP1 DUP1 PUSH1 0x1F ADD PUSH1 0x20 DUP1 SWAP2 DIV MUL PUSH1 0x20 ADD PUSH1 0x40 MLOAD SWAP1 DUP2 ADD PUSH1 0x40 MSTORE DUP1 SWAP4 SWAP3 SWAP2 SWAP1 DUP2 DUP2 MSTORE PUSH1 0x20 ADD DUP4 DUP4 DUP1 DUP3 DUP5 CALLDATACOPY PUSH0 DUP2 DUP5 ADD MSTORE PUSH1 0x1F NOT PUSH1 0x1F DUP3 ADD AND SWAP1 POP DUP1 DUP4 ADD SWAP3 POP POP POP POP POP POP POP DUP7 DUP7 DUP7 DUP1 DUP1 PUSH1 0x1F ADD PUSH1 0x20 DUP1 SWAP2 DIV MUL PUSH1 0x20 ADD PUSH1 0x40 MLOAD SWAP1 DUP2 ADD PUSH1 0x40 MSTORE DUP1 SWAP4 SWAP3 SWAP2 SWAP1 DUP2 DUP2 MSTORE PUSH1 0x20 ADD DUP4 DUP4 DUP1 DUP3 DUP5 CALLDATACOPY PUSH0 DUP2 DUP5 ADD MSTORE PUSH1 0x1F NOT PUSH1 0x1F DUP3 ADD AND SWAP1 POP DUP1 DUP4 ADD SWAP3 POP POP POP POP POP POP POP PUSH2 0x25CB JUMP JUMPDEST POP POP POP POP POP POP POP JUMP JUMPDEST PUSH2 0xD15 PUSH2 0x253D JUMP JUMPDEST PUSH32 0x0 PUSH20 0xFFFFFFFFFFFFFFFFFFFFFFFFFFFFFFFFFFFFFFFF AND PUSH4 0x7E0DB17 DUP3 PUSH1 0x40 MLOAD DUP3 PUSH4 0xFFFFFFFF AND PUSH1 0xE0 SHL DUP2 MSTORE PUSH1 0x4 ADD PUSH2 0xD6E SWAP2 SWAP1 PUSH2 0x3FC8 JUMP JUMPDEST PUSH0 PUSH1 0x40 MLOAD DUP1 DUP4 SUB DUP2 PUSH0 DUP8 DUP1 EXTCODESIZE ISZERO DUP1 ISZERO PUSH2 0xD85 JUMPI PUSH0 DUP1 REVERT JUMPDEST POP GAS CALL ISZERO DUP1 ISZERO PUSH2 0xD97 JUMPI RETURNDATASIZE PUSH0 DUP1 RETURNDATACOPY RETURNDATASIZE PUSH0 REVERT JUMPDEST POP POP POP POP POP JUMP JUMPDEST PUSH2 0xDA6 PUSH2 0x253D JUMP JUMPDEST PUSH0 PUSH20 0xFFFFFFFFFFFFFFFFFFFFFFFFFFFFFFFFFFFFFFFF AND DUP2 PUSH20 0xFFFFFFFFFFFFFFFFFFFFFFFFFFFFFFFFFFFFFFFF AND SUB PUSH2 0xE14 JUMPI PUSH1 0x40 MLOAD PUSH32 0x8C379A000000000000000000000000000000000000000000000000000000000 DUP2 MSTORE PUSH1 0x4 ADD PUSH2 0xE0B SWAP1 PUSH2 0x49B9 JUMP JUMPDEST PUSH1 0x40 MLOAD DUP1 SWAP2 SUB SWAP1 REVERT JUMPDEST PUSH1 0xA PUSH0 DUP3 PUSH20 0xFFFFFFFFFFFFFFFFFFFFFFFFFFFFFFFFFFFFFFFF AND PUSH20 0xFFFFFFFFFFFFFFFFFFFFFFFFFFFFFFFFFFFFFFFF AND DUP2 MSTORE PUSH1 0x20 ADD SWAP1 DUP2 MSTORE PUSH1 0x20 ADD PUSH0 KECCAK256 PUSH0 SWAP1 SLOAD SWAP1 PUSH2 0x100 EXP SWAP1 DIV PUSH1 0xFF AND ISZERO PUSH2 0xE9E JUMPI PUSH1 0x40 MLOAD PUSH32 0x8C379A000000000000000000000000000000000000000000000000000000000 DUP2 MSTORE PUSH1 0x4 ADD PUSH2 0xE95 SWAP1 PUSH2 0x4A47 JUMP JUMPDEST PUSH1 0x40 MLOAD DUP1 SWAP2 SUB SWAP1 REVERT JUMPDEST PUSH0 PUSH2 0xEA8 DUP3 PUSH2 0x2695 JUMP JUMPDEST SWAP1 POP PUSH1 0x6 PUSH1 0xFF AND DUP2 PUSH1 0xFF AND LT ISZERO PUSH2 0xEF4 JUMPI PUSH1 0x40 MLOAD PUSH32 0x8C379A000000000000000000000000000000000000000000000000000000000 DUP2 MSTORE PUSH1 0x4 ADD PUSH2 0xEEB SWAP1 PUSH2 0x4AD5 JUMP JUMPDEST PUSH1 0x40 MLOAD DUP1 SWAP2 SUB SWAP1 REVERT JUMPDEST PUSH1 0x1 PUSH1 0xA PUSH0 DUP5 PUSH20 0xFFFFFFFFFFFFFFFFFFFFFFFFFFFFFFFFFFFFFFFF AND PUSH20 0xFFFFFFFFFFFFFFFFFFFFFFFFFFFFFFFFFFFFFFFF AND DUP2 MSTORE PUSH1 0x20 ADD SWAP1 DUP2 MSTORE PUSH1 0x20 ADD PUSH0 KECCAK256 PUSH0 PUSH2 0x100 EXP DUP2 SLOAD DUP2 PUSH1 0xFF MUL NOT AND SWAP1 DUP4 ISZERO ISZERO MUL OR SWAP1 SSTORE POP PUSH1 0x6 DUP2 PUSH2 0xF56 SWAP2 SWAP1 PUSH2 0x4B20 JUMP JUMPDEST PUSH1 0xA PUSH2 0xF62 SWAP2 SWAP1 PUSH2 0x4C83 JUMP JUMPDEST PUSH1 0xC PUSH0 DUP5 PUSH20 0xFFFFFFFFFFFFFFFFFFFFFFFFFFFFFFFFFFFFFFFF AND PUSH20 0xFFFFFFFFFFFFFFFFFFFFFFFFFFFFFFFFFFFFFFFF AND DUP2 MSTORE PUSH1 0x20 ADD SWAP1 DUP2 MSTORE PUSH1 0x20 ADD PUSH0 KECCAK256 DUP2 SWAP1 SSTORE POP PUSH32 0xF7FE8023CB2E36BDE1D59A88AC5763A8C11BE6D25E6819F71BB7E23E5BF0DC16 DUP3 PUSH1 0x40 MLOAD PUSH2 0xFD2 SWAP2 SWAP1 PUSH2 0x4080 JUMP JUMPDEST PUSH1 0x40 MLOAD DUP1 SWAP2 SUB SWAP1 LOG1 POP POP JUMP JUMPDEST PUSH2 0xFE6 PUSH2 0x253D JUMP JUMPDEST DUP1 PUSH1 0x3 PUSH0 DUP5 PUSH2 0xFFFF AND PUSH2 0xFFFF AND DUP2 MSTORE PUSH1 0x20 ADD SWAP1 DUP2 MSTORE PUSH1 0x20 ADD PUSH0 KECCAK256 DUP2 SWAP1 SSTORE POP POP POP JUMP JUMPDEST PUSH2 0x1010 PUSH2 0x253D JUMP JUMPDEST PUSH32 0x0 PUSH20 0xFFFFFFFFFFFFFFFFFFFFFFFFFFFFFFFFFFFFFFFF AND PUSH4 0x10DDB137 DUP3 PUSH1 0x40 MLOAD DUP3 PUSH4 0xFFFFFFFF AND PUSH1 0xE0 SHL DUP2 MSTORE PUSH1 0x4 ADD PUSH2 0x1069 SWAP2 SWAP1 PUSH2 0x3FC8 JUMP JUMPDEST PUSH0 PUSH1 0x40 MLOAD DUP1 DUP4 SUB DUP2 PUSH0 DUP8 DUP1 EXTCODESIZE ISZERO DUP1 ISZERO PUSH2 0x1080 JUMPI PUSH0 DUP1 REVERT JUMPDEST POP GAS CALL ISZERO DUP1 ISZERO PUSH2 0x1092 JUMPI RETURNDATASIZE PUSH0 DUP1 RETURNDATACOPY RETURNDATASIZE PUSH0 REVERT JUMPDEST POP POP POP POP POP JUMP JUMPDEST PUSH1 0x8 SLOAD DUP2 JUMP JUMPDEST PUSH1 0x7 PUSH0 SWAP1 SLOAD SWAP1 PUSH2 0x100 EXP SWAP1 DIV PUSH2 0xFFFF AND DUP2 JUMP JUMPDEST PUSH0 DUP1 PUSH1 0x1 PUSH0 DUP7 PUSH2 0xFFFF AND PUSH2 0xFFFF AND DUP2 MSTORE PUSH1 0x20 ADD SWAP1 DUP2 MSTORE PUSH1 0x20 ADD PUSH0 KECCAK256 DUP1 SLOAD PUSH2 0x10D8 SWAP1 PUSH2 0x4845 JUMP JUMPDEST DUP1 PUSH1 0x1F ADD PUSH1 0x20 DUP1 SWAP2 DIV MUL PUSH1 0x20 ADD PUSH1 0x40 MLOAD SWAP1 DUP2 ADD PUSH1 0x40 MSTORE DUP1 SWAP3 SWAP2 SWAP1 DUP2 DUP2 MSTORE PUSH1 0x20 ADD DUP3 DUP1 SLOAD PUSH2 0x1104 SWAP1 PUSH2 0x4845 JUMP JUMPDEST DUP1 ISZERO PUSH2 0x114F JUMPI DUP1 PUSH1 0x1F LT PUSH2 0x1126 JUMPI PUSH2 0x100 DUP1 DUP4 SLOAD DIV MUL DUP4 MSTORE SWAP2 PUSH1 0x20 ADD SWAP2 PUSH2 0x114F JUMP JUMPDEST DUP3 ADD SWAP2 SWAP1 PUSH0 MSTORE PUSH1 0x20 PUSH0 KECCAK256 SWAP1 JUMPDEST DUP2 SLOAD DUP2 MSTORE SWAP1 PUSH1 0x1 ADD SWAP1 PUSH1 0x20 ADD DUP1 DUP4 GT PUSH2 0x1132 JUMPI DUP3 SWAP1 SUB PUSH1 0x1F AND DUP3 ADD SWAP2 JUMPDEST POP POP POP POP POP SWAP1 POP DUP4 DUP4 PUSH1 0x40 MLOAD PUSH2 0x1166 SWAP3 SWAP2 SWAP1 PUSH2 0x48A3 JUMP JUMPDEST PUSH1 0x40 MLOAD DUP1 SWAP2 SUB SWAP1 KECCAK256 DUP2 DUP1 MLOAD SWAP1 PUSH1 0x20 ADD KECCAK256 EQ SWAP2 POP POP SWAP4 SWAP3 POP POP POP JUMP JUMPDEST PUSH1 0x3 PUSH1 0x20 MSTORE DUP1 PUSH0 MSTORE PUSH1 0x40 PUSH0 KECCAK256 PUSH0 SWAP2 POP SWAP1 POP SLOAD DUP2 JUMP JUMPDEST PUSH1 0xD PUSH0 SWAP1 SLOAD SWAP1 PUSH2 0x100 EXP SWAP1 DIV PUSH20 0xFFFFFFFFFFFFFFFFFFFFFFFFFFFFFFFFFFFFFFFF AND DUP2 JUMP JUMPDEST PUSH2 0x11C3 PUSH2 0x253D JUMP JUMPDEST PUSH32 0x0 PUSH20 0xFFFFFFFFFFFFFFFFFFFFFFFFFFFFFFFFFFFFFFFF AND PUSH4 0x42D65A8D DUP5 DUP5 DUP5 PUSH1 0x40 MLOAD DUP5 PUSH4 0xFFFFFFFF AND PUSH1 0xE0 SHL DUP2 MSTORE PUSH1 0x4 ADD PUSH2 0x1220 SWAP4 SWAP3 SWAP2 SWAP1 PUSH2 0x4CF9 JUMP JUMPDEST PUSH0 PUSH1 0x40 MLOAD DUP1 DUP4 SUB DUP2 PUSH0 DUP8 DUP1 EXTCODESIZE ISZERO DUP1 ISZERO PUSH2 0x1237 JUMPI PUSH0 DUP1 REVERT JUMPDEST POP GAS CALL ISZERO DUP1 ISZERO PUSH2 0x1249 JUMPI RETURNDATASIZE PUSH0 DUP1 RETURNDATACOPY RETURNDATASIZE PUSH0 REVERT JUMPDEST POP POP POP POP POP POP POP JUMP JUMPDEST PUSH0 DUP1 PUSH2 0x125E DUP5 DUP5 PUSH2 0x27DE JUMP JUMPDEST PUSH0 PUSH2 0x126C PUSH0 DUP1 PUSH0 SHL PUSH0 PUSH2 0x28B2 JUMP JUMPDEST SWAP1 POP PUSH0 DUP1 PUSH20 0xFFFFFFFFFFFFFFFFFFFFFFFFFFFFFFFFFFFFFFFF AND DUP8 PUSH1 0x20 ADD PUSH1 0x20 DUP2 ADD SWAP1 PUSH2 0x1299 SWAP2 SWAP1 PUSH2 0x3F28 JUMP JUMPDEST PUSH20 0xFFFFFFFFFFFFFFFFFFFFFFFFFFFFFFFFFFFFFFFF AND EQ ISZERO SWAP1 POP PUSH32 0x0 PUSH20 0xFFFFFFFFFFFFFFFFFFFFFFFFFFFFFFFFFFFFFFFF AND PUSH4 0x40A7BB10 PUSH1 0x7 PUSH0 SWAP1 SLOAD SWAP1 PUSH2 0x100 EXP SWAP1 DIV PUSH2 0xFFFF AND ADDRESS DUP6 DUP6 DUP12 DUP12 PUSH1 0x40 MLOAD DUP8 PUSH4 0xFFFFFFFF AND PUSH1 0xE0 SHL DUP2 MSTORE PUSH1 0x4 ADD PUSH2 0x1325 SWAP7 SWAP6 SWAP5 SWAP4 SWAP3 SWAP2 SWAP1 PUSH2 0x4D29 JUMP JUMPDEST PUSH1 0x40 DUP1 MLOAD DUP1 DUP4 SUB DUP2 DUP7 GAS STATICCALL ISZERO DUP1 ISZERO PUSH2 0x133F JUMPI RETURNDATASIZE PUSH0 DUP1 RETURNDATACOPY RETURNDATASIZE PUSH0 REVERT JUMPDEST POP POP POP POP PUSH1 0x40 MLOAD RETURNDATASIZE PUSH1 0x1F NOT PUSH1 0x1F DUP3 ADD AND DUP3 ADD DUP1 PUSH1 0x40 MSTORE POP DUP2 ADD SWAP1 PUSH2 0x1363 SWAP2 SWAP1 PUSH2 0x4D9E JUMP JUMPDEST SWAP4 POP SWAP4 POP POP POP SWAP4 POP SWAP4 SWAP2 POP POP JUMP JUMPDEST PUSH1 0xD PUSH1 0x16 SWAP1 SLOAD SWAP1 PUSH2 0x100 EXP SWAP1 DIV PUSH1 0xFF AND DUP2 JUMP JUMPDEST PUSH1 0x5 PUSH1 0x20 MSTORE DUP3 PUSH0 MSTORE PUSH1 0x40 PUSH0 KECCAK256 DUP3 DUP1 MLOAD PUSH1 0x20 DUP2 ADD DUP3 ADD DUP1 MLOAD DUP5 DUP3 MSTORE PUSH1 0x20 DUP4 ADD PUSH1 0x20 DUP6 ADD KECCAK256 DUP2 DUP4 MSTORE DUP1 SWAP6 POP POP POP POP POP POP PUSH1 0x20 MSTORE DUP1 PUSH0 MSTORE PUSH1 0x40 PUSH0 KECCAK256 PUSH0 SWAP3 POP SWAP3 POP POP POP SLOAD DUP2 JUMP JUMPDEST PUSH1 0xD PUSH1 0x15 SWAP1 SLOAD SWAP1 PUSH2 0x100 EXP SWAP1 DIV PUSH1 0xFF AND DUP2 JUMP JUMPDEST ADDRESS PUSH20 0xFFFFFFFFFFFFFFFFFFFFFFFFFFFFFFFFFFFFFFFF AND PUSH2 0x13F9 PUSH2 0x25C4 JUMP JUMPDEST PUSH20 0xFFFFFFFFFFFFFFFFFFFFFFFFFFFFFFFFFFFFFFFF AND EQ PUSH2 0x144F JUMPI PUSH1 0x40 MLOAD PUSH32 0x8C379A000000000000000000000000000000000000000000000000000000000 DUP2 MSTORE PUSH1 0x4 ADD PUSH2 0x1446 SWAP1 PUSH2 0x4E4C JUMP JUMPDEST PUSH1 0x40 MLOAD DUP1 SWAP2 SUB SWAP1 REVERT JUMPDEST PUSH2 0x14E1 DUP7 DUP7 DUP7 DUP1 DUP1 PUSH1 0x1F ADD PUSH1 0x20 DUP1 SWAP2 DIV MUL PUSH1 0x20 ADD PUSH1 0x40 MLOAD SWAP1 DUP2 ADD PUSH1 0x40 MSTORE DUP1 SWAP4 SWAP3 SWAP2 SWAP1 DUP2 DUP2 MSTORE PUSH1 0x20 ADD DUP4 DUP4 DUP1 DUP3 DUP5 CALLDATACOPY PUSH0 DUP2 DUP5 ADD MSTORE PUSH1 0x1F NOT PUSH1 0x1F DUP3 ADD AND SWAP1 POP DUP1 DUP4 ADD SWAP3 POP POP POP POP POP POP POP DUP6 DUP6 DUP6 DUP1 DUP1 PUSH1 0x1F ADD PUSH1 0x20 DUP1 SWAP2 DIV MUL PUSH1 0x20 ADD PUSH1 0x40 MLOAD SWAP1 DUP2 ADD PUSH1 0x40 MSTORE DUP1 SWAP4 SWAP3 SWAP2 SWAP1 DUP2 DUP2 MSTORE PUSH1 0x20 ADD DUP4 DUP4 DUP1 DUP3 DUP5 CALLDATACOPY PUSH0 DUP2 DUP5 ADD MSTORE PUSH1 0x1F NOT PUSH1 0x1F DUP3 ADD AND SWAP1 POP DUP1 DUP4 ADD SWAP3 POP POP POP POP POP POP POP PUSH2 0x2902 JUMP JUMPDEST POP POP POP POP POP POP JUMP JUMPDEST PUSH1 0xA PUSH1 0x20 MSTORE DUP1 PUSH0 MSTORE PUSH1 0x40 PUSH0 KECCAK256 PUSH0 SWAP2 POP SLOAD SWAP1 PUSH2 0x100 EXP SWAP1 DIV PUSH1 0xFF AND DUP2 JUMP JUMPDEST PUSH2 0x150E PUSH2 0x253D JUMP JUMPDEST PUSH2 0x1517 PUSH0 PUSH2 0x2DB1 JUMP JUMPDEST JUMP JUMPDEST PUSH1 0x1 PUSH1 0x20 MSTORE DUP1 PUSH0 MSTORE PUSH1 0x40 PUSH0 KECCAK256 PUSH0 SWAP2 POP SWAP1 POP DUP1 SLOAD PUSH2 0x1535 SWAP1 PUSH2 0x4845 JUMP JUMPDEST DUP1 PUSH1 0x1F ADD PUSH1 0x20 DUP1 SWAP2 DIV MUL PUSH1 0x20 ADD PUSH1 0x40 MLOAD SWAP1 DUP2 ADD PUSH1 0x40 MSTORE DUP1 SWAP3 SWAP2 SWAP1 DUP2 DUP2 MSTORE PUSH1 0x20 ADD DUP3 DUP1 SLOAD PUSH2 0x1561 SWAP1 PUSH2 0x4845 JUMP JUMPDEST DUP1 ISZERO PUSH2 0x15AC JUMPI DUP1 PUSH1 0x1F LT PUSH2 0x1583 JUMPI PUSH2 0x100 DUP1 DUP4 SLOAD DIV MUL DUP4 MSTORE SWAP2 PUSH1 0x20 ADD SWAP2 PUSH2 0x15AC JUMP JUMPDEST DUP3 ADD SWAP2 SWAP1 PUSH0 MSTORE PUSH1 0x20 PUSH0 KECCAK256 SWAP1 JUMPDEST DUP2 SLOAD DUP2 MSTORE SWAP1 PUSH1 0x1 ADD SWAP1 PUSH1 0x20 ADD DUP1 DUP4 GT PUSH2 0x158F JUMPI DUP3 SWAP1 SUB PUSH1 0x1F AND DUP3 ADD SWAP2 JUMPDEST POP POP POP POP POP DUP2 JUMP JUMPDEST DUP6 PUSH1 0xD PUSH1 0x15 SWAP1 SLOAD SWAP1 PUSH2 0x100 EXP SWAP1 DIV PUSH1 0xFF AND ISZERO DUP1 ISZERO PUSH2 0x1619 JUMPI POP PUSH1 0xB PUSH0 DUP3 PUSH20 0xFFFFFFFFFFFFFFFFFFFFFFFFFFFFFFFFFFFFFFFF AND PUSH20 0xFFFFFFFFFFFFFFFFFFFFFFFFFFFFFFFFFFFFFFFF AND DUP2 MSTORE PUSH1 0x20 ADD SWAP1 DUP2 MSTORE PUSH1 0x20 ADD PUSH0 KECCAK256 PUSH0 SWAP1 SLOAD SWAP1 PUSH2 0x100 EXP SWAP1 DIV PUSH1 0xFF AND ISZERO JUMPDEST PUSH2 0x1658 JUMPI PUSH1 0x40 MLOAD PUSH32 0x8C379A000000000000000000000000000000000000000000000000000000000 DUP2 MSTORE PUSH1 0x4 ADD PUSH2 0x164F SWAP1 PUSH2 0x4EB4 JUMP JUMPDEST PUSH1 0x40 MLOAD DUP1 SWAP2 SUB SWAP1 REVERT JUMPDEST PUSH2 0x1660 PUSH2 0x2E72 JUMP JUMPDEST PUSH1 0xA PUSH0 DUP9 PUSH20 0xFFFFFFFFFFFFFFFFFFFFFFFFFFFFFFFFFFFFFFFF AND PUSH20 0xFFFFFFFFFFFFFFFFFFFFFFFFFFFFFFFFFFFFFFFF AND DUP2 MSTORE PUSH1 0x20 ADD SWAP1 DUP2 MSTORE PUSH1 0x20 ADD PUSH0 KECCAK256 PUSH0 SWAP1 SLOAD SWAP1 PUSH2 0x100 EXP SWAP1 DIV PUSH1 0xFF AND PUSH2 0x16E9 JUMPI PUSH1 0x40 MLOAD PUSH32 0x8C379A000000000000000000000000000000000000000000000000000000000 DUP2 MSTORE PUSH1 0x4 ADD PUSH2 0x16E0 SWAP1 PUSH2 0x4F42 JUMP JUMPDEST PUSH1 0x40 MLOAD DUP1 SWAP2 SUB SWAP1 REVERT JUMPDEST PUSH2 0x16F3 DUP8 DUP7 PUSH2 0x2EC1 JUMP JUMPDEST SWAP5 POP PUSH2 0x1700 DUP8 CALLER DUP8 PUSH2 0x2EDD JUMP JUMPDEST SWAP5 POP PUSH0 PUSH2 0x170D DUP9 DUP8 PUSH2 0x3018 JUMP JUMPDEST SWAP1 POP PUSH0 DUP2 PUSH8 0xFFFFFFFFFFFFFFFF AND GT PUSH2 0x175B JUMPI PUSH1 0x40 MLOAD PUSH32 0x8C379A000000000000000000000000000000000000000000000000000000000 DUP2 MSTORE PUSH1 0x4 ADD PUSH2 0x1752 SWAP1 PUSH2 0x4FD0 JUMP JUMPDEST PUSH1 0x40 MLOAD DUP1 SWAP2 SUB SWAP1 REVERT JUMPDEST DUP1 PUSH1 0x9 PUSH0 DUP11 PUSH20 0xFFFFFFFFFFFFFFFFFFFFFFFFFFFFFFFFFFFFFFFF AND PUSH20 0xFFFFFFFFFFFFFFFFFFFFFFFFFFFFFFFFFFFFFFFF AND DUP2 MSTORE PUSH1 0x20 ADD SWAP1 DUP2 MSTORE PUSH1 0x20 ADD PUSH0 KECCAK256 PUSH0 DUP3 DUP3 DUP3 SWAP1 SLOAD SWAP1 PUSH2 0x100 EXP SWAP1 DIV PUSH8 0xFFFFFFFFFFFFFFFF AND PUSH2 0x17BA SWAP2 SWAP1 PUSH2 0x4FEE JUMP JUMPDEST SWAP3 POP PUSH2 0x100 EXP DUP2 SLOAD DUP2 PUSH8 0xFFFFFFFFFFFFFFFF MUL NOT AND SWAP1 DUP4 PUSH8 0xFFFFFFFFFFFFFFFF AND MUL OR SWAP1 SSTORE POP PUSH2 0x17EF DUP9 DUP9 DUP4 DUP9 DUP9 DUP9 CALLVALUE PUSH2 0x30BC JUMP JUMPDEST DUP7 CALLER PUSH20 0xFFFFFFFFFFFFFFFFFFFFFFFFFFFFFFFFFFFFFFFF AND DUP10 PUSH20 0xFFFFFFFFFFFFFFFFFFFFFFFFFFFFFFFFFFFFFFFF AND PUSH32 0xBE6FF12FEC5087498D44BC85F1A83235A630944A1E2D5A7938AFE810370A5867 DUP10 PUSH1 0x40 MLOAD PUSH2 0x184D SWAP2 SWAP1 PUSH2 0x3FA0 JUMP JUMPDEST PUSH1 0x40 MLOAD DUP1 SWAP2 SUB SWAP1 LOG4 POP PUSH2 0x185E PUSH2 0x3161 JUMP JUMPDEST POP POP POP POP POP POP POP JUMP JUMPDEST PUSH1 0x2 PUSH1 0x20 MSTORE DUP2 PUSH0 MSTORE PUSH1 0x40 PUSH0 KECCAK256 PUSH1 0x20 MSTORE DUP1 PUSH0 MSTORE PUSH1 0x40 PUSH0 KECCAK256 PUSH0 SWAP2 POP SWAP2 POP POP SLOAD DUP2 JUMP JUMPDEST PUSH0 DUP1 PUSH0 SWAP1 SLOAD SWAP1 PUSH2 0x100 EXP SWAP1 DIV PUSH20 0xFFFFFFFFFFFFFFFFFFFFFFFFFFFFFFFFFFFFFFFF AND SWAP1 POP SWAP1 JUMP JUMPDEST PUSH1 0xC PUSH1 0x20 MSTORE DUP1 PUSH0 MSTORE PUSH1 0x40 PUSH0 KECCAK256 PUSH0 SWAP2 POP SWAP1 POP SLOAD DUP2 JUMP JUMPDEST PUSH1 0x4 PUSH0 SWAP1 SLOAD SWAP1 PUSH2 0x100 EXP SWAP1 DIV PUSH20 0xFFFFFFFFFFFFFFFFFFFFFFFFFFFFFFFFFFFFFFFF AND DUP2 JUMP JUMPDEST PUSH1 0x6 DUP2 JUMP JUMPDEST PUSH1 0x60 PUSH0 PUSH1 0x1 PUSH0 DUP5 PUSH2 0xFFFF AND PUSH2 0xFFFF AND DUP2 MSTORE PUSH1 0x20 ADD SWAP1 DUP2 MSTORE PUSH1 0x20 ADD PUSH0 KECCAK256 DUP1 SLOAD PUSH2 0x1914 SWAP1 PUSH2 0x4845 JUMP JUMPDEST DUP1 PUSH1 0x1F ADD PUSH1 0x20 DUP1 SWAP2 DIV MUL PUSH1 0x20 ADD PUSH1 0x40 MLOAD SWAP1 DUP2 ADD PUSH1 0x40 MSTORE DUP1 SWAP3 SWAP2 SWAP1 DUP2 DUP2 MSTORE PUSH1 0x20 ADD DUP3 DUP1 SLOAD PUSH2 0x1940 SWAP1 PUSH2 0x4845 JUMP JUMPDEST DUP1 ISZERO PUSH2 0x198B JUMPI DUP1 PUSH1 0x1F LT PUSH2 0x1962 JUMPI PUSH2 0x100 DUP1 DUP4 SLOAD DIV MUL DUP4 MSTORE SWAP2 PUSH1 0x20 ADD SWAP2 PUSH2 0x198B JUMP JUMPDEST DUP3 ADD SWAP2 SWAP1 PUSH0 MSTORE PUSH1 0x20 PUSH0 KECCAK256 SWAP1 JUMPDEST DUP2 SLOAD DUP2 MSTORE SWAP1 PUSH1 0x1 ADD SWAP1 PUSH1 0x20 ADD DUP1 DUP4 GT PUSH2 0x196E JUMPI DUP3 SWAP1 SUB PUSH1 0x1F AND DUP3 ADD SWAP2 JUMPDEST POP POP POP POP POP SWAP1 POP PUSH0 DUP2 MLOAD SUB PUSH2 0x19D5 JUMPI PUSH1 0x40 MLOAD PUSH32 0x8C379A000000000000000000000000000000000000000000000000000000000 DUP2 MSTORE PUSH1 0x4 ADD PUSH2 0x19CC SWAP1 PUSH2 0x5073 JUMP JUMPDEST PUSH1 0x40 MLOAD DUP1 SWAP2 SUB SWAP1 REVERT JUMPDEST PUSH2 0x19F7 PUSH0 PUSH1 0x14 DUP4 MLOAD PUSH2 0x19E7 SWAP2 SWAP1 PUSH2 0x5091 JUMP JUMPDEST DUP4 PUSH2 0x316B SWAP1 SWAP3 SWAP2 SWAP1 PUSH4 0xFFFFFFFF AND JUMP JUMPDEST SWAP2 POP POP SWAP2 SWAP1 POP JUMP JUMPDEST PUSH0 DUP1 PUSH2 0x1A5B DUP4 PUSH1 0x9 PUSH0 DUP7 PUSH20 0xFFFFFFFFFFFFFFFFFFFFFFFFFFFFFFFFFFFFFFFF AND PUSH20 0xFFFFFFFFFFFFFFFFFFFFFFFFFFFFFFFFFFFFFFFF AND DUP2 MSTORE PUSH1 0x20 ADD SWAP1 DUP2 MSTORE PUSH1 0x20 ADD PUSH0 KECCAK256 PUSH0 SWAP1 SLOAD SWAP1 PUSH2 0x100 EXP SWAP1 DIV PUSH8 0xFFFFFFFFFFFFFFFF AND PUSH2 0x3287 JUMP JUMPDEST SWAP1 POP DUP1 DUP4 PUSH20 0xFFFFFFFFFFFFFFFFFFFFFFFFFFFFFFFFFFFFFFFF AND PUSH4 0x70A08231 ADDRESS PUSH1 0x40 MLOAD DUP3 PUSH4 0xFFFFFFFF AND PUSH1 0xE0 SHL DUP2 MSTORE PUSH1 0x4 ADD PUSH2 0x1A97 SWAP2 SWAP1 PUSH2 0x4080 JUMP JUMPDEST PUSH1 0x20 PUSH1 0x40 MLOAD DUP1 DUP4 SUB DUP2 DUP7 GAS STATICCALL ISZERO DUP1 ISZERO PUSH2 0x1AB2 JUMPI RETURNDATASIZE PUSH0 DUP1 RETURNDATACOPY RETURNDATASIZE PUSH0 REVERT JUMPDEST POP POP POP POP PUSH1 0x40 MLOAD RETURNDATASIZE PUSH1 0x1F NOT PUSH1 0x1F DUP3 ADD AND DUP3 ADD DUP1 PUSH1 0x40 MSTORE POP DUP2 ADD SWAP1 PUSH2 0x1AD6 SWAP2 SWAP1 PUSH2 0x50C4 JUMP JUMPDEST PUSH2 0x1AE0 SWAP2 SWAP1 PUSH2 0x5091 JUMP JUMPDEST SWAP2 POP POP SWAP2 SWAP1 POP JUMP JUMPDEST PUSH2 0x1AF0 PUSH2 0x253D JUMP JUMPDEST DUP2 DUP2 ADDRESS PUSH1 0x40 MLOAD PUSH1 0x20 ADD PUSH2 0x1B05 SWAP4 SWAP3 SWAP2 SWAP1 PUSH2 0x5134 JUMP JUMPDEST PUSH1 0x40 MLOAD PUSH1 0x20 DUP2 DUP4 SUB SUB DUP2 MSTORE SWAP1 PUSH1 0x40 MSTORE PUSH1 0x1 PUSH0 DUP6 PUSH2 0xFFFF AND PUSH2 0xFFFF AND DUP2 MSTORE PUSH1 0x20 ADD SWAP1 DUP2 MSTORE PUSH1 0x20 ADD PUSH0 KECCAK256 SWAP1 DUP2 PUSH2 0x1B39 SWAP2 SWAP1 PUSH2 0x52F1 JUMP JUMPDEST POP PUSH32 0x8C0400CFE2D1199B1A725C78960BCC2A344D869B80590D0F2BD005DB15A572CE DUP4 DUP4 DUP4 PUSH1 0x40 MLOAD PUSH2 0x1B6D SWAP4 SWAP3 SWAP2 SWAP1 PUSH2 0x4CF9 JUMP JUMPDEST PUSH1 0x40 MLOAD DUP1 SWAP2 SUB SWAP1 LOG1 POP POP POP JUMP JUMPDEST PUSH2 0x2710 DUP2 JUMP JUMPDEST PUSH32 0x0 DUP2 JUMP JUMPDEST PUSH2 0x1BAC PUSH2 0x253D JUMP JUMPDEST DUP1 PUSH1 0x4 PUSH0 PUSH2 0x100 EXP DUP2 SLOAD DUP2 PUSH20 0xFFFFFFFFFFFFFFFFFFFFFFFFFFFFFFFFFFFFFFFF MUL NOT AND SWAP1 DUP4 PUSH20 0xFFFFFFFFFFFFFFFFFFFFFFFFFFFFFFFFFFFFFFFF AND MUL OR SWAP1 SSTORE POP PUSH32 0x5DB758E995A17EC1AD84BDEF7E8C3293A0BD6179BCCE400DFF5D4C3D87DB726B DUP2 PUSH1 0x40 MLOAD PUSH2 0x1C1B SWAP2 SWAP1 PUSH2 0x4080 JUMP JUMPDEST PUSH1 0x40 MLOAD DUP1 SWAP2 SUB SWAP1 LOG1 POP JUMP JUMPDEST PUSH2 0x2710 DUP2 JUMP JUMPDEST PUSH1 0xD PUSH0 SWAP1 SLOAD SWAP1 PUSH2 0x100 EXP SWAP1 DIV PUSH20 0xFFFFFFFFFFFFFFFFFFFFFFFFFFFFFFFFFFFFFFFF AND PUSH1 0xD PUSH1 0x15 SWAP1 SLOAD SWAP1 PUSH2 0x100 EXP SWAP1 DIV PUSH1 0xFF AND ISZERO DUP1 ISZERO PUSH2 0x1CB2 JUMPI POP PUSH1 0xB PUSH0 DUP3 PUSH20 0xFFFFFFFFFFFFFFFFFFFFFFFFFFFFFFFFFFFFFFFF AND PUSH20 0xFFFFFFFFFFFFFFFFFFFFFFFFFFFFFFFFFFFFFFFF AND DUP2 MSTORE PUSH1 0x20 ADD SWAP1 DUP2 MSTORE PUSH1 0x20 ADD PUSH0 KECCAK256 PUSH0 SWAP1 SLOAD SWAP1 PUSH2 0x100 EXP SWAP1 DIV PUSH1 0xFF AND ISZERO JUMPDEST PUSH2 0x1CF1 JUMPI PUSH1 0x40 MLOAD PUSH32 0x8C379A000000000000000000000000000000000000000000000000000000000 DUP2 MSTORE PUSH1 0x4 ADD PUSH2 0x1CE8 SWAP1 PUSH2 0x4EB4 JUMP JUMPDEST PUSH1 0x40 MLOAD DUP1 SWAP2 SUB SWAP1 REVERT JUMPDEST PUSH2 0x1CF9 PUSH2 0x2E72 JUMP JUMPDEST PUSH0 PUSH1 0xD PUSH0 SWAP1 SLOAD SWAP1 PUSH2 0x100 EXP SWAP1 DIV PUSH20 0xFFFFFFFFFFFFFFFFFFFFFFFFFFFFFFFFFFFFFFFF AND SWAP1 POP PUSH0 PUSH20 0xFFFFFFFFFFFFFFFFFFFFFFFFFFFFFFFFFFFFFFFF AND DUP2 PUSH20 0xFFFFFFFFFFFFFFFFFFFFFFFFFFFFFFFFFFFFFFFF AND EQ ISZERO DUP1 ISZERO PUSH2 0x1DA0 JUMPI POP PUSH1 0xA PUSH0 DUP3 PUSH20 0xFFFFFFFFFFFFFFFFFFFFFFFFFFFFFFFFFFFFFFFF AND PUSH20 0xFFFFFFFFFFFFFFFFFFFFFFFFFFFFFFFFFFFFFFFF AND DUP2 MSTORE PUSH1 0x20 ADD SWAP1 DUP2 MSTORE PUSH1 0x20 ADD PUSH0 KECCAK256 PUSH0 SWAP1 SLOAD SWAP1 PUSH2 0x100 EXP SWAP1 DIV PUSH1 0xFF AND JUMPDEST PUSH2 0x1DDF JUMPI PUSH1 0x40 MLOAD PUSH32 0x8C379A000000000000000000000000000000000000000000000000000000000 DUP2 MSTORE PUSH1 0x4 ADD PUSH2 0x1DD6 SWAP1 PUSH2 0x5430 JUMP JUMPDEST PUSH1 0x40 MLOAD DUP1 SWAP2 SUB SWAP1 REVERT JUMPDEST PUSH2 0x1DE9 DUP2 DUP8 PUSH2 0x2EC1 JUMP JUMPDEST SWAP6 POP PUSH0 DUP7 GT PUSH2 0x1E2D JUMPI PUSH1 0x40 MLOAD PUSH32 0x8C379A000000000000000000000000000000000000000000000000000000000 DUP2 MSTORE PUSH1 0x4 ADD PUSH2 0x1E24 SWAP1 PUSH2 0x54BE JUMP JUMPDEST PUSH1 0x40 MLOAD DUP1 SWAP2 SUB SWAP1 REVERT JUMPDEST DUP6 CALLVALUE LT ISZERO PUSH2 0x1E70 JUMPI PUSH1 0x40 MLOAD PUSH32 0x8C379A000000000000000000000000000000000000000000000000000000000 DUP2 MSTORE PUSH1 0x4 ADD PUSH2 0x1E67 SWAP1 PUSH2 0x5526 JUMP JUMPDEST PUSH1 0x40 MLOAD DUP1 SWAP2 SUB SWAP1 REVERT JUMPDEST DUP1 PUSH20 0xFFFFFFFFFFFFFFFFFFFFFFFFFFFFFFFFFFFFFFFF AND PUSH4 0xD0E30DB0 DUP8 PUSH1 0x40 MLOAD DUP3 PUSH4 0xFFFFFFFF AND PUSH1 0xE0 SHL DUP2 MSTORE PUSH1 0x4 ADD PUSH0 PUSH1 0x40 MLOAD DUP1 DUP4 SUB DUP2 DUP6 DUP9 DUP1 EXTCODESIZE ISZERO DUP1 ISZERO PUSH2 0x1EB6 JUMPI PUSH0 DUP1 REVERT JUMPDEST POP GAS CALL ISZERO DUP1 ISZERO PUSH2 0x1EC8 JUMPI RETURNDATASIZE PUSH0 DUP1 RETURNDATACOPY RETURNDATASIZE PUSH0 REVERT JUMPDEST POP POP POP POP POP PUSH0 PUSH2 0x1ED8 DUP3 DUP9 PUSH2 0x3018 JUMP JUMPDEST SWAP1 POP DUP1 PUSH1 0x9 PUSH0 DUP5 PUSH20 0xFFFFFFFFFFFFFFFFFFFFFFFFFFFFFFFFFFFFFFFF AND PUSH20 0xFFFFFFFFFFFFFFFFFFFFFFFFFFFFFFFFFFFFFFFF AND DUP2 MSTORE PUSH1 0x20 ADD SWAP1 DUP2 MSTORE PUSH1 0x20 ADD PUSH0 KECCAK256 PUSH0 DUP3 DUP3 DUP3 SWAP1 SLOAD SWAP1 PUSH2 0x100 EXP SWAP1 DIV PUSH8 0xFFFFFFFFFFFFFFFF AND PUSH2 0x1F39 SWAP2 SWAP1 PUSH2 0x4FEE JUMP JUMPDEST SWAP3 POP PUSH2 0x100 EXP DUP2 SLOAD DUP2 PUSH8 0xFFFFFFFFFFFFFFFF MUL NOT AND SWAP1 DUP4 PUSH8 0xFFFFFFFFFFFFFFFF AND MUL OR SWAP1 SSTORE POP PUSH2 0x1F79 DUP3 DUP10 DUP4 DUP10 DUP10 DUP10 DUP14 CALLVALUE PUSH2 0x1F74 SWAP2 SWAP1 PUSH2 0x5091 JUMP JUMPDEST PUSH2 0x30BC JUMP JUMPDEST DUP8 CALLER PUSH20 0xFFFFFFFFFFFFFFFFFFFFFFFFFFFFFFFFFFFFFFFF AND PUSH0 PUSH20 0xFFFFFFFFFFFFFFFFFFFFFFFFFFFFFFFFFFFFFFFF AND PUSH32 0xBE6FF12FEC5087498D44BC85F1A83235A630944A1E2D5A7938AFE810370A5867 DUP11 PUSH1 0x40 MLOAD PUSH2 0x1FD7 SWAP2 SWAP1 PUSH2 0x3FA0 JUMP JUMPDEST PUSH1 0x40 MLOAD DUP1 SWAP2 SUB SWAP1 LOG4 POP POP PUSH2 0x1FE9 PUSH2 0x3161 JUMP JUMPDEST POP POP POP POP POP POP JUMP JUMPDEST PUSH2 0x1FF9 PUSH2 0x253D JUMP JUMPDEST PUSH32 0x0 PUSH20 0xFFFFFFFFFFFFFFFFFFFFFFFFFFFFFFFFFFFFFFFF AND PUSH4 0xCBED8B9C DUP7 DUP7 DUP7 DUP7 DUP7 PUSH1 0x40 MLOAD DUP7 PUSH4 0xFFFFFFFF AND PUSH1 0xE0 SHL DUP2 MSTORE PUSH1 0x4 ADD PUSH2 0x205A SWAP6 SWAP5 SWAP4 SWAP3 SWAP2 SWAP1 PUSH2 0x5544 JUMP JUMPDEST PUSH0 PUSH1 0x40 MLOAD DUP1 DUP4 SUB DUP2 PUSH0 DUP8 DUP1 EXTCODESIZE ISZERO DUP1 ISZERO PUSH2 0x2071 JUMPI PUSH0 DUP1 REVERT JUMPDEST POP GAS CALL ISZERO DUP1 ISZERO PUSH2 0x2083 JUMPI RETURNDATASIZE PUSH0 DUP1 RETURNDATACOPY RETURNDATASIZE PUSH0 REVERT JUMPDEST POP POP POP POP POP POP POP POP POP JUMP JUMPDEST PUSH0 PUSH1 0x5 PUSH0 DUP9 PUSH2 0xFFFF AND PUSH2 0xFFFF AND DUP2 MSTORE PUSH1 0x20 ADD SWAP1 DUP2 MSTORE PUSH1 0x20 ADD PUSH0 KECCAK256 DUP7 DUP7 PUSH1 0x40 MLOAD PUSH2 0x20B8 SWAP3 SWAP2 SWAP1 PUSH2 0x48A3 JUMP JUMPDEST SWAP1 DUP2 MSTORE PUSH1 0x20 ADD PUSH1 0x40 MLOAD DUP1 SWAP2 SUB SWAP1 KECCAK256 PUSH0 DUP6 PUSH8 0xFFFFFFFFFFFFFFFF AND PUSH8 0xFFFFFFFFFFFFFFFF AND DUP2 MSTORE PUSH1 0x20 ADD SWAP1 DUP2 MSTORE PUSH1 0x20 ADD PUSH0 KECCAK256 SLOAD SWAP1 POP PUSH0 DUP1 SHL DUP2 SUB PUSH2 0x2130 JUMPI PUSH1 0x40 MLOAD PUSH32 0x8C379A000000000000000000000000000000000000000000000000000000000 DUP2 MSTORE PUSH1 0x4 ADD PUSH2 0x2127 SWAP1 PUSH2 0x5600 JUMP JUMPDEST PUSH1 0x40 MLOAD DUP1 SWAP2 SUB SWAP1 REVERT JUMPDEST DUP1 DUP4 DUP4 PUSH1 0x40 MLOAD PUSH2 0x2141 SWAP3 SWAP2 SWAP1 PUSH2 0x48A3 JUMP JUMPDEST PUSH1 0x40 MLOAD DUP1 SWAP2 SUB SWAP1 KECCAK256 EQ PUSH2 0x2189 JUMPI PUSH1 0x40 MLOAD PUSH32 0x8C379A000000000000000000000000000000000000000000000000000000000 DUP2 MSTORE PUSH1 0x4 ADD PUSH2 0x2180 SWAP1 PUSH2 0x568E JUMP JUMPDEST PUSH1 0x40 MLOAD DUP1 SWAP2 SUB SWAP1 REVERT JUMPDEST PUSH0 DUP1 SHL PUSH1 0x5 PUSH0 DUP10 PUSH2 0xFFFF AND PUSH2 0xFFFF AND DUP2 MSTORE PUSH1 0x20 ADD SWAP1 DUP2 MSTORE PUSH1 0x20 ADD PUSH0 KECCAK256 DUP8 DUP8 PUSH1 0x40 MLOAD PUSH2 0x21B5 SWAP3 SWAP2 SWAP1 PUSH2 0x48A3 JUMP JUMPDEST SWAP1 DUP2 MSTORE PUSH1 0x20 ADD PUSH1 0x40 MLOAD DUP1 SWAP2 SUB SWAP1 KECCAK256 PUSH0 DUP7 PUSH8 0xFFFFFFFFFFFFFFFF AND PUSH8 0xFFFFFFFFFFFFFFFF AND DUP2 MSTORE PUSH1 0x20 ADD SWAP1 DUP2 MSTORE PUSH1 0x20 ADD PUSH0 KECCAK256 DUP2 SWAP1 SSTORE POP PUSH2 0x227C DUP8 DUP8 DUP8 DUP1 DUP1 PUSH1 0x1F ADD PUSH1 0x20 DUP1 SWAP2 DIV MUL PUSH1 0x20 ADD PUSH1 0x40 MLOAD SWAP1 DUP2 ADD PUSH1 0x40 MSTORE DUP1 SWAP4 SWAP3 SWAP2 SWAP1 DUP2 DUP2 MSTORE PUSH1 0x20 ADD DUP4 DUP4 DUP1 DUP3 DUP5 CALLDATACOPY PUSH0 DUP2 DUP5 ADD MSTORE PUSH1 0x1F NOT PUSH1 0x1F DUP3 ADD AND SWAP1 POP DUP1 DUP4 ADD SWAP3 POP POP POP POP POP POP POP DUP7 DUP7 DUP7 DUP1 DUP1 PUSH1 0x1F ADD PUSH1 0x20 DUP1 SWAP2 DIV MUL PUSH1 0x20 ADD PUSH1 0x40 MLOAD SWAP1 DUP2 ADD PUSH1 0x40 MSTORE DUP1 SWAP4 SWAP3 SWAP2 SWAP1 DUP2 DUP2 MSTORE PUSH1 0x20 ADD DUP4 DUP4 DUP1 DUP3 DUP5 CALLDATACOPY PUSH0 DUP2 DUP5 ADD MSTORE PUSH1 0x1F NOT PUSH1 0x1F DUP3 ADD AND SWAP1 POP DUP1 DUP4 ADD SWAP3 POP POP POP POP POP POP POP PUSH2 0x2902 JUMP JUMPDEST PUSH32 0xC264D91F3ADC5588250E1551F547752CA0CFA8F6B530D243B9F9F4CAB10EA8E5 DUP8 DUP8 DUP8 DUP8 DUP6 PUSH1 0x40 MLOAD PUSH2 0x22B3 SWAP6 SWAP5 SWAP4 SWAP3 SWAP2 SWAP1 PUSH2 0x56AC JUMP JUMPDEST PUSH1 0x40 MLOAD DUP1 SWAP2 SUB SWAP1 LOG1 POP POP POP POP POP POP POP JUMP JUMPDEST PUSH1 0xE SLOAD DUP2 JUMP JUMPDEST PUSH2 0x22D2 PUSH2 0x253D JUMP JUMPDEST DUP1 PUSH1 0x2 PUSH0 DUP6 PUSH2 0xFFFF AND PUSH2 0xFFFF AND DUP2 MSTORE PUSH1 0x20 ADD SWAP1 DUP2 MSTORE PUSH1 0x20 ADD PUSH0 KECCAK256 PUSH0 DUP5 PUSH2 0xFFFF AND PUSH2 0xFFFF AND DUP2 MSTORE PUSH1 0x20 ADD SWAP1 DUP2 MSTORE PUSH1 0x20 ADD PUSH0 KECCAK256 DUP2 SWAP1 SSTORE POP PUSH32 0x9D5C7C0B934DA8FEFA9C7760C98383778A12DFBFC0C3B3106518F43FB9508AC0 DUP4 DUP4 DUP4 PUSH1 0x40 MLOAD PUSH2 0x233A SWAP4 SWAP3 SWAP2 SWAP1 PUSH2 0x56F8 JUMP JUMPDEST PUSH1 0x40 MLOAD DUP1 SWAP2 SUB SWAP1 LOG1 POP POP POP JUMP JUMPDEST PUSH1 0x9 PUSH1 0x20 MSTORE DUP1 PUSH0 MSTORE PUSH1 0x40 PUSH0 KECCAK256 PUSH0 SWAP2 POP SLOAD SWAP1 PUSH2 0x100 EXP SWAP1 DIV PUSH8 0xFFFFFFFFFFFFFFFF AND DUP2 JUMP JUMPDEST PUSH2 0x2373 PUSH2 0x253D JUMP JUMPDEST DUP2 DUP2 PUSH1 0x1 PUSH0 DUP7 PUSH2 0xFFFF AND PUSH2 0xFFFF AND DUP2 MSTORE PUSH1 0x20 ADD SWAP1 DUP2 MSTORE PUSH1 0x20 ADD PUSH0 KECCAK256 SWAP2 DUP3 PUSH2 0x239B SWAP3 SWAP2 SWAP1 PUSH2 0x5737 JUMP JUMPDEST POP PUSH32 0xFA41487AD5D6728F0B19276FA1EDDC16558578F5109FC39D2DC33C3230470DAB DUP4 DUP4 DUP4 PUSH1 0x40 MLOAD PUSH2 0x23CF SWAP4 SWAP3 SWAP2 SWAP1 PUSH2 0x4CF9 JUMP JUMPDEST PUSH1 0x40 MLOAD DUP1 SWAP2 SUB SWAP1 LOG1 POP POP POP JUMP JUMPDEST PUSH1 0xD PUSH1 0x14 SWAP1 SLOAD SWAP1 PUSH2 0x100 EXP SWAP1 DIV PUSH1 0xFF AND DUP2 JUMP JUMPDEST PUSH1 0xB PUSH1 0x20 MSTORE DUP1 PUSH0 MSTORE PUSH1 0x40 PUSH0 KECCAK256 PUSH0 SWAP2 POP SLOAD SWAP1 PUSH2 0x100 EXP SWAP1 DIV PUSH1 0xFF AND DUP2 JUMP JUMPDEST PUSH2 0x2414 PUSH2 0x253D JUMP JUMPDEST PUSH0 PUSH20 0xFFFFFFFFFFFFFFFFFFFFFFFFFFFFFFFFFFFFFFFF AND DUP2 PUSH20 0xFFFFFFFFFFFFFFFFFFFFFFFFFFFFFFFFFFFFFFFF AND SUB PUSH2 0x2484 JUMPI PUSH0 PUSH1 0x40 MLOAD PUSH32 0x1E4FBDF700000000000000000000000000000000000000000000000000000000 DUP2 MSTORE PUSH1 0x4 ADD PUSH2 0x247B SWAP2 SWAP1 PUSH2 0x4080 JUMP JUMPDEST PUSH1 0x40 MLOAD DUP1 SWAP2 SUB SWAP1 REVERT JUMPDEST PUSH2 0x248D DUP2 PUSH2 0x2DB1 JUMP JUMPDEST POP JUMP JUMPDEST PUSH1 0x60 PUSH32 0x0 PUSH20 0xFFFFFFFFFFFFFFFFFFFFFFFFFFFFFFFFFFFFFFFF AND PUSH4 0xF5ECBDBC DUP7 DUP7 ADDRESS DUP7 PUSH1 0x40 MLOAD DUP6 PUSH4 0xFFFFFFFF AND PUSH1 0xE0 SHL DUP2 MSTORE PUSH1 0x4 ADD PUSH2 0x24F1 SWAP5 SWAP4 SWAP3 SWAP2 SWAP1 PUSH2 0x5804 JUMP JUMPDEST PUSH0 PUSH1 0x40 MLOAD DUP1 DUP4 SUB DUP2 DUP7 GAS STATICCALL ISZERO DUP1 ISZERO PUSH2 0x250B JUMPI RETURNDATASIZE PUSH0 DUP1 RETURNDATACOPY RETURNDATASIZE PUSH0 REVERT JUMPDEST POP POP POP POP PUSH1 0x40 MLOAD RETURNDATASIZE PUSH0 DUP3 RETURNDATACOPY RETURNDATASIZE PUSH1 0x1F NOT PUSH1 0x1F DUP3 ADD AND DUP3 ADD DUP1 PUSH1 0x40 MSTORE POP DUP2 ADD SWAP1 PUSH2 0x2533 SWAP2 SWAP1 PUSH2 0x58B5 JUMP JUMPDEST SWAP1 POP SWAP5 SWAP4 POP POP POP POP JUMP JUMPDEST PUSH2 0x2545 PUSH2 0x25C4 JUMP JUMPDEST PUSH20 0xFFFFFFFFFFFFFFFFFFFFFFFFFFFFFFFFFFFFFFFF AND PUSH2 0x2563 PUSH2 0x1887 JUMP JUMPDEST PUSH20 0xFFFFFFFFFFFFFFFFFFFFFFFFFFFFFFFFFFFFFFFF AND EQ PUSH2 0x25C2 JUMPI PUSH2 0x2586 PUSH2 0x25C4 JUMP JUMPDEST PUSH1 0x40 MLOAD PUSH32 0x118CDAA700000000000000000000000000000000000000000000000000000000 DUP2 MSTORE PUSH1 0x4 ADD PUSH2 0x25B9 SWAP2 SWAP1 PUSH2 0x4080 JUMP JUMPDEST PUSH1 0x40 MLOAD DUP1 SWAP2 SUB SWAP1 REVERT JUMPDEST JUMP JUMPDEST PUSH0 CALLER SWAP1 POP SWAP1 JUMP JUMPDEST PUSH0 DUP1 PUSH2 0x2676 GAS PUSH1 0x96 PUSH4 0x66AD5C8A PUSH1 0xE0 SHL DUP10 DUP10 DUP10 DUP10 PUSH1 0x40 MLOAD PUSH1 0x24 ADD PUSH2 0x25F2 SWAP5 SWAP4 SWAP3 SWAP2 SWAP1 PUSH2 0x58FC JUMP JUMPDEST PUSH1 0x40 MLOAD PUSH1 0x20 DUP2 DUP4 SUB SUB DUP2 MSTORE SWAP1 PUSH1 0x40 MSTORE SWAP1 PUSH28 0xFFFFFFFFFFFFFFFFFFFFFFFFFFFFFFFFFFFFFFFFFFFFFFFFFFFFFFFF NOT AND PUSH1 0x20 DUP3 ADD DUP1 MLOAD PUSH28 0xFFFFFFFFFFFFFFFFFFFFFFFFFFFFFFFFFFFFFFFFFFFFFFFFFFFFFFFF DUP4 DUP2 DUP4 AND OR DUP4 MSTORE POP POP POP POP ADDRESS PUSH20 0xFFFFFFFFFFFFFFFFFFFFFFFFFFFFFFFFFFFFFFFF AND PUSH2 0x32E3 SWAP1 SWAP4 SWAP3 SWAP2 SWAP1 PUSH4 0xFFFFFFFF AND JUMP JUMPDEST SWAP2 POP SWAP2 POP DUP2 PUSH2 0x268D JUMPI PUSH2 0x268C DUP7 DUP7 DUP7 DUP7 DUP6 PUSH2 0x3375 JUMP JUMPDEST JUMPDEST POP POP POP POP POP POP JUMP JUMPDEST PUSH0 DUP1 PUSH0 DUP4 PUSH20 0xFFFFFFFFFFFFFFFFFFFFFFFFFFFFFFFFFFFFFFFF AND PUSH1 0x40 MLOAD PUSH1 0x24 ADD PUSH1 0x40 MLOAD PUSH1 0x20 DUP2 DUP4 SUB SUB DUP2 MSTORE SWAP1 PUSH1 0x40 MSTORE PUSH32 0x313CE56700000000000000000000000000000000000000000000000000000000 PUSH28 0xFFFFFFFFFFFFFFFFFFFFFFFFFFFFFFFFFFFFFFFFFFFFFFFFFFFFFFFF NOT AND PUSH1 0x20 DUP3 ADD DUP1 MLOAD PUSH28 0xFFFFFFFFFFFFFFFFFFFFFFFFFFFFFFFFFFFFFFFFFFFFFFFFFFFFFFFF DUP4 DUP2 DUP4 AND OR DUP4 MSTORE POP POP POP POP PUSH1 0x40 MLOAD PUSH2 0x273F SWAP2 SWAP1 PUSH2 0x597D JUMP JUMPDEST PUSH0 PUSH1 0x40 MLOAD DUP1 DUP4 SUB DUP2 DUP6 GAS STATICCALL SWAP2 POP POP RETURNDATASIZE DUP1 PUSH0 DUP2 EQ PUSH2 0x2777 JUMPI PUSH1 0x40 MLOAD SWAP2 POP PUSH1 0x1F NOT PUSH1 0x3F RETURNDATASIZE ADD AND DUP3 ADD PUSH1 0x40 MSTORE RETURNDATASIZE DUP3 MSTORE RETURNDATASIZE PUSH0 PUSH1 0x20 DUP5 ADD RETURNDATACOPY PUSH2 0x277C JUMP JUMPDEST PUSH1 0x60 SWAP2 POP JUMPDEST POP SWAP2 POP SWAP2 POP DUP2 PUSH2 0x27C1 JUMPI PUSH1 0x40 MLOAD PUSH32 0x8C379A000000000000000000000000000000000000000000000000000000000 DUP2 MSTORE PUSH1 0x4 ADD PUSH2 0x27B8 SWAP1 PUSH2 0x5A03 JUMP JUMPDEST PUSH1 0x40 MLOAD DUP1 SWAP2 SUB SWAP1 REVERT JUMPDEST DUP1 DUP1 PUSH1 0x20 ADD SWAP1 MLOAD DUP2 ADD SWAP1 PUSH2 0x27D5 SWAP2 SWAP1 PUSH2 0x5A4B JUMP JUMPDEST SWAP3 POP POP POP SWAP2 SWAP1 POP JUMP JUMPDEST PUSH1 0xD PUSH1 0x14 SWAP1 SLOAD SWAP1 PUSH2 0x100 EXP SWAP1 DIV PUSH1 0xFF AND ISZERO PUSH2 0x2868 JUMPI PUSH2 0x2863 PUSH1 0x7 PUSH0 SWAP1 SLOAD SWAP1 PUSH2 0x100 EXP SWAP1 DIV PUSH2 0xFFFF AND PUSH0 PUSH1 0x1 DUP2 GT ISZERO PUSH2 0x2819 JUMPI PUSH2 0x2818 PUSH2 0x5A76 JUMP JUMPDEST JUMPDEST DUP5 DUP5 DUP1 DUP1 PUSH1 0x1F ADD PUSH1 0x20 DUP1 SWAP2 DIV MUL PUSH1 0x20 ADD PUSH1 0x40 MLOAD SWAP1 DUP2 ADD PUSH1 0x40 MSTORE DUP1 SWAP4 SWAP3 SWAP2 SWAP1 DUP2 DUP2 MSTORE PUSH1 0x20 ADD DUP4 DUP4 DUP1 DUP3 DUP5 CALLDATACOPY PUSH0 DUP2 DUP5 ADD MSTORE PUSH1 0x1F NOT PUSH1 0x1F DUP3 ADD AND SWAP1 POP DUP1 DUP4 ADD SWAP3 POP POP POP POP POP POP POP PUSH0 PUSH2 0x341F JUMP JUMPDEST PUSH2 0x28AE JUMP JUMPDEST PUSH0 DUP3 DUP3 SWAP1 POP EQ PUSH2 0x28AD JUMPI PUSH1 0x40 MLOAD PUSH32 0x8C379A000000000000000000000000000000000000000000000000000000000 DUP2 MSTORE PUSH1 0x4 ADD PUSH2 0x28A4 SWAP1 PUSH2 0x5B13 JUMP JUMPDEST PUSH1 0x40 MLOAD DUP1 SWAP2 SUB SWAP1 REVERT JUMPDEST JUMPDEST POP POP JUMP JUMPDEST PUSH1 0x60 PUSH0 PUSH2 0x28BE DUP6 PUSH2 0x34F7 JUMP JUMPDEST SWAP1 POP PUSH0 PUSH1 0x1 DUP2 GT ISZERO PUSH2 0x28D3 JUMPI PUSH2 0x28D2 PUSH2 0x5A76 JUMP JUMPDEST JUMPDEST DUP2 DUP6 DUP6 PUSH1 0x40 MLOAD PUSH1 0x20 ADD PUSH2 0x28E9 SWAP5 SWAP4 SWAP3 SWAP2 SWAP1 PUSH2 0x5BB9 JUMP JUMPDEST PUSH1 0x40 MLOAD PUSH1 0x20 DUP2 DUP4 SUB SUB DUP2 MSTORE SWAP1 PUSH1 0x40 MSTORE SWAP2 POP POP SWAP4 SWAP3 POP POP POP JUMP JUMPDEST PUSH1 0x7 PUSH0 SWAP1 SLOAD SWAP1 PUSH2 0x100 EXP SWAP1 DIV PUSH2 0xFFFF AND PUSH2 0xFFFF AND DUP5 PUSH2 0xFFFF AND EQ PUSH2 0x295B JUMPI PUSH1 0x40 MLOAD PUSH32 0x8C379A000000000000000000000000000000000000000000000000000000000 DUP2 MSTORE PUSH1 0x4 ADD PUSH2 0x2952 SWAP1 PUSH2 0x5C76 JUMP JUMPDEST PUSH1 0x40 MLOAD DUP1 SWAP2 SUB SWAP1 REVERT JUMPDEST PUSH0 DUP1 PUSH0 DUP1 PUSH2 0x2968 DUP6 PUSH2 0x3518 JUMP JUMPDEST SWAP4 POP SWAP4 POP SWAP4 POP SWAP4 POP PUSH1 0xD PUSH1 0x15 SWAP1 SLOAD SWAP1 PUSH2 0x100 EXP SWAP1 DIV PUSH1 0xFF AND ISZERO DUP1 ISZERO PUSH2 0x29D4 JUMPI POP PUSH1 0xB PUSH0 DUP6 PUSH20 0xFFFFFFFFFFFFFFFFFFFFFFFFFFFFFFFFFFFFFFFF AND PUSH20 0xFFFFFFFFFFFFFFFFFFFFFFFFFFFFFFFFFFFFFFFF AND DUP2 MSTORE PUSH1 0x20 ADD SWAP1 DUP2 MSTORE PUSH1 0x20 ADD PUSH0 KECCAK256 PUSH0 SWAP1 SLOAD SWAP1 PUSH2 0x100 EXP SWAP1 DIV PUSH1 0xFF AND ISZERO JUMPDEST PUSH2 0x2A13 JUMPI PUSH1 0x40 MLOAD PUSH32 0x8C379A000000000000000000000000000000000000000000000000000000000 DUP2 MSTORE PUSH1 0x4 ADD PUSH2 0x2A0A SWAP1 PUSH2 0x4EB4 JUMP JUMPDEST PUSH1 0x40 MLOAD DUP1 SWAP2 SUB SWAP1 REVERT JUMPDEST PUSH1 0xA PUSH0 DUP6 PUSH20 0xFFFFFFFFFFFFFFFFFFFFFFFFFFFFFFFFFFFFFFFF AND PUSH20 0xFFFFFFFFFFFFFFFFFFFFFFFFFFFFFFFFFFFFFFFF AND DUP2 MSTORE PUSH1 0x20 ADD SWAP1 DUP2 MSTORE PUSH1 0x20 ADD PUSH0 KECCAK256 PUSH0 SWAP1 SLOAD SWAP1 PUSH2 0x100 EXP SWAP1 DIV PUSH1 0xFF AND PUSH2 0x2A9C JUMPI PUSH1 0x40 MLOAD PUSH32 0x8C379A000000000000000000000000000000000000000000000000000000000 DUP2 MSTORE PUSH1 0x4 ADD PUSH2 0x2A93 SWAP1 PUSH2 0x4F42 JUMP JUMPDEST PUSH1 0x40 MLOAD DUP1 SWAP2 SUB SWAP1 REVERT JUMPDEST PUSH0 PUSH1 0x9 PUSH0 DUP7 PUSH20 0xFFFFFFFFFFFFFFFFFFFFFFFFFFFFFFFFFFFFFFFF AND PUSH20 0xFFFFFFFFFFFFFFFFFFFFFFFFFFFFFFFFFFFFFFFF AND DUP2 MSTORE PUSH1 0x20 ADD SWAP1 DUP2 MSTORE PUSH1 0x20 ADD PUSH0 KECCAK256 PUSH0 SWAP1 SLOAD SWAP1 PUSH2 0x100 EXP SWAP1 DIV PUSH8 0xFFFFFFFFFFFFFFFF AND SWAP1 POP DUP3 PUSH8 0xFFFFFFFFFFFFFFFF AND DUP2 PUSH8 0xFFFFFFFFFFFFFFFF AND LT ISZERO PUSH2 0x2B47 JUMPI PUSH1 0x40 MLOAD PUSH32 0x8C379A000000000000000000000000000000000000000000000000000000000 DUP2 MSTORE PUSH1 0x4 ADD PUSH2 0x2B3E SWAP1 PUSH2 0x5D04 JUMP JUMPDEST PUSH1 0x40 MLOAD DUP1 SWAP2 SUB SWAP1 REVERT JUMPDEST DUP3 DUP2 PUSH2 0x2B53 SWAP2 SWAP1 PUSH2 0x5D22 JUMP JUMPDEST PUSH1 0x9 PUSH0 DUP8 PUSH20 0xFFFFFFFFFFFFFFFFFFFFFFFFFFFFFFFFFFFFFFFF AND PUSH20 0xFFFFFFFFFFFFFFFFFFFFFFFFFFFFFFFFFFFFFFFF AND DUP2 MSTORE PUSH1 0x20 ADD SWAP1 DUP2 MSTORE PUSH1 0x20 ADD PUSH0 KECCAK256 PUSH0 PUSH2 0x100 EXP DUP2 SLOAD DUP2 PUSH8 0xFFFFFFFFFFFFFFFF MUL NOT AND SWAP1 DUP4 PUSH8 0xFFFFFFFFFFFFFFFF AND MUL OR SWAP1 SSTORE POP PUSH0 PUSH2 0x2BC0 DUP7 DUP6 PUSH2 0x3287 JUMP JUMPDEST SWAP1 POP PUSH0 PUSH1 0x8 SLOAD GT PUSH2 0x2BD2 JUMPI DUP1 PUSH0 PUSH2 0x2BDC JUMP JUMPDEST PUSH2 0x2BDB DUP2 PUSH2 0x3646 JUMP JUMPDEST JUMPDEST POP DUP1 SWAP2 POP POP PUSH1 0xD PUSH0 SWAP1 SLOAD SWAP1 PUSH2 0x100 EXP SWAP1 DIV PUSH20 0xFFFFFFFFFFFFFFFFFFFFFFFFFFFFFFFFFFFFFFFF AND PUSH20 0xFFFFFFFFFFFFFFFFFFFFFFFFFFFFFFFFFFFFFFFF AND DUP7 PUSH20 0xFFFFFFFFFFFFFFFFFFFFFFFFFFFFFFFFFFFFFFFF AND EQ DUP1 ISZERO PUSH2 0x2C3A JUMPI POP DUP3 JUMPDEST ISZERO PUSH2 0x2CD5 JUMPI PUSH2 0x2C6B PUSH1 0xD PUSH0 SWAP1 SLOAD SWAP1 PUSH2 0x100 EXP SWAP1 DIV PUSH20 0xFFFFFFFFFFFFFFFFFFFFFFFFFFFFFFFFFFFFFFFF AND DUP7 DUP4 PUSH2 0x3678 JUMP JUMPDEST DUP5 PUSH20 0xFFFFFFFFFFFFFFFFFFFFFFFFFFFFFFFFFFFFFFFF AND PUSH0 PUSH20 0xFFFFFFFFFFFFFFFFFFFFFFFFFFFFFFFFFFFFFFFF AND PUSH32 0xFD19781F43410D9594FD4C02DD1D98DBE99099CBD222D5851A6E183C468D33CA DUP4 PUSH1 0x40 MLOAD PUSH2 0x2CC8 SWAP2 SWAP1 PUSH2 0x3FA0 JUMP JUMPDEST PUSH1 0x40 MLOAD DUP1 SWAP2 SUB SWAP1 LOG3 PUSH2 0x2DA5 JUMP JUMPDEST PUSH0 PUSH20 0xFFFFFFFFFFFFFFFFFFFFFFFFFFFFFFFFFFFFFFFF AND DUP6 PUSH20 0xFFFFFFFFFFFFFFFFFFFFFFFFFFFFFFFFFFFFFFFF AND EQ PUSH2 0x2D0E JUMPI DUP5 PUSH2 0x2D12 JUMP JUMPDEST PUSH2 0xDEAD JUMPDEST SWAP5 POP PUSH2 0x2D3F DUP6 DUP3 DUP9 PUSH20 0xFFFFFFFFFFFFFFFFFFFFFFFFFFFFFFFFFFFFFFFF AND PUSH2 0x3727 SWAP1 SWAP3 SWAP2 SWAP1 PUSH4 0xFFFFFFFF AND JUMP JUMPDEST DUP5 PUSH20 0xFFFFFFFFFFFFFFFFFFFFFFFFFFFFFFFFFFFFFFFF AND DUP7 PUSH20 0xFFFFFFFFFFFFFFFFFFFFFFFFFFFFFFFFFFFFFFFF AND PUSH32 0xFD19781F43410D9594FD4C02DD1D98DBE99099CBD222D5851A6E183C468D33CA DUP4 PUSH1 0x40 MLOAD PUSH2 0x2D9C SWAP2 SWAP1 PUSH2 0x3FA0 JUMP JUMPDEST PUSH1 0x40 MLOAD DUP1 SWAP2 SUB SWAP1 LOG3 JUMPDEST POP POP POP POP POP POP POP POP POP POP JUMP JUMPDEST PUSH0 DUP1 PUSH0 SWAP1 SLOAD SWAP1 PUSH2 0x100 EXP SWAP1 DIV PUSH20 0xFFFFFFFFFFFFFFFFFFFFFFFFFFFFFFFFFFFFFFFF AND SWAP1 POP DUP2 PUSH0 DUP1 PUSH2 0x100 EXP DUP2 SLOAD DUP2 PUSH20 0xFFFFFFFFFFFFFFFFFFFFFFFFFFFFFFFFFFFFFFFF MUL NOT AND SWAP1 DUP4 PUSH20 0xFFFFFFFFFFFFFFFFFFFFFFFFFFFFFFFFFFFFFFFF AND MUL OR SWAP1 SSTORE POP DUP2 PUSH20 0xFFFFFFFFFFFFFFFFFFFFFFFFFFFFFFFFFFFFFFFF AND DUP2 PUSH20 0xFFFFFFFFFFFFFFFFFFFFFFFFFFFFFFFFFFFFFFFF AND PUSH32 0x8BE0079C531659141344CD1FD0A4F28419497F9722A3DAAFE3B4186F6B6457E0 PUSH1 0x40 MLOAD PUSH1 0x40 MLOAD DUP1 SWAP2 SUB SWAP1 LOG3 POP POP JUMP JUMPDEST PUSH1 0x2 PUSH1 0x6 SLOAD SUB PUSH2 0x2EB7 JUMPI PUSH1 0x40 MLOAD PUSH32 0x8C379A000000000000000000000000000000000000000000000000000000000 DUP2 MSTORE PUSH1 0x4 ADD PUSH2 0x2EAE SWAP1 PUSH2 0x5DA7 JUMP JUMPDEST PUSH1 0x40 MLOAD DUP1 SWAP2 SUB SWAP1 REVERT JUMPDEST PUSH1 0x2 PUSH1 0x6 DUP2 SWAP1 SSTORE POP JUMP JUMPDEST PUSH0 PUSH2 0x2ED5 DUP4 PUSH2 0x2ED0 DUP6 DUP6 PUSH2 0x3018 JUMP JUMPDEST PUSH2 0x3287 JUMP JUMPDEST SWAP1 POP SWAP3 SWAP2 POP POP JUMP JUMPDEST PUSH0 DUP1 DUP5 PUSH20 0xFFFFFFFFFFFFFFFFFFFFFFFFFFFFFFFFFFFFFFFF AND PUSH4 0x70A08231 ADDRESS PUSH1 0x40 MLOAD DUP3 PUSH4 0xFFFFFFFF AND PUSH1 0xE0 SHL DUP2 MSTORE PUSH1 0x4 ADD PUSH2 0x2F18 SWAP2 SWAP1 PUSH2 0x4080 JUMP JUMPDEST PUSH1 0x20 PUSH1 0x40 MLOAD DUP1 DUP4 SUB DUP2 DUP7 GAS STATICCALL ISZERO DUP1 ISZERO PUSH2 0x2F33 JUMPI RETURNDATASIZE PUSH0 DUP1 RETURNDATACOPY RETURNDATASIZE PUSH0 REVERT JUMPDEST POP POP POP POP PUSH1 0x40 MLOAD RETURNDATASIZE PUSH1 0x1F NOT PUSH1 0x1F DUP3 ADD AND DUP3 ADD DUP1 PUSH1 0x40 MSTORE POP DUP2 ADD SWAP1 PUSH2 0x2F57 SWAP2 SWAP1 PUSH2 0x50C4 JUMP JUMPDEST SWAP1 POP PUSH2 0x2F86 DUP5 ADDRESS DUP6 DUP9 PUSH20 0xFFFFFFFFFFFFFFFFFFFFFFFFFFFFFFFFFFFFFFFF AND PUSH2 0x37A6 SWAP1 SWAP4 SWAP3 SWAP2 SWAP1 PUSH4 0xFFFFFFFF AND JUMP JUMPDEST PUSH0 DUP6 PUSH20 0xFFFFFFFFFFFFFFFFFFFFFFFFFFFFFFFFFFFFFFFF AND PUSH4 0x70A08231 ADDRESS PUSH1 0x40 MLOAD DUP3 PUSH4 0xFFFFFFFF AND PUSH1 0xE0 SHL DUP2 MSTORE PUSH1 0x4 ADD PUSH2 0x2FC0 SWAP2 SWAP1 PUSH2 0x4080 JUMP JUMPDEST PUSH1 0x20 PUSH1 0x40 MLOAD DUP1 DUP4 SUB DUP2 DUP7 GAS STATICCALL ISZERO DUP1 ISZERO PUSH2 0x2FDB JUMPI RETURNDATASIZE PUSH0 DUP1 RETURNDATACOPY RETURNDATASIZE PUSH0 REVERT JUMPDEST POP POP POP POP PUSH1 0x40 MLOAD RETURNDATASIZE PUSH1 0x1F NOT PUSH1 0x1F DUP3 ADD AND DUP3 ADD DUP1 PUSH1 0x40 MSTORE POP DUP2 ADD SWAP1 PUSH2 0x2FFF SWAP2 SWAP1 PUSH2 0x50C4 JUMP JUMPDEST SWAP1 POP DUP2 DUP2 PUSH2 0x300D SWAP2 SWAP1 PUSH2 0x5091 JUMP JUMPDEST SWAP3 POP POP POP SWAP4 SWAP3 POP POP POP JUMP JUMPDEST PUSH0 DUP1 PUSH1 0xC PUSH0 DUP6 PUSH20 0xFFFFFFFFFFFFFFFFFFFFFFFFFFFFFFFFFFFFFFFF AND PUSH20 0xFFFFFFFFFFFFFFFFFFFFFFFFFFFFFFFFFFFFFFFF AND DUP2 MSTORE PUSH1 0x20 ADD SWAP1 DUP2 MSTORE PUSH1 0x20 ADD PUSH0 KECCAK256 SLOAD DUP4 PUSH2 0x3063 SWAP2 SWAP1 PUSH2 0x5DF2 JUMP JUMPDEST SWAP1 POP PUSH8 0xFFFFFFFFFFFFFFFF DUP1 AND DUP2 GT ISZERO PUSH2 0x30B2 JUMPI PUSH1 0x40 MLOAD PUSH32 0x8C379A000000000000000000000000000000000000000000000000000000000 DUP2 MSTORE PUSH1 0x4 ADD PUSH2 0x30A9 SWAP1 PUSH2 0x5E6C JUMP JUMPDEST PUSH1 0x40 MLOAD DUP1 SWAP2 SUB SWAP1 REVERT JUMPDEST DUP1 SWAP2 POP POP SWAP3 SWAP2 POP POP JUMP JUMPDEST PUSH2 0x30C6 DUP4 DUP4 PUSH2 0x27DE JUMP JUMPDEST PUSH0 PUSH2 0x30D2 DUP9 DUP9 DUP9 PUSH2 0x28B2 JUMP JUMPDEST SWAP1 POP PUSH2 0x3157 PUSH1 0x7 PUSH0 SWAP1 SLOAD SWAP1 PUSH2 0x100 EXP SWAP1 DIV PUSH2 0xFFFF AND DUP3 DUP8 PUSH0 ADD PUSH1 0x20 DUP2 ADD SWAP1 PUSH2 0x30FA SWAP2 SWAP1 PUSH2 0x5EC5 JUMP JUMPDEST DUP9 PUSH1 0x20 ADD PUSH1 0x20 DUP2 ADD SWAP1 PUSH2 0x310D SWAP2 SWAP1 PUSH2 0x3F28 JUMP JUMPDEST DUP9 DUP9 DUP1 DUP1 PUSH1 0x1F ADD PUSH1 0x20 DUP1 SWAP2 DIV MUL PUSH1 0x20 ADD PUSH1 0x40 MLOAD SWAP1 DUP2 ADD PUSH1 0x40 MSTORE DUP1 SWAP4 SWAP3 SWAP2 SWAP1 DUP2 DUP2 MSTORE PUSH1 0x20 ADD DUP4 DUP4 DUP1 DUP3 DUP5 CALLDATACOPY PUSH0 DUP2 DUP5 ADD MSTORE PUSH1 0x1F NOT PUSH1 0x1F DUP3 ADD AND SWAP1 POP DUP1 DUP4 ADD SWAP3 POP POP POP POP POP POP POP DUP8 PUSH2 0x3828 JUMP JUMPDEST POP POP POP POP POP POP POP POP JUMP JUMPDEST PUSH1 0x1 PUSH1 0x6 DUP2 SWAP1 SSTORE POP JUMP JUMPDEST PUSH1 0x60 DUP2 PUSH1 0x1F DUP4 PUSH2 0x317B SWAP2 SWAP1 PUSH2 0x5EF0 JUMP JUMPDEST LT ISZERO PUSH2 0x31BC JUMPI PUSH1 0x40 MLOAD PUSH32 0x8C379A000000000000000000000000000000000000000000000000000000000 DUP2 MSTORE PUSH1 0x4 ADD PUSH2 0x31B3 SWAP1 PUSH2 0x5F6D JUMP JUMPDEST PUSH1 0x40 MLOAD DUP1 SWAP2 SUB SWAP1 REVERT JUMPDEST DUP2 DUP4 PUSH2 0x31C8 SWAP2 SWAP1 PUSH2 0x5EF0 JUMP JUMPDEST DUP5 MLOAD LT ISZERO PUSH2 0x320B JUMPI PUSH1 0x40 MLOAD PUSH32 0x8C379A000000000000000000000000000000000000000000000000000000000 DUP2 MSTORE PUSH1 0x4 ADD PUSH2 0x3202 SWAP1 PUSH2 0x5FD5 JUMP JUMPDEST PUSH1 0x40 MLOAD DUP1 SWAP2 SUB SWAP1 REVERT JUMPDEST PUSH1 0x60 DUP3 ISZERO PUSH0 DUP2 EQ PUSH2 0x322A JUMPI PUSH1 0x40 MLOAD SWAP2 POP PUSH0 DUP3 MSTORE PUSH1 0x20 DUP3 ADD PUSH1 0x40 MSTORE PUSH2 0x327B JUMP JUMPDEST PUSH1 0x40 MLOAD SWAP2 POP PUSH1 0x1F DUP5 AND DUP1 ISZERO PUSH1 0x20 MUL DUP2 DUP5 ADD ADD DUP6 DUP2 ADD DUP8 DUP4 ISZERO PUSH1 0x20 MUL DUP5 DUP12 ADD ADD ADD JUMPDEST DUP2 DUP4 LT ISZERO PUSH2 0x3268 JUMPI DUP1 MLOAD DUP4 MSTORE PUSH1 0x20 DUP4 ADD SWAP3 POP PUSH1 0x20 DUP2 ADD SWAP1 POP PUSH2 0x324B JUMP JUMPDEST POP DUP7 DUP6 MSTORE PUSH1 0x1F NOT PUSH1 0x1F DUP4 ADD AND PUSH1 0x40 MSTORE POP POP POP JUMPDEST POP DUP1 SWAP2 POP POP SWAP4 SWAP3 POP POP POP JUMP JUMPDEST PUSH0 PUSH1 0xC PUSH0 DUP5 PUSH20 0xFFFFFFFFFFFFFFFFFFFFFFFFFFFFFFFFFFFFFFFF AND PUSH20 0xFFFFFFFFFFFFFFFFFFFFFFFFFFFFFFFFFFFFFFFF AND DUP2 MSTORE PUSH1 0x20 ADD SWAP1 DUP2 MSTORE PUSH1 0x20 ADD PUSH0 KECCAK256 SLOAD DUP3 PUSH8 0xFFFFFFFFFFFFFFFF AND PUSH2 0x32DB SWAP2 SWAP1 PUSH2 0x5FF3 JUMP JUMPDEST SWAP1 POP SWAP3 SWAP2 POP POP JUMP JUMPDEST PUSH0 PUSH1 0x60 PUSH0 DUP1 PUSH0 DUP7 PUSH2 0xFFFF AND PUSH8 0xFFFFFFFFFFFFFFFF DUP2 GT ISZERO PUSH2 0x3307 JUMPI PUSH2 0x3306 PUSH2 0x4153 JUMP JUMPDEST JUMPDEST PUSH1 0x40 MLOAD SWAP1 DUP1 DUP3 MSTORE DUP1 PUSH1 0x1F ADD PUSH1 0x1F NOT AND PUSH1 0x20 ADD DUP3 ADD PUSH1 0x40 MSTORE DUP1 ISZERO PUSH2 0x3339 JUMPI DUP2 PUSH1 0x20 ADD PUSH1 0x1 DUP3 MUL DUP1 CALLDATASIZE DUP4 CALLDATACOPY DUP1 DUP3 ADD SWAP2 POP POP SWAP1 POP JUMPDEST POP SWAP1 POP PUSH0 DUP1 DUP8 MLOAD PUSH1 0x20 DUP10 ADD PUSH0 DUP14 DUP14 CALL SWAP2 POP RETURNDATASIZE SWAP3 POP DUP7 DUP4 GT ISZERO PUSH2 0x3359 JUMPI DUP7 SWAP3 POP JUMPDEST DUP3 DUP2 MSTORE DUP3 PUSH0 PUSH1 0x20 DUP4 ADD RETURNDATACOPY DUP2 DUP2 SWAP5 POP SWAP5 POP POP POP POP SWAP5 POP SWAP5 SWAP3 POP POP POP JUMP JUMPDEST DUP2 DUP1 MLOAD SWAP1 PUSH1 0x20 ADD KECCAK256 PUSH1 0x5 PUSH0 DUP8 PUSH2 0xFFFF AND PUSH2 0xFFFF AND DUP2 MSTORE PUSH1 0x20 ADD SWAP1 DUP2 MSTORE PUSH1 0x20 ADD PUSH0 KECCAK256 DUP6 PUSH1 0x40 MLOAD PUSH2 0x33A4 SWAP2 SWAP1 PUSH2 0x597D JUMP JUMPDEST SWAP1 DUP2 MSTORE PUSH1 0x20 ADD PUSH1 0x40 MLOAD DUP1 SWAP2 SUB SWAP1 KECCAK256 PUSH0 DUP6 PUSH8 0xFFFFFFFFFFFFFFFF AND PUSH8 0xFFFFFFFFFFFFFFFF AND DUP2 MSTORE PUSH1 0x20 ADD SWAP1 DUP2 MSTORE PUSH1 0x20 ADD PUSH0 KECCAK256 DUP2 SWAP1 SSTORE POP PUSH32 0xE183F33DE2837795525B4792CA4CD60535BD77C53B7E7030060BFCF5734D6B0C DUP6 DUP6 DUP6 DUP6 DUP6 PUSH1 0x40 MLOAD PUSH2 0x3410 SWAP6 SWAP5 SWAP4 SWAP3 SWAP2 SWAP1 PUSH2 0x6034 JUMP JUMPDEST PUSH1 0x40 MLOAD DUP1 SWAP2 SUB SWAP1 LOG1 POP POP POP POP POP JUMP JUMPDEST PUSH0 PUSH2 0x3429 DUP4 PUSH2 0x39B4 JUMP JUMPDEST SWAP1 POP PUSH0 PUSH1 0x2 PUSH0 DUP8 PUSH2 0xFFFF AND PUSH2 0xFFFF AND DUP2 MSTORE PUSH1 0x20 ADD SWAP1 DUP2 MSTORE PUSH1 0x20 ADD PUSH0 KECCAK256 PUSH0 DUP7 PUSH2 0xFFFF AND PUSH2 0xFFFF AND DUP2 MSTORE PUSH1 0x20 ADD SWAP1 DUP2 MSTORE PUSH1 0x20 ADD PUSH0 KECCAK256 SLOAD SWAP1 POP PUSH0 DUP2 GT PUSH2 0x34A1 JUMPI PUSH1 0x40 MLOAD PUSH32 0x8C379A000000000000000000000000000000000000000000000000000000000 DUP2 MSTORE PUSH1 0x4 ADD PUSH2 0x3498 SWAP1 PUSH2 0x60E4 JUMP JUMPDEST PUSH1 0x40 MLOAD DUP1 SWAP2 SUB SWAP1 REVERT JUMPDEST DUP3 DUP2 PUSH2 0x34AD SWAP2 SWAP1 PUSH2 0x5EF0 JUMP JUMPDEST DUP3 LT ISZERO PUSH2 0x34EF JUMPI PUSH1 0x40 MLOAD PUSH32 0x8C379A000000000000000000000000000000000000000000000000000000000 DUP2 MSTORE PUSH1 0x4 ADD PUSH2 0x34E6 SWAP1 PUSH2 0x614C JUMP JUMPDEST PUSH1 0x40 MLOAD DUP1 SWAP2 SUB SWAP1 REVERT JUMPDEST POP POP POP POP POP POP JUMP JUMPDEST PUSH0 DUP2 PUSH20 0xFFFFFFFFFFFFFFFFFFFFFFFFFFFFFFFFFFFFFFFF AND PUSH0 SHL SWAP1 POP SWAP2 SWAP1 POP JUMP JUMPDEST PUSH0 DUP1 PUSH0 DUP1 PUSH1 0x4A DUP6 MLOAD EQ PUSH2 0x3560 JUMPI PUSH1 0x40 MLOAD PUSH32 0x8C379A000000000000000000000000000000000000000000000000000000000 DUP2 MSTORE PUSH1 0x4 ADD PUSH2 0x3557 SWAP1 PUSH2 0x61DA JUMP JUMPDEST PUSH1 0x40 MLOAD DUP1 SWAP2 SUB SWAP1 REVERT JUMPDEST PUSH0 DUP6 PUSH0 DUP2 MLOAD DUP2 LT PUSH2 0x3574 JUMPI PUSH2 0x3573 PUSH2 0x61F8 JUMP JUMPDEST JUMPDEST PUSH1 0x20 ADD ADD MLOAD PUSH1 0xF8 SHR PUSH1 0xF8 SHL PUSH1 0xF8 SHR PUSH1 0xFF AND PUSH1 0x1 DUP2 GT ISZERO PUSH2 0x3597 JUMPI PUSH2 0x3596 PUSH2 0x5A76 JUMP JUMPDEST JUMPDEST SWAP1 POP PUSH1 0x1 DUP1 DUP2 GT ISZERO PUSH2 0x35AC JUMPI PUSH2 0x35AB PUSH2 0x5A76 JUMP JUMPDEST JUMPDEST DUP2 PUSH1 0x1 DUP2 GT ISZERO PUSH2 0x35BF JUMPI PUSH2 0x35BE PUSH2 0x5A76 JUMP JUMPDEST JUMPDEST EQ PUSH2 0x35FF JUMPI PUSH1 0x40 MLOAD PUSH32 0x8C379A000000000000000000000000000000000000000000000000000000000 DUP2 MSTORE PUSH1 0x4 ADD PUSH2 0x35F6 SWAP1 PUSH2 0x626F JUMP JUMPDEST PUSH1 0x40 MLOAD DUP1 SWAP2 SUB SWAP1 REVERT JUMPDEST PUSH1 0x21 DUP7 ADD MLOAD SWAP5 POP PUSH1 0x41 DUP7 ADD MLOAD SWAP4 POP PUSH1 0x49 DUP7 ADD MLOAD SWAP3 POP PUSH1 0x1 DUP7 PUSH1 0x49 DUP2 MLOAD DUP2 LT PUSH2 0x362A JUMPI PUSH2 0x3629 PUSH2 0x61F8 JUMP JUMPDEST JUMPDEST PUSH1 0x20 ADD ADD MLOAD PUSH1 0xF8 SHR PUSH1 0xF8 SHL PUSH1 0xF8 SHR PUSH1 0xFF AND EQ SWAP2 POP POP SWAP2 SWAP4 POP SWAP2 SWAP4 JUMP JUMPDEST PUSH0 DUP1 PUSH2 0x2710 PUSH1 0x8 SLOAD DUP5 PUSH2 0x3659 SWAP2 SWAP1 PUSH2 0x5FF3 JUMP JUMPDEST PUSH2 0x3663 SWAP2 SWAP1 PUSH2 0x5DF2 JUMP JUMPDEST SWAP1 POP DUP1 DUP4 PUSH2 0x3671 SWAP2 SWAP1 PUSH2 0x5091 JUMP JUMPDEST SWAP2 POP SWAP2 POP SWAP2 JUMP JUMPDEST DUP3 PUSH20 0xFFFFFFFFFFFFFFFFFFFFFFFFFFFFFFFFFFFFFFFF AND PUSH4 0x2E1A7D4D DUP3 PUSH1 0x40 MLOAD DUP3 PUSH4 0xFFFFFFFF AND PUSH1 0xE0 SHL DUP2 MSTORE PUSH1 0x4 ADD PUSH2 0x36B1 SWAP2 SWAP1 PUSH2 0x3FA0 JUMP JUMPDEST PUSH0 PUSH1 0x40 MLOAD DUP1 DUP4 SUB DUP2 PUSH0 DUP8 DUP1 EXTCODESIZE ISZERO DUP1 ISZERO PUSH2 0x36C8 JUMPI PUSH0 DUP1 REVERT JUMPDEST POP GAS CALL ISZERO DUP1 ISZERO PUSH2 0x36DA JUMPI RETURNDATASIZE PUSH0 DUP1 RETURNDATACOPY RETURNDATASIZE PUSH0 REVERT JUMPDEST POP POP POP POP DUP2 PUSH20 0xFFFFFFFFFFFFFFFFFFFFFFFFFFFFFFFFFFFFFFFF AND PUSH2 0x8FC DUP3 SWAP1 DUP2 ISZERO MUL SWAP1 PUSH1 0x40 MLOAD PUSH0 PUSH1 0x40 MLOAD DUP1 DUP4 SUB DUP2 DUP6 DUP9 DUP9 CALL SWAP4 POP POP POP POP ISZERO DUP1 ISZERO PUSH2 0x3721 JUMPI RETURNDATASIZE PUSH0 DUP1 RETURNDATACOPY RETURNDATASIZE PUSH0 REVERT JUMPDEST POP POP POP POP JUMP JUMPDEST PUSH2 0x37A1 DUP4 DUP5 PUSH20 0xFFFFFFFFFFFFFFFFFFFFFFFFFFFFFFFFFFFFFFFF AND PUSH4 0xA9059CBB DUP6 DUP6 PUSH1 0x40 MLOAD PUSH1 0x24 ADD PUSH2 0x375A SWAP3 SWAP2 SWAP1 PUSH2 0x628D JUMP JUMPDEST PUSH1 0x40 MLOAD PUSH1 0x20 DUP2 DUP4 SUB SUB DUP2 MSTORE SWAP1 PUSH1 0x40 MSTORE SWAP2 POP PUSH1 0xE0 SHL PUSH1 0x20 DUP3 ADD DUP1 MLOAD PUSH28 0xFFFFFFFFFFFFFFFFFFFFFFFFFFFFFFFFFFFFFFFFFFFFFFFFFFFFFFFF DUP4 DUP2 DUP4 AND OR DUP4 MSTORE POP POP POP POP PUSH2 0x3A06 JUMP JUMPDEST POP POP POP JUMP JUMPDEST PUSH2 0x3822 DUP5 DUP6 PUSH20 0xFFFFFFFFFFFFFFFFFFFFFFFFFFFFFFFFFFFFFFFF AND PUSH4 0x23B872DD DUP7 DUP7 DUP7 PUSH1 0x40 MLOAD PUSH1 0x24 ADD PUSH2 0x37DB SWAP4 SWAP3 SWAP2 SWAP1 PUSH2 0x62B4 JUMP JUMPDEST PUSH1 0x40 MLOAD PUSH1 0x20 DUP2 DUP4 SUB SUB DUP2 MSTORE SWAP1 PUSH1 0x40 MSTORE SWAP2 POP PUSH1 0xE0 SHL PUSH1 0x20 DUP3 ADD DUP1 MLOAD PUSH28 0xFFFFFFFFFFFFFFFFFFFFFFFFFFFFFFFFFFFFFFFFFFFFFFFFFFFFFFFF DUP4 DUP2 DUP4 AND OR DUP4 MSTORE POP POP POP POP PUSH2 0x3A06 JUMP JUMPDEST POP POP POP POP JUMP JUMPDEST PUSH0 PUSH1 0x1 PUSH0 DUP9 PUSH2 0xFFFF AND PUSH2 0xFFFF AND DUP2 MSTORE PUSH1 0x20 ADD SWAP1 DUP2 MSTORE PUSH1 0x20 ADD PUSH0 KECCAK256 DUP1 SLOAD PUSH2 0x384D SWAP1 PUSH2 0x4845 JUMP JUMPDEST DUP1 PUSH1 0x1F ADD PUSH1 0x20 DUP1 SWAP2 DIV MUL PUSH1 0x20 ADD PUSH1 0x40 MLOAD SWAP1 DUP2 ADD PUSH1 0x40 MSTORE DUP1 SWAP3 SWAP2 SWAP1 DUP2 DUP2 MSTORE PUSH1 0x20 ADD DUP3 DUP1 SLOAD PUSH2 0x3879 SWAP1 PUSH2 0x4845 JUMP JUMPDEST DUP1 ISZERO PUSH2 0x38C4 JUMPI DUP1 PUSH1 0x1F LT PUSH2 0x389B JUMPI PUSH2 0x100 DUP1 DUP4 SLOAD DIV MUL DUP4 MSTORE SWAP2 PUSH1 0x20 ADD SWAP2 PUSH2 0x38C4 JUMP JUMPDEST DUP3 ADD SWAP2 SWAP1 PUSH0 MSTORE PUSH1 0x20 PUSH0 KECCAK256 SWAP1 JUMPDEST DUP2 SLOAD DUP2 MSTORE SWAP1 PUSH1 0x1 ADD SWAP1 PUSH1 0x20 ADD DUP1 DUP4 GT PUSH2 0x38A7 JUMPI DUP3 SWAP1 SUB PUSH1 0x1F AND DUP3 ADD SWAP2 JUMPDEST POP POP POP POP POP SWAP1 POP PUSH0 DUP2 MLOAD SUB PUSH2 0x390E JUMPI PUSH1 0x40 MLOAD PUSH32 0x8C379A000000000000000000000000000000000000000000000000000000000 DUP2 MSTORE PUSH1 0x4 ADD PUSH2 0x3905 SWAP1 PUSH2 0x6359 JUMP JUMPDEST PUSH1 0x40 MLOAD DUP1 SWAP2 SUB SWAP1 REVERT JUMPDEST PUSH2 0x3919 DUP8 DUP8 MLOAD PUSH2 0x3A9B JUMP JUMPDEST PUSH32 0x0 PUSH20 0xFFFFFFFFFFFFFFFFFFFFFFFFFFFFFFFFFFFFFFFF AND PUSH4 0xC5803100 DUP4 DUP10 DUP5 DUP11 DUP11 DUP11 DUP11 PUSH1 0x40 MLOAD DUP9 PUSH4 0xFFFFFFFF AND PUSH1 0xE0 SHL DUP2 MSTORE PUSH1 0x4 ADD PUSH2 0x397D SWAP7 SWAP6 SWAP5 SWAP4 SWAP3 SWAP2 SWAP1 PUSH2 0x6386 JUMP JUMPDEST PUSH0 PUSH1 0x40 MLOAD DUP1 DUP4 SUB DUP2 DUP6 DUP9 DUP1 EXTCODESIZE ISZERO DUP1 ISZERO PUSH2 0x3994 JUMPI PUSH0 DUP1 REVERT JUMPDEST POP GAS CALL ISZERO DUP1 ISZERO PUSH2 0x39A6 JUMPI RETURNDATASIZE PUSH0 DUP1 RETURNDATACOPY RETURNDATASIZE PUSH0 REVERT JUMPDEST POP POP POP POP POP POP POP POP POP POP POP POP JUMP JUMPDEST PUSH0 PUSH1 0x22 DUP3 MLOAD LT ISZERO PUSH2 0x39FA JUMPI PUSH1 0x40 MLOAD PUSH32 0x8C379A000000000000000000000000000000000000000000000000000000000 DUP2 MSTORE PUSH1 0x4 ADD PUSH2 0x39F1 SWAP1 PUSH2 0x6444 JUMP JUMPDEST PUSH1 0x40 MLOAD DUP1 SWAP2 SUB SWAP1 REVERT JUMPDEST PUSH1 0x22 DUP3 ADD MLOAD SWAP1 POP SWAP2 SWAP1 POP JUMP JUMPDEST PUSH0 PUSH2 0x3A30 DUP3 DUP5 PUSH20 0xFFFFFFFFFFFFFFFFFFFFFFFFFFFFFFFFFFFFFFFF AND PUSH2 0x3B0D SWAP1 SWAP2 SWAP1 PUSH4 0xFFFFFFFF AND JUMP JUMPDEST SWAP1 POP PUSH0 DUP2 MLOAD EQ ISZERO DUP1 ISZERO PUSH2 0x3A54 JUMPI POP DUP1 DUP1 PUSH1 0x20 ADD SWAP1 MLOAD DUP2 ADD SWAP1 PUSH2 0x3A52 SWAP2 SWAP1 PUSH2 0x648C JUMP JUMPDEST ISZERO JUMPDEST ISZERO PUSH2 0x3A96 JUMPI DUP3 PUSH1 0x40 MLOAD PUSH32 0x5274AFE700000000000000000000000000000000000000000000000000000000 DUP2 MSTORE PUSH1 0x4 ADD PUSH2 0x3A8D SWAP2 SWAP1 PUSH2 0x4080 JUMP JUMPDEST PUSH1 0x40 MLOAD DUP1 SWAP2 SUB SWAP1 REVERT JUMPDEST POP POP POP JUMP JUMPDEST PUSH0 PUSH1 0x3 PUSH0 DUP5 PUSH2 0xFFFF AND PUSH2 0xFFFF AND DUP2 MSTORE PUSH1 0x20 ADD SWAP1 DUP2 MSTORE PUSH1 0x20 ADD PUSH0 KECCAK256 SLOAD SWAP1 POP PUSH0 DUP2 SUB PUSH2 0x3AC5 JUMPI PUSH2 0x2710 SWAP1 POP JUMPDEST DUP1 DUP3 GT ISZERO PUSH2 0x3B08 JUMPI PUSH1 0x40 MLOAD PUSH32 0x8C379A000000000000000000000000000000000000000000000000000000000 DUP2 MSTORE PUSH1 0x4 ADD PUSH2 0x3AFF SWAP1 PUSH2 0x6501 JUMP JUMPDEST PUSH1 0x40 MLOAD DUP1 SWAP2 SUB SWAP1 REVERT JUMPDEST POP POP POP JUMP JUMPDEST PUSH1 0x60 PUSH2 0x3B1A DUP4 DUP4 PUSH0 PUSH2 0x3B22 JUMP JUMPDEST SWAP1 POP SWAP3 SWAP2 POP POP JUMP JUMPDEST PUSH1 0x60 DUP2 SELFBALANCE LT ISZERO PUSH2 0x3B69 JUMPI ADDRESS PUSH1 0x40 MLOAD PUSH32 0xCD78605900000000000000000000000000000000000000000000000000000000 DUP2 MSTORE PUSH1 0x4 ADD PUSH2 0x3B60 SWAP2 SWAP1 PUSH2 0x4080 JUMP JUMPDEST PUSH1 0x40 MLOAD DUP1 SWAP2 SUB SWAP1 REVERT JUMPDEST PUSH0 DUP1 DUP6 PUSH20 0xFFFFFFFFFFFFFFFFFFFFFFFFFFFFFFFFFFFFFFFF AND DUP5 DUP7 PUSH1 0x40 MLOAD PUSH2 0x3B91 SWAP2 SWAP1 PUSH2 0x597D JUMP JUMPDEST PUSH0 PUSH1 0x40 MLOAD DUP1 DUP4 SUB DUP2 DUP6 DUP8 GAS CALL SWAP3 POP POP POP RETURNDATASIZE DUP1 PUSH0 DUP2 EQ PUSH2 0x3BCB JUMPI PUSH1 0x40 MLOAD SWAP2 POP PUSH1 0x1F NOT PUSH1 0x3F RETURNDATASIZE ADD AND DUP3 ADD PUSH1 0x40 MSTORE RETURNDATASIZE DUP3 MSTORE RETURNDATASIZE PUSH0 PUSH1 0x20 DUP5 ADD RETURNDATACOPY PUSH2 0x3BD0 JUMP JUMPDEST PUSH1 0x60 SWAP2 POP JUMPDEST POP SWAP2 POP SWAP2 POP PUSH2 0x3BE0 DUP7 DUP4 DUP4 PUSH2 0x3BEB JUMP JUMPDEST SWAP3 POP POP POP SWAP4 SWAP3 POP POP POP JUMP JUMPDEST PUSH1 0x60 DUP3 PUSH2 0x3C00 JUMPI PUSH2 0x3BFB DUP3 PUSH2 0x3C78 JUMP JUMPDEST PUSH2 0x3C70 JUMP JUMPDEST PUSH0 DUP3 MLOAD EQ DUP1 ISZERO PUSH2 0x3C26 JUMPI POP PUSH0 DUP5 PUSH20 0xFFFFFFFFFFFFFFFFFFFFFFFFFFFFFFFFFFFFFFFF AND EXTCODESIZE EQ JUMPDEST ISZERO PUSH2 0x3C68 JUMPI DUP4 PUSH1 0x40 MLOAD PUSH32 0x9996B31500000000000000000000000000000000000000000000000000000000 DUP2 MSTORE PUSH1 0x4 ADD PUSH2 0x3C5F SWAP2 SWAP1 PUSH2 0x4080 JUMP JUMPDEST PUSH1 0x40 MLOAD DUP1 SWAP2 SUB SWAP1 REVERT JUMPDEST DUP2 SWAP1 POP PUSH2 0x3C71 JUMP JUMPDEST JUMPDEST SWAP4 SWAP3 POP POP POP JUMP JUMPDEST PUSH0 DUP2 MLOAD GT ISZERO PUSH2 0x3C8A JUMPI DUP1 MLOAD DUP1 DUP3 PUSH1 0x20 ADD REVERT JUMPDEST PUSH1 0x40 MLOAD PUSH32 0x1425EA4200000000000000000000000000000000000000000000000000000000 DUP2 MSTORE PUSH1 0x4 ADD PUSH1 0x40 MLOAD DUP1 SWAP2 SUB SWAP1 REVERT JUMPDEST PUSH0 PUSH1 0x40 MLOAD SWAP1 POP SWAP1 JUMP JUMPDEST PUSH0 DUP1 REVERT JUMPDEST PUSH0 DUP1 REVERT JUMPDEST PUSH0 DUP2 SWAP1 POP SWAP2 SWAP1 POP JUMP JUMPDEST PUSH2 0x3CDF DUP2 PUSH2 0x3CCD JUMP JUMPDEST DUP2 EQ PUSH2 0x3CE9 JUMPI PUSH0 DUP1 REVERT JUMPDEST POP JUMP JUMPDEST PUSH0 DUP2 CALLDATALOAD SWAP1 POP PUSH2 0x3CFA DUP2 PUSH2 0x3CD6 JUMP JUMPDEST SWAP3 SWAP2 POP POP JUMP JUMPDEST PUSH0 PUSH1 0x20 DUP3 DUP5 SUB SLT ISZERO PUSH2 0x3D15 JUMPI PUSH2 0x3D14 PUSH2 0x3CC5 JUMP JUMPDEST JUMPDEST PUSH0 PUSH2 0x3D22 DUP5 DUP3 DUP6 ADD PUSH2 0x3CEC JUMP JUMPDEST SWAP2 POP POP SWAP3 SWAP2 POP POP JUMP JUMPDEST PUSH0 PUSH2 0xFFFF DUP3 AND SWAP1 POP SWAP2 SWAP1 POP JUMP JUMPDEST PUSH2 0x3D41 DUP2 PUSH2 0x3D2B JUMP JUMPDEST DUP2 EQ PUSH2 0x3D4B JUMPI PUSH0 DUP1 REVERT JUMPDEST POP JUMP JUMPDEST PUSH0 DUP2 CALLDATALOAD SWAP1 POP PUSH2 0x3D5C DUP2 PUSH2 0x3D38 JUMP JUMPDEST SWAP3 SWAP2 POP POP JUMP JUMPDEST PUSH0 DUP1 REVERT JUMPDEST PUSH0 DUP1 REVERT JUMPDEST PUSH0 DUP1 REVERT JUMPDEST PUSH0 DUP1 DUP4 PUSH1 0x1F DUP5 ADD SLT PUSH2 0x3D83 JUMPI PUSH2 0x3D82 PUSH2 0x3D62 JUMP JUMPDEST JUMPDEST DUP3 CALLDATALOAD SWAP1 POP PUSH8 0xFFFFFFFFFFFFFFFF DUP2 GT ISZERO PUSH2 0x3DA0 JUMPI PUSH2 0x3D9F PUSH2 0x3D66 JUMP JUMPDEST JUMPDEST PUSH1 0x20 DUP4 ADD SWAP2 POP DUP4 PUSH1 0x1 DUP3 MUL DUP4 ADD GT ISZERO PUSH2 0x3DBC JUMPI PUSH2 0x3DBB PUSH2 0x3D6A JUMP JUMPDEST JUMPDEST SWAP3 POP SWAP3 SWAP1 POP JUMP JUMPDEST PUSH0 PUSH8 0xFFFFFFFFFFFFFFFF DUP3 AND SWAP1 POP SWAP2 SWAP1 POP JUMP JUMPDEST PUSH2 0x3DDF DUP2 PUSH2 0x3DC3 JUMP JUMPDEST DUP2 EQ PUSH2 0x3DE9 JUMPI PUSH0 DUP1 REVERT JUMPDEST POP JUMP JUMPDEST PUSH0 DUP2 CALLDATALOAD SWAP1 POP PUSH2 0x3DFA DUP2 PUSH2 0x3DD6 JUMP JUMPDEST SWAP3 SWAP2 POP POP JUMP JUMPDEST PUSH0 DUP1 PUSH0 DUP1 PUSH0 DUP1 PUSH1 0x80 DUP8 DUP10 SUB SLT ISZERO PUSH2 0x3E1A JUMPI PUSH2 0x3E19 PUSH2 0x3CC5 JUMP JUMPDEST JUMPDEST PUSH0 PUSH2 0x3E27 DUP10 DUP3 DUP11 ADD PUSH2 0x3D4E JUMP JUMPDEST SWAP7 POP POP PUSH1 0x20 DUP8 ADD CALLDATALOAD PUSH8 0xFFFFFFFFFFFFFFFF DUP2 GT ISZERO PUSH2 0x3E48 JUMPI PUSH2 0x3E47 PUSH2 0x3CC9 JUMP JUMPDEST JUMPDEST PUSH2 0x3E54 DUP10 DUP3 DUP11 ADD PUSH2 0x3D6E JUMP JUMPDEST SWAP6 POP SWAP6 POP POP PUSH1 0x40 PUSH2 0x3E67 DUP10 DUP3 DUP11 ADD PUSH2 0x3DEC JUMP JUMPDEST SWAP4 POP POP PUSH1 0x60 DUP8 ADD CALLDATALOAD PUSH8 0xFFFFFFFFFFFFFFFF DUP2 GT ISZERO PUSH2 0x3E88 JUMPI PUSH2 0x3E87 PUSH2 0x3CC9 JUMP JUMPDEST JUMPDEST PUSH2 0x3E94 DUP10 DUP3 DUP11 ADD PUSH2 0x3D6E JUMP JUMPDEST SWAP3 POP SWAP3 POP POP SWAP3 SWAP6 POP SWAP3 SWAP6 POP SWAP3 SWAP6 JUMP JUMPDEST PUSH0 PUSH1 0x20 DUP3 DUP5 SUB SLT ISZERO PUSH2 0x3EB8 JUMPI PUSH2 0x3EB7 PUSH2 0x3CC5 JUMP JUMPDEST JUMPDEST PUSH0 PUSH2 0x3EC5 DUP5 DUP3 DUP6 ADD PUSH2 0x3D4E JUMP JUMPDEST SWAP2 POP POP SWAP3 SWAP2 POP POP JUMP JUMPDEST PUSH0 PUSH20 0xFFFFFFFFFFFFFFFFFFFFFFFFFFFFFFFFFFFFFFFF DUP3 AND SWAP1 POP SWAP2 SWAP1 POP JUMP JUMPDEST PUSH0 PUSH2 0x3EF7 DUP3 PUSH2 0x3ECE JUMP JUMPDEST SWAP1 POP SWAP2 SWAP1 POP JUMP JUMPDEST PUSH2 0x3F07 DUP2 PUSH2 0x3EED JUMP JUMPDEST DUP2 EQ PUSH2 0x3F11 JUMPI PUSH0 DUP1 REVERT JUMPDEST POP JUMP JUMPDEST PUSH0 DUP2 CALLDATALOAD SWAP1 POP PUSH2 0x3F22 DUP2 PUSH2 0x3EFE JUMP JUMPDEST SWAP3 SWAP2 POP POP JUMP JUMPDEST PUSH0 PUSH1 0x20 DUP3 DUP5 SUB SLT ISZERO PUSH2 0x3F3D JUMPI PUSH2 0x3F3C PUSH2 0x3CC5 JUMP JUMPDEST JUMPDEST PUSH0 PUSH2 0x3F4A DUP5 DUP3 DUP6 ADD PUSH2 0x3F14 JUMP JUMPDEST SWAP2 POP POP SWAP3 SWAP2 POP POP JUMP JUMPDEST PUSH0 DUP1 PUSH1 0x40 DUP4 DUP6 SUB SLT ISZERO PUSH2 0x3F69 JUMPI PUSH2 0x3F68 PUSH2 0x3CC5 JUMP JUMPDEST JUMPDEST PUSH0 PUSH2 0x3F76 DUP6 DUP3 DUP7 ADD PUSH2 0x3D4E JUMP JUMPDEST SWAP3 POP POP PUSH1 0x20 PUSH2 0x3F87 DUP6 DUP3 DUP7 ADD PUSH2 0x3CEC JUMP JUMPDEST SWAP2 POP POP SWAP3 POP SWAP3 SWAP1 POP JUMP JUMPDEST PUSH2 0x3F9A DUP2 PUSH2 0x3CCD JUMP JUMPDEST DUP3 MSTORE POP POP JUMP JUMPDEST PUSH0 PUSH1 0x20 DUP3 ADD SWAP1 POP PUSH2 0x3FB3 PUSH0 DUP4 ADD DUP5 PUSH2 0x3F91 JUMP JUMPDEST SWAP3 SWAP2 POP POP JUMP JUMPDEST PUSH2 0x3FC2 DUP2 PUSH2 0x3D2B JUMP JUMPDEST DUP3 MSTORE POP POP JUMP JUMPDEST PUSH0 PUSH1 0x20 DUP3 ADD SWAP1 POP PUSH2 0x3FDB PUSH0 DUP4 ADD DUP5 PUSH2 0x3FB9 JUMP JUMPDEST SWAP3 SWAP2 POP POP JUMP JUMPDEST PUSH0 DUP1 PUSH0 PUSH1 0x40 DUP5 DUP7 SUB SLT ISZERO PUSH2 0x3FF8 JUMPI PUSH2 0x3FF7 PUSH2 0x3CC5 JUMP JUMPDEST JUMPDEST PUSH0 PUSH2 0x4005 DUP7 DUP3 DUP8 ADD PUSH2 0x3D4E JUMP JUMPDEST SWAP4 POP POP PUSH1 0x20 DUP5 ADD CALLDATALOAD PUSH8 0xFFFFFFFFFFFFFFFF DUP2 GT ISZERO PUSH2 0x4026 JUMPI PUSH2 0x4025 PUSH2 0x3CC9 JUMP JUMPDEST JUMPDEST PUSH2 0x4032 DUP7 DUP3 DUP8 ADD PUSH2 0x3D6E JUMP JUMPDEST SWAP3 POP SWAP3 POP POP SWAP3 POP SWAP3 POP SWAP3 JUMP JUMPDEST PUSH0 DUP2 ISZERO ISZERO SWAP1 POP SWAP2 SWAP1 POP JUMP JUMPDEST PUSH2 0x4052 DUP2 PUSH2 0x403E JUMP JUMPDEST DUP3 MSTORE POP POP JUMP JUMPDEST PUSH0 PUSH1 0x20 DUP3 ADD SWAP1 POP PUSH2 0x406B PUSH0 DUP4 ADD DUP5 PUSH2 0x4049 JUMP JUMPDEST SWAP3 SWAP2 POP POP JUMP JUMPDEST PUSH2 0x407A DUP2 PUSH2 0x3EED JUMP JUMPDEST DUP3 MSTORE POP POP JUMP JUMPDEST PUSH0 PUSH1 0x20 DUP3 ADD SWAP1 POP PUSH2 0x4093 PUSH0 DUP4 ADD DUP5 PUSH2 0x4071 JUMP JUMPDEST SWAP3 SWAP2 POP POP JUMP JUMPDEST PUSH0 DUP1 REVERT JUMPDEST PUSH0 PUSH1 0x40 DUP3 DUP5 SUB SLT ISZERO PUSH2 0x40B2 JUMPI PUSH2 0x40B1 PUSH2 0x4099 JUMP JUMPDEST JUMPDEST DUP2 SWAP1 POP SWAP3 SWAP2 POP POP JUMP JUMPDEST PUSH0 DUP1 PUSH0 PUSH1 0x60 DUP5 DUP7 SUB SLT ISZERO PUSH2 0x40D2 JUMPI PUSH2 0x40D1 PUSH2 0x3CC5 JUMP JUMPDEST JUMPDEST PUSH0 PUSH2 0x40DF DUP7 DUP3 DUP8 ADD PUSH2 0x409D JUMP JUMPDEST SWAP4 POP POP PUSH1 0x40 DUP5 ADD CALLDATALOAD PUSH8 0xFFFFFFFFFFFFFFFF DUP2 GT ISZERO PUSH2 0x4100 JUMPI PUSH2 0x40FF PUSH2 0x3CC9 JUMP JUMPDEST JUMPDEST PUSH2 0x410C DUP7 DUP3 DUP8 ADD PUSH2 0x3D6E JUMP JUMPDEST SWAP3 POP SWAP3 POP POP SWAP3 POP SWAP3 POP SWAP3 JUMP JUMPDEST PUSH0 PUSH1 0x40 DUP3 ADD SWAP1 POP PUSH2 0x412B PUSH0 DUP4 ADD DUP6 PUSH2 0x3F91 JUMP JUMPDEST PUSH2 0x4138 PUSH1 0x20 DUP4 ADD DUP5 PUSH2 0x3F91 JUMP JUMPDEST SWAP4 SWAP3 POP POP POP JUMP JUMPDEST PUSH0 DUP1 REVERT JUMPDEST PUSH0 PUSH1 0x1F NOT PUSH1 0x1F DUP4 ADD AND SWAP1 POP SWAP2 SWAP1 POP JUMP JUMPDEST PUSH32 0x4E487B7100000000000000000000000000000000000000000000000000000000 PUSH0 MSTORE PUSH1 0x41 PUSH1 0x4 MSTORE PUSH1 0x24 PUSH0 REVERT JUMPDEST PUSH2 0x4189 DUP3 PUSH2 0x4143 JUMP JUMPDEST DUP2 ADD DUP2 DUP2 LT PUSH8 0xFFFFFFFFFFFFFFFF DUP3 GT OR ISZERO PUSH2 0x41A8 JUMPI PUSH2 0x41A7 PUSH2 0x4153 JUMP JUMPDEST JUMPDEST DUP1 PUSH1 0x40 MSTORE POP POP POP JUMP JUMPDEST PUSH0 PUSH2 0x41BA PUSH2 0x3CBC JUMP JUMPDEST SWAP1 POP PUSH2 0x41C6 DUP3 DUP3 PUSH2 0x4180 JUMP JUMPDEST SWAP2 SWAP1 POP JUMP JUMPDEST PUSH0 PUSH8 0xFFFFFFFFFFFFFFFF DUP3 GT ISZERO PUSH2 0x41E5 JUMPI PUSH2 0x41E4 PUSH2 0x4153 JUMP JUMPDEST JUMPDEST PUSH2 0x41EE DUP3 PUSH2 0x4143 JUMP JUMPDEST SWAP1 POP PUSH1 0x20 DUP2 ADD SWAP1 POP SWAP2 SWAP1 POP JUMP JUMPDEST DUP3 DUP2 DUP4 CALLDATACOPY PUSH0 DUP4 DUP4 ADD MSTORE POP POP POP JUMP JUMPDEST PUSH0 PUSH2 0x421B PUSH2 0x4216 DUP5 PUSH2 0x41CB JUMP JUMPDEST PUSH2 0x41B1 JUMP JUMPDEST SWAP1 POP DUP3 DUP2 MSTORE PUSH1 0x20 DUP2 ADD DUP5 DUP5 DUP5 ADD GT ISZERO PUSH2 0x4237 JUMPI PUSH2 0x4236 PUSH2 0x413F JUMP JUMPDEST JUMPDEST PUSH2 0x4242 DUP5 DUP3 DUP6 PUSH2 0x41FB JUMP JUMPDEST POP SWAP4 SWAP3 POP POP POP JUMP JUMPDEST PUSH0 DUP3 PUSH1 0x1F DUP4 ADD SLT PUSH2 0x425E JUMPI PUSH2 0x425D PUSH2 0x3D62 JUMP JUMPDEST JUMPDEST DUP2 CALLDATALOAD PUSH2 0x426E DUP5 DUP3 PUSH1 0x20 DUP7 ADD PUSH2 0x4209 JUMP JUMPDEST SWAP2 POP POP SWAP3 SWAP2 POP POP JUMP JUMPDEST PUSH0 DUP1 PUSH0 PUSH1 0x60 DUP5 DUP7 SUB SLT ISZERO PUSH2 0x428E JUMPI PUSH2 0x428D PUSH2 0x3CC5 JUMP JUMPDEST JUMPDEST PUSH0 PUSH2 0x429B DUP7 DUP3 DUP8 ADD PUSH2 0x3D4E JUMP JUMPDEST SWAP4 POP POP PUSH1 0x20 DUP5 ADD CALLDATALOAD PUSH8 0xFFFFFFFFFFFFFFFF DUP2 GT ISZERO PUSH2 0x42BC JUMPI PUSH2 0x42BB PUSH2 0x3CC9 JUMP JUMPDEST JUMPDEST PUSH2 0x42C8 DUP7 DUP3 DUP8 ADD PUSH2 0x424A JUMP JUMPDEST SWAP3 POP POP PUSH1 0x40 PUSH2 0x42D9 DUP7 DUP3 DUP8 ADD PUSH2 0x3DEC JUMP JUMPDEST SWAP2 POP POP SWAP3 POP SWAP3 POP SWAP3 JUMP JUMPDEST PUSH0 DUP2 SWAP1 POP SWAP2 SWAP1 POP JUMP JUMPDEST PUSH2 0x42F5 DUP2 PUSH2 0x42E3 JUMP JUMPDEST DUP3 MSTORE POP POP JUMP JUMPDEST PUSH0 PUSH1 0x20 DUP3 ADD SWAP1 POP PUSH2 0x430E PUSH0 DUP4 ADD DUP5 PUSH2 0x42EC JUMP JUMPDEST SWAP3 SWAP2 POP POP JUMP JUMPDEST PUSH0 DUP2 MLOAD SWAP1 POP SWAP2 SWAP1 POP JUMP JUMPDEST PUSH0 DUP3 DUP3 MSTORE PUSH1 0x20 DUP3 ADD SWAP1 POP SWAP3 SWAP2 POP POP JUMP JUMPDEST PUSH0 JUMPDEST DUP4 DUP2 LT ISZERO PUSH2 0x434B JUMPI DUP1 DUP3 ADD MLOAD DUP2 DUP5 ADD MSTORE PUSH1 0x20 DUP2 ADD SWAP1 POP PUSH2 0x4330 JUMP JUMPDEST PUSH0 DUP5 DUP5 ADD MSTORE POP POP POP POP JUMP JUMPDEST PUSH0 PUSH2 0x4360 DUP3 PUSH2 0x4314 JUMP JUMPDEST PUSH2 0x436A DUP2 DUP6 PUSH2 0x431E JUMP JUMPDEST SWAP4 POP PUSH2 0x437A DUP2 DUP6 PUSH1 0x20 DUP7 ADD PUSH2 0x432E JUMP JUMPDEST PUSH2 0x4383 DUP2 PUSH2 0x4143 JUMP JUMPDEST DUP5 ADD SWAP2 POP POP SWAP3 SWAP2 POP POP JUMP JUMPDEST PUSH0 PUSH1 0x20 DUP3 ADD SWAP1 POP DUP2 DUP2 SUB PUSH0 DUP4 ADD MSTORE PUSH2 0x43A6 DUP2 DUP5 PUSH2 0x4356 JUMP JUMPDEST SWAP1 POP SWAP3 SWAP2 POP POP JUMP JUMPDEST PUSH2 0x43B7 DUP2 PUSH2 0x42E3 JUMP JUMPDEST DUP2 EQ PUSH2 0x43C1 JUMPI PUSH0 DUP1 REVERT JUMPDEST POP JUMP JUMPDEST PUSH0 DUP2 CALLDATALOAD SWAP1 POP PUSH2 0x43D2 DUP2 PUSH2 0x43AE JUMP JUMPDEST SWAP3 SWAP2 POP POP JUMP JUMPDEST PUSH0 DUP1 PUSH0 DUP1 PUSH0 DUP1 PUSH1 0xC0 DUP8 DUP10 SUB SLT ISZERO PUSH2 0x43F2 JUMPI PUSH2 0x43F1 PUSH2 0x3CC5 JUMP JUMPDEST JUMPDEST PUSH0 PUSH2 0x43FF DUP10 DUP3 DUP11 ADD PUSH2 0x3F14 JUMP JUMPDEST SWAP7 POP POP PUSH1 0x20 PUSH2 0x4410 DUP10 DUP3 DUP11 ADD PUSH2 0x43C4 JUMP JUMPDEST SWAP6 POP POP PUSH1 0x40 PUSH2 0x4421 DUP10 DUP3 DUP11 ADD PUSH2 0x3CEC JUMP JUMPDEST SWAP5 POP POP PUSH1 0x60 PUSH2 0x4432 DUP10 DUP3 DUP11 ADD PUSH2 0x409D JUMP JUMPDEST SWAP4 POP POP PUSH1 0xA0 DUP8 ADD CALLDATALOAD PUSH8 0xFFFFFFFFFFFFFFFF DUP2 GT ISZERO PUSH2 0x4453 JUMPI PUSH2 0x4452 PUSH2 0x3CC9 JUMP JUMPDEST JUMPDEST PUSH2 0x445F DUP10 DUP3 DUP11 ADD PUSH2 0x3D6E JUMP JUMPDEST SWAP3 POP SWAP3 POP POP SWAP3 SWAP6 POP SWAP3 SWAP6 POP SWAP3 SWAP6 JUMP JUMPDEST PUSH0 DUP1 PUSH1 0x40 DUP4 DUP6 SUB SLT ISZERO PUSH2 0x4484 JUMPI PUSH2 0x4483 PUSH2 0x3CC5 JUMP JUMPDEST JUMPDEST PUSH0 PUSH2 0x4491 DUP6 DUP3 DUP7 ADD PUSH2 0x3D4E JUMP JUMPDEST SWAP3 POP POP PUSH1 0x20 PUSH2 0x44A2 DUP6 DUP3 DUP7 ADD PUSH2 0x3D4E JUMP JUMPDEST SWAP2 POP POP SWAP3 POP SWAP3 SWAP1 POP JUMP JUMPDEST PUSH0 PUSH1 0xFF DUP3 AND SWAP1 POP SWAP2 SWAP1 POP JUMP JUMPDEST PUSH2 0x44C1 DUP2 PUSH2 0x44AC JUMP JUMPDEST DUP3 MSTORE POP POP JUMP JUMPDEST PUSH0 PUSH1 0x20 DUP3 ADD SWAP1 POP PUSH2 0x44DA PUSH0 DUP4 ADD DUP5 PUSH2 0x44B8 JUMP JUMPDEST SWAP3 SWAP2 POP POP JUMP JUMPDEST PUSH0 DUP2 SWAP1 POP SWAP2 SWAP1 POP JUMP JUMPDEST PUSH0 PUSH2 0x4503 PUSH2 0x44FE PUSH2 0x44F9 DUP5 PUSH2 0x3ECE JUMP JUMPDEST PUSH2 0x44E0 JUMP JUMPDEST PUSH2 0x3ECE JUMP JUMPDEST SWAP1 POP SWAP2 SWAP1 POP JUMP JUMPDEST PUSH0 PUSH2 0x4514 DUP3 PUSH2 0x44E9 JUMP JUMPDEST SWAP1 POP SWAP2 SWAP1 POP JUMP JUMPDEST PUSH0 PUSH2 0x4525 DUP3 PUSH2 0x450A JUMP JUMPDEST SWAP1 POP SWAP2 SWAP1 POP JUMP JUMPDEST PUSH2 0x4535 DUP2 PUSH2 0x451B JUMP JUMPDEST DUP3 MSTORE POP POP JUMP JUMPDEST PUSH0 PUSH1 0x20 DUP3 ADD SWAP1 POP PUSH2 0x454E PUSH0 DUP4 ADD DUP5 PUSH2 0x452C JUMP JUMPDEST SWAP3 SWAP2 POP POP JUMP JUMPDEST PUSH0 DUP1 PUSH0 DUP1 PUSH0 PUSH1 0xA0 DUP7 DUP9 SUB SLT ISZERO PUSH2 0x456D JUMPI PUSH2 0x456C PUSH2 0x3CC5 JUMP JUMPDEST JUMPDEST PUSH0 PUSH2 0x457A DUP9 DUP3 DUP10 ADD PUSH2 0x43C4 JUMP JUMPDEST SWAP6 POP POP PUSH1 0x20 PUSH2 0x458B DUP9 DUP3 DUP10 ADD PUSH2 0x3CEC JUMP JUMPDEST SWAP5 POP POP PUSH1 0x40 PUSH2 0x459C DUP9 DUP3 DUP10 ADD PUSH2 0x409D JUMP JUMPDEST SWAP4 POP POP PUSH1 0x80 DUP7 ADD CALLDATALOAD PUSH8 0xFFFFFFFFFFFFFFFF DUP2 GT ISZERO PUSH2 0x45BD JUMPI PUSH2 0x45BC PUSH2 0x3CC9 JUMP JUMPDEST JUMPDEST PUSH2 0x45C9 DUP9 DUP3 DUP10 ADD PUSH2 0x3D6E JUMP JUMPDEST SWAP3 POP SWAP3 POP POP SWAP3 SWAP6 POP SWAP3 SWAP6 SWAP1 SWAP4 POP JUMP JUMPDEST PUSH0 DUP1 PUSH0 DUP1 PUSH0 PUSH1 0x80 DUP7 DUP9 SUB SLT ISZERO PUSH2 0x45F1 JUMPI PUSH2 0x45F0 PUSH2 0x3CC5 JUMP JUMPDEST JUMPDEST PUSH0 PUSH2 0x45FE DUP9 DUP3 DUP10 ADD PUSH2 0x3D4E JUMP JUMPDEST SWAP6 POP POP PUSH1 0x20 PUSH2 0x460F DUP9 DUP3 DUP10 ADD PUSH2 0x3D4E JUMP JUMPDEST SWAP5 POP POP PUSH1 0x40 PUSH2 0x4620 DUP9 DUP3 DUP10 ADD PUSH2 0x3CEC JUMP JUMPDEST SWAP4 POP POP PUSH1 0x60 DUP7 ADD CALLDATALOAD PUSH8 0xFFFFFFFFFFFFFFFF DUP2 GT ISZERO PUSH2 0x4641 JUMPI PUSH2 0x4640 PUSH2 0x3CC9 JUMP JUMPDEST JUMPDEST PUSH2 0x464D DUP9 DUP3 DUP10 ADD PUSH2 0x3D6E JUMP JUMPDEST SWAP3 POP SWAP3 POP POP SWAP3 SWAP6 POP SWAP3 SWAP6 SWAP1 SWAP4 POP JUMP JUMPDEST PUSH0 DUP1 PUSH0 PUSH1 0x60 DUP5 DUP7 SUB SLT ISZERO PUSH2 0x4673 JUMPI PUSH2 0x4672 PUSH2 0x3CC5 JUMP JUMPDEST JUMPDEST PUSH0 PUSH2 0x4680 DUP7 DUP3 DUP8 ADD PUSH2 0x3D4E JUMP JUMPDEST SWAP4 POP POP PUSH1 0x20 PUSH2 0x4691 DUP7 DUP3 DUP8 ADD PUSH2 0x3D4E JUMP JUMPDEST SWAP3 POP POP PUSH1 0x40 PUSH2 0x46A2 DUP7 DUP3 DUP8 ADD PUSH2 0x3CEC JUMP JUMPDEST SWAP2 POP POP SWAP3 POP SWAP3 POP SWAP3 JUMP JUMPDEST PUSH2 0x46B5 DUP2 PUSH2 0x3DC3 JUMP JUMPDEST DUP3 MSTORE POP POP JUMP JUMPDEST PUSH0 PUSH1 0x20 DUP3 ADD SWAP1 POP PUSH2 0x46CE PUSH0 DUP4 ADD DUP5 PUSH2 0x46AC JUMP JUMPDEST SWAP3 SWAP2 POP POP JUMP JUMPDEST PUSH0 DUP1 PUSH0 DUP1 PUSH1 0x80 DUP6 DUP8 SUB SLT ISZERO PUSH2 0x46EC JUMPI PUSH2 0x46EB PUSH2 0x3CC5 JUMP JUMPDEST JUMPDEST PUSH0 PUSH2 0x46F9 DUP8 DUP3 DUP9 ADD PUSH2 0x3D4E JUMP JUMPDEST SWAP5 POP POP PUSH1 0x20 PUSH2 0x470A DUP8 DUP3 DUP9 ADD PUSH2 0x3D4E JUMP JUMPDEST SWAP4 POP POP PUSH1 0x40 PUSH2 0x471B DUP8 DUP3 DUP9 ADD PUSH2 0x3F14 JUMP JUMPDEST SWAP3 POP POP PUSH1 0x60 PUSH2 0x472C DUP8 DUP3 DUP9 ADD PUSH2 0x3CEC JUMP JUMPDEST SWAP2 POP POP SWAP3 SWAP6 SWAP2 SWAP5 POP SWAP3 POP JUMP JUMPDEST PUSH0 DUP3 DUP3 MSTORE PUSH1 0x20 DUP3 ADD SWAP1 POP SWAP3 SWAP2 POP POP JUMP JUMPDEST PUSH32 0x546F6B656E4272696467653A2062726964676520666565203E20313030250000 PUSH0 DUP3 ADD MSTORE POP JUMP JUMPDEST PUSH0 PUSH2 0x477C PUSH1 0x1E DUP4 PUSH2 0x4738 JUMP JUMPDEST SWAP2 POP PUSH2 0x4787 DUP3 PUSH2 0x4748 JUMP JUMPDEST PUSH1 0x20 DUP3 ADD SWAP1 POP SWAP2 SWAP1 POP JUMP JUMPDEST PUSH0 PUSH1 0x20 DUP3 ADD SWAP1 POP DUP2 DUP2 SUB PUSH0 DUP4 ADD MSTORE PUSH2 0x47A9 DUP2 PUSH2 0x4770 JUMP JUMPDEST SWAP1 POP SWAP2 SWAP1 POP JUMP JUMPDEST PUSH32 0x4C7A4170703A20696E76616C696420656E64706F696E742063616C6C65720000 PUSH0 DUP3 ADD MSTORE POP JUMP JUMPDEST PUSH0 PUSH2 0x47E4 PUSH1 0x1E DUP4 PUSH2 0x4738 JUMP JUMPDEST SWAP2 POP PUSH2 0x47EF DUP3 PUSH2 0x47B0 JUMP JUMPDEST PUSH1 0x20 DUP3 ADD SWAP1 POP SWAP2 SWAP1 POP JUMP JUMPDEST PUSH0 PUSH1 0x20 DUP3 ADD SWAP1 POP DUP2 DUP2 SUB PUSH0 DUP4 ADD MSTORE PUSH2 0x4811 DUP2 PUSH2 0x47D8 JUMP JUMPDEST SWAP1 POP SWAP2 SWAP1 POP JUMP JUMPDEST PUSH32 0x4E487B7100000000000000000000000000000000000000000000000000000000 PUSH0 MSTORE PUSH1 0x22 PUSH1 0x4 MSTORE PUSH1 0x24 PUSH0 REVERT JUMPDEST PUSH0 PUSH1 0x2 DUP3 DIV SWAP1 POP PUSH1 0x1 DUP3 AND DUP1 PUSH2 0x485C JUMPI PUSH1 0x7F DUP3 AND SWAP2 POP JUMPDEST PUSH1 0x20 DUP3 LT DUP2 SUB PUSH2 0x486F JUMPI PUSH2 0x486E PUSH2 0x4818 JUMP JUMPDEST JUMPDEST POP SWAP2 SWAP1 POP JUMP JUMPDEST PUSH0 DUP2 SWAP1 POP SWAP3 SWAP2 POP POP JUMP JUMPDEST PUSH0 PUSH2 0x488A DUP4 DUP6 PUSH2 0x4875 JUMP JUMPDEST SWAP4 POP PUSH2 0x4897 DUP4 DUP6 DUP5 PUSH2 0x41FB JUMP JUMPDEST DUP3 DUP5 ADD SWAP1 POP SWAP4 SWAP3 POP POP POP JUMP JUMPDEST PUSH0 PUSH2 0x48AF DUP3 DUP5 DUP7 PUSH2 0x487F JUMP JUMPDEST SWAP2 POP DUP2 SWAP1 POP SWAP4 SWAP3 POP POP POP JUMP JUMPDEST PUSH32 0x4C7A4170703A20696E76616C696420736F757263652073656E64696E6720636F PUSH0 DUP3 ADD MSTORE PUSH32 0x6E74726163740000000000000000000000000000000000000000000000000000 PUSH1 0x20 DUP3 ADD MSTORE POP JUMP JUMPDEST PUSH0 PUSH2 0x4915 PUSH1 0x26 DUP4 PUSH2 0x4738 JUMP JUMPDEST SWAP2 POP PUSH2 0x4920 DUP3 PUSH2 0x48BB JUMP JUMPDEST PUSH1 0x40 DUP3 ADD SWAP1 POP SWAP2 SWAP1 POP JUMP JUMPDEST PUSH0 PUSH1 0x20 DUP3 ADD SWAP1 POP DUP2 DUP2 SUB PUSH0 DUP4 ADD MSTORE PUSH2 0x4942 DUP2 PUSH2 0x4909 JUMP JUMPDEST SWAP1 POP SWAP2 SWAP1 POP JUMP JUMPDEST PUSH32 0x546F6B656E4272696467653A20696E76616C696420746F6B656E206164647265 PUSH0 DUP3 ADD MSTORE PUSH32 0x7373000000000000000000000000000000000000000000000000000000000000 PUSH1 0x20 DUP3 ADD MSTORE POP JUMP JUMPDEST PUSH0 PUSH2 0x49A3 PUSH1 0x22 DUP4 PUSH2 0x4738 JUMP JUMPDEST SWAP2 POP PUSH2 0x49AE DUP3 PUSH2 0x4949 JUMP JUMPDEST PUSH1 0x40 DUP3 ADD SWAP1 POP SWAP2 SWAP1 POP JUMP JUMPDEST PUSH0 PUSH1 0x20 DUP3 ADD SWAP1 POP DUP2 DUP2 SUB PUSH0 DUP4 ADD MSTORE PUSH2 0x49D0 DUP2 PUSH2 0x4997 JUMP JUMPDEST SWAP1 POP SWAP2 SWAP1 POP JUMP JUMPDEST PUSH32 0x546F6B656E4272696467653A20746F6B656E20616C7265616479207265676973 PUSH0 DUP3 ADD MSTORE PUSH32 0x7465726564000000000000000000000000000000000000000000000000000000 PUSH1 0x20 DUP3 ADD MSTORE POP JUMP JUMPDEST PUSH0 PUSH2 0x4A31 PUSH1 0x25 DUP4 PUSH2 0x4738 JUMP JUMPDEST SWAP2 POP PUSH2 0x4A3C DUP3 PUSH2 0x49D7 JUMP JUMPDEST PUSH1 0x40 DUP3 ADD SWAP1 POP SWAP2 SWAP1 POP JUMP JUMPDEST PUSH0 PUSH1 0x20 DUP3 ADD SWAP1 POP DUP2 DUP2 SUB PUSH0 DUP4 ADD MSTORE PUSH2 0x4A5E DUP2 PUSH2 0x4A25 JUMP JUMPDEST SWAP1 POP SWAP2 SWAP1 POP JUMP JUMPDEST PUSH32 0x546F6B656E4272696467653A20646563696D616C73206D757374206265203E3D PUSH0 DUP3 ADD MSTORE PUSH32 0x205348415245445F444543494D414C5300000000000000000000000000000000 PUSH1 0x20 DUP3 ADD MSTORE POP JUMP JUMPDEST PUSH0 PUSH2 0x4ABF PUSH1 0x30 DUP4 PUSH2 0x4738 JUMP JUMPDEST SWAP2 POP PUSH2 0x4ACA DUP3 PUSH2 0x4A65 JUMP JUMPDEST PUSH1 0x40 DUP3 ADD SWAP1 POP SWAP2 SWAP1 POP JUMP JUMPDEST PUSH0 PUSH1 0x20 DUP3 ADD SWAP1 POP DUP2 DUP2 SUB PUSH0 DUP4 ADD MSTORE PUSH2 0x4AEC DUP2 PUSH2 0x4AB3 JUMP JUMPDEST SWAP1 POP SWAP2 SWAP1 POP JUMP JUMPDEST PUSH32 0x4E487B7100000000000000000000000000000000000000000000000000000000 PUSH0 MSTORE PUSH1 0x11 PUSH1 0x4 MSTORE PUSH1 0x24 PUSH0 REVERT JUMPDEST PUSH0 PUSH2 0x4B2A DUP3 PUSH2 0x44AC JUMP JUMPDEST SWAP2 POP PUSH2 0x4B35 DUP4 PUSH2 0x44AC JUMP JUMPDEST SWAP3 POP DUP3 DUP3 SUB SWAP1 POP PUSH1 0xFF DUP2 GT ISZERO PUSH2 0x4B4E JUMPI PUSH2 0x4B4D PUSH2 0x4AF3 JUMP JUMPDEST JUMPDEST SWAP3 SWAP2 POP POP JUMP JUMPDEST PUSH0 DUP2 PUSH1 0x1 SHR SWAP1 POP SWAP2 SWAP1 POP JUMP JUMPDEST PUSH0 DUP1 DUP3 SWAP2 POP DUP4 SWAP1 POP JUMPDEST PUSH1 0x1 DUP6 GT ISZERO PUSH2 0x4BA9 JUMPI DUP1 DUP7 DIV DUP2 GT ISZERO PUSH2 0x4B85 JUMPI PUSH2 0x4B84 PUSH2 0x4AF3 JUMP JUMPDEST JUMPDEST PUSH1 0x1 DUP6 AND ISZERO PUSH2 0x4B94 JUMPI DUP1 DUP3 MUL SWAP2 POP JUMPDEST DUP1 DUP2 MUL SWAP1 POP PUSH2 0x4BA2 DUP6 PUSH2 0x4B54 JUMP JUMPDEST SWAP5 POP PUSH2 0x4B69 JUMP JUMPDEST SWAP5 POP SWAP5 SWAP3 POP POP POP JUMP JUMPDEST PUSH0 DUP3 PUSH2 0x4BC1 JUMPI PUSH1 0x1 SWAP1 POP PUSH2 0x4C7C JUMP JUMPDEST DUP2 PUSH2 0x4BCE JUMPI PUSH0 SWAP1 POP PUSH2 0x4C7C JUMP JUMPDEST DUP2 PUSH1 0x1 DUP2 EQ PUSH2 0x4BE4 JUMPI PUSH1 0x2 DUP2 EQ PUSH2 0x4BEE JUMPI PUSH2 0x4C1D JUMP JUMPDEST PUSH1 0x1 SWAP2 POP POP PUSH2 0x4C7C JUMP JUMPDEST PUSH1 0xFF DUP5 GT ISZERO PUSH2 0x4C00 JUMPI PUSH2 0x4BFF PUSH2 0x4AF3 JUMP JUMPDEST JUMPDEST DUP4 PUSH1 0x2 EXP SWAP2 POP DUP5 DUP3 GT ISZERO PUSH2 0x4C17 JUMPI PUSH2 0x4C16 PUSH2 0x4AF3 JUMP JUMPDEST JUMPDEST POP PUSH2 0x4C7C JUMP JUMPDEST POP PUSH1 0x20 DUP4 LT PUSH2 0x133 DUP4 LT AND PUSH1 0x4E DUP5 LT PUSH1 0xB DUP5 LT AND OR ISZERO PUSH2 0x4C52 JUMPI DUP3 DUP3 EXP SWAP1 POP DUP4 DUP2 GT ISZERO PUSH2 0x4C4D JUMPI PUSH2 0x4C4C PUSH2 0x4AF3 JUMP JUMPDEST JUMPDEST PUSH2 0x4C7C JUMP JUMPDEST PUSH2 0x4C5F DUP5 DUP5 DUP5 PUSH1 0x1 PUSH2 0x4B60 JUMP JUMPDEST SWAP3 POP SWAP1 POP DUP2 DUP5 DIV DUP2 GT ISZERO PUSH2 0x4C76 JUMPI PUSH2 0x4C75 PUSH2 0x4AF3 JUMP JUMPDEST JUMPDEST DUP2 DUP2 MUL SWAP1 POP JUMPDEST SWAP4 SWAP3 POP POP POP JUMP JUMPDEST PUSH0 PUSH2 0x4C8D DUP3 PUSH2 0x3CCD JUMP JUMPDEST SWAP2 POP PUSH2 0x4C98 DUP4 PUSH2 0x44AC JUMP JUMPDEST SWAP3 POP PUSH2 0x4CC5 PUSH32 0xFFFFFFFFFFFFFFFFFFFFFFFFFFFFFFFFFFFFFFFFFFFFFFFFFFFFFFFFFFFFFFFF DUP5 DUP5 PUSH2 0x4BB2 JUMP JUMPDEST SWAP1 POP SWAP3 SWAP2 POP POP JUMP JUMPDEST PUSH0 PUSH2 0x4CD8 DUP4 DUP6 PUSH2 0x431E JUMP JUMPDEST SWAP4 POP PUSH2 0x4CE5 DUP4 DUP6 DUP5 PUSH2 0x41FB JUMP JUMPDEST PUSH2 0x4CEE DUP4 PUSH2 0x4143 JUMP JUMPDEST DUP5 ADD SWAP1 POP SWAP4 SWAP3 POP POP POP JUMP JUMPDEST PUSH0 PUSH1 0x40 DUP3 ADD SWAP1 POP PUSH2 0x4D0C PUSH0 DUP4 ADD DUP7 PUSH2 0x3FB9 JUMP JUMPDEST DUP2 DUP2 SUB PUSH1 0x20 DUP4 ADD MSTORE PUSH2 0x4D1F DUP2 DUP5 DUP7 PUSH2 0x4CCD JUMP JUMPDEST SWAP1 POP SWAP5 SWAP4 POP POP POP POP JUMP JUMPDEST PUSH0 PUSH1 0xA0 DUP3 ADD SWAP1 POP PUSH2 0x4D3C PUSH0 DUP4 ADD DUP10 PUSH2 0x3FB9 JUMP JUMPDEST PUSH2 0x4D49 PUSH1 0x20 DUP4 ADD DUP9 PUSH2 0x4071 JUMP JUMPDEST DUP2 DUP2 SUB PUSH1 0x40 DUP4 ADD MSTORE PUSH2 0x4D5B DUP2 DUP8 PUSH2 0x4356 JUMP JUMPDEST SWAP1 POP PUSH2 0x4D6A PUSH1 0x60 DUP4 ADD DUP7 PUSH2 0x4049 JUMP JUMPDEST DUP2 DUP2 SUB PUSH1 0x80 DUP4 ADD MSTORE PUSH2 0x4D7D DUP2 DUP5 DUP7 PUSH2 0x4CCD JUMP JUMPDEST SWAP1 POP SWAP8 SWAP7 POP POP POP POP POP POP POP JUMP JUMPDEST PUSH0 DUP2 MLOAD SWAP1 POP PUSH2 0x4D98 DUP2 PUSH2 0x3CD6 JUMP JUMPDEST SWAP3 SWAP2 POP POP JUMP JUMPDEST PUSH0 DUP1 PUSH1 0x40 DUP4 DUP6 SUB SLT ISZERO PUSH2 0x4DB4 JUMPI PUSH2 0x4DB3 PUSH2 0x3CC5 JUMP JUMPDEST JUMPDEST PUSH0 PUSH2 0x4DC1 DUP6 DUP3 DUP7 ADD PUSH2 0x4D8A JUMP JUMPDEST SWAP3 POP POP PUSH1 0x20 PUSH2 0x4DD2 DUP6 DUP3 DUP7 ADD PUSH2 0x4D8A JUMP JUMPDEST SWAP2 POP POP SWAP3 POP SWAP3 SWAP1 POP JUMP JUMPDEST PUSH32 0x4E6F6E626C6F636B696E674C7A4170703A2063616C6C6572206D757374206265 PUSH0 DUP3 ADD MSTORE PUSH32 0x204C7A4170700000000000000000000000000000000000000000000000000000 PUSH1 0x20 DUP3 ADD MSTORE POP JUMP JUMPDEST PUSH0 PUSH2 0x4E36 PUSH1 0x26 DUP4 PUSH2 0x4738 JUMP JUMPDEST SWAP2 POP PUSH2 0x4E41 DUP3 PUSH2 0x4DDC JUMP JUMPDEST PUSH1 0x40 DUP3 ADD SWAP1 POP SWAP2 SWAP1 POP JUMP JUMPDEST PUSH0 PUSH1 0x20 DUP3 ADD SWAP1 POP DUP2 DUP2 SUB PUSH0 DUP4 ADD MSTORE PUSH2 0x4E63 DUP2 PUSH2 0x4E2A JUMP JUMPDEST SWAP1 POP SWAP2 SWAP1 POP JUMP JUMPDEST PUSH32 0x546F6B656E4272696467653A2070617573656400000000000000000000000000 PUSH0 DUP3 ADD MSTORE POP JUMP JUMPDEST PUSH0 PUSH2 0x4E9E PUSH1 0x13 DUP4 PUSH2 0x4738 JUMP JUMPDEST SWAP2 POP PUSH2 0x4EA9 DUP3 PUSH2 0x4E6A JUMP JUMPDEST PUSH1 0x20 DUP3 ADD SWAP1 POP SWAP2 SWAP1 POP JUMP JUMPDEST PUSH0 PUSH1 0x20 DUP3 ADD SWAP1 POP DUP2 DUP2 SUB PUSH0 DUP4 ADD MSTORE PUSH2 0x4ECB DUP2 PUSH2 0x4E92 JUMP JUMPDEST SWAP1 POP SWAP2 SWAP1 POP JUMP JUMPDEST PUSH32 0x546F6B656E4272696467653A20746F6B656E206973206E6F7420737570706F72 PUSH0 DUP3 ADD MSTORE PUSH32 0x7465640000000000000000000000000000000000000000000000000000000000 PUSH1 0x20 DUP3 ADD MSTORE POP JUMP JUMPDEST PUSH0 PUSH2 0x4F2C PUSH1 0x23 DUP4 PUSH2 0x4738 JUMP JUMPDEST SWAP2 POP PUSH2 0x4F37 DUP3 PUSH2 0x4ED2 JUMP JUMPDEST PUSH1 0x40 DUP3 ADD SWAP1 POP SWAP2 SWAP1 POP JUMP JUMPDEST PUSH0 PUSH1 0x20 DUP3 ADD SWAP1 POP DUP2 DUP2 SUB PUSH0 DUP4 ADD MSTORE PUSH2 0x4F59 DUP2 PUSH2 0x4F20 JUMP JUMPDEST SWAP1 POP SWAP2 SWAP1 POP JUMP JUMPDEST PUSH32 0x546F6B656E4272696467653A20616D6F756E745344206D757374206265206772 PUSH0 DUP3 ADD MSTORE PUSH32 0x6561746572207468616E20300000000000000000000000000000000000000000 PUSH1 0x20 DUP3 ADD MSTORE POP JUMP JUMPDEST PUSH0 PUSH2 0x4FBA PUSH1 0x2C DUP4 PUSH2 0x4738 JUMP JUMPDEST SWAP2 POP PUSH2 0x4FC5 DUP3 PUSH2 0x4F60 JUMP JUMPDEST PUSH1 0x40 DUP3 ADD SWAP1 POP SWAP2 SWAP1 POP JUMP JUMPDEST PUSH0 PUSH1 0x20 DUP3 ADD SWAP1 POP DUP2 DUP2 SUB PUSH0 DUP4 ADD MSTORE PUSH2 0x4FE7 DUP2 PUSH2 0x4FAE JUMP JUMPDEST SWAP1 POP SWAP2 SWAP1 POP JUMP JUMPDEST PUSH0 PUSH2 0x4FF8 DUP3 PUSH2 0x3DC3 JUMP JUMPDEST SWAP2 POP PUSH2 0x5003 DUP4 PUSH2 0x3DC3 JUMP JUMPDEST SWAP3 POP DUP3 DUP3 ADD SWAP1 POP PUSH8 0xFFFFFFFFFFFFFFFF DUP2 GT ISZERO PUSH2 0x5023 JUMPI PUSH2 0x5022 PUSH2 0x4AF3 JUMP JUMPDEST JUMPDEST SWAP3 SWAP2 POP POP JUMP JUMPDEST PUSH32 0x4C7A4170703A206E6F20747275737465642070617468207265636F7264000000 PUSH0 DUP3 ADD MSTORE POP JUMP JUMPDEST PUSH0 PUSH2 0x505D PUSH1 0x1D DUP4 PUSH2 0x4738 JUMP JUMPDEST SWAP2 POP PUSH2 0x5068 DUP3 PUSH2 0x5029 JUMP JUMPDEST PUSH1 0x20 DUP3 ADD SWAP1 POP SWAP2 SWAP1 POP JUMP JUMPDEST PUSH0 PUSH1 0x20 DUP3 ADD SWAP1 POP DUP2 DUP2 SUB PUSH0 DUP4 ADD MSTORE PUSH2 0x508A DUP2 PUSH2 0x5051 JUMP JUMPDEST SWAP1 POP SWAP2 SWAP1 POP JUMP JUMPDEST PUSH0 PUSH2 0x509B DUP3 PUSH2 0x3CCD JUMP JUMPDEST SWAP2 POP PUSH2 0x50A6 DUP4 PUSH2 0x3CCD JUMP JUMPDEST SWAP3 POP DUP3 DUP3 SUB SWAP1 POP DUP2 DUP2 GT ISZERO PUSH2 0x50BE JUMPI PUSH2 0x50BD PUSH2 0x4AF3 JUMP JUMPDEST JUMPDEST SWAP3 SWAP2 POP POP JUMP JUMPDEST PUSH0 PUSH1 0x20 DUP3 DUP5 SUB SLT ISZERO PUSH2 0x50D9 JUMPI PUSH2 0x50D8 PUSH2 0x3CC5 JUMP JUMPDEST JUMPDEST PUSH0 PUSH2 0x50E6 DUP5 DUP3 DUP6 ADD PUSH2 0x4D8A JUMP JUMPDEST SWAP2 POP POP SWAP3 SWAP2 POP POP JUMP JUMPDEST PUSH0 DUP2 PUSH1 0x60 SHL SWAP1 POP SWAP2 SWAP1 POP JUMP JUMPDEST PUSH0 PUSH2 0x5105 DUP3 PUSH2 0x50EF JUMP JUMPDEST SWAP1 POP SWAP2 SWAP1 POP JUMP JUMPDEST PUSH0 PUSH2 0x5116 DUP3 PUSH2 0x50FB JUMP JUMPDEST SWAP1 POP SWAP2 SWAP1 POP JUMP JUMPDEST PUSH2 0x512E PUSH2 0x5129 DUP3 PUSH2 0x3EED JUMP JUMPDEST PUSH2 0x510C JUMP JUMPDEST DUP3 MSTORE POP POP JUMP JUMPDEST PUSH0 PUSH2 0x5140 DUP3 DUP6 DUP8 PUSH2 0x487F JUMP JUMPDEST SWAP2 POP PUSH2 0x514C DUP3 DUP5 PUSH2 0x511D JUMP JUMPDEST PUSH1 0x14 DUP3 ADD SWAP2 POP DUP2 SWAP1 POP SWAP5 SWAP4 POP POP POP POP JUMP JUMPDEST PUSH0 DUP2 SWAP1 POP DUP2 PUSH0 MSTORE PUSH1 0x20 PUSH0 KECCAK256 SWAP1 POP SWAP2 SWAP1 POP JUMP JUMPDEST PUSH0 PUSH1 0x20 PUSH1 0x1F DUP4 ADD DIV SWAP1 POP SWAP2 SWAP1 POP JUMP JUMPDEST PUSH0 DUP3 DUP3 SHL SWAP1 POP SWAP3 SWAP2 POP POP JUMP JUMPDEST PUSH0 PUSH1 0x8 DUP4 MUL PUSH2 0x51B9 PUSH32 0xFFFFFFFFFFFFFFFFFFFFFFFFFFFFFFFFFFFFFFFFFFFFFFFFFFFFFFFFFFFFFFFF DUP3 PUSH2 0x517E JUMP JUMPDEST PUSH2 0x51C3 DUP7 DUP4 PUSH2 0x517E JUMP JUMPDEST SWAP6 POP DUP1 NOT DUP5 AND SWAP4 POP DUP1 DUP7 AND DUP5 OR SWAP3 POP POP POP SWAP4 SWAP3 POP POP POP JUMP JUMPDEST PUSH0 PUSH2 0x51F5 PUSH2 0x51F0 PUSH2 0x51EB DUP5 PUSH2 0x3CCD JUMP JUMPDEST PUSH2 0x44E0 JUMP JUMPDEST PUSH2 0x3CCD JUMP JUMPDEST SWAP1 POP SWAP2 SWAP1 POP JUMP JUMPDEST PUSH0 DUP2 SWAP1 POP SWAP2 SWAP1 POP JUMP JUMPDEST PUSH2 0x520E DUP4 PUSH2 0x51DB JUMP JUMPDEST PUSH2 0x5222 PUSH2 0x521A DUP3 PUSH2 0x51FC JUMP JUMPDEST DUP5 DUP5 SLOAD PUSH2 0x518A JUMP JUMPDEST DUP3 SSTORE POP POP POP POP JUMP JUMPDEST PUSH0 SWAP1 JUMP JUMPDEST PUSH2 0x5236 PUSH2 0x522A JUMP JUMPDEST PUSH2 0x5241 DUP2 DUP5 DUP5 PUSH2 0x5205 JUMP JUMPDEST POP POP POP JUMP JUMPDEST JUMPDEST DUP2 DUP2 LT ISZERO PUSH2 0x5264 JUMPI PUSH2 0x5259 PUSH0 DUP3 PUSH2 0x522E JUMP JUMPDEST PUSH1 0x1 DUP2 ADD SWAP1 POP PUSH2 0x5247 JUMP JUMPDEST POP POP JUMP JUMPDEST PUSH1 0x1F DUP3 GT ISZERO PUSH2 0x52A9 JUMPI PUSH2 0x527A DUP2 PUSH2 0x515D JUMP JUMPDEST PUSH2 0x5283 DUP5 PUSH2 0x516F JUMP JUMPDEST DUP2 ADD PUSH1 0x20 DUP6 LT ISZERO PUSH2 0x5292 JUMPI DUP2 SWAP1 POP JUMPDEST PUSH2 0x52A6 PUSH2 0x529E DUP6 PUSH2 0x516F JUMP JUMPDEST DUP4 ADD DUP3 PUSH2 0x5246 JUMP JUMPDEST POP POP JUMPDEST POP POP POP JUMP JUMPDEST PUSH0 DUP3 DUP3 SHR SWAP1 POP SWAP3 SWAP2 POP POP JUMP JUMPDEST PUSH0 PUSH2 0x52C9 PUSH0 NOT DUP5 PUSH1 0x8 MUL PUSH2 0x52AE JUMP JUMPDEST NOT DUP1 DUP4 AND SWAP2 POP POP SWAP3 SWAP2 POP POP JUMP JUMPDEST PUSH0 PUSH2 0x52E1 DUP4 DUP4 PUSH2 0x52BA JUMP JUMPDEST SWAP2 POP DUP3 PUSH1 0x2 MUL DUP3 OR SWAP1 POP SWAP3 SWAP2 POP POP JUMP JUMPDEST PUSH2 0x52FA DUP3 PUSH2 0x4314 JUMP JUMPDEST PUSH8 0xFFFFFFFFFFFFFFFF DUP2 GT ISZERO PUSH2 0x5313 JUMPI PUSH2 0x5312 PUSH2 0x4153 JUMP JUMPDEST JUMPDEST PUSH2 0x531D DUP3 SLOAD PUSH2 0x4845 JUMP JUMPDEST PUSH2 0x5328 DUP3 DUP3 DUP6 PUSH2 0x5268 JUMP JUMPDEST PUSH0 PUSH1 0x20 SWAP1 POP PUSH1 0x1F DUP4 GT PUSH1 0x1 DUP2 EQ PUSH2 0x5359 JUMPI PUSH0 DUP5 ISZERO PUSH2 0x5347 JUMPI DUP3 DUP8 ADD MLOAD SWAP1 POP JUMPDEST PUSH2 0x5351 DUP6 DUP3 PUSH2 0x52D6 JUMP JUMPDEST DUP7 SSTORE POP PUSH2 0x53B8 JUMP JUMPDEST PUSH1 0x1F NOT DUP5 AND PUSH2 0x5367 DUP7 PUSH2 0x515D JUMP JUMPDEST PUSH0 JUMPDEST DUP3 DUP2 LT ISZERO PUSH2 0x538E JUMPI DUP5 DUP10 ADD MLOAD DUP3 SSTORE PUSH1 0x1 DUP3 ADD SWAP2 POP PUSH1 0x20 DUP6 ADD SWAP5 POP PUSH1 0x20 DUP2 ADD SWAP1 POP PUSH2 0x5369 JUMP JUMPDEST DUP7 DUP4 LT ISZERO PUSH2 0x53AB JUMPI DUP5 DUP10 ADD MLOAD PUSH2 0x53A7 PUSH1 0x1F DUP10 AND DUP3 PUSH2 0x52BA JUMP JUMPDEST DUP4 SSTORE POP JUMPDEST PUSH1 0x1 PUSH1 0x2 DUP9 MUL ADD DUP9 SSTORE POP POP POP JUMPDEST POP POP POP POP POP POP JUMP JUMPDEST PUSH32 0x546F6B656E4272696467653A20455448206973206E6F7420737570706F727465 PUSH0 DUP3 ADD MSTORE PUSH32 0x6400000000000000000000000000000000000000000000000000000000000000 PUSH1 0x20 DUP3 ADD MSTORE POP JUMP JUMPDEST PUSH0 PUSH2 0x541A PUSH1 0x21 DUP4 PUSH2 0x4738 JUMP JUMPDEST SWAP2 POP PUSH2 0x5425 DUP3 PUSH2 0x53C0 JUMP JUMPDEST PUSH1 0x40 DUP3 ADD SWAP1 POP SWAP2 SWAP1 POP JUMP JUMPDEST PUSH0 PUSH1 0x20 DUP3 ADD SWAP1 POP DUP2 DUP2 SUB PUSH0 DUP4 ADD MSTORE PUSH2 0x5447 DUP2 PUSH2 0x540E JUMP JUMPDEST SWAP1 POP SWAP2 SWAP1 POP JUMP JUMPDEST PUSH32 0x546F6B656E4272696467653A20616D6F756E74206D7573742062652067726561 PUSH0 DUP3 ADD MSTORE PUSH32 0x746572207468616E203000000000000000000000000000000000000000000000 PUSH1 0x20 DUP3 ADD MSTORE POP JUMP JUMPDEST PUSH0 PUSH2 0x54A8 PUSH1 0x2A DUP4 PUSH2 0x4738 JUMP JUMPDEST SWAP2 POP PUSH2 0x54B3 DUP3 PUSH2 0x544E JUMP JUMPDEST PUSH1 0x40 DUP3 ADD SWAP1 POP SWAP2 SWAP1 POP JUMP JUMPDEST PUSH0 PUSH1 0x20 DUP3 ADD SWAP1 POP DUP2 DUP2 SUB PUSH0 DUP4 ADD MSTORE PUSH2 0x54D5 DUP2 PUSH2 0x549C JUMP JUMPDEST SWAP1 POP SWAP2 SWAP1 POP JUMP JUMPDEST PUSH32 0x546F6B656E4272696467653A20666565206E6F7420656E6F7567680000000000 PUSH0 DUP3 ADD MSTORE POP JUMP JUMPDEST PUSH0 PUSH2 0x5510 PUSH1 0x1B DUP4 PUSH2 0x4738 JUMP JUMPDEST SWAP2 POP PUSH2 0x551B DUP3 PUSH2 0x54DC JUMP JUMPDEST PUSH1 0x20 DUP3 ADD SWAP1 POP SWAP2 SWAP1 POP JUMP JUMPDEST PUSH0 PUSH1 0x20 DUP3 ADD SWAP1 POP DUP2 DUP2 SUB PUSH0 DUP4 ADD MSTORE PUSH2 0x553D DUP2 PUSH2 0x5504 JUMP JUMPDEST SWAP1 POP SWAP2 SWAP1 POP JUMP JUMPDEST PUSH0 PUSH1 0x80 DUP3 ADD SWAP1 POP PUSH2 0x5557 PUSH0 DUP4 ADD DUP9 PUSH2 0x3FB9 JUMP JUMPDEST PUSH2 0x5564 PUSH1 0x20 DUP4 ADD DUP8 PUSH2 0x3FB9 JUMP JUMPDEST PUSH2 0x5571 PUSH1 0x40 DUP4 ADD DUP7 PUSH2 0x3F91 JUMP JUMPDEST DUP2 DUP2 SUB PUSH1 0x60 DUP4 ADD MSTORE PUSH2 0x5584 DUP2 DUP5 DUP7 PUSH2 0x4CCD JUMP JUMPDEST SWAP1 POP SWAP7 SWAP6 POP POP POP POP POP POP JUMP JUMPDEST PUSH32 0x4E6F6E626C6F636B696E674C7A4170703A206E6F2073746F726564206D657373 PUSH0 DUP3 ADD MSTORE PUSH32 0x6167650000000000000000000000000000000000000000000000000000000000 PUSH1 0x20 DUP3 ADD MSTORE POP JUMP JUMPDEST PUSH0 PUSH2 0x55EA PUSH1 0x23 DUP4 PUSH2 0x4738 JUMP JUMPDEST SWAP2 POP PUSH2 0x55F5 DUP3 PUSH2 0x5590 JUMP JUMPDEST PUSH1 0x40 DUP3 ADD SWAP1 POP SWAP2 SWAP1 POP JUMP JUMPDEST PUSH0 PUSH1 0x20 DUP3 ADD SWAP1 POP DUP2 DUP2 SUB PUSH0 DUP4 ADD MSTORE PUSH2 0x5617 DUP2 PUSH2 0x55DE JUMP JUMPDEST SWAP1 POP SWAP2 SWAP1 POP JUMP JUMPDEST PUSH32 0x4E6F6E626C6F636B696E674C7A4170703A20696E76616C6964207061796C6F61 PUSH0 DUP3 ADD MSTORE PUSH32 0x6400000000000000000000000000000000000000000000000000000000000000 PUSH1 0x20 DUP3 ADD MSTORE POP JUMP JUMPDEST PUSH0 PUSH2 0x5678 PUSH1 0x21 DUP4 PUSH2 0x4738 JUMP JUMPDEST SWAP2 POP PUSH2 0x5683 DUP3 PUSH2 0x561E JUMP JUMPDEST PUSH1 0x40 DUP3 ADD SWAP1 POP SWAP2 SWAP1 POP JUMP JUMPDEST PUSH0 PUSH1 0x20 DUP3 ADD SWAP1 POP DUP2 DUP2 SUB PUSH0 DUP4 ADD MSTORE PUSH2 0x56A5 DUP2 PUSH2 0x566C JUMP JUMPDEST SWAP1 POP SWAP2 SWAP1 POP JUMP JUMPDEST PUSH0 PUSH1 0x80 DUP3 ADD SWAP1 POP PUSH2 0x56BF PUSH0 DUP4 ADD DUP9 PUSH2 0x3FB9 JUMP JUMPDEST DUP2 DUP2 SUB PUSH1 0x20 DUP4 ADD MSTORE PUSH2 0x56D2 DUP2 DUP7 DUP9 PUSH2 0x4CCD JUMP JUMPDEST SWAP1 POP PUSH2 0x56E1 PUSH1 0x40 DUP4 ADD DUP6 PUSH2 0x46AC JUMP JUMPDEST PUSH2 0x56EE PUSH1 0x60 DUP4 ADD DUP5 PUSH2 0x42EC JUMP JUMPDEST SWAP7 SWAP6 POP POP POP POP POP POP JUMP JUMPDEST PUSH0 PUSH1 0x60 DUP3 ADD SWAP1 POP PUSH2 0x570B PUSH0 DUP4 ADD DUP7 PUSH2 0x3FB9 JUMP JUMPDEST PUSH2 0x5718 PUSH1 0x20 DUP4 ADD DUP6 PUSH2 0x3FB9 JUMP JUMPDEST PUSH2 0x5725 PUSH1 0x40 DUP4 ADD DUP5 PUSH2 0x3F91 JUMP JUMPDEST SWAP5 SWAP4 POP POP POP POP JUMP JUMPDEST PUSH0 DUP3 SWAP1 POP SWAP3 SWAP2 POP POP JUMP JUMPDEST PUSH2 0x5741 DUP4 DUP4 PUSH2 0x572D JUMP JUMPDEST PUSH8 0xFFFFFFFFFFFFFFFF DUP2 GT ISZERO PUSH2 0x575A JUMPI PUSH2 0x5759 PUSH2 0x4153 JUMP JUMPDEST JUMPDEST PUSH2 0x5764 DUP3 SLOAD PUSH2 0x4845 JUMP JUMPDEST PUSH2 0x576F DUP3 DUP3 DUP6 PUSH2 0x5268 JUMP JUMPDEST PUSH0 PUSH1 0x1F DUP4 GT PUSH1 0x1 DUP2 EQ PUSH2 0x579C JUMPI PUSH0 DUP5 ISZERO PUSH2 0x578A JUMPI DUP3 DUP8 ADD CALLDATALOAD SWAP1 POP JUMPDEST PUSH2 0x5794 DUP6 DUP3 PUSH2 0x52D6 JUMP JUMPDEST DUP7 SSTORE POP PUSH2 0x57FB JUMP JUMPDEST PUSH1 0x1F NOT DUP5 AND PUSH2 0x57AA DUP7 PUSH2 0x515D JUMP JUMPDEST PUSH0 JUMPDEST DUP3 DUP2 LT ISZERO PUSH2 0x57D1 JUMPI DUP5 DUP10 ADD CALLDATALOAD DUP3 SSTORE PUSH1 0x1 DUP3 ADD SWAP2 POP PUSH1 0x20 DUP6 ADD SWAP5 POP PUSH1 0x20 DUP2 ADD SWAP1 POP PUSH2 0x57AC JUMP JUMPDEST DUP7 DUP4 LT ISZERO PUSH2 0x57EE JUMPI DUP5 DUP10 ADD CALLDATALOAD PUSH2 0x57EA PUSH1 0x1F DUP10 AND DUP3 PUSH2 0x52BA JUMP JUMPDEST DUP4 SSTORE POP JUMPDEST PUSH1 0x1 PUSH1 0x2 DUP9 MUL ADD DUP9 SSTORE POP POP POP JUMPDEST POP POP POP POP POP POP POP JUMP JUMPDEST PUSH0 PUSH1 0x80 DUP3 ADD SWAP1 POP PUSH2 0x5817 PUSH0 DUP4 ADD DUP8 PUSH2 0x3FB9 JUMP JUMPDEST PUSH2 0x5824 PUSH1 0x20 DUP4 ADD DUP7 PUSH2 0x3FB9 JUMP JUMPDEST PUSH2 0x5831 PUSH1 0x40 DUP4 ADD DUP6 PUSH2 0x4071 JUMP JUMPDEST PUSH2 0x583E PUSH1 0x60 DUP4 ADD DUP5 PUSH2 0x3F91 JUMP JUMPDEST SWAP6 SWAP5 POP POP POP POP POP JUMP JUMPDEST PUSH0 PUSH2 0x5859 PUSH2 0x5854 DUP5 PUSH2 0x41CB JUMP JUMPDEST PUSH2 0x41B1 JUMP JUMPDEST SWAP1 POP DUP3 DUP2 MSTORE PUSH1 0x20 DUP2 ADD DUP5 DUP5 DUP5 ADD GT ISZERO PUSH2 0x5875 JUMPI PUSH2 0x5874 PUSH2 0x413F JUMP JUMPDEST JUMPDEST PUSH2 0x5880 DUP5 DUP3 DUP6 PUSH2 0x432E JUMP JUMPDEST POP SWAP4 SWAP3 POP POP POP JUMP JUMPDEST PUSH0 DUP3 PUSH1 0x1F DUP4 ADD SLT PUSH2 0x589C JUMPI PUSH2 0x589B PUSH2 0x3D62 JUMP JUMPDEST JUMPDEST DUP2 MLOAD PUSH2 0x58AC DUP5 DUP3 PUSH1 0x20 DUP7 ADD PUSH2 0x5847 JUMP JUMPDEST SWAP2 POP POP SWAP3 SWAP2 POP POP JUMP JUMPDEST PUSH0 PUSH1 0x20 DUP3 DUP5 SUB SLT ISZERO PUSH2 0x58CA JUMPI PUSH2 0x58C9 PUSH2 0x3CC5 JUMP JUMPDEST JUMPDEST PUSH0 DUP3 ADD MLOAD PUSH8 0xFFFFFFFFFFFFFFFF DUP2 GT ISZERO PUSH2 0x58E7 JUMPI PUSH2 0x58E6 PUSH2 0x3CC9 JUMP JUMPDEST JUMPDEST PUSH2 0x58F3 DUP5 DUP3 DUP6 ADD PUSH2 0x5888 JUMP JUMPDEST SWAP2 POP POP SWAP3 SWAP2 POP POP JUMP JUMPDEST PUSH0 PUSH1 0x80 DUP3 ADD SWAP1 POP PUSH2 0x590F PUSH0 DUP4 ADD DUP8 PUSH2 0x3FB9 JUMP JUMPDEST DUP2 DUP2 SUB PUSH1 0x20 DUP4 ADD MSTORE PUSH2 0x5921 DUP2 DUP7 PUSH2 0x4356 JUMP JUMPDEST SWAP1 POP PUSH2 0x5930 PUSH1 0x40 DUP4 ADD DUP6 PUSH2 0x46AC JUMP JUMPDEST DUP2 DUP2 SUB PUSH1 0x60 DUP4 ADD MSTORE PUSH2 0x5942 DUP2 DUP5 PUSH2 0x4356 JUMP JUMPDEST SWAP1 POP SWAP6 SWAP5 POP POP POP POP POP JUMP JUMPDEST PUSH0 PUSH2 0x5957 DUP3 PUSH2 0x4314 JUMP JUMPDEST PUSH2 0x5961 DUP2 DUP6 PUSH2 0x4875 JUMP JUMPDEST SWAP4 POP PUSH2 0x5971 DUP2 DUP6 PUSH1 0x20 DUP7 ADD PUSH2 0x432E JUMP JUMPDEST DUP1 DUP5 ADD SWAP2 POP POP SWAP3 SWAP2 POP POP JUMP JUMPDEST PUSH0 PUSH2 0x5988 DUP3 DUP5 PUSH2 0x594D JUMP JUMPDEST SWAP2 POP DUP2 SWAP1 POP SWAP3 SWAP2 POP POP JUMP JUMPDEST PUSH32 0x546F6B656E4272696467653A206661696C656420746F2067657420746F6B656E PUSH0 DUP3 ADD MSTORE PUSH32 0x20646563696D616C730000000000000000000000000000000000000000000000 PUSH1 0x20 DUP3 ADD MSTORE POP JUMP JUMPDEST PUSH0 PUSH2 0x59ED PUSH1 0x29 DUP4 PUSH2 0x4738 JUMP JUMPDEST SWAP2 POP PUSH2 0x59F8 DUP3 PUSH2 0x5993 JUMP JUMPDEST PUSH1 0x40 DUP3 ADD SWAP1 POP SWAP2 SWAP1 POP JUMP JUMPDEST PUSH0 PUSH1 0x20 DUP3 ADD SWAP1 POP DUP2 DUP2 SUB PUSH0 DUP4 ADD MSTORE PUSH2 0x5A1A DUP2 PUSH2 0x59E1 JUMP JUMPDEST SWAP1 POP SWAP2 SWAP1 POP JUMP JUMPDEST PUSH2 0x5A2A DUP2 PUSH2 0x44AC JUMP JUMPDEST DUP2 EQ PUSH2 0x5A34 JUMPI PUSH0 DUP1 REVERT JUMPDEST POP JUMP JUMPDEST PUSH0 DUP2 MLOAD SWAP1 POP PUSH2 0x5A45 DUP2 PUSH2 0x5A21 JUMP JUMPDEST SWAP3 SWAP2 POP POP JUMP JUMPDEST PUSH0 PUSH1 0x20 DUP3 DUP5 SUB SLT ISZERO PUSH2 0x5A60 JUMPI PUSH2 0x5A5F PUSH2 0x3CC5 JUMP JUMPDEST JUMPDEST PUSH0 PUSH2 0x5A6D DUP5 DUP3 DUP6 ADD PUSH2 0x5A37 JUMP JUMPDEST SWAP2 POP POP SWAP3 SWAP2 POP POP JUMP JUMPDEST PUSH32 0x4E487B7100000000000000000000000000000000000000000000000000000000 PUSH0 MSTORE PUSH1 0x21 PUSH1 0x4 MSTORE PUSH1 0x24 PUSH0 REVERT JUMPDEST PUSH32 0x546F6B656E4272696467653A205F61646170746572506172616D73206D757374 PUSH0 DUP3 ADD MSTORE PUSH32 0x20626520656D7074792E00000000000000000000000000000000000000000000 PUSH1 0x20 DUP3 ADD MSTORE POP JUMP JUMPDEST PUSH0 PUSH2 0x5AFD PUSH1 0x2A DUP4 PUSH2 0x4738 JUMP JUMPDEST SWAP2 POP PUSH2 0x5B08 DUP3 PUSH2 0x5AA3 JUMP JUMPDEST PUSH1 0x40 DUP3 ADD SWAP1 POP SWAP2 SWAP1 POP JUMP JUMPDEST PUSH0 PUSH1 0x20 DUP3 ADD SWAP1 POP DUP2 DUP2 SUB PUSH0 DUP4 ADD MSTORE PUSH2 0x5B2A DUP2 PUSH2 0x5AF1 JUMP JUMPDEST SWAP1 POP SWAP2 SWAP1 POP JUMP JUMPDEST PUSH0 DUP2 PUSH1 0xF8 SHL SWAP1 POP SWAP2 SWAP1 POP JUMP JUMPDEST PUSH0 PUSH2 0x5B47 DUP3 PUSH2 0x5B31 JUMP JUMPDEST SWAP1 POP SWAP2 SWAP1 POP JUMP JUMPDEST PUSH2 0x5B5F PUSH2 0x5B5A DUP3 PUSH2 0x44AC JUMP JUMPDEST PUSH2 0x5B3D JUMP JUMPDEST DUP3 MSTORE POP POP JUMP JUMPDEST PUSH0 DUP2 SWAP1 POP SWAP2 SWAP1 POP JUMP JUMPDEST PUSH2 0x5B7F PUSH2 0x5B7A DUP3 PUSH2 0x42E3 JUMP JUMPDEST PUSH2 0x5B65 JUMP JUMPDEST DUP3 MSTORE POP POP JUMP JUMPDEST PUSH0 DUP2 PUSH1 0xC0 SHL SWAP1 POP SWAP2 SWAP1 POP JUMP JUMPDEST PUSH0 PUSH2 0x5B9B DUP3 PUSH2 0x5B85 JUMP JUMPDEST SWAP1 POP SWAP2 SWAP1 POP JUMP JUMPDEST PUSH2 0x5BB3 PUSH2 0x5BAE DUP3 PUSH2 0x3DC3 JUMP JUMPDEST PUSH2 0x5B91 JUMP JUMPDEST DUP3 MSTORE POP POP JUMP JUMPDEST PUSH0 PUSH2 0x5BC4 DUP3 DUP8 PUSH2 0x5B4E JUMP JUMPDEST PUSH1 0x1 DUP3 ADD SWAP2 POP PUSH2 0x5BD4 DUP3 DUP7 PUSH2 0x5B6E JUMP JUMPDEST PUSH1 0x20 DUP3 ADD SWAP2 POP PUSH2 0x5BE4 DUP3 DUP6 PUSH2 0x5B6E JUMP JUMPDEST PUSH1 0x20 DUP3 ADD SWAP2 POP PUSH2 0x5BF4 DUP3 DUP5 PUSH2 0x5BA2 JUMP JUMPDEST PUSH1 0x8 DUP3 ADD SWAP2 POP DUP2 SWAP1 POP SWAP6 SWAP5 POP POP POP POP POP JUMP JUMPDEST PUSH32 0x546F6B656E4272696467653A20696E76616C696420736F757263652063686169 PUSH0 DUP3 ADD MSTORE PUSH32 0x6E20696400000000000000000000000000000000000000000000000000000000 PUSH1 0x20 DUP3 ADD MSTORE POP JUMP JUMPDEST PUSH0 PUSH2 0x5C60 PUSH1 0x24 DUP4 PUSH2 0x4738 JUMP JUMPDEST SWAP2 POP PUSH2 0x5C6B DUP3 PUSH2 0x5C06 JUMP JUMPDEST PUSH1 0x40 DUP3 ADD SWAP1 POP SWAP2 SWAP1 POP JUMP JUMPDEST PUSH0 PUSH1 0x20 DUP3 ADD SWAP1 POP DUP2 DUP2 SUB PUSH0 DUP4 ADD MSTORE PUSH2 0x5C8D DUP2 PUSH2 0x5C54 JUMP JUMPDEST SWAP1 POP SWAP2 SWAP1 POP JUMP JUMPDEST PUSH32 0x546F6B656E4272696467653A20696E73756666696369656E74206C6971756964 PUSH0 DUP3 ADD MSTORE PUSH32 0x6974790000000000000000000000000000000000000000000000000000000000 PUSH1 0x20 DUP3 ADD MSTORE POP JUMP JUMPDEST PUSH0 PUSH2 0x5CEE PUSH1 0x23 DUP4 PUSH2 0x4738 JUMP JUMPDEST SWAP2 POP PUSH2 0x5CF9 DUP3 PUSH2 0x5C94 JUMP JUMPDEST PUSH1 0x40 DUP3 ADD SWAP1 POP SWAP2 SWAP1 POP JUMP JUMPDEST PUSH0 PUSH1 0x20 DUP3 ADD SWAP1 POP DUP2 DUP2 SUB PUSH0 DUP4 ADD MSTORE PUSH2 0x5D1B DUP2 PUSH2 0x5CE2 JUMP JUMPDEST SWAP1 POP SWAP2 SWAP1 POP JUMP JUMPDEST PUSH0 PUSH2 0x5D2C DUP3 PUSH2 0x3DC3 JUMP JUMPDEST SWAP2 POP PUSH2 0x5D37 DUP4 PUSH2 0x3DC3 JUMP JUMPDEST SWAP3 POP DUP3 DUP3 SUB SWAP1 POP PUSH8 0xFFFFFFFFFFFFFFFF DUP2 GT ISZERO PUSH2 0x5D57 JUMPI PUSH2 0x5D56 PUSH2 0x4AF3 JUMP JUMPDEST JUMPDEST SWAP3 SWAP2 POP POP JUMP JUMPDEST PUSH32 0x5265656E7472616E637947756172643A207265656E7472616E742063616C6C00 PUSH0 DUP3 ADD MSTORE POP JUMP JUMPDEST PUSH0 PUSH2 0x5D91 PUSH1 0x1F DUP4 PUSH2 0x4738 JUMP JUMPDEST SWAP2 POP PUSH2 0x5D9C DUP3 PUSH2 0x5D5D JUMP JUMPDEST PUSH1 0x20 DUP3 ADD SWAP1 POP SWAP2 SWAP1 POP JUMP JUMPDEST PUSH0 PUSH1 0x20 DUP3 ADD SWAP1 POP DUP2 DUP2 SUB PUSH0 DUP4 ADD MSTORE PUSH2 0x5DBE DUP2 PUSH2 0x5D85 JUMP JUMPDEST SWAP1 POP SWAP2 SWAP1 POP JUMP JUMPDEST PUSH32 0x4E487B7100000000000000000000000000000000000000000000000000000000 PUSH0 MSTORE PUSH1 0x12 PUSH1 0x4 MSTORE PUSH1 0x24 PUSH0 REVERT JUMPDEST PUSH0 PUSH2 0x5DFC DUP3 PUSH2 0x3CCD JUMP JUMPDEST SWAP2 POP PUSH2 0x5E07 DUP4 PUSH2 0x3CCD JUMP JUMPDEST SWAP3 POP DUP3 PUSH2 0x5E17 JUMPI PUSH2 0x5E16 PUSH2 0x5DC5 JUMP JUMPDEST JUMPDEST DUP3 DUP3 DIV SWAP1 POP SWAP3 SWAP2 POP POP JUMP JUMPDEST PUSH32 0x546F6B656E4272696467653A20616D6F756E745344206F766572666C6F770000 PUSH0 DUP3 ADD MSTORE POP JUMP JUMPDEST PUSH0 PUSH2 0x5E56 PUSH1 0x1E DUP4 PUSH2 0x4738 JUMP JUMPDEST SWAP2 POP PUSH2 0x5E61 DUP3 PUSH2 0x5E22 JUMP JUMPDEST PUSH1 0x20 DUP3 ADD SWAP1 POP SWAP2 SWAP1 POP JUMP JUMPDEST PUSH0 PUSH1 0x20 DUP3 ADD SWAP1 POP DUP2 DUP2 SUB PUSH0 DUP4 ADD MSTORE PUSH2 0x5E83 DUP2 PUSH2 0x5E4A JUMP JUMPDEST SWAP1 POP SWAP2 SWAP1 POP JUMP JUMPDEST PUSH0 PUSH2 0x5E94 DUP3 PUSH2 0x3ECE JUMP JUMPDEST SWAP1 POP SWAP2 SWAP1 POP JUMP JUMPDEST PUSH2 0x5EA4 DUP2 PUSH2 0x5E8A JUMP JUMPDEST DUP2 EQ PUSH2 0x5EAE JUMPI PUSH0 DUP1 REVERT JUMPDEST POP JUMP JUMPDEST PUSH0 DUP2 CALLDATALOAD SWAP1 POP PUSH2 0x5EBF DUP2 PUSH2 0x5E9B JUMP JUMPDEST SWAP3 SWAP2 POP POP JUMP JUMPDEST PUSH0 PUSH1 0x20 DUP3 DUP5 SUB SLT ISZERO PUSH2 0x5EDA JUMPI PUSH2 0x5ED9 PUSH2 0x3CC5 JUMP JUMPDEST JUMPDEST PUSH0 PUSH2 0x5EE7 DUP5 DUP3 DUP6 ADD PUSH2 0x5EB1 JUMP JUMPDEST SWAP2 POP POP SWAP3 SWAP2 POP POP JUMP JUMPDEST PUSH0 PUSH2 0x5EFA DUP3 PUSH2 0x3CCD JUMP JUMPDEST SWAP2 POP PUSH2 0x5F05 DUP4 PUSH2 0x3CCD JUMP JUMPDEST SWAP3 POP DUP3 DUP3 ADD SWAP1 POP DUP1 DUP3 GT ISZERO PUSH2 0x5F1D JUMPI PUSH2 0x5F1C PUSH2 0x4AF3 JUMP JUMPDEST JUMPDEST SWAP3 SWAP2 POP POP JUMP JUMPDEST PUSH32 0x736C6963655F6F766572666C6F77000000000000000000000000000000000000 PUSH0 DUP3 ADD MSTORE POP JUMP JUMPDEST PUSH0 PUSH2 0x5F57 PUSH1 0xE DUP4 PUSH2 0x4738 JUMP JUMPDEST SWAP2 POP PUSH2 0x5F62 DUP3 PUSH2 0x5F23 JUMP JUMPDEST PUSH1 0x20 DUP3 ADD SWAP1 POP SWAP2 SWAP1 POP JUMP JUMPDEST PUSH0 PUSH1 0x20 DUP3 ADD SWAP1 POP DUP2 DUP2 SUB PUSH0 DUP4 ADD MSTORE PUSH2 0x5F84 DUP2 PUSH2 0x5F4B JUMP JUMPDEST SWAP1 POP SWAP2 SWAP1 POP JUMP JUMPDEST PUSH32 0x736C6963655F6F75744F66426F756E6473000000000000000000000000000000 PUSH0 DUP3 ADD MSTORE POP JUMP JUMPDEST PUSH0 PUSH2 0x5FBF PUSH1 0x11 DUP4 PUSH2 0x4738 JUMP JUMPDEST SWAP2 POP PUSH2 0x5FCA DUP3 PUSH2 0x5F8B JUMP JUMPDEST PUSH1 0x20 DUP3 ADD SWAP1 POP SWAP2 SWAP1 POP JUMP JUMPDEST PUSH0 PUSH1 0x20 DUP3 ADD SWAP1 POP DUP2 DUP2 SUB PUSH0 DUP4 ADD MSTORE PUSH2 0x5FEC DUP2 PUSH2 0x5FB3 JUMP JUMPDEST SWAP1 POP SWAP2 SWAP1 POP JUMP JUMPDEST PUSH0 PUSH2 0x5FFD DUP3 PUSH2 0x3CCD JUMP JUMPDEST SWAP2 POP PUSH2 0x6008 DUP4 PUSH2 0x3CCD JUMP JUMPDEST SWAP3 POP DUP3 DUP3 MUL PUSH2 0x6016 DUP2 PUSH2 0x3CCD JUMP JUMPDEST SWAP2 POP DUP3 DUP3 DIV DUP5 EQ DUP4 ISZERO OR PUSH2 0x602D JUMPI PUSH2 0x602C PUSH2 0x4AF3 JUMP JUMPDEST JUMPDEST POP SWAP3 SWAP2 POP POP JUMP JUMPDEST PUSH0 PUSH1 0xA0 DUP3 ADD SWAP1 POP PUSH2 0x6047 PUSH0 DUP4 ADD DUP9 PUSH2 0x3FB9 JUMP JUMPDEST DUP2 DUP2 SUB PUSH1 0x20 DUP4 ADD MSTORE PUSH2 0x6059 DUP2 DUP8 PUSH2 0x4356 JUMP JUMPDEST SWAP1 POP PUSH2 0x6068 PUSH1 0x40 DUP4 ADD DUP7 PUSH2 0x46AC JUMP JUMPDEST DUP2 DUP2 SUB PUSH1 0x60 DUP4 ADD MSTORE PUSH2 0x607A DUP2 DUP6 PUSH2 0x4356 JUMP JUMPDEST SWAP1 POP DUP2 DUP2 SUB PUSH1 0x80 DUP4 ADD MSTORE PUSH2 0x608E DUP2 DUP5 PUSH2 0x4356 JUMP JUMPDEST SWAP1 POP SWAP7 SWAP6 POP POP POP POP POP POP JUMP JUMPDEST PUSH32 0x4C7A4170703A206D696E4761734C696D6974206E6F7420736574000000000000 PUSH0 DUP3 ADD MSTORE POP JUMP JUMPDEST PUSH0 PUSH2 0x60CE PUSH1 0x1A DUP4 PUSH2 0x4738 JUMP JUMPDEST SWAP2 POP PUSH2 0x60D9 DUP3 PUSH2 0x609A JUMP JUMPDEST PUSH1 0x20 DUP3 ADD SWAP1 POP SWAP2 SWAP1 POP JUMP JUMPDEST PUSH0 PUSH1 0x20 DUP3 ADD SWAP1 POP DUP2 DUP2 SUB PUSH0 DUP4 ADD MSTORE PUSH2 0x60FB DUP2 PUSH2 0x60C2 JUMP JUMPDEST SWAP1 POP SWAP2 SWAP1 POP JUMP JUMPDEST PUSH32 0x4C7A4170703A20676173206C696D697420697320746F6F206C6F770000000000 PUSH0 DUP3 ADD MSTORE POP JUMP JUMPDEST PUSH0 PUSH2 0x6136 PUSH1 0x1B DUP4 PUSH2 0x4738 JUMP JUMPDEST SWAP2 POP PUSH2 0x6141 DUP3 PUSH2 0x6102 JUMP JUMPDEST PUSH1 0x20 DUP3 ADD SWAP1 POP SWAP2 SWAP1 POP JUMP JUMPDEST PUSH0 PUSH1 0x20 DUP3 ADD SWAP1 POP DUP2 DUP2 SUB PUSH0 DUP4 ADD MSTORE PUSH2 0x6163 DUP2 PUSH2 0x612A JUMP JUMPDEST SWAP1 POP SWAP2 SWAP1 POP JUMP JUMPDEST PUSH32 0x546F6B656E4272696467653A20696E76616C6964207061796C6F6164206C656E PUSH0 DUP3 ADD MSTORE PUSH32 0x6774680000000000000000000000000000000000000000000000000000000000 PUSH1 0x20 DUP3 ADD MSTORE POP JUMP JUMPDEST PUSH0 PUSH2 0x61C4 PUSH1 0x23 DUP4 PUSH2 0x4738 JUMP JUMPDEST SWAP2 POP PUSH2 0x61CF DUP3 PUSH2 0x616A JUMP JUMPDEST PUSH1 0x40 DUP3 ADD SWAP1 POP SWAP2 SWAP1 POP JUMP JUMPDEST PUSH0 PUSH1 0x20 DUP3 ADD SWAP1 POP DUP2 DUP2 SUB PUSH0 DUP4 ADD MSTORE PUSH2 0x61F1 DUP2 PUSH2 0x61B8 JUMP JUMPDEST SWAP1 POP SWAP2 SWAP1 POP JUMP JUMPDEST PUSH32 0x4E487B7100000000000000000000000000000000000000000000000000000000 PUSH0 MSTORE PUSH1 0x32 PUSH1 0x4 MSTORE PUSH1 0x24 PUSH0 REVERT JUMPDEST PUSH32 0x546F6B656E4272696467653A20756E6B6E6F776E207061636B65742074797065 PUSH0 DUP3 ADD MSTORE POP JUMP JUMPDEST PUSH0 PUSH2 0x6259 PUSH1 0x20 DUP4 PUSH2 0x4738 JUMP JUMPDEST SWAP2 POP PUSH2 0x6264 DUP3 PUSH2 0x6225 JUMP JUMPDEST PUSH1 0x20 DUP3 ADD SWAP1 POP SWAP2 SWAP1 POP JUMP JUMPDEST PUSH0 PUSH1 0x20 DUP3 ADD SWAP1 POP DUP2 DUP2 SUB PUSH0 DUP4 ADD MSTORE PUSH2 0x6286 DUP2 PUSH2 0x624D JUMP JUMPDEST SWAP1 POP SWAP2 SWAP1 POP JUMP JUMPDEST PUSH0 PUSH1 0x40 DUP3 ADD SWAP1 POP PUSH2 0x62A0 PUSH0 DUP4 ADD DUP6 PUSH2 0x4071 JUMP JUMPDEST PUSH2 0x62AD PUSH1 0x20 DUP4 ADD DUP5 PUSH2 0x3F91 JUMP JUMPDEST SWAP4 SWAP3 POP POP POP JUMP JUMPDEST PUSH0 PUSH1 0x60 DUP3 ADD SWAP1 POP PUSH2 0x62C7 PUSH0 DUP4 ADD DUP7 PUSH2 0x4071 JUMP JUMPDEST PUSH2 0x62D4 PUSH1 0x20 DUP4 ADD DUP6 PUSH2 0x4071 JUMP JUMPDEST PUSH2 0x62E1 PUSH1 0x40 DUP4 ADD DUP5 PUSH2 0x3F91 JUMP JUMPDEST SWAP5 SWAP4 POP POP POP POP JUMP JUMPDEST PUSH32 0x4C7A4170703A2064657374696E6174696F6E20636861696E206973206E6F7420 PUSH0 DUP3 ADD MSTORE PUSH32 0x61207472757374656420736F7572636500000000000000000000000000000000 PUSH1 0x20 DUP3 ADD MSTORE POP JUMP JUMPDEST PUSH0 PUSH2 0x6343 PUSH1 0x30 DUP4 PUSH2 0x4738 JUMP JUMPDEST SWAP2 POP PUSH2 0x634E DUP3 PUSH2 0x62E9 JUMP JUMPDEST PUSH1 0x40 DUP3 ADD SWAP1 POP SWAP2 SWAP1 POP JUMP JUMPDEST PUSH0 PUSH1 0x20 DUP3 ADD SWAP1 POP DUP2 DUP2 SUB PUSH0 DUP4 ADD MSTORE PUSH2 0x6370 DUP2 PUSH2 0x6337 JUMP JUMPDEST SWAP1 POP SWAP2 SWAP1 POP JUMP JUMPDEST PUSH2 0x6380 DUP2 PUSH2 0x5E8A JUMP JUMPDEST DUP3 MSTORE POP POP JUMP JUMPDEST PUSH0 PUSH1 0xC0 DUP3 ADD SWAP1 POP PUSH2 0x6399 PUSH0 DUP4 ADD DUP10 PUSH2 0x3FB9 JUMP JUMPDEST DUP2 DUP2 SUB PUSH1 0x20 DUP4 ADD MSTORE PUSH2 0x63AB DUP2 DUP9 PUSH2 0x4356 JUMP JUMPDEST SWAP1 POP DUP2 DUP2 SUB PUSH1 0x40 DUP4 ADD MSTORE PUSH2 0x63BF DUP2 DUP8 PUSH2 0x4356 JUMP JUMPDEST SWAP1 POP PUSH2 0x63CE PUSH1 0x60 DUP4 ADD DUP7 PUSH2 0x6377 JUMP JUMPDEST PUSH2 0x63DB PUSH1 0x80 DUP4 ADD DUP6 PUSH2 0x4071 JUMP JUMPDEST DUP2 DUP2 SUB PUSH1 0xA0 DUP4 ADD MSTORE PUSH2 0x63ED DUP2 DUP5 PUSH2 0x4356 JUMP JUMPDEST SWAP1 POP SWAP8 SWAP7 POP POP POP POP POP POP POP JUMP JUMPDEST PUSH32 0x4C7A4170703A20696E76616C69642061646170746572506172616D7300000000 PUSH0 DUP3 ADD MSTORE POP JUMP JUMPDEST PUSH0 PUSH2 0x642E PUSH1 0x1C DUP4 PUSH2 0x4738 JUMP JUMPDEST SWAP2 POP PUSH2 0x6439 DUP3 PUSH2 0x63FA JUMP JUMPDEST PUSH1 0x20 DUP3 ADD SWAP1 POP SWAP2 SWAP1 POP JUMP JUMPDEST PUSH0 PUSH1 0x20 DUP3 ADD SWAP1 POP DUP2 DUP2 SUB PUSH0 DUP4 ADD MSTORE PUSH2 0x645B DUP2 PUSH2 0x6422 JUMP JUMPDEST SWAP1 POP SWAP2 SWAP1 POP JUMP JUMPDEST PUSH2 0x646B DUP2 PUSH2 0x403E JUMP JUMPDEST DUP2 EQ PUSH2 0x6475 JUMPI PUSH0 DUP1 REVERT JUMPDEST POP JUMP JUMPDEST PUSH0 DUP2 MLOAD SWAP1 POP PUSH2 0x6486 DUP2 PUSH2 0x6462 JUMP JUMPDEST SWAP3 SWAP2 POP POP JUMP JUMPDEST PUSH0 PUSH1 0x20 DUP3 DUP5 SUB SLT ISZERO PUSH2 0x64A1 JUMPI PUSH2 0x64A0 PUSH2 0x3CC5 JUMP JUMPDEST JUMPDEST PUSH0 PUSH2 0x64AE DUP5 DUP3 DUP6 ADD PUSH2 0x6478 JUMP JUMPDEST SWAP2 POP POP SWAP3 SWAP2 POP POP JUMP JUMPDEST PUSH32 0x4C7A4170703A207061796C6F61642073697A6520697320746F6F206C61726765 PUSH0 DUP3 ADD MSTORE POP JUMP JUMPDEST PUSH0 PUSH2 0x64EB PUSH1 0x20 DUP4 PUSH2 0x4738 JUMP JUMPDEST SWAP2 POP PUSH2 0x64F6 DUP3 PUSH2 0x64B7 JUMP JUMPDEST PUSH1 0x20 DUP3 ADD SWAP1 POP SWAP2 SWAP1 POP JUMP JUMPDEST PUSH0 PUSH1 0x20 DUP3 ADD SWAP1 POP DUP2 DUP2 SUB PUSH0 DUP4 ADD MSTORE PUSH2 0x6518 DUP2 PUSH2 0x64DF JUMP JUMPDEST SWAP1 POP SWAP2 SWAP1 POP JUMP INVALID LOG2 PUSH5 0x6970667358 0x22 SLT KECCAK256 PUSH18 0x6BFC4370E3A12479A768174E43BD173FD6A CODECOPY 0xD2 AND ADD 0x24 0xD8 DELEGATECALL DUP7 0xF 0xAD SELFBALANCE 0xAA RETURNDATASIZE PUSH5 0x736F6C6343 STOP ADDMOD EQ STOP CALLER "
		},
		"gasEstimates": {
			"creation": {
				"codeDepositCost": "5188200",
				"executionCost": "infinite",
				"totalCost": "infinite"
			},
			"external": {
				"BP_DENOMINATOR()": "414",
				"DEFAULT_PAYLOAD_SIZE_LIMIT()": "480",
				"SHARED_DECIMALS()": "443",
				"accruedFeeLD(address)": "infinite",
				"aptosChainId()": "2556",
				"bridgeFeeBP()": "2493",
				"emergencyWithdrawEnabled()": "2607",
				"emergencyWithdrawTime()": "2536",
				"failedMessages(uint16,bytes,uint64)": "infinite",
				"forceResumeReceive(uint16,bytes)": "infinite",
				"getConfig(uint16,uint16,address,uint256)": "infinite",
				"getTrustedRemoteAddress(uint16)": "infinite",
				"globalPaused()": "2651",
				"isTrustedRemote(uint16,bytes)": "infinite",
				"ld2sdRates(address)": "2870",
				"lzEndpoint()": "infinite",
				"lzReceive(uint16,bytes,uint64,bytes)": "infinite",
				"minDstGasLookup(uint16,uint16)": "infinite",
				"nonblockingLzReceive(uint16,bytes,uint64,bytes)": "infinite",
				"owner()": "2561",
				"pausedTokens(address)": "2943",
				"payloadSizeLimitLookup(uint16)": "2894",
				"precrime()": "2598",
				"quoteForSend((address,address),bytes)": "infinite",
				"registerToken(address)": "infinite",
				"renounceOwnership()": "infinite",
				"retryMessage(uint16,bytes,uint64,bytes)": "infinite",
				"sendETHToAptos(bytes32,uint256,(address,address),bytes)": "infinite",
				"sendToAptos(address,bytes32,uint256,(address,address),bytes)": "infinite",
				"setBridgeFeeBP(uint256)": "infinite",
				"setConfig(uint16,uint16,uint256,bytes)": "infinite",
				"setMinDstGas(uint16,uint16,uint256)": "infinite",
				"setPayloadSizeLimit(uint16,uint256)": "infinite",
				"setPrecrime(address)": "infinite",
				"setReceiveVersion(uint16)": "infinite",
				"setSendVersion(uint16)": "infinite",
				"setTrustedRemote(uint16,bytes)": "infinite",
				"setTrustedRemoteAddress(uint16,bytes)": "infinite",
				"supportedTokens(address)": "2900",
				"transferOwnership(address)": "infinite",
				"trustedRemoteLookup(uint16)": "infinite",
				"tvlSDs(address)": "2877",
				"useCustomAdapterParams()": "2605",
				"weth()": "2664"
			},
			"internal": {
				"_LDtoSD(address,uint256)": "infinite",
				"_SDtoLD(address,uint64)": "infinite",
				"_checkAdapterParams(bytes calldata)": "infinite",
				"_decodeReceivePayload(bytes memory)": "infinite",
				"_encodeSendPayload(address,bytes32,uint64)": "infinite",
				"_lockTokenFrom(address,address,uint256)": "infinite",
				"_nonblockingLzReceive(uint16,bytes memory,uint64,bytes memory)": "infinite",
				"_payFee(uint256)": "infinite",
				"_redeemETHTo(address,address payable,uint256)": "infinite",
				"_removeDust(address,uint256)": "infinite",
				"_sendToken(address,bytes32,uint64,struct LzLib.CallParams calldata,bytes calldata,uint256)": "infinite",
				"_tokenDecimals(address)": "infinite"
			}
		},
		"methodIdentifiers": {
			"BP_DENOMINATOR()": "abe685cd",
			"DEFAULT_PAYLOAD_SIZE_LIMIT()": "c4461834",
			"SHARED_DECIMALS()": "97167964",
			"accruedFeeLD(address)": "a2f27ae0",
			"aptosChainId()": "2db88ecf",
			"bridgeFeeBP()": "25a9f792",
			"emergencyWithdrawEnabled()": "5747e69f",
			"emergencyWithdrawTime()": "de9b9488",
			"failedMessages(uint16,bytes,uint64)": "5b8c41e6",
			"forceResumeReceive(uint16,bytes)": "42d65a8d",
			"getConfig(uint16,uint16,address,uint256)": "f5ecbdbc",
			"getTrustedRemoteAddress(uint16)": "9f38369a",
			"globalPaused()": "61a552dc",
			"isTrustedRemote(uint16,bytes)": "3d8b38f6",
			"ld2sdRates(address)": "92cc13c5",
			"lzEndpoint()": "b353aaa7",
			"lzReceive(uint16,bytes,uint64,bytes)": "001d3567",
			"minDstGasLookup(uint16,uint16)": "8cfd8f5c",
			"nonblockingLzReceive(uint16,bytes,uint64,bytes)": "66ad5c8a",
			"owner()": "8da5cb5b",
			"pausedTokens(address)": "ee7a4596",
			"payloadSizeLimitLookup(uint16)": "3f1f4fa4",
			"precrime()": "950c8a74",
			"quoteForSend((address,address),bytes)": "468b9668",
			"registerToken(address)": "09824a80",
			"renounceOwnership()": "715018a6",
			"retryMessage(uint16,bytes,uint64,bytes)": "d1deba1f",
			"sendETHToAptos(bytes32,uint256,(address,address),bytes)": "ca23bb4c",
			"sendToAptos(address,bytes32,uint256,(address,address),bytes)": "76a9099a",
			"setBridgeFeeBP(uint256)": "000d5900",
			"setConfig(uint16,uint16,uint256,bytes)": "cbed8b9c",
			"setMinDstGas(uint16,uint16,uint256)": "df2a5b3b",
			"setPayloadSizeLimit(uint16,uint256)": "0df37483",
			"setPrecrime(address)": "baf3292d",
			"setReceiveVersion(uint16)": "10ddb137",
			"setSendVersion(uint16)": "07e0db17",
			"setTrustedRemote(uint16,bytes)": "eb8d72b7",
			"setTrustedRemoteAddress(uint16,bytes)": "a6c3d165",
			"supportedTokens(address)": "68c4ac26",
			"transferOwnership(address)": "f2fde38b",
			"trustedRemoteLookup(uint16)": "7533d788",
			"tvlSDs(address)": "e3179c3e",
			"useCustomAdapterParams()": "ed629c5c",
			"weth()": "3fc8cef3"
		}
	},
	"abi": [
		{
			"inputs": [
				{
					"internalType": "address",
					"name": "_layerZeroEndpoint",
					"type": "address"
				},
				{
					"internalType": "uint16",
					"name": "_aptosChainId",
					"type": "uint16"
				}
			],
			"stateMutability": "nonpayable",
			"type": "constructor"
		},
		{
			"inputs": [
				{
					"internalType": "address",
					"name": "target",
					"type": "address"
				}
			],
			"name": "AddressEmptyCode",
			"type": "error"
		},
		{
			"inputs": [
				{
					"internalType": "address",
					"name": "account",
					"type": "address"
				}
			],
			"name": "AddressInsufficientBalance",
			"type": "error"
		},
		{
			"inputs": [],
			"name": "FailedInnerCall",
			"type": "error"
		},
		{
			"inputs": [
				{
					"internalType": "address",
					"name": "owner",
					"type": "address"
				}
			],
			"name": "OwnableInvalidOwner",
			"type": "error"
		},
		{
			"inputs": [
				{
					"internalType": "address",
					"name": "account",
					"type": "address"
				}
			],
			"name": "OwnableUnauthorizedAccount",
			"type": "error"
		},
		{
			"inputs": [
				{
					"internalType": "address",
					"name": "token",
					"type": "address"
				}
			],
			"name": "SafeERC20FailedOperation",
			"type": "error"
		},
		{
			"anonymous": false,
			"inputs": [
				{
					"indexed": false,
					"internalType": "bool",
					"name": "enabled",
					"type": "bool"
				},
				{
					"indexed": false,
					"internalType": "uint256",
					"name": "unlockTime",
					"type": "uint256"
				}
			],
			"name": "EnableEmergencyWithdraw",
			"type": "event"
		},
		{
			"anonymous": false,
			"inputs": [
				{
					"indexed": false,
					"internalType": "uint16",
					"name": "_srcChainId",
					"type": "uint16"
				},
				{
					"indexed": false,
					"internalType": "bytes",
					"name": "_srcAddress",
					"type": "bytes"
				},
				{
					"indexed": false,
					"internalType": "uint64",
					"name": "_nonce",
					"type": "uint64"
				},
				{
					"indexed": false,
					"internalType": "bytes",
					"name": "_payload",
					"type": "bytes"
				},
				{
					"indexed": false,
					"internalType": "bytes",
					"name": "_reason",
					"type": "bytes"
				}
			],
			"name": "MessageFailed",
			"type": "event"
		},
		{
			"anonymous": false,
			"inputs": [
				{
					"indexed": true,
					"internalType": "address",
					"name": "previousOwner",
					"type": "address"
				},
				{
					"indexed": true,
					"internalType": "address",
					"name": "newOwner",
					"type": "address"
				}
			],
			"name": "OwnershipTransferred",
			"type": "event"
		},
		{
			"anonymous": false,
			"inputs": [
				{
					"indexed": true,
					"internalType": "address",
					"name": "token",
					"type": "address"
				},
				{
					"indexed": true,
					"internalType": "address",
					"name": "to",
					"type": "address"
				},
				{
					"indexed": false,
					"internalType": "uint256",
					"name": "amountLD",
					"type": "uint256"
				}
			],
			"name": "Receive",
			"type": "event"
		},
		{
			"anonymous": false,
			"inputs": [
				{
					"indexed": false,
					"internalType": "address",
					"name": "token",
					"type": "address"
				}
			],
			"name": "RegisterToken",
			"type": "event"
		},
		{
			"anonymous": false,
			"inputs": [
				{
					"indexed": false,
					"internalType": "uint16",
					"name": "_srcChainId",
					"type": "uint16"
				},
				{
					"indexed": false,
					"internalType": "bytes",
					"name": "_srcAddress",
					"type": "bytes"
				},
				{
					"indexed": false,
					"internalType": "uint64",
					"name": "_nonce",
					"type": "uint64"
				},
				{
					"indexed": false,
					"internalType": "bytes32",
					"name": "_payloadHash",
					"type": "bytes32"
				}
			],
			"name": "RetryMessageSuccess",
			"type": "event"
		},
		{
			"anonymous": false,
			"inputs": [
				{
					"indexed": true,
					"internalType": "address",
					"name": "token",
					"type": "address"
				},
				{
					"indexed": true,
					"internalType": "address",
					"name": "from",
					"type": "address"
				},
				{
					"indexed": true,
					"internalType": "bytes32",
					"name": "to",
					"type": "bytes32"
				},
				{
					"indexed": false,
					"internalType": "uint256",
					"name": "amountLD",
					"type": "uint256"
				}
			],
			"name": "Send",
			"type": "event"
		},
		{
			"anonymous": false,
			"inputs": [
				{
					"indexed": false,
					"internalType": "uint16",
					"name": "aptosChainId",
					"type": "uint16"
				}
			],
			"name": "SetAptosChainId",
			"type": "event"
		},
		{
			"anonymous": false,
			"inputs": [
				{
					"indexed": false,
					"internalType": "uint256",
					"name": "bridgeFeeBP",
					"type": "uint256"
				}
			],
			"name": "SetBridgeBP",
			"type": "event"
		},
		{
			"anonymous": false,
			"inputs": [
				{
					"indexed": false,
					"internalType": "bool",
					"name": "paused",
					"type": "bool"
				}
			],
			"name": "SetGlobalPause",
			"type": "event"
		},
		{
			"anonymous": false,
			"inputs": [
				{
					"indexed": false,
					"internalType": "uint16",
					"name": "localChainId",
					"type": "uint16"
				}
			],
			"name": "SetLocalChainId",
			"type": "event"
		},
		{
			"anonymous": false,
			"inputs": [
				{
					"indexed": false,
					"internalType": "uint16",
					"name": "_dstChainId",
					"type": "uint16"
				},
				{
					"indexed": false,
					"internalType": "uint16",
					"name": "_type",
					"type": "uint16"
				},
				{
					"indexed": false,
					"internalType": "uint256",
					"name": "_minDstGas",
					"type": "uint256"
				}
			],
			"name": "SetMinDstGas",
			"type": "event"
		},
		{
			"anonymous": false,
			"inputs": [
				{
					"indexed": false,
					"internalType": "address",
					"name": "precrime",
					"type": "address"
				}
			],
			"name": "SetPrecrime",
			"type": "event"
		},
		{
			"anonymous": false,
			"inputs": [
				{
					"indexed": false,
					"internalType": "address",
					"name": "token",
					"type": "address"
				},
				{
					"indexed": false,
					"internalType": "bool",
					"name": "paused",
					"type": "bool"
				}
			],
			"name": "SetTokenPause",
			"type": "event"
		},
		{
			"anonymous": false,
			"inputs": [
				{
					"indexed": false,
					"internalType": "uint16",
					"name": "_remoteChainId",
					"type": "uint16"
				},
				{
					"indexed": false,
					"internalType": "bytes",
					"name": "_path",
					"type": "bytes"
				}
			],
			"name": "SetTrustedRemote",
			"type": "event"
		},
		{
			"anonymous": false,
			"inputs": [
				{
					"indexed": false,
					"internalType": "uint16",
					"name": "_remoteChainId",
					"type": "uint16"
				},
				{
					"indexed": false,
					"internalType": "bytes",
					"name": "_remoteAddress",
					"type": "bytes"
				}
			],
			"name": "SetTrustedRemoteAddress",
			"type": "event"
		},
		{
			"anonymous": false,
			"inputs": [
				{
					"indexed": false,
					"internalType": "bool",
					"name": "useCustomAdapterParams",
					"type": "bool"
				}
			],
			"name": "SetUseCustomAdapterParams",
			"type": "event"
		},
		{
			"anonymous": false,
			"inputs": [
				{
					"indexed": false,
					"internalType": "address",
					"name": "weth",
					"type": "address"
				}
			],
			"name": "SetWETH",
			"type": "event"
		},
		{
			"anonymous": false,
			"inputs": [
				{
					"indexed": true,
					"internalType": "address",
					"name": "token",
					"type": "address"
				},
				{
					"indexed": false,
					"internalType": "address",
					"name": "to",
					"type": "address"
				},
				{
					"indexed": false,
					"internalType": "uint256",
					"name": "amountLD",
					"type": "uint256"
				}
			],
			"name": "WithdrawFee",
			"type": "event"
		},
		{
			"anonymous": false,
			"inputs": [
				{
					"indexed": true,
					"internalType": "address",
					"name": "token",
					"type": "address"
				},
				{
					"indexed": false,
					"internalType": "address",
					"name": "to",
					"type": "address"
				},
				{
					"indexed": false,
					"internalType": "uint256",
					"name": "amountLD",
					"type": "uint256"
				}
			],
			"name": "WithdrawTVL",
			"type": "event"
		},
		{
			"inputs": [],
			"name": "BP_DENOMINATOR",
			"outputs": [
				{
					"internalType": "uint256",
					"name": "",
					"type": "uint256"
				}
			],
			"stateMutability": "view",
			"type": "function"
		},
		{
			"inputs": [],
			"name": "DEFAULT_PAYLOAD_SIZE_LIMIT",
			"outputs": [
				{
					"internalType": "uint256",
					"name": "",
					"type": "uint256"
				}
			],
			"stateMutability": "view",
			"type": "function"
		},
		{
			"inputs": [],
			"name": "SHARED_DECIMALS",
			"outputs": [
				{
					"internalType": "uint8",
					"name": "",
					"type": "uint8"
				}
			],
			"stateMutability": "view",
			"type": "function"
		},
		{
			"inputs": [
				{
					"internalType": "address",
					"name": "_token",
					"type": "address"
				}
			],
			"name": "accruedFeeLD",
			"outputs": [
				{
					"internalType": "uint256",
					"name": "",
					"type": "uint256"
				}
			],
			"stateMutability": "view",
			"type": "function"
		},
		{
			"inputs": [],
			"name": "aptosChainId",
			"outputs": [
				{
					"internalType": "uint16",
					"name": "",
					"type": "uint16"
				}
			],
			"stateMutability": "view",
			"type": "function"
		},
		{
			"inputs": [],
			"name": "bridgeFeeBP",
			"outputs": [
				{
					"internalType": "uint256",
					"name": "",
					"type": "uint256"
				}
			],
			"stateMutability": "view",
			"type": "function"
		},
		{
			"inputs": [],
			"name": "emergencyWithdrawEnabled",
			"outputs": [
				{
					"internalType": "bool",
					"name": "",
					"type": "bool"
				}
			],
			"stateMutability": "view",
			"type": "function"
		},
		{
			"inputs": [],
			"name": "emergencyWithdrawTime",
			"outputs": [
				{
					"internalType": "uint256",
					"name": "",
					"type": "uint256"
				}
			],
			"stateMutability": "view",
			"type": "function"
		},
		{
			"inputs": [
				{
					"internalType": "uint16",
					"name": "",
					"type": "uint16"
				},
				{
					"internalType": "bytes",
					"name": "",
					"type": "bytes"
				},
				{
					"internalType": "uint64",
					"name": "",
					"type": "uint64"
				}
			],
			"name": "failedMessages",
			"outputs": [
				{
					"internalType": "bytes32",
					"name": "",
					"type": "bytes32"
				}
			],
			"stateMutability": "view",
			"type": "function"
		},
		{
			"inputs": [
				{
					"internalType": "uint16",
					"name": "_srcChainId",
					"type": "uint16"
				},
				{
					"internalType": "bytes",
					"name": "_srcAddress",
					"type": "bytes"
				}
			],
			"name": "forceResumeReceive",
			"outputs": [],
			"stateMutability": "nonpayable",
			"type": "function"
		},
		{
			"inputs": [
				{
					"internalType": "uint16",
					"name": "_version",
					"type": "uint16"
				},
				{
					"internalType": "uint16",
					"name": "_chainId",
					"type": "uint16"
				},
				{
					"internalType": "address",
					"name": "",
					"type": "address"
				},
				{
					"internalType": "uint256",
					"name": "_configType",
					"type": "uint256"
				}
			],
			"name": "getConfig",
			"outputs": [
				{
					"internalType": "bytes",
					"name": "",
					"type": "bytes"
				}
			],
			"stateMutability": "view",
			"type": "function"
		},
		{
			"inputs": [
				{
					"internalType": "uint16",
					"name": "_remoteChainId",
					"type": "uint16"
				}
			],
			"name": "getTrustedRemoteAddress",
			"outputs": [
				{
					"internalType": "bytes",
					"name": "",
					"type": "bytes"
				}
			],
			"stateMutability": "view",
			"type": "function"
		},
		{
			"inputs": [],
			"name": "globalPaused",
			"outputs": [
				{
					"internalType": "bool",
					"name": "",
					"type": "bool"
				}
			],
			"stateMutability": "view",
			"type": "function"
		},
		{
			"inputs": [
				{
					"internalType": "uint16",
					"name": "_srcChainId",
					"type": "uint16"
				},
				{
					"internalType": "bytes",
					"name": "_srcAddress",
					"type": "bytes"
				}
			],
			"name": "isTrustedRemote",
			"outputs": [
				{
					"internalType": "bool",
					"name": "",
					"type": "bool"
				}
			],
			"stateMutability": "view",
			"type": "function"
		},
		{
			"inputs": [
				{
					"internalType": "address",
					"name": "",
					"type": "address"
				}
			],
			"name": "ld2sdRates",
			"outputs": [
				{
					"internalType": "uint256",
					"name": "",
					"type": "uint256"
				}
			],
			"stateMutability": "view",
			"type": "function"
		},
		{
			"inputs": [],
			"name": "lzEndpoint",
			"outputs": [
				{
					"internalType": "contract ILayerZeroEndpoint",
					"name": "",
					"type": "address"
				}
			],
			"stateMutability": "view",
			"type": "function"
		},
		{
			"inputs": [
				{
					"internalType": "uint16",
					"name": "_srcChainId",
					"type": "uint16"
				},
				{
					"internalType": "bytes",
					"name": "_srcAddress",
					"type": "bytes"
				},
				{
					"internalType": "uint64",
					"name": "_nonce",
					"type": "uint64"
				},
				{
					"internalType": "bytes",
					"name": "_payload",
					"type": "bytes"
				}
			],
			"name": "lzReceive",
			"outputs": [],
			"stateMutability": "nonpayable",
			"type": "function"
		},
		{
			"inputs": [
				{
					"internalType": "uint16",
					"name": "",
					"type": "uint16"
				},
				{
					"internalType": "uint16",
					"name": "",
					"type": "uint16"
				}
			],
			"name": "minDstGasLookup",
			"outputs": [
				{
					"internalType": "uint256",
					"name": "",
					"type": "uint256"
				}
			],
			"stateMutability": "view",
			"type": "function"
		},
		{
			"inputs": [
				{
					"internalType": "uint16",
					"name": "_srcChainId",
					"type": "uint16"
				},
				{
					"internalType": "bytes",
					"name": "_srcAddress",
					"type": "bytes"
				},
				{
					"internalType": "uint64",
					"name": "_nonce",
					"type": "uint64"
				},
				{
					"internalType": "bytes",
					"name": "_payload",
					"type": "bytes"
				}
			],
			"name": "nonblockingLzReceive",
			"outputs": [],
			"stateMutability": "nonpayable",
			"type": "function"
		},
		{
			"inputs": [],
			"name": "owner",
			"outputs": [
				{
					"internalType": "address",
					"name": "",
					"type": "address"
				}
			],
			"stateMutability": "view",
			"type": "function"
		},
		{
			"inputs": [
				{
					"internalType": "address",
					"name": "",
					"type": "address"
				}
			],
			"name": "pausedTokens",
			"outputs": [
				{
					"internalType": "bool",
					"name": "",
					"type": "bool"
				}
			],
			"stateMutability": "view",
			"type": "function"
		},
		{
			"inputs": [
				{
					"internalType": "uint16",
					"name": "",
					"type": "uint16"
				}
			],
			"name": "payloadSizeLimitLookup",
			"outputs": [
				{
					"internalType": "uint256",
					"name": "",
					"type": "uint256"
				}
			],
			"stateMutability": "view",
			"type": "function"
		},
		{
			"inputs": [],
			"name": "precrime",
			"outputs": [
				{
					"internalType": "address",
					"name": "",
					"type": "address"
				}
			],
			"stateMutability": "view",
			"type": "function"
		},
		{
			"inputs": [
				{
					"components": [
						{
							"internalType": "address payable",
							"name": "refundAddress",
							"type": "address"
						},
						{
							"internalType": "address",
							"name": "zroPaymentAddress",
							"type": "address"
						}
					],
					"internalType": "struct LzLib.CallParams",
					"name": "_callParams",
					"type": "tuple"
				},
				{
					"internalType": "bytes",
					"name": "_adapterParams",
					"type": "bytes"
				}
			],
			"name": "quoteForSend",
			"outputs": [
				{
					"internalType": "uint256",
					"name": "nativeFee",
					"type": "uint256"
				},
				{
					"internalType": "uint256",
					"name": "zroFee",
					"type": "uint256"
				}
			],
			"stateMutability": "view",
			"type": "function"
		},
		{
			"inputs": [
				{
					"internalType": "address",
					"name": "_token",
					"type": "address"
				}
			],
			"name": "registerToken",
			"outputs": [],
			"stateMutability": "nonpayable",
			"type": "function"
		},
		{
			"inputs": [],
			"name": "renounceOwnership",
			"outputs": [],
			"stateMutability": "nonpayable",
			"type": "function"
		},
		{
			"inputs": [
				{
					"internalType": "uint16",
					"name": "_srcChainId",
					"type": "uint16"
				},
				{
					"internalType": "bytes",
					"name": "_srcAddress",
					"type": "bytes"
				},
				{
					"internalType": "uint64",
					"name": "_nonce",
					"type": "uint64"
				},
				{
					"internalType": "bytes",
					"name": "_payload",
					"type": "bytes"
				}
			],
			"name": "retryMessage",
			"outputs": [],
			"stateMutability": "payable",
			"type": "function"
		},
		{
			"inputs": [
				{
					"internalType": "bytes32",
					"name": "_toAddress",
					"type": "bytes32"
				},
				{
					"internalType": "uint256",
					"name": "_amountLD",
					"type": "uint256"
				},
				{
					"components": [
						{
							"internalType": "address payable",
							"name": "refundAddress",
							"type": "address"
						},
						{
							"internalType": "address",
							"name": "zroPaymentAddress",
							"type": "address"
						}
					],
					"internalType": "struct LzLib.CallParams",
					"name": "_callParams",
					"type": "tuple"
				},
				{
					"internalType": "bytes",
					"name": "_adapterParams",
					"type": "bytes"
				}
			],
			"name": "sendETHToAptos",
			"outputs": [],
			"stateMutability": "payable",
			"type": "function"
		},
		{
			"inputs": [
				{
					"internalType": "address",
					"name": "_token",
					"type": "address"
				},
				{
					"internalType": "bytes32",
					"name": "_toAddress",
					"type": "bytes32"
				},
				{
					"internalType": "uint256",
					"name": "_amountLD",
					"type": "uint256"
				},
				{
					"components": [
						{
							"internalType": "address payable",
							"name": "refundAddress",
							"type": "address"
						},
						{
							"internalType": "address",
							"name": "zroPaymentAddress",
							"type": "address"
						}
					],
					"internalType": "struct LzLib.CallParams",
					"name": "_callParams",
					"type": "tuple"
				},
				{
					"internalType": "bytes",
					"name": "_adapterParams",
					"type": "bytes"
				}
			],
			"name": "sendToAptos",
			"outputs": [],
			"stateMutability": "payable",
			"type": "function"
		},
		{
			"inputs": [
				{
					"internalType": "uint256",
					"name": "_bridgeFeeBP",
					"type": "uint256"
				}
			],
			"name": "setBridgeFeeBP",
			"outputs": [],
			"stateMutability": "nonpayable",
			"type": "function"
		},
		{
			"inputs": [
				{
					"internalType": "uint16",
					"name": "_version",
					"type": "uint16"
				},
				{
					"internalType": "uint16",
					"name": "_chainId",
					"type": "uint16"
				},
				{
					"internalType": "uint256",
					"name": "_configType",
					"type": "uint256"
				},
				{
					"internalType": "bytes",
					"name": "_config",
					"type": "bytes"
				}
			],
			"name": "setConfig",
			"outputs": [],
			"stateMutability": "nonpayable",
			"type": "function"
		},
		{
			"inputs": [
				{
					"internalType": "uint16",
					"name": "_dstChainId",
					"type": "uint16"
				},
				{
					"internalType": "uint16",
					"name": "_packetType",
					"type": "uint16"
				},
				{
					"internalType": "uint256",
					"name": "_minGas",
					"type": "uint256"
				}
			],
			"name": "setMinDstGas",
			"outputs": [],
			"stateMutability": "nonpayable",
			"type": "function"
		},
		{
			"inputs": [
				{
					"internalType": "uint16",
					"name": "_dstChainId",
					"type": "uint16"
				},
				{
					"internalType": "uint256",
					"name": "_size",
					"type": "uint256"
				}
			],
			"name": "setPayloadSizeLimit",
			"outputs": [],
			"stateMutability": "nonpayable",
			"type": "function"
		},
		{
			"inputs": [
				{
					"internalType": "address",
					"name": "_precrime",
					"type": "address"
				}
			],
			"name": "setPrecrime",
			"outputs": [],
			"stateMutability": "nonpayable",
			"type": "function"
		},
		{
			"inputs": [
				{
					"internalType": "uint16",
					"name": "_version",
					"type": "uint16"
				}
			],
			"name": "setReceiveVersion",
			"outputs": [],
			"stateMutability": "nonpayable",
			"type": "function"
		},
		{
			"inputs": [
				{
					"internalType": "uint16",
					"name": "_version",
					"type": "uint16"
				}
			],
			"name": "setSendVersion",
			"outputs": [],
			"stateMutability": "nonpayable",
			"type": "function"
		},
		{
			"inputs": [
				{
					"internalType": "uint16",
					"name": "_remoteChainId",
					"type": "uint16"
				},
				{
					"internalType": "bytes",
					"name": "_path",
					"type": "bytes"
				}
			],
			"name": "setTrustedRemote",
			"outputs": [],
			"stateMutability": "nonpayable",
			"type": "function"
		},
		{
			"inputs": [
				{
					"internalType": "uint16",
					"name": "_remoteChainId",
					"type": "uint16"
				},
				{
					"internalType": "bytes",
					"name": "_remoteAddress",
					"type": "bytes"
				}
			],
			"name": "setTrustedRemoteAddress",
			"outputs": [],
			"stateMutability": "nonpayable",
			"type": "function"
		},
		{
			"inputs": [
				{
					"internalType": "address",
					"name": "",
					"type": "address"
				}
			],
			"name": "supportedTokens",
			"outputs": [
				{
					"internalType": "bool",
					"name": "",
					"type": "bool"
				}
			],
			"stateMutability": "view",
			"type": "function"
		},
		{
			"inputs": [
				{
					"internalType": "address",
					"name": "newOwner",
					"type": "address"
				}
			],
			"name": "transferOwnership",
			"outputs": [],
			"stateMutability": "nonpayable",
			"type": "function"
		},
		{
			"inputs": [
				{
					"internalType": "uint16",
					"name": "",
					"type": "uint16"
				}
			],
			"name": "trustedRemoteLookup",
			"outputs": [
				{
					"internalType": "bytes",
					"name": "",
					"type": "bytes"
				}
			],
			"stateMutability": "view",
			"type": "function"
		},
		{
			"inputs": [
				{
					"internalType": "address",
					"name": "",
					"type": "address"
				}
			],
			"name": "tvlSDs",
			"outputs": [
				{
					"internalType": "uint64",
					"name": "",
					"type": "uint64"
				}
			],
			"stateMutability": "view",
			"type": "function"
		},
		{
			"inputs": [],
			"name": "useCustomAdapterParams",
			"outputs": [
				{
					"internalType": "bool",
					"name": "",
					"type": "bool"
				}
			],
			"stateMutability": "view",
			"type": "function"
		},
		{
			"inputs": [],
			"name": "weth",
			"outputs": [
				{
					"internalType": "address",
					"name": "",
					"type": "address"
				}
			],
			"stateMutability": "view",
			"type": "function"
		}
	]
}