{
  "_format": "hh-sol-artifact-1",
  "contractName": "LayerZeroTest",
  "sourceName": "contracts/LayerZeroTest.sol",
  "abi": [
    {
      "inputs": [
        {
          "internalType": "address",
          "name": "_lzEndpoint",
          "type": "address"
        }
      ],
      "stateMutability": "nonpayable",
      "type": "constructor"
    },
    {
      "anonymous": false,
      "inputs": [
        {
          "indexed": false,
          "internalType": "uint16",
          "name": "_srcChainId",
          "type": "uint16"
        },
        {
          "indexed": false,
          "internalType": "bytes",
          "name": "_srcAddress",
          "type": "bytes"
        },
        {
          "indexed": false,
          "internalType": "uint64",
          "name": "_nonce",
          "type": "uint64"
        },
        {
          "indexed": false,
          "internalType": "bytes",
          "name": "_payload",
          "type": "bytes"
        },
        {
          "indexed": false,
          "internalType": "bytes",
          "name": "_reason",
          "type": "bytes"
        }
      ],
      "name": "MessageFailed",
      "type": "event"
    },
    {
      "anonymous": false,
      "inputs": [
        {
          "indexed": true,
          "internalType": "address",
          "name": "previousOwner",
          "type": "address"
        },
        {
          "indexed": true,
          "internalType": "address",
          "name": "newOwner",
          "type": "address"
        }
      ],
      "name": "OwnershipTransferred",
      "type": "event"
    },
    {
      "anonymous": false,
      "inputs": [
        {
          "indexed": false,
          "internalType": "uint16",
          "name": "_srcChainId",
          "type": "uint16"
        },
        {
          "indexed": false,
          "internalType": "bytes",
          "name": "_srcAddress",
          "type": "bytes"
        },
        {
          "indexed": false,
          "internalType": "uint64",
          "name": "_nonce",
          "type": "uint64"
        },
        {
          "indexed": false,
          "internalType": "bytes32",
          "name": "_payloadHash",
          "type": "bytes32"
        }
      ],
      "name": "RetryMessageSuccess",
      "type": "event"
    },
    {
      "anonymous": false,
      "inputs": [
        {
          "indexed": false,
          "internalType": "uint16",
          "name": "_dstChainId",
          "type": "uint16"
        },
        {
          "indexed": false,
          "internalType": "uint16",
          "name": "_type",
          "type": "uint16"
        },
        {
          "indexed": false,
          "internalType": "uint256",
          "name": "_minDstGas",
          "type": "uint256"
        }
      ],
      "name": "SetMinDstGas",
      "type": "event"
    },
    {
      "anonymous": false,
      "inputs": [
        {
          "indexed": false,
          "internalType": "address",
          "name": "precrime",
          "type": "address"
        }
      ],
      "name": "SetPrecrime",
      "type": "event"
    },
    {
      "anonymous": false,
      "inputs": [
        {
          "indexed": false,
          "internalType": "uint16",
          "name": "_remoteChainId",
          "type": "uint16"
        },
        {
          "indexed": false,
          "internalType": "bytes",
          "name": "_path",
          "type": "bytes"
        }
      ],
      "name": "SetTrustedRemote",
      "type": "event"
    },
    {
      "anonymous": false,
      "inputs": [
        {
          "indexed": false,
          "internalType": "uint16",
          "name": "_remoteChainId",
          "type": "uint16"
        },
        {
          "indexed": false,
          "internalType": "bytes",
          "name": "_remoteAddress",
          "type": "bytes"
        }
      ],
      "name": "SetTrustedRemoteAddress",
      "type": "event"
    },
    {
      "inputs": [],
      "name": "DEFAULT_PAYLOAD_SIZE_LIMIT",
      "outputs": [
        {
          "internalType": "uint256",
          "name": "",
          "type": "uint256"
        }
      ],
      "stateMutability": "view",
      "type": "function"
    },
    {
      "inputs": [],
      "name": "data",
      "outputs": [
        {
          "internalType": "string",
          "name": "",
          "type": "string"
        }
      ],
      "stateMutability": "view",
      "type": "function"
    },
    {
      "inputs": [
        {
          "internalType": "uint16",
          "name": "",
          "type": "uint16"
        },
        {
          "internalType": "bytes",
          "name": "",
          "type": "bytes"
        },
        {
          "internalType": "uint64",
          "name": "",
          "type": "uint64"
        }
      ],
      "name": "failedMessages",
      "outputs": [
        {
          "internalType": "bytes32",
          "name": "",
          "type": "bytes32"
        }
      ],
      "stateMutability": "view",
      "type": "function"
    },
    {
      "inputs": [
        {
          "internalType": "uint16",
          "name": "_srcChainId",
          "type": "uint16"
        },
        {
          "internalType": "bytes",
          "name": "_srcAddress",
          "type": "bytes"
        }
      ],
      "name": "forceResumeReceive",
      "outputs": [],
      "stateMutability": "nonpayable",
      "type": "function"
    },
    {
      "inputs": [
        {
          "internalType": "uint16",
          "name": "_version",
          "type": "uint16"
        },
        {
          "internalType": "uint16",
          "name": "_chainId",
          "type": "uint16"
        },
        {
          "internalType": "address",
          "name": "",
          "type": "address"
        },
        {
          "internalType": "uint256",
          "name": "_configType",
          "type": "uint256"
        }
      ],
      "name": "getConfig",
      "outputs": [
        {
          "internalType": "bytes",
          "name": "",
          "type": "bytes"
        }
      ],
      "stateMutability": "view",
      "type": "function"
    },
    {
      "inputs": [
        {
          "internalType": "uint16",
          "name": "_remoteChainId",
          "type": "uint16"
        }
      ],
      "name": "getTrustedRemoteAddress",
      "outputs": [
        {
          "internalType": "bytes",
          "name": "",
          "type": "bytes"
        }
      ],
      "stateMutability": "view",
      "type": "function"
    },
    {
      "inputs": [
        {
          "internalType": "uint16",
          "name": "_srcChainId",
          "type": "uint16"
        },
        {
          "internalType": "bytes",
          "name": "_srcAddress",
          "type": "bytes"
        }
      ],
      "name": "isTrustedRemote",
      "outputs": [
        {
          "internalType": "bool",
          "name": "",
          "type": "bool"
        }
      ],
      "stateMutability": "view",
      "type": "function"
    },
    {
      "inputs": [],
      "name": "lzEndpoint",
      "outputs": [
        {
          "internalType": "contract ILayerZeroEndpoint",
          "name": "",
          "type": "address"
        }
      ],
      "stateMutability": "view",
      "type": "function"
    },
    {
      "inputs": [
        {
          "internalType": "uint16",
          "name": "_srcChainId",
          "type": "uint16"
        },
        {
          "internalType": "bytes",
          "name": "_srcAddress",
          "type": "bytes"
        },
        {
          "internalType": "uint64",
          "name": "_nonce",
          "type": "uint64"
        },
        {
          "internalType": "bytes",
          "name": "_payload",
          "type": "bytes"
        }
      ],
      "name": "lzReceive",
      "outputs": [],
      "stateMutability": "nonpayable",
      "type": "function"
    },
    {
      "inputs": [
        {
          "internalType": "uint16",
          "name": "",
          "type": "uint16"
        },
        {
          "internalType": "uint16",
          "name": "",
          "type": "uint16"
        }
      ],
      "name": "minDstGasLookup",
      "outputs": [
        {
          "internalType": "uint256",
          "name": "",
          "type": "uint256"
        }
      ],
      "stateMutability": "view",
      "type": "function"
    },
    {
      "inputs": [
        {
          "internalType": "uint16",
          "name": "_srcChainId",
          "type": "uint16"
        },
        {
          "internalType": "bytes",
          "name": "_srcAddress",
          "type": "bytes"
        },
        {
          "internalType": "uint64",
          "name": "_nonce",
          "type": "uint64"
        },
        {
          "internalType": "bytes",
          "name": "_payload",
          "type": "bytes"
        }
      ],
      "name": "nonblockingLzReceive",
      "outputs": [],
      "stateMutability": "nonpayable",
      "type": "function"
    },
    {
      "inputs": [],
      "name": "owner",
      "outputs": [
        {
          "internalType": "address",
          "name": "",
          "type": "address"
        }
      ],
      "stateMutability": "view",
      "type": "function"
    },
    {
      "inputs": [
        {
          "internalType": "uint16",
          "name": "",
          "type": "uint16"
        }
      ],
      "name": "payloadSizeLimitLookup",
      "outputs": [
        {
          "internalType": "uint256",
          "name": "",
          "type": "uint256"
        }
      ],
      "stateMutability": "view",
      "type": "function"
    },
    {
      "inputs": [],
      "name": "precrime",
      "outputs": [
        {
          "internalType": "address",
          "name": "",
          "type": "address"
        }
      ],
      "stateMutability": "view",
      "type": "function"
    },
    {
      "inputs": [],
      "name": "renounceOwnership",
      "outputs": [],
      "stateMutability": "nonpayable",
      "type": "function"
    },
    {
      "inputs": [
        {
          "internalType": "uint16",
          "name": "_srcChainId",
          "type": "uint16"
        },
        {
          "internalType": "bytes",
          "name": "_srcAddress",
          "type": "bytes"
        },
        {
          "internalType": "uint64",
          "name": "_nonce",
          "type": "uint64"
        },
        {
          "internalType": "bytes",
          "name": "_payload",
          "type": "bytes"
        }
      ],
      "name": "retryMessage",
      "outputs": [],
      "stateMutability": "payable",
      "type": "function"
    },
    {
      "inputs": [
        {
          "internalType": "string",
          "name": "_message",
          "type": "string"
        }
      ],
      "name": "send",
      "outputs": [],
      "stateMutability": "payable",
      "type": "function"
    },
    {
      "inputs": [
        {
          "internalType": "uint16",
          "name": "_version",
          "type": "uint16"
        },
        {
          "internalType": "uint16",
          "name": "_chainId",
          "type": "uint16"
        },
        {
          "internalType": "uint256",
          "name": "_configType",
          "type": "uint256"
        },
        {
          "internalType": "bytes",
          "name": "_config",
          "type": "bytes"
        }
      ],
      "name": "setConfig",
      "outputs": [],
      "stateMutability": "nonpayable",
      "type": "function"
    },
    {
      "inputs": [
        {
          "internalType": "uint16",
          "name": "_dstChainId",
          "type": "uint16"
        },
        {
          "internalType": "uint16",
          "name": "_packetType",
          "type": "uint16"
        },
        {
          "internalType": "uint256",
          "name": "_minGas",
          "type": "uint256"
        }
      ],
      "name": "setMinDstGas",
      "outputs": [],
      "stateMutability": "nonpayable",
      "type": "function"
    },
    {
      "inputs": [
        {
          "internalType": "uint16",
          "name": "_dstChainId",
          "type": "uint16"
        },
        {
          "internalType": "uint256",
          "name": "_size",
          "type": "uint256"
        }
      ],
      "name": "setPayloadSizeLimit",
      "outputs": [],
      "stateMutability": "nonpayable",
      "type": "function"
    },
    {
      "inputs": [
        {
          "internalType": "address",
          "name": "_precrime",
          "type": "address"
        }
      ],
      "name": "setPrecrime",
      "outputs": [],
      "stateMutability": "nonpayable",
      "type": "function"
    },
    {
      "inputs": [
        {
          "internalType": "uint16",
          "name": "_version",
          "type": "uint16"
        }
      ],
      "name": "setReceiveVersion",
      "outputs": [],
      "stateMutability": "nonpayable",
      "type": "function"
    },
    {
      "inputs": [
        {
          "internalType": "uint16",
          "name": "_version",
          "type": "uint16"
        }
      ],
      "name": "setSendVersion",
      "outputs": [],
      "stateMutability": "nonpayable",
      "type": "function"
    },
    {
      "inputs": [
        {
          "internalType": "uint16",
          "name": "_remoteChainId",
          "type": "uint16"
        },
        {
          "internalType": "bytes",
          "name": "_path",
          "type": "bytes"
        }
      ],
      "name": "setTrustedRemote",
      "outputs": [],
      "stateMutability": "nonpayable",
      "type": "function"
    },
    {
      "inputs": [
        {
          "internalType": "uint16",
          "name": "_remoteChainId",
          "type": "uint16"
        },
        {
          "internalType": "bytes",
          "name": "_remoteAddress",
          "type": "bytes"
        }
      ],
      "name": "setTrustedRemoteAddress",
      "outputs": [],
      "stateMutability": "nonpayable",
      "type": "function"
    },
    {
      "inputs": [
        {
          "internalType": "address",
          "name": "newOwner",
          "type": "address"
        }
      ],
      "name": "transferOwnership",
      "outputs": [],
      "stateMutability": "nonpayable",
      "type": "function"
    },
    {
      "inputs": [
        {
          "internalType": "address",
          "name": "_otherContract",
          "type": "address"
        }
      ],
      "name": "trustAddress",
      "outputs": [],
      "stateMutability": "nonpayable",
      "type": "function"
    },
    {
      "inputs": [
        {
          "internalType": "uint16",
          "name": "",
          "type": "uint16"
        }
      ],
      "name": "trustedRemoteLookup",
      "outputs": [
        {
          "internalType": "bytes",
          "name": "",
          "type": "bytes"
        }
      ],
      "stateMutability": "view",
      "type": "function"
    }
  ],
  "bytecode": "0x60e0604052601460a09081527f4e6f7468696e672072656365697665642079657400000000000000000000000060c0526006906200003e9082620001ea565b503480156200004c57600080fd5b5060405162002536380380620025368339810160408190526200006f91620002b6565b80806200007c33620000f5565b6001600160a01b039081166080528216736fcb97553d41516cb228ac03fdc8b9a0a9df04a1039050620000b9576007805461ffff19166127801790555b6001600160a01b038116737dcad72640f835b0fa36efd3d6d3ec902c7e5acf03620000ee576007805461ffff19166127761790555b50620002e8565b600080546001600160a01b038381166001600160a01b0319831681178455604051919092169283917f8be0079c531659141344cd1fd0a4f28419497f9722a3daafe3b4186f6b6457e09190a35050565b634e487b7160e01b600052604160045260246000fd5b600181811c908216806200017057607f821691505b6020821081036200019157634e487b7160e01b600052602260045260246000fd5b50919050565b601f821115620001e557600081815260208120601f850160051c81016020861015620001c05750805b601f850160051c820191505b81811015620001e157828155600101620001cc565b5050505b505050565b81516001600160401b0381111562000206576200020662000145565b6200021e816200021784546200015b565b8462000197565b602080601f8311600181146200025657600084156200023d5750858301515b600019600386901b1c1916600185901b178555620001e1565b600085815260208120601f198616915b82811015620002875788860151825594840194600190910190840162000266565b5085821015620002a65787850151600019600388901b60f8161c191681555b5050505050600190811b01905550565b600060208284031215620002c957600080fd5b81516001600160a01b0381168114620002e157600080fd5b9392505050565b6080516122016200033560003960008181610422015281816105300152818161077f015281816108270152818161094a01528181610e100152818161120a015261148b01526122016000f3fe6080604052600436106101465760003560e01c80621d35671461014b57806307e0db171461016d5780630df374831461018d57806310ddb137146101ad5780633d8b38f6146101cd5780633f1f4fa41461020257806342d65a8d1461023d5780635b8c41e61461025d5780635cdf1649146102ac57806366792ba1146102cc57806366ad5c8a146102df578063715018a6146102ff57806373d4a13a146103145780637533d788146103365780638cfd8f5c146103565780638da5cb5b1461038e578063950c8a74146103b05780639f38369a146103d0578063a6c3d165146103f0578063b353aaa714610410578063baf3292d14610444578063c446183414610464578063cbed8b9c1461047a578063d1deba1f1461049a578063df2a5b3b146104ad578063eb8d72b7146104cd578063f2fde38b146104ed578063f5ecbdbc1461050d575b600080fd5b34801561015757600080fd5b5061016b610166366004611898565b61052d565b005b34801561017957600080fd5b5061016b61018836600461192b565b61075e565b34801561019957600080fd5b5061016b6101a8366004611946565b6107e7565b3480156101b957600080fd5b5061016b6101c836600461192b565b610806565b3480156101d957600080fd5b506101ed6101e8366004611970565b61085e565b60405190151581526020015b60405180910390f35b34801561020e57600080fd5b5061022f61021d36600461192b565b60036020526000908152604090205481565b6040519081526020016101f9565b34801561024957600080fd5b5061016b610258366004611970565b61092b565b34801561026957600080fd5b5061022f610278366004611a6d565b6005602090815260009384526040808520845180860184018051928152908401958401959095209452929052825290205481565b3480156102b857600080fd5b5061016b6102c7366004611af5565b6109b1565b61016b6102da366004611b10565b610a0e565b3480156102eb57600080fd5b5061016b6102fa366004611898565b610a55565b34801561030b57600080fd5b5061016b610b31565b34801561032057600080fd5b50610329610b45565b6040516101f99190611bb0565b34801561034257600080fd5b5061032961035136600461192b565b610bd3565b34801561036257600080fd5b5061022f610371366004611bc3565b600260209081526000928352604080842090915290825290205481565b34801561039a57600080fd5b506103a3610bec565b6040516101f99190611bf6565b3480156103bc57600080fd5b506004546103a3906001600160a01b031681565b3480156103dc57600080fd5b506103296103eb36600461192b565b610bfb565b3480156103fc57600080fd5b5061016b61040b366004611970565b610d0a565b34801561041c57600080fd5b506103a37f000000000000000000000000000000000000000000000000000000000000000081565b34801561045057600080fd5b5061016b61045f366004611af5565b610d93565b34801561047057600080fd5b5061022f61271081565b34801561048657600080fd5b5061016b610495366004611c0a565b610df1565b61016b6104a8366004611898565b610e86565b3480156104b957600080fd5b5061016b6104c8366004611c78565b61109c565b3480156104d957600080fd5b5061016b6104e8366004611970565b611106565b3480156104f957600080fd5b5061016b610508366004611af5565b611160565b34801561051957600080fd5b50610329610528366004611cb4565b6111d9565b337f00000000000000000000000000000000000000000000000000000000000000006001600160a01b0316146105aa5760405162461bcd60e51b815260206004820152601e60248201527f4c7a4170703a20696e76616c696420656e64706f696e742063616c6c6572000060448201526064015b60405180910390fd5b61ffff8616600090815260016020526040812080546105c890611cff565b80601f01602080910402602001604051908101604052809291908181526020018280546105f490611cff565b80156106415780601f1061061657610100808354040283529160200191610641565b820191906000526020600020905b81548152906001019060200180831161062457829003601f168201915b5050505050905080518686905014801561065c575060008151115b801561068457508051602082012060405161067a9088908890611d39565b6040518091039020145b6106df5760405162461bcd60e51b815260206004820152602660248201527f4c7a4170703a20696e76616c696420736f757263652073656e64696e6720636f6044820152651b9d1c9858dd60d21b60648201526084016105a1565b6107558787878080601f01602080910402602001604051908101604052809392919081815260200183838082843760009201919091525050604080516020601f8a018190048102820181019092528881528a93509150889088908190840183828082843760009201919091525061128a92505050565b50505050505050565b610766611303565b6040516307e0db1760e01b815261ffff821660048201527f00000000000000000000000000000000000000000000000000000000000000006001600160a01b0316906307e0db17906024015b600060405180830381600087803b1580156107cc57600080fd5b505af11580156107e0573d6000803e3d6000fd5b5050505050565b6107ef611303565b61ffff909116600090815260036020526040902055565b61080e611303565b6040516310ddb13760e01b815261ffff821660048201527f00000000000000000000000000000000000000000000000000000000000000006001600160a01b0316906310ddb137906024016107b2565b61ffff83166000908152600160205260408120805482919061087f90611cff565b80601f01602080910402602001604051908101604052809291908181526020018280546108ab90611cff565b80156108f85780601f106108cd576101008083540402835291602001916108f8565b820191906000526020600020905b8154815290600101906020018083116108db57829003601f168201915b50505050509050838360405161090f929190611d39565b60405180910390208180519060200120149150505b9392505050565b610933611303565b6040516342d65a8d60e01b81526001600160a01b037f000000000000000000000000000000000000000000000000000000000000000016906342d65a8d9061098390869086908690600401611d72565b600060405180830381600087803b15801561099d57600080fd5b505af1158015610755573d6000803e3d6000fd5b6109b9611303565b6040516001600160601b0319606083811b8216602084015230901b16603482015260480160408051601f1981840301815291815260075461ffff16600090815260016020522090610a0a9082611deb565b5050565b600081604051602001610a219190611bb0565b60408051601f19818403018152600754602084019092526000808452909350610a0a9261ffff909216918491339134611362565b333014610ab35760405162461bcd60e51b815260206004820152602660248201527f4e6f6e626c6f636b696e674c7a4170703a2063616c6c6572206d7573742062656044820152650204c7a4170760d41b60648201526084016105a1565b610b298686868080601f01602080910402602001604051908101604052809392919081815260200183838082843760009201919091525050604080516020601f89018190048102820181019092528781528993509150879087908190840183828082843760009201919091525061150792505050565b505050505050565b610b39611303565b610b436000611528565b565b60068054610b5290611cff565b80601f0160208091040260200160405190810160405280929190818152602001828054610b7e90611cff565b8015610bcb5780601f10610ba057610100808354040283529160200191610bcb565b820191906000526020600020905b815481529060010190602001808311610bae57829003601f168201915b505050505081565b60016020526000908152604090208054610b5290611cff565b6000546001600160a01b031690565b61ffff8116600090815260016020526040812080546060929190610c1e90611cff565b80601f0160208091040260200160405190810160405280929190818152602001828054610c4a90611cff565b8015610c975780601f10610c6c57610100808354040283529160200191610c97565b820191906000526020600020905b815481529060010190602001808311610c7a57829003601f168201915b505050505090508051600003610cef5760405162461bcd60e51b815260206004820152601d60248201527f4c7a4170703a206e6f20747275737465642070617468207265636f726400000060448201526064016105a1565b610924600060148351610d029190611eba565b839190611578565b610d12611303565b818130604051602001610d2793929190611ed3565b60408051601f1981840301815291815261ffff8516600090815260016020522090610d529082611deb565b507f8c0400cfe2d1199b1a725c78960bcc2a344d869b80590d0f2bd005db15a572ce838383604051610d8693929190611d72565b60405180910390a1505050565b610d9b611303565b600480546001600160a01b0319166001600160a01b0383161790556040517f5db758e995a17ec1ad84bdef7e8c3293a0bd6179bcce400dff5d4c3d87db726b90610de6908390611bf6565b60405180910390a150565b610df9611303565b6040516332fb62e760e21b81526001600160a01b037f0000000000000000000000000000000000000000000000000000000000000000169063cbed8b9c90610e4d9088908890889088908890600401611ef4565b600060405180830381600087803b158015610e6757600080fd5b505af1158015610e7b573d6000803e3d6000fd5b505050505050505050565b61ffff86166000908152600560205260408082209051610ea99088908890611d39565b90815260408051602092819003830190206001600160401b03871660009081529252902054905080610f295760405162461bcd60e51b815260206004820152602360248201527f4e6f6e626c6f636b696e674c7a4170703a206e6f2073746f726564206d65737360448201526261676560e81b60648201526084016105a1565b808383604051610f3a929190611d39565b604051809103902014610f995760405162461bcd60e51b815260206004820152602160248201527f4e6f6e626c6f636b696e674c7a4170703a20696e76616c6964207061796c6f616044820152601960fa1b60648201526084016105a1565b61ffff87166000908152600560205260408082209051610fbc9089908990611d39565b90815260408051602092819003830181206001600160401b038916600090815290845282902093909355601f88018290048202830182019052868252611054918991899089908190840183828082843760009201919091525050604080516020601f8a018190048102820181019092528881528a93509150889088908190840183828082843760009201919091525061150792505050565b7fc264d91f3adc5588250e1551f547752ca0cfa8f6b530d243b9f9f4cab10ea8e5878787878560405161108b959493929190611f2d565b60405180910390a150505050505050565b6110a4611303565b61ffff83811660008181526002602090815260408083209487168084529482529182902085905581519283528201929092529081018290527f9d5c7c0b934da8fefa9c7760c98383778a12dfbfc0c3b3106518f43fb9508ac090606001610d86565b61110e611303565b61ffff8316600090815260016020526040902061112c828483611f68565b507ffa41487ad5d6728f0b19276fa1eddc16558578f5109fc39d2dc33c3230470dab838383604051610d8693929190611d72565b611168611303565b6001600160a01b0381166111cd5760405162461bcd60e51b815260206004820152602660248201527f4f776e61626c653a206e6577206f776e657220697320746865207a65726f206160448201526564647265737360d01b60648201526084016105a1565b6111d681611528565b50565b604051633d7b2f6f60e21b815261ffff808616600483015284166024820152306044820152606481018290526060907f00000000000000000000000000000000000000000000000000000000000000006001600160a01b03169063f5ecbdbc90608401600060405180830381865afa158015611259573d6000803e3d6000fd5b505050506040513d6000823e601f3d908101601f191682016040526112819190810190612051565b95945050505050565b6000806112ed5a60966366ad5c8a60e01b898989896040516024016112b29493929190612099565b60408051601f198184030181529190526020810180516001600160e01b03166001600160e01b03199093169290921790915230929190611685565b9150915081610b2957610b29868686868561170f565b3361130c610bec565b6001600160a01b031614610b435760405162461bcd60e51b815260206004820181905260248201527f4f776e61626c653a2063616c6c6572206973206e6f7420746865206f776e657260448201526064016105a1565b61ffff86166000908152600160205260408120805461138090611cff565b80601f01602080910402602001604051908101604052809291908181526020018280546113ac90611cff565b80156113f95780601f106113ce576101008083540402835291602001916113f9565b820191906000526020600020905b8154815290600101906020018083116113dc57829003601f168201915b50505050509050805160000361146a5760405162461bcd60e51b815260206004820152603060248201527f4c7a4170703a2064657374696e6174696f6e20636861696e206973206e6f742060448201526f61207472757374656420736f7572636560801b60648201526084016105a1565b6114758787516117ac565b60405162c5803160e81b81526001600160a01b037f0000000000000000000000000000000000000000000000000000000000000000169063c58031009084906114cc908b9086908c908c908c908c906004016120d7565b6000604051808303818588803b1580156114e557600080fd5b505af11580156114f9573d6000803e3d6000fd5b505050505050505050505050565b8080602001905181019061151b9190612051565b6006906107e09082611deb565b600080546001600160a01b038381166001600160a01b0319831681178455604051919092169283917f8be0079c531659141344cd1fd0a4f28419497f9722a3daafe3b4186f6b6457e09190a35050565b60608161158681601f61213e565b10156115c55760405162461bcd60e51b815260206004820152600e60248201526d736c6963655f6f766572666c6f7760901b60448201526064016105a1565b6115cf828461213e565b845110156116135760405162461bcd60e51b8152602060048201526011602482015270736c6963655f6f75744f66426f756e647360781b60448201526064016105a1565b606082158015611632576040519150600082526020820160405261167c565b6040519150601f8416801560200281840101858101878315602002848b0101015b8183101561166b578051835260209283019201611653565b5050858452601f01601f1916604052505b50949350505050565b6000606060008060008661ffff166001600160401b038111156116aa576116aa6119c2565b6040519080825280601f01601f1916602001820160405280156116d4576020820181803683370190505b50905060008087516020890160008d8df191503d9250868311156116f6578692505b828152826000602083013e909890975095505050505050565b8180519060200120600560008761ffff1661ffff168152602001908152602001600020856040516117409190612151565b9081526040805191829003602090810183206001600160401b0388166000908152915220919091557fe183f33de2837795525b4792ca4cd60535bd77c53b7e7030060bfcf5734d6b0c9061179d908790879087908790879061216d565b60405180910390a15050505050565b61ffff8216600090815260036020526040812054908190036117cd57506127105b8082111561181d5760405162461bcd60e51b815260206004820181905260248201527f4c7a4170703a207061796c6f61642073697a6520697320746f6f206c6172676560448201526064016105a1565b505050565b803561ffff8116811461183457600080fd5b919050565b60008083601f84011261184b57600080fd5b5081356001600160401b0381111561186257600080fd5b60208301915083602082850101111561187a57600080fd5b9250929050565b80356001600160401b038116811461183457600080fd5b600080600080600080608087890312156118b157600080fd5b6118ba87611822565b955060208701356001600160401b03808211156118d657600080fd5b6118e28a838b01611839565b90975095508591506118f660408a01611881565b9450606089013591508082111561190c57600080fd5b5061191989828a01611839565b979a9699509497509295939492505050565b60006020828403121561193d57600080fd5b61092482611822565b6000806040838503121561195957600080fd5b61196283611822565b946020939093013593505050565b60008060006040848603121561198557600080fd5b61198e84611822565b925060208401356001600160401b038111156119a957600080fd5b6119b586828701611839565b9497909650939450505050565b634e487b7160e01b600052604160045260246000fd5b604051601f8201601f191681016001600160401b0381118282101715611a0057611a006119c2565b604052919050565b60006001600160401b03821115611a2157611a216119c2565b50601f01601f191660200190565b6000611a42611a3d84611a08565b6119d8565b9050828152838383011115611a5657600080fd5b828260208301376000602084830101529392505050565b600080600060608486031215611a8257600080fd5b611a8b84611822565b925060208401356001600160401b03811115611aa657600080fd5b8401601f81018613611ab757600080fd5b611ac686823560208401611a2f565b925050611ad560408501611881565b90509250925092565b80356001600160a01b038116811461183457600080fd5b600060208284031215611b0757600080fd5b61092482611ade565b600060208284031215611b2257600080fd5b81356001600160401b03811115611b3857600080fd5b8201601f81018413611b4957600080fd5b611b5884823560208401611a2f565b949350505050565b60005b83811015611b7b578181015183820152602001611b63565b50506000910152565b60008151808452611b9c816020860160208601611b60565b601f01601f19169290920160200192915050565b6020815260006109246020830184611b84565b60008060408385031215611bd657600080fd5b611bdf83611822565b9150611bed60208401611822565b90509250929050565b6001600160a01b0391909116815260200190565b600080600080600060808688031215611c2257600080fd5b611c2b86611822565b9450611c3960208701611822565b93506040860135925060608601356001600160401b03811115611c5b57600080fd5b611c6788828901611839565b969995985093965092949392505050565b600080600060608486031215611c8d57600080fd5b611c9684611822565b9250611ca460208501611822565b9150604084013590509250925092565b60008060008060808587031215611cca57600080fd5b611cd385611822565b9350611ce160208601611822565b9250611cef60408601611ade565b9396929550929360600135925050565b600181811c90821680611d1357607f821691505b602082108103611d3357634e487b7160e01b600052602260045260246000fd5b50919050565b8183823760009101908152919050565b81835281816020850137506000828201602090810191909152601f909101601f19169091010190565b61ffff84168152604060208201526000611281604083018486611d49565b601f82111561181d57600081815260208120601f850160051c81016020861015611db75750805b601f850160051c820191505b81811015610b2957828155600101611dc3565b600019600383901b1c191660019190911b1790565b81516001600160401b03811115611e0457611e046119c2565b611e1881611e128454611cff565b84611d90565b602080601f831160018114611e475760008415611e355750858301515b611e3f8582611dd6565b865550610b29565b600085815260208120601f198616915b82811015611e7657888601518255948401946001909101908401611e57565b5085821015611e945787850151600019600388901b60f8161c191681555b5050505050600190811b01905550565b634e487b7160e01b600052601160045260246000fd5b81810381811115611ecd57611ecd611ea4565b92915050565b8284823760609190911b6001600160601b0319169101908152601401919050565b600061ffff808816835280871660208401525084604083015260806060830152611f22608083018486611d49565b979650505050505050565b61ffff86168152608060208201526000611f4b608083018688611d49565b6001600160401b0394909416604083015250606001529392505050565b6001600160401b03831115611f7f57611f7f6119c2565b611f9383611f8d8354611cff565b83611d90565b6000601f841160018114611fc15760008515611faf5750838201355b611fb98682611dd6565b8455506107e0565b600083815260209020601f19861690835b82811015611ff25786850135825560209485019460019092019101611fd2565b508682101561200f5760001960f88860031b161c19848701351681555b505060018560011b0183555050505050565b600061202f611a3d84611a08565b905082815283838301111561204357600080fd5b610924836020830184611b60565b60006020828403121561206357600080fd5b81516001600160401b0381111561207957600080fd5b8201601f8101841361208a57600080fd5b611b5884825160208401612021565b61ffff851681526080602082015260006120b66080830186611b84565b6001600160401b03851660408401528281036060840152611f228185611b84565b61ffff8716815260c0602082015260006120f460c0830188611b84565b82810360408401526121068188611b84565b6001600160a01b0387811660608601528616608085015283810360a085015290506121318185611b84565b9998505050505050505050565b80820180821115611ecd57611ecd611ea4565b60008251612163818460208701611b60565b9190910192915050565b61ffff8616815260a06020820152600061218a60a0830187611b84565b6001600160401b038616604084015282810360608401526121ab8186611b84565b905082810360808401526121bf8185611b84565b9897505050505050505056fea2646970667358221220fb337d3f3212fe145603f0e641ee588d5a8e28d3d51f69d9038937da086e7f1064736f6c63430008140033",
  "linkReferences": {},
  "deployedLinkReferences": {}
}