{
  "_format": "hh-sol-artifact-1",
  "contractName": "AuctionAndBids",
  "sourceName": "contracts/market/AuctionAndBids.sol",
  "abi": [
    {
      "anonymous": false,
      "inputs": [
        {
          "indexed": false,
          "internalType": "address",
          "name": "previousAdmin",
          "type": "address"
        },
        {
          "indexed": false,
          "internalType": "address",
          "name": "newAdmin",
          "type": "address"
        }
      ],
      "name": "AdminChanged",
      "type": "event"
    },
    {
      "anonymous": false,
      "inputs": [
        {
          "indexed": true,
          "internalType": "uint256",
          "name": "auctionId",
          "type": "uint256"
        },
        {
          "indexed": true,
          "internalType": "address",
          "name": "seller",
          "type": "address"
        },
        {
          "indexed": true,
          "internalType": "uint256",
          "name": "itemId",
          "type": "uint256"
        }
      ],
      "name": "AuctionCanceled",
      "type": "event"
    },
    {
      "anonymous": false,
      "inputs": [
        {
          "indexed": true,
          "internalType": "uint256",
          "name": "acutionId",
          "type": "uint256"
        },
        {
          "indexed": true,
          "internalType": "uint256",
          "name": "nftId",
          "type": "uint256"
        },
        {
          "indexed": true,
          "internalType": "address",
          "name": "seller",
          "type": "address"
        },
        {
          "indexed": false,
          "internalType": "uint256",
          "name": "endAt",
          "type": "uint256"
        },
        {
          "indexed": false,
          "internalType": "uint256",
          "name": "price",
          "type": "uint256"
        }
      ],
      "name": "AuctionCreated",
      "type": "event"
    },
    {
      "anonymous": false,
      "inputs": [
        {
          "indexed": true,
          "internalType": "uint256",
          "name": "auctionId",
          "type": "uint256"
        },
        {
          "indexed": true,
          "internalType": "address",
          "name": "bidder",
          "type": "address"
        },
        {
          "indexed": true,
          "internalType": "uint256",
          "name": "nftId",
          "type": "uint256"
        },
        {
          "indexed": false,
          "internalType": "uint256",
          "name": "price",
          "type": "uint256"
        }
      ],
      "name": "AuctionEnded",
      "type": "event"
    },
    {
      "anonymous": false,
      "inputs": [
        {
          "indexed": true,
          "internalType": "address",
          "name": "beacon",
          "type": "address"
        }
      ],
      "name": "BeaconUpgraded",
      "type": "event"
    },
    {
      "anonymous": false,
      "inputs": [
        {
          "indexed": true,
          "internalType": "uint256",
          "name": "auctionId",
          "type": "uint256"
        },
        {
          "indexed": true,
          "internalType": "address",
          "name": "bidder",
          "type": "address"
        },
        {
          "indexed": true,
          "internalType": "uint256",
          "name": "nftId",
          "type": "uint256"
        },
        {
          "indexed": false,
          "internalType": "uint256",
          "name": "bid",
          "type": "uint256"
        }
      ],
      "name": "Bid",
      "type": "event"
    },
    {
      "anonymous": false,
      "inputs": [
        {
          "indexed": false,
          "internalType": "uint8",
          "name": "version",
          "type": "uint8"
        }
      ],
      "name": "Initialized",
      "type": "event"
    },
    {
      "anonymous": false,
      "inputs": [
        {
          "indexed": true,
          "internalType": "address",
          "name": "previousOwner",
          "type": "address"
        },
        {
          "indexed": true,
          "internalType": "address",
          "name": "newOwner",
          "type": "address"
        }
      ],
      "name": "OwnershipTransferred",
      "type": "event"
    },
    {
      "anonymous": false,
      "inputs": [
        {
          "indexed": true,
          "internalType": "address",
          "name": "implementation",
          "type": "address"
        }
      ],
      "name": "Upgraded",
      "type": "event"
    },
    {
      "anonymous": false,
      "inputs": [
        {
          "indexed": true,
          "internalType": "address",
          "name": "seller",
          "type": "address"
        },
        {
          "indexed": false,
          "internalType": "uint256",
          "name": "balance",
          "type": "uint256"
        }
      ],
      "name": "WihdrawSuccess",
      "type": "event"
    },
    {
      "inputs": [
        {
          "internalType": "uint256",
          "name": "_auctionId",
          "type": "uint256"
        },
        {
          "internalType": "uint256",
          "name": "amount",
          "type": "uint256"
        }
      ],
      "name": "bid",
      "outputs": [],
      "stateMutability": "nonpayable",
      "type": "function"
    },
    {
      "inputs": [
        {
          "internalType": "uint256",
          "name": "_auctionId",
          "type": "uint256"
        }
      ],
      "name": "cancelAuction",
      "outputs": [],
      "stateMutability": "nonpayable",
      "type": "function"
    },
    {
      "inputs": [
        {
          "internalType": "uint256",
          "name": "_itemId",
          "type": "uint256"
        },
        {
          "internalType": "uint256",
          "name": "_timesInHour",
          "type": "uint256"
        },
        {
          "internalType": "uint256",
          "name": "_firstBid",
          "type": "uint256"
        }
      ],
      "name": "createAuction",
      "outputs": [],
      "stateMutability": "nonpayable",
      "type": "function"
    },
    {
      "inputs": [
        {
          "internalType": "uint256",
          "name": "_auctionId",
          "type": "uint256"
        }
      ],
      "name": "endAuction",
      "outputs": [],
      "stateMutability": "nonpayable",
      "type": "function"
    },
    {
      "inputs": [
        {
          "internalType": "uint256",
          "name": "_auctionId",
          "type": "uint256"
        }
      ],
      "name": "getAuctionDetails",
      "outputs": [
        {
          "components": [
            {
              "internalType": "uint256",
              "name": "id",
              "type": "uint256"
            },
            {
              "internalType": "bool",
              "name": "start",
              "type": "bool"
            },
            {
              "internalType": "bool",
              "name": "end",
              "type": "bool"
            },
            {
              "internalType": "uint256",
              "name": "endAt",
              "type": "uint256"
            },
            {
              "internalType": "address[]",
              "name": "bidders",
              "type": "address[]"
            },
            {
              "internalType": "address",
              "name": "highestBidder",
              "type": "address"
            },
            {
              "internalType": "uint256",
              "name": "highestBid",
              "type": "uint256"
            },
            {
              "internalType": "address",
              "name": "seller",
              "type": "address"
            },
            {
              "internalType": "uint256",
              "name": "itemId",
              "type": "uint256"
            }
          ],
          "internalType": "struct AuctionAndBids.Auction",
          "name": "",
          "type": "tuple"
        }
      ],
      "stateMutability": "view",
      "type": "function"
    },
    {
      "inputs": [
        {
          "internalType": "address",
          "name": "_bidder",
          "type": "address"
        },
        {
          "internalType": "uint256",
          "name": "_auctionId",
          "type": "uint256"
        }
      ],
      "name": "getBalanceOf",
      "outputs": [
        {
          "internalType": "uint256",
          "name": "",
          "type": "uint256"
        }
      ],
      "stateMutability": "view",
      "type": "function"
    },
    {
      "inputs": [
        {
          "internalType": "address",
          "name": "_ravaItemAddress",
          "type": "address"
        },
        {
          "internalType": "address",
          "name": "_payTokenAddress",
          "type": "address"
        }
      ],
      "name": "initialize",
      "outputs": [],
      "stateMutability": "nonpayable",
      "type": "function"
    },
    {
      "inputs": [
        {
          "internalType": "address",
          "name": "_user",
          "type": "address"
        }
      ],
      "name": "isUserBidder",
      "outputs": [
        {
          "internalType": "bool",
          "name": "",
          "type": "bool"
        }
      ],
      "stateMutability": "view",
      "type": "function"
    },
    {
      "inputs": [
        {
          "internalType": "address",
          "name": "",
          "type": "address"
        },
        {
          "internalType": "address",
          "name": "",
          "type": "address"
        },
        {
          "internalType": "uint256",
          "name": "",
          "type": "uint256"
        },
        {
          "internalType": "uint256",
          "name": "",
          "type": "uint256"
        },
        {
          "internalType": "bytes",
          "name": "",
          "type": "bytes"
        }
      ],
      "name": "onERC1155Received",
      "outputs": [
        {
          "internalType": "bytes4",
          "name": "",
          "type": "bytes4"
        }
      ],
      "stateMutability": "nonpayable",
      "type": "function"
    },
    {
      "inputs": [],
      "name": "owner",
      "outputs": [
        {
          "internalType": "address",
          "name": "",
          "type": "address"
        }
      ],
      "stateMutability": "view",
      "type": "function"
    },
    {
      "inputs": [],
      "name": "payTokenAddress",
      "outputs": [
        {
          "internalType": "address",
          "name": "",
          "type": "address"
        }
      ],
      "stateMutability": "view",
      "type": "function"
    },
    {
      "inputs": [],
      "name": "platFormAddress",
      "outputs": [
        {
          "internalType": "address",
          "name": "",
          "type": "address"
        }
      ],
      "stateMutability": "view",
      "type": "function"
    },
    {
      "inputs": [],
      "name": "proxiableUUID",
      "outputs": [
        {
          "internalType": "bytes32",
          "name": "",
          "type": "bytes32"
        }
      ],
      "stateMutability": "view",
      "type": "function"
    },
    {
      "inputs": [],
      "name": "renounceOwnership",
      "outputs": [],
      "stateMutability": "nonpayable",
      "type": "function"
    },
    {
      "inputs": [],
      "name": "totalAuctionsCreated",
      "outputs": [
        {
          "internalType": "uint256",
          "name": "",
          "type": "uint256"
        }
      ],
      "stateMutability": "view",
      "type": "function"
    },
    {
      "inputs": [
        {
          "internalType": "address",
          "name": "newOwner",
          "type": "address"
        }
      ],
      "name": "transferOwnership",
      "outputs": [],
      "stateMutability": "nonpayable",
      "type": "function"
    },
    {
      "inputs": [
        {
          "internalType": "address",
          "name": "newImplementation",
          "type": "address"
        }
      ],
      "name": "upgradeTo",
      "outputs": [],
      "stateMutability": "nonpayable",
      "type": "function"
    },
    {
      "inputs": [
        {
          "internalType": "address",
          "name": "newImplementation",
          "type": "address"
        },
        {
          "internalType": "bytes",
          "name": "data",
          "type": "bytes"
        }
      ],
      "name": "upgradeToAndCall",
      "outputs": [],
      "stateMutability": "payable",
      "type": "function"
    },
    {
      "inputs": [
        {
          "internalType": "uint256",
          "name": "_auctionId",
          "type": "uint256"
        }
      ],
      "name": "withdrawBids",
      "outputs": [],
      "stateMutability": "nonpayable",
      "type": "function"
    }
  ],
  "bytecode": "0x60a06040523060805234801561001457600080fd5b50600160c9556080516121a361005160003960008181610399015281816103e2015281816105360152818161057601526105f201526121a36000f3fe6080604052600436106100e45760003560e01c806318aa08f3146100e95780633659cfe614610111578063485cc955146101335780634f1ef2861461015357806352d1902d14610166578063598647f81461017b578063715018a61461019b57806388a7c05e146101b05780638da5cb5b146101e857806394d45b59146101fd57806396b5a7551461021d578063b32d4afa1461023d578063b9a2de3a1461026d578063c77b51461461028d578063cda4beef146102ad578063edb5f905146102cd578063f20e5e35146102ed578063f23a6e611461031a578063f2fde38b1461035f575b600080fd5b3480156100f557600080fd5b506100fe61037f565b6040519081526020015b60405180910390f35b34801561011d57600080fd5b5061013161012c366004611b23565b61038f565b005b34801561013f57600080fd5b5061013161014e366004611b3e565b610460565b610131610161366004611c13565b61052c565b34801561017257600080fd5b506100fe6105e5565b34801561018757600080fd5b50610131610196366004611c60565b610693565b3480156101a757600080fd5b50610131610868565b3480156101bc57600080fd5b5060cd546101d0906001600160a01b031681565b6040516001600160a01b039091168152602001610108565b3480156101f457600080fd5b506101d061087c565b34801561020957600080fd5b506100fe610218366004611c8f565b61088b565b34801561022957600080fd5b50610131610238366004611cb9565b6108b6565b34801561024957600080fd5b5061025d610258366004611b23565b610b3d565b6040519015158152602001610108565b34801561027957600080fd5b50610131610288366004611cb9565b610cb7565b34801561029957600080fd5b5060d0546101d0906001600160a01b031681565b3480156102b957600080fd5b506101316102c8366004611cd2565b610f4e565b3480156102d957600080fd5b506101316102e8366004611cb9565b6111d0565b3480156102f957600080fd5b5061030d610308366004611cb9565b611319565b6040516101089190611d42565b34801561032657600080fd5b50610346610335366004611ddb565b63f23a6e6160e01b95945050505050565b6040516001600160e01b03199091168152602001610108565b34801561036b57600080fd5b5061013161037a366004611b23565b611444565b600061038a60ca5490565b905090565b6001600160a01b037f00000000000000000000000000000000000000000000000000000000000000001630036103e05760405162461bcd60e51b81526004016103d790611e4c565b60405180910390fd5b7f00000000000000000000000000000000000000000000000000000000000000006001600160a01b03166104126114ba565b6001600160a01b0316146104385760405162461bcd60e51b81526004016103d790611e86565b610441816114d6565b6040805160008082526020820190925261045d918391906114de565b50565b600054610100900460ff16158080156104805750600054600160ff909116105b806104a1575061048f30611649565b1580156104a1575060005460ff166001145b6104bd5760405162461bcd60e51b81526004016103d790611ec0565b6000805460ff1916600117905580156104e0576000805461ff0019166101001790555b6104e8611658565b6104f28383611687565b8015610527576000805461ff001916905560405160018152600080516020612127833981519152906020015b60405180910390a15b505050565b6001600160a01b037f00000000000000000000000000000000000000000000000000000000000000001630036105745760405162461bcd60e51b81526004016103d790611e4c565b7f00000000000000000000000000000000000000000000000000000000000000006001600160a01b03166105a66114ba565b6001600160a01b0316146105cc5760405162461bcd60e51b81526004016103d790611e86565b6105d5826114d6565b6105e1828260016114de565b5050565b6000306001600160a01b037f000000000000000000000000000000000000000000000000000000000000000016146106805760405162461bcd60e51b815260206004820152603860248201527f555550535570677261646561626c653a206d757374206e6f742062652063616c6044820152771b1959081d1a1c9bdd59da0819195b1959d85d1958d85b1b60421b60648201526084016103d7565b5060008051602061210783398151915290565b61069b61177b565b600082815260cb6020526040902060058101546001820154600290920154909160ff8082169261010090920416908385116107065760405162461bcd60e51b815260206004820152600b60248201526a3b30b63ab2901e1024172160a91b60448201526064016103d7565b8261073e5760405162461bcd60e51b8152602060048201526008602482015267085cdd185c9d195960c21b60448201526064016103d7565b811561075c5760405162461bcd60e51b81526004016103d790611f0e565b8042106107965760405162461bcd60e51b81526020600482015260086024820152671d1a5b59481bdd5d60c21b60448201526064016103d7565b33600090815260cc60209081526040808320898452909152812080548792906107c0908490611f43565b9091555050600086815260cb602090815260408083206007810154600582018a90556004820180546001600160a01b0319908116339081179092556003909301805460018101825590875294909520909301805490911684179055519091829189907f3138d8d517460c959fb333d4e8d87ea984f1cf15d6742c02e2955dd27a622b7090610851908b815260200190565b60405180910390a450505050506105e1600160c955565b6108706117d4565b61087a6000611833565b565b6097546001600160a01b031690565b6001600160a01b038216600090815260cc602090815260408083208484529091529020545b92915050565b600081815260cb602052604090206001810154600682015460049092015460ff8083169361010090930416916001600160a01b0390811691168082146109315760405162461bcd60e51b815260206004820152601060248201526f1e5bdd4818d85b89dd0818d85b98d95b60821b60448201526064016103d7565b336001600160a01b038316146109755760405162461bcd60e51b81526020600482015260096024820152681e5bdd4818d85b89dd60ba1b60448201526064016103d7565b6001841515146109975760405162461bcd60e51b81526004016103d790611f0e565b82156109b55760405162461bcd60e51b81526004016103d790611f0e565b600085815260cb60205260409081902060078101546001909101805461ffff191661010017905560ce5491516356df3db160e01b815290916001600160a01b0316906356df3db190610a0d9030908590600401611f56565b600060405180830381600087803b158015610a2757600080fd5b505af1158015610a3b573d6000803e3d6000fd5b505060ce5460405163b00741cb60e01b8152600481018590526001600160a01b03909116925063b00741cb9150602401600060405180830381600087803b158015610a8557600080fd5b505af1158015610a99573d6000803e3d6000fd5b505060cf54604051637921219560e11b81526001600160a01b03909116925063f242432a9150610ad490309033908690600190600401611f6f565b600060405180830381600087803b158015610aee57600080fd5b505af1158015610b02573d6000803e3d6000fd5b505060405183925033915088907fc326dcfb5d4e924f5e3e717c0f667b0eecb5abb73fc0b33236b6107c1fd48a5790600090a4505050505050565b600080610b4960ca5490565b905060015b818111610cad57600081815260cb6020908152604080832081516101208101835281548152600182015460ff8082161515838701526101009091041615158184015260028201546060820152600382018054845181870281018701909552808552919492936080860193909290830182828015610bf457602002820191906000526020600020905b81546001600160a01b03168152600190910190602001808311610bd6575b505050918352505060048201546001600160a01b039081166020830152600583015460408301526006830154166060820152600790910154608090910152905060005b816080015151811015610c985781608001518181518110610c5a57610c5a611fa7565b60200260200101516001600160a01b0316866001600160a01b031603610c865750600195945050505050565b80610c9081611fbd565b915050610c37565b50508080610ca590611fbd565b915050610b4e565b5060009392505050565b610cbf61177b565b600081815260cb60205260409020600281015460019091015460ff8082169161010090041642831115610d1e5760405162461bcd60e51b81526020600482015260076024820152661b9bdd081e595d60ca1b60448201526064016103d7565b600182151514610d5e5760405162461bcd60e51b815260206004820152600b60248201526a1b9bdd081cdd185c9d195960aa1b60448201526064016103d7565b8015610d7c5760405162461bcd60e51b81526004016103d790611f0e565b600084815260cb602081815260408084206004808201546001600160a01b0390811680885260cc86528488208c895286528488209790975594909352600581015460078201546001909201805461ffff191661010017905560ce5492516356df3db160e01b81529094919392909116916356df3db191610e00913091869101611f56565b600060405180830381600087803b158015610e1a57600080fd5b505af1158015610e2e573d6000803e3d6000fd5b505060ce5460405163b00741cb60e01b8152600481018590526001600160a01b03909116925063b00741cb9150602401600060405180830381600087803b158015610e7857600080fd5b505af1158015610e8c573d6000803e3d6000fd5b505060cf54604051637921219560e11b81526001600160a01b03909116925063f242432a9150610ec790309087908690600190600401611f6f565b600060405180830381600087803b158015610ee157600080fd5b505af1158015610ef5573d6000803e3d6000fd5b5050505080836001600160a01b0316887fe9ba83469fc8ee4260dd274fd43b5a54f2df813ad21c4637d53084d1f3866b3785604051610f3691815260200190565b60405180910390a450505050505061045d600160c955565b60008111610f8a5760405162461bcd60e51b815260206004820152600960248201526807072696365203d20360bc1b60448201526064016103d7565b610f9860ca80546001019055565b6000610fa360ca5490565b600081815260cb602052604090208181556001908101805461ffff191690911790559050610fd383610e10611fd6565b610fdd9042611f43565b600082815260cb6020908152604080832060028101949094556003840180546001810182559084529183209091018054336001600160a01b03199182168117909255928590526004808501805485168317905560058501879055600685018054909416909117909255600790920186905560ce5491516356df3db160e01b81526001600160a01b03909216916356df3db19161107d913091899101611f56565b600060405180830381600087803b15801561109757600080fd5b505af11580156110ab573d6000803e3d6000fd5b505060ce5460405163b00741cb60e01b8152600481018890526001600160a01b03909116925063b00741cb9150602401600060405180830381600087803b1580156110f557600080fd5b505af1158015611109573d6000803e3d6000fd5b505060cf54604051637921219560e11b81526001600160a01b03909116925063f242432a915061114490339030908990600190600401611f6f565b600060405180830381600087803b15801561115e57600080fd5b505af1158015611172573d6000803e3d6000fd5b503392508691508390507fc01e7da6ec06ecf5e1b887799549c755425a022ab59da72fa2d8c6255c10bc856111a987610e10611fd6565b6111b39042611f43565b60408051918252602082018890520160405180910390a450505050565b6111d861177b565b600081815260cb60205260409020600401546001600160a01b031633810361122f5760405162461bcd60e51b815260206004820152600a6024820152693cb7ba93b9329024172160b11b60448201526064016103d7565b6000336001600160a01b03831614611262575033600090815260cc60209081526040808320858452909152812080549190555b60d05460405163a9059cbb60e01b81526001600160a01b039091169063a9059cbb906112949033908590600401611f56565b6020604051808303816000875af11580156112b3573d6000803e3d6000fd5b505050506040513d601f19601f820116820180604052508101906112d79190611fed565b5060405181815233907f4cc389833cf9f5a23bd7674077f16c3ee2c0e8c492afc11ac1c01ca6f95f96909060200160405180910390a2505061045d600160c955565b60408051610120810182526000808252602082018190529181018290526060808201839052608082015260a0810182905260c0810182905260e08101829052610100810191909152600082815260cb602090815260409182902082516101208101845281548152600182015460ff8082161515838601526101009091041615158185015260028201546060820152600382018054855181860281018601909652808652919492936080860193929083018282801561140057602002820191906000526020600020905b81546001600160a01b031681526001909101906020018083116113e2575b505050918352505060048201546001600160a01b03908116602083015260058301546040830152600683015416606082015260079091015460809091015292915050565b61144c6117d4565b6001600160a01b0381166114b15760405162461bcd60e51b815260206004820152602660248201527f4f776e61626c653a206e6577206f776e657220697320746865207a65726f206160448201526564647265737360d01b60648201526084016103d7565b61045d81611833565b600080516020612107833981519152546001600160a01b031690565b61045d6117d4565b7f4910fdfa16fed3260ed0e7147f7cc6da11a60208b5b9406d12a635614ffd91435460ff16156115115761052783611885565b826001600160a01b03166352d1902d6040518163ffffffff1660e01b8152600401602060405180830381865afa92505050801561156b575060408051601f3d908101601f191682019092526115689181019061200f565b60015b6115ce5760405162461bcd60e51b815260206004820152602e60248201527f45524331393637557067726164653a206e657720696d706c656d656e7461746960448201526d6f6e206973206e6f74205555505360901b60648201526084016103d7565b600080516020612107833981519152811461163d5760405162461bcd60e51b815260206004820152602960248201527f45524331393637557067726164653a20756e737570706f727465642070726f786044820152681a58589b195555525160ba1b60648201526084016103d7565b5061052783838361191f565b6001600160a01b03163b151590565b600054610100900460ff1661167f5760405162461bcd60e51b81526004016103d790612028565b61087a61194a565b600054610100900460ff16158080156116a75750600054600160ff909116105b806116c857506116b630611649565b1580156116c8575060005460ff166001145b6116e45760405162461bcd60e51b81526004016103d790611ec0565b6000805460ff191660011790558015611707576000805461ff0019166101001790555b60ce80546001600160a01b03199081166001600160a01b0386811691821790935560cd80548316905560cf80548316909117905560d080549091169184169190911790558015610527576000805461ff0019169055604051600181526000805160206121278339815191529060200161051e565b600260c954036117cd5760405162461bcd60e51b815260206004820152601f60248201527f5265656e7472616e637947756172643a207265656e7472616e742063616c6c0060448201526064016103d7565b600260c955565b336117dd61087c565b6001600160a01b03161461087a5760405162461bcd60e51b815260206004820181905260248201527f4f776e61626c653a2063616c6c6572206973206e6f7420746865206f776e657260448201526064016103d7565b609780546001600160a01b038381166001600160a01b0319831681179093556040519116919082907f8be0079c531659141344cd1fd0a4f28419497f9722a3daafe3b4186f6b6457e090600090a35050565b61188e81611649565b6118f05760405162461bcd60e51b815260206004820152602d60248201527f455243313936373a206e657720696d706c656d656e746174696f6e206973206e60448201526c1bdd08184818dbdb9d1c9858dd609a1b60648201526084016103d7565b60008051602061210783398151915280546001600160a01b0319166001600160a01b0392909216919091179055565b6119288361197a565b6000825111806119355750805b156105275761194483836119ba565b50505050565b600054610100900460ff166119715760405162461bcd60e51b81526004016103d790612028565b61087a33611833565b61198381611885565b6040516001600160a01b038216907fbc7cd75a20ee27fd9adebab32041f755214dbc6bffa90cc0225b39da2e5c2d3b90600090a250565b60606119df8383604051806060016040528060278152602001612147602791396119e6565b9392505050565b6060600080856001600160a01b031685604051611a039190612097565b600060405180830381855af49150503d8060008114611a3e576040519150601f19603f3d011682016040523d82523d6000602084013e611a43565b606091505b5091509150611a5486838387611a5e565b9695505050505050565b60608315611acb578251600003611ac457611a7885611649565b611ac45760405162461bcd60e51b815260206004820152601d60248201527f416464726573733a2063616c6c20746f206e6f6e2d636f6e747261637400000060448201526064016103d7565b5081611ad5565b611ad58383611add565b949350505050565b815115611aed5781518083602001fd5b8060405162461bcd60e51b81526004016103d791906120b3565b80356001600160a01b0381168114611b1e57600080fd5b919050565b600060208284031215611b3557600080fd5b6119df82611b07565b60008060408385031215611b5157600080fd5b611b5a83611b07565b9150611b6860208401611b07565b90509250929050565b634e487b7160e01b600052604160045260246000fd5b600082601f830112611b9857600080fd5b81356001600160401b0380821115611bb257611bb2611b71565b604051601f8301601f19908116603f01168101908282118183101715611bda57611bda611b71565b81604052838152866020858801011115611bf357600080fd5b836020870160208301376000602085830101528094505050505092915050565b60008060408385031215611c2657600080fd5b611c2f83611b07565b915060208301356001600160401b03811115611c4a57600080fd5b611c5685828601611b87565b9150509250929050565b60008060408385031215611c7357600080fd5b50508035926020909101359150565b6001600160a01b03169052565b60008060408385031215611ca257600080fd5b611cab83611b07565b946020939093013593505050565b600060208284031215611ccb57600080fd5b5035919050565b600080600060608486031215611ce757600080fd5b505081359360208301359350604090920135919050565b600081518084526020808501945080840160005b83811015611d375781516001600160a01b031687529582019590820190600101611d12565b509495945050505050565b602081528151602082015260006020830151611d62604084018215159052565b5060408301518015156060840152506060830151608083015260808301516101208060a0850152611d97610140850183611cfe565b915060a0850151611dab60c0860182611c82565b5060c085015160e085015260e0850151610100611dca81870183611c82565b959095015193019290925250919050565b600080600080600060a08688031215611df357600080fd5b611dfc86611b07565b9450611e0a60208701611b07565b9350604086013592506060860135915060808601356001600160401b03811115611e3357600080fd5b611e3f88828901611b87565b9150509295509295909350565b6020808252602c908201526000805160206120e783398151915260408201526b19195b1959d85d1958d85b1b60a21b606082015260800190565b6020808252602c908201526000805160206120e783398151915260408201526b6163746976652070726f787960a01b606082015260800190565b6020808252602e908201527f496e697469616c697a61626c653a20636f6e747261637420697320616c72656160408201526d191e481a5b9a5d1a585b1a5e995960921b606082015260800190565b602080825260059082015264195b99195960da1b604082015260600190565b634e487b7160e01b600052601160045260246000fd5b808201808211156108b0576108b0611f2d565b6001600160a01b03929092168252602082015260400190565b6001600160a01b0394851681529290931660208301526040820152606081019190915260a06080820181905260009082015260c00190565b634e487b7160e01b600052603260045260246000fd5b600060018201611fcf57611fcf611f2d565b5060010190565b80820281158282048414176108b0576108b0611f2d565b600060208284031215611fff57600080fd5b815180151581146119df57600080fd5b60006020828403121561202157600080fd5b5051919050565b6020808252602b908201527f496e697469616c697a61626c653a20636f6e7472616374206973206e6f74206960408201526a6e697469616c697a696e6760a81b606082015260800190565b60005b8381101561208e578181015183820152602001612076565b50506000910152565b600082516120a9818460208701612073565b9190910192915050565b60208152600082518060208401526120d2816040850160208701612073565b601f01601f1916919091016040019291505056fe46756e6374696f6e206d7573742062652063616c6c6564207468726f75676820360894a13ba1a3210667c828492db98dca3e2076cc3735a920a3ca505d382bbc7f26b83ff96e1f2b6a682f133852f6798a09c465da95921460cefb3847402498416464726573733a206c6f772d6c6576656c2064656c65676174652063616c6c206661696c6564a2646970667358221220a63f2411e11acede3dd938dd4bdb5eefd8a586725c634b879ee32798b224134064736f6c63430008140033",
  "linkReferences": {},
  "deployedLinkReferences": {}
}