{
  "_format": "hh-sol-artifact-1",
  "contractName": "LayerZeroTest",
  "sourceName": "contracts/bridge/LayerZeroTest.sol",
  "abi": [
    {
      "inputs": [
        {
          "internalType": "address",
          "name": "_lzEndpoint",
          "type": "address"
        },
        {
          "internalType": "uint16",
          "name": "destChainId",
          "type": "uint16"
        }
      ],
      "stateMutability": "nonpayable",
      "type": "constructor"
    },
    {
      "anonymous": false,
      "inputs": [
        {
          "indexed": false,
          "internalType": "uint16",
          "name": "_srcChainId",
          "type": "uint16"
        },
        {
          "indexed": false,
          "internalType": "bytes",
          "name": "_srcAddress",
          "type": "bytes"
        },
        {
          "indexed": false,
          "internalType": "uint64",
          "name": "_nonce",
          "type": "uint64"
        },
        {
          "indexed": false,
          "internalType": "bytes",
          "name": "_payload",
          "type": "bytes"
        },
        {
          "indexed": false,
          "internalType": "bytes",
          "name": "_reason",
          "type": "bytes"
        }
      ],
      "name": "MessageFailed",
      "type": "event"
    },
    {
      "anonymous": false,
      "inputs": [
        {
          "indexed": true,
          "internalType": "address",
          "name": "previousOwner",
          "type": "address"
        },
        {
          "indexed": true,
          "internalType": "address",
          "name": "newOwner",
          "type": "address"
        }
      ],
      "name": "OwnershipTransferred",
      "type": "event"
    },
    {
      "anonymous": false,
      "inputs": [
        {
          "indexed": false,
          "internalType": "uint16",
          "name": "_srcChainId",
          "type": "uint16"
        },
        {
          "indexed": false,
          "internalType": "bytes",
          "name": "_srcAddress",
          "type": "bytes"
        },
        {
          "indexed": false,
          "internalType": "uint64",
          "name": "_nonce",
          "type": "uint64"
        },
        {
          "indexed": false,
          "internalType": "bytes32",
          "name": "_payloadHash",
          "type": "bytes32"
        }
      ],
      "name": "RetryMessageSuccess",
      "type": "event"
    },
    {
      "anonymous": false,
      "inputs": [
        {
          "indexed": false,
          "internalType": "uint16",
          "name": "_dstChainId",
          "type": "uint16"
        },
        {
          "indexed": false,
          "internalType": "uint16",
          "name": "_type",
          "type": "uint16"
        },
        {
          "indexed": false,
          "internalType": "uint256",
          "name": "_minDstGas",
          "type": "uint256"
        }
      ],
      "name": "SetMinDstGas",
      "type": "event"
    },
    {
      "anonymous": false,
      "inputs": [
        {
          "indexed": false,
          "internalType": "address",
          "name": "precrime",
          "type": "address"
        }
      ],
      "name": "SetPrecrime",
      "type": "event"
    },
    {
      "anonymous": false,
      "inputs": [
        {
          "indexed": false,
          "internalType": "uint16",
          "name": "_remoteChainId",
          "type": "uint16"
        },
        {
          "indexed": false,
          "internalType": "bytes",
          "name": "_path",
          "type": "bytes"
        }
      ],
      "name": "SetTrustedRemote",
      "type": "event"
    },
    {
      "anonymous": false,
      "inputs": [
        {
          "indexed": false,
          "internalType": "uint16",
          "name": "_remoteChainId",
          "type": "uint16"
        },
        {
          "indexed": false,
          "internalType": "bytes",
          "name": "_remoteAddress",
          "type": "bytes"
        }
      ],
      "name": "SetTrustedRemoteAddress",
      "type": "event"
    },
    {
      "inputs": [],
      "name": "DEFAULT_PAYLOAD_SIZE_LIMIT",
      "outputs": [
        {
          "internalType": "uint256",
          "name": "",
          "type": "uint256"
        }
      ],
      "stateMutability": "view",
      "type": "function"
    },
    {
      "inputs": [],
      "name": "__lzEndpoint",
      "outputs": [
        {
          "internalType": "address",
          "name": "",
          "type": "address"
        }
      ],
      "stateMutability": "view",
      "type": "function"
    },
    {
      "inputs": [],
      "name": "data",
      "outputs": [
        {
          "internalType": "string",
          "name": "",
          "type": "string"
        }
      ],
      "stateMutability": "view",
      "type": "function"
    },
    {
      "inputs": [
        {
          "internalType": "address",
          "name": "",
          "type": "address"
        }
      ],
      "name": "endpointIdPair",
      "outputs": [
        {
          "internalType": "uint16",
          "name": "",
          "type": "uint16"
        }
      ],
      "stateMutability": "view",
      "type": "function"
    },
    {
      "inputs": [
        {
          "internalType": "uint16",
          "name": "",
          "type": "uint16"
        },
        {
          "internalType": "bytes",
          "name": "",
          "type": "bytes"
        },
        {
          "internalType": "uint64",
          "name": "",
          "type": "uint64"
        }
      ],
      "name": "failedMessages",
      "outputs": [
        {
          "internalType": "bytes32",
          "name": "",
          "type": "bytes32"
        }
      ],
      "stateMutability": "view",
      "type": "function"
    },
    {
      "inputs": [
        {
          "internalType": "uint16",
          "name": "_srcChainId",
          "type": "uint16"
        },
        {
          "internalType": "bytes",
          "name": "_srcAddress",
          "type": "bytes"
        }
      ],
      "name": "forceResumeReceive",
      "outputs": [],
      "stateMutability": "nonpayable",
      "type": "function"
    },
    {
      "inputs": [],
      "name": "getChainID",
      "outputs": [
        {
          "internalType": "uint256",
          "name": "",
          "type": "uint256"
        }
      ],
      "stateMutability": "view",
      "type": "function"
    },
    {
      "inputs": [
        {
          "internalType": "uint16",
          "name": "_version",
          "type": "uint16"
        },
        {
          "internalType": "uint16",
          "name": "_chainId",
          "type": "uint16"
        },
        {
          "internalType": "address",
          "name": "",
          "type": "address"
        },
        {
          "internalType": "uint256",
          "name": "_configType",
          "type": "uint256"
        }
      ],
      "name": "getConfig",
      "outputs": [
        {
          "internalType": "bytes",
          "name": "",
          "type": "bytes"
        }
      ],
      "stateMutability": "view",
      "type": "function"
    },
    {
      "inputs": [
        {
          "internalType": "uint16",
          "name": "_remoteChainId",
          "type": "uint16"
        }
      ],
      "name": "getTrustedRemoteAddress",
      "outputs": [
        {
          "internalType": "bytes",
          "name": "",
          "type": "bytes"
        }
      ],
      "stateMutability": "view",
      "type": "function"
    },
    {
      "inputs": [
        {
          "internalType": "uint16",
          "name": "_srcChainId",
          "type": "uint16"
        },
        {
          "internalType": "bytes",
          "name": "_srcAddress",
          "type": "bytes"
        }
      ],
      "name": "isTrustedRemote",
      "outputs": [
        {
          "internalType": "bool",
          "name": "",
          "type": "bool"
        }
      ],
      "stateMutability": "view",
      "type": "function"
    },
    {
      "inputs": [],
      "name": "lzEndpoint",
      "outputs": [
        {
          "internalType": "contract ILayerZeroEndpoint",
          "name": "",
          "type": "address"
        }
      ],
      "stateMutability": "view",
      "type": "function"
    },
    {
      "inputs": [
        {
          "internalType": "uint16",
          "name": "_srcChainId",
          "type": "uint16"
        },
        {
          "internalType": "bytes",
          "name": "_srcAddress",
          "type": "bytes"
        },
        {
          "internalType": "uint64",
          "name": "_nonce",
          "type": "uint64"
        },
        {
          "internalType": "bytes",
          "name": "_payload",
          "type": "bytes"
        }
      ],
      "name": "lzReceive",
      "outputs": [],
      "stateMutability": "nonpayable",
      "type": "function"
    },
    {
      "inputs": [
        {
          "internalType": "uint16",
          "name": "",
          "type": "uint16"
        },
        {
          "internalType": "uint16",
          "name": "",
          "type": "uint16"
        }
      ],
      "name": "minDstGasLookup",
      "outputs": [
        {
          "internalType": "uint256",
          "name": "",
          "type": "uint256"
        }
      ],
      "stateMutability": "view",
      "type": "function"
    },
    {
      "inputs": [
        {
          "internalType": "uint16",
          "name": "_srcChainId",
          "type": "uint16"
        },
        {
          "internalType": "bytes",
          "name": "_srcAddress",
          "type": "bytes"
        },
        {
          "internalType": "uint64",
          "name": "_nonce",
          "type": "uint64"
        },
        {
          "internalType": "bytes",
          "name": "_payload",
          "type": "bytes"
        }
      ],
      "name": "nonblockingLzReceive",
      "outputs": [],
      "stateMutability": "nonpayable",
      "type": "function"
    },
    {
      "inputs": [],
      "name": "owner",
      "outputs": [
        {
          "internalType": "address",
          "name": "",
          "type": "address"
        }
      ],
      "stateMutability": "view",
      "type": "function"
    },
    {
      "inputs": [
        {
          "internalType": "uint16",
          "name": "",
          "type": "uint16"
        }
      ],
      "name": "payloadSizeLimitLookup",
      "outputs": [
        {
          "internalType": "uint256",
          "name": "",
          "type": "uint256"
        }
      ],
      "stateMutability": "view",
      "type": "function"
    },
    {
      "inputs": [],
      "name": "precrime",
      "outputs": [
        {
          "internalType": "address",
          "name": "",
          "type": "address"
        }
      ],
      "stateMutability": "view",
      "type": "function"
    },
    {
      "inputs": [],
      "name": "renounceOwnership",
      "outputs": [],
      "stateMutability": "nonpayable",
      "type": "function"
    },
    {
      "inputs": [
        {
          "internalType": "uint16",
          "name": "_srcChainId",
          "type": "uint16"
        },
        {
          "internalType": "bytes",
          "name": "_srcAddress",
          "type": "bytes"
        },
        {
          "internalType": "uint64",
          "name": "_nonce",
          "type": "uint64"
        },
        {
          "internalType": "bytes",
          "name": "_payload",
          "type": "bytes"
        }
      ],
      "name": "retryMessage",
      "outputs": [],
      "stateMutability": "payable",
      "type": "function"
    },
    {
      "inputs": [
        {
          "internalType": "string",
          "name": "_message",
          "type": "string"
        }
      ],
      "name": "send",
      "outputs": [],
      "stateMutability": "payable",
      "type": "function"
    },
    {
      "inputs": [
        {
          "internalType": "uint16",
          "name": "_version",
          "type": "uint16"
        },
        {
          "internalType": "uint16",
          "name": "_chainId",
          "type": "uint16"
        },
        {
          "internalType": "uint256",
          "name": "_configType",
          "type": "uint256"
        },
        {
          "internalType": "bytes",
          "name": "_config",
          "type": "bytes"
        }
      ],
      "name": "setConfig",
      "outputs": [],
      "stateMutability": "nonpayable",
      "type": "function"
    },
    {
      "inputs": [
        {
          "internalType": "uint16",
          "name": "_dstChainId",
          "type": "uint16"
        },
        {
          "internalType": "uint16",
          "name": "_packetType",
          "type": "uint16"
        },
        {
          "internalType": "uint256",
          "name": "_minGas",
          "type": "uint256"
        }
      ],
      "name": "setMinDstGas",
      "outputs": [],
      "stateMutability": "nonpayable",
      "type": "function"
    },
    {
      "inputs": [
        {
          "internalType": "uint16",
          "name": "_dstChainId",
          "type": "uint16"
        },
        {
          "internalType": "uint256",
          "name": "_size",
          "type": "uint256"
        }
      ],
      "name": "setPayloadSizeLimit",
      "outputs": [],
      "stateMutability": "nonpayable",
      "type": "function"
    },
    {
      "inputs": [
        {
          "internalType": "address",
          "name": "_precrime",
          "type": "address"
        }
      ],
      "name": "setPrecrime",
      "outputs": [],
      "stateMutability": "nonpayable",
      "type": "function"
    },
    {
      "inputs": [
        {
          "internalType": "uint16",
          "name": "_version",
          "type": "uint16"
        }
      ],
      "name": "setReceiveVersion",
      "outputs": [],
      "stateMutability": "nonpayable",
      "type": "function"
    },
    {
      "inputs": [
        {
          "internalType": "uint16",
          "name": "_version",
          "type": "uint16"
        }
      ],
      "name": "setSendVersion",
      "outputs": [],
      "stateMutability": "nonpayable",
      "type": "function"
    },
    {
      "inputs": [
        {
          "internalType": "uint16",
          "name": "_remoteChainId",
          "type": "uint16"
        },
        {
          "internalType": "bytes",
          "name": "_path",
          "type": "bytes"
        }
      ],
      "name": "setTrustedRemote",
      "outputs": [],
      "stateMutability": "nonpayable",
      "type": "function"
    },
    {
      "inputs": [
        {
          "internalType": "uint16",
          "name": "_remoteChainId",
          "type": "uint16"
        },
        {
          "internalType": "bytes",
          "name": "_remoteAddress",
          "type": "bytes"
        }
      ],
      "name": "setTrustedRemoteAddress",
      "outputs": [],
      "stateMutability": "nonpayable",
      "type": "function"
    },
    {
      "inputs": [
        {
          "internalType": "address",
          "name": "newOwner",
          "type": "address"
        }
      ],
      "name": "transferOwnership",
      "outputs": [],
      "stateMutability": "nonpayable",
      "type": "function"
    },
    {
      "inputs": [
        {
          "internalType": "address",
          "name": "_otherContract",
          "type": "address"
        }
      ],
      "name": "trustAddress",
      "outputs": [],
      "stateMutability": "nonpayable",
      "type": "function"
    },
    {
      "inputs": [
        {
          "internalType": "uint16",
          "name": "",
          "type": "uint16"
        }
      ],
      "name": "trustedRemoteLookup",
      "outputs": [
        {
          "internalType": "bytes",
          "name": "",
          "type": "bytes"
        }
      ],
      "stateMutability": "view",
      "type": "function"
    }
  ],
  "bytecode": "0x60e0604052601460a09081527f4e6f7468696e672072656365697665642079657400000000000000000000000060c0526006906200003e908262000258565b503480156200004c57600080fd5b50604051620026c4380380620026c48339810160408190526200006f9162000324565b81806200007c33620000dd565b6001600160a01b0390811660805283166000818152600760205260408120805461ffff191661ffff8616179055600880546001600160a01b0319169092179091559050620000c74690565b9050620000d4816200012d565b50505062000374565b600080546001600160a01b038381166001600160a01b0319831681178455604051919092169283917f8be0079c531659141344cd1fd0a4f28419497f9722a3daafe3b4186f6b6457e09190a35050565b62000179816040516024016200014591815260200190565b60408051601f198184030181529190526020810180516001600160e01b0390811663f82c50f160e01b179091526200017c16565b50565b62000179816200019260201b6200134d1760201c565b60006a636f6e736f6c652e6c6f679050600080835160208501845afa505050565b634e487b7160e01b600052604160045260246000fd5b600181811c90821680620001de57607f821691505b602082108103620001ff57634e487b7160e01b600052602260045260246000fd5b50919050565b601f8211156200025357600081815260208120601f850160051c810160208610156200022e5750805b601f850160051c820191505b818110156200024f578281556001016200023a565b5050505b505050565b81516001600160401b03811115620002745762000274620001b3565b6200028c81620002858454620001c9565b8462000205565b602080601f831160018114620002c45760008415620002ab5750858301515b600019600386901b1c1916600185901b1785556200024f565b600085815260208120601f198616915b82811015620002f557888601518255948401946001909101908401620002d4565b5085821015620003145787850151600019600388901b60f8161c191681555b5050505050600190811b01905550565b600080604083850312156200033857600080fd5b82516001600160a01b03811681146200035057600080fd5b602084015190925061ffff811681146200036957600080fd5b809150509250929050565b608051612303620003c160003960008181610476015281816105c801528181610817015281816108bf015281816109e201528181610ed3015281816112cd015261156f01526123036000f3fe6080604052600436106101675760003560e01c80621d35671461016c57806307e0db171461018e5780630df37483146101ae57806310ddb137146101ce5780633d8b38f6146101ee5780633f1f4fa41461022357806342d65a8d1461025e578063564b81ef1461027e5780635b8c41e6146102915780635cdf1649146102e057806366792ba11461030057806366ad5c8a14610313578063715018a61461033357806373d4a13a146103485780637533d7881461036a5780638cfd8f5c1461038a5780638da5cb5b146103c2578063950c8a74146103e45780639f38369a14610404578063a6c3d16514610424578063b00b2d2a14610444578063b353aaa714610464578063b88aea3714610498578063baf3292d146104dc578063c4461834146104fc578063cbed8b9c14610512578063d1deba1f14610532578063df2a5b3b14610545578063eb8d72b714610565578063f2fde38b14610585578063f5ecbdbc146105a5575b600080fd5b34801561017857600080fd5b5061018c610187366004611984565b6105c5565b005b34801561019a57600080fd5b5061018c6101a9366004611a17565b6107f6565b3480156101ba57600080fd5b5061018c6101c9366004611a32565b61087f565b3480156101da57600080fd5b5061018c6101e9366004611a17565b61089e565b3480156101fa57600080fd5b5061020e610209366004611a5c565b6108f6565b60405190151581526020015b60405180910390f35b34801561022f57600080fd5b5061025061023e366004611a17565b60036020526000908152604090205481565b60405190815260200161021a565b34801561026a57600080fd5b5061018c610279366004611a5c565b6109c3565b34801561028a57600080fd5b5046610250565b34801561029d57600080fd5b506102506102ac366004611b59565b6005602090815260009384526040808520845180860184018051928152908401958401959095209452929052825290205481565b3480156102ec57600080fd5b5061018c6102fb366004611be1565b610a49565b61018c61030e366004611bfc565b610abb565b34801561031f57600080fd5b5061018c61032e366004611984565b610b18565b34801561033f57600080fd5b5061018c610bf4565b34801561035457600080fd5b5061035d610c08565b60405161021a9190611c9c565b34801561037657600080fd5b5061035d610385366004611a17565b610c96565b34801561039657600080fd5b506102506103a5366004611caf565b600260209081526000928352604080842090915290825290205481565b3480156103ce57600080fd5b506103d7610caf565b60405161021a9190611ce2565b3480156103f057600080fd5b506004546103d7906001600160a01b031681565b34801561041057600080fd5b5061035d61041f366004611a17565b610cbe565b34801561043057600080fd5b5061018c61043f366004611a5c565b610dcd565b34801561045057600080fd5b506008546103d7906001600160a01b031681565b34801561047057600080fd5b506103d77f000000000000000000000000000000000000000000000000000000000000000081565b3480156104a457600080fd5b506104c96104b3366004611be1565b60076020526000908152604090205461ffff1681565b60405161ffff909116815260200161021a565b3480156104e857600080fd5b5061018c6104f7366004611be1565b610e56565b34801561050857600080fd5b5061025061271081565b34801561051e57600080fd5b5061018c61052d366004611cf6565b610eb4565b61018c610540366004611984565b610f49565b34801561055157600080fd5b5061018c610560366004611d64565b61115f565b34801561057157600080fd5b5061018c610580366004611a5c565b6111c9565b34801561059157600080fd5b5061018c6105a0366004611be1565b611223565b3480156105b157600080fd5b5061035d6105c0366004611da0565b61129c565b337f00000000000000000000000000000000000000000000000000000000000000006001600160a01b0316146106425760405162461bcd60e51b815260206004820152601e60248201527f4c7a4170703a20696e76616c696420656e64706f696e742063616c6c6572000060448201526064015b60405180910390fd5b61ffff86166000908152600160205260408120805461066090611deb565b80601f016020809104026020016040519081016040528092919081815260200182805461068c90611deb565b80156106d95780601f106106ae576101008083540402835291602001916106d9565b820191906000526020600020905b8154815290600101906020018083116106bc57829003601f168201915b505050505090508051868690501480156106f4575060008151115b801561071c5750805160208201206040516107129088908890611e25565b6040518091039020145b6107775760405162461bcd60e51b815260206004820152602660248201527f4c7a4170703a20696e76616c696420736f757263652073656e64696e6720636f6044820152651b9d1c9858dd60d21b6064820152608401610639565b6107ed8787878080601f01602080910402602001604051908101604052809392919081815260200183838082843760009201919091525050604080516020601f8a018190048102820181019092528881528a93509150889088908190840183828082843760009201919091525061136e92505050565b50505050505050565b6107fe6113e7565b6040516307e0db1760e01b815261ffff821660048201527f00000000000000000000000000000000000000000000000000000000000000006001600160a01b0316906307e0db17906024015b600060405180830381600087803b15801561086457600080fd5b505af1158015610878573d6000803e3d6000fd5b5050505050565b6108876113e7565b61ffff909116600090815260036020526040902055565b6108a66113e7565b6040516310ddb13760e01b815261ffff821660048201527f00000000000000000000000000000000000000000000000000000000000000006001600160a01b0316906310ddb1379060240161084a565b61ffff83166000908152600160205260408120805482919061091790611deb565b80601f016020809104026020016040519081016040528092919081815260200182805461094390611deb565b80156109905780601f1061096557610100808354040283529160200191610990565b820191906000526020600020905b81548152906001019060200180831161097357829003601f168201915b5050505050905083836040516109a7929190611e25565b60405180910390208180519060200120149150505b9392505050565b6109cb6113e7565b6040516342d65a8d60e01b81526001600160a01b037f000000000000000000000000000000000000000000000000000000000000000016906342d65a8d90610a1b90869086908690600401611e5e565b600060405180830381600087803b158015610a3557600080fd5b505af11580156107ed573d6000803e3d6000fd5b610a516113e7565b6040516001600160601b0319606083811b8216602084015230901b16603482015260480160408051601f198184030181529181526008546001600160a01b03166000908152600760209081528282205461ffff168252600190522090610ab79082611ed7565b5050565b600081604051602001610ace9190611c9c565b60408051601f198184030181526008546001600160a01b031660009081526007602090815283822054908501909352808452909350610ab79261ffff909216918491339134611446565b333014610b765760405162461bcd60e51b815260206004820152602660248201527f4e6f6e626c6f636b696e674c7a4170703a2063616c6c6572206d7573742062656044820152650204c7a4170760d41b6064820152608401610639565b610bec8686868080601f01602080910402602001604051908101604052809392919081815260200183838082843760009201919091525050604080516020601f8901819004810282018101909252878152899350915087908790819084018382808284376000920191909152506115eb92505050565b505050505050565b610bfc6113e7565b610c06600061160c565b565b60068054610c1590611deb565b80601f0160208091040260200160405190810160405280929190818152602001828054610c4190611deb565b8015610c8e5780601f10610c6357610100808354040283529160200191610c8e565b820191906000526020600020905b815481529060010190602001808311610c7157829003601f168201915b505050505081565b60016020526000908152604090208054610c1590611deb565b6000546001600160a01b031690565b61ffff8116600090815260016020526040812080546060929190610ce190611deb565b80601f0160208091040260200160405190810160405280929190818152602001828054610d0d90611deb565b8015610d5a5780601f10610d2f57610100808354040283529160200191610d5a565b820191906000526020600020905b815481529060010190602001808311610d3d57829003601f168201915b505050505090508051600003610db25760405162461bcd60e51b815260206004820152601d60248201527f4c7a4170703a206e6f20747275737465642070617468207265636f72640000006044820152606401610639565b6109bc600060148351610dc59190611fa6565b83919061165c565b610dd56113e7565b818130604051602001610dea93929190611fbf565b60408051601f1981840301815291815261ffff8516600090815260016020522090610e159082611ed7565b507f8c0400cfe2d1199b1a725c78960bcc2a344d869b80590d0f2bd005db15a572ce838383604051610e4993929190611e5e565b60405180910390a1505050565b610e5e6113e7565b600480546001600160a01b0319166001600160a01b0383161790556040517f5db758e995a17ec1ad84bdef7e8c3293a0bd6179bcce400dff5d4c3d87db726b90610ea9908390611ce2565b60405180910390a150565b610ebc6113e7565b6040516332fb62e760e21b81526001600160a01b037f0000000000000000000000000000000000000000000000000000000000000000169063cbed8b9c90610f109088908890889088908890600401611fe0565b600060405180830381600087803b158015610f2a57600080fd5b505af1158015610f3e573d6000803e3d6000fd5b505050505050505050565b61ffff86166000908152600560205260408082209051610f6c9088908890611e25565b90815260408051602092819003830190206001600160401b03871660009081529252902054905080610fec5760405162461bcd60e51b815260206004820152602360248201527f4e6f6e626c6f636b696e674c7a4170703a206e6f2073746f726564206d65737360448201526261676560e81b6064820152608401610639565b808383604051610ffd929190611e25565b60405180910390201461105c5760405162461bcd60e51b815260206004820152602160248201527f4e6f6e626c6f636b696e674c7a4170703a20696e76616c6964207061796c6f616044820152601960fa1b6064820152608401610639565b61ffff8716600090815260056020526040808220905161107f9089908990611e25565b90815260408051602092819003830181206001600160401b038916600090815290845282902093909355601f88018290048202830182019052868252611117918991899089908190840183828082843760009201919091525050604080516020601f8a018190048102820181019092528881528a9350915088908890819084018382808284376000920191909152506115eb92505050565b7fc264d91f3adc5588250e1551f547752ca0cfa8f6b530d243b9f9f4cab10ea8e5878787878560405161114e959493929190612019565b60405180910390a150505050505050565b6111676113e7565b61ffff83811660008181526002602090815260408083209487168084529482529182902085905581519283528201929092529081018290527f9d5c7c0b934da8fefa9c7760c98383778a12dfbfc0c3b3106518f43fb9508ac090606001610e49565b6111d16113e7565b61ffff831660009081526001602052604090206111ef828483612054565b507ffa41487ad5d6728f0b19276fa1eddc16558578f5109fc39d2dc33c3230470dab838383604051610e4993929190611e5e565b61122b6113e7565b6001600160a01b0381166112905760405162461bcd60e51b815260206004820152602660248201527f4f776e61626c653a206e6577206f776e657220697320746865207a65726f206160448201526564647265737360d01b6064820152608401610639565b6112998161160c565b50565b604051633d7b2f6f60e21b815261ffff808616600483015284166024820152306044820152606481018290526060907f00000000000000000000000000000000000000000000000000000000000000006001600160a01b03169063f5ecbdbc90608401600060405180830381865afa15801561131c573d6000803e3d6000fd5b505050506040513d6000823e601f3d908101601f19168201604052611344919081019061213d565b95945050505050565b60006a636f6e736f6c652e6c6f679050600080835160208501845afa505050565b6000806113d15a60966366ad5c8a60e01b898989896040516024016113969493929190612185565b60408051601f198184030181529190526020810180516001600160e01b03166001600160e01b03199093169290921790915230929190611769565b9150915081610bec57610bec86868686856117f3565b336113f0610caf565b6001600160a01b031614610c065760405162461bcd60e51b815260206004820181905260248201527f4f776e61626c653a2063616c6c6572206973206e6f7420746865206f776e65726044820152606401610639565b61ffff86166000908152600160205260408120805461146490611deb565b80601f016020809104026020016040519081016040528092919081815260200182805461149090611deb565b80156114dd5780601f106114b2576101008083540402835291602001916114dd565b820191906000526020600020905b8154815290600101906020018083116114c057829003601f168201915b50505050509050805160000361154e5760405162461bcd60e51b815260206004820152603060248201527f4c7a4170703a2064657374696e6174696f6e20636861696e206973206e6f742060448201526f61207472757374656420736f7572636560801b6064820152608401610639565b611559878751611890565b60405162c5803160e81b81526001600160a01b037f0000000000000000000000000000000000000000000000000000000000000000169063c58031009084906115b0908b9086908c908c908c908c906004016121c3565b6000604051808303818588803b1580156115c957600080fd5b505af11580156115dd573d6000803e3d6000fd5b505050505050505050505050565b808060200190518101906115ff919061213d565b6006906108789082611ed7565b600080546001600160a01b038381166001600160a01b0319831681178455604051919092169283917f8be0079c531659141344cd1fd0a4f28419497f9722a3daafe3b4186f6b6457e09190a35050565b60608161166a81601f61222a565b10156116a95760405162461bcd60e51b815260206004820152600e60248201526d736c6963655f6f766572666c6f7760901b6044820152606401610639565b6116b3828461222a565b845110156116f75760405162461bcd60e51b8152602060048201526011602482015270736c6963655f6f75744f66426f756e647360781b6044820152606401610639565b6060821580156117165760405191506000825260208201604052611760565b6040519150601f8416801560200281840101858101878315602002848b0101015b8183101561174f578051835260209283019201611737565b5050858452601f01601f1916604052505b50949350505050565b6000606060008060008661ffff166001600160401b0381111561178e5761178e611aae565b6040519080825280601f01601f1916602001820160405280156117b8576020820181803683370190505b50905060008087516020890160008d8df191503d9250868311156117da578692505b828152826000602083013e909890975095505050505050565b8180519060200120600560008761ffff1661ffff16815260200190815260200160002085604051611824919061223d565b9081526040805191829003602090810183206001600160401b0388166000908152915220919091557fe183f33de2837795525b4792ca4cd60535bd77c53b7e7030060bfcf5734d6b0c906118819087908790879087908790612259565b60405180910390a15050505050565b61ffff8216600090815260036020526040812054908190036118b157506127105b808211156119015760405162461bcd60e51b815260206004820181905260248201527f4c7a4170703a207061796c6f61642073697a6520697320746f6f206c617267656044820152606401610639565b505050565b610c066122b7565b803561ffff8116811461192057600080fd5b919050565b60008083601f84011261193757600080fd5b5081356001600160401b0381111561194e57600080fd5b60208301915083602082850101111561196657600080fd5b9250929050565b80356001600160401b038116811461192057600080fd5b6000806000806000806080878903121561199d57600080fd5b6119a68761190e565b955060208701356001600160401b03808211156119c257600080fd5b6119ce8a838b01611925565b90975095508591506119e260408a0161196d565b945060608901359150808211156119f857600080fd5b50611a0589828a01611925565b979a9699509497509295939492505050565b600060208284031215611a2957600080fd5b6109bc8261190e565b60008060408385031215611a4557600080fd5b611a4e8361190e565b946020939093013593505050565b600080600060408486031215611a7157600080fd5b611a7a8461190e565b925060208401356001600160401b03811115611a9557600080fd5b611aa186828701611925565b9497909650939450505050565b634e487b7160e01b600052604160045260246000fd5b604051601f8201601f191681016001600160401b0381118282101715611aec57611aec611aae565b604052919050565b60006001600160401b03821115611b0d57611b0d611aae565b50601f01601f191660200190565b6000611b2e611b2984611af4565b611ac4565b9050828152838383011115611b4257600080fd5b828260208301376000602084830101529392505050565b600080600060608486031215611b6e57600080fd5b611b778461190e565b925060208401356001600160401b03811115611b9257600080fd5b8401601f81018613611ba357600080fd5b611bb286823560208401611b1b565b925050611bc16040850161196d565b90509250925092565b80356001600160a01b038116811461192057600080fd5b600060208284031215611bf357600080fd5b6109bc82611bca565b600060208284031215611c0e57600080fd5b81356001600160401b03811115611c2457600080fd5b8201601f81018413611c3557600080fd5b611c4484823560208401611b1b565b949350505050565b60005b83811015611c67578181015183820152602001611c4f565b50506000910152565b60008151808452611c88816020860160208601611c4c565b601f01601f19169290920160200192915050565b6020815260006109bc6020830184611c70565b60008060408385031215611cc257600080fd5b611ccb8361190e565b9150611cd96020840161190e565b90509250929050565b6001600160a01b0391909116815260200190565b600080600080600060808688031215611d0e57600080fd5b611d178661190e565b9450611d256020870161190e565b93506040860135925060608601356001600160401b03811115611d4757600080fd5b611d5388828901611925565b969995985093965092949392505050565b600080600060608486031215611d7957600080fd5b611d828461190e565b9250611d906020850161190e565b9150604084013590509250925092565b60008060008060808587031215611db657600080fd5b611dbf8561190e565b9350611dcd6020860161190e565b9250611ddb60408601611bca565b9396929550929360600135925050565b600181811c90821680611dff57607f821691505b602082108103611e1f57634e487b7160e01b600052602260045260246000fd5b50919050565b8183823760009101908152919050565b81835281816020850137506000828201602090810191909152601f909101601f19169091010190565b61ffff84168152604060208201526000611344604083018486611e35565b601f82111561190157600081815260208120601f850160051c81016020861015611ea35750805b601f850160051c820191505b81811015610bec57828155600101611eaf565b600019600383901b1c191660019190911b1790565b81516001600160401b03811115611ef057611ef0611aae565b611f0481611efe8454611deb565b84611e7c565b602080601f831160018114611f335760008415611f215750858301515b611f2b8582611ec2565b865550610bec565b600085815260208120601f198616915b82811015611f6257888601518255948401946001909101908401611f43565b5085821015611f805787850151600019600388901b60f8161c191681555b5050505050600190811b01905550565b634e487b7160e01b600052601160045260246000fd5b81810381811115611fb957611fb9611f90565b92915050565b8284823760609190911b6001600160601b0319169101908152601401919050565b600061ffff80881683528087166020840152508460408301526080606083015261200e608083018486611e35565b979650505050505050565b61ffff86168152608060208201526000612037608083018688611e35565b6001600160401b0394909416604083015250606001529392505050565b6001600160401b0383111561206b5761206b611aae565b61207f836120798354611deb565b83611e7c565b6000601f8411600181146120ad576000851561209b5750838201355b6120a58682611ec2565b845550610878565b600083815260209020601f19861690835b828110156120de57868501358255602094850194600190920191016120be565b50868210156120fb5760001960f88860031b161c19848701351681555b505060018560011b0183555050505050565b600061211b611b2984611af4565b905082815283838301111561212f57600080fd5b6109bc836020830184611c4c565b60006020828403121561214f57600080fd5b81516001600160401b0381111561216557600080fd5b8201601f8101841361217657600080fd5b611c448482516020840161210d565b61ffff851681526080602082015260006121a26080830186611c70565b6001600160401b0385166040840152828103606084015261200e8185611c70565b61ffff8716815260c0602082015260006121e060c0830188611c70565b82810360408401526121f28188611c70565b6001600160a01b0387811660608601528616608085015283810360a0850152905061221d8185611c70565b9998505050505050505050565b80820180821115611fb957611fb9611f90565b6000825161224f818460208701611c4c565b9190910192915050565b61ffff8616815260a06020820152600061227660a0830187611c70565b6001600160401b038616604084015282810360608401526122978186611c70565b905082810360808401526122ab8185611c70565b98975050505050505050565b634e487b7160e01b600052605160045260246000fdfea2646970667358221220421c12235a879b914587847f7b683ea3a9c7f28c0600e143e491f4765505b8f264736f6c63430008140033",
  "linkReferences": {},
  "deployedLinkReferences": {}
}