{
  "_format": "hh-sol-artifact-1",
  "contractName": "TokenBridge",
  "sourceName": "contracts/TokenBridge.sol",
  "abi": [
    {
      "inputs": [
        {
          "internalType": "address",
          "name": "_layerZeroEndpoint",
          "type": "address"
        },
        {
          "internalType": "uint16",
          "name": "_aptosChainId",
          "type": "uint16"
        }
      ],
      "stateMutability": "nonpayable",
      "type": "constructor"
    },
    {
      "anonymous": false,
      "inputs": [
        {
          "indexed": false,
          "internalType": "bool",
          "name": "enabled",
          "type": "bool"
        },
        {
          "indexed": false,
          "internalType": "uint256",
          "name": "unlockTime",
          "type": "uint256"
        }
      ],
      "name": "EnableEmergencyWithdraw",
      "type": "event"
    },
    {
      "anonymous": false,
      "inputs": [
        {
          "indexed": false,
          "internalType": "uint16",
          "name": "_srcChainId",
          "type": "uint16"
        },
        {
          "indexed": false,
          "internalType": "bytes",
          "name": "_srcAddress",
          "type": "bytes"
        },
        {
          "indexed": false,
          "internalType": "uint64",
          "name": "_nonce",
          "type": "uint64"
        },
        {
          "indexed": false,
          "internalType": "bytes",
          "name": "_payload",
          "type": "bytes"
        },
        {
          "indexed": false,
          "internalType": "bytes",
          "name": "_reason",
          "type": "bytes"
        }
      ],
      "name": "MessageFailed",
      "type": "event"
    },
    {
      "anonymous": false,
      "inputs": [
        {
          "indexed": true,
          "internalType": "address",
          "name": "previousOwner",
          "type": "address"
        },
        {
          "indexed": true,
          "internalType": "address",
          "name": "newOwner",
          "type": "address"
        }
      ],
      "name": "OwnershipTransferred",
      "type": "event"
    },
    {
      "anonymous": false,
      "inputs": [
        {
          "indexed": true,
          "internalType": "address",
          "name": "token",
          "type": "address"
        },
        {
          "indexed": true,
          "internalType": "address",
          "name": "to",
          "type": "address"
        },
        {
          "indexed": false,
          "internalType": "uint256",
          "name": "amountLD",
          "type": "uint256"
        }
      ],
      "name": "Receive",
      "type": "event"
    },
    {
      "anonymous": false,
      "inputs": [
        {
          "indexed": false,
          "internalType": "address",
          "name": "token",
          "type": "address"
        }
      ],
      "name": "RegisterToken",
      "type": "event"
    },
    {
      "anonymous": false,
      "inputs": [
        {
          "indexed": false,
          "internalType": "uint16",
          "name": "_srcChainId",
          "type": "uint16"
        },
        {
          "indexed": false,
          "internalType": "bytes",
          "name": "_srcAddress",
          "type": "bytes"
        },
        {
          "indexed": false,
          "internalType": "uint64",
          "name": "_nonce",
          "type": "uint64"
        },
        {
          "indexed": false,
          "internalType": "bytes32",
          "name": "_payloadHash",
          "type": "bytes32"
        }
      ],
      "name": "RetryMessageSuccess",
      "type": "event"
    },
    {
      "anonymous": false,
      "inputs": [
        {
          "indexed": true,
          "internalType": "address",
          "name": "token",
          "type": "address"
        },
        {
          "indexed": true,
          "internalType": "address",
          "name": "from",
          "type": "address"
        },
        {
          "indexed": true,
          "internalType": "bytes32",
          "name": "to",
          "type": "bytes32"
        },
        {
          "indexed": false,
          "internalType": "uint256",
          "name": "amountLD",
          "type": "uint256"
        }
      ],
      "name": "Send",
      "type": "event"
    },
    {
      "anonymous": false,
      "inputs": [
        {
          "indexed": false,
          "internalType": "uint16",
          "name": "aptosChainId",
          "type": "uint16"
        }
      ],
      "name": "SetAptosChainId",
      "type": "event"
    },
    {
      "anonymous": false,
      "inputs": [
        {
          "indexed": false,
          "internalType": "uint256",
          "name": "bridgeFeeBP",
          "type": "uint256"
        }
      ],
      "name": "SetBridgeBP",
      "type": "event"
    },
    {
      "anonymous": false,
      "inputs": [
        {
          "indexed": false,
          "internalType": "bool",
          "name": "paused",
          "type": "bool"
        }
      ],
      "name": "SetGlobalPause",
      "type": "event"
    },
    {
      "anonymous": false,
      "inputs": [
        {
          "indexed": false,
          "internalType": "uint16",
          "name": "localChainId",
          "type": "uint16"
        }
      ],
      "name": "SetLocalChainId",
      "type": "event"
    },
    {
      "anonymous": false,
      "inputs": [
        {
          "indexed": false,
          "internalType": "uint16",
          "name": "_dstChainId",
          "type": "uint16"
        },
        {
          "indexed": false,
          "internalType": "uint16",
          "name": "_type",
          "type": "uint16"
        },
        {
          "indexed": false,
          "internalType": "uint256",
          "name": "_minDstGas",
          "type": "uint256"
        }
      ],
      "name": "SetMinDstGas",
      "type": "event"
    },
    {
      "anonymous": false,
      "inputs": [
        {
          "indexed": false,
          "internalType": "address",
          "name": "precrime",
          "type": "address"
        }
      ],
      "name": "SetPrecrime",
      "type": "event"
    },
    {
      "anonymous": false,
      "inputs": [
        {
          "indexed": false,
          "internalType": "address",
          "name": "token",
          "type": "address"
        },
        {
          "indexed": false,
          "internalType": "bool",
          "name": "paused",
          "type": "bool"
        }
      ],
      "name": "SetTokenPause",
      "type": "event"
    },
    {
      "anonymous": false,
      "inputs": [
        {
          "indexed": false,
          "internalType": "uint16",
          "name": "_remoteChainId",
          "type": "uint16"
        },
        {
          "indexed": false,
          "internalType": "bytes",
          "name": "_path",
          "type": "bytes"
        }
      ],
      "name": "SetTrustedRemote",
      "type": "event"
    },
    {
      "anonymous": false,
      "inputs": [
        {
          "indexed": false,
          "internalType": "uint16",
          "name": "_remoteChainId",
          "type": "uint16"
        },
        {
          "indexed": false,
          "internalType": "bytes",
          "name": "_remoteAddress",
          "type": "bytes"
        }
      ],
      "name": "SetTrustedRemoteAddress",
      "type": "event"
    },
    {
      "anonymous": false,
      "inputs": [
        {
          "indexed": false,
          "internalType": "bool",
          "name": "useCustomAdapterParams",
          "type": "bool"
        }
      ],
      "name": "SetUseCustomAdapterParams",
      "type": "event"
    },
    {
      "anonymous": false,
      "inputs": [
        {
          "indexed": false,
          "internalType": "address",
          "name": "weth",
          "type": "address"
        }
      ],
      "name": "SetWETH",
      "type": "event"
    },
    {
      "anonymous": false,
      "inputs": [
        {
          "indexed": true,
          "internalType": "address",
          "name": "token",
          "type": "address"
        },
        {
          "indexed": false,
          "internalType": "address",
          "name": "to",
          "type": "address"
        },
        {
          "indexed": false,
          "internalType": "uint256",
          "name": "amountLD",
          "type": "uint256"
        }
      ],
      "name": "WithdrawFee",
      "type": "event"
    },
    {
      "anonymous": false,
      "inputs": [
        {
          "indexed": true,
          "internalType": "address",
          "name": "token",
          "type": "address"
        },
        {
          "indexed": false,
          "internalType": "address",
          "name": "to",
          "type": "address"
        },
        {
          "indexed": false,
          "internalType": "uint256",
          "name": "amountLD",
          "type": "uint256"
        }
      ],
      "name": "WithdrawTVL",
      "type": "event"
    },
    {
      "inputs": [],
      "name": "BP_DENOMINATOR",
      "outputs": [
        {
          "internalType": "uint256",
          "name": "",
          "type": "uint256"
        }
      ],
      "stateMutability": "view",
      "type": "function"
    },
    {
      "inputs": [],
      "name": "DEFAULT_PAYLOAD_SIZE_LIMIT",
      "outputs": [
        {
          "internalType": "uint256",
          "name": "",
          "type": "uint256"
        }
      ],
      "stateMutability": "view",
      "type": "function"
    },
    {
      "inputs": [],
      "name": "SHARED_DECIMALS",
      "outputs": [
        {
          "internalType": "uint8",
          "name": "",
          "type": "uint8"
        }
      ],
      "stateMutability": "view",
      "type": "function"
    },
    {
      "inputs": [
        {
          "internalType": "address",
          "name": "_token",
          "type": "address"
        }
      ],
      "name": "accruedFeeLD",
      "outputs": [
        {
          "internalType": "uint256",
          "name": "",
          "type": "uint256"
        }
      ],
      "stateMutability": "view",
      "type": "function"
    },
    {
      "inputs": [],
      "name": "aptosChainId",
      "outputs": [
        {
          "internalType": "uint16",
          "name": "",
          "type": "uint16"
        }
      ],
      "stateMutability": "view",
      "type": "function"
    },
    {
      "inputs": [],
      "name": "bridgeFeeBP",
      "outputs": [
        {
          "internalType": "uint256",
          "name": "",
          "type": "uint256"
        }
      ],
      "stateMutability": "view",
      "type": "function"
    },
    {
      "inputs": [],
      "name": "emergencyWithdrawEnabled",
      "outputs": [
        {
          "internalType": "bool",
          "name": "",
          "type": "bool"
        }
      ],
      "stateMutability": "view",
      "type": "function"
    },
    {
      "inputs": [],
      "name": "emergencyWithdrawTime",
      "outputs": [
        {
          "internalType": "uint256",
          "name": "",
          "type": "uint256"
        }
      ],
      "stateMutability": "view",
      "type": "function"
    },
    {
      "inputs": [
        {
          "internalType": "bool",
          "name": "enabled",
          "type": "bool"
        }
      ],
      "name": "enableEmergencyWithdraw",
      "outputs": [],
      "stateMutability": "nonpayable",
      "type": "function"
    },
    {
      "inputs": [
        {
          "internalType": "uint16",
          "name": "",
          "type": "uint16"
        },
        {
          "internalType": "bytes",
          "name": "",
          "type": "bytes"
        },
        {
          "internalType": "uint64",
          "name": "",
          "type": "uint64"
        }
      ],
      "name": "failedMessages",
      "outputs": [
        {
          "internalType": "bytes32",
          "name": "",
          "type": "bytes32"
        }
      ],
      "stateMutability": "view",
      "type": "function"
    },
    {
      "inputs": [
        {
          "internalType": "uint16",
          "name": "_srcChainId",
          "type": "uint16"
        },
        {
          "internalType": "bytes",
          "name": "_srcAddress",
          "type": "bytes"
        }
      ],
      "name": "forceResumeReceive",
      "outputs": [],
      "stateMutability": "nonpayable",
      "type": "function"
    },
    {
      "inputs": [
        {
          "internalType": "uint16",
          "name": "_version",
          "type": "uint16"
        },
        {
          "internalType": "uint16",
          "name": "_chainId",
          "type": "uint16"
        },
        {
          "internalType": "address",
          "name": "",
          "type": "address"
        },
        {
          "internalType": "uint256",
          "name": "_configType",
          "type": "uint256"
        }
      ],
      "name": "getConfig",
      "outputs": [
        {
          "internalType": "bytes",
          "name": "",
          "type": "bytes"
        }
      ],
      "stateMutability": "view",
      "type": "function"
    },
    {
      "inputs": [
        {
          "internalType": "uint16",
          "name": "_remoteChainId",
          "type": "uint16"
        }
      ],
      "name": "getTrustedRemoteAddress",
      "outputs": [
        {
          "internalType": "bytes",
          "name": "",
          "type": "bytes"
        }
      ],
      "stateMutability": "view",
      "type": "function"
    },
    {
      "inputs": [],
      "name": "globalPaused",
      "outputs": [
        {
          "internalType": "bool",
          "name": "",
          "type": "bool"
        }
      ],
      "stateMutability": "view",
      "type": "function"
    },
    {
      "inputs": [
        {
          "internalType": "uint16",
          "name": "_srcChainId",
          "type": "uint16"
        },
        {
          "internalType": "bytes",
          "name": "_srcAddress",
          "type": "bytes"
        }
      ],
      "name": "isTrustedRemote",
      "outputs": [
        {
          "internalType": "bool",
          "name": "",
          "type": "bool"
        }
      ],
      "stateMutability": "view",
      "type": "function"
    },
    {
      "inputs": [
        {
          "internalType": "address",
          "name": "",
          "type": "address"
        }
      ],
      "name": "ld2sdRates",
      "outputs": [
        {
          "internalType": "uint256",
          "name": "",
          "type": "uint256"
        }
      ],
      "stateMutability": "view",
      "type": "function"
    },
    {
      "inputs": [],
      "name": "lzEndpoint",
      "outputs": [
        {
          "internalType": "contract ILayerZeroEndpoint",
          "name": "",
          "type": "address"
        }
      ],
      "stateMutability": "view",
      "type": "function"
    },
    {
      "inputs": [
        {
          "internalType": "uint16",
          "name": "_srcChainId",
          "type": "uint16"
        },
        {
          "internalType": "bytes",
          "name": "_srcAddress",
          "type": "bytes"
        },
        {
          "internalType": "uint64",
          "name": "_nonce",
          "type": "uint64"
        },
        {
          "internalType": "bytes",
          "name": "_payload",
          "type": "bytes"
        }
      ],
      "name": "lzReceive",
      "outputs": [],
      "stateMutability": "nonpayable",
      "type": "function"
    },
    {
      "inputs": [
        {
          "internalType": "uint16",
          "name": "",
          "type": "uint16"
        },
        {
          "internalType": "uint16",
          "name": "",
          "type": "uint16"
        }
      ],
      "name": "minDstGasLookup",
      "outputs": [
        {
          "internalType": "uint256",
          "name": "",
          "type": "uint256"
        }
      ],
      "stateMutability": "view",
      "type": "function"
    },
    {
      "inputs": [
        {
          "internalType": "uint16",
          "name": "_srcChainId",
          "type": "uint16"
        },
        {
          "internalType": "bytes",
          "name": "_srcAddress",
          "type": "bytes"
        },
        {
          "internalType": "uint64",
          "name": "_nonce",
          "type": "uint64"
        },
        {
          "internalType": "bytes",
          "name": "_payload",
          "type": "bytes"
        }
      ],
      "name": "nonblockingLzReceive",
      "outputs": [],
      "stateMutability": "nonpayable",
      "type": "function"
    },
    {
      "inputs": [],
      "name": "owner",
      "outputs": [
        {
          "internalType": "address",
          "name": "",
          "type": "address"
        }
      ],
      "stateMutability": "view",
      "type": "function"
    },
    {
      "inputs": [
        {
          "internalType": "address",
          "name": "",
          "type": "address"
        }
      ],
      "name": "pausedTokens",
      "outputs": [
        {
          "internalType": "bool",
          "name": "",
          "type": "bool"
        }
      ],
      "stateMutability": "view",
      "type": "function"
    },
    {
      "inputs": [
        {
          "internalType": "uint16",
          "name": "",
          "type": "uint16"
        }
      ],
      "name": "payloadSizeLimitLookup",
      "outputs": [
        {
          "internalType": "uint256",
          "name": "",
          "type": "uint256"
        }
      ],
      "stateMutability": "view",
      "type": "function"
    },
    {
      "inputs": [],
      "name": "precrime",
      "outputs": [
        {
          "internalType": "address",
          "name": "",
          "type": "address"
        }
      ],
      "stateMutability": "view",
      "type": "function"
    },
    {
      "inputs": [
        {
          "components": [
            {
              "internalType": "address payable",
              "name": "refundAddress",
              "type": "address"
            },
            {
              "internalType": "address",
              "name": "zroPaymentAddress",
              "type": "address"
            }
          ],
          "internalType": "struct LzLib.CallParams",
          "name": "_callParams",
          "type": "tuple"
        },
        {
          "internalType": "bytes",
          "name": "_adapterParams",
          "type": "bytes"
        }
      ],
      "name": "quoteForSend",
      "outputs": [
        {
          "internalType": "uint256",
          "name": "nativeFee",
          "type": "uint256"
        },
        {
          "internalType": "uint256",
          "name": "zroFee",
          "type": "uint256"
        }
      ],
      "stateMutability": "view",
      "type": "function"
    },
    {
      "inputs": [
        {
          "internalType": "address",
          "name": "_token",
          "type": "address"
        }
      ],
      "name": "registerToken",
      "outputs": [],
      "stateMutability": "nonpayable",
      "type": "function"
    },
    {
      "inputs": [],
      "name": "renounceOwnership",
      "outputs": [],
      "stateMutability": "nonpayable",
      "type": "function"
    },
    {
      "inputs": [
        {
          "internalType": "uint16",
          "name": "_srcChainId",
          "type": "uint16"
        },
        {
          "internalType": "bytes",
          "name": "_srcAddress",
          "type": "bytes"
        },
        {
          "internalType": "uint64",
          "name": "_nonce",
          "type": "uint64"
        },
        {
          "internalType": "bytes",
          "name": "_payload",
          "type": "bytes"
        }
      ],
      "name": "retryMessage",
      "outputs": [],
      "stateMutability": "payable",
      "type": "function"
    },
    {
      "inputs": [
        {
          "internalType": "bytes32",
          "name": "_toAddress",
          "type": "bytes32"
        },
        {
          "internalType": "uint256",
          "name": "_amountLD",
          "type": "uint256"
        },
        {
          "components": [
            {
              "internalType": "address payable",
              "name": "refundAddress",
              "type": "address"
            },
            {
              "internalType": "address",
              "name": "zroPaymentAddress",
              "type": "address"
            }
          ],
          "internalType": "struct LzLib.CallParams",
          "name": "_callParams",
          "type": "tuple"
        },
        {
          "internalType": "bytes",
          "name": "_adapterParams",
          "type": "bytes"
        }
      ],
      "name": "sendETHToAptos",
      "outputs": [],
      "stateMutability": "payable",
      "type": "function"
    },
    {
      "inputs": [
        {
          "internalType": "address",
          "name": "_token",
          "type": "address"
        },
        {
          "internalType": "bytes32",
          "name": "_toAddress",
          "type": "bytes32"
        },
        {
          "internalType": "uint256",
          "name": "_amountLD",
          "type": "uint256"
        },
        {
          "components": [
            {
              "internalType": "address payable",
              "name": "refundAddress",
              "type": "address"
            },
            {
              "internalType": "address",
              "name": "zroPaymentAddress",
              "type": "address"
            }
          ],
          "internalType": "struct LzLib.CallParams",
          "name": "_callParams",
          "type": "tuple"
        },
        {
          "internalType": "bytes",
          "name": "_adapterParams",
          "type": "bytes"
        }
      ],
      "name": "sendToAptos",
      "outputs": [],
      "stateMutability": "payable",
      "type": "function"
    },
    {
      "inputs": [
        {
          "internalType": "uint16",
          "name": "_aptosChainId",
          "type": "uint16"
        }
      ],
      "name": "setAptosChainId",
      "outputs": [],
      "stateMutability": "nonpayable",
      "type": "function"
    },
    {
      "inputs": [
        {
          "internalType": "uint256",
          "name": "_bridgeFeeBP",
          "type": "uint256"
        }
      ],
      "name": "setBridgeFeeBP",
      "outputs": [],
      "stateMutability": "nonpayable",
      "type": "function"
    },
    {
      "inputs": [
        {
          "internalType": "uint16",
          "name": "_version",
          "type": "uint16"
        },
        {
          "internalType": "uint16",
          "name": "_chainId",
          "type": "uint16"
        },
        {
          "internalType": "uint256",
          "name": "_configType",
          "type": "uint256"
        },
        {
          "internalType": "bytes",
          "name": "_config",
          "type": "bytes"
        }
      ],
      "name": "setConfig",
      "outputs": [],
      "stateMutability": "nonpayable",
      "type": "function"
    },
    {
      "inputs": [
        {
          "internalType": "bool",
          "name": "_paused",
          "type": "bool"
        }
      ],
      "name": "setGlobalPause",
      "outputs": [],
      "stateMutability": "nonpayable",
      "type": "function"
    },
    {
      "inputs": [
        {
          "internalType": "uint16",
          "name": "_dstChainId",
          "type": "uint16"
        },
        {
          "internalType": "uint16",
          "name": "_packetType",
          "type": "uint16"
        },
        {
          "internalType": "uint256",
          "name": "_minGas",
          "type": "uint256"
        }
      ],
      "name": "setMinDstGas",
      "outputs": [],
      "stateMutability": "nonpayable",
      "type": "function"
    },
    {
      "inputs": [
        {
          "internalType": "uint16",
          "name": "_dstChainId",
          "type": "uint16"
        },
        {
          "internalType": "uint256",
          "name": "_size",
          "type": "uint256"
        }
      ],
      "name": "setPayloadSizeLimit",
      "outputs": [],
      "stateMutability": "nonpayable",
      "type": "function"
    },
    {
      "inputs": [
        {
          "internalType": "address",
          "name": "_precrime",
          "type": "address"
        }
      ],
      "name": "setPrecrime",
      "outputs": [],
      "stateMutability": "nonpayable",
      "type": "function"
    },
    {
      "inputs": [
        {
          "internalType": "uint16",
          "name": "_version",
          "type": "uint16"
        }
      ],
      "name": "setReceiveVersion",
      "outputs": [],
      "stateMutability": "nonpayable",
      "type": "function"
    },
    {
      "inputs": [
        {
          "internalType": "uint16",
          "name": "_version",
          "type": "uint16"
        }
      ],
      "name": "setSendVersion",
      "outputs": [],
      "stateMutability": "nonpayable",
      "type": "function"
    },
    {
      "inputs": [
        {
          "internalType": "address",
          "name": "_token",
          "type": "address"
        },
        {
          "internalType": "bool",
          "name": "_paused",
          "type": "bool"
        }
      ],
      "name": "setTokenPause",
      "outputs": [],
      "stateMutability": "nonpayable",
      "type": "function"
    },
    {
      "inputs": [
        {
          "internalType": "uint16",
          "name": "_remoteChainId",
          "type": "uint16"
        },
        {
          "internalType": "bytes",
          "name": "_path",
          "type": "bytes"
        }
      ],
      "name": "setTrustedRemote",
      "outputs": [],
      "stateMutability": "nonpayable",
      "type": "function"
    },
    {
      "inputs": [
        {
          "internalType": "uint16",
          "name": "_remoteChainId",
          "type": "uint16"
        },
        {
          "internalType": "bytes",
          "name": "_remoteAddress",
          "type": "bytes"
        }
      ],
      "name": "setTrustedRemoteAddress",
      "outputs": [],
      "stateMutability": "nonpayable",
      "type": "function"
    },
    {
      "inputs": [
        {
          "internalType": "bool",
          "name": "_useCustomAdapterParams",
          "type": "bool"
        }
      ],
      "name": "setUseCustomAdapterParams",
      "outputs": [],
      "stateMutability": "nonpayable",
      "type": "function"
    },
    {
      "inputs": [
        {
          "internalType": "address",
          "name": "_weth",
          "type": "address"
        }
      ],
      "name": "setWETH",
      "outputs": [],
      "stateMutability": "nonpayable",
      "type": "function"
    },
    {
      "inputs": [
        {
          "internalType": "address",
          "name": "",
          "type": "address"
        }
      ],
      "name": "supportedTokens",
      "outputs": [
        {
          "internalType": "bool",
          "name": "",
          "type": "bool"
        }
      ],
      "stateMutability": "view",
      "type": "function"
    },
    {
      "inputs": [
        {
          "internalType": "address",
          "name": "newOwner",
          "type": "address"
        }
      ],
      "name": "transferOwnership",
      "outputs": [],
      "stateMutability": "nonpayable",
      "type": "function"
    },
    {
      "inputs": [
        {
          "internalType": "uint16",
          "name": "",
          "type": "uint16"
        }
      ],
      "name": "trustedRemoteLookup",
      "outputs": [
        {
          "internalType": "bytes",
          "name": "",
          "type": "bytes"
        }
      ],
      "stateMutability": "view",
      "type": "function"
    },
    {
      "inputs": [
        {
          "internalType": "address",
          "name": "",
          "type": "address"
        }
      ],
      "name": "tvlSDs",
      "outputs": [
        {
          "internalType": "uint64",
          "name": "",
          "type": "uint64"
        }
      ],
      "stateMutability": "view",
      "type": "function"
    },
    {
      "inputs": [],
      "name": "useCustomAdapterParams",
      "outputs": [
        {
          "internalType": "bool",
          "name": "",
          "type": "bool"
        }
      ],
      "stateMutability": "view",
      "type": "function"
    },
    {
      "inputs": [],
      "name": "weth",
      "outputs": [
        {
          "internalType": "address",
          "name": "",
          "type": "address"
        }
      ],
      "stateMutability": "view",
      "type": "function"
    },
    {
      "inputs": [
        {
          "internalType": "address",
          "name": "_token",
          "type": "address"
        },
        {
          "internalType": "address",
          "name": "_to",
          "type": "address"
        }
      ],
      "name": "withdrawEmergency",
      "outputs": [],
      "stateMutability": "nonpayable",
      "type": "function"
    },
    {
      "inputs": [
        {
          "internalType": "address",
          "name": "_token",
          "type": "address"
        },
        {
          "internalType": "address",
          "name": "_to",
          "type": "address"
        },
        {
          "internalType": "uint256",
          "name": "_amountLD",
          "type": "uint256"
        }
      ],
      "name": "withdrawFee",
      "outputs": [],
      "stateMutability": "nonpayable",
      "type": "function"
    },
    {
      "inputs": [
        {
          "internalType": "address",
          "name": "_token",
          "type": "address"
        },
        {
          "internalType": "address",
          "name": "_to",
          "type": "address"
        },
        {
          "internalType": "uint64",
          "name": "_amountSD",
          "type": "uint64"
        }
      ],
      "name": "withdrawTVL",
      "outputs": [],
      "stateMutability": "nonpayable",
      "type": "function"
    },
    {
      "stateMutability": "payable",
      "type": "receive"
    }
  ],
  "bytecode": "0x60a06040523480156200001157600080fd5b50604051620046e1380380620046e18339810160408190526200003491620000c0565b8180620000413362000070565b6001600160a01b03166080525060016006556007805461ffff191661ffff929092169190911790555062000110565b600080546001600160a01b038381166001600160a01b0319831681178455604051919092169283917f8be0079c531659141344cd1fd0a4f28419497f9722a3daafe3b4186f6b6457e09190a35050565b60008060408385031215620000d457600080fd5b82516001600160a01b0381168114620000ec57600080fd5b602084015190925061ffff811681146200010557600080fd5b809150509250929050565b60805161457d620001646000396000818161077901528181610a5401528181610c9c01528181610f86015281816110a60152818161116001528181611d84015281816122490152613319015261457d6000f3fe60806040526004361061025c5760003560e01c80620d5900146102685780621d35671461028a57806307e0db17146102aa57806309824a80146102ca5780630df37483146102ea5780631095b6d71461030a57806310ddb1371461032a57806325a9f7921461034a5780632db88ecf146103735780633d8b38f61461039b5780633f1f4fa4146103cb5780633fc8cef3146103f857806342d65a8d14610425578063468b9668146104455780635747e69f1461047a5780635b769f3c1461049b5780635b8c41e6146104bb57806361a552dc1461050a57806366ad5c8a1461052b57806368c4ac261461054b57806369a6b3db1461057b578063715018a61461059b5780637533d788146105b057806376a9099a146105dd5780638cfd8f5c146105f05780638da5cb5b1461062857806392cc13c51461063d57806393f26a4c1461066a578063950c8a741461068a57806395e2c168146106aa57806397167964146106ca5780639f38369a146106f1578063a2f27ae014610711578063a6c3d16514610731578063abe685cd14610751578063b353aaa714610767578063baf3292d1461079b578063c21f5114146107bb578063c446183414610751578063ca23bb4c146107db578063cb8d3b1f146107ee578063cbed8b9c1461080e578063d1deba1f1461082e578063d71e409e14610841578063de9b948814610861578063df2a5b3b14610877578063e3179c3e14610897578063eab45d9c146108e5578063eb8d72b714610905578063ed629c5c14610925578063ee7a459614610946578063f2fde38b14610976578063f5ecbdbc1461099657600080fd5b3661026357005b600080fd5b34801561027457600080fd5b506102886102833660046135e9565b6109b6565b005b34801561029657600080fd5b506102886102a5366004613678565b610a51565b3480156102b657600080fd5b506102886102c536600461370b565b610c7d565b3480156102d657600080fd5b506102886102e536600461373b565b610d06565b3480156102f657600080fd5b50610288610305366004613758565b610eb6565b34801561031657600080fd5b50610288610325366004613782565b610ed5565b34801561033657600080fd5b5061028861034536600461370b565b610f67565b34801561035657600080fd5b5061036060085481565b6040519081526020015b60405180910390f35b34801561037f57600080fd5b5060075461038e9061ffff1681565b60405161036a91906137c3565b3480156103a757600080fd5b506103bb6103b63660046137d2565b610fbb565b604051901515815260200161036a565b3480156103d757600080fd5b506103606103e636600461370b565b60036020526000908152604090205481565b34801561040457600080fd5b50600d54610418906001600160a01b031681565b60405161036a9190613824565b34801561043157600080fd5b506102886104403660046137d2565b611087565b34801561045157600080fd5b50610465610460366004613850565b61110d565b6040805192835260208301919091520161036a565b34801561048657600080fd5b50600d546103bb90600160b01b900460ff1681565b3480156104a757600080fd5b506102886104b636600461373b565b6111f4565b3480156104c757600080fd5b506103606104d63660046138f7565b6005602090815260009384526040808520845180860184018051928152908401958401959095209452929052825290205481565b34801561051657600080fd5b50600d546103bb90600160a81b900460ff1681565b34801561053757600080fd5b50610288610546366004613678565b61126d565b34801561055757600080fd5b506103bb61056636600461373b565b600a6020526000908152604090205460ff1681565b34801561058757600080fd5b506102886105963660046139a5565b611349565b3480156105a757600080fd5b5061028861139e565b3480156105bc57600080fd5b506105d06105cb36600461370b565b6113a8565b60405161036a9190613a1a565b6102886105eb366004613a2d565b611442565b3480156105fc57600080fd5b5061036061060b366004613a95565b600260209081526000928352604080842090915290825290205481565b34801561063457600080fd5b50610418611613565b34801561064957600080fd5b5061036061065836600461373b565b600c6020526000908152604090205481565b34801561067657600080fd5b50610288610685366004613ac8565b611622565b34801561069657600080fd5b50600454610418906001600160a01b031681565b3480156106b657600080fd5b506102886106c5366004613b01565b61166b565b3480156106d657600080fd5b506106df600681565b60405160ff909116815260200161036a565b3480156106fd57600080fd5b506105d061070c36600461370b565b61179b565b34801561071d57600080fd5b5061036061072c36600461373b565b6118b1565b34801561073d57600080fd5b5061028861074c3660046137d2565b61195a565b34801561075d57600080fd5b5061036061271081565b34801561077357600080fd5b506104187f000000000000000000000000000000000000000000000000000000000000000081565b3480156107a757600080fd5b506102886107b636600461373b565b6119e3565b3480156107c757600080fd5b506102886107d636600461370b565b611a36565b6102886107e9366004613b3f565b611a7f565b3480156107fa57600080fd5b50610288610809366004613ba7565b611d01565b34801561081a57600080fd5b50610288610829366004613bd5565b611d65565b61028861083c366004613678565b611dfa565b34801561084d57600080fd5b5061028861085c3660046139a5565b612010565b34801561086d57600080fd5b50610360600e5481565b34801561088357600080fd5b50610288610892366004613c26565b612086565b3480156108a357600080fd5b506108cd6108b236600461373b565b6009602052600090815260409020546001600160401b031681565b6040516001600160401b03909116815260200161036a565b3480156108f157600080fd5b506102886109003660046139a5565b6120f0565b34801561091157600080fd5b506102886109203660046137d2565b612145565b34801561093157600080fd5b50600d546103bb90600160a01b900460ff1681565b34801561095257600080fd5b506103bb61096136600461373b565b600b6020526000908152604090205460ff1681565b34801561098257600080fd5b5061028861099136600461373b565b61219f565b3480156109a257600080fd5b506105d06109b1366004613c62565b612218565b6109be6122cb565b612710811115610a155760405162461bcd60e51b815260206004820152601e60248201527f546f6b656e4272696467653a2062726964676520666565203e2031303025000060448201526064015b60405180910390fd5b60088190556040518181527f9a749c8193bfd56b2b2a05c0bd18fbb0f69801a3fd6576c40b90537fd0fc3854906020015b60405180910390a150565b337f00000000000000000000000000000000000000000000000000000000000000006001600160a01b031614610ac95760405162461bcd60e51b815260206004820152601e60248201527f4c7a4170703a20696e76616c696420656e64706f696e742063616c6c657200006044820152606401610a0c565b61ffff861660009081526001602052604081208054610ae790613caf565b80601f0160208091040260200160405190810160405280929190818152602001828054610b1390613caf565b8015610b605780601f10610b3557610100808354040283529160200191610b60565b820191906000526020600020905b815481529060010190602001808311610b4357829003601f168201915b50505050509050805186869050148015610b7b575060008151115b8015610ba3575080516020820120604051610b999088908890613ce3565b6040518091039020145b610bfe5760405162461bcd60e51b815260206004820152602660248201527f4c7a4170703a20696e76616c696420736f757263652073656e64696e6720636f6044820152651b9d1c9858dd60d21b6064820152608401610a0c565b610c748787878080601f01602080910402602001604051908101604052809392919081815260200183838082843760009201919091525050604080516020601f8a018190048102820181019092528881528a93509150889088908190840183828082843760009201919091525061232a92505050565b50505050505050565b610c856122cb565b6040516307e0db1760e01b81526001600160a01b037f000000000000000000000000000000000000000000000000000000000000000016906307e0db1790610cd19084906004016137c3565b600060405180830381600087803b158015610ceb57600080fd5b505af1158015610cff573d6000803e3d6000fd5b5050505050565b610d0e6122cb565b6001600160a01b038116610d345760405162461bcd60e51b8152600401610a0c90613cf3565b6001600160a01b0381166000908152600a602052604090205460ff1615610dab5760405162461bcd60e51b815260206004820152602560248201527f546f6b656e4272696467653a20746f6b656e20616c72656164792072656769736044820152641d195c995960da1b6064820152608401610a0c565b6000610db6826123a3565b9050600660ff82161015610e255760405162461bcd60e51b815260206004820152603060248201527f546f6b656e4272696467653a20646563696d616c73206d757374206265203e3d60448201526f205348415245445f444543494d414c5360801b6064820152608401610a0c565b6001600160a01b0382166000908152600a60205260409020805460ff19166001179055610e53600682613d4b565b610e5e90600a613e52565b6001600160a01b0383166000908152600c60205260409081902091909155517ff7fe8023cb2e36bde1d59a88ac5763a8c11be6d25e6819f71bb7e23e5bf0dc1690610eaa908490613824565b60405180910390a15050565b610ebe6122cb565b61ffff909116600090815260036020526040902055565b610edd6122cb565b6000610ee8846118b1565b905080821115610f0a5760405162461bcd60e51b8152600401610a0c90613e61565b610f1e6001600160a01b03851684846124a1565b836001600160a01b03167ff15a0a3784dea9b4fe33bc98e2450745e262d310237b2868ea8ef56967ff3ecb8484604051610f59929190613e96565b60405180910390a250505050565b610f6f6122cb565b6040516310ddb13760e01b81526001600160a01b037f000000000000000000000000000000000000000000000000000000000000000016906310ddb13790610cd19084906004016137c3565b61ffff831660009081526001602052604081208054829190610fdc90613caf565b80601f016020809104026020016040519081016040528092919081815260200182805461100890613caf565b80156110555780601f1061102a57610100808354040283529160200191611055565b820191906000526020600020905b81548152906001019060200180831161103857829003601f168201915b50505050509050838360405161106c929190613ce3565b60405180910390208180519060200120149150509392505050565b61108f6122cb565b6040516342d65a8d60e01b81526001600160a01b037f000000000000000000000000000000000000000000000000000000000000000016906342d65a8d906110df90869086908690600401613ed8565b600060405180830381600087803b1580156110f957600080fd5b505af1158015610c74573d6000803e3d6000fd5b60008061111a84846124fc565b60006111278180806125b8565b905060008061113c6040890160208a0161373b565b60075460405163040a7bb160e41b81526001600160a01b03928316939093141593507f0000000000000000000000000000000000000000000000000000000000000000909116916340a7bb10916111a69161ffff909116903090879087908d908d90600401613ef6565b6040805180830381865afa1580156111c2573d6000803e3d6000fd5b505050506040513d601f19601f820116820180604052508101906111e69190613f4c565b935093505050935093915050565b6111fc6122cb565b6001600160a01b0381166112225760405162461bcd60e51b8152600401610a0c90613cf3565b600d80546001600160a01b0319166001600160a01b0383161790556040517fe390bcec6614d6b1f8ae47a4d9d46531ce328e3d293ecd6ddd015cb01eff030090610a46908390613824565b3330146112cb5760405162461bcd60e51b815260206004820152602660248201527f4e6f6e626c6f636b696e674c7a4170703a2063616c6c6572206d7573742062656044820152650204c7a4170760d41b6064820152608401610a0c565b6113418686868080601f01602080910402602001604051908101604052809392919081815260200183838082843760009201919091525050604080516020601f89018190048102820181019092528781528993509150879087908190840183828082843760009201919091525061260292505050565b505050505050565b6113516122cb565b600d8054821515600160a81b0260ff60a81b199091161790556040517f5362d4bd13945e8d116b90d83a7050fa61ceb02bb79bfae783377adb46916d9490610a4690831515815260200190565b6113a66122cb565b565b600160205260009081526040902080546113c190613caf565b80601f01602080910402602001604051908101604052809291908181526020018280546113ed90613caf565b801561143a5780601f1061140f5761010080835404028352916020019161143a565b820191906000526020600020905b81548152906001019060200180831161141d57829003601f168201915b505050505081565b600d548690600160a81b900460ff1615801561147757506001600160a01b0381166000908152600b602052604090205460ff16155b6114935760405162461bcd60e51b8152600401610a0c90613f70565b61149b6128d5565b6001600160a01b0387166000908152600a602052604090205460ff166114d35760405162461bcd60e51b8152600401610a0c90613f9d565b6114dd878661292e565b94506114ea87338761294c565b945060006114f88887612a59565b90506000816001600160401b0316116115685760405162461bcd60e51b815260206004820152602c60248201527f546f6b656e4272696467653a20616d6f756e745344206d75737420626520677260448201526b06561746572207468616e20360a41b6064820152608401610a0c565b6001600160a01b038816600090815260096020526040812080548392906115999084906001600160401b0316613fe0565b92506101000a8154816001600160401b0302191690836001600160401b031602179055506115cc88888388888834612ad7565b86336001600160a01b0316896001600160a01b03166000805160206145088339815191528960405161160091815260200190565b60405180910390a450610c746001600655565b6000546001600160a01b031690565b61162a6122cb565b6116388282610325856118b1565b6001600160a01b03821660009081526009602052604090205461166790839083906001600160401b031661166b565b5050565b6116736122cb565b600d54600160b01b900460ff16801561168e5750600e544210155b6116e95760405162461bcd60e51b815260206004820152602660248201527f546f6b656e4272696467653a20656d657267656e6379207769746864726177206044820152651b1bd8dad95960d21b6064820152608401610a0c565b6001600160a01b0383166000908152600960205260408120805483929061171a9084906001600160401b031661400b565b92506101000a8154816001600160401b0302191690836001600160401b03160217905550600061174a8483612b62565b90506117606001600160a01b03851684836124a1565b836001600160a01b03167f49507695f37b729944475cf3388760a14760fef784b7ab5ca8863a5f3f8be6bd8483604051610f59929190613e96565b61ffff81166000908152600160205260408120805460609291906117be90613caf565b80601f01602080910402602001604051908101604052809291908181526020018280546117ea90613caf565b80156118375780601f1061180c57610100808354040283529160200191611837565b820191906000526020600020905b81548152906001019060200180831161181a57829003601f168201915b50505050509050805160000361188f5760405162461bcd60e51b815260206004820152601d60248201527f4c7a4170703a206e6f20747275737465642070617468207265636f72640000006044820152606401610a0c565b6118aa6000601483516118a29190614033565b839190612b8e565b9392505050565b6001600160a01b03811660009081526009602052604081205481906118e09084906001600160401b0316612b62565b905080836001600160a01b03166370a08231306040518263ffffffff1660e01b815260040161190f9190613824565b602060405180830381865afa15801561192c573d6000803e3d6000fd5b505050506040513d601f19601f82011682018060405250810190611950919061404a565b6118aa9190614033565b6119626122cb565b81813060405160200161197793929190614063565b60408051601f1981840301815291815261ffff85166000908152600160205220906119a290826140df565b507f8c0400cfe2d1199b1a725c78960bcc2a344d869b80590d0f2bd005db15a572ce8383836040516119d693929190613ed8565b60405180910390a1505050565b6119eb6122cb565b600480546001600160a01b0319166001600160a01b0383161790556040517f5db758e995a17ec1ad84bdef7e8c3293a0bd6179bcce400dff5d4c3d87db726b90610a46908390613824565b611a3e6122cb565b6007805461ffff191661ffff83161790556040517f6a9ea26cc7efedf0df6fd048e06f3de4be1a978bb5d440277147c76e1c0eb75a90610a469083906137c3565b600d546001600160a01b03811690600160a81b900460ff16158015611abd57506001600160a01b0381166000908152600b602052604090205460ff16155b611ad95760405162461bcd60e51b8152600401610a0c90613f70565b611ae16128d5565b600d546001600160a01b03168015801590611b1457506001600160a01b0381166000908152600a602052604090205460ff165b611b6a5760405162461bcd60e51b815260206004820152602160248201527f546f6b656e4272696467653a20455448206973206e6f7420737570706f7274656044820152601960fa1b6064820152608401610a0c565b611b74818761292e565b955060008611611bd95760405162461bcd60e51b815260206004820152602a60248201527f546f6b656e4272696467653a20616d6f756e74206d75737420626520677265616044820152690746572207468616e20360b41b6064820152608401610a0c565b85341015611bf95760405162461bcd60e51b8152600401610a0c90613e61565b806001600160a01b031663d0e30db0876040518263ffffffff1660e01b81526004016000604051808303818588803b158015611c3457600080fd5b505af1158015611c48573d6000803e3d6000fd5b50505050506000611c598288612a59565b6001600160a01b038316600090815260096020526040812080549293508392909190611c8f9084906001600160401b0316613fe0565b92506101000a8154816001600160401b0302191690836001600160401b03160217905550611ccd8289838989898d34611cc89190614033565b612ad7565b604051878152889033906000906000805160206145088339815191529060200160405180910390a450506113416001600655565b611d096122cb565b6001600160a01b0382166000818152600b6020908152604091829020805460ff19168515159081179091558251938452908301527fb1656bd3b50ddb6b12ef259c86e9cb359952b53c4403cfb5a83e23c515a35e229101610eaa565b611d6d6122cb565b6040516332fb62e760e21b81526001600160a01b037f0000000000000000000000000000000000000000000000000000000000000000169063cbed8b9c90611dc19088908890889088908890600401614198565b600060405180830381600087803b158015611ddb57600080fd5b505af1158015611def573d6000803e3d6000fd5b505050505050505050565b61ffff86166000908152600560205260408082209051611e1d9088908890613ce3565b90815260408051602092819003830190206001600160401b03871660009081529252902054905080611e9d5760405162461bcd60e51b815260206004820152602360248201527f4e6f6e626c6f636b696e674c7a4170703a206e6f2073746f726564206d65737360448201526261676560e81b6064820152608401610a0c565b808383604051611eae929190613ce3565b604051809103902014611f0d5760405162461bcd60e51b815260206004820152602160248201527f4e6f6e626c6f636b696e674c7a4170703a20696e76616c6964207061796c6f616044820152601960fa1b6064820152608401610a0c565b61ffff87166000908152600560205260408082209051611f309089908990613ce3565b90815260408051602092819003830181206001600160401b038916600090815290845282902093909355601f88018290048202830182019052868252611fc8918991899089908190840183828082843760009201919091525050604080516020601f8a018190048102820181019092528881528a93509150889088908190840183828082843760009201919091525061260292505050565b7fc264d91f3adc5588250e1551f547752ca0cfa8f6b530d243b9f9f4cab10ea8e58787878785604051611fff9594939291906141c6565b60405180910390a150505050505050565b6120186122cb565b600d805460ff60b01b1916600160b01b831515021790558061203b576000612048565b6120484262093a80614201565b600e81905560408051831515815260208101929092527f27a37fc51e6c5d14309bbed3a54787c8788223b5d9cd5fe10605661665dd84159101610a46565b61208e6122cb565b61ffff83811660008181526002602090815260408083209487168084529482529182902085905581519283528201929092529081018290527f9d5c7c0b934da8fefa9c7760c98383778a12dfbfc0c3b3106518f43fb9508ac0906060016119d6565b6120f86122cb565b600d8054821515600160a01b0260ff60a01b199091161790556040517f1584ad594a70cbe1e6515592e1272a987d922b097ead875069cebe8b40c004a490610a4690831515815260200190565b61214d6122cb565b61ffff8316600090815260016020526040902061216b828483614219565b507ffa41487ad5d6728f0b19276fa1eddc16558578f5109fc39d2dc33c3230470dab8383836040516119d693929190613ed8565b6121a76122cb565b6001600160a01b03811661220c5760405162461bcd60e51b815260206004820152602660248201527f4f776e61626c653a206e6577206f776e657220697320746865207a65726f206160448201526564647265737360d01b6064820152608401610a0c565b61221581612c9b565b50565b604051633d7b2f6f60e21b815261ffff808616600483015284166024820152306044820152606481018290526060907f00000000000000000000000000000000000000000000000000000000000000006001600160a01b03169063f5ecbdbc90608401600060405180830381865afa158015612298573d6000803e3d6000fd5b505050506040513d6000823e601f3d908101601f191682016040526122c091908101906142d2565b90505b949350505050565b336122d4611613565b6001600160a01b0316146113a65760405162461bcd60e51b815260206004820181905260248201527f4f776e61626c653a2063616c6c6572206973206e6f7420746865206f776e65726044820152606401610a0c565b60008061238d5a60966366ad5c8a60e01b898989896040516024016123529493929190614348565b60408051601f198184030181529190526020810180516001600160e01b03166001600160e01b03199093169290921790915230929190612ceb565b9150915081611341576113418686868685612d75565b60408051600481526024810182526020810180516001600160e01b031663313ce56760e01b1790529051600091829182916001600160a01b038616916123e99190614386565b600060405180830381855afa9150503d8060008114612424576040519150601f19603f3d011682016040523d82523d6000602084013e612429565b606091505b50915091508161248d5760405162461bcd60e51b815260206004820152602960248201527f546f6b656e4272696467653a206661696c656420746f2067657420746f6b656e60448201526820646563696d616c7360b81b6064820152608401610a0c565b808060200190518101906122c391906143a2565b6124f78363a9059cbb60e01b84846040516024016124c0929190613e96565b60408051601f198184030181529190526020810180516001600160e01b03166001600160e01b031990931692909217909152612e12565b505050565b600d54600160a01b900460ff1615612557576007546116679061ffff16600084848080601f01602080910402602001604051908101604052809392919081815260200183838082843760009201829052509250612ee7915050565b80156116675760405162461bcd60e51b815260206004820152602a60248201527f546f6b656e4272696467653a205f61646170746572506172616d73206d7573746044820152691031329032b6b83a3c9760b11b6064820152608401610a0c565b60408051600060208201526001600160a01b03949094166021850152604184019290925260c01b6001600160c01b0319166061830152805180830360490181526069909201905290565b60075461ffff8581169116146126665760405162461bcd60e51b8152602060048201526024808201527f546f6b656e4272696467653a20696e76616c696420736f7572636520636861696044820152631b881a5960e21b6064820152608401610a0c565b60008060008061267585612fb7565b600d5493975091955093509150600160a81b900460ff161580156126b257506001600160a01b0384166000908152600b602052604090205460ff16155b6126ce5760405162461bcd60e51b8152600401610a0c90613f70565b6001600160a01b0384166000908152600a602052604090205460ff166127065760405162461bcd60e51b8152600401610a0c90613f9d565b6001600160a01b0384166000908152600960205260409020546001600160401b039081169083168110156127885760405162461bcd60e51b815260206004820152602360248201527f546f6b656e4272696467653a20696e73756666696369656e74206c697175696460448201526269747960e81b6064820152608401610a0c565b612792838261400b565b6001600160a01b038616600090815260096020526040812080546001600160401b0319166001600160401b0393909316929092179091556127d38685612b62565b90506000600854116127e7578060006127f0565b6127f0816130f1565b50600d549091506001600160a01b03878116911614801561280e5750825b1561285e57600d5461282a906001600160a01b03168683613122565b6040518181526001600160a01b038616906000906000805160206145288339815191529060200160405180910390a36128c9565b6001600160a01b038516156128735784612877565b61dead5b945061288d6001600160a01b03871686836124a1565b846001600160a01b0316866001600160a01b0316600080516020614528833981519152836040516128c091815260200190565b60405180910390a35b50505050505050505050565b6002600654036129275760405162461bcd60e51b815260206004820152601f60248201527f5265656e7472616e637947756172643a207265656e7472616e742063616c6c006044820152606401610a0c565b6002600655565b60006129438361293e8585612a59565b612b62565b90505b92915050565b600080846001600160a01b03166370a08231306040518263ffffffff1660e01b815260040161297b9190613824565b602060405180830381865afa158015612998573d6000803e3d6000fd5b505050506040513d601f19601f820116820180604052508101906129bc919061404a565b90506129d36001600160a01b0386168530866131b8565b6040516370a0823160e01b81526000906001600160a01b038716906370a0823190612a02903090600401613824565b602060405180830381865afa158015612a1f573d6000803e3d6000fd5b505050506040513d601f19601f82011682018060405250810190612a43919061404a565b9050612a4f8282614033565b9695505050505050565b6001600160a01b0382166000908152600c60205260408120548190612a7e90846143db565b90506001600160401b038111156129435760405162461bcd60e51b815260206004820152601e60248201527f546f6b656e4272696467653a20616d6f756e745344206f766572666c6f7700006044820152606401610a0c565b612ae183836124fc565b6000612aee8888886125b8565b600754909150612b589061ffff1682612b0a602089018961373b565b612b1a60408a0160208b0161373b565b88888080601f0160208091040260200160405190810160405280939291908181526020018383808284376000920191909152508a92506131f0915050565b5050505050505050565b6001600160a01b0382166000908152600c6020526040812054612943906001600160401b0384166143fd565b606081612b9c81601f614201565b1015612bdb5760405162461bcd60e51b815260206004820152600e60248201526d736c6963655f6f766572666c6f7760901b6044820152606401610a0c565b612be58284614201565b84511015612c295760405162461bcd60e51b8152602060048201526011602482015270736c6963655f6f75744f66426f756e647360781b6044820152606401610a0c565b606082158015612c485760405191506000825260208201604052612c92565b6040519150601f8416801560200281840101858101878315602002848b0101015b81831015612c81578051835260209283019201612c69565b5050858452601f01601f1916604052505b50949350505050565b600080546001600160a01b038381166001600160a01b0319831681178455604051919092169283917f8be0079c531659141344cd1fd0a4f28419497f9722a3daafe3b4186f6b6457e09190a35050565b6000606060008060008661ffff166001600160401b03811115612d1057612d1061388a565b6040519080825280601f01601f191660200182016040528015612d3a576020820181803683370190505b50905060008087516020890160008d8df191503d925086831115612d5c578692505b828152826000602083013e909890975095505050505050565b8180519060200120600560008761ffff1661ffff16815260200190815260200160002085604051612da69190614386565b9081526040805191829003602090810183206001600160401b0388166000908152915220919091557fe183f33de2837795525b4792ca4cd60535bd77c53b7e7030060bfcf5734d6b0c90612e03908790879087908790879061441c565b60405180910390a15050505050565b6000612e67826040518060400160405280602081526020017f5361666545524332303a206c6f772d6c6576656c2063616c6c206661696c6564815250856001600160a01b03166133959092919063ffffffff16565b9050805160001480612e88575080806020019051810190612e88919061447a565b6124f75760405162461bcd60e51b815260206004820152602a60248201527f5361666545524332303a204552433230206f7065726174696f6e20646964206e6044820152691bdd081cdd58d8d9595960b21b6064820152608401610a0c565b6000612ef2836133a4565b61ffff80871660009081526002602090815260408083209389168352929052205490915080612f605760405162461bcd60e51b815260206004820152601a602482015279131e905c1c0e881b5a5b91d85cd31a5b5a5d081b9bdd081cd95d60321b6044820152606401610a0c565b612f6a8382614201565b8210156113415760405162461bcd60e51b815260206004820152601b60248201527a4c7a4170703a20676173206c696d697420697320746f6f206c6f7760281b6044820152606401610a0c565b6000806000808451604a1461301a5760405162461bcd60e51b815260206004820152602360248201527f546f6b656e4272696467653a20696e76616c6964207061796c6f6164206c656e6044820152620cee8d60eb1b6064820152608401610a0c565b60008560008151811061302f5761302f614497565b016020015160f81c6001811115613048576130486143c5565b9050600181600181111561305e5761305e6143c5565b146130ab5760405162461bcd60e51b815260206004820181905260248201527f546f6b656e4272696467653a20756e6b6e6f776e207061636b657420747970656044820152606401610a0c565b602186015194506041860151935060498601519250856049815181106130d3576130d3614497565b602001015160f81c60f81b60f81c60ff166001149150509193509193565b6000806127106008548461310591906143fd565b61310f91906143db565b905061311b8184614033565b9150915091565b604051632e1a7d4d60e01b8152600481018290526001600160a01b03841690632e1a7d4d90602401600060405180830381600087803b15801561316457600080fd5b505af1158015613178573d6000803e3d6000fd5b50506040516001600160a01b038516925083156108fc02915083906000818181858888f193505050501580156131b2573d6000803e3d6000fd5b50505050565b6040516001600160a01b03808516602483015283166044820152606481018290526131b29085906323b872dd60e01b906084016124c0565b61ffff86166000908152600160205260408120805461320e90613caf565b80601f016020809104026020016040519081016040528092919081815260200182805461323a90613caf565b80156132875780601f1061325c57610100808354040283529160200191613287565b820191906000526020600020905b81548152906001019060200180831161326a57829003601f168201915b5050505050905080516000036132f85760405162461bcd60e51b815260206004820152603060248201527f4c7a4170703a2064657374696e6174696f6e20636861696e206973206e6f742060448201526f61207472757374656420736f7572636560801b6064820152608401610a0c565b6133038787516133ff565b60405162c5803160e81b81526001600160a01b037f0000000000000000000000000000000000000000000000000000000000000000169063c580310090849061335a908b9086908c908c908c908c906004016144ad565b6000604051808303818588803b15801561337357600080fd5b505af1158015613387573d6000803e3d6000fd5b505050505050505050505050565b60606122c38484600085613470565b60006022825110156133f75760405162461bcd60e51b815260206004820152601c60248201527b4c7a4170703a20696e76616c69642061646170746572506172616d7360201b6044820152606401610a0c565b506022015190565b61ffff82166000908152600360205260408120549081900361342057506127105b808211156124f75760405162461bcd60e51b815260206004820181905260248201527f4c7a4170703a207061796c6f61642073697a6520697320746f6f206c617267656044820152606401610a0c565b6060824710156134d15760405162461bcd60e51b815260206004820152602660248201527f416464726573733a20696e73756666696369656e742062616c616e636520666f6044820152651c8818d85b1b60d21b6064820152608401610a0c565b600080866001600160a01b031685876040516134ed9190614386565b60006040518083038185875af1925050503d806000811461352a576040519150601f19603f3d011682016040523d82523d6000602084013e61352f565b606091505b50915091506135408783838761354b565b979650505050505050565b606083156135ba5782516000036135b3576001600160a01b0385163b6135b35760405162461bcd60e51b815260206004820152601d60248201527f416464726573733a2063616c6c20746f206e6f6e2d636f6e74726163740000006044820152606401610a0c565b50816122c3565b6122c383838151156135cf5781518083602001fd5b8060405162461bcd60e51b8152600401610a0c9190613a1a565b6000602082840312156135fb57600080fd5b5035919050565b803561ffff8116811461361457600080fd5b919050565b60008083601f84011261362b57600080fd5b5081356001600160401b0381111561364257600080fd5b60208301915083602082850101111561365a57600080fd5b9250929050565b80356001600160401b038116811461361457600080fd5b6000806000806000806080878903121561369157600080fd5b61369a87613602565b955060208701356001600160401b03808211156136b657600080fd5b6136c28a838b01613619565b90975095508591506136d660408a01613661565b945060608901359150808211156136ec57600080fd5b506136f989828a01613619565b979a9699509497509295939492505050565b60006020828403121561371d57600080fd5b61294382613602565b6001600160a01b038116811461221557600080fd5b60006020828403121561374d57600080fd5b813561294381613726565b6000806040838503121561376b57600080fd5b61377483613602565b946020939093013593505050565b60008060006060848603121561379757600080fd5b83356137a281613726565b925060208401356137b281613726565b929592945050506040919091013590565b61ffff91909116815260200190565b6000806000604084860312156137e757600080fd5b6137f084613602565b925060208401356001600160401b0381111561380b57600080fd5b61381786828701613619565b9497909650939450505050565b6001600160a01b0391909116815260200190565b60006040828403121561384a57600080fd5b50919050565b60008060006060848603121561386557600080fd5b61386f8585613838565b925060408401356001600160401b0381111561380b57600080fd5b634e487b7160e01b600052604160045260246000fd5b604051601f8201601f191681016001600160401b03811182821017156138c8576138c861388a565b604052919050565b60006001600160401b038211156138e9576138e961388a565b50601f01601f191660200190565b60008060006060848603121561390c57600080fd5b61391584613602565b925060208401356001600160401b0381111561393057600080fd5b8401601f8101861361394157600080fd5b803561395461394f826138d0565b6138a0565b81815287602083850101111561396957600080fd5b8160208401602083013760006020838301015280945050505061398e60408501613661565b90509250925092565b801515811461221557600080fd5b6000602082840312156139b757600080fd5b813561294381613997565b60005b838110156139dd5781810151838201526020016139c5565b838111156131b25750506000910152565b60008151808452613a068160208601602086016139c2565b601f01601f19169290920160200192915050565b60208152600061294360208301846139ee565b60008060008060008060c08789031215613a4657600080fd5b8635613a5181613726565b95506020870135945060408701359350613a6e8860608901613838565b925060a08701356001600160401b03811115613a8957600080fd5b6136f989828a01613619565b60008060408385031215613aa857600080fd5b613ab183613602565b9150613abf60208401613602565b90509250929050565b60008060408385031215613adb57600080fd5b8235613ae681613726565b91506020830135613af681613726565b809150509250929050565b600080600060608486031215613b1657600080fd5b8335613b2181613726565b92506020840135613b3181613726565b915061398e60408501613661565b600080600080600060a08688031215613b5757600080fd5b8535945060208601359350613b6f8760408801613838565b925060808601356001600160401b03811115613b8a57600080fd5b613b9688828901613619565b969995985093965092949392505050565b60008060408385031215613bba57600080fd5b8235613bc581613726565b91506020830135613af681613997565b600080600080600060808688031215613bed57600080fd5b613bf686613602565b9450613c0460208701613602565b93506040860135925060608601356001600160401b03811115613b8a57600080fd5b600080600060608486031215613c3b57600080fd5b613c4484613602565b9250613c5260208501613602565b9150604084013590509250925092565b60008060008060808587031215613c7857600080fd5b613c8185613602565b9350613c8f60208601613602565b92506040850135613c9f81613726565b9396929550929360600135925050565b600181811c90821680613cc357607f821691505b60208210810361384a57634e487b7160e01b600052602260045260246000fd5b8183823760009101908152919050565b60208082526022908201527f546f6b656e4272696467653a20696e76616c696420746f6b656e206164647265604082015261737360f01b606082015260800190565b634e487b7160e01b600052601160045260246000fd5b600060ff821660ff841680821015613d6557613d65613d35565b90039392505050565b600181815b80851115613da9578160001904821115613d8f57613d8f613d35565b80851615613d9c57918102915b93841c9390800290613d73565b509250929050565b600082613dc057506001612946565b81613dcd57506000612946565b8160018114613de35760028114613ded57613e09565b6001915050612946565b60ff841115613dfe57613dfe613d35565b50506001821b612946565b5060208310610133831016604e8410600b8410161715613e2c575081810a612946565b613e368383613d6e565b8060001904821115613e4a57613e4a613d35565b029392505050565b600061294360ff841683613db1565b6020808252601b908201527a0a8ded6cadc84e4d2c8ceca7440cccaca40dcdee840cadcdeeaced602b1b604082015260600190565b6001600160a01b03929092168252602082015260400190565b81835281816020850137506000828201602090810191909152601f909101601f19169091010190565b61ffff841681526040602082015260006122c0604083018486613eaf565b61ffff871681526001600160a01b038616602082015260a060408201819052600090613f24908301876139ee565b85151560608401528281036080840152613f3f818587613eaf565b9998505050505050505050565b60008060408385031215613f5f57600080fd5b505080516020909101519092909150565b602080825260139082015272151bdad95b909c9a5919d94e881c185d5cd959606a1b604082015260600190565b60208082526023908201527f546f6b656e4272696467653a20746f6b656e206973206e6f7420737570706f726040820152621d195960ea1b606082015260800190565b60006001600160401b0382811684821680830382111561400257614002613d35565b01949350505050565b60006001600160401b038381169083168181101561402b5761402b613d35565b039392505050565b60008282101561404557614045613d35565b500390565b60006020828403121561405c57600080fd5b5051919050565b8284823760609190911b6001600160601b0319169101908152601401919050565b601f8211156124f757600081815260208120601f850160051c810160208610156140ab5750805b601f850160051c820191505b81811015611341578281556001016140b7565b600019600383901b1c191660019190911b1790565b81516001600160401b038111156140f8576140f861388a565b61410c816141068454613caf565b84614084565b602080601f83116001811461413b57600084156141295750858301515b61413385826140ca565b865550611341565b600085815260208120601f198616915b8281101561416a5788860151825594840194600190910190840161414b565b50858210156141885787850151600019600388901b60f8161c191681555b5050505050600190811b01905550565b600061ffff808816835280871660208401525084604083015260806060830152613540608083018486613eaf565b61ffff861681526080602082015260006141e4608083018688613eaf565b6001600160401b0394909416604083015250606001529392505050565b6000821982111561421457614214613d35565b500190565b6001600160401b038311156142305761423061388a565b6142448361423e8354613caf565b83614084565b6000601f84116001811461427257600085156142605750838201355b61426a86826140ca565b845550610cff565b600083815260209020601f19861690835b828110156142a35786850135825560209485019460019092019101614283565b50868210156142c05760001960f88860031b161c19848701351681555b505060018560011b0183555050505050565b6000602082840312156142e457600080fd5b81516001600160401b038111156142fa57600080fd5b8201601f8101841361430b57600080fd5b805161431961394f826138d0565b81815285602083850101111561432e57600080fd5b61433f8260208301602086016139c2565b95945050505050565b61ffff8516815260806020820152600061436560808301866139ee565b6001600160401b0385166040840152828103606084015261354081856139ee565b600082516143988184602087016139c2565b9190910192915050565b6000602082840312156143b457600080fd5b815160ff8116811461294357600080fd5b634e487b7160e01b600052602160045260246000fd5b6000826143f857634e487b7160e01b600052601260045260246000fd5b500490565b600081600019048311821515161561441757614417613d35565b500290565b61ffff8616815260a06020820152600061443960a08301876139ee565b6001600160401b0386166040840152828103606084015261445a81866139ee565b9050828103608084015261446e81856139ee565b98975050505050505050565b60006020828403121561448c57600080fd5b815161294381613997565b634e487b7160e01b600052603260045260246000fd5b61ffff8716815260c0602082015260006144ca60c08301886139ee565b82810360408401526144dc81886139ee565b6001600160a01b0387811660608601528616608085015283810360a08501529050613f3f81856139ee56febe6ff12fec5087498d44bc85f1a83235a630944a1e2d5a7938afe810370a5867fd19781f43410d9594fd4c02dd1d98dbe99099cbd222d5851a6e183c468d33caa264697066735822122006157fdba7c438afb6b392b8c87b00bc1ef9130aaf3306d405c15b805787094864736f6c634300080f0033",
  "linkReferences": {},
  "deployedLinkReferences": {}
}