{
  "_format": "hh-sol-artifact-1",
  "contractName": "TokenBridge",
  "sourceName": "contracts/TokenBridge.sol",
  "abi": [
    {
      "inputs": [
        {
          "internalType": "address",
          "name": "_layerZeroEndpoint",
          "type": "address"
        },
        {
          "internalType": "uint16",
          "name": "_aptosChainId",
          "type": "uint16"
        }
      ],
      "stateMutability": "nonpayable",
      "type": "constructor"
    },
    {
      "anonymous": false,
      "inputs": [
        {
          "indexed": false,
          "internalType": "bool",
          "name": "enabled",
          "type": "bool"
        },
        {
          "indexed": false,
          "internalType": "uint256",
          "name": "unlockTime",
          "type": "uint256"
        }
      ],
      "name": "EnableEmergencyWithdraw",
      "type": "event"
    },
    {
      "anonymous": false,
      "inputs": [
        {
          "indexed": false,
          "internalType": "uint16",
          "name": "_srcChainId",
          "type": "uint16"
        },
        {
          "indexed": false,
          "internalType": "bytes",
          "name": "_srcAddress",
          "type": "bytes"
        },
        {
          "indexed": false,
          "internalType": "uint64",
          "name": "_nonce",
          "type": "uint64"
        },
        {
          "indexed": false,
          "internalType": "bytes",
          "name": "_payload",
          "type": "bytes"
        },
        {
          "indexed": false,
          "internalType": "bytes",
          "name": "_reason",
          "type": "bytes"
        }
      ],
      "name": "MessageFailed",
      "type": "event"
    },
    {
      "anonymous": false,
      "inputs": [
        {
          "indexed": true,
          "internalType": "address",
          "name": "previousOwner",
          "type": "address"
        },
        {
          "indexed": true,
          "internalType": "address",
          "name": "newOwner",
          "type": "address"
        }
      ],
      "name": "OwnershipTransferred",
      "type": "event"
    },
    {
      "anonymous": false,
      "inputs": [
        {
          "indexed": true,
          "internalType": "address",
          "name": "token",
          "type": "address"
        },
        {
          "indexed": true,
          "internalType": "address",
          "name": "to",
          "type": "address"
        },
        {
          "indexed": false,
          "internalType": "uint256",
          "name": "amountLD",
          "type": "uint256"
        }
      ],
      "name": "Receive",
      "type": "event"
    },
    {
      "anonymous": false,
      "inputs": [
        {
          "indexed": false,
          "internalType": "address",
          "name": "token",
          "type": "address"
        }
      ],
      "name": "RegisterToken",
      "type": "event"
    },
    {
      "anonymous": false,
      "inputs": [
        {
          "indexed": false,
          "internalType": "uint16",
          "name": "_srcChainId",
          "type": "uint16"
        },
        {
          "indexed": false,
          "internalType": "bytes",
          "name": "_srcAddress",
          "type": "bytes"
        },
        {
          "indexed": false,
          "internalType": "uint64",
          "name": "_nonce",
          "type": "uint64"
        },
        {
          "indexed": false,
          "internalType": "bytes32",
          "name": "_payloadHash",
          "type": "bytes32"
        }
      ],
      "name": "RetryMessageSuccess",
      "type": "event"
    },
    {
      "anonymous": false,
      "inputs": [
        {
          "indexed": true,
          "internalType": "address",
          "name": "token",
          "type": "address"
        },
        {
          "indexed": true,
          "internalType": "address",
          "name": "from",
          "type": "address"
        },
        {
          "indexed": true,
          "internalType": "bytes32",
          "name": "to",
          "type": "bytes32"
        },
        {
          "indexed": false,
          "internalType": "uint256",
          "name": "amountLD",
          "type": "uint256"
        }
      ],
      "name": "Send",
      "type": "event"
    },
    {
      "anonymous": false,
      "inputs": [
        {
          "indexed": false,
          "internalType": "uint16",
          "name": "aptosChainId",
          "type": "uint16"
        }
      ],
      "name": "SetAptosChainId",
      "type": "event"
    },
    {
      "anonymous": false,
      "inputs": [
        {
          "indexed": false,
          "internalType": "uint256",
          "name": "bridgeFeeBP",
          "type": "uint256"
        }
      ],
      "name": "SetBridgeBP",
      "type": "event"
    },
    {
      "anonymous": false,
      "inputs": [
        {
          "indexed": false,
          "internalType": "bool",
          "name": "paused",
          "type": "bool"
        }
      ],
      "name": "SetGlobalPause",
      "type": "event"
    },
    {
      "anonymous": false,
      "inputs": [
        {
          "indexed": false,
          "internalType": "uint16",
          "name": "localChainId",
          "type": "uint16"
        }
      ],
      "name": "SetLocalChainId",
      "type": "event"
    },
    {
      "anonymous": false,
      "inputs": [
        {
          "indexed": false,
          "internalType": "uint16",
          "name": "_dstChainId",
          "type": "uint16"
        },
        {
          "indexed": false,
          "internalType": "uint16",
          "name": "_type",
          "type": "uint16"
        },
        {
          "indexed": false,
          "internalType": "uint256",
          "name": "_minDstGas",
          "type": "uint256"
        }
      ],
      "name": "SetMinDstGas",
      "type": "event"
    },
    {
      "anonymous": false,
      "inputs": [
        {
          "indexed": false,
          "internalType": "address",
          "name": "precrime",
          "type": "address"
        }
      ],
      "name": "SetPrecrime",
      "type": "event"
    },
    {
      "anonymous": false,
      "inputs": [
        {
          "indexed": false,
          "internalType": "address",
          "name": "token",
          "type": "address"
        },
        {
          "indexed": false,
          "internalType": "bool",
          "name": "paused",
          "type": "bool"
        }
      ],
      "name": "SetTokenPause",
      "type": "event"
    },
    {
      "anonymous": false,
      "inputs": [
        {
          "indexed": false,
          "internalType": "uint16",
          "name": "_remoteChainId",
          "type": "uint16"
        },
        {
          "indexed": false,
          "internalType": "bytes",
          "name": "_path",
          "type": "bytes"
        }
      ],
      "name": "SetTrustedRemote",
      "type": "event"
    },
    {
      "anonymous": false,
      "inputs": [
        {
          "indexed": false,
          "internalType": "uint16",
          "name": "_remoteChainId",
          "type": "uint16"
        },
        {
          "indexed": false,
          "internalType": "bytes",
          "name": "_remoteAddress",
          "type": "bytes"
        }
      ],
      "name": "SetTrustedRemoteAddress",
      "type": "event"
    },
    {
      "anonymous": false,
      "inputs": [
        {
          "indexed": false,
          "internalType": "bool",
          "name": "useCustomAdapterParams",
          "type": "bool"
        }
      ],
      "name": "SetUseCustomAdapterParams",
      "type": "event"
    },
    {
      "anonymous": false,
      "inputs": [
        {
          "indexed": false,
          "internalType": "address",
          "name": "weth",
          "type": "address"
        }
      ],
      "name": "SetWETH",
      "type": "event"
    },
    {
      "anonymous": false,
      "inputs": [
        {
          "indexed": true,
          "internalType": "address",
          "name": "token",
          "type": "address"
        },
        {
          "indexed": false,
          "internalType": "address",
          "name": "to",
          "type": "address"
        },
        {
          "indexed": false,
          "internalType": "uint256",
          "name": "amountLD",
          "type": "uint256"
        }
      ],
      "name": "WithdrawFee",
      "type": "event"
    },
    {
      "anonymous": false,
      "inputs": [
        {
          "indexed": true,
          "internalType": "address",
          "name": "token",
          "type": "address"
        },
        {
          "indexed": false,
          "internalType": "address",
          "name": "to",
          "type": "address"
        },
        {
          "indexed": false,
          "internalType": "uint256",
          "name": "amountLD",
          "type": "uint256"
        }
      ],
      "name": "WithdrawTVL",
      "type": "event"
    },
    {
      "inputs": [],
      "name": "BP_DENOMINATOR",
      "outputs": [
        {
          "internalType": "uint256",
          "name": "",
          "type": "uint256"
        }
      ],
      "stateMutability": "view",
      "type": "function"
    },
    {
      "inputs": [],
      "name": "DEFAULT_PAYLOAD_SIZE_LIMIT",
      "outputs": [
        {
          "internalType": "uint256",
          "name": "",
          "type": "uint256"
        }
      ],
      "stateMutability": "view",
      "type": "function"
    },
    {
      "inputs": [],
      "name": "SHARED_DECIMALS",
      "outputs": [
        {
          "internalType": "uint8",
          "name": "",
          "type": "uint8"
        }
      ],
      "stateMutability": "view",
      "type": "function"
    },
    {
      "inputs": [
        {
          "internalType": "address",
          "name": "_token",
          "type": "address"
        }
      ],
      "name": "accruedFeeLD",
      "outputs": [
        {
          "internalType": "uint256",
          "name": "",
          "type": "uint256"
        }
      ],
      "stateMutability": "view",
      "type": "function"
    },
    {
      "inputs": [],
      "name": "aptosChainId",
      "outputs": [
        {
          "internalType": "uint16",
          "name": "",
          "type": "uint16"
        }
      ],
      "stateMutability": "view",
      "type": "function"
    },
    {
      "inputs": [],
      "name": "bridgeFeeBP",
      "outputs": [
        {
          "internalType": "uint256",
          "name": "",
          "type": "uint256"
        }
      ],
      "stateMutability": "view",
      "type": "function"
    },
    {
      "inputs": [],
      "name": "emergencyWithdrawEnabled",
      "outputs": [
        {
          "internalType": "bool",
          "name": "",
          "type": "bool"
        }
      ],
      "stateMutability": "view",
      "type": "function"
    },
    {
      "inputs": [],
      "name": "emergencyWithdrawTime",
      "outputs": [
        {
          "internalType": "uint256",
          "name": "",
          "type": "uint256"
        }
      ],
      "stateMutability": "view",
      "type": "function"
    },
    {
      "inputs": [
        {
          "internalType": "bool",
          "name": "enabled",
          "type": "bool"
        }
      ],
      "name": "enableEmergencyWithdraw",
      "outputs": [],
      "stateMutability": "nonpayable",
      "type": "function"
    },
    {
      "inputs": [
        {
          "internalType": "uint16",
          "name": "",
          "type": "uint16"
        },
        {
          "internalType": "bytes",
          "name": "",
          "type": "bytes"
        },
        {
          "internalType": "uint64",
          "name": "",
          "type": "uint64"
        }
      ],
      "name": "failedMessages",
      "outputs": [
        {
          "internalType": "bytes32",
          "name": "",
          "type": "bytes32"
        }
      ],
      "stateMutability": "view",
      "type": "function"
    },
    {
      "inputs": [
        {
          "internalType": "uint16",
          "name": "_srcChainId",
          "type": "uint16"
        },
        {
          "internalType": "bytes",
          "name": "_srcAddress",
          "type": "bytes"
        }
      ],
      "name": "forceResumeReceive",
      "outputs": [],
      "stateMutability": "nonpayable",
      "type": "function"
    },
    {
      "inputs": [
        {
          "internalType": "uint16",
          "name": "_version",
          "type": "uint16"
        },
        {
          "internalType": "uint16",
          "name": "_chainId",
          "type": "uint16"
        },
        {
          "internalType": "address",
          "name": "",
          "type": "address"
        },
        {
          "internalType": "uint256",
          "name": "_configType",
          "type": "uint256"
        }
      ],
      "name": "getConfig",
      "outputs": [
        {
          "internalType": "bytes",
          "name": "",
          "type": "bytes"
        }
      ],
      "stateMutability": "view",
      "type": "function"
    },
    {
      "inputs": [
        {
          "internalType": "uint16",
          "name": "_remoteChainId",
          "type": "uint16"
        }
      ],
      "name": "getTrustedRemoteAddress",
      "outputs": [
        {
          "internalType": "bytes",
          "name": "",
          "type": "bytes"
        }
      ],
      "stateMutability": "view",
      "type": "function"
    },
    {
      "inputs": [],
      "name": "globalPaused",
      "outputs": [
        {
          "internalType": "bool",
          "name": "",
          "type": "bool"
        }
      ],
      "stateMutability": "view",
      "type": "function"
    },
    {
      "inputs": [
        {
          "internalType": "uint16",
          "name": "_srcChainId",
          "type": "uint16"
        },
        {
          "internalType": "bytes",
          "name": "_srcAddress",
          "type": "bytes"
        }
      ],
      "name": "isTrustedRemote",
      "outputs": [
        {
          "internalType": "bool",
          "name": "",
          "type": "bool"
        }
      ],
      "stateMutability": "view",
      "type": "function"
    },
    {
      "inputs": [
        {
          "internalType": "address",
          "name": "",
          "type": "address"
        }
      ],
      "name": "ld2sdRates",
      "outputs": [
        {
          "internalType": "uint256",
          "name": "",
          "type": "uint256"
        }
      ],
      "stateMutability": "view",
      "type": "function"
    },
    {
      "inputs": [],
      "name": "lzEndpoint",
      "outputs": [
        {
          "internalType": "contract ILayerZeroEndpoint",
          "name": "",
          "type": "address"
        }
      ],
      "stateMutability": "view",
      "type": "function"
    },
    {
      "inputs": [
        {
          "internalType": "uint16",
          "name": "_srcChainId",
          "type": "uint16"
        },
        {
          "internalType": "bytes",
          "name": "_srcAddress",
          "type": "bytes"
        },
        {
          "internalType": "uint64",
          "name": "_nonce",
          "type": "uint64"
        },
        {
          "internalType": "bytes",
          "name": "_payload",
          "type": "bytes"
        }
      ],
      "name": "lzReceive",
      "outputs": [],
      "stateMutability": "nonpayable",
      "type": "function"
    },
    {
      "inputs": [
        {
          "internalType": "uint16",
          "name": "",
          "type": "uint16"
        },
        {
          "internalType": "uint16",
          "name": "",
          "type": "uint16"
        }
      ],
      "name": "minDstGasLookup",
      "outputs": [
        {
          "internalType": "uint256",
          "name": "",
          "type": "uint256"
        }
      ],
      "stateMutability": "view",
      "type": "function"
    },
    {
      "inputs": [
        {
          "internalType": "uint16",
          "name": "_srcChainId",
          "type": "uint16"
        },
        {
          "internalType": "bytes",
          "name": "_srcAddress",
          "type": "bytes"
        },
        {
          "internalType": "uint64",
          "name": "_nonce",
          "type": "uint64"
        },
        {
          "internalType": "bytes",
          "name": "_payload",
          "type": "bytes"
        }
      ],
      "name": "nonblockingLzReceive",
      "outputs": [],
      "stateMutability": "nonpayable",
      "type": "function"
    },
    {
      "inputs": [],
      "name": "owner",
      "outputs": [
        {
          "internalType": "address",
          "name": "",
          "type": "address"
        }
      ],
      "stateMutability": "view",
      "type": "function"
    },
    {
      "inputs": [
        {
          "internalType": "address",
          "name": "",
          "type": "address"
        }
      ],
      "name": "pausedTokens",
      "outputs": [
        {
          "internalType": "bool",
          "name": "",
          "type": "bool"
        }
      ],
      "stateMutability": "view",
      "type": "function"
    },
    {
      "inputs": [
        {
          "internalType": "uint16",
          "name": "",
          "type": "uint16"
        }
      ],
      "name": "payloadSizeLimitLookup",
      "outputs": [
        {
          "internalType": "uint256",
          "name": "",
          "type": "uint256"
        }
      ],
      "stateMutability": "view",
      "type": "function"
    },
    {
      "inputs": [],
      "name": "precrime",
      "outputs": [
        {
          "internalType": "address",
          "name": "",
          "type": "address"
        }
      ],
      "stateMutability": "view",
      "type": "function"
    },
    {
      "inputs": [
        {
          "components": [
            {
              "internalType": "address payable",
              "name": "refundAddress",
              "type": "address"
            },
            {
              "internalType": "address",
              "name": "zroPaymentAddress",
              "type": "address"
            }
          ],
          "internalType": "struct LzLib.CallParams",
          "name": "_callParams",
          "type": "tuple"
        },
        {
          "internalType": "bytes",
          "name": "_adapterParams",
          "type": "bytes"
        }
      ],
      "name": "quoteForSend",
      "outputs": [
        {
          "internalType": "uint256",
          "name": "nativeFee",
          "type": "uint256"
        },
        {
          "internalType": "uint256",
          "name": "zroFee",
          "type": "uint256"
        }
      ],
      "stateMutability": "view",
      "type": "function"
    },
    {
      "inputs": [
        {
          "internalType": "address",
          "name": "_token",
          "type": "address"
        }
      ],
      "name": "registerToken",
      "outputs": [],
      "stateMutability": "nonpayable",
      "type": "function"
    },
    {
      "inputs": [],
      "name": "renounceOwnership",
      "outputs": [],
      "stateMutability": "nonpayable",
      "type": "function"
    },
    {
      "inputs": [
        {
          "internalType": "uint16",
          "name": "_srcChainId",
          "type": "uint16"
        },
        {
          "internalType": "bytes",
          "name": "_srcAddress",
          "type": "bytes"
        },
        {
          "internalType": "uint64",
          "name": "_nonce",
          "type": "uint64"
        },
        {
          "internalType": "bytes",
          "name": "_payload",
          "type": "bytes"
        }
      ],
      "name": "retryMessage",
      "outputs": [],
      "stateMutability": "payable",
      "type": "function"
    },
    {
      "inputs": [
        {
          "internalType": "bytes32",
          "name": "_toAddress",
          "type": "bytes32"
        },
        {
          "internalType": "uint256",
          "name": "_amountLD",
          "type": "uint256"
        },
        {
          "components": [
            {
              "internalType": "address payable",
              "name": "refundAddress",
              "type": "address"
            },
            {
              "internalType": "address",
              "name": "zroPaymentAddress",
              "type": "address"
            }
          ],
          "internalType": "struct LzLib.CallParams",
          "name": "_callParams",
          "type": "tuple"
        },
        {
          "internalType": "bytes",
          "name": "_adapterParams",
          "type": "bytes"
        }
      ],
      "name": "sendETHToAptos",
      "outputs": [],
      "stateMutability": "payable",
      "type": "function"
    },
    {
      "inputs": [
        {
          "internalType": "address",
          "name": "_token",
          "type": "address"
        },
        {
          "internalType": "bytes32",
          "name": "_toAddress",
          "type": "bytes32"
        },
        {
          "internalType": "uint256",
          "name": "_amountLD",
          "type": "uint256"
        },
        {
          "components": [
            {
              "internalType": "address payable",
              "name": "refundAddress",
              "type": "address"
            },
            {
              "internalType": "address",
              "name": "zroPaymentAddress",
              "type": "address"
            }
          ],
          "internalType": "struct LzLib.CallParams",
          "name": "_callParams",
          "type": "tuple"
        },
        {
          "internalType": "bytes",
          "name": "_adapterParams",
          "type": "bytes"
        }
      ],
      "name": "sendToAptos",
      "outputs": [],
      "stateMutability": "payable",
      "type": "function"
    },
    {
      "inputs": [
        {
          "internalType": "uint16",
          "name": "_aptosChainId",
          "type": "uint16"
        }
      ],
      "name": "setAptosChainId",
      "outputs": [],
      "stateMutability": "nonpayable",
      "type": "function"
    },
    {
      "inputs": [
        {
          "internalType": "uint256",
          "name": "_bridgeFeeBP",
          "type": "uint256"
        }
      ],
      "name": "setBridgeFeeBP",
      "outputs": [],
      "stateMutability": "nonpayable",
      "type": "function"
    },
    {
      "inputs": [
        {
          "internalType": "uint16",
          "name": "_version",
          "type": "uint16"
        },
        {
          "internalType": "uint16",
          "name": "_chainId",
          "type": "uint16"
        },
        {
          "internalType": "uint256",
          "name": "_configType",
          "type": "uint256"
        },
        {
          "internalType": "bytes",
          "name": "_config",
          "type": "bytes"
        }
      ],
      "name": "setConfig",
      "outputs": [],
      "stateMutability": "nonpayable",
      "type": "function"
    },
    {
      "inputs": [
        {
          "internalType": "bool",
          "name": "_paused",
          "type": "bool"
        }
      ],
      "name": "setGlobalPause",
      "outputs": [],
      "stateMutability": "nonpayable",
      "type": "function"
    },
    {
      "inputs": [
        {
          "internalType": "uint16",
          "name": "_dstChainId",
          "type": "uint16"
        },
        {
          "internalType": "uint16",
          "name": "_packetType",
          "type": "uint16"
        },
        {
          "internalType": "uint256",
          "name": "_minGas",
          "type": "uint256"
        }
      ],
      "name": "setMinDstGas",
      "outputs": [],
      "stateMutability": "nonpayable",
      "type": "function"
    },
    {
      "inputs": [
        {
          "internalType": "uint16",
          "name": "_dstChainId",
          "type": "uint16"
        },
        {
          "internalType": "uint256",
          "name": "_size",
          "type": "uint256"
        }
      ],
      "name": "setPayloadSizeLimit",
      "outputs": [],
      "stateMutability": "nonpayable",
      "type": "function"
    },
    {
      "inputs": [
        {
          "internalType": "address",
          "name": "_precrime",
          "type": "address"
        }
      ],
      "name": "setPrecrime",
      "outputs": [],
      "stateMutability": "nonpayable",
      "type": "function"
    },
    {
      "inputs": [
        {
          "internalType": "uint16",
          "name": "_version",
          "type": "uint16"
        }
      ],
      "name": "setReceiveVersion",
      "outputs": [],
      "stateMutability": "nonpayable",
      "type": "function"
    },
    {
      "inputs": [
        {
          "internalType": "uint16",
          "name": "_version",
          "type": "uint16"
        }
      ],
      "name": "setSendVersion",
      "outputs": [],
      "stateMutability": "nonpayable",
      "type": "function"
    },
    {
      "inputs": [
        {
          "internalType": "address",
          "name": "_token",
          "type": "address"
        },
        {
          "internalType": "bool",
          "name": "_paused",
          "type": "bool"
        }
      ],
      "name": "setTokenPause",
      "outputs": [],
      "stateMutability": "nonpayable",
      "type": "function"
    },
    {
      "inputs": [
        {
          "internalType": "uint16",
          "name": "_remoteChainId",
          "type": "uint16"
        },
        {
          "internalType": "bytes",
          "name": "_path",
          "type": "bytes"
        }
      ],
      "name": "setTrustedRemote",
      "outputs": [],
      "stateMutability": "nonpayable",
      "type": "function"
    },
    {
      "inputs": [
        {
          "internalType": "uint16",
          "name": "_remoteChainId",
          "type": "uint16"
        },
        {
          "internalType": "bytes",
          "name": "_remoteAddress",
          "type": "bytes"
        }
      ],
      "name": "setTrustedRemoteAddress",
      "outputs": [],
      "stateMutability": "nonpayable",
      "type": "function"
    },
    {
      "inputs": [
        {
          "internalType": "bool",
          "name": "_useCustomAdapterParams",
          "type": "bool"
        }
      ],
      "name": "setUseCustomAdapterParams",
      "outputs": [],
      "stateMutability": "nonpayable",
      "type": "function"
    },
    {
      "inputs": [
        {
          "internalType": "address",
          "name": "_weth",
          "type": "address"
        }
      ],
      "name": "setWETH",
      "outputs": [],
      "stateMutability": "nonpayable",
      "type": "function"
    },
    {
      "inputs": [
        {
          "internalType": "address",
          "name": "",
          "type": "address"
        }
      ],
      "name": "supportedTokens",
      "outputs": [
        {
          "internalType": "bool",
          "name": "",
          "type": "bool"
        }
      ],
      "stateMutability": "view",
      "type": "function"
    },
    {
      "inputs": [
        {
          "internalType": "address",
          "name": "newOwner",
          "type": "address"
        }
      ],
      "name": "transferOwnership",
      "outputs": [],
      "stateMutability": "nonpayable",
      "type": "function"
    },
    {
      "inputs": [
        {
          "internalType": "uint16",
          "name": "",
          "type": "uint16"
        }
      ],
      "name": "trustedRemoteLookup",
      "outputs": [
        {
          "internalType": "bytes",
          "name": "",
          "type": "bytes"
        }
      ],
      "stateMutability": "view",
      "type": "function"
    },
    {
      "inputs": [
        {
          "internalType": "address",
          "name": "",
          "type": "address"
        }
      ],
      "name": "tvlSDs",
      "outputs": [
        {
          "internalType": "uint64",
          "name": "",
          "type": "uint64"
        }
      ],
      "stateMutability": "view",
      "type": "function"
    },
    {
      "inputs": [],
      "name": "useCustomAdapterParams",
      "outputs": [
        {
          "internalType": "bool",
          "name": "",
          "type": "bool"
        }
      ],
      "stateMutability": "view",
      "type": "function"
    },
    {
      "inputs": [],
      "name": "weth",
      "outputs": [
        {
          "internalType": "address",
          "name": "",
          "type": "address"
        }
      ],
      "stateMutability": "view",
      "type": "function"
    },
    {
      "inputs": [
        {
          "internalType": "address",
          "name": "_token",
          "type": "address"
        },
        {
          "internalType": "address",
          "name": "_to",
          "type": "address"
        }
      ],
      "name": "withdrawEmergency",
      "outputs": [],
      "stateMutability": "nonpayable",
      "type": "function"
    },
    {
      "inputs": [
        {
          "internalType": "address",
          "name": "_token",
          "type": "address"
        },
        {
          "internalType": "address",
          "name": "_to",
          "type": "address"
        },
        {
          "internalType": "uint256",
          "name": "_amountLD",
          "type": "uint256"
        }
      ],
      "name": "withdrawFee",
      "outputs": [],
      "stateMutability": "nonpayable",
      "type": "function"
    },
    {
      "inputs": [
        {
          "internalType": "address",
          "name": "_token",
          "type": "address"
        },
        {
          "internalType": "address",
          "name": "_to",
          "type": "address"
        },
        {
          "internalType": "uint64",
          "name": "_amountSD",
          "type": "uint64"
        }
      ],
      "name": "withdrawTVL",
      "outputs": [],
      "stateMutability": "nonpayable",
      "type": "function"
    },
    {
      "stateMutability": "payable",
      "type": "receive"
    }
  ],
  "bytecode": "0x60a06040523480156200001157600080fd5b5060405162004660380380620046608339810160408190526200003491620000c4565b8180620000413362000074565b60601b6001600160601b0319166080525060016006556007805461ffff191661ffff929092169190911790555062000111565b600080546001600160a01b038381166001600160a01b0319831681178455604051919092169283917f8be0079c531659141344cd1fd0a4f28419497f9722a3daafe3b4186f6b6457e09190a35050565b60008060408385031215620000d7578182fd5b82516001600160a01b0381168114620000ee578283fd5b602084015190925061ffff8116811462000106578182fd5b809150509250929050565b60805160601c6144f8620001686000396000818161077901528181610a5401528181610c9c01528181610f86015281816110a60152818161116001528181611dad0152818161227201526133b701526144f86000f3fe60806040526004361061025c5760003560e01c80620d5900146102685780621d35671461028a57806307e0db17146102aa57806309824a80146102ca5780630df37483146102ea5780631095b6d71461030a57806310ddb1371461032a57806325a9f7921461034a5780632db88ecf146103735780633d8b38f61461039b5780633f1f4fa4146103cb5780633fc8cef3146103f857806342d65a8d14610425578063468b9668146104455780635747e69f1461047a5780635b769f3c1461049b5780635b8c41e6146104bb57806361a552dc1461050a57806366ad5c8a1461052b57806368c4ac261461054b57806369a6b3db1461057b578063715018a61461059b5780637533d788146105b057806376a9099a146105dd5780638cfd8f5c146105f05780638da5cb5b1461062857806392cc13c51461063d57806393f26a4c1461066a578063950c8a741461068a57806395e2c168146106aa57806397167964146106ca5780639f38369a146106f1578063a2f27ae014610711578063a6c3d16514610731578063abe685cd14610751578063b353aaa714610767578063baf3292d1461079b578063c21f5114146107bb578063c446183414610751578063ca23bb4c146107db578063cb8d3b1f146107ee578063cbed8b9c1461080e578063d1deba1f1461082e578063d71e409e14610841578063de9b948814610861578063df2a5b3b14610877578063e3179c3e14610897578063eab45d9c146108e5578063eb8d72b714610905578063ed629c5c14610925578063ee7a459614610946578063f2fde38b14610976578063f5ecbdbc1461099657600080fd5b3661026357005b600080fd5b34801561027457600080fd5b50610288610283366004613d8a565b6109b6565b005b34801561029657600080fd5b506102886102a5366004613b4f565b610a51565b3480156102b657600080fd5b506102886102c5366004613afe565b610c7d565b3480156102d657600080fd5b506102886102e5366004613819565b610d06565b3480156102f657600080fd5b50610288610305366004613d61565b610eb6565b34801561031657600080fd5b5061028861032536600461386d565b610ed5565b34801561033657600080fd5b50610288610345366004613afe565b610f67565b34801561035657600080fd5b5061036060085481565b6040519081526020015b60405180910390f35b34801561037f57600080fd5b5060075461038e9061ffff1681565b60405161036a9190613fc7565b3480156103a757600080fd5b506103bb6103b6366004613b18565b610fbb565b604051901515815260200161036a565b3480156103d757600080fd5b506103606103e6366004613afe565b60036020526000908152604090205481565b34801561040457600080fd5b50600d54610418906001600160a01b031681565b60405161036a9190613ea0565b34801561043157600080fd5b50610288610440366004613b18565b611087565b34801561045157600080fd5b50610465610460366004613aad565b61110d565b6040805192835260208301919091520161036a565b34801561048657600080fd5b50600d546103bb90600160b01b900460ff1681565b3480156104a757600080fd5b506102886104b6366004613819565b611203565b3480156104c757600080fd5b506103606104d6366004613bcd565b6005602090815260009384526040808520845180860184018051928152908401958401959095209452929052825290205481565b34801561051657600080fd5b50600d546103bb90600160a81b900460ff1681565b34801561053757600080fd5b50610288610546366004613b4f565b61127c565b34801561055757600080fd5b506103bb610566366004613819565b600a6020526000908152604090205460ff1681565b34801561058757600080fd5b50610288610596366004613998565b611358565b3480156105a757600080fd5b506102886113ad565b3480156105bc57600080fd5b506105d06105cb366004613afe565b6113b7565b60405161036a9190613ecd565b6102886105eb366004613920565b611451565b3480156105fc57600080fd5b5061036061060b366004613c59565b600260209081526000928352604080842090915290825290205481565b34801561063457600080fd5b50610418611622565b34801561064957600080fd5b50610360610658366004613819565b600c6020526000908152604090205481565b34801561067657600080fd5b50610288610685366004613835565b611631565b34801561069657600080fd5b50600454610418906001600160a01b031681565b3480156106b657600080fd5b506102886106c53660046138ad565b61167a565b3480156106d657600080fd5b506106df600681565b60405160ff909116815260200161036a565b3480156106fd57600080fd5b506105d061070c366004613afe565b6117aa565b34801561071d57600080fd5b5061036061072c366004613819565b6118c1565b34801561073d57600080fd5b5061028861074c366004613b18565b611979565b34801561075d57600080fd5b5061036061271081565b34801561077357600080fd5b506104187f000000000000000000000000000000000000000000000000000000000000000081565b3480156107a757600080fd5b506102886107b6366004613819565b611a0c565b3480156107c757600080fd5b506102886107d6366004613afe565b611a5f565b6102886107e93660046139d0565b611aa8565b3480156107fa57600080fd5b506102886108093660046138f3565b611d2a565b34801561081a57600080fd5b50610288610829366004613d12565b611d8e565b61028861083c366004613b4f565b611e23565b34801561084d57600080fd5b5061028861085c366004613998565b612039565b34801561086d57600080fd5b50610360600e5481565b34801561088357600080fd5b50610288610892366004613cd7565b6120af565b3480156108a357600080fd5b506108cd6108b2366004613819565b6009602052600090815260409020546001600160401b031681565b6040516001600160401b03909116815260200161036a565b3480156108f157600080fd5b50610288610900366004613998565b612119565b34801561091157600080fd5b50610288610920366004613b18565b61216e565b34801561093157600080fd5b50600d546103bb90600160a01b900460ff1681565b34801561095257600080fd5b506103bb610961366004613819565b600b6020526000908152604090205460ff1681565b34801561098257600080fd5b50610288610991366004613819565b6121c8565b3480156109a257600080fd5b506105d06109b1366004613c8b565b612241565b6109be612303565b612710811115610a155760405162461bcd60e51b815260206004820152601e60248201527f546f6b656e4272696467653a2062726964676520666565203e2031303025000060448201526064015b60405180910390fd5b60088190556040518181527f9a749c8193bfd56b2b2a05c0bd18fbb0f69801a3fd6576c40b90537fd0fc3854906020015b60405180910390a150565b337f00000000000000000000000000000000000000000000000000000000000000006001600160a01b031614610ac95760405162461bcd60e51b815260206004820152601e60248201527f4c7a4170703a20696e76616c696420656e64706f696e742063616c6c657200006044820152606401610a0c565b61ffff861660009081526001602052604081208054610ae7906143fe565b80601f0160208091040260200160405190810160405280929190818152602001828054610b13906143fe565b8015610b605780601f10610b3557610100808354040283529160200191610b60565b820191906000526020600020905b815481529060010190602001808311610b4357829003601f168201915b50505050509050805186869050148015610b7b575060008151115b8015610ba3575080516020820120604051610b999088908890613e53565b6040518091039020145b610bfe5760405162461bcd60e51b815260206004820152602660248201527f4c7a4170703a20696e76616c696420736f757263652073656e64696e6720636f6044820152651b9d1c9858dd60d21b6064820152608401610a0c565b610c748787878080601f01602080910402602001604051908101604052809392919081815260200183838082843760009201919091525050604080516020601f8a018190048102820181019092528881528a93509150889088908190840183828082843760009201919091525061236292505050565b50505050505050565b610c85612303565b6040516307e0db1760e01b81526001600160a01b037f000000000000000000000000000000000000000000000000000000000000000016906307e0db1790610cd1908490600401613fc7565b600060405180830381600087803b158015610ceb57600080fd5b505af1158015610cff573d6000803e3d6000fd5b5050505050565b610d0e612303565b6001600160a01b038116610d345760405162461bcd60e51b8152600401610a0c90613f42565b6001600160a01b0381166000908152600a602052604090205460ff1615610dab5760405162461bcd60e51b815260206004820152602560248201527f546f6b656e4272696467653a20746f6b656e20616c72656164792072656769736044820152641d195c995960da1b6064820152608401610a0c565b6000610db6826123db565b9050600660ff82161015610e255760405162461bcd60e51b815260206004820152603060248201527f546f6b656e4272696467653a20646563696d616c73206d757374206265203e3d60448201526f205348415245445f444543494d414c5360801b6064820152608401610a0c565b6001600160a01b0382166000908152600a60205260409020805460ff19166001179055610e536006826143af565b610e5e90600a6142a6565b6001600160a01b0383166000908152600c60205260409081902091909155517ff7fe8023cb2e36bde1d59a88ac5763a8c11be6d25e6819f71bb7e23e5bf0dc1690610eaa908490613ea0565b60405180910390a15050565b610ebe612303565b61ffff909116600090815260036020526040902055565b610edd612303565b6000610ee8846118c1565b905080821115610f0a5760405162461bcd60e51b8152600401610a0c90613ee0565b610f1e6001600160a01b03851684846124d9565b836001600160a01b03167ff15a0a3784dea9b4fe33bc98e2450745e262d310237b2868ea8ef56967ff3ecb8484604051610f59929190613eb4565b60405180910390a250505050565b610f6f612303565b6040516310ddb13760e01b81526001600160a01b037f000000000000000000000000000000000000000000000000000000000000000016906310ddb13790610cd1908490600401613fc7565b61ffff831660009081526001602052604081208054829190610fdc906143fe565b80601f0160208091040260200160405190810160405280929190818152602001828054611008906143fe565b80156110555780601f1061102a57610100808354040283529160200191611055565b820191906000526020600020905b81548152906001019060200180831161103857829003601f168201915b50505050509050838360405161106c929190613e53565b60405180910390208180519060200120149150509392505050565b61108f612303565b6040516342d65a8d60e01b81526001600160a01b037f000000000000000000000000000000000000000000000000000000000000000016906342d65a8d906110df9086908690869060040161402c565b600060405180830381600087803b1580156110f957600080fd5b505af1158015610c74573d6000803e3d6000fd5b60008061111a8484612534565b60006111278180806125f0565b905060008061113c6040890160208a01613819565b60075460405163040a7bb160e41b81526001600160a01b03928316939093141593507f0000000000000000000000000000000000000000000000000000000000000000909116916340a7bb10916111a69161ffff909116903090879087908d908d90600401613fd6565b604080518083038186803b1580156111bd57600080fd5b505afa1580156111d1573d6000803e3d6000fd5b505050506040513d601f19601f820116820180604052508101906111f59190613dba565b935093505050935093915050565b61120b612303565b6001600160a01b0381166112315760405162461bcd60e51b8152600401610a0c90613f42565b600d80546001600160a01b0319166001600160a01b0383161790556040517fe390bcec6614d6b1f8ae47a4d9d46531ce328e3d293ecd6ddd015cb01eff030090610a46908390613ea0565b3330146112da5760405162461bcd60e51b815260206004820152602660248201527f4e6f6e626c6f636b696e674c7a4170703a2063616c6c6572206d7573742062656044820152650204c7a4170760d41b6064820152608401610a0c565b6113508686868080601f01602080910402602001604051908101604052809392919081815260200183838082843760009201919091525050604080516020601f89018190048102820181019092528781528993509150879087908190840183828082843760009201919091525061263a92505050565b505050505050565b611360612303565b600d8054821515600160a81b0260ff60a81b199091161790556040517f5362d4bd13945e8d116b90d83a7050fa61ceb02bb79bfae783377adb46916d9490610a4690831515815260200190565b6113b5612303565b565b600160205260009081526040902080546113d0906143fe565b80601f01602080910402602001604051908101604052809291908181526020018280546113fc906143fe565b80156114495780601f1061141e57610100808354040283529160200191611449565b820191906000526020600020905b81548152906001019060200180831161142c57829003601f168201915b505050505081565b600d548690600160a81b900460ff1615801561148657506001600160a01b0381166000908152600b602052604090205460ff16155b6114a25760405162461bcd60e51b8152600401610a0c90613f15565b6114aa61290d565b6001600160a01b0387166000908152600a602052604090205460ff166114e25760405162461bcd60e51b8152600401610a0c90613f84565b6114ec8786612967565b94506114f9873387612985565b945060006115078887612ab0565b90506000816001600160401b0316116115775760405162461bcd60e51b815260206004820152602c60248201527f546f6b656e4272696467653a20616d6f756e745344206d75737420626520677260448201526b06561746572207468616e20360a41b6064820152608401610a0c565b6001600160a01b038816600090815260096020526040812080548392906115a89084906001600160401b0316614218565b92506101000a8154816001600160401b0302191690836001600160401b031602179055506115db88888388888834612b2e565b86336001600160a01b0316896001600160a01b03166000805160206144838339815191528960405161160f91815260200190565b60405180910390a450610c746001600655565b6000546001600160a01b031690565b611639612303565b6116478282610325856118c1565b6001600160a01b03821660009081526009602052604090205461167690839083906001600160401b031661167a565b5050565b611682612303565b600d54600160b01b900460ff16801561169d5750600e544210155b6116f85760405162461bcd60e51b815260206004820152602660248201527f546f6b656e4272696467653a20656d657267656e6379207769746864726177206044820152651b1bd8dad95960d21b6064820152608401610a0c565b6001600160a01b038316600090815260096020526040812080548392906117299084906001600160401b0316614387565b92506101000a8154816001600160401b0302191690836001600160401b0316021790555060006117598483612bb9565b905061176f6001600160a01b03851684836124d9565b836001600160a01b03167f49507695f37b729944475cf3388760a14760fef784b7ab5ca8863a5f3f8be6bd8483604051610f59929190613eb4565b61ffff81166000908152600160205260408120805460609291906117cd906143fe565b80601f01602080910402602001604051908101604052809291908181526020018280546117f9906143fe565b80156118465780601f1061181b57610100808354040283529160200191611846565b820191906000526020600020905b81548152906001019060200180831161182957829003601f168201915b5050505050905080516000141561189f5760405162461bcd60e51b815260206004820152601d60248201527f4c7a4170703a206e6f20747275737465642070617468207265636f72640000006044820152606401610a0c565b6118ba6000601483516118b29190614370565b839190612be5565b9392505050565b6001600160a01b03811660009081526009602052604081205481906118f09084906001600160401b0316612bb9565b905080836001600160a01b03166370a08231306040518263ffffffff1660e01b815260040161191f9190613ea0565b60206040518083038186803b15801561193757600080fd5b505afa15801561194b573d6000803e3d6000fd5b505050506040513d601f19601f8201168201806040525081019061196f9190613da2565b6118ba9190614370565b611981612303565b81813060405160200161199693929190613e63565b60408051601f1981840301815291815261ffff851660009081526001602090815291902082516119cb93919290910190613681565b507f8c0400cfe2d1199b1a725c78960bcc2a344d869b80590d0f2bd005db15a572ce8383836040516119ff9392919061402c565b60405180910390a1505050565b611a14612303565b600480546001600160a01b0319166001600160a01b0383161790556040517f5db758e995a17ec1ad84bdef7e8c3293a0bd6179bcce400dff5d4c3d87db726b90610a46908390613ea0565b611a67612303565b6007805461ffff191661ffff83161790556040517f6a9ea26cc7efedf0df6fd048e06f3de4be1a978bb5d440277147c76e1c0eb75a90610a46908390613fc7565b600d546001600160a01b03811690600160a81b900460ff16158015611ae657506001600160a01b0381166000908152600b602052604090205460ff16155b611b025760405162461bcd60e51b8152600401610a0c90613f15565b611b0a61290d565b600d546001600160a01b03168015801590611b3d57506001600160a01b0381166000908152600a602052604090205460ff165b611b935760405162461bcd60e51b815260206004820152602160248201527f546f6b656e4272696467653a20455448206973206e6f7420737570706f7274656044820152601960fa1b6064820152608401610a0c565b611b9d8187612967565b955060008611611c025760405162461bcd60e51b815260206004820152602a60248201527f546f6b656e4272696467653a20616d6f756e74206d75737420626520677265616044820152690746572207468616e20360b41b6064820152608401610a0c565b85341015611c225760405162461bcd60e51b8152600401610a0c90613ee0565b806001600160a01b031663d0e30db0876040518263ffffffff1660e01b81526004016000604051808303818588803b158015611c5d57600080fd5b505af1158015611c71573d6000803e3d6000fd5b50505050506000611c828288612ab0565b6001600160a01b038316600090815260096020526040812080549293508392909190611cb89084906001600160401b0316614218565b92506101000a8154816001600160401b0302191690836001600160401b03160217905550611cf68289838989898d34611cf19190614370565b612b2e565b604051878152889033906000906000805160206144838339815191529060200160405180910390a450506113506001600655565b611d32612303565b6001600160a01b0382166000818152600b6020908152604091829020805460ff19168515159081179091558251938452908301527fb1656bd3b50ddb6b12ef259c86e9cb359952b53c4403cfb5a83e23c515a35e229101610eaa565b611d96612303565b6040516332fb62e760e21b81526001600160a01b037f0000000000000000000000000000000000000000000000000000000000000000169063cbed8b9c90611dea908890889088908890889060040161417b565b600060405180830381600087803b158015611e0457600080fd5b505af1158015611e18573d6000803e3d6000fd5b505050505050505050565b61ffff86166000908152600560205260408082209051611e469088908890613e53565b90815260408051602092819003830190206001600160401b03871660009081529252902054905080611ec65760405162461bcd60e51b815260206004820152602360248201527f4e6f6e626c6f636b696e674c7a4170703a206e6f2073746f726564206d65737360448201526261676560e81b6064820152608401610a0c565b808383604051611ed7929190613e53565b604051809103902014611f365760405162461bcd60e51b815260206004820152602160248201527f4e6f6e626c6f636b696e674c7a4170703a20696e76616c6964207061796c6f616044820152601960fa1b6064820152608401610a0c565b61ffff87166000908152600560205260408082209051611f599089908990613e53565b90815260408051602092819003830181206001600160401b038916600090815290845282902093909355601f88018290048202830182019052868252611ff1918991899089908190840183828082843760009201919091525050604080516020601f8a018190048102820181019092528881528a93509150889088908190840183828082843760009201919091525061263a92505050565b7fc264d91f3adc5588250e1551f547752ca0cfa8f6b530d243b9f9f4cab10ea8e5878787878560405161202895949392919061404a565b60405180910390a150505050505050565b612041612303565b600d805460ff60b01b1916600160b01b8315150217905580612064576000612071565b6120714262093a80614200565b600e81905560408051831515815260208101929092527f27a37fc51e6c5d14309bbed3a54787c8788223b5d9cd5fe10605661665dd84159101610a46565b6120b7612303565b61ffff83811660008181526002602090815260408083209487168084529482529182902085905581519283528201929092529081018290527f9d5c7c0b934da8fefa9c7760c98383778a12dfbfc0c3b3106518f43fb9508ac0906060016119ff565b612121612303565b600d8054821515600160a01b0260ff60a01b199091161790556040517f1584ad594a70cbe1e6515592e1272a987d922b097ead875069cebe8b40c004a490610a4690831515815260200190565b612176612303565b61ffff83166000908152600160205260409020612194908383613705565b507ffa41487ad5d6728f0b19276fa1eddc16558578f5109fc39d2dc33c3230470dab8383836040516119ff9392919061402c565b6121d0612303565b6001600160a01b0381166122355760405162461bcd60e51b815260206004820152602660248201527f4f776e61626c653a206e6577206f776e657220697320746865207a65726f206160448201526564647265737360d01b6064820152608401610a0c565b61223e81612cf2565b50565b604051633d7b2f6f60e21b815261ffff808616600483015284166024820152306044820152606481018290526060907f00000000000000000000000000000000000000000000000000000000000000006001600160a01b03169063f5ecbdbc9060840160006040518083038186803b1580156122bc57600080fd5b505afa1580156122d0573d6000803e3d6000fd5b505050506040513d6000823e601f3d908101601f191682016040526122f89190810190613a36565b90505b949350505050565b3361230c611622565b6001600160a01b0316146113b55760405162461bcd60e51b815260206004820181905260248201527f4f776e61626c653a2063616c6c6572206973206e6f7420746865206f776e65726044820152606401610a0c565b6000806123c55a60966366ad5c8a60e01b8989898960405160240161238a94939291906140df565b60408051601f198184030181529190526020810180516001600160e01b03166001600160e01b03199093169290921790915230929190612d42565b9150915081611350576113508686868685612dda565b60408051600481526024810182526020810180516001600160e01b031663313ce56760e01b1790529051600091829182916001600160a01b038616916124219190613e84565b600060405180830381855afa9150503d806000811461245c576040519150601f19603f3d011682016040523d82523d6000602084013e612461565b606091505b5091509150816124c55760405162461bcd60e51b815260206004820152602960248201527f546f6b656e4272696467653a206661696c656420746f2067657420746f6b656e60448201526820646563696d616c7360b81b6064820152608401610a0c565b808060200190518101906122fb9190613ddd565b61252f8363a9059cbb60e01b84846040516024016124f8929190613eb4565b60408051601f198184030181529190526020810180516001600160e01b03166001600160e01b031990931692909217909152612e77565b505050565b600d54600160a01b900460ff161561258f576007546116769061ffff16600084848080601f01602080910402602001604051908101604052809392919081815260200183838082843760009201829052509250612f4c915050565b80156116765760405162461bcd60e51b815260206004820152602a60248201527f546f6b656e4272696467653a205f61646170746572506172616d73206d7573746044820152691031329032b6b83a3c9760b11b6064820152608401610a0c565b60408051600060208201526001600160a01b03949094166021850152604184019290925260c01b6001600160c01b0319166061830152805180830360490181526069909201905290565b60075461ffff85811691161461269e5760405162461bcd60e51b8152602060048201526024808201527f546f6b656e4272696467653a20696e76616c696420736f7572636520636861696044820152631b881a5960e21b6064820152608401610a0c565b6000806000806126ad8561301c565b600d5493975091955093509150600160a81b900460ff161580156126ea57506001600160a01b0384166000908152600b602052604090205460ff16155b6127065760405162461bcd60e51b8152600401610a0c90613f15565b6001600160a01b0384166000908152600a602052604090205460ff1661273e5760405162461bcd60e51b8152600401610a0c90613f84565b6001600160a01b0384166000908152600960205260409020546001600160401b039081169083168110156127c05760405162461bcd60e51b815260206004820152602360248201527f546f6b656e4272696467653a20696e73756666696369656e74206c697175696460448201526269747960e81b6064820152608401610a0c565b6127ca8382614387565b6001600160a01b038616600090815260096020526040812080546001600160401b0319166001600160401b03939093169290921790915561280b8685612bb9565b905060006008541161281f57806000612828565b6128288161318e565b50600d549091506001600160a01b0387811691161480156128465750825b1561289657600d54612862906001600160a01b031686836131bf565b6040518181526001600160a01b038616906000906000805160206144a38339815191529060200160405180910390a3612901565b6001600160a01b038516156128ab57846128af565b61dead5b94506128c56001600160a01b03871686836124d9565b846001600160a01b0316866001600160a01b03166000805160206144a3833981519152836040516128f891815260200190565b60405180910390a35b50505050505050505050565b600260065414156129605760405162461bcd60e51b815260206004820152601f60248201527f5265656e7472616e637947756172643a207265656e7472616e742063616c6c006044820152606401610a0c565b6002600655565b600061297c836129778585612ab0565b612bb9565b90505b92915050565b600080846001600160a01b03166370a08231306040518263ffffffff1660e01b81526004016129b49190613ea0565b60206040518083038186803b1580156129cc57600080fd5b505afa1580156129e0573d6000803e3d6000fd5b505050506040513d601f19601f82011682018060405250810190612a049190613da2565b9050612a1b6001600160a01b038616853086613255565b6040516370a0823160e01b81526000906001600160a01b038716906370a0823190612a4a903090600401613ea0565b60206040518083038186803b158015612a6257600080fd5b505afa158015612a76573d6000803e3d6000fd5b505050506040513d601f19601f82011682018060405250810190612a9a9190613da2565b9050612aa68282614370565b9695505050505050565b6001600160a01b0382166000908152600c60205260408120548190612ad59084614243565b90506001600160401b0381111561297c5760405162461bcd60e51b815260206004820152601e60248201527f546f6b656e4272696467653a20616d6f756e745344206f766572666c6f7700006044820152606401610a0c565b612b388383612534565b6000612b458888886125f0565b600754909150612baf9061ffff1682612b616020890189613819565b612b7160408a0160208b01613819565b88888080601f0160208091040260200160405190810160405280939291908181526020018383808284376000920191909152508a925061328d915050565b5050505050505050565b6001600160a01b0382166000908152600c602052604081205461297c906001600160401b038416614351565b606081612bf381601f614200565b1015612c325760405162461bcd60e51b815260206004820152600e60248201526d736c6963655f6f766572666c6f7760901b6044820152606401610a0c565b612c3c8284614200565b84511015612c805760405162461bcd60e51b8152602060048201526011602482015270736c6963655f6f75744f66426f756e647360781b6044820152606401610a0c565b606082158015612c9f5760405191506000825260208201604052612ce9565b6040519150601f8416801560200281840101858101878315602002848b0101015b81831015612cd8578051835260209283019201612cc0565b5050858452601f01601f1916604052505b50949350505050565b600080546001600160a01b038381166001600160a01b0319831681178455604051919092169283917f8be0079c531659141344cd1fd0a4f28419497f9722a3daafe3b4186f6b6457e09190a35050565b6000606060008060008661ffff166001600160401b03811115612d7557634e487b7160e01b600052604160045260246000fd5b6040519080825280601f01601f191660200182016040528015612d9f576020820181803683370190505b50905060008087516020890160008d8df191503d925086831115612dc1578692505b828152826000602083013e909890975095505050505050565b8180519060200120600560008761ffff1661ffff16815260200190815260200160002085604051612e0b9190613e84565b9081526040805191829003602090810183206001600160401b0388166000908152915220919091557fe183f33de2837795525b4792ca4cd60535bd77c53b7e7030060bfcf5734d6b0c90612e68908790879087908790879061411d565b60405180910390a15050505050565b6000612ecc826040518060400160405280602081526020017f5361666545524332303a206c6f772d6c6576656c2063616c6c206661696c6564815250856001600160a01b03166134339092919063ffffffff16565b9050805160001480612eed575080806020019051810190612eed91906139b4565b61252f5760405162461bcd60e51b815260206004820152602a60248201527f5361666545524332303a204552433230206f7065726174696f6e20646964206e6044820152691bdd081cdd58d8d9595960b21b6064820152608401610a0c565b6000612f5783613442565b61ffff80871660009081526002602090815260408083209389168352929052205490915080612fc55760405162461bcd60e51b815260206004820152601a602482015279131e905c1c0e881b5a5b91d85cd31a5b5a5d081b9bdd081cd95d60321b6044820152606401610a0c565b612fcf8382614200565b8210156113505760405162461bcd60e51b815260206004820152601b60248201527a4c7a4170703a20676173206c696d697420697320746f6f206c6f7760281b6044820152606401610a0c565b6000806000808451604a1461307f5760405162461bcd60e51b815260206004820152602360248201527f546f6b656e4272696467653a20696e76616c6964207061796c6f6164206c656e6044820152620cee8d60eb1b6064820152608401610a0c565b6000856000815181106130a257634e487b7160e01b600052603260045260246000fd5b016020015160f81c60018111156130c957634e487b7160e01b600052602160045260246000fd5b905060018160018111156130ed57634e487b7160e01b600052602160045260246000fd5b1461313a5760405162461bcd60e51b815260206004820181905260248201527f546f6b656e4272696467653a20756e6b6e6f776e207061636b657420747970656044820152606401610a0c565b6021860151945060418601519350604986015192508560498151811061317057634e487b7160e01b600052603260045260246000fd5b602001015160f81c60f81b60f81c60ff166001149150509193509193565b600080612710600854846131a29190614351565b6131ac9190614243565b90506131b88184614370565b9150915091565b604051632e1a7d4d60e01b8152600481018290526001600160a01b03841690632e1a7d4d90602401600060405180830381600087803b15801561320157600080fd5b505af1158015613215573d6000803e3d6000fd5b50506040516001600160a01b038516925083156108fc02915083906000818181858888f1935050505015801561324f573d6000803e3d6000fd5b50505050565b6040516001600160a01b038085166024830152831660448201526064810182905261324f9085906323b872dd60e01b906084016124f8565b61ffff8616600090815260016020526040812080546132ab906143fe565b80601f01602080910402602001604051908101604052809291908181526020018280546132d7906143fe565b80156133245780601f106132f957610100808354040283529160200191613324565b820191906000526020600020905b81548152906001019060200180831161330757829003601f168201915b505050505090508051600014156133965760405162461bcd60e51b815260206004820152603060248201527f4c7a4170703a2064657374696e6174696f6e20636861696e206973206e6f742060448201526f61207472757374656420736f7572636560801b6064820152608401610a0c565b6133a187875161349d565b60405162c5803160e81b81526001600160a01b037f0000000000000000000000000000000000000000000000000000000000000000169063c58031009084906133f8908b9086908c908c908c908c90600401614085565b6000604051808303818588803b15801561341157600080fd5b505af1158015613425573d6000803e3d6000fd5b505050505050505050505050565b60606122fb848460008561350b565b60006022825110156134955760405162461bcd60e51b815260206004820152601c60248201527b4c7a4170703a20696e76616c69642061646170746572506172616d7360201b6044820152606401610a0c565b506022015190565b61ffff8216600090815260036020526040902054806134bb57506127105b8082111561252f5760405162461bcd60e51b815260206004820181905260248201527f4c7a4170703a207061796c6f61642073697a6520697320746f6f206c617267656044820152606401610a0c565b60608247101561356c5760405162461bcd60e51b815260206004820152602660248201527f416464726573733a20696e73756666696369656e742062616c616e636520666f6044820152651c8818d85b1b60d21b6064820152608401610a0c565b600080866001600160a01b031685876040516135889190613e84565b60006040518083038185875af1925050503d80600081146135c5576040519150601f19603f3d011682016040523d82523d6000602084013e6135ca565b606091505b50915091506135db878383876135e6565b979650505050505050565b6060831561365257825161364b576001600160a01b0385163b61364b5760405162461bcd60e51b815260206004820152601d60248201527f416464726573733a2063616c6c20746f206e6f6e2d636f6e74726163740000006044820152606401610a0c565b50816122fb565b6122fb83838151156136675781518083602001fd5b8060405162461bcd60e51b8152600401610a0c9190613ecd565b82805461368d906143fe565b90600052602060002090601f0160209004810192826136af57600085556136f5565b82601f106136c857805160ff19168380011785556136f5565b828001600101855582156136f5579182015b828111156136f55782518255916020019190600101906136da565b50613701929150613779565b5090565b828054613711906143fe565b90600052602060002090601f01602090048101928261373357600085556136f5565b82601f1061374c5782800160ff198235161785556136f5565b828001600101855582156136f5579182015b828111156136f557823582559160200191906001019061375e565b5b80821115613701576000815560010161377a565b60008083601f84011261379f578182fd5b5081356001600160401b038111156137b5578182fd5b6020830191508360208285010111156137cd57600080fd5b9250929050565b6000604082840312156137e5578081fd5b50919050565b803561ffff811681146137fd57600080fd5b919050565b80356001600160401b03811681146137fd57600080fd5b60006020828403121561382a578081fd5b813561297c8161445f565b60008060408385031215613847578081fd5b82356138528161445f565b915060208301356138628161445f565b809150509250929050565b600080600060608486031215613881578081fd5b833561388c8161445f565b9250602084013561389c8161445f565b929592945050506040919091013590565b6000806000606084860312156138c1578283fd5b83356138cc8161445f565b925060208401356138dc8161445f565b91506138ea60408501613802565b90509250925092565b60008060408385031215613905578182fd5b82356139108161445f565b9150602083013561386281614474565b60008060008060008060c08789031215613938578182fd5b86356139438161445f565b9550602087013594506040870135935061396088606089016137d4565b925060a08701356001600160401b0381111561397a578283fd5b61398689828a0161378e565b979a9699509497509295939492505050565b6000602082840312156139a9578081fd5b813561297c81614474565b6000602082840312156139c5578081fd5b815161297c81614474565b600080600080600060a086880312156139e7578283fd5b85359450602086013593506139ff87604088016137d4565b925060808601356001600160401b03811115613a19578182fd5b613a258882890161378e565b969995985093965092949392505050565b600060208284031215613a47578081fd5b81516001600160401b03811115613a5c578182fd5b8201601f81018413613a6c578182fd5b8051613a7f613a7a826141d9565b6141a9565b818152856020838501011115613a93578384fd5b613aa48260208301602086016143d2565b95945050505050565b600080600060608486031215613ac1578081fd5b613acb85856137d4565b925060408401356001600160401b03811115613ae5578182fd5b613af18682870161378e565b9497909650939450505050565b600060208284031215613b0f578081fd5b61297c826137eb565b600080600060408486031215613b2c578081fd5b613b35846137eb565b925060208401356001600160401b03811115613ae5578182fd5b60008060008060008060808789031215613b67578384fd5b613b70876137eb565b955060208701356001600160401b0380821115613b8b578586fd5b613b978a838b0161378e565b9097509550859150613bab60408a01613802565b94506060890135915080821115613bc0578384fd5b5061398689828a0161378e565b600080600060608486031215613be1578081fd5b613bea846137eb565b925060208401356001600160401b03811115613c04578182fd5b8401601f81018613613c14578182fd5b8035613c22613a7a826141d9565b818152876020838501011115613c36578384fd5b8160208401602083013790810160200183905292506138ea905060408501613802565b60008060408385031215613c6b578182fd5b613c74836137eb565b9150613c82602084016137eb565b90509250929050565b60008060008060808587031215613ca0578182fd5b613ca9856137eb565b9350613cb7602086016137eb565b92506040850135613cc78161445f565b9396929550929360600135925050565b600080600060608486031215613ceb578081fd5b613cf4846137eb565b9250613d02602085016137eb565b9150604084013590509250925092565b600080600080600060808688031215613d29578283fd5b613d32866137eb565b9450613d40602087016137eb565b93506040860135925060608601356001600160401b03811115613a19578182fd5b60008060408385031215613d73578182fd5b613d7c836137eb565b946020939093013593505050565b600060208284031215613d9b578081fd5b5035919050565b600060208284031215613db3578081fd5b5051919050565b60008060408385031215613dcc578182fd5b505080516020909101519092909150565b600060208284031215613dee578081fd5b815160ff8116811461297c578182fd5b81835281816020850137506000828201602090810191909152601f909101601f19169091010190565b60008151808452613e3f8160208601602086016143d2565b601f01601f19169290920160200192915050565b8183823760009101908152919050565b8284823760609190911b6001600160601b0319169101908152601401919050565b60008251613e968184602087016143d2565b9190910192915050565b6001600160a01b0391909116815260200190565b6001600160a01b03929092168252602082015260400190565b60208152600061297c6020830184613e27565b6020808252601b908201527a0a8ded6cadc84e4d2c8ceca7440cccaca40dcdee840cadcdeeaced602b1b604082015260600190565b602080825260139082015272151bdad95b909c9a5919d94e881c185d5cd959606a1b604082015260600190565b60208082526022908201527f546f6b656e4272696467653a20696e76616c696420746f6b656e206164647265604082015261737360f01b606082015260800190565b60208082526023908201527f546f6b656e4272696467653a20746f6b656e206973206e6f7420737570706f726040820152621d195960ea1b606082015260800190565b61ffff91909116815260200190565b61ffff871681526001600160a01b038616602082015260a06040820181905260009061400490830187613e27565b8515156060840152828103608084015261401f818587613dfe565b9998505050505050505050565b61ffff841681526040602082015260006122f8604083018486613dfe565b61ffff86168152608060208201526000614068608083018688613dfe565b6001600160401b0394909416604083015250606001529392505050565b61ffff8716815260c0602082015260006140a260c0830188613e27565b82810360408401526140b48188613e27565b6001600160a01b0387811660608601528616608085015283810360a0850152905061401f8185613e27565b61ffff851681526080602082015260006140fc6080830186613e27565b6001600160401b038516604084015282810360608401526135db8185613e27565b61ffff8616815260a06020820152600061413a60a0830187613e27565b6001600160401b0386166040840152828103606084015261415b8186613e27565b9050828103608084015261416f8185613e27565b98975050505050505050565b600061ffff8088168352808716602084015250846040830152608060608301526135db608083018486613dfe565b604051601f8201601f191681016001600160401b03811182821017156141d1576141d1614449565b604052919050565b60006001600160401b038211156141f2576141f2614449565b50601f01601f191660200190565b6000821982111561421357614213614433565b500190565b60006001600160401b0382811684821680830382111561423a5761423a614433565b01949350505050565b60008261425e57634e487b7160e01b81526012600452602481fd5b500490565b600181815b8085111561429e57816000190482111561428457614284614433565b8085161561429157918102915b93841c9390800290614268565b509250929050565b600061297c60ff8416836000826142bf5750600161297f565b816142cc5750600061297f565b81600181146142e257600281146142ec57614308565b600191505061297f565b60ff8411156142fd576142fd614433565b50506001821b61297f565b5060208310610133831016604e8410600b841016171561432b575081810a61297f565b6143358383614263565b806000190482111561434957614349614433565b029392505050565b600081600019048311821515161561436b5761436b614433565b500290565b60008282101561438257614382614433565b500390565b60006001600160401b03838116908316818110156143a7576143a7614433565b039392505050565b600060ff821660ff8416808210156143c9576143c9614433565b90039392505050565b60005b838110156143ed5781810151838201526020016143d5565b8381111561324f5750506000910152565b600181811c9082168061441257607f821691505b602082108114156137e557634e487b7160e01b600052602260045260246000fd5b634e487b7160e01b600052601160045260246000fd5b634e487b7160e01b600052604160045260246000fd5b6001600160a01b038116811461223e57600080fd5b801515811461223e57600080fdfebe6ff12fec5087498d44bc85f1a83235a630944a1e2d5a7938afe810370a5867fd19781f43410d9594fd4c02dd1d98dbe99099cbd222d5851a6e183c468d33caa264697066735822122029e07df00dfd92a775422429d17cdcc89609eee2d69464da1708dbd6e4e473f964736f6c63430008040033",
  "linkReferences": {},
  "deployedLinkReferences": {}
}